{
  "transactions": [
    {
      "hash": null,
      "transactionType": "CALL",
      "contractName": null,
      "contractAddress": "0xe3bab20b2711e0577c46d14fd10bffc0961036c3",
      "function": "approve(address,uint256)",
      "arguments": [
        "0xC60D72c8Cb53842f15cfFa8A0bb9DbC759E44452",
        "10000000000"
      ],
      "transaction": {
        "from": "0xee03621ce83bbf6e3931bccf35b144354f16ccf7",
        "to": "0xe3bab20b2711e0577c46d14fd10bffc0961036c3",
        "gas": "0xfd30",
        "value": "0x0",
        "input": "0x095ea7b3000000000000000000000000c60d72c8cb53842f15cffa8a0bb9dbc759e4445200000000000000000000000000000000000000000000000000000002540be400",
        "nonce": "0x3c",
        "chainId": "0x2105"
      },
      "additionalContracts": [],
      "isFixedGasLimit": false
    },
    {
      "hash": null,
      "transactionType": "CALL",
      "contractName": null,
      "contractAddress": "0xc60d72c8cb53842f15cffa8a0bb9dbc759e44452",
      "function": "supplyLiquidity(address,address,uint256)",
      "arguments": [
        "0xEe03621Ce83BbF6e3931BcCf35b144354F16ccf7",
        "0xe3BaB20B2711e0577C46d14fd10bfFC0961036C3",
        "10000000000"
      ],
      "transaction": {
        "from": "0xee03621ce83bbf6e3931bccf35b144354f16ccf7",
        "to": "0xc60d72c8cb53842f15cffa8a0bb9dbc759e44452",
        "gas": "0x37420",
        "value": "0x0",
        "input": "0xbf38fd2b000000000000000000000000ee03621ce83bbf6e3931bccf35b144354f16ccf7000000000000000000000000e3bab20b2711e0577c46d14fd10bffc0961036c300000000000000000000000000000000000000000000000000000002540be400",
        "nonce": "0x3d",
        "chainId": "0x2105"
      },
      "additionalContracts": [],
      "isFixedGasLimit": false
    }
  ],
  "receipts": [],
  "libraries": [],
  "pending": [],
  "returns": {},
  "timestamp": 1760769887234,
  "chain": 8453,
  "commit": "ad7e428"
}