{
  "transactions": [
    {
      "hash": "0x682dfc9b5ea0e49f600a22da8c661c5ca37d6561daae5077a29ddc264e8b3b8a",
      "transactionType": "CALL",
      "contractName": null,
      "contractAddress": "0xc60d72c8cb53842f15cffa8a0bb9dbc759e44452",
      "function": "borrow(address,address,uint256,uint256)",
      "arguments": [
        "0xEe03621Ce83BbF6e3931BcCf35b144354F16ccf7",
        "0xe3BaB20B2711e0577C46d14fd10bfFC0961036C3",
        "100000000",
        "8453"
      ],
      "transaction": {
        "from": "0xee03621ce83bbf6e3931bccf35b144354f16ccf7",
        "to": "0xc60d72c8cb53842f15cffa8a0bb9dbc759e44452",
        "gas": "0x33f74",
        "value": "0x0",
        "input": "0xfbf37739000000000000000000000000ee03621ce83bbf6e3931bccf35b144354f16ccf7000000000000000000000000e3bab20b2711e0577c46d14fd10bffc0961036c30000000000000000000000000000000000000000000000000000000005f5e1000000000000000000000000000000000000000000000000000000000000002105",
        "nonce": "0x40",
        "chainId": "0x2105"
      },
      "additionalContracts": [],
      "isFixedGasLimit": false
    }
  ],
  "receipts": [
    {
      "status": "0x1",
      "cumulativeGasUsed": "0x12491ad",
      "logs": [
        {
          "address": "0xe3bab20b2711e0577c46d14fd10bffc0961036c3",
          "topics": [
            "0xddf252ad1be2c89b69c2b068fc378daa952ba7f163c4a11628f55a4df523b3ef",
            "0x000000000000000000000000c60d72c8cb53842f15cffa8a0bb9dbc759e44452",
            "0x000000000000000000000000ee03621ce83bbf6e3931bccf35b144354f16ccf7"
          ],
          "data": "0x0000000000000000000000000000000000000000000000000000000005f5e100",
          "blockHash": "0x3066d261295fd62ef36029abb6987d1b65fa86875a36f5da134cc2319feb2a7f",
          "blockNumber": "0x2346ed8",
          "blockTimestamp": "0x68f33a93",
          "transactionHash": "0x682dfc9b5ea0e49f600a22da8c661c5ca37d6561daae5077a29ddc264e8b3b8a",
          "transactionIndex": "0x68",
          "logIndex": "0x122",
          "removed": false
        },
        {
          "address": "0xc60d72c8cb53842f15cffa8a0bb9dbc759e44452",
          "topics": [
            "0xc1561b330e73faa7d5d1ac03c968d8f359b0191ccdb9cc002cf7d8eb6ae038cb",
            "0x000000000000000000000000ee03621ce83bbf6e3931bccf35b144354f16ccf7",
            "0x000000000000000000000000e3bab20b2711e0577c46d14fd10bffc0961036c3"
          ],
          "data": "0x0000000000000000000000000000000000000000000000000000000005f5e1000000000000000000000000000000000000000000000000000000000000002105",
          "blockHash": "0x3066d261295fd62ef36029abb6987d1b65fa86875a36f5da134cc2319feb2a7f",
          "blockNumber": "0x2346ed8",
          "blockTimestamp": "0x68f33a93",
          "transactionHash": "0x682dfc9b5ea0e49f600a22da8c661c5ca37d6561daae5077a29ddc264e8b3b8a",
          "transactionIndex": "0x68",
          "logIndex": "0x123",
          "removed": false
        }
      ],
      "logsBloom": "0x00000000001000000000000000000800000000000000000000000000000000000000000000084000000800000000000000000000000000000000000000020000000000000000000000000018040000000000000000000000000000000080000000000010000000004000000000000000000000000018080000000010000000000000000000000000000000000000000000000000000000000000000000000000000000400000000000000000000000000000000000000000000000000000000000000002000000000000000012000000000000000000000000000000000000000100000000000000000000000000000000000000000000000000000000000000",
      "type": "0x2",
      "transactionHash": "0x682dfc9b5ea0e49f600a22da8c661c5ca37d6561daae5077a29ddc264e8b3b8a",
      "transactionIndex": "0x68",
      "blockHash": "0x3066d261295fd62ef36029abb6987d1b65fa86875a36f5da134cc2319feb2a7f",
      "blockNumber": "0x2346ed8",
      "gasUsed": "0x259f6",
      "effectiveGasPrice": "0x111c12",
      "from": "0xee03621ce83bbf6e3931bccf35b144354f16ccf7",
      "to": "0xc60d72c8cb53842f15cffa8a0bb9dbc759e44452",
      "contractAddress": null,
      "l1BaseFeeScalar": "0x8dd",
      "l1BlobBaseFee": "0x1",
      "l1BlobBaseFeeScalar": "0x101c12",
      "l1Fee": "0x19c35168",
      "l1GasPrice": "0x647a4a0",
      "l1GasUsed": "0x710"
    }
  ],
  "libraries": [],
  "pending": [],
  "returns": {},
  "timestamp": 1760770707924,
  "chain": 8453,
  "commit": "ad7e428"
}