{
  "transactions": [
    {
      "hash": "0x937b98e36e70c12d03ef05cdb8f4253e0002cd2e38afc529ccd2c74a5d02e907",
      "transactionType": "CALL",
      "contractName": null,
      "contractAddress": "0xc60d72c8cb53842f15cffa8a0bb9dbc759e44452",
      "function": "borrow(address,address,uint256,uint256)",
      "arguments": [
        "0xEe03621Ce83BbF6e3931BcCf35b144354F16ccf7",
        "0xe3BaB20B2711e0577C46d14fd10bfFC0961036C3",
        "100000000",
        "8453"
      ],
      "transaction": {
        "from": "0xee03621ce83bbf6e3931bccf35b144354f16ccf7",
        "to": "0xc60d72c8cb53842f15cffa8a0bb9dbc759e44452",
        "gas": "0x25fd0",
        "value": "0x0",
        "input": "0xfbf37739000000000000000000000000ee03621ce83bbf6e3931bccf35b144354f16ccf7000000000000000000000000e3bab20b2711e0577c46d14fd10bffc0961036c30000000000000000000000000000000000000000000000000000000005f5e1000000000000000000000000000000000000000000000000000000000000002105",
        "nonce": "0x77",
        "chainId": "0x2105"
      },
      "additionalContracts": [],
      "isFixedGasLimit": false
    }
  ],
  "receipts": [
    {
      "status": "0x1",
      "cumulativeGasUsed": "0xe5112d",
      "logs": [
        {
          "address": "0xe3bab20b2711e0577c46d14fd10bffc0961036c3",
          "topics": [
            "0xddf252ad1be2c89b69c2b068fc378daa952ba7f163c4a11628f55a4df523b3ef",
            "0x000000000000000000000000c60d72c8cb53842f15cffa8a0bb9dbc759e44452",
            "0x000000000000000000000000ee03621ce83bbf6e3931bccf35b144354f16ccf7"
          ],
          "data": "0x0000000000000000000000000000000000000000000000000000000005f5e100",
          "blockHash": "0x6e4ae302adb84408919283f66447ceb093267bc30f63ef68997d1abb24234ba9",
          "blockNumber": "0x2348b87",
          "blockTimestamp": "0x68f373f1",
          "transactionHash": "0x937b98e36e70c12d03ef05cdb8f4253e0002cd2e38afc529ccd2c74a5d02e907",
          "transactionIndex": "0x4b",
          "logIndex": "0x132",
          "removed": false
        },
        {
          "address": "0xc60d72c8cb53842f15cffa8a0bb9dbc759e44452",
          "topics": [
            "0xc1561b330e73faa7d5d1ac03c968d8f359b0191ccdb9cc002cf7d8eb6ae038cb",
            "0x000000000000000000000000ee03621ce83bbf6e3931bccf35b144354f16ccf7",
            "0x000000000000000000000000e3bab20b2711e0577c46d14fd10bffc0961036c3"
          ],
          "data": "0x0000000000000000000000000000000000000000000000000000000005f5e1000000000000000000000000000000000000000000000000000000000000002105",
          "blockHash": "0x6e4ae302adb84408919283f66447ceb093267bc30f63ef68997d1abb24234ba9",
          "blockNumber": "0x2348b87",
          "blockTimestamp": "0x68f373f1",
          "transactionHash": "0x937b98e36e70c12d03ef05cdb8f4253e0002cd2e38afc529ccd2c74a5d02e907",
          "transactionIndex": "0x4b",
          "logIndex": "0x133",
          "removed": false
        }
      ],
      "logsBloom": "0x00000000001000000000000000000800000000000000000000000000000000000000000000084000000800000000000000000000000000000000000000020000000000000000000000000018040000000000000000000000000000000080000000000010000000004000000000000000000000000018080000000010000000000000000000000000000000000000000000000000000000000000000000000000000000400000000000000000000000000000000000000000000000000000000000000002000000000000000012000000000000000000000000000000000000000100000000000000000000000000000000000000000000000000000000000000",
      "type": "0x2",
      "transactionHash": "0x937b98e36e70c12d03ef05cdb8f4253e0002cd2e38afc529ccd2c74a5d02e907",
      "transactionIndex": "0x4b",
      "blockHash": "0x6e4ae302adb84408919283f66447ceb093267bc30f63ef68997d1abb24234ba9",
      "blockNumber": "0x2348b87",
      "gasUsed": "0x19f9a",
      "effectiveGasPrice": "0xc69ab",
      "from": "0xee03621ce83bbf6e3931bccf35b144354f16ccf7",
      "to": "0xc60d72c8cb53842f15cffa8a0bb9dbc759e44452",
      "contractAddress": null,
      "l1BaseFeeScalar": "0x8dd",
      "l1BlobBaseFee": "0x1",
      "l1BlobBaseFeeScalar": "0x101c12",
      "l1Fee": "0x1f491824",
      "l1GasPrice": "0x7bd9883",
      "l1GasUsed": "0x6f5"
    }
  ],
  "libraries": [],
  "pending": [],
  "returns": {},
  "timestamp": 1760785394482,
  "chain": 8453,
  "commit": "aaddbdd"
}