{
  "transactions": [
    {
      "hash": "0xc0dd8dbb1f42b6466f8b62f4b64ad54f996c888d2dfce733a750dc4e1c67ff77",
      "transactionType": "CALL",
      "contractName": null,
      "contractAddress": "0xc0473bd9e466a7e564b9f1a0065f1efa41966d54",
      "function": "setTokenPriceFeed(address,address)",
      "arguments": [
        "0xC23e60Ac84240ffCe72680652515dfb1435C356b",
        "0x50834F3163758fcC1Df9973b6e91f0F0F0434aD3"
      ],
      "transaction": {
        "from": "0xee03621ce83bbf6e3931bccf35b144354f16ccf7",
        "to": "0xc0473bd9e466a7e564b9f1a0065f1efa41966d54",
        "gas": "0x98d0",
        "value": "0x0",
        "input": "0x674417ae000000000000000000000000c23e60ac84240ffce72680652515dfb1435c356b00000000000000000000000050834f3163758fcc1df9973b6e91f0f0f0434ad3",
        "nonce": "0xd3",
        "chainId": "0xa4b1"
      },
      "additionalContracts": [],
      "isFixedGasLimit": false
    },
    {
      "hash": "0x725bd7b0b814f46c6bb627a7bf6ed284888e02042c45ff11ec646cb2f4968d42",
      "transactionType": "CALL",
      "contractName": null,
      "contractAddress": "0xc0473bd9e466a7e564b9f1a0065f1efa41966d54",
      "function": "setTokenPriceFeed(address,address)",
      "arguments": [
        "0x338802B73DA88D05e1b3A0203092AD43807049Be",
        "0x639Fe6ab55C921f74e7fac1ee960C0B6293ba612"
      ],
      "transaction": {
        "from": "0xee03621ce83bbf6e3931bccf35b144354f16ccf7",
        "to": "0xc0473bd9e466a7e564b9f1a0065f1efa41966d54",
        "gas": "0x98d0",
        "value": "0x0",
        "input": "0x674417ae000000000000000000000000338802b73da88d05e1b3a0203092ad43807049be000000000000000000000000639fe6ab55c921f74e7fac1ee960c0b6293ba612",
        "nonce": "0xd4",
        "chainId": "0xa4b1"
      },
      "additionalContracts": [],
      "isFixedGasLimit": false
    },
    {
      "hash": "0xfa0429d4c254253ba9f0437300db15ee30c284bdd3025323a0c043c185cbc831",
      "transactionType": "CALL",
      "contractName": null,
      "contractAddress": "0xc0473bd9e466a7e564b9f1a0065f1efa41966d54",
      "function": "setTokenPriceFeed(address,address)",
      "arguments": [
        "0x99d19F4Cb938E0aAD646358c20cB9D0CE0A7a945",
        "0x2b4c8a6171eff27905A8490E4cdB711bc0AC77cb"
      ],
      "transaction": {
        "from": "0xee03621ce83bbf6e3931bccf35b144354f16ccf7",
        "to": "0xc0473bd9e466a7e564b9f1a0065f1efa41966d54",
        "gas": "0x98ce",
        "value": "0x0",
        "input": "0x674417ae00000000000000000000000099d19f4cb938e0aad646358c20cb9d0ce0a7a9450000000000000000000000002b4c8a6171eff27905a8490e4cdb711bc0ac77cb",
        "nonce": "0xd5",
        "chainId": "0xa4b1"
      },
      "additionalContracts": [],
      "isFixedGasLimit": false
    },
    {
      "hash": "0xe9f5d8860008c62fd23cf48d53168c386fa30eb214c983ccb1a0736a12f7dba7",
      "transactionType": "CALL",
      "contractName": null,
      "contractAddress": "0xc0473bd9e466a7e564b9f1a0065f1efa41966d54",
      "function": "setTokenPriceFeed(address,address)",
      "arguments": [
        "0xA0F8C84E78eabDF241A9fA9Ff6733AB17bB4E7FA",
        "0x93c1b89D8F71E4688dEBDb688347A04eD91cfddd"
      ],
      "transaction": {
        "from": "0xee03621ce83bbf6e3931bccf35b144354f16ccf7",
        "to": "0xc0473bd9e466a7e564b9f1a0065f1efa41966d54",
        "gas": "0x98ce",
        "value": "0x0",
        "input": "0x674417ae000000000000000000000000a0f8c84e78eabdf241a9fa9ff6733ab17bb4e7fa00000000000000000000000093c1b89d8f71e4688debdb688347a04ed91cfddd",
        "nonce": "0xd6",
        "chainId": "0xa4b1"
      },
      "additionalContracts": [],
      "isFixedGasLimit": false
    },
    {
      "hash": "0x682410481814bd0128f627fbbbea64e03e823ef47329f1c071bf3553c520542d",
      "transactionType": "CALL",
      "contractName": null,
      "contractAddress": "0xc0473bd9e466a7e564b9f1a0065f1efa41966d54",
      "function": "setTokenPriceFeed(address,address)",
      "arguments": [
        "0x0B214413CAc3E0B8F356181d7339626FCafff6Bd",
        "0xb543ffEF66c25409eA63Dc07352960f06Ce564c7"
      ],
      "transaction": {
        "from": "0xee03621ce83bbf6e3931bccf35b144354f16ccf7",
        "to": "0xc0473bd9e466a7e564b9f1a0065f1efa41966d54",
        "gas": "0x98d4",
        "value": "0x0",
        "input": "0x674417ae0000000000000000000000000b214413cac3e0b8f356181d7339626fcafff6bd000000000000000000000000b543ffef66c25409ea63dc07352960f06ce564c7",
        "nonce": "0xd7",
        "chainId": "0xa4b1"
      },
      "additionalContracts": [],
      "isFixedGasLimit": false
    },
    {
      "hash": "0xbd95cb9817c210ac695871145b2fe7e1604eac6bfde125355d4945d900c6f71d",
      "transactionType": "CALL",
      "contractName": null,
      "contractAddress": "0xc0473bd9e466a7e564b9f1a0065f1efa41966d54",
      "function": "setTokenPriceFeed(address,address)",
      "arguments": [
        "0xa7f56bc3252c676E43Ff1F3e6780Dbbc7679D7a6",
        "0xf0B69ea67Ea6a8C7BE111B73f791ab25C386CaD3"
      ],
      "transaction": {
        "from": "0xee03621ce83bbf6e3931bccf35b144354f16ccf7",
        "to": "0xc0473bd9e466a7e564b9f1a0065f1efa41966d54",
        "gas": "0x98cf",
        "value": "0x0",
        "input": "0x674417ae000000000000000000000000a7f56bc3252c676e43ff1f3e6780dbbc7679d7a6000000000000000000000000f0b69ea67ea6a8c7be111b73f791ab25c386cad3",
        "nonce": "0xd8",
        "chainId": "0xa4b1"
      },
      "additionalContracts": [],
      "isFixedGasLimit": false
    },
    {
      "hash": "0xd1c3f62f6283d842f7dbd04e92161c98648ba0c4b12060b0bbbd1ee678f73d4f",
      "transactionType": "CALL",
      "contractName": null,
      "contractAddress": "0xc0473bd9e466a7e564b9f1a0065f1efa41966d54",
      "function": "setTokenPriceFeed(address,address)",
      "arguments": [
        "0x14954b6a207A4CC908f44354e61997070507fCC4",
        "0xC469d792421CD0eF585eab54EF93a6bF4623455E"
      ],
      "transaction": {
        "from": "0xee03621ce83bbf6e3931bccf35b144354f16ccf7",
        "to": "0xc0473bd9e466a7e564b9f1a0065f1efa41966d54",
        "gas": "0x98c6",
        "value": "0x0",
        "input": "0x674417ae00000000000000000000000014954b6a207a4cc908f44354e61997070507fcc4000000000000000000000000c469d792421cd0ef585eab54ef93a6bf4623455e",
        "nonce": "0xd9",
        "chainId": "0xa4b1"
      },
      "additionalContracts": [],
      "isFixedGasLimit": false
    },
    {
      "hash": "0x7f73019fd60d0bf86d256133baa86ecae4ec1d10416a9b755e720d88bb14a323",
      "transactionType": "CALL",
      "contractName": null,
      "contractAddress": "0xc0473bd9e466a7e564b9f1a0065f1efa41966d54",
      "function": "setTokenPriceFeed(address,address)",
      "arguments": [
        "0x1aA55163E448b100ac4541C69cf2b55C909A2bE9",
        "0xD0A899a8Fe186D0c3beBD8A45a41cfbC30931105"
      ],
      "transaction": {
        "from": "0xee03621ce83bbf6e3931bccf35b144354f16ccf7",
        "to": "0xc0473bd9e466a7e564b9f1a0065f1efa41966d54",
        "gas": "0x98b6",
        "value": "0x0",
        "input": "0x674417ae0000000000000000000000001aa55163e448b100ac4541c69cf2b55c909a2be9000000000000000000000000d0a899a8fe186d0c3bebd8a45a41cfbc30931105",
        "nonce": "0xda",
        "chainId": "0xa4b1"
      },
      "additionalContracts": [],
      "isFixedGasLimit": false
    },
    {
      "hash": "0xf9391fdb0cc477596182b17e2ed3fcabe81203a1553351899b58078703b8f4a5",
      "transactionType": "CALL",
      "contractName": null,
      "contractAddress": "0xc0473bd9e466a7e564b9f1a0065f1efa41966d54",
      "function": "setTokenPriceFeed(address,address)",
      "arguments": [
        "0x623Cf9E33F269Fd459467E98a5e12Db4C2FBCAe0",
        "0xaaeF30A81c653520Ca5F43dea55b2d1E884946c0"
      ],
      "transaction": {
        "from": "0xee03621ce83bbf6e3931bccf35b144354f16ccf7",
        "to": "0xc0473bd9e466a7e564b9f1a0065f1efa41966d54",
        "gas": "0x98c3",
        "value": "0x0",
        "input": "0x674417ae000000000000000000000000623cf9e33f269fd459467e98a5e12db4c2fbcae0000000000000000000000000aaef30a81c653520ca5f43dea55b2d1e884946c0",
        "nonce": "0xdb",
        "chainId": "0xa4b1"
      },
      "additionalContracts": [],
      "isFixedGasLimit": false
    },
    {
      "hash": "0xc401fec54a543eb091ae0ea6613625169460c3f90657e4aba2183eb35caf8002",
      "transactionType": "CALL",
      "contractName": null,
      "contractAddress": "0xc0473bd9e466a7e564b9f1a0065f1efa41966d54",
      "function": "setTokenPriceFeed(address,address)",
      "arguments": [
        "0xB4626C50fb6A0019FEECD442310cd1F7395e2148",
        "0x15118b3d806b68aa5564A89f5f88C7DF9A8c6346"
      ],
      "transaction": {
        "from": "0xee03621ce83bbf6e3931bccf35b144354f16ccf7",
        "to": "0xc0473bd9e466a7e564b9f1a0065f1efa41966d54",
        "gas": "0x98ba",
        "value": "0x0",
        "input": "0x674417ae000000000000000000000000b4626c50fb6a0019feecd442310cd1f7395e214800000000000000000000000015118b3d806b68aa5564a89f5f88c7df9a8c6346",
        "nonce": "0xdc",
        "chainId": "0xa4b1"
      },
      "additionalContracts": [],
      "isFixedGasLimit": false
    },
    {
      "hash": "0x0e8f5bcc584d9401508b274d09af94e2fce643e60bc54ec3a3e75fce694366d1",
      "transactionType": "CALL",
      "contractName": null,
      "contractAddress": "0xc0473bd9e466a7e564b9f1a0065f1efa41966d54",
      "function": "setTokenPriceFeed(address,address)",
      "arguments": [
        "0x8d55C23664B46212bC6dC03d03E237988c0d3646",
        "0xd50ee02F3BB2B4530C5FFB7df3284C9f2090b517"
      ],
      "transaction": {
        "from": "0xee03621ce83bbf6e3931bccf35b144354f16ccf7",
        "to": "0xc0473bd9e466a7e564b9f1a0065f1efa41966d54",
        "gas": "0x98cb",
        "value": "0x0",
        "input": "0x674417ae0000000000000000000000008d55c23664b46212bc6dc03d03e237988c0d3646000000000000000000000000d50ee02f3bb2b4530c5ffb7df3284c9f2090b517",
        "nonce": "0xdd",
        "chainId": "0xa4b1"
      },
      "additionalContracts": [],
      "isFixedGasLimit": false
    },
    {
      "hash": "0x62132a762f4394e708bef9bc461bc9c5166ba6d762028f6c90eb88cbdba34d18",
      "transactionType": "CALL",
      "contractName": null,
      "contractAddress": "0xc0473bd9e466a7e564b9f1a0065f1efa41966d54",
      "function": "setTokenPriceFeed(address,address)",
      "arguments": [
        "0x43Db7FF630c993f080f315007961756f2b96Fa45",
        "0x91ef3C500e54bEc320347dD3B34B4629931a6D7c"
      ],
      "transaction": {
        "from": "0xee03621ce83bbf6e3931bccf35b144354f16ccf7",
        "to": "0xc0473bd9e466a7e564b9f1a0065f1efa41966d54",
        "gas": "0xfc34",
        "value": "0x0",
        "input": "0x674417ae00000000000000000000000043db7ff630c993f080f315007961756f2b96fa4500000000000000000000000091ef3c500e54bec320347dd3b34b4629931a6d7c",
        "nonce": "0xde",
        "chainId": "0xa4b1"
      },
      "additionalContracts": [],
      "isFixedGasLimit": false
    },
    {
      "hash": "0x325d3759e5e9fd7ffb4cd06a211cec652dc644442ad4cce555ee0bd712805747",
      "transactionType": "CALL",
      "contractName": null,
      "contractAddress": "0xc0473bd9e466a7e564b9f1a0065f1efa41966d54",
      "function": "setTokenPriceFeed(address,address)",
      "arguments": [
        "0x2F7c95D1848cb0a5E36DE0D4Db04C4aFe09053dD",
        "0xa1D47B6fd0527BcEf0bD61a000Ee2008ab397c3B"
      ],
      "transaction": {
        "from": "0xee03621ce83bbf6e3931bccf35b144354f16ccf7",
        "to": "0xc0473bd9e466a7e564b9f1a0065f1efa41966d54",
        "gas": "0xfc34",
        "value": "0x0",
        "input": "0x674417ae0000000000000000000000002f7c95d1848cb0a5e36de0d4db04c4afe09053dd000000000000000000000000a1d47b6fd0527bcef0bd61a000ee2008ab397c3b",
        "nonce": "0xdf",
        "chainId": "0xa4b1"
      },
      "additionalContracts": [],
      "isFixedGasLimit": false
    },
    {
      "hash": "0x07f9741735af014d4efc13f7277f51009bc7cf1f62380b63e0246a1f2c2d8ab1",
      "transactionType": "CALL",
      "contractName": null,
      "contractAddress": "0xc0473bd9e466a7e564b9f1a0065f1efa41966d54",
      "function": "setTokenPriceFeed(address,address)",
      "arguments": [
        "0x618942aF15f2Fe6F451bEe0E094D46df39822e74",
        "0xB34C0b04383094036B21Aefc4a955c32d104cfCa"
      ],
      "transaction": {
        "from": "0xee03621ce83bbf6e3931bccf35b144354f16ccf7",
        "to": "0xc0473bd9e466a7e564b9f1a0065f1efa41966d54",
        "gas": "0xfc41",
        "value": "0x0",
        "input": "0x674417ae000000000000000000000000618942af15f2fe6f451bee0e094d46df39822e74000000000000000000000000b34c0b04383094036b21aefc4a955c32d104cfca",
        "nonce": "0xe0",
        "chainId": "0xa4b1"
      },
      "additionalContracts": [],
      "isFixedGasLimit": false
    },
    {
      "hash": "0xbe95d44cf2fc550ca0ab67e8a38c4fe40a791bf906f116d370f0ab5eab5da941",
      "transactionType": "CALL",
      "contractName": null,
      "contractAddress": "0xc0473bd9e466a7e564b9f1a0065f1efa41966d54",
      "function": "setTokenPriceFeed(address,address)",
      "arguments": [
        "0xBf374ffDde61Ebf4e19dC0320BD2DeD9De447EB4",
        "0x83C34109699045BCF0A91B522F0e25F96697158d"
      ],
      "transaction": {
        "from": "0xee03621ce83bbf6e3931bccf35b144354f16ccf7",
        "to": "0xc0473bd9e466a7e564b9f1a0065f1efa41966d54",
        "gas": "0xfc41",
        "value": "0x0",
        "input": "0x674417ae000000000000000000000000bf374ffdde61ebf4e19dc0320bd2ded9de447eb400000000000000000000000083c34109699045bcf0a91b522f0e25f96697158d",
        "nonce": "0xe1",
        "chainId": "0xa4b1"
      },
      "additionalContracts": [],
      "isFixedGasLimit": false
    },
    {
      "hash": "0xf9891ddb400cbebc4f92fa1c28e44e7e15038d1c8557394d5d15a2ba7582d214",
      "transactionType": "CALL",
      "contractName": null,
      "contractAddress": "0xc0473bd9e466a7e564b9f1a0065f1efa41966d54",
      "function": "setTokenPriceFeed(address,address)",
      "arguments": [
        "0x88D873c00658874996E07E98E84fF89C3Aa314c1",
        "0x84e2EBfE4B8c33D3BB0a6D28731db84d705C7817"
      ],
      "transaction": {
        "from": "0xee03621ce83bbf6e3931bccf35b144354f16ccf7",
        "to": "0xc0473bd9e466a7e564b9f1a0065f1efa41966d54",
        "gas": "0xfc48",
        "value": "0x0",
        "input": "0x674417ae00000000000000000000000088d873c00658874996e07e98e84ff89c3aa314c100000000000000000000000084e2ebfe4b8c33d3bb0a6d28731db84d705c7817",
        "nonce": "0xe2",
        "chainId": "0xa4b1"
      },
      "additionalContracts": [],
      "isFixedGasLimit": false
    },
    {
      "hash": "0x3d32e65354c9061b62e23abe9905aee39db0fe71145c913c0a6e7cefcdd3208a",
      "transactionType": "CALL",
      "contractName": null,
      "contractAddress": "0xc0473bd9e466a7e564b9f1a0065f1efa41966d54",
      "function": "setTokenPriceFeed(address,address)",
      "arguments": [
        "0x7E588B76807B0ADF014c4ceA3d9DF28d4C5E7c80",
        "0x9A7434bDf1F96936eE485F57B4d777A3E348867C"
      ],
      "transaction": {
        "from": "0xee03621ce83bbf6e3931bccf35b144354f16ccf7",
        "to": "0xc0473bd9e466a7e564b9f1a0065f1efa41966d54",
        "gas": "0xfc48",
        "value": "0x0",
        "input": "0x674417ae0000000000000000000000007e588b76807b0adf014c4cea3d9df28d4c5e7c800000000000000000000000009a7434bdf1f96936ee485f57b4d777a3e348867c",
        "nonce": "0xe3",
        "chainId": "0xa4b1"
      },
      "additionalContracts": [],
      "isFixedGasLimit": false
    },
    {
      "hash": "0x95d779a013dc1d3ac98fc76a16cea903a754ee760acd956217d297f05c35a64a",
      "transactionType": "CALL",
      "contractName": null,
      "contractAddress": "0xc0473bd9e466a7e564b9f1a0065f1efa41966d54",
      "function": "setTokenPriceFeed(address,address)",
      "arguments": [
        "0xc75DE9a3c001f6e5f45fb44a11fa7d92E82BAc0E",
        "0x7A1D64d543Db151b8CCB18A8670a2F3467be6144"
      ],
      "transaction": {
        "from": "0xee03621ce83bbf6e3931bccf35b144354f16ccf7",
        "to": "0xc0473bd9e466a7e564b9f1a0065f1efa41966d54",
        "gas": "0xfc46",
        "value": "0x0",
        "input": "0x674417ae000000000000000000000000c75de9a3c001f6e5f45fb44a11fa7d92e82bac0e0000000000000000000000007a1d64d543db151b8ccb18a8670a2f3467be6144",
        "nonce": "0xe4",
        "chainId": "0xa4b1"
      },
      "additionalContracts": [],
      "isFixedGasLimit": false
    },
    {
      "hash": "0x2d3283027ffc7938b3892fb015dbe023bfee062911f3ba0455fbed51229146f8",
      "transactionType": "CALL",
      "contractName": null,
      "contractAddress": "0xc0473bd9e466a7e564b9f1a0065f1efa41966d54",
      "function": "setTokenPriceFeed(address,address)",
      "arguments": [
        "0x479702c416cbbD2d95F0C5408a961f9870e6EEa5",
        "0x20589BD02029700bCdF4Af70a63d8b8BB8A901e9"
      ],
      "transaction": {
        "from": "0xee03621ce83bbf6e3931bccf35b144354f16ccf7",
        "to": "0xc0473bd9e466a7e564b9f1a0065f1efa41966d54",
        "gas": "0xfc45",
        "value": "0x0",
        "input": "0x674417ae000000000000000000000000479702c416cbbd2d95f0c5408a961f9870e6eea500000000000000000000000020589bd02029700bcdf4af70a63d8b8bb8a901e9",
        "nonce": "0xe5",
        "chainId": "0xa4b1"
      },
      "additionalContracts": [],
      "isFixedGasLimit": false
    },
    {
      "hash": "0x0c72a4a50526f5cfbe5d6647aa82023dc5d9187eb9b19a810978cb09acf3c30a",
      "transactionType": "CALL",
      "contractName": null,
      "contractAddress": "0xc0473bd9e466a7e564b9f1a0065f1efa41966d54",
      "function": "setTokenPriceFeed(address,address)",
      "arguments": [
        "0x7F7E97A31409ca29F1878E0d1B7068160834739B",
        "0x97b989d67450cbAA292d96d841796EE5fcedEb2A"
      ],
      "transaction": {
        "from": "0xee03621ce83bbf6e3931bccf35b144354f16ccf7",
        "to": "0xc0473bd9e466a7e564b9f1a0065f1efa41966d54",
        "gas": "0xfc4d",
        "value": "0x0",
        "input": "0x674417ae0000000000000000000000007f7e97a31409ca29f1878e0d1b7068160834739b00000000000000000000000097b989d67450cbaa292d96d841796ee5fcedeb2a",
        "nonce": "0xe6",
        "chainId": "0xa4b1"
      },
      "additionalContracts": [],
      "isFixedGasLimit": false
    },
    {
      "hash": "0x130ac567ee5d0e421e94274717028e857d1968706e534ee5f978aca1b51e5218",
      "transactionType": "CALL",
      "contractName": null,
      "contractAddress": "0xc0473bd9e466a7e564b9f1a0065f1efa41966d54",
      "function": "setTokenPriceFeed(address,address)",
      "arguments": [
        "0xE8484F0442707C3DaEC850be6e05a128100A00cD",
        "0x1e6104a0177C2c3dD01E3BF940a21fF190F544c2"
      ],
      "transaction": {
        "from": "0xee03621ce83bbf6e3931bccf35b144354f16ccf7",
        "to": "0xc0473bd9e466a7e564b9f1a0065f1efa41966d54",
        "gas": "0xfc3d",
        "value": "0x0",
        "input": "0x674417ae000000000000000000000000e8484f0442707c3daec850be6e05a128100a00cd0000000000000000000000001e6104a0177c2c3dd01e3bf940a21ff190f544c2",
        "nonce": "0xe7",
        "chainId": "0xa4b1"
      },
      "additionalContracts": [],
      "isFixedGasLimit": false
    },
    {
      "hash": "0x2893f65cdfa5379b432e144a7dcc9501927b8839238d12d05496bbe175c7264a",
      "transactionType": "CALL",
      "contractName": null,
      "contractAddress": "0xc0473bd9e466a7e564b9f1a0065f1efa41966d54",
      "function": "setTokenPriceFeed(address,address)",
      "arguments": [
        "0xc6466031bd2CD675D3fb7c7faD17eAF4a8403Fe7",
        "0x7e58667d1C5a1cC2aC8c336Ed1b98A9bCc17Fe58"
      ],
      "transaction": {
        "from": "0xee03621ce83bbf6e3931bccf35b144354f16ccf7",
        "to": "0xc0473bd9e466a7e564b9f1a0065f1efa41966d54",
        "gas": "0xfc4d",
        "value": "0x0",
        "input": "0x674417ae000000000000000000000000c6466031bd2cd675d3fb7c7fad17eaf4a8403fe70000000000000000000000007e58667d1c5a1cc2ac8c336ed1b98a9bcc17fe58",
        "nonce": "0xe8",
        "chainId": "0xa4b1"
      },
      "additionalContracts": [],
      "isFixedGasLimit": false
    },
    {
      "hash": "0xff0ca3b3be94553689413535dedafca0f75380d59f4ab48800a54dacd34824ee",
      "transactionType": "CALL",
      "contractName": null,
      "contractAddress": "0x7fb63d9faf99a34bca04efd5ba7f75dc6db37f4d",
      "function": "setTokenActive(address,bool)",
      "arguments": [
        "0xC23e60Ac84240ffCe72680652515dfb1435C356b",
        "true"
      ],
      "transaction": {
        "from": "0xee03621ce83bbf6e3931bccf35b144354f16ccf7",
        "to": "0x7fb63d9faf99a34bca04efd5ba7f75dc6db37f4d",
        "gas": "0xb241",
        "value": "0x0",
        "input": "0xe2f1b792000000000000000000000000c23e60ac84240ffce72680652515dfb1435c356b0000000000000000000000000000000000000000000000000000000000000001",
        "nonce": "0xe9",
        "chainId": "0xa4b1"
      },
      "additionalContracts": [],
      "isFixedGasLimit": false
    },
    {
      "hash": "0x26fd919762ad79f40812afc61bf2fa5a722b7c9b328d97e911f5d68a70ba9635",
      "transactionType": "CALL",
      "contractName": null,
      "contractAddress": "0x7fb63d9faf99a34bca04efd5ba7f75dc6db37f4d",
      "function": "setTokenActive(address,bool)",
      "arguments": [
        "0x338802B73DA88D05e1b3A0203092AD43807049Be",
        "true"
      ],
      "transaction": {
        "from": "0xee03621ce83bbf6e3931bccf35b144354f16ccf7",
        "to": "0x7fb63d9faf99a34bca04efd5ba7f75dc6db37f4d",
        "gas": "0xb241",
        "value": "0x0",
        "input": "0xe2f1b792000000000000000000000000338802b73da88d05e1b3a0203092ad43807049be0000000000000000000000000000000000000000000000000000000000000001",
        "nonce": "0xea",
        "chainId": "0xa4b1"
      },
      "additionalContracts": [],
      "isFixedGasLimit": false
    },
    {
      "hash": "0x55798491533aecf7e926f87bb3db7e4d49ffd1d5eab35b051e62547291d9bfdd",
      "transactionType": "CALL",
      "contractName": null,
      "contractAddress": "0x7fb63d9faf99a34bca04efd5ba7f75dc6db37f4d",
      "function": "setTokenActive(address,bool)",
      "arguments": [
        "0x99d19F4Cb938E0aAD646358c20cB9D0CE0A7a945",
        "true"
      ],
      "transaction": {
        "from": "0xee03621ce83bbf6e3931bccf35b144354f16ccf7",
        "to": "0x7fb63d9faf99a34bca04efd5ba7f75dc6db37f4d",
        "gas": "0x117b7",
        "value": "0x0",
        "input": "0xe2f1b79200000000000000000000000099d19f4cb938e0aad646358c20cb9d0ce0a7a9450000000000000000000000000000000000000000000000000000000000000001",
        "nonce": "0xeb",
        "chainId": "0xa4b1"
      },
      "additionalContracts": [],
      "isFixedGasLimit": false
    },
    {
      "hash": "0xcf7908a980cbdd323ecc8f172971b2b9a1377b8eee0070285443a250bb865530",
      "transactionType": "CALL",
      "contractName": null,
      "contractAddress": "0x7fb63d9faf99a34bca04efd5ba7f75dc6db37f4d",
      "function": "setTokenActive(address,bool)",
      "arguments": [
        "0xA0F8C84E78eabDF241A9fA9Ff6733AB17bB4E7FA",
        "true"
      ],
      "transaction": {
        "from": "0xee03621ce83bbf6e3931bccf35b144354f16ccf7",
        "to": "0x7fb63d9faf99a34bca04efd5ba7f75dc6db37f4d",
        "gas": "0x117b1",
        "value": "0x0",
        "input": "0xe2f1b792000000000000000000000000a0f8c84e78eabdf241a9fa9ff6733ab17bb4e7fa0000000000000000000000000000000000000000000000000000000000000001",
        "nonce": "0xec",
        "chainId": "0xa4b1"
      },
      "additionalContracts": [],
      "isFixedGasLimit": false
    },
    {
      "hash": "0xb40976342dc70a68307f7f4fe8d952deae9c36fbf6ae6754ccc33c27b6530526",
      "transactionType": "CALL",
      "contractName": null,
      "contractAddress": "0x7fb63d9faf99a34bca04efd5ba7f75dc6db37f4d",
      "function": "setTokenActive(address,bool)",
      "arguments": [
        "0x0B214413CAc3E0B8F356181d7339626FCafff6Bd",
        "true"
      ],
      "transaction": {
        "from": "0xee03621ce83bbf6e3931bccf35b144354f16ccf7",
        "to": "0x7fb63d9faf99a34bca04efd5ba7f75dc6db37f4d",
        "gas": "0x117ac",
        "value": "0x0",
        "input": "0xe2f1b7920000000000000000000000000b214413cac3e0b8f356181d7339626fcafff6bd0000000000000000000000000000000000000000000000000000000000000001",
        "nonce": "0xed",
        "chainId": "0xa4b1"
      },
      "additionalContracts": [],
      "isFixedGasLimit": false
    },
    {
      "hash": "0xe74d4e8aa0979782fa3fa8e50d7314888468e85252fbbe96b0ffa4b2f5c8873d",
      "transactionType": "CALL",
      "contractName": null,
      "contractAddress": "0x7fb63d9faf99a34bca04efd5ba7f75dc6db37f4d",
      "function": "setTokenActive(address,bool)",
      "arguments": [
        "0xa7f56bc3252c676E43Ff1F3e6780Dbbc7679D7a6",
        "true"
      ],
      "transaction": {
        "from": "0xee03621ce83bbf6e3931bccf35b144354f16ccf7",
        "to": "0x7fb63d9faf99a34bca04efd5ba7f75dc6db37f4d",
        "gas": "0x117b0",
        "value": "0x0",
        "input": "0xe2f1b792000000000000000000000000a7f56bc3252c676e43ff1f3e6780dbbc7679d7a60000000000000000000000000000000000000000000000000000000000000001",
        "nonce": "0xee",
        "chainId": "0xa4b1"
      },
      "additionalContracts": [],
      "isFixedGasLimit": false
    },
    {
      "hash": "0x35a04bed124102f69b9ba20963638be79b32b0d57256536ad36fd148a10b5990",
      "transactionType": "CALL",
      "contractName": null,
      "contractAddress": "0x7fb63d9faf99a34bca04efd5ba7f75dc6db37f4d",
      "function": "setTokenActive(address,bool)",
      "arguments": [
        "0x14954b6a207A4CC908f44354e61997070507fCC4",
        "true"
      ],
      "transaction": {
        "from": "0xee03621ce83bbf6e3931bccf35b144354f16ccf7",
        "to": "0x7fb63d9faf99a34bca04efd5ba7f75dc6db37f4d",
        "gas": "0x117b0",
        "value": "0x0",
        "input": "0xe2f1b79200000000000000000000000014954b6a207a4cc908f44354e61997070507fcc40000000000000000000000000000000000000000000000000000000000000001",
        "nonce": "0xef",
        "chainId": "0xa4b1"
      },
      "additionalContracts": [],
      "isFixedGasLimit": false
    },
    {
      "hash": "0x219a99d0b2b87411a6cc5003ab6ff02c1471a2f62a8d20fff8f2fefb0e5f51ef",
      "transactionType": "CALL",
      "contractName": null,
      "contractAddress": "0x7fb63d9faf99a34bca04efd5ba7f75dc6db37f4d",
      "function": "setTokenActive(address,bool)",
      "arguments": [
        "0x1aA55163E448b100ac4541C69cf2b55C909A2bE9",
        "true"
      ],
      "transaction": {
        "from": "0xee03621ce83bbf6e3931bccf35b144354f16ccf7",
        "to": "0x7fb63d9faf99a34bca04efd5ba7f75dc6db37f4d",
        "gas": "0x117a0",
        "value": "0x0",
        "input": "0xe2f1b7920000000000000000000000001aa55163e448b100ac4541c69cf2b55c909a2be90000000000000000000000000000000000000000000000000000000000000001",
        "nonce": "0xf0",
        "chainId": "0xa4b1"
      },
      "additionalContracts": [],
      "isFixedGasLimit": false
    },
    {
      "hash": "0x5abfcdc0d19d679dcc6926952154f3a3b178151d2761bc48f6af9c58d9d7883e",
      "transactionType": "CALL",
      "contractName": null,
      "contractAddress": "0x7fb63d9faf99a34bca04efd5ba7f75dc6db37f4d",
      "function": "setTokenActive(address,bool)",
      "arguments": [
        "0x623Cf9E33F269Fd459467E98a5e12Db4C2FBCAe0",
        "true"
      ],
      "transaction": {
        "from": "0xee03621ce83bbf6e3931bccf35b144354f16ccf7",
        "to": "0x7fb63d9faf99a34bca04efd5ba7f75dc6db37f4d",
        "gas": "0x117ae",
        "value": "0x0",
        "input": "0xe2f1b792000000000000000000000000623cf9e33f269fd459467e98a5e12db4c2fbcae00000000000000000000000000000000000000000000000000000000000000001",
        "nonce": "0xf1",
        "chainId": "0xa4b1"
      },
      "additionalContracts": [],
      "isFixedGasLimit": false
    },
    {
      "hash": "0x1c6084b9d02da309539292d97f29eed7efce49926fc614029071d85a7014befa",
      "transactionType": "CALL",
      "contractName": null,
      "contractAddress": "0x7fb63d9faf99a34bca04efd5ba7f75dc6db37f4d",
      "function": "setTokenActive(address,bool)",
      "arguments": [
        "0xB4626C50fb6A0019FEECD442310cd1F7395e2148",
        "true"
      ],
      "transaction": {
        "from": "0xee03621ce83bbf6e3931bccf35b144354f16ccf7",
        "to": "0x7fb63d9faf99a34bca04efd5ba7f75dc6db37f4d",
        "gas": "0x1179f",
        "value": "0x0",
        "input": "0xe2f1b792000000000000000000000000b4626c50fb6a0019feecd442310cd1f7395e21480000000000000000000000000000000000000000000000000000000000000001",
        "nonce": "0xf2",
        "chainId": "0xa4b1"
      },
      "additionalContracts": [],
      "isFixedGasLimit": false
    },
    {
      "hash": "0xf40b6a6142c748c3a7c468472773774d045dd7e7d0e8abe7be7aaa90ef964b79",
      "transactionType": "CALL",
      "contractName": null,
      "contractAddress": "0x7fb63d9faf99a34bca04efd5ba7f75dc6db37f4d",
      "function": "setTokenActive(address,bool)",
      "arguments": [
        "0x8d55C23664B46212bC6dC03d03E237988c0d3646",
        "true"
      ],
      "transaction": {
        "from": "0xee03621ce83bbf6e3931bccf35b144354f16ccf7",
        "to": "0x7fb63d9faf99a34bca04efd5ba7f75dc6db37f4d",
        "gas": "0x117b6",
        "value": "0x0",
        "input": "0xe2f1b7920000000000000000000000008d55c23664b46212bc6dc03d03e237988c0d36460000000000000000000000000000000000000000000000000000000000000001",
        "nonce": "0xf3",
        "chainId": "0xa4b1"
      },
      "additionalContracts": [],
      "isFixedGasLimit": false
    },
    {
      "hash": "0x1cb0eec715f07087cdb0931c7aa17d401b8a2bf621a61d3cc4797ac1aeb4546c",
      "transactionType": "CALL",
      "contractName": null,
      "contractAddress": "0x7fb63d9faf99a34bca04efd5ba7f75dc6db37f4d",
      "function": "setTokenActive(address,bool)",
      "arguments": [
        "0x43Db7FF630c993f080f315007961756f2b96Fa45",
        "true"
      ],
      "transaction": {
        "from": "0xee03621ce83bbf6e3931bccf35b144354f16ccf7",
        "to": "0x7fb63d9faf99a34bca04efd5ba7f75dc6db37f4d",
        "gas": "0x117a5",
        "value": "0x0",
        "input": "0xe2f1b79200000000000000000000000043db7ff630c993f080f315007961756f2b96fa450000000000000000000000000000000000000000000000000000000000000001",
        "nonce": "0xf4",
        "chainId": "0xa4b1"
      },
      "additionalContracts": [],
      "isFixedGasLimit": false
    },
    {
      "hash": "0xe6d369a85d0e2ddca77d9965b448f0724a275d952a558ee289692d33162924a0",
      "transactionType": "CALL",
      "contractName": null,
      "contractAddress": "0x7fb63d9faf99a34bca04efd5ba7f75dc6db37f4d",
      "function": "setTokenActive(address,bool)",
      "arguments": [
        "0x2F7c95D1848cb0a5E36DE0D4Db04C4aFe09053dD",
        "true"
      ],
      "transaction": {
        "from": "0xee03621ce83bbf6e3931bccf35b144354f16ccf7",
        "to": "0x7fb63d9faf99a34bca04efd5ba7f75dc6db37f4d",
        "gas": "0x117b5",
        "value": "0x0",
        "input": "0xe2f1b7920000000000000000000000002f7c95d1848cb0a5e36de0d4db04c4afe09053dd0000000000000000000000000000000000000000000000000000000000000001",
        "nonce": "0xf5",
        "chainId": "0xa4b1"
      },
      "additionalContracts": [],
      "isFixedGasLimit": false
    },
    {
      "hash": "0x3c653d267e7e4e8b1e41b5e9900e7c9eed924732467a93b7c5ec4580d83ba852",
      "transactionType": "CALL",
      "contractName": null,
      "contractAddress": "0x7fb63d9faf99a34bca04efd5ba7f75dc6db37f4d",
      "function": "setTokenActive(address,bool)",
      "arguments": [
        "0x618942aF15f2Fe6F451bEe0E094D46df39822e74",
        "true"
      ],
      "transaction": {
        "from": "0xee03621ce83bbf6e3931bccf35b144354f16ccf7",
        "to": "0x7fb63d9faf99a34bca04efd5ba7f75dc6db37f4d",
        "gas": "0x117b4",
        "value": "0x0",
        "input": "0xe2f1b792000000000000000000000000618942af15f2fe6f451bee0e094d46df39822e740000000000000000000000000000000000000000000000000000000000000001",
        "nonce": "0xf6",
        "chainId": "0xa4b1"
      },
      "additionalContracts": [],
      "isFixedGasLimit": false
    },
    {
      "hash": "0xb37e56103a38be3958a72e197de5d31b44bd7e4f68e8e7d2d47bdf43be01e9dc",
      "transactionType": "CALL",
      "contractName": null,
      "contractAddress": "0x7fb63d9faf99a34bca04efd5ba7f75dc6db37f4d",
      "function": "setTokenActive(address,bool)",
      "arguments": [
        "0xBf374ffDde61Ebf4e19dC0320BD2DeD9De447EB4",
        "true"
      ],
      "transaction": {
        "from": "0xee03621ce83bbf6e3931bccf35b144354f16ccf7",
        "to": "0x7fb63d9faf99a34bca04efd5ba7f75dc6db37f4d",
        "gas": "0x117b9",
        "value": "0x0",
        "input": "0xe2f1b792000000000000000000000000bf374ffdde61ebf4e19dc0320bd2ded9de447eb40000000000000000000000000000000000000000000000000000000000000001",
        "nonce": "0xf7",
        "chainId": "0xa4b1"
      },
      "additionalContracts": [],
      "isFixedGasLimit": false
    },
    {
      "hash": "0x9c06b929f1a5bb2f9da4e4106170f7d064b184840dd5c5758f9b166fb2728da6",
      "transactionType": "CALL",
      "contractName": null,
      "contractAddress": "0x7fb63d9faf99a34bca04efd5ba7f75dc6db37f4d",
      "function": "setTokenActive(address,bool)",
      "arguments": [
        "0x88D873c00658874996E07E98E84fF89C3Aa314c1",
        "true"
      ],
      "transaction": {
        "from": "0xee03621ce83bbf6e3931bccf35b144354f16ccf7",
        "to": "0x7fb63d9faf99a34bca04efd5ba7f75dc6db37f4d",
        "gas": "0x117b9",
        "value": "0x0",
        "input": "0xe2f1b79200000000000000000000000088d873c00658874996e07e98e84ff89c3aa314c10000000000000000000000000000000000000000000000000000000000000001",
        "nonce": "0xf8",
        "chainId": "0xa4b1"
      },
      "additionalContracts": [],
      "isFixedGasLimit": false
    },
    {
      "hash": "0x7af5ade8a37922d61ad8e233d1b7d231955667269d3fd03d7220815b81ef59a3",
      "transactionType": "CALL",
      "contractName": null,
      "contractAddress": "0x7fb63d9faf99a34bca04efd5ba7f75dc6db37f4d",
      "function": "setTokenActive(address,bool)",
      "arguments": [
        "0x7E588B76807B0ADF014c4ceA3d9DF28d4C5E7c80",
        "true"
      ],
      "transaction": {
        "from": "0xee03621ce83bbf6e3931bccf35b144354f16ccf7",
        "to": "0x7fb63d9faf99a34bca04efd5ba7f75dc6db37f4d",
        "gas": "0x117b9",
        "value": "0x0",
        "input": "0xe2f1b7920000000000000000000000007e588b76807b0adf014c4cea3d9df28d4c5e7c800000000000000000000000000000000000000000000000000000000000000001",
        "nonce": "0xf9",
        "chainId": "0xa4b1"
      },
      "additionalContracts": [],
      "isFixedGasLimit": false
    },
    {
      "hash": "0xd368a1c25cb5031d26acecf73e76216a4f669ef5b43e3929b814e44bfd4a913e",
      "transactionType": "CALL",
      "contractName": null,
      "contractAddress": "0x7fb63d9faf99a34bca04efd5ba7f75dc6db37f4d",
      "function": "setTokenActive(address,bool)",
      "arguments": [
        "0xc75DE9a3c001f6e5f45fb44a11fa7d92E82BAc0E",
        "true"
      ],
      "transaction": {
        "from": "0xee03621ce83bbf6e3931bccf35b144354f16ccf7",
        "to": "0x7fb63d9faf99a34bca04efd5ba7f75dc6db37f4d",
        "gas": "0x117b5",
        "value": "0x0",
        "input": "0xe2f1b792000000000000000000000000c75de9a3c001f6e5f45fb44a11fa7d92e82bac0e0000000000000000000000000000000000000000000000000000000000000001",
        "nonce": "0xfa",
        "chainId": "0xa4b1"
      },
      "additionalContracts": [],
      "isFixedGasLimit": false
    },
    {
      "hash": "0x061b6ae37addbd8a1317df472a6efcf5f8812e8facda69572dd09b828e7e6c1c",
      "transactionType": "CALL",
      "contractName": null,
      "contractAddress": "0x7fb63d9faf99a34bca04efd5ba7f75dc6db37f4d",
      "function": "setTokenActive(address,bool)",
      "arguments": [
        "0x479702c416cbbD2d95F0C5408a961f9870e6EEa5",
        "true"
      ],
      "transaction": {
        "from": "0xee03621ce83bbf6e3931bccf35b144354f16ccf7",
        "to": "0x7fb63d9faf99a34bca04efd5ba7f75dc6db37f4d",
        "gas": "0x117b5",
        "value": "0x0",
        "input": "0xe2f1b792000000000000000000000000479702c416cbbd2d95f0c5408a961f9870e6eea50000000000000000000000000000000000000000000000000000000000000001",
        "nonce": "0xfb",
        "chainId": "0xa4b1"
      },
      "additionalContracts": [],
      "isFixedGasLimit": false
    },
    {
      "hash": "0x54291d4f22d268da75349139a9d56e0b9ec825017c4ed004fd08e423b753a072",
      "transactionType": "CALL",
      "contractName": null,
      "contractAddress": "0x7fb63d9faf99a34bca04efd5ba7f75dc6db37f4d",
      "function": "setTokenActive(address,bool)",
      "arguments": [
        "0x7F7E97A31409ca29F1878E0d1B7068160834739B",
        "true"
      ],
      "transaction": {
        "from": "0xee03621ce83bbf6e3931bccf35b144354f16ccf7",
        "to": "0x7fb63d9faf99a34bca04efd5ba7f75dc6db37f4d",
        "gas": "0x117bb",
        "value": "0x0",
        "input": "0xe2f1b7920000000000000000000000007f7e97a31409ca29f1878e0d1b7068160834739b0000000000000000000000000000000000000000000000000000000000000001",
        "nonce": "0xfc",
        "chainId": "0xa4b1"
      },
      "additionalContracts": [],
      "isFixedGasLimit": false
    },
    {
      "hash": "0x06b4e414b1bec60a0c73c2d00657276e9071089c053b59dcec622d3b92f2d93f",
      "transactionType": "CALL",
      "contractName": null,
      "contractAddress": "0x7fb63d9faf99a34bca04efd5ba7f75dc6db37f4d",
      "function": "setTokenActive(address,bool)",
      "arguments": [
        "0xE8484F0442707C3DaEC850be6e05a128100A00cD",
        "true"
      ],
      "transaction": {
        "from": "0xee03621ce83bbf6e3931bccf35b144354f16ccf7",
        "to": "0x7fb63d9faf99a34bca04efd5ba7f75dc6db37f4d",
        "gas": "0x117aa",
        "value": "0x0",
        "input": "0xe2f1b792000000000000000000000000e8484f0442707c3daec850be6e05a128100a00cd0000000000000000000000000000000000000000000000000000000000000001",
        "nonce": "0xfd",
        "chainId": "0xa4b1"
      },
      "additionalContracts": [],
      "isFixedGasLimit": false
    },
    {
      "hash": "0xcfeb989cb0532a213b3dfb24b410637f2ab06191d5d9e393900613bc1686e502",
      "transactionType": "CALL",
      "contractName": null,
      "contractAddress": "0x7fb63d9faf99a34bca04efd5ba7f75dc6db37f4d",
      "function": "setTokenActive(address,bool)",
      "arguments": [
        "0xc6466031bd2CD675D3fb7c7faD17eAF4a8403Fe7",
        "true"
      ],
      "transaction": {
        "from": "0xee03621ce83bbf6e3931bccf35b144354f16ccf7",
        "to": "0x7fb63d9faf99a34bca04efd5ba7f75dc6db37f4d",
        "gas": "0x117bb",
        "value": "0x0",
        "input": "0xe2f1b792000000000000000000000000c6466031bd2cd675d3fb7c7fad17eaf4a8403fe70000000000000000000000000000000000000000000000000000000000000001",
        "nonce": "0xfe",
        "chainId": "0xa4b1"
      },
      "additionalContracts": [],
      "isFixedGasLimit": false
    }
  ],
  "receipts": [
    {
      "status": "0x1",
      "cumulativeGasUsed": "0x120a89",
      "logs": [
        {
          "address": "0xc0473bd9e466a7e564b9f1a0065f1efa41966d54",
          "topics": [
            "0x06450d77a493ade91a66792442980e4499d56e1565b15d80f0790f2a962a135d"
          ],
          "data": "0x000000000000000000000000c23e60ac84240ffce72680652515dfb1435c356b00000000000000000000000050834f3163758fcc1df9973b6e91f0f0f0434ad3",
          "blockHash": "0xc35e1c942c87966a2b09e2f5cf1341cc555bb2470498ceb47c016bd33a8ff595",
          "blockNumber": "0x176b712f",
          "transactionHash": "0xc0dd8dbb1f42b6466f8b62f4b64ad54f996c888d2dfce733a750dc4e1c67ff77",
          "transactionIndex": "0x9",
          "logIndex": "0x16",
          "removed": false
        }
      ],
      "logsBloom": "0x00000000000000000000000000000000000000000000000000200000000000000000400000000000000000000000000000000000002000000000000000000000000000000000000000000000000000000000000000000000000000000000000000000000000020000000000000000000000000000000000000000000000000000000000000000000000000000000000000000000000000000000000000000000000000000000000000000000000000000000000000000000000000000000000000000000800000000000000000000000000000000000000000000000000000000000000000000000000000000000000000000000000000000000000020000000",
      "type": "0x2",
      "transactionHash": "0xc0dd8dbb1f42b6466f8b62f4b64ad54f996c888d2dfce733a750dc4e1c67ff77",
      "transactionIndex": "0x9",
      "blockHash": "0xc35e1c942c87966a2b09e2f5cf1341cc555bb2470498ceb47c016bd33a8ff595",
      "blockNumber": "0x176b712f",
      "gasUsed": "0x7217",
      "effectiveGasPrice": "0x189ebc0",
      "from": "0xee03621ce83bbf6e3931bccf35b144354f16ccf7",
      "to": "0xc0473bd9e466a7e564b9f1a0065f1efa41966d54",
      "contractAddress": null,
      "gasUsedForL1": "0x1e3",
      "l1BlockNumber": "0x168d5c6",
      "timeboosted": false
    },
    {
      "status": "0x1",
      "cumulativeGasUsed": "0x28744",
      "logs": [
        {
          "address": "0xc0473bd9e466a7e564b9f1a0065f1efa41966d54",
          "topics": [
            "0x06450d77a493ade91a66792442980e4499d56e1565b15d80f0790f2a962a135d"
          ],
          "data": "0x000000000000000000000000338802b73da88d05e1b3a0203092ad43807049be000000000000000000000000639fe6ab55c921f74e7fac1ee960c0b6293ba612",
          "blockHash": "0xf1b18ed433c88dfad495e210872b4603501cc608a010f1407b3d1d3fae708c54",
          "blockNumber": "0x176b7135",
          "transactionHash": "0x725bd7b0b814f46c6bb627a7bf6ed284888e02042c45ff11ec646cb2f4968d42",
          "transactionIndex": "0x2",
          "logIndex": "0x0",
          "removed": false
        }
      ],
      "logsBloom": "0x00000000000000000000000000000000000000000000000000200000000000000000400000000000000000000000000000000000002000000000000000000000000000000000000000000000000000000000000000000000000000000000000000000000000020000000000000000000000000000000000000000000000000000000000000000000000000000000000000000000000000000000000000000000000000000000000000000000000000000000000000000000000000000000000000000000800000000000000000000000000000000000000000000000000000000000000000000000000000000000000000000000000000000000000020000000",
      "type": "0x2",
      "transactionHash": "0x725bd7b0b814f46c6bb627a7bf6ed284888e02042c45ff11ec646cb2f4968d42",
      "transactionIndex": "0x2",
      "blockHash": "0xf1b18ed433c88dfad495e210872b4603501cc608a010f1407b3d1d3fae708c54",
      "blockNumber": "0x176b7135",
      "gasUsed": "0x7211",
      "effectiveGasPrice": "0x18e8f40",
      "from": "0xee03621ce83bbf6e3931bccf35b144354f16ccf7",
      "to": "0xc0473bd9e466a7e564b9f1a0065f1efa41966d54",
      "contractAddress": null,
      "gasUsedForL1": "0x1dd",
      "l1BlockNumber": "0x168d5c6",
      "timeboosted": false
    },
    {
      "status": "0x1",
      "cumulativeGasUsed": "0x4bf39b",
      "logs": [
        {
          "address": "0xc0473bd9e466a7e564b9f1a0065f1efa41966d54",
          "topics": [
            "0x06450d77a493ade91a66792442980e4499d56e1565b15d80f0790f2a962a135d"
          ],
          "data": "0x00000000000000000000000099d19f4cb938e0aad646358c20cb9d0ce0a7a9450000000000000000000000002b4c8a6171eff27905a8490e4cdb711bc0ac77cb",
          "blockHash": "0xe95b3bf8ee9090eda933938ca9f9e41700e74acc626a778781bf98c494b4fa0f",
          "blockNumber": "0x176b713a",
          "transactionHash": "0xfa0429d4c254253ba9f0437300db15ee30c284bdd3025323a0c043c185cbc831",
          "transactionIndex": "0xe",
          "logIndex": "0xd",
          "removed": false
        }
      ],
      "logsBloom": "0x00000000000000000000000000000000000000000000000000200000000000000000400000000000000000000000000000000000002000000000000000000000000000000000000000000000000000000000000000000000000000000000000000000000000020000000000000000000000000000000000000000000000000000000000000000000000000000000000000000000000000000000000000000000000000000000000000000000000000000000000000000000000000000000000000000000800000000000000000000000000000000000000000000000000000000000000000000000000000000000000000000000000000000000000020000000",
      "type": "0x2",
      "transactionHash": "0xfa0429d4c254253ba9f0437300db15ee30c284bdd3025323a0c043c185cbc831",
      "transactionIndex": "0xe",
      "blockHash": "0xe95b3bf8ee9090eda933938ca9f9e41700e74acc626a778781bf98c494b4fa0f",
      "blockNumber": "0x176b713a",
      "gasUsed": "0x7212",
      "effectiveGasPrice": "0x18ddb90",
      "from": "0xee03621ce83bbf6e3931bccf35b144354f16ccf7",
      "to": "0xc0473bd9e466a7e564b9f1a0065f1efa41966d54",
      "contractAddress": null,
      "gasUsedForL1": "0x1de",
      "l1BlockNumber": "0x168d5c6",
      "timeboosted": false
    },
    {
      "status": "0x1",
      "cumulativeGasUsed": "0xc8fb1",
      "logs": [
        {
          "address": "0xc0473bd9e466a7e564b9f1a0065f1efa41966d54",
          "topics": [
            "0x06450d77a493ade91a66792442980e4499d56e1565b15d80f0790f2a962a135d"
          ],
          "data": "0x000000000000000000000000a0f8c84e78eabdf241a9fa9ff6733ab17bb4e7fa00000000000000000000000093c1b89d8f71e4688debdb688347a04ed91cfddd",
          "blockHash": "0xb415e9dfcb88c4c96680a1891e35b2834cfe89bcc692d2073b00d3fc8a8812f5",
          "blockNumber": "0x176b7142",
          "transactionHash": "0xe9f5d8860008c62fd23cf48d53168c386fa30eb214c983ccb1a0736a12f7dba7",
          "transactionIndex": "0x2",
          "logIndex": "0x10",
          "removed": false
        }
      ],
      "logsBloom": "0x00000000000000000000000000000000000000000000000000200000000000000000400000000000000000000000000000000000002000000000000000000000000000000000000000000000000000000000000000000000000000000000000000000000000020000000000000000000000000000000000000000000000000000000000000000000000000000000000000000000000000000000000000000000000000000000000000000000000000000000000000000000000000000000000000000000800000000000000000000000000000000000000000000000000000000000000000000000000000000000000000000000000000000000000020000000",
      "type": "0x2",
      "transactionHash": "0xe9f5d8860008c62fd23cf48d53168c386fa30eb214c983ccb1a0736a12f7dba7",
      "transactionIndex": "0x2",
      "blockHash": "0xb415e9dfcb88c4c96680a1891e35b2834cfe89bcc692d2073b00d3fc8a8812f5",
      "blockNumber": "0x176b7142",
      "gasUsed": "0x7210",
      "effectiveGasPrice": "0x18fbff0",
      "from": "0xee03621ce83bbf6e3931bccf35b144354f16ccf7",
      "to": "0xc0473bd9e466a7e564b9f1a0065f1efa41966d54",
      "contractAddress": null,
      "gasUsedForL1": "0x1dc",
      "l1BlockNumber": "0x168d5c6",
      "timeboosted": false
    },
    {
      "status": "0x1",
      "cumulativeGasUsed": "0xf4407",
      "logs": [
        {
          "address": "0xc0473bd9e466a7e564b9f1a0065f1efa41966d54",
          "topics": [
            "0x06450d77a493ade91a66792442980e4499d56e1565b15d80f0790f2a962a135d"
          ],
          "data": "0x0000000000000000000000000b214413cac3e0b8f356181d7339626fcafff6bd000000000000000000000000b543ffef66c25409ea63dc07352960f06ce564c7",
          "blockHash": "0x3e0f5f0f676848d0433c1e4ba5e18af17c7c5c29c7f91cf46331865816203e75",
          "blockNumber": "0x176b7147",
          "transactionHash": "0x682410481814bd0128f627fbbbea64e03e823ef47329f1c071bf3553c520542d",
          "transactionIndex": "0x8",
          "logIndex": "0x22",
          "removed": false
        }
      ],
      "logsBloom": "0x00000000000000000000000000000000000000000000000000200000000000000000400000000000000000000000000000000000002000000000000000000000000000000000000000000000000000000000000000000000000000000000000000000000000020000000000000000000000000000000000000000000000000000000000000000000000000000000000000000000000000000000000000000000000000000000000000000000000000000000000000000000000000000000000000000000800000000000000000000000000000000000000000000000000000000000000000000000000000000000000000000000000000000000000020000000",
      "type": "0x2",
      "transactionHash": "0x682410481814bd0128f627fbbbea64e03e823ef47329f1c071bf3553c520542d",
      "transactionIndex": "0x8",
      "blockHash": "0x3e0f5f0f676848d0433c1e4ba5e18af17c7c5c29c7f91cf46331865816203e75",
      "blockNumber": "0x176b7147",
      "gasUsed": "0x720e",
      "effectiveGasPrice": "0x1918510",
      "from": "0xee03621ce83bbf6e3931bccf35b144354f16ccf7",
      "to": "0xc0473bd9e466a7e564b9f1a0065f1efa41966d54",
      "contractAddress": null,
      "gasUsedForL1": "0x1da",
      "l1BlockNumber": "0x168d5c6",
      "timeboosted": false
    },
    {
      "status": "0x1",
      "cumulativeGasUsed": "0x1888b9",
      "logs": [
        {
          "address": "0xc0473bd9e466a7e564b9f1a0065f1efa41966d54",
          "topics": [
            "0x06450d77a493ade91a66792442980e4499d56e1565b15d80f0790f2a962a135d"
          ],
          "data": "0x000000000000000000000000a7f56bc3252c676e43ff1f3e6780dbbc7679d7a6000000000000000000000000f0b69ea67ea6a8c7be111b73f791ab25c386cad3",
          "blockHash": "0x5d142a1422d2be6feeb6b35b11f9547a12baceb36da5e9327a858a8097b17aca",
          "blockNumber": "0x176b714b",
          "transactionHash": "0xbd95cb9817c210ac695871145b2fe7e1604eac6bfde125355d4945d900c6f71d",
          "transactionIndex": "0xf",
          "logIndex": "0x26",
          "removed": false
        }
      ],
      "logsBloom": "0x00000000000000000000000000000000000000000000000000200000000000000000400000000000000000000000000000000000002000000000000000000000000000000000000000000000000000000000000000000000000000000000000000000000000020000000000000000000000000000000000000000000000000000000000000000000000000000000000000000000000000000000000000000000000000000000000000000000000000000000000000000000000000000000000000000000800000000000000000000000000000000000000000000000000000000000000000000000000000000000000000000000000000000000000020000000",
      "type": "0x2",
      "transactionHash": "0xbd95cb9817c210ac695871145b2fe7e1604eac6bfde125355d4945d900c6f71d",
      "transactionIndex": "0xf",
      "blockHash": "0x5d142a1422d2be6feeb6b35b11f9547a12baceb36da5e9327a858a8097b17aca",
      "blockNumber": "0x176b714b",
      "gasUsed": "0x7210",
      "effectiveGasPrice": "0x18f94f8",
      "from": "0xee03621ce83bbf6e3931bccf35b144354f16ccf7",
      "to": "0xc0473bd9e466a7e564b9f1a0065f1efa41966d54",
      "contractAddress": null,
      "gasUsedForL1": "0x1dc",
      "l1BlockNumber": "0x168d5c6",
      "timeboosted": false
    },
    {
      "status": "0x1",
      "cumulativeGasUsed": "0x720b",
      "logs": [
        {
          "address": "0xc0473bd9e466a7e564b9f1a0065f1efa41966d54",
          "topics": [
            "0x06450d77a493ade91a66792442980e4499d56e1565b15d80f0790f2a962a135d"
          ],
          "data": "0x00000000000000000000000014954b6a207a4cc908f44354e61997070507fcc4000000000000000000000000c469d792421cd0ef585eab54ef93a6bf4623455e",
          "blockHash": "0x503ad4333d9a30a47d09f6298ddcc6ffa013cf35281e1b50deeaa09d1dbaf0ad",
          "blockNumber": "0x176b7151",
          "transactionHash": "0xd1c3f62f6283d842f7dbd04e92161c98648ba0c4b12060b0bbbd1ee678f73d4f",
          "transactionIndex": "0x1",
          "logIndex": "0x0",
          "removed": false
        }
      ],
      "logsBloom": "0x00000000000000000000000000000000000000000000000000200000000000000000400000000000000000000000000000000000002000000000000000000000000000000000000000000000000000000000000000000000000000000000000000000000000020000000000000000000000000000000000000000000000000000000000000000000000000000000000000000000000000000000000000000000000000000000000000000000000000000000000000000000000000000000000000000000800000000000000000000000000000000000000000000000000000000000000000000000000000000000000000000000000000000000000020000000",
      "type": "0x2",
      "transactionHash": "0xd1c3f62f6283d842f7dbd04e92161c98648ba0c4b12060b0bbbd1ee678f73d4f",
      "transactionIndex": "0x1",
      "blockHash": "0x503ad4333d9a30a47d09f6298ddcc6ffa013cf35281e1b50deeaa09d1dbaf0ad",
      "blockNumber": "0x176b7151",
      "gasUsed": "0x720b",
      "effectiveGasPrice": "0x193f228",
      "from": "0xee03621ce83bbf6e3931bccf35b144354f16ccf7",
      "to": "0xc0473bd9e466a7e564b9f1a0065f1efa41966d54",
      "contractAddress": null,
      "gasUsedForL1": "0x1d7",
      "l1BlockNumber": "0x168d5c6",
      "timeboosted": false
    },
    {
      "status": "0x1",
      "cumulativeGasUsed": "0x45cc8",
      "logs": [
        {
          "address": "0xc0473bd9e466a7e564b9f1a0065f1efa41966d54",
          "topics": [
            "0x06450d77a493ade91a66792442980e4499d56e1565b15d80f0790f2a962a135d"
          ],
          "data": "0x0000000000000000000000001aa55163e448b100ac4541c69cf2b55c909a2be9000000000000000000000000d0a899a8fe186d0c3bebd8a45a41cfbc30931105",
          "blockHash": "0x3d7ec378bcbad9fb35f0dd47c1daf607d2117e43fcdd1fe43b23eaec061134e2",
          "blockNumber": "0x176b7158",
          "transactionHash": "0x7f73019fd60d0bf86d256133baa86ecae4ec1d10416a9b755e720d88bb14a323",
          "transactionIndex": "0x3",
          "logIndex": "0x8",
          "removed": false
        }
      ],
      "logsBloom": "0x00000000000000000000000000000000000000000000000000200000000000000000400000000000000000000000000000000000002000000000000000000000000000000000000000000000000000000000000000000000000000000000000000000000000020000000000000000000000000000000000000000000000000000000000000000000000000000000000000000000000000000000000000000000000000000000000000000000000000000000000000000000000000000000000000000000800000000000000000000000000000000000000000000000000000000000000000000000000000000000000000000000000000000000000020000000",
      "type": "0x2",
      "transactionHash": "0x7f73019fd60d0bf86d256133baa86ecae4ec1d10416a9b755e720d88bb14a323",
      "transactionIndex": "0x3",
      "blockHash": "0x3d7ec378bcbad9fb35f0dd47c1daf607d2117e43fcdd1fe43b23eaec061134e2",
      "blockNumber": "0x176b7158",
      "gasUsed": "0x7202",
      "effectiveGasPrice": "0x190d930",
      "from": "0xee03621ce83bbf6e3931bccf35b144354f16ccf7",
      "to": "0xc0473bd9e466a7e564b9f1a0065f1efa41966d54",
      "contractAddress": null,
      "gasUsedForL1": "0x1da",
      "l1BlockNumber": "0x168d5c6",
      "timeboosted": false
    },
    {
      "status": "0x1",
      "cumulativeGasUsed": "0xb0032",
      "logs": [
        {
          "address": "0xc0473bd9e466a7e564b9f1a0065f1efa41966d54",
          "topics": [
            "0x06450d77a493ade91a66792442980e4499d56e1565b15d80f0790f2a962a135d"
          ],
          "data": "0x000000000000000000000000623cf9e33f269fd459467e98a5e12db4c2fbcae0000000000000000000000000aaef30a81c653520ca5f43dea55b2d1e884946c0",
          "blockHash": "0xa315b87282e2e3d466358b62bf76fdb400d160f9665f4f542d33aef54b8a19da",
          "blockNumber": "0x176b715f",
          "transactionHash": "0xf9391fdb0cc477596182b17e2ed3fcabe81203a1553351899b58078703b8f4a5",
          "transactionIndex": "0x6",
          "logIndex": "0x10",
          "removed": false
        }
      ],
      "logsBloom": "0x00000000000000000000000000000000000000000000000000200000000000000000400000000000000000000000000000000000002000000000000000000000000000000000000000000000000000000000000000000000000000000000000000000000000020000000000000000000000000000000000000000000000000000000000000000000000000000000000000000000000000000000000000000000000000000000000000000000000000000000000000000000000000000000000000000000800000000000000000000000000000000000000000000000000000000000000000000000000000000000000000000000000000000000000020000000",
      "type": "0x2",
      "transactionHash": "0xf9391fdb0cc477596182b17e2ed3fcabe81203a1553351899b58078703b8f4a5",
      "transactionIndex": "0x6",
      "blockHash": "0xa315b87282e2e3d466358b62bf76fdb400d160f9665f4f542d33aef54b8a19da",
      "blockNumber": "0x176b715f",
      "gasUsed": "0x7209",
      "effectiveGasPrice": "0x19574e0",
      "from": "0xee03621ce83bbf6e3931bccf35b144354f16ccf7",
      "to": "0xc0473bd9e466a7e564b9f1a0065f1efa41966d54",
      "contractAddress": null,
      "gasUsedForL1": "0x1d5",
      "l1BlockNumber": "0x168d5c7",
      "timeboosted": false
    },
    {
      "status": "0x1",
      "cumulativeGasUsed": "0x71fd",
      "logs": [
        {
          "address": "0xc0473bd9e466a7e564b9f1a0065f1efa41966d54",
          "topics": [
            "0x06450d77a493ade91a66792442980e4499d56e1565b15d80f0790f2a962a135d"
          ],
          "data": "0x000000000000000000000000b4626c50fb6a0019feecd442310cd1f7395e214800000000000000000000000015118b3d806b68aa5564a89f5f88c7df9a8c6346",
          "blockHash": "0x2d5dc4b5ac8d1cd0dfdf0fd8a0620346c2e0a24e8fa36a66fad15a6f1ee08162",
          "blockNumber": "0x176b7165",
          "transactionHash": "0xc401fec54a543eb091ae0ea6613625169460c3f90657e4aba2183eb35caf8002",
          "transactionIndex": "0x1",
          "logIndex": "0x0",
          "removed": false
        }
      ],
      "logsBloom": "0x00000000000000000000000000000000000000000000000000200000000000000000400000000000000000000000000000000000002000000000000000000000000000000000000000000000000000000000000000000000000000000000000000000000000020000000000000000000000000000000000000000000000000000000000000000000000000000000000000000000000000000000000000000000000000000000000000000000000000000000000000000000000000000000000000000000800000000000000000000000000000000000000000000000000000000000000000000000000000000000000000000000000000000000000020000000",
      "type": "0x2",
      "transactionHash": "0xc401fec54a543eb091ae0ea6613625169460c3f90657e4aba2183eb35caf8002",
      "transactionIndex": "0x1",
      "blockHash": "0x2d5dc4b5ac8d1cd0dfdf0fd8a0620346c2e0a24e8fa36a66fad15a6f1ee08162",
      "blockNumber": "0x176b7165",
      "gasUsed": "0x71fd",
      "effectiveGasPrice": "0x19555a0",
      "from": "0xee03621ce83bbf6e3931bccf35b144354f16ccf7",
      "to": "0xc0473bd9e466a7e564b9f1a0065f1efa41966d54",
      "contractAddress": null,
      "gasUsedForL1": "0x1d5",
      "l1BlockNumber": "0x168d5c7",
      "timeboosted": false
    },
    {
      "status": "0x1",
      "cumulativeGasUsed": "0xfc6d",
      "logs": [
        {
          "address": "0xc0473bd9e466a7e564b9f1a0065f1efa41966d54",
          "topics": [
            "0x06450d77a493ade91a66792442980e4499d56e1565b15d80f0790f2a962a135d"
          ],
          "data": "0x0000000000000000000000008d55c23664b46212bc6dc03d03e237988c0d3646000000000000000000000000d50ee02f3bb2b4530c5ffb7df3284c9f2090b517",
          "blockHash": "0x5242d17b62a65e87c162f4e4e6842641c783169a7fc9257f1c80347ed497ec48",
          "blockNumber": "0x176b716b",
          "transactionHash": "0x0e8f5bcc584d9401508b274d09af94e2fce643e60bc54ec3a3e75fce694366d1",
          "transactionIndex": "0x2",
          "logIndex": "0x0",
          "removed": false
        }
      ],
      "logsBloom": "0x00000000000000000000000000000000000000000000000000200000000000000000400000000000000000000000000000000000002000000000000000000000000000000000000000000000000000000000000000000000000000000000000000000000000020000000000000000000000000000000000000000000000000000000000000000000000000000000000000000000000000000000000000000000000000000000000000000000000000000000000000000000000000000000000000000000800000000000000000000000000000000000000000000000000000000000000000000000000000000000000000000000000000000000000020000000",
      "type": "0x2",
      "transactionHash": "0x0e8f5bcc584d9401508b274d09af94e2fce643e60bc54ec3a3e75fce694366d1",
      "transactionIndex": "0x2",
      "blockHash": "0x5242d17b62a65e87c162f4e4e6842641c783169a7fc9257f1c80347ed497ec48",
      "blockNumber": "0x176b716b",
      "gasUsed": "0x720b",
      "effectiveGasPrice": "0x193bf60",
      "from": "0xee03621ce83bbf6e3931bccf35b144354f16ccf7",
      "to": "0xc0473bd9e466a7e564b9f1a0065f1efa41966d54",
      "contractAddress": null,
      "gasUsedForL1": "0x1d7",
      "l1BlockNumber": "0x168d5c7",
      "timeboosted": false
    },
    {
      "status": "0x1",
      "cumulativeGasUsed": "0x4cd86",
      "logs": [
        {
          "address": "0xc0473bd9e466a7e564b9f1a0065f1efa41966d54",
          "topics": [
            "0x06450d77a493ade91a66792442980e4499d56e1565b15d80f0790f2a962a135d"
          ],
          "data": "0x00000000000000000000000043db7ff630c993f080f315007961756f2b96fa4500000000000000000000000091ef3c500e54bec320347dd3b34b4629931a6d7c",
          "blockHash": "0x73157f750c7bce7eae3880180610898d5080055d7cdb1efedbd2a2e1f29a6a3d",
          "blockNumber": "0x176b716f",
          "transactionHash": "0x62132a762f4394e708bef9bc461bc9c5166ba6d762028f6c90eb88cbdba34d18",
          "transactionIndex": "0x3",
          "logIndex": "0x6",
          "removed": false
        }
      ],
      "logsBloom": "0x00000000000000000000000000000000000000000000000000200000000000000000400000000000000000000000000000000000002000000000000000000000000000000000000000000000000000000000000000000000000000000000000000000000000020000000000000000000000000000000000000000000000000000000000000000000000000000000000000000000000000000000000000000000000000000000000000000000000000000000000000000000000000000000000000000000800000000000000000000000000000000000000000000000000000000000000000000000000000000000000000000000000000000000000020000000",
      "type": "0x2",
      "transactionHash": "0x62132a762f4394e708bef9bc461bc9c5166ba6d762028f6c90eb88cbdba34d18",
      "transactionIndex": "0x3",
      "blockHash": "0x73157f750c7bce7eae3880180610898d5080055d7cdb1efedbd2a2e1f29a6a3d",
      "blockNumber": "0x176b716f",
      "gasUsed": "0xbfba",
      "effectiveGasPrice": "0x1946b40",
      "from": "0xee03621ce83bbf6e3931bccf35b144354f16ccf7",
      "to": "0xc0473bd9e466a7e564b9f1a0065f1efa41966d54",
      "contractAddress": null,
      "gasUsedForL1": "0x1d6",
      "l1BlockNumber": "0x168d5c7",
      "timeboosted": false
    },
    {
      "status": "0x1",
      "cumulativeGasUsed": "0x270e5",
      "logs": [
        {
          "address": "0xc0473bd9e466a7e564b9f1a0065f1efa41966d54",
          "topics": [
            "0x06450d77a493ade91a66792442980e4499d56e1565b15d80f0790f2a962a135d"
          ],
          "data": "0x0000000000000000000000002f7c95d1848cb0a5e36de0d4db04c4afe09053dd000000000000000000000000a1d47b6fd0527bcef0bd61a000ee2008ab397c3b",
          "blockHash": "0x2706cde995de63e0ac0f0fe9b6521e50d6ed7b7e2c0141775b196686872d3b52",
          "blockNumber": "0x176b7175",
          "transactionHash": "0x325d3759e5e9fd7ffb4cd06a211cec652dc644442ad4cce555ee0bd712805747",
          "transactionIndex": "0x4",
          "logIndex": "0x1",
          "removed": false
        }
      ],
      "logsBloom": "0x00000000000000000000000000000000000000000000000000200000000000000000400000000000000000000000000000000000002000000000000000000000000000000000000000000000000000000000000000000000000000000000000000000000000020000000000000000000000000000000000000000000000000000000000000000000000000000000000000000000000000000000000000000000000000000000000000000000000000000000000000000000000000000000000000000000800000000000000000000000000000000000000000000000000000000000000000000000000000000000000000000000000000000000000020000000",
      "type": "0x2",
      "transactionHash": "0x325d3759e5e9fd7ffb4cd06a211cec652dc644442ad4cce555ee0bd712805747",
      "transactionIndex": "0x4",
      "blockHash": "0x2706cde995de63e0ac0f0fe9b6521e50d6ed7b7e2c0141775b196686872d3b52",
      "blockNumber": "0x176b7175",
      "gasUsed": "0xbfba",
      "effectiveGasPrice": "0x1943c60",
      "from": "0xee03621ce83bbf6e3931bccf35b144354f16ccf7",
      "to": "0xc0473bd9e466a7e564b9f1a0065f1efa41966d54",
      "contractAddress": null,
      "gasUsedForL1": "0x1d6",
      "l1BlockNumber": "0x168d5c7",
      "timeboosted": false
    },
    {
      "status": "0x1",
      "cumulativeGasUsed": "0x581ee",
      "logs": [
        {
          "address": "0xc0473bd9e466a7e564b9f1a0065f1efa41966d54",
          "topics": [
            "0x06450d77a493ade91a66792442980e4499d56e1565b15d80f0790f2a962a135d"
          ],
          "data": "0x000000000000000000000000618942af15f2fe6f451bee0e094d46df39822e74000000000000000000000000b34c0b04383094036b21aefc4a955c32d104cfca",
          "blockHash": "0x9673d999849287e50f7236b51c83391cf042ef731f4379b8b37de07e9c1bdf28",
          "blockNumber": "0x176b717b",
          "transactionHash": "0x07f9741735af014d4efc13f7277f51009bc7cf1f62380b63e0246a1f2c2d8ab1",
          "transactionIndex": "0x4",
          "logIndex": "0x7",
          "removed": false
        }
      ],
      "logsBloom": "0x00000000000000000000000000000000000000000000000000200000000000000000400000000000000000000000000000000000002000000000000000000000000000000000000000000000000000000000000000000000000000000000000000000000000020000000000000000000000000000000000000000000000000000000000000000000000000000000000000000000000000000000000000000000000000000000000000000000000000000000000000000000000000000000000000000000800000000000000000000000000000000000000000000000000000000000000000000000000000000000000000000000000000000000000020000000",
      "type": "0x2",
      "transactionHash": "0x07f9741735af014d4efc13f7277f51009bc7cf1f62380b63e0246a1f2c2d8ab1",
      "transactionIndex": "0x4",
      "blockHash": "0x9673d999849287e50f7236b51c83391cf042ef731f4379b8b37de07e9c1bdf28",
      "blockNumber": "0x176b717b",
      "gasUsed": "0xbfcf",
      "effectiveGasPrice": "0x18d3b68",
      "from": "0xee03621ce83bbf6e3931bccf35b144354f16ccf7",
      "to": "0xc0473bd9e466a7e564b9f1a0065f1efa41966d54",
      "contractAddress": null,
      "gasUsedForL1": "0x1df",
      "l1BlockNumber": "0x168d5c7",
      "timeboosted": false
    },
    {
      "status": "0x1",
      "cumulativeGasUsed": "0x88238",
      "logs": [
        {
          "address": "0xc0473bd9e466a7e564b9f1a0065f1efa41966d54",
          "topics": [
            "0x06450d77a493ade91a66792442980e4499d56e1565b15d80f0790f2a962a135d"
          ],
          "data": "0x000000000000000000000000bf374ffdde61ebf4e19dc0320bd2ded9de447eb400000000000000000000000083c34109699045bcf0a91b522f0e25f96697158d",
          "blockHash": "0x742a4176664ac50b0dfe4b2714834b3b4405cc7b573a12f41ce0f02a6097a0a7",
          "blockNumber": "0x176b7180",
          "transactionHash": "0xbe95d44cf2fc550ca0ab67e8a38c4fe40a791bf906f116d370f0ab5eab5da941",
          "transactionIndex": "0x6",
          "logIndex": "0xb",
          "removed": false
        }
      ],
      "logsBloom": "0x00000000000000000000000000000000000000000000000000200000000000000000400000000000000000000000000000000000002000000000000000000000000000000000000000000000000000000000000000000000000000000000000000000000000020000000000000000000000000000000000000000000000000000000000000000000000000000000000000000000000000000000000000000000000000000000000000000000000000000000000000000000000000000000000000000000800000000000000000000000000000000000000000000000000000000000000000000000000000000000000000000000000000000000000020000000",
      "type": "0x2",
      "transactionHash": "0xbe95d44cf2fc550ca0ab67e8a38c4fe40a791bf906f116d370f0ab5eab5da941",
      "transactionIndex": "0x6",
      "blockHash": "0x742a4176664ac50b0dfe4b2714834b3b4405cc7b573a12f41ce0f02a6097a0a7",
      "blockNumber": "0x176b7180",
      "gasUsed": "0xbfd2",
      "effectiveGasPrice": "0x18a4d68",
      "from": "0xee03621ce83bbf6e3931bccf35b144354f16ccf7",
      "to": "0xc0473bd9e466a7e564b9f1a0065f1efa41966d54",
      "contractAddress": null,
      "gasUsedForL1": "0x1e2",
      "l1BlockNumber": "0x168d5c7",
      "timeboosted": false
    },
    {
      "status": "0x1",
      "cumulativeGasUsed": "0x51146",
      "logs": [
        {
          "address": "0xc0473bd9e466a7e564b9f1a0065f1efa41966d54",
          "topics": [
            "0x06450d77a493ade91a66792442980e4499d56e1565b15d80f0790f2a962a135d"
          ],
          "data": "0x00000000000000000000000088d873c00658874996e07e98e84ff89c3aa314c100000000000000000000000084e2ebfe4b8c33d3bb0a6d28731db84d705c7817",
          "blockHash": "0x4ae2afa278bf375f63076f53494f14e1147c58498c3ab3a6aeacee1f1baa82de",
          "blockNumber": "0x176b7187",
          "transactionHash": "0xf9891ddb400cbebc4f92fa1c28e44e7e15038d1c8557394d5d15a2ba7582d214",
          "transactionIndex": "0x2",
          "logIndex": "0x5",
          "removed": false
        }
      ],
      "logsBloom": "0x00000000000000000000000000000000000000000000000000200000000000000000400000000000000000000000000000000000002000000000000000000000000000000000000000000000000000000000000000000000000000000000000000000000000020000000000000000000000000000000000000000000000000000000000000000000000000000000000000000000000000000000000000000000000000000000000000000000000000000000000000000000000000000000000000000000800000000000000000000000000000000000000000000000000000000000000000000000000000000000000000000000000000000000000020000000",
      "type": "0x2",
      "transactionHash": "0xf9891ddb400cbebc4f92fa1c28e44e7e15038d1c8557394d5d15a2ba7582d214",
      "transactionIndex": "0x2",
      "blockHash": "0x4ae2afa278bf375f63076f53494f14e1147c58498c3ab3a6aeacee1f1baa82de",
      "blockNumber": "0x176b7187",
      "gasUsed": "0xbfd7",
      "effectiveGasPrice": "0x186a000",
      "from": "0xee03621ce83bbf6e3931bccf35b144354f16ccf7",
      "to": "0xc0473bd9e466a7e564b9f1a0065f1efa41966d54",
      "contractAddress": null,
      "gasUsedForL1": "0x1e7",
      "l1BlockNumber": "0x168d5c7",
      "timeboosted": false
    },
    {
      "status": "0x1",
      "cumulativeGasUsed": "0x5cb11",
      "logs": [
        {
          "address": "0xc0473bd9e466a7e564b9f1a0065f1efa41966d54",
          "topics": [
            "0x06450d77a493ade91a66792442980e4499d56e1565b15d80f0790f2a962a135d"
          ],
          "data": "0x0000000000000000000000007e588b76807b0adf014c4cea3d9df28d4c5e7c800000000000000000000000009a7434bdf1f96936ee485f57b4d777a3e348867c",
          "blockHash": "0x05ee38b1c5ea42fd9fa1e034f6a42daa0c3724e5d8f3f9bd526d12a8a0c3845c",
          "blockNumber": "0x176b718d",
          "transactionHash": "0x3d32e65354c9061b62e23abe9905aee39db0fe71145c913c0a6e7cefcdd3208a",
          "transactionIndex": "0x5",
          "logIndex": "0x3",
          "removed": false
        }
      ],
      "logsBloom": "0x00000000000000000000000000000000000000000000000000200000000000000000400000000000000000000000000000000000002000000000000000000000000000000000000000000000000000000000000000000000000000000000000000000000000020000000000000000000000000000000000000000000000000000000000000000000000000000000000000000000000000000000000000000000000000000000000000000000000000000000000000000000000000000000000000000000800000000000000000000000000000000000000000000000000000000000000000000000000000000000000000000000000000000000000020000000",
      "type": "0x2",
      "transactionHash": "0x3d32e65354c9061b62e23abe9905aee39db0fe71145c913c0a6e7cefcdd3208a",
      "transactionIndex": "0x5",
      "blockHash": "0x05ee38b1c5ea42fd9fa1e034f6a42daa0c3724e5d8f3f9bd526d12a8a0c3845c",
      "blockNumber": "0x176b718d",
      "gasUsed": "0xbfd7",
      "effectiveGasPrice": "0x186c328",
      "from": "0xee03621ce83bbf6e3931bccf35b144354f16ccf7",
      "to": "0xc0473bd9e466a7e564b9f1a0065f1efa41966d54",
      "contractAddress": null,
      "gasUsedForL1": "0x1e7",
      "l1BlockNumber": "0x168d5c7",
      "timeboosted": false
    },
    {
      "status": "0x1",
      "cumulativeGasUsed": "0x229a6",
      "logs": [
        {
          "address": "0xc0473bd9e466a7e564b9f1a0065f1efa41966d54",
          "topics": [
            "0x06450d77a493ade91a66792442980e4499d56e1565b15d80f0790f2a962a135d"
          ],
          "data": "0x000000000000000000000000c75de9a3c001f6e5f45fb44a11fa7d92e82bac0e0000000000000000000000007a1d64d543db151b8ccb18a8670a2f3467be6144",
          "blockHash": "0x6da5c76e0aecc73efb0eb157fc705907c020613e3b29edd34acdecfc5f605b23",
          "blockNumber": "0x176b7193",
          "transactionHash": "0x95d779a013dc1d3ac98fc76a16cea903a754ee760acd956217d297f05c35a64a",
          "transactionIndex": "0x3",
          "logIndex": "0x2",
          "removed": false
        }
      ],
      "logsBloom": "0x00000000000000000000000000000000000000000000000000200000000000000000400000000000000000000000000000000000002000000000000000000000000000000000000000000000000000000000000000000000000000000000000000000000000020000000000000000000000000000000000000000000000000000000000000000000000000000000000000000000000000000000000000000000000000000000000000000000000000000000000000000000000000000000000000000000800000000000000000000000000000000000000000000000000000000000000000000000000000000000000000000000000000000000000020000000",
      "type": "0x2",
      "transactionHash": "0x95d779a013dc1d3ac98fc76a16cea903a754ee760acd956217d297f05c35a64a",
      "transactionIndex": "0x3",
      "blockHash": "0x6da5c76e0aecc73efb0eb157fc705907c020613e3b29edd34acdecfc5f605b23",
      "blockNumber": "0x176b7193",
      "gasUsed": "0xbfda",
      "effectiveGasPrice": "0x18459f8",
      "from": "0xee03621ce83bbf6e3931bccf35b144354f16ccf7",
      "to": "0xc0473bd9e466a7e564b9f1a0065f1efa41966d54",
      "contractAddress": null,
      "gasUsedForL1": "0x1ea",
      "l1BlockNumber": "0x168d5c7",
      "timeboosted": false
    },
    {
      "status": "0x1",
      "cumulativeGasUsed": "0x6e575",
      "logs": [
        {
          "address": "0xc0473bd9e466a7e564b9f1a0065f1efa41966d54",
          "topics": [
            "0x06450d77a493ade91a66792442980e4499d56e1565b15d80f0790f2a962a135d"
          ],
          "data": "0x000000000000000000000000479702c416cbbd2d95f0c5408a961f9870e6eea500000000000000000000000020589bd02029700bcdf4af70a63d8b8bb8a901e9",
          "blockHash": "0x3c5fb51a747560ed1a1a2fe21cd89c771fd3e14d6eecd98d097a79707547fdc6",
          "blockNumber": "0x176b7199",
          "transactionHash": "0x2d3283027ffc7938b3892fb015dbe023bfee062911f3ba0455fbed51229146f8",
          "transactionIndex": "0x5",
          "logIndex": "0x5",
          "removed": false
        }
      ],
      "logsBloom": "0x00000000000000000000000000000000000000000000000000200000000000000000400000000000000000000000000000000000002000000000000000000000000000000000000000000000000000000000000000000000000000000000000000000000000020000000000000000000000000000000000000000000000000000000000000000000000000000000000000000000000000000000000000000000000000000000000000000000000000000000000000000000000000000000000000000000800000000000000000000000000000000000000000000000000000000000000000000000000000000000000000000000000000000000000020000000",
      "type": "0x2",
      "transactionHash": "0x2d3283027ffc7938b3892fb015dbe023bfee062911f3ba0455fbed51229146f8",
      "transactionIndex": "0x5",
      "blockHash": "0x3c5fb51a747560ed1a1a2fe21cd89c771fd3e14d6eecd98d097a79707547fdc6",
      "blockNumber": "0x176b7199",
      "gasUsed": "0xbfdc",
      "effectiveGasPrice": "0x1825a40",
      "from": "0xee03621ce83bbf6e3931bccf35b144354f16ccf7",
      "to": "0xc0473bd9e466a7e564b9f1a0065f1efa41966d54",
      "contractAddress": null,
      "gasUsedForL1": "0x1ec",
      "l1BlockNumber": "0x168d5c9",
      "timeboosted": false
    },
    {
      "status": "0x1",
      "cumulativeGasUsed": "0x1211ce",
      "logs": [
        {
          "address": "0xc0473bd9e466a7e564b9f1a0065f1efa41966d54",
          "topics": [
            "0x06450d77a493ade91a66792442980e4499d56e1565b15d80f0790f2a962a135d"
          ],
          "data": "0x0000000000000000000000007f7e97a31409ca29f1878e0d1b7068160834739b00000000000000000000000097b989d67450cbaa292d96d841796ee5fcedeb2a",
          "blockHash": "0x15263c767edfc8ea874bf482068ee4c9f82c547b2bb6eb37f03b8060c8545439",
          "blockNumber": "0x176b719f",
          "transactionHash": "0x0c72a4a50526f5cfbe5d6647aa82023dc5d9187eb9b19a810978cb09acf3c30a",
          "transactionIndex": "0xd",
          "logIndex": "0xf",
          "removed": false
        }
      ],
      "logsBloom": "0x00000000000000000000000000000000000000000000000000200000000000000000400000000000000000000000000000000000002000000000000000000000000000000000000000000000000000000000000000000000000000000000000000000000000020000000000000000000000000000000000000000000000000000000000000000000000000000000000000000000000000000000000000000000000000000000000000000000000000000000000000000000000000000000000000000000800000000000000000000000000000000000000000000000000000000000000000000000000000000000000000000000000000000000000020000000",
      "type": "0x2",
      "transactionHash": "0x0c72a4a50526f5cfbe5d6647aa82023dc5d9187eb9b19a810978cb09acf3c30a",
      "transactionIndex": "0xd",
      "blockHash": "0x15263c767edfc8ea874bf482068ee4c9f82c547b2bb6eb37f03b8060c8545439",
      "blockNumber": "0x176b719f",
      "gasUsed": "0xbfe3",
      "effectiveGasPrice": "0x17cfb40",
      "from": "0xee03621ce83bbf6e3931bccf35b144354f16ccf7",
      "to": "0xc0473bd9e466a7e564b9f1a0065f1efa41966d54",
      "contractAddress": null,
      "gasUsedForL1": "0x1f3",
      "l1BlockNumber": "0x168d5c9",
      "timeboosted": false
    },
    {
      "status": "0x1",
      "cumulativeGasUsed": "0x171eb",
      "logs": [
        {
          "address": "0xc0473bd9e466a7e564b9f1a0065f1efa41966d54",
          "topics": [
            "0x06450d77a493ade91a66792442980e4499d56e1565b15d80f0790f2a962a135d"
          ],
          "data": "0x000000000000000000000000e8484f0442707c3daec850be6e05a128100a00cd0000000000000000000000001e6104a0177c2c3dd01e3bf940a21ff190f544c2",
          "blockHash": "0xf4187ca17b6a12707c6444784772bd638f65a483aae95dcdc8e08501d4baa96b",
          "blockNumber": "0x176b71a6",
          "transactionHash": "0x130ac567ee5d0e421e94274717028e857d1968706e534ee5f978aca1b51e5218",
          "transactionIndex": "0x2",
          "logIndex": "0x1",
          "removed": false
        }
      ],
      "logsBloom": "0x00000000000000000000000000000000000000000000000000200000000000000000400000000000000000000000000000000000002000000000000000000000000000000000000000000000000000000000000000000000000000000000000000000000000020000000000000000000000000000000000000000000000000000000000000000000000000000000000000000000000000000000000000000000000000000000000000000000000000000000000000000000000000000000000000000000800000000000000000000000000000000000000000000000000000000000000000000000000000000000000000000000000000000000000020000000",
      "type": "0x2",
      "transactionHash": "0x130ac567ee5d0e421e94274717028e857d1968706e534ee5f978aca1b51e5218",
      "transactionIndex": "0x2",
      "blockHash": "0xf4187ca17b6a12707c6444784772bd638f65a483aae95dcdc8e08501d4baa96b",
      "blockNumber": "0x176b71a6",
      "gasUsed": "0xbfdb",
      "effectiveGasPrice": "0x179de60",
      "from": "0xee03621ce83bbf6e3931bccf35b144354f16ccf7",
      "to": "0xc0473bd9e466a7e564b9f1a0065f1efa41966d54",
      "contractAddress": null,
      "L1BlockNumber": "0x168d5c9",
      "gasUsedForL1": "0x1f7",
      "timeboosted": false
    },
    {
      "status": "0x1",
      "cumulativeGasUsed": "0x9a8de",
      "logs": [
        {
          "address": "0xc0473bd9e466a7e564b9f1a0065f1efa41966d54",
          "topics": [
            "0x06450d77a493ade91a66792442980e4499d56e1565b15d80f0790f2a962a135d"
          ],
          "data": "0x000000000000000000000000c6466031bd2cd675d3fb7c7fad17eaf4a8403fe70000000000000000000000007e58667d1c5a1cc2ac8c336ed1b98a9bcc17fe58",
          "blockHash": "0x686f37d60bff99a83c0a283256455f6c51423ce345dabe6e85fbeb7d62acadb8",
          "blockNumber": "0x176b71ac",
          "transactionHash": "0x2893f65cdfa5379b432e144a7dcc9501927b8839238d12d05496bbe175c7264a",
          "transactionIndex": "0x6",
          "logIndex": "0xc",
          "removed": false
        }
      ],
      "logsBloom": "0x00000000000000000000000000000000000000000000000000200000000000000000400000000000000000000000000000000000002000000000000000000000000000000000000000000000000000000000000000000000000000000000000000000000000020000000000000000000000000000000000000000000000000000000000000000000000000000000000000000000000000000000000000000000000000000000000000000000000000000000000000000000000000000000000000000000800000000000000000000000000000000000000000000000000000000000000000000000000000000000000000000000000000000000000020000000",
      "type": "0x2",
      "transactionHash": "0x2893f65cdfa5379b432e144a7dcc9501927b8839238d12d05496bbe175c7264a",
      "transactionIndex": "0x6",
      "blockHash": "0x686f37d60bff99a83c0a283256455f6c51423ce345dabe6e85fbeb7d62acadb8",
      "blockNumber": "0x176b71ac",
      "gasUsed": "0xbfea",
      "effectiveGasPrice": "0x17784d0",
      "from": "0xee03621ce83bbf6e3931bccf35b144354f16ccf7",
      "to": "0xc0473bd9e466a7e564b9f1a0065f1efa41966d54",
      "contractAddress": null,
      "gasUsedForL1": "0x1fa",
      "l1BlockNumber": "0x168d5c9",
      "timeboosted": false
    },
    {
      "status": "0x1",
      "cumulativeGasUsed": "0x2bf78",
      "logs": [
        {
          "address": "0x7fb63d9faf99a34bca04efd5ba7f75dc6db37f4d",
          "topics": [
            "0x033b55419a2dba027908fbe5a221c7df98500387bfc5bef4cbfb1e276264d205"
          ],
          "data": "0x000000000000000000000000c23e60ac84240ffce72680652515dfb1435c356b0000000000000000000000000000000000000000000000000000000000000001",
          "blockHash": "0x72d6ad51ca09bc5aa52bee43eb9694b985643970a0cc20e67b0724fd0d4a3d2e",
          "blockNumber": "0x176b71b4",
          "transactionHash": "0xff0ca3b3be94553689413535dedafca0f75380d59f4ab48800a54dacd34824ee",
          "transactionIndex": "0x3",
          "logIndex": "0x2",
          "removed": false
        }
      ],
      "logsBloom": "0x00000000000000000000000000000000000000000000000000000000000000000000000000000000000000000000000000000000000000000000000000000000000000000000000000000000000000000000000000000000040000200000020000000000000000000000000000000000000000000000000000000000000000000000000000080000000000000000000000000000000000000000000000000000100000000000000000000000000000000000000000000000000000000000000000000000000000000000000000000000000000000000000000000000000000000000000000000000000000000000000000000800000000000000000000000000",
      "type": "0x2",
      "transactionHash": "0xff0ca3b3be94553689413535dedafca0f75380d59f4ab48800a54dacd34824ee",
      "transactionIndex": "0x3",
      "blockHash": "0x72d6ad51ca09bc5aa52bee43eb9694b985643970a0cc20e67b0724fd0d4a3d2e",
      "blockNumber": "0x176b71b4",
      "gasUsed": "0x85ad",
      "effectiveGasPrice": "0x17569c0",
      "from": "0xee03621ce83bbf6e3931bccf35b144354f16ccf7",
      "to": "0x7fb63d9faf99a34bca04efd5ba7f75dc6db37f4d",
      "contractAddress": null,
      "gasUsedForL1": "0x1fd",
      "l1BlockNumber": "0x168d5c9",
      "timeboosted": false
    },
    {
      "status": "0x1",
      "cumulativeGasUsed": "0x34443",
      "logs": [
        {
          "address": "0x7fb63d9faf99a34bca04efd5ba7f75dc6db37f4d",
          "topics": [
            "0x033b55419a2dba027908fbe5a221c7df98500387bfc5bef4cbfb1e276264d205"
          ],
          "data": "0x000000000000000000000000338802b73da88d05e1b3a0203092ad43807049be0000000000000000000000000000000000000000000000000000000000000001",
          "blockHash": "0xe41e46782e811726a3d993f00cc8e9927111dad548780e4fa2fe7b4771e209ea",
          "blockNumber": "0x176b71ba",
          "transactionHash": "0x26fd919762ad79f40812afc61bf2fa5a722b7c9b328d97e911f5d68a70ba9635",
          "transactionIndex": "0x5",
          "logIndex": "0x2",
          "removed": false
        }
      ],
      "logsBloom": "0x00000000000000000000000000000000000000000000000000000000000000000000000000000000000000000000000000000000000000000000000000000000000000000000000000000000000000000000000000000000040000200000020000000000000000000000000000000000000000000000000000000000000000000000000000080000000000000000000000000000000000000000000000000000100000000000000000000000000000000000000000000000000000000000000000000000000000000000000000000000000000000000000000000000000000000000000000000000000000000000000000000800000000000000000000000000",
      "type": "0x2",
      "transactionHash": "0x26fd919762ad79f40812afc61bf2fa5a722b7c9b328d97e911f5d68a70ba9635",
      "transactionIndex": "0x5",
      "blockHash": "0xe41e46782e811726a3d993f00cc8e9927111dad548780e4fa2fe7b4771e209ea",
      "blockNumber": "0x176b71ba",
      "gasUsed": "0x85b3",
      "effectiveGasPrice": "0x1712400",
      "from": "0xee03621ce83bbf6e3931bccf35b144354f16ccf7",
      "to": "0x7fb63d9faf99a34bca04efd5ba7f75dc6db37f4d",
      "contractAddress": null,
      "gasUsedForL1": "0x203",
      "l1BlockNumber": "0x168d5c9"
    },
    {
      "status": "0x1",
      "cumulativeGasUsed": "0x164ba",
      "logs": [
        {
          "address": "0x7fb63d9faf99a34bca04efd5ba7f75dc6db37f4d",
          "topics": [
            "0x033b55419a2dba027908fbe5a221c7df98500387bfc5bef4cbfb1e276264d205"
          ],
          "data": "0x00000000000000000000000099d19f4cb938e0aad646358c20cb9d0ce0a7a9450000000000000000000000000000000000000000000000000000000000000001",
          "blockHash": "0xadf7b41c12028e4bff0b5839e938390c3d917d80361687007f888029a900951b",
          "blockNumber": "0x176b71c1",
          "transactionHash": "0x55798491533aecf7e926f87bb3db7e4d49ffd1d5eab35b051e62547291d9bfdd",
          "transactionIndex": "0x2",
          "logIndex": "0x0",
          "removed": false
        }
      ],
      "logsBloom": "0x00000000000000000000000000000000000000000000000000000000000000000000000000000000000000000000000000000000000000000000000000000000000000000000000000000000000000000000000000000000040000200000020000000000000000000000000000000000000000000000000000000000000000000000000000080000000000000000000000000000000000000000000000000000100000000000000000000000000000000000000000000000000000000000000000000000000000000000000000000000000000000000000000000000000000000000000000000000000000000000000000000800000000000000000000000000",
      "type": "0x2",
      "transactionHash": "0x55798491533aecf7e926f87bb3db7e4d49ffd1d5eab35b051e62547291d9bfdd",
      "transactionIndex": "0x2",
      "blockHash": "0xadf7b41c12028e4bff0b5839e938390c3d917d80361687007f888029a900951b",
      "blockNumber": "0x176b71c1",
      "gasUsed": "0xd373",
      "effectiveGasPrice": "0x1709760",
      "from": "0xee03621ce83bbf6e3931bccf35b144354f16ccf7",
      "to": "0x7fb63d9faf99a34bca04efd5ba7f75dc6db37f4d",
      "contractAddress": null,
      "gasUsedForL1": "0x207",
      "l1BlockNumber": "0x168d5c9",
      "timeboosted": false
    },
    {
      "status": "0x1",
      "cumulativeGasUsed": "0x4ea440",
      "logs": [
        {
          "address": "0x7fb63d9faf99a34bca04efd5ba7f75dc6db37f4d",
          "topics": [
            "0x033b55419a2dba027908fbe5a221c7df98500387bfc5bef4cbfb1e276264d205"
          ],
          "data": "0x000000000000000000000000a0f8c84e78eabdf241a9fa9ff6733ab17bb4e7fa0000000000000000000000000000000000000000000000000000000000000001",
          "blockHash": "0x28f63b6bd5dca4e3c6a0c169844429f6d8bc43c7082ccb00744a45558f7cdaf0",
          "blockNumber": "0x176b71c6",
          "transactionHash": "0xcf7908a980cbdd323ecc8f172971b2b9a1377b8eee0070285443a250bb865530",
          "transactionIndex": "0x8",
          "logIndex": "0x4",
          "removed": false
        }
      ],
      "logsBloom": "0x00000000000000000000000000000000000000000000000000000000000000000000000000000000000000000000000000000000000000000000000000000000000000000000000000000000000000000000000000000000040000200000020000000000000000000000000000000000000000000000000000000000000000000000000000080000000000000000000000000000000000000000000000000000100000000000000000000000000000000000000000000000000000000000000000000000000000000000000000000000000000000000000000000000000000000000000000000000000000000000000000000800000000000000000000000000",
      "type": "0x2",
      "transactionHash": "0xcf7908a980cbdd323ecc8f172971b2b9a1377b8eee0070285443a250bb865530",
      "transactionIndex": "0x8",
      "blockHash": "0x28f63b6bd5dca4e3c6a0c169844429f6d8bc43c7082ccb00744a45558f7cdaf0",
      "blockNumber": "0x176b71c6",
      "gasUsed": "0xd37b",
      "effectiveGasPrice": "0x16a9838",
      "from": "0xee03621ce83bbf6e3931bccf35b144354f16ccf7",
      "to": "0x7fb63d9faf99a34bca04efd5ba7f75dc6db37f4d",
      "contractAddress": null,
      "gasUsedForL1": "0x20f",
      "l1BlockNumber": "0x168d5c9",
      "timeboosted": false
    },
    {
      "status": "0x1",
      "cumulativeGasUsed": "0x43ede",
      "logs": [
        {
          "address": "0x7fb63d9faf99a34bca04efd5ba7f75dc6db37f4d",
          "topics": [
            "0x033b55419a2dba027908fbe5a221c7df98500387bfc5bef4cbfb1e276264d205"
          ],
          "data": "0x0000000000000000000000000b214413cac3e0b8f356181d7339626fcafff6bd0000000000000000000000000000000000000000000000000000000000000001",
          "blockHash": "0xd2693166bb6d6af4238d5f0cede3eed5d7721b91ee027ac5a085b3df5b86c9fd",
          "blockNumber": "0x176b71ce",
          "transactionHash": "0xb40976342dc70a68307f7f4fe8d952deae9c36fbf6ae6754ccc33c27b6530526",
          "transactionIndex": "0x2",
          "logIndex": "0x2",
          "removed": false
        }
      ],
      "logsBloom": "0x00000000000000000000000000000000000000000000000000000000000000000000000000000000000000000000000000000000000000000000000000000000000000000000000000000000000000000000000000000000040000200000020000000000000000000000000000000000000000000000000000000000000000000000000000080000000000000000000000000000000000000000000000000000100000000000000000000000000000000000000000000000000000000000000000000000000000000000000000000000000000000000000000000000000000000000000000000000000000000000000000000800000000000000000000000000",
      "type": "0x2",
      "transactionHash": "0xb40976342dc70a68307f7f4fe8d952deae9c36fbf6ae6754ccc33c27b6530526",
      "transactionIndex": "0x2",
      "blockHash": "0xd2693166bb6d6af4238d5f0cede3eed5d7721b91ee027ac5a085b3df5b86c9fd",
      "blockNumber": "0x176b71ce",
      "gasUsed": "0xd376",
      "effectiveGasPrice": "0x16e97a8",
      "from": "0xee03621ce83bbf6e3931bccf35b144354f16ccf7",
      "to": "0x7fb63d9faf99a34bca04efd5ba7f75dc6db37f4d",
      "contractAddress": null,
      "gasUsedForL1": "0x20a",
      "l1BlockNumber": "0x168d5c9",
      "timeboosted": false
    },
    {
      "status": "0x1",
      "cumulativeGasUsed": "0x164cc",
      "logs": [
        {
          "address": "0x7fb63d9faf99a34bca04efd5ba7f75dc6db37f4d",
          "topics": [
            "0x033b55419a2dba027908fbe5a221c7df98500387bfc5bef4cbfb1e276264d205"
          ],
          "data": "0x000000000000000000000000a7f56bc3252c676e43ff1f3e6780dbbc7679d7a60000000000000000000000000000000000000000000000000000000000000001",
          "blockHash": "0x1f221118c64efad5c3d9dd5c19ba2755033f0c06ea3bef736a7bbaff6538ebf0",
          "blockNumber": "0x176b71d6",
          "transactionHash": "0xe74d4e8aa0979782fa3fa8e50d7314888468e85252fbbe96b0ffa4b2f5c8873d",
          "transactionIndex": "0x2",
          "logIndex": "0x0",
          "removed": false
        }
      ],
      "logsBloom": "0x00000000000000000000000000000000000000000000000000000000000000000000000000000000000000000000000000000000000000000000000000000000000000000000000000000000000000000000000000000000040000200000020000000000000000000000000000000000000000000000000000000000000000000000000000080000000000000000000000000000000000000000000000000000100000000000000000000000000000000000000000000000000000000000000000000000000000000000000000000000000000000000000000000000000000000000000000000000000000000000000000000800000000000000000000000000",
      "type": "0x2",
      "transactionHash": "0xe74d4e8aa0979782fa3fa8e50d7314888468e85252fbbe96b0ffa4b2f5c8873d",
      "transactionIndex": "0x2",
      "blockHash": "0x1f221118c64efad5c3d9dd5c19ba2755033f0c06ea3bef736a7bbaff6538ebf0",
      "blockNumber": "0x176b71d6",
      "gasUsed": "0xd37a",
      "effectiveGasPrice": "0x16b4800",
      "from": "0xee03621ce83bbf6e3931bccf35b144354f16ccf7",
      "to": "0x7fb63d9faf99a34bca04efd5ba7f75dc6db37f4d",
      "contractAddress": null,
      "L1BlockNumber": "0x168d5ca",
      "gasUsedForL1": "0x20e",
      "timeboosted": false
    },
    {
      "status": "0x1",
      "cumulativeGasUsed": "0x24413",
      "logs": [
        {
          "address": "0x7fb63d9faf99a34bca04efd5ba7f75dc6db37f4d",
          "topics": [
            "0x033b55419a2dba027908fbe5a221c7df98500387bfc5bef4cbfb1e276264d205"
          ],
          "data": "0x00000000000000000000000014954b6a207a4cc908f44354e61997070507fcc40000000000000000000000000000000000000000000000000000000000000001",
          "blockHash": "0x85fd7a1496f3852c30af84d861ebba7fd489034298dc804896d36a281af8ed4c",
          "blockNumber": "0x176b71dd",
          "transactionHash": "0x35a04bed124102f69b9ba20963638be79b32b0d57256536ad36fd148a10b5990",
          "transactionIndex": "0x3",
          "logIndex": "0x0",
          "removed": false
        }
      ],
      "logsBloom": "0x00000000000000000000000000000000000000000000000000000000000000000000000000000000000000000000000000000000000000000000000000000000000000000000000000000000000000000000000000000000040000200000020000000000000000000000000000000000000000000000000000000000000000000000000000080000000000000000000000000000000000000000000000000000100000000000000000000000000000000000000000000000000000000000000000000000000000000000000000000000000000000000000000000000000000000000000000000000000000000000000000000800000000000000000000000000",
      "type": "0x2",
      "transactionHash": "0x35a04bed124102f69b9ba20963638be79b32b0d57256536ad36fd148a10b5990",
      "transactionIndex": "0x3",
      "blockHash": "0x85fd7a1496f3852c30af84d861ebba7fd489034298dc804896d36a281af8ed4c",
      "blockNumber": "0x176b71dd",
      "gasUsed": "0xd37b",
      "effectiveGasPrice": "0x16b3478",
      "from": "0xee03621ce83bbf6e3931bccf35b144354f16ccf7",
      "to": "0x7fb63d9faf99a34bca04efd5ba7f75dc6db37f4d",
      "contractAddress": null,
      "gasUsedForL1": "0x20f",
      "l1BlockNumber": "0x168d5ca",
      "timeboosted": false
    },
    {
      "status": "0x1",
      "cumulativeGasUsed": "0xe6e03",
      "logs": [
        {
          "address": "0x7fb63d9faf99a34bca04efd5ba7f75dc6db37f4d",
          "topics": [
            "0x033b55419a2dba027908fbe5a221c7df98500387bfc5bef4cbfb1e276264d205"
          ],
          "data": "0x0000000000000000000000001aa55163e448b100ac4541c69cf2b55c909a2be90000000000000000000000000000000000000000000000000000000000000001",
          "blockHash": "0x493e016b82c61ffc40811ef5a8c811cd3f661a3c70ff32180033f406c57569bf",
          "blockNumber": "0x176b71e3",
          "transactionHash": "0x219a99d0b2b87411a6cc5003ab6ff02c1471a2f62a8d20fff8f2fefb0e5f51ef",
          "transactionIndex": "0x4",
          "logIndex": "0x0",
          "removed": false
        }
      ],
      "logsBloom": "0x00000000000000000000000000000000000000000000000000000000000000000000000000000000000000000000000000000000000000000000000000000000000000000000000000000000000000000000000000000000040000200000020000000000000000000000000000000000000000000000000000000000000000000000000000080000000000000000000000000000000000000000000000000000100000000000000000000000000000000000000000000000000000000000000000000000000000000000000000000000000000000000000000000000000000000000000000000000000000000000000000000800000000000000000000000000",
      "type": "0x2",
      "transactionHash": "0x219a99d0b2b87411a6cc5003ab6ff02c1471a2f62a8d20fff8f2fefb0e5f51ef",
      "transactionIndex": "0x4",
      "blockHash": "0x493e016b82c61ffc40811ef5a8c811cd3f661a3c70ff32180033f406c57569bf",
      "blockNumber": "0x176b71e3",
      "gasUsed": "0xd378",
      "effectiveGasPrice": "0x164f6d0",
      "from": "0xee03621ce83bbf6e3931bccf35b144354f16ccf7",
      "to": "0x7fb63d9faf99a34bca04efd5ba7f75dc6db37f4d",
      "contractAddress": null,
      "gasUsedForL1": "0x218",
      "l1BlockNumber": "0x168d5ca",
      "timeboosted": false
    },
    {
      "status": "0x1",
      "cumulativeGasUsed": "0x1556ca",
      "logs": [
        {
          "address": "0x7fb63d9faf99a34bca04efd5ba7f75dc6db37f4d",
          "topics": [
            "0x033b55419a2dba027908fbe5a221c7df98500387bfc5bef4cbfb1e276264d205"
          ],
          "data": "0x000000000000000000000000623cf9e33f269fd459467e98a5e12db4c2fbcae00000000000000000000000000000000000000000000000000000000000000001",
          "blockHash": "0x285abf63833114fd2c4217b827ad660db025cd9262f17ca94f4b24c6237d463f",
          "blockNumber": "0x176b71ea",
          "transactionHash": "0x5abfcdc0d19d679dcc6926952154f3a3b178151d2761bc48f6af9c58d9d7883e",
          "transactionIndex": "0xa",
          "logIndex": "0x28",
          "removed": false
        }
      ],
      "logsBloom": "0x00000000000000000000000000000000000000000000000000000000000000000000000000000000000000000000000000000000000000000000000000000000000000000000000000000000000000000000000000000000040000200000020000000000000000000000000000000000000000000000000000000000000000000000000000080000000000000000000000000000000000000000000000000000100000000000000000000000000000000000000000000000000000000000000000000000000000000000000000000000000000000000000000000000000000000000000000000000000000000000000000000800000000000000000000000000",
      "type": "0x2",
      "transactionHash": "0x5abfcdc0d19d679dcc6926952154f3a3b178151d2761bc48f6af9c58d9d7883e",
      "transactionIndex": "0xa",
      "blockHash": "0x285abf63833114fd2c4217b827ad660db025cd9262f17ca94f4b24c6237d463f",
      "blockNumber": "0x176b71ea",
      "gasUsed": "0xd387",
      "effectiveGasPrice": "0x1629958",
      "from": "0xee03621ce83bbf6e3931bccf35b144354f16ccf7",
      "to": "0x7fb63d9faf99a34bca04efd5ba7f75dc6db37f4d",
      "contractAddress": null,
      "gasUsedForL1": "0x21b",
      "l1BlockNumber": "0x168d5ca",
      "timeboosted": false
    },
    {
      "status": "0x1",
      "cumulativeGasUsed": "0xcd298",
      "logs": [
        {
          "address": "0x7fb63d9faf99a34bca04efd5ba7f75dc6db37f4d",
          "topics": [
            "0x033b55419a2dba027908fbe5a221c7df98500387bfc5bef4cbfb1e276264d205"
          ],
          "data": "0x000000000000000000000000b4626c50fb6a0019feecd442310cd1f7395e21480000000000000000000000000000000000000000000000000000000000000001",
          "blockHash": "0x133fd0cf0fa54d5cda918a400329250dac08919878d8f5412af67fecfde498b6",
          "blockNumber": "0x176b71ef",
          "transactionHash": "0x1c6084b9d02da309539292d97f29eed7efce49926fc614029071d85a7014befa",
          "transactionIndex": "0x9",
          "logIndex": "0xb",
          "removed": false
        }
      ],
      "logsBloom": "0x00000000000000000000000000000000000000000000000000000000000000000000000000000000000000000000000000000000000000000000000000000000000000000000000000000000000000000000000000000000040000200000020000000000000000000000000000000000000000000000000000000000000000000000000000080000000000000000000000000000000000000000000000000000100000000000000000000000000000000000000000000000000000000000000000000000000000000000000000000000000000000000000000000000000000000000000000000000000000000000000000000800000000000000000000000000",
      "type": "0x2",
      "transactionHash": "0x1c6084b9d02da309539292d97f29eed7efce49926fc614029071d85a7014befa",
      "transactionIndex": "0x9",
      "blockHash": "0x133fd0cf0fa54d5cda918a400329250dac08919878d8f5412af67fecfde498b6",
      "blockNumber": "0x176b71ef",
      "gasUsed": "0xd377",
      "effectiveGasPrice": "0x16550a8",
      "from": "0xee03621ce83bbf6e3931bccf35b144354f16ccf7",
      "to": "0x7fb63d9faf99a34bca04efd5ba7f75dc6db37f4d",
      "contractAddress": null,
      "gasUsedForL1": "0x217",
      "l1BlockNumber": "0x168d5ca",
      "timeboosted": false
    },
    {
      "status": "0x1",
      "cumulativeGasUsed": "0x76edaf",
      "logs": [
        {
          "address": "0x7fb63d9faf99a34bca04efd5ba7f75dc6db37f4d",
          "topics": [
            "0x033b55419a2dba027908fbe5a221c7df98500387bfc5bef4cbfb1e276264d205"
          ],
          "data": "0x0000000000000000000000008d55c23664b46212bc6dc03d03e237988c0d36460000000000000000000000000000000000000000000000000000000000000001",
          "blockHash": "0xf6cccad1f2f310d4c1f6eb18bbce219c6cfc3b4571ac9d2669334ffd5f434094",
          "blockNumber": "0x176b71f5",
          "transactionHash": "0xf40b6a6142c748c3a7c468472773774d045dd7e7d0e8abe7be7aaa90ef964b79",
          "transactionIndex": "0x41",
          "logIndex": "0x66",
          "removed": false
        }
      ],
      "logsBloom": "0x00000000000000000000000000000000000000000000000000000000000000000000000000000000000000000000000000000000000000000000000000000000000000000000000000000000000000000000000000000000040000200000020000000000000000000000000000000000000000000000000000000000000000000000000000080000000000000000000000000000000000000000000000000000100000000000000000000000000000000000000000000000000000000000000000000000000000000000000000000000000000000000000000000000000000000000000000000000000000000000000000000800000000000000000000000000",
      "type": "0x2",
      "transactionHash": "0xf40b6a6142c748c3a7c468472773774d045dd7e7d0e8abe7be7aaa90ef964b79",
      "transactionIndex": "0x41",
      "blockHash": "0xf6cccad1f2f310d4c1f6eb18bbce219c6cfc3b4571ac9d2669334ffd5f434094",
      "blockNumber": "0x176b71f5",
      "gasUsed": "0xd387",
      "effectiveGasPrice": "0x162eb60",
      "from": "0xee03621ce83bbf6e3931bccf35b144354f16ccf7",
      "to": "0x7fb63d9faf99a34bca04efd5ba7f75dc6db37f4d",
      "contractAddress": null,
      "gasUsedForL1": "0x21b",
      "l1BlockNumber": "0x168d5ca",
      "timeboosted": false
    },
    {
      "status": "0x1",
      "cumulativeGasUsed": "0x3058ee",
      "logs": [
        {
          "address": "0x7fb63d9faf99a34bca04efd5ba7f75dc6db37f4d",
          "topics": [
            "0x033b55419a2dba027908fbe5a221c7df98500387bfc5bef4cbfb1e276264d205"
          ],
          "data": "0x00000000000000000000000043db7ff630c993f080f315007961756f2b96fa450000000000000000000000000000000000000000000000000000000000000001",
          "blockHash": "0x6b51b02adfd3ad1370ae82ad5d38c231a87a89de17f2ba1f7f329d9721c3e8b0",
          "blockNumber": "0x176b71fb",
          "transactionHash": "0x1cb0eec715f07087cdb0931c7aa17d401b8a2bf621a61d3cc4797ac1aeb4546c",
          "transactionIndex": "0x5",
          "logIndex": "0x38",
          "removed": false
        }
      ],
      "logsBloom": "0x00000000000000000000000000000000000000000000000000000000000000000000000000000000000000000000000000000000000000000000000000000000000000000000000000000000000000000000000000000000040000200000020000000000000000000000000000000000000000000000000000000000000000000000000000080000000000000000000000000000000000000000000000000000100000000000000000000000000000000000000000000000000000000000000000000000000000000000000000000000000000000000000000000000000000000000000000000000000000000000000000000800000000000000000000000000",
      "type": "0x2",
      "transactionHash": "0x1cb0eec715f07087cdb0931c7aa17d401b8a2bf621a61d3cc4797ac1aeb4546c",
      "transactionIndex": "0x5",
      "blockHash": "0x6b51b02adfd3ad1370ae82ad5d38c231a87a89de17f2ba1f7f329d9721c3e8b0",
      "blockNumber": "0x176b71fb",
      "gasUsed": "0xd375",
      "effectiveGasPrice": "0x16698c8",
      "from": "0xee03621ce83bbf6e3931bccf35b144354f16ccf7",
      "to": "0x7fb63d9faf99a34bca04efd5ba7f75dc6db37f4d",
      "contractAddress": null,
      "L1BlockNumber": "0x168d5ca",
      "gasUsedForL1": "0x215",
      "timeboosted": false
    },
    {
      "status": "0x1",
      "cumulativeGasUsed": "0x1ef76",
      "logs": [
        {
          "address": "0x7fb63d9faf99a34bca04efd5ba7f75dc6db37f4d",
          "topics": [
            "0x033b55419a2dba027908fbe5a221c7df98500387bfc5bef4cbfb1e276264d205"
          ],
          "data": "0x0000000000000000000000002f7c95d1848cb0a5e36de0d4db04c4afe09053dd0000000000000000000000000000000000000000000000000000000000000001",
          "blockHash": "0x93027fec50da081b90f31542e14c79f6ea5cbb10480a8e9d3f09e1939175e516",
          "blockNumber": "0x176b7201",
          "transactionHash": "0xe6d369a85d0e2ddca77d9965b448f0724a275d952a558ee289692d33162924a0",
          "transactionIndex": "0x3",
          "logIndex": "0x0",
          "removed": false
        }
      ],
      "logsBloom": "0x00000000000000000000000000000000000000000000000000000000000000000000000000000000000000000000000000000000000000000000000000000000000000000000000000000000000000000000000000000000040000200000020000000000000000000000000000000000000000000000000000000000000000000000000000080000000000000000000000000000000000000000000000000000100000000000000000000000000000000000000000000000000000000000000000000000000000000000000000000000000000000000000000000000000000000000000000000000000000000000000000000800000000000000000000000000",
      "type": "0x2",
      "transactionHash": "0xe6d369a85d0e2ddca77d9965b448f0724a275d952a558ee289692d33162924a0",
      "transactionIndex": "0x3",
      "blockHash": "0x93027fec50da081b90f31542e14c79f6ea5cbb10480a8e9d3f09e1939175e516",
      "blockNumber": "0x176b7201",
      "gasUsed": "0xd382",
      "effectiveGasPrice": "0x165ece8",
      "from": "0xee03621ce83bbf6e3931bccf35b144354f16ccf7",
      "to": "0x7fb63d9faf99a34bca04efd5ba7f75dc6db37f4d",
      "contractAddress": null,
      "gasUsedForL1": "0x216",
      "l1BlockNumber": "0x168d5ca",
      "timeboosted": false
    },
    {
      "status": "0x1",
      "cumulativeGasUsed": "0xd388",
      "logs": [
        {
          "address": "0x7fb63d9faf99a34bca04efd5ba7f75dc6db37f4d",
          "topics": [
            "0x033b55419a2dba027908fbe5a221c7df98500387bfc5bef4cbfb1e276264d205"
          ],
          "data": "0x000000000000000000000000618942af15f2fe6f451bee0e094d46df39822e740000000000000000000000000000000000000000000000000000000000000001",
          "blockHash": "0x88a1049a2a4333bde6c5da4a31b4c6aeffb4ee84626db80c3832348c6b0155b3",
          "blockNumber": "0x176b7207",
          "transactionHash": "0x3c653d267e7e4e8b1e41b5e9900e7c9eed924732467a93b7c5ec4580d83ba852",
          "transactionIndex": "0x1",
          "logIndex": "0x0",
          "removed": false
        }
      ],
      "logsBloom": "0x00000000000000000000000000000000000000000000000000000000000000000000000000000000000000000000000000000000000000000000000000000000000000000000000000000000000000000000000000000000040000200000020000000000000000000000000000000000000000000000000000000000000000000000000000080000000000000000000000000000000000000000000000000000100000000000000000000000000000000000000000000000000000000000000000000000000000000000000000000000000000000000000000000000000000000000000000000000000000000000000000000800000000000000000000000000",
      "type": "0x2",
      "transactionHash": "0x3c653d267e7e4e8b1e41b5e9900e7c9eed924732467a93b7c5ec4580d83ba852",
      "transactionIndex": "0x1",
      "blockHash": "0x88a1049a2a4333bde6c5da4a31b4c6aeffb4ee84626db80c3832348c6b0155b3",
      "blockNumber": "0x176b7207",
      "gasUsed": "0xd388",
      "effectiveGasPrice": "0x16262a8",
      "from": "0xee03621ce83bbf6e3931bccf35b144354f16ccf7",
      "to": "0x7fb63d9faf99a34bca04efd5ba7f75dc6db37f4d",
      "contractAddress": null,
      "gasUsedForL1": "0x21c",
      "l1BlockNumber": "0x168d5ca",
      "timeboosted": false
    },
    {
      "status": "0x1",
      "cumulativeGasUsed": "0x33e7fe",
      "logs": [
        {
          "address": "0x7fb63d9faf99a34bca04efd5ba7f75dc6db37f4d",
          "topics": [
            "0x033b55419a2dba027908fbe5a221c7df98500387bfc5bef4cbfb1e276264d205"
          ],
          "data": "0x000000000000000000000000bf374ffdde61ebf4e19dc0320bd2ded9de447eb40000000000000000000000000000000000000000000000000000000000000001",
          "blockHash": "0x4935c14cd89ccf764b54b6bcc5613dc9e1b6f14529952c1975f26940211e1e49",
          "blockNumber": "0x176b720c",
          "transactionHash": "0xb37e56103a38be3958a72e197de5d31b44bd7e4f68e8e7d2d47bdf43be01e9dc",
          "transactionIndex": "0x4",
          "logIndex": "0x23",
          "removed": false
        }
      ],
      "logsBloom": "0x00000000000000000000000000000000000000000000000000000000000000000000000000000000000000000000000000000000000000000000000000000000000000000000000000000000000000000000000000000000040000200000020000000000000000000000000000000000000000000000000000000000000000000000000000080000000000000000000000000000000000000000000000000000100000000000000000000000000000000000000000000000000000000000000000000000000000000000000000000000000000000000000000000000000000000000000000000000000000000000000000000800000000000000000000000000",
      "type": "0x2",
      "transactionHash": "0xb37e56103a38be3958a72e197de5d31b44bd7e4f68e8e7d2d47bdf43be01e9dc",
      "transactionIndex": "0x4",
      "blockHash": "0x4935c14cd89ccf764b54b6bcc5613dc9e1b6f14529952c1975f26940211e1e49",
      "blockNumber": "0x176b720c",
      "gasUsed": "0xd38b",
      "effectiveGasPrice": "0x1600d00",
      "from": "0xee03621ce83bbf6e3931bccf35b144354f16ccf7",
      "to": "0x7fb63d9faf99a34bca04efd5ba7f75dc6db37f4d",
      "contractAddress": null,
      "gasUsedForL1": "0x21f",
      "l1BlockNumber": "0x168d5ca",
      "timeboosted": false
    },
    {
      "status": "0x1",
      "cumulativeGasUsed": "0x311d1",
      "logs": [
        {
          "address": "0x7fb63d9faf99a34bca04efd5ba7f75dc6db37f4d",
          "topics": [
            "0x033b55419a2dba027908fbe5a221c7df98500387bfc5bef4cbfb1e276264d205"
          ],
          "data": "0x00000000000000000000000088d873c00658874996e07e98e84ff89c3aa314c10000000000000000000000000000000000000000000000000000000000000001",
          "blockHash": "0x58e89b50bcb4bab2681d89a3d6b9d8c18ab7e88432ee71d3ff2d9c4b956421ee",
          "blockNumber": "0x176b7212",
          "transactionHash": "0x9c06b929f1a5bb2f9da4e4106170f7d064b184840dd5c5758f9b166fb2728da6",
          "transactionIndex": "0x3",
          "logIndex": "0x3",
          "removed": false
        }
      ],
      "logsBloom": "0x00000000000000000000000000000000000000000000000000000000000000000000000000000000000000000000000000000000000000000000000000000000000000000000000000000000000000000000000000000000040000200000020000000000000000000000000000000000000000000000000000000000000000000000000000080000000000000000000000000000000000000000000000000000100000000000000000000000000000000000000000000000000000000000000000000000000000000000000000000000000000000000000000000000000000000000000000000000000000000000000000000800000000000000000000000000",
      "type": "0x2",
      "transactionHash": "0x9c06b929f1a5bb2f9da4e4106170f7d064b184840dd5c5758f9b166fb2728da6",
      "transactionIndex": "0x3",
      "blockHash": "0x58e89b50bcb4bab2681d89a3d6b9d8c18ab7e88432ee71d3ff2d9c4b956421ee",
      "blockNumber": "0x176b7212",
      "gasUsed": "0xd390",
      "effectiveGasPrice": "0x15d4610",
      "from": "0xee03621ce83bbf6e3931bccf35b144354f16ccf7",
      "to": "0x7fb63d9faf99a34bca04efd5ba7f75dc6db37f4d",
      "contractAddress": null,
      "L1BlockNumber": "0x168d5cb",
      "gasUsedForL1": "0x224",
      "timeboosted": false
    },
    {
      "status": "0x1",
      "cumulativeGasUsed": "0x6218f",
      "logs": [
        {
          "address": "0x7fb63d9faf99a34bca04efd5ba7f75dc6db37f4d",
          "topics": [
            "0x033b55419a2dba027908fbe5a221c7df98500387bfc5bef4cbfb1e276264d205"
          ],
          "data": "0x0000000000000000000000007e588b76807b0adf014c4cea3d9df28d4c5e7c800000000000000000000000000000000000000000000000000000000000000001",
          "blockHash": "0x7485ae7b46a2a2fc5660937f0f98a4d18e1c62abc6366f7431299acff1474796",
          "blockNumber": "0x176b7218",
          "transactionHash": "0x7af5ade8a37922d61ad8e233d1b7d231955667269d3fd03d7220815b81ef59a3",
          "transactionIndex": "0x5",
          "logIndex": "0x6",
          "removed": false
        }
      ],
      "logsBloom": "0x00000000000000000000000000000000000000000000000000000000000000000000000000000000000000000000000000000000000000000000000000000000000000000000000000000000000000000000000000000000040000200000020000000000000000000000000000000000000000000000000000000000000000000000000000080000000000000000000000000000000000000000000000000000100000000000000000000000000000000000000000000000000000000000000000000000000000000000000000000000000000000000000000000000000000000000000000000000000000000000000000000800000000000000000000000000",
      "type": "0x2",
      "transactionHash": "0x7af5ade8a37922d61ad8e233d1b7d231955667269d3fd03d7220815b81ef59a3",
      "transactionIndex": "0x5",
      "blockHash": "0x7485ae7b46a2a2fc5660937f0f98a4d18e1c62abc6366f7431299acff1474796",
      "blockNumber": "0x176b7218",
      "gasUsed": "0xd390",
      "effectiveGasPrice": "0x15cf408",
      "from": "0xee03621ce83bbf6e3931bccf35b144354f16ccf7",
      "to": "0x7fb63d9faf99a34bca04efd5ba7f75dc6db37f4d",
      "contractAddress": null,
      "gasUsedForL1": "0x224",
      "l1BlockNumber": "0x168d5cb",
      "timeboosted": false
    },
    {
      "status": "0x1",
      "cumulativeGasUsed": "0x28bc6",
      "logs": [
        {
          "address": "0x7fb63d9faf99a34bca04efd5ba7f75dc6db37f4d",
          "topics": [
            "0x033b55419a2dba027908fbe5a221c7df98500387bfc5bef4cbfb1e276264d205"
          ],
          "data": "0x000000000000000000000000c75de9a3c001f6e5f45fb44a11fa7d92e82bac0e0000000000000000000000000000000000000000000000000000000000000001",
          "blockHash": "0x92064d7ede78a4a0adc4587add316a11899a6fed2a6dd2a48c4b69a3d328f69c",
          "blockNumber": "0x176b721e",
          "transactionHash": "0xd368a1c25cb5031d26acecf73e76216a4f669ef5b43e3929b814e44bfd4a913e",
          "transactionIndex": "0x4",
          "logIndex": "0x0",
          "removed": false
        }
      ],
      "logsBloom": "0x00000000000000000000000000000000000000000000000000000000000000000000000000000000000000000000000000000000000000000000000000000000000000000000000000000000000000000000000000000000040000200000020000000000000000000000000000000000000000000000000000000000000000000000000000080000000000000000000000000000000000000000000000000000100000000000000000000000000000000000000000000000000000000000000000000000000000000000000000000000000000000000000000000000000000000000000000000000000000000000000000000800000000000000000000000000",
      "type": "0x2",
      "transactionHash": "0xd368a1c25cb5031d26acecf73e76216a4f669ef5b43e3929b814e44bfd4a913e",
      "transactionIndex": "0x4",
      "blockHash": "0x92064d7ede78a4a0adc4587add316a11899a6fed2a6dd2a48c4b69a3d328f69c",
      "blockNumber": "0x176b721e",
      "gasUsed": "0xd394",
      "effectiveGasPrice": "0x15a8308",
      "from": "0xee03621ce83bbf6e3931bccf35b144354f16ccf7",
      "to": "0x7fb63d9faf99a34bca04efd5ba7f75dc6db37f4d",
      "contractAddress": null,
      "gasUsedForL1": "0x228",
      "l1BlockNumber": "0x168d5cb",
      "timeboosted": false
    },
    {
      "status": "0x1",
      "cumulativeGasUsed": "0x282ac",
      "logs": [
        {
          "address": "0x7fb63d9faf99a34bca04efd5ba7f75dc6db37f4d",
          "topics": [
            "0x033b55419a2dba027908fbe5a221c7df98500387bfc5bef4cbfb1e276264d205"
          ],
          "data": "0x000000000000000000000000479702c416cbbd2d95f0c5408a961f9870e6eea50000000000000000000000000000000000000000000000000000000000000001",
          "blockHash": "0xf364c339df431fee8da58520ed4cf19cb4b4f1fb342a505497c30365a20c9f1e",
          "blockNumber": "0x176b7226",
          "transactionHash": "0x061b6ae37addbd8a1317df472a6efcf5f8812e8facda69572dd09b828e7e6c1c",
          "transactionIndex": "0x4",
          "logIndex": "0x0",
          "removed": false
        }
      ],
      "logsBloom": "0x00000000000000000000000000000000000000000000000000000000000000000000000000000000000000000000000000000000000000000000000000000000000000000000000000000000000000000000000000000000040000200000020000000000000000000000000000000000000000000000000000000000000000000000000000080000000000000000000000000000000000000000000000000000100000000000000000000000000000000000000000000000000000000000000000000000000000000000000000000000000000000000000000000000000000000000000000000000000000000000000000000800000000000000000000000000",
      "type": "0x2",
      "transactionHash": "0x061b6ae37addbd8a1317df472a6efcf5f8812e8facda69572dd09b828e7e6c1c",
      "transactionIndex": "0x4",
      "blockHash": "0xf364c339df431fee8da58520ed4cf19cb4b4f1fb342a505497c30365a20c9f1e",
      "blockNumber": "0x176b7226",
      "gasUsed": "0xd37d",
      "effectiveGasPrice": "0x1695fb8",
      "from": "0xee03621ce83bbf6e3931bccf35b144354f16ccf7",
      "to": "0x7fb63d9faf99a34bca04efd5ba7f75dc6db37f4d",
      "contractAddress": null,
      "gasUsedForL1": "0x211",
      "l1BlockNumber": "0x168d5cb",
      "timeboosted": false
    },
    {
      "status": "0x1",
      "cumulativeGasUsed": "0x2ca87",
      "logs": [
        {
          "address": "0x7fb63d9faf99a34bca04efd5ba7f75dc6db37f4d",
          "topics": [
            "0x033b55419a2dba027908fbe5a221c7df98500387bfc5bef4cbfb1e276264d205"
          ],
          "data": "0x0000000000000000000000007f7e97a31409ca29f1878e0d1b7068160834739b0000000000000000000000000000000000000000000000000000000000000001",
          "blockHash": "0x25aa73f1956665772d7ec33f0683aed76ecb3422242432bd16fa2b879f4d1b1e",
          "blockNumber": "0x176b722d",
          "transactionHash": "0x54291d4f22d268da75349139a9d56e0b9ec825017c4ed004fd08e423b753a072",
          "transactionIndex": "0x4",
          "logIndex": "0x1",
          "removed": false
        }
      ],
      "logsBloom": "0x00000000000000000000000000000000000000000000000000000000000000000000000000000000000000000000000000000000000000000000000000000000000000000000000000000000000000000000000000000000040000200000020000000000000000000000000000000000000000000000000000000000000000000000000000080000000000000000000000000000000000000000000000000000100000000000000000000000000000000000000000000000000000000000000000000000000000000000000000000000000000000000000000000000000000000000000000000000000000000000000000000800000000000000000000000000",
      "type": "0x2",
      "transactionHash": "0x54291d4f22d268da75349139a9d56e0b9ec825017c4ed004fd08e423b753a072",
      "transactionIndex": "0x4",
      "blockHash": "0x25aa73f1956665772d7ec33f0683aed76ecb3422242432bd16fa2b879f4d1b1e",
      "blockNumber": "0x176b722d",
      "gasUsed": "0xd378",
      "effectiveGasPrice": "0x16d14f0",
      "from": "0xee03621ce83bbf6e3931bccf35b144354f16ccf7",
      "to": "0x7fb63d9faf99a34bca04efd5ba7f75dc6db37f4d",
      "contractAddress": null,
      "L1BlockNumber": "0x168d5cb",
      "gasUsedForL1": "0x20c",
      "timeboosted": false
    },
    {
      "status": "0x1",
      "cumulativeGasUsed": "0x4fdf7a",
      "logs": [
        {
          "address": "0x7fb63d9faf99a34bca04efd5ba7f75dc6db37f4d",
          "topics": [
            "0x033b55419a2dba027908fbe5a221c7df98500387bfc5bef4cbfb1e276264d205"
          ],
          "data": "0x000000000000000000000000e8484f0442707c3daec850be6e05a128100a00cd0000000000000000000000000000000000000000000000000000000000000001",
          "blockHash": "0x18d2caa6bfa30601ebb09dc4f1fefbaa97b6b538688d007349d328f36bb1b4e3",
          "blockNumber": "0x176b7232",
          "transactionHash": "0x06b4e414b1bec60a0c73c2d00657276e9071089c053b59dcec622d3b92f2d93f",
          "transactionIndex": "0xf",
          "logIndex": "0x50",
          "removed": false
        }
      ],
      "logsBloom": "0x00000000000000000000000000000000000000000000000000000000000000000000000000000000000000000000000000000000000000000000000000000000000000000000000000000000000000000000000000000000040000200000020000000000000000000000000000000000000000000000000000000000000000000000000000080000000000000000000000000000000000000000000000000000100000000000000000000000000000000000000000000000000000000000000000000000000000000000000000000000000000000000000000000000000000000000000000000000000000000000000000000800000000000000000000000000",
      "type": "0x2",
      "transactionHash": "0x06b4e414b1bec60a0c73c2d00657276e9071089c053b59dcec622d3b92f2d93f",
      "transactionIndex": "0xf",
      "blockHash": "0x18d2caa6bfa30601ebb09dc4f1fefbaa97b6b538688d007349d328f36bb1b4e3",
      "blockNumber": "0x176b7232",
      "gasUsed": "0xd371",
      "effectiveGasPrice": "0x1699668",
      "from": "0xee03621ce83bbf6e3931bccf35b144354f16ccf7",
      "to": "0x7fb63d9faf99a34bca04efd5ba7f75dc6db37f4d",
      "contractAddress": null,
      "gasUsedForL1": "0x211",
      "l1BlockNumber": "0x168d5cb",
      "timeboosted": false
    },
    {
      "status": "0x1",
      "cumulativeGasUsed": "0x8cf39",
      "logs": [
        {
          "address": "0x7fb63d9faf99a34bca04efd5ba7f75dc6db37f4d",
          "topics": [
            "0x033b55419a2dba027908fbe5a221c7df98500387bfc5bef4cbfb1e276264d205"
          ],
          "data": "0x000000000000000000000000c6466031bd2cd675d3fb7c7fad17eaf4a8403fe70000000000000000000000000000000000000000000000000000000000000001",
          "blockHash": "0x5a2256c8ac221fa79df8a4b8882114fa5718de77deee2fa401494fd6e728f6bc",
          "blockNumber": "0x176b7239",
          "transactionHash": "0xcfeb989cb0532a213b3dfb24b410637f2ab06191d5d9e393900613bc1686e502",
          "transactionIndex": "0x9",
          "logIndex": "0x7",
          "removed": false
        }
      ],
      "logsBloom": "0x00000000000000000000000000000000000000000000000000000000000000000000000000000000000000000000000000000000000000000000000000000000000000000000000000000000000000000000000000000000040000200000020000000000000000000000000000000000000000000000000000000000000000000000000000080000000000000000000000000000000000000000000000000000100000000000000000000000000000000000000000000000000000000000000000000000000000000000000000000000000000000000000000000000000000000000000000000000000000000000000000000800000000000000000000000000",
      "type": "0x2",
      "transactionHash": "0xcfeb989cb0532a213b3dfb24b410637f2ab06191d5d9e393900613bc1686e502",
      "transactionIndex": "0x9",
      "blockHash": "0x5a2256c8ac221fa79df8a4b8882114fa5718de77deee2fa401494fd6e728f6bc",
      "blockNumber": "0x176b7239",
      "gasUsed": "0xd378",
      "effectiveGasPrice": "0x16cf998",
      "from": "0xee03621ce83bbf6e3931bccf35b144354f16ccf7",
      "to": "0x7fb63d9faf99a34bca04efd5ba7f75dc6db37f4d",
      "contractAddress": null,
      "gasUsedForL1": "0x20c",
      "l1BlockNumber": "0x168d5cb",
      "timeboosted": false
    }
  ],
  "libraries": [],
  "pending": [],
  "returns": {},
  "timestamp": 1761313330857,
  "chain": 42161,
  "commit": "23fba6a"
}