{
  "transactions": [
    {
      "hash": "0x72e6432d6f2bd72c72b6088866c914b19638c6c2f9df2c75f2fbf2572319d709",
      "transactionType": "CALL",
      "contractName": null,
      "contractAddress": "0x8da2f4663d02dbf598d90f5172347aecf119b463",
      "function": "setEnforcedOptions((uint32,uint16,bytes)[])",
      "arguments": [
        "[(0, 1, 0x000301001101000000000000000000000000000493e0), (0, 1, 0x000301001101000000000000000000000000000493e0)]"
      ],
      "transaction": {
        "from": "0xee03621ce83bbf6e3931bccf35b144354f16ccf7",
        "to": "0x8da2f4663d02dbf598d90f5172347aecf119b463",
        "gas": "0x13e1a",
        "value": "0x0",
        "input": "0xb98bd07000000000000000000000000000000000000000000000000000000000000000200000000000000000000000000000000000000000000000000000000000000002000000000000000000000000000000000000000000000000000000000000004000000000000000000000000000000000000000000000000000000000000000e00000000000000000000000000000000000000000000000000000000000000000000000000000000000000000000000000000000000000000000000000000000100000000000000000000000000000000000000000000000000000000000000600000000000000000000000000000000000000000000000000000000000000016000301001101000000000000000000000000000493e0000000000000000000000000000000000000000000000000000000000000000000000000000000000000000000000000000000000000000000000000000000000000000000000000000100000000000000000000000000000000000000000000000000000000000000600000000000000000000000000000000000000000000000000000000000000016000301001101000000000000000000000000000493e000000000000000000000",
        "nonce": "0x52",
        "chainId": "0xa4b1"
      },
      "additionalContracts": [],
      "isFixedGasLimit": false
    }
  ],
  "receipts": [
    {
      "status": "0x1",
      "cumulativeGasUsed": "0x2dab4",
      "logs": [
        {
          "address": "0x8da2f4663d02dbf598d90f5172347aecf119b463",
          "topics": [
            "0xbe4864a8e820971c0247f5992e2da559595f7bf076a21cb5928d443d2a13b674"
          ],
          "data": "0x00000000000000000000000000000000000000000000000000000000000000200000000000000000000000000000000000000000000000000000000000000002000000000000000000000000000000000000000000000000000000000000004000000000000000000000000000000000000000000000000000000000000000e00000000000000000000000000000000000000000000000000000000000000000000000000000000000000000000000000000000000000000000000000000000100000000000000000000000000000000000000000000000000000000000000600000000000000000000000000000000000000000000000000000000000000016000301001101000000000000000000000000000493e0000000000000000000000000000000000000000000000000000000000000000000000000000000000000000000000000000000000000000000000000000000000000000000000000000100000000000000000000000000000000000000000000000000000000000000600000000000000000000000000000000000000000000000000000000000000016000301001101000000000000000000000000000493e000000000000000000000",
          "blockHash": "0xb2994ea839defb59f644ef6b4b670bf9fe808fd20b4e7bab2f0ea7f53d28537b",
          "blockNumber": "0x17519fe6",
          "transactionHash": "0x72e6432d6f2bd72c72b6088866c914b19638c6c2f9df2c75f2fbf2572319d709",
          "transactionIndex": "0x2",
          "logIndex": "0x3",
          "removed": false
        }
      ],
      "logsBloom": "0x00000000000000000000000000000000000000000000000000000000000000000000000000000000000000001000000000000000000000000000400000000000000000000000000000000000000000000000000000000000000000010000000000000000000000000000000000000000000000000000000000000000000000000000000000000000000000000000000000000000000000000000000000080000000000000000000000000000000000000000000000000000000000000000000000000000000000000000000002000000000000000004000000000000000000000000000000000000000000000000000000000000000000000000000000000000",
      "type": "0x2",
      "transactionHash": "0x72e6432d6f2bd72c72b6088866c914b19638c6c2f9df2c75f2fbf2572319d709",
      "transactionIndex": "0x2",
      "blockHash": "0xb2994ea839defb59f644ef6b4b670bf9fe808fd20b4e7bab2f0ea7f53d28537b",
      "blockNumber": "0x17519fe6",
      "gasUsed": "0xf07c",
      "effectiveGasPrice": "0x989680",
      "from": "0xee03621ce83bbf6e3931bccf35b144354f16ccf7",
      "to": "0x8da2f4663d02dbf598d90f5172347aecf119b463",
      "contractAddress": null,
      "gasUsedForL1": "0x3ae",
      "l1BlockNumber": "0x1684d7d",
      "timeboosted": false
    }
  ],
  "libraries": [],
  "pending": [],
  "returns": {},
  "timestamp": 1760890420623,
  "chain": 42161,
  "commit": "aaddbdd"
}