{
  "transactions": [
    {
      "hash": "0x92fc666660ebc781f7c2aebbdaae38e70b005a6782971dbaac42f82fd1ebb21d",
      "transactionType": "CALL",
      "contractName": null,
      "contractAddress": "0xc0473bd9e466a7e564b9f1a0065f1efa41966d54",
      "function": "setTokenPriceFeed(address,address)",
      "arguments": [
        "0xC23e60Ac84240ffCe72680652515dfb1435C356b",
        "0x50834F3163758fcC1Df9973b6e91f0F0F0434aD3"
      ],
      "transaction": {
        "from": "0xee03621ce83bbf6e3931bccf35b144354f16ccf7",
        "to": "0xc0473bd9e466a7e564b9f1a0065f1efa41966d54",
        "gas": "0xaf23",
        "value": "0x0",
        "input": "0x674417ae000000000000000000000000c23e60ac84240ffce72680652515dfb1435c356b00000000000000000000000050834f3163758fcc1df9973b6e91f0f0f0434ad3",
        "nonce": "0xa0",
        "chainId": "0xa4b1"
      },
      "additionalContracts": [],
      "isFixedGasLimit": false
    },
    {
      "hash": "0xd09e4d11efa33f7591d5d9237783b881bfdbf8da53ab523ce4ff8f623b5fd6a5",
      "transactionType": "CALL",
      "contractName": null,
      "contractAddress": "0xc0473bd9e466a7e564b9f1a0065f1efa41966d54",
      "function": "setTokenPriceFeed(address,address)",
      "arguments": [
        "0x338802B73DA88D05e1b3A0203092AD43807049Be",
        "0x639Fe6ab55C921f74e7fac1ee960C0B6293ba612"
      ],
      "transaction": {
        "from": "0xee03621ce83bbf6e3931bccf35b144354f16ccf7",
        "to": "0xc0473bd9e466a7e564b9f1a0065f1efa41966d54",
        "gas": "0xaf23",
        "value": "0x0",
        "input": "0x674417ae000000000000000000000000338802b73da88d05e1b3a0203092ad43807049be000000000000000000000000639fe6ab55c921f74e7fac1ee960c0b6293ba612",
        "nonce": "0xa1",
        "chainId": "0xa4b1"
      },
      "additionalContracts": [],
      "isFixedGasLimit": false
    },
    {
      "hash": "0xe08abf42bb1f4db221e54420c17b467913d05c79131da6a64cd93c818a0042fe",
      "transactionType": "CALL",
      "contractName": null,
      "contractAddress": "0xc0473bd9e466a7e564b9f1a0065f1efa41966d54",
      "function": "setTokenPriceFeed(address,address)",
      "arguments": [
        "0x99d19F4Cb938E0aAD646358c20cB9D0CE0A7a945",
        "0x2b4c8a6171eff27905A8490E4cdB711bc0AC77cb"
      ],
      "transaction": {
        "from": "0xee03621ce83bbf6e3931bccf35b144354f16ccf7",
        "to": "0xc0473bd9e466a7e564b9f1a0065f1efa41966d54",
        "gas": "0x11498",
        "value": "0x0",
        "input": "0x674417ae00000000000000000000000099d19f4cb938e0aad646358c20cb9d0ce0a7a9450000000000000000000000002b4c8a6171eff27905a8490e4cdb711bc0ac77cb",
        "nonce": "0xa2",
        "chainId": "0xa4b1"
      },
      "additionalContracts": [],
      "isFixedGasLimit": false
    },
    {
      "hash": "0x067ba79dda2d43bed9f5cdd4ed36cf8d0215c6c0e7ca553a40c6f6901c1dfe38",
      "transactionType": "CALL",
      "contractName": null,
      "contractAddress": "0xc0473bd9e466a7e564b9f1a0065f1efa41966d54",
      "function": "setTokenPriceFeed(address,address)",
      "arguments": [
        "0xA0F8C84E78eabDF241A9fA9Ff6733AB17bB4E7FA",
        "0x93c1b89D8F71E4688dEBDb688347A04eD91cfddd"
      ],
      "transaction": {
        "from": "0xee03621ce83bbf6e3931bccf35b144354f16ccf7",
        "to": "0xc0473bd9e466a7e564b9f1a0065f1efa41966d54",
        "gas": "0x11498",
        "value": "0x0",
        "input": "0x674417ae000000000000000000000000a0f8c84e78eabdf241a9fa9ff6733ab17bb4e7fa00000000000000000000000093c1b89d8f71e4688debdb688347a04ed91cfddd",
        "nonce": "0xa3",
        "chainId": "0xa4b1"
      },
      "additionalContracts": [],
      "isFixedGasLimit": false
    },
    {
      "hash": "0xa04b52bc7a914d66c6c068610b68a5539a17e20c0a3671002ae8165edf168d34",
      "transactionType": "CALL",
      "contractName": null,
      "contractAddress": "0xc0473bd9e466a7e564b9f1a0065f1efa41966d54",
      "function": "setTokenPriceFeed(address,address)",
      "arguments": [
        "0x0B214413CAc3E0B8F356181d7339626FCafff6Bd",
        "0xb543ffEF66c25409eA63Dc07352960f06Ce564c7"
      ],
      "transaction": {
        "from": "0xee03621ce83bbf6e3931bccf35b144354f16ccf7",
        "to": "0xc0473bd9e466a7e564b9f1a0065f1efa41966d54",
        "gas": "0x11498",
        "value": "0x0",
        "input": "0x674417ae0000000000000000000000000b214413cac3e0b8f356181d7339626fcafff6bd000000000000000000000000b543ffef66c25409ea63dc07352960f06ce564c7",
        "nonce": "0xa4",
        "chainId": "0xa4b1"
      },
      "additionalContracts": [],
      "isFixedGasLimit": false
    },
    {
      "hash": "0xe6f54647de937f5a836dc2c2e478ac608709cf63ca174fe4335f5be8a4a4ced2",
      "transactionType": "CALL",
      "contractName": null,
      "contractAddress": "0xc0473bd9e466a7e564b9f1a0065f1efa41966d54",
      "function": "setTokenPriceFeed(address,address)",
      "arguments": [
        "0xa7f56bc3252c676E43Ff1F3e6780Dbbc7679D7a6",
        "0xf0B69ea67Ea6a8C7BE111B73f791ab25C386CaD3"
      ],
      "transaction": {
        "from": "0xee03621ce83bbf6e3931bccf35b144354f16ccf7",
        "to": "0xc0473bd9e466a7e564b9f1a0065f1efa41966d54",
        "gas": "0x11498",
        "value": "0x0",
        "input": "0x674417ae000000000000000000000000a7f56bc3252c676e43ff1f3e6780dbbc7679d7a6000000000000000000000000f0b69ea67ea6a8c7be111b73f791ab25c386cad3",
        "nonce": "0xa5",
        "chainId": "0xa4b1"
      },
      "additionalContracts": [],
      "isFixedGasLimit": false
    },
    {
      "hash": "0xc3bf107d9ab01339100d56670824ab649d89e33a94a768dd92a4337abfb38c25",
      "transactionType": "CALL",
      "contractName": null,
      "contractAddress": "0xc0473bd9e466a7e564b9f1a0065f1efa41966d54",
      "function": "setTokenPriceFeed(address,address)",
      "arguments": [
        "0x14954b6a207A4CC908f44354e61997070507fCC4",
        "0xC469d792421CD0eF585eab54EF93a6bF4623455E"
      ],
      "transaction": {
        "from": "0xee03621ce83bbf6e3931bccf35b144354f16ccf7",
        "to": "0xc0473bd9e466a7e564b9f1a0065f1efa41966d54",
        "gas": "0x11498",
        "value": "0x0",
        "input": "0x674417ae00000000000000000000000014954b6a207a4cc908f44354e61997070507fcc4000000000000000000000000c469d792421cd0ef585eab54ef93a6bf4623455e",
        "nonce": "0xa6",
        "chainId": "0xa4b1"
      },
      "additionalContracts": [],
      "isFixedGasLimit": false
    },
    {
      "hash": "0x37e96b82fb3afe92e151563eaecf070830950ab230f1d89024aabfc4d3f21cca",
      "transactionType": "CALL",
      "contractName": null,
      "contractAddress": "0xc0473bd9e466a7e564b9f1a0065f1efa41966d54",
      "function": "setTokenPriceFeed(address,address)",
      "arguments": [
        "0x1aA55163E448b100ac4541C69cf2b55C909A2bE9",
        "0xD0A899a8Fe186D0c3beBD8A45a41cfbC30931105"
      ],
      "transaction": {
        "from": "0xee03621ce83bbf6e3931bccf35b144354f16ccf7",
        "to": "0xc0473bd9e466a7e564b9f1a0065f1efa41966d54",
        "gas": "0x11488",
        "value": "0x0",
        "input": "0x674417ae0000000000000000000000001aa55163e448b100ac4541c69cf2b55c909a2be9000000000000000000000000d0a899a8fe186d0c3bebd8a45a41cfbc30931105",
        "nonce": "0xa7",
        "chainId": "0xa4b1"
      },
      "additionalContracts": [],
      "isFixedGasLimit": false
    },
    {
      "hash": "0x3bf104acb7f62c7c37991ea13e9b82a46913d0fc811c689b3df037f7fbaa1ac0",
      "transactionType": "CALL",
      "contractName": null,
      "contractAddress": "0xc0473bd9e466a7e564b9f1a0065f1efa41966d54",
      "function": "setTokenPriceFeed(address,address)",
      "arguments": [
        "0x623Cf9E33F269Fd459467E98a5e12Db4C2FBCAe0",
        "0xaaeF30A81c653520Ca5F43dea55b2d1E884946c0"
      ],
      "transaction": {
        "from": "0xee03621ce83bbf6e3931bccf35b144354f16ccf7",
        "to": "0xc0473bd9e466a7e564b9f1a0065f1efa41966d54",
        "gas": "0x11498",
        "value": "0x0",
        "input": "0x674417ae000000000000000000000000623cf9e33f269fd459467e98a5e12db4c2fbcae0000000000000000000000000aaef30a81c653520ca5f43dea55b2d1e884946c0",
        "nonce": "0xa8",
        "chainId": "0xa4b1"
      },
      "additionalContracts": [],
      "isFixedGasLimit": false
    },
    {
      "hash": "0x93278d9cbc2627d531b198702f1de21b673f753eab01b1fc1d6c9d699db563e3",
      "transactionType": "CALL",
      "contractName": null,
      "contractAddress": "0xc0473bd9e466a7e564b9f1a0065f1efa41966d54",
      "function": "setTokenPriceFeed(address,address)",
      "arguments": [
        "0xB4626C50fb6A0019FEECD442310cd1F7395e2148",
        "0x15118b3d806b68aa5564A89f5f88C7DF9A8c6346"
      ],
      "transaction": {
        "from": "0xee03621ce83bbf6e3931bccf35b144354f16ccf7",
        "to": "0xc0473bd9e466a7e564b9f1a0065f1efa41966d54",
        "gas": "0x11488",
        "value": "0x0",
        "input": "0x674417ae000000000000000000000000b4626c50fb6a0019feecd442310cd1f7395e214800000000000000000000000015118b3d806b68aa5564a89f5f88c7df9a8c6346",
        "nonce": "0xa9",
        "chainId": "0xa4b1"
      },
      "additionalContracts": [],
      "isFixedGasLimit": false
    },
    {
      "hash": "0xe95054b7aa5990868019f5b226ec79ed92b6ea52653db7b24f6515b858f56a68",
      "transactionType": "CALL",
      "contractName": null,
      "contractAddress": "0xc0473bd9e466a7e564b9f1a0065f1efa41966d54",
      "function": "setTokenPriceFeed(address,address)",
      "arguments": [
        "0x8d55C23664B46212bC6dC03d03E237988c0d3646",
        "0xd50ee02F3BB2B4530C5FFB7df3284C9f2090b517"
      ],
      "transaction": {
        "from": "0xee03621ce83bbf6e3931bccf35b144354f16ccf7",
        "to": "0xc0473bd9e466a7e564b9f1a0065f1efa41966d54",
        "gas": "0x11498",
        "value": "0x0",
        "input": "0x674417ae0000000000000000000000008d55c23664b46212bc6dc03d03e237988c0d3646000000000000000000000000d50ee02f3bb2b4530c5ffb7df3284c9f2090b517",
        "nonce": "0xaa",
        "chainId": "0xa4b1"
      },
      "additionalContracts": [],
      "isFixedGasLimit": false
    }
  ],
  "receipts": [
    {
      "status": "0x1",
      "cumulativeGasUsed": "0xf6259",
      "logs": [
        {
          "address": "0xc0473bd9e466a7e564b9f1a0065f1efa41966d54",
          "topics": [
            "0x06450d77a493ade91a66792442980e4499d56e1565b15d80f0790f2a962a135d"
          ],
          "data": "0x000000000000000000000000c23e60ac84240ffce72680652515dfb1435c356b00000000000000000000000050834f3163758fcc1df9973b6e91f0f0f0434ad3",
          "blockHash": "0x746c2cb42ae9ec702fed1759e47c044e9fe4e6b2473eef211733ff4e7daaefc0",
          "blockNumber": "0x17567028",
          "transactionHash": "0x92fc666660ebc781f7c2aebbdaae38e70b005a6782971dbaac42f82fd1ebb21d",
          "transactionIndex": "0xd",
          "logIndex": "0x18",
          "removed": false
        }
      ],
      "logsBloom": "0x00000000000000000000000000000000000000000000000000200000000000000000400000000000000000000000000000000000002000000000000000000000000000000000000000000000000000000000000000000000000000000000000000000000000020000000000000000000000000000000000000000000000000000000000000000000000000000000000000000000000000000000000000000000000000000000000000000000000000000000000000000000000000000000000000000000800000000000000000000000000000000000000000000000000000000000000000000000000000000000000000000000000000000000000020000000",
      "type": "0x2",
      "transactionHash": "0x92fc666660ebc781f7c2aebbdaae38e70b005a6782971dbaac42f82fd1ebb21d",
      "transactionIndex": "0xd",
      "blockHash": "0x746c2cb42ae9ec702fed1759e47c044e9fe4e6b2473eef211733ff4e7daaefc0",
      "blockNumber": "0x17567028",
      "gasUsed": "0x7ff4",
      "effectiveGasPrice": "0x989680",
      "from": "0xee03621ce83bbf6e3931bccf35b144354f16ccf7",
      "to": "0xc0473bd9e466a7e564b9f1a0065f1efa41966d54",
      "contractAddress": null,
      "gasUsedForL1": "0xfc0",
      "l1BlockNumber": "0x16866f5",
      "timeboosted": false
    },
    {
      "status": "0x1",
      "cumulativeGasUsed": "0xa7bc9",
      "logs": [
        {
          "address": "0xc0473bd9e466a7e564b9f1a0065f1efa41966d54",
          "topics": [
            "0x06450d77a493ade91a66792442980e4499d56e1565b15d80f0790f2a962a135d"
          ],
          "data": "0x000000000000000000000000338802b73da88d05e1b3a0203092ad43807049be000000000000000000000000639fe6ab55c921f74e7fac1ee960c0b6293ba612",
          "blockHash": "0x98cf3e44083d56733c8d8a92e246f830916228a6a02423fee7a345c497e843fb",
          "blockNumber": "0x1756702f",
          "transactionHash": "0xd09e4d11efa33f7591d5d9237783b881bfdbf8da53ab523ce4ff8f623b5fd6a5",
          "transactionIndex": "0x8",
          "logIndex": "0xa",
          "removed": false
        }
      ],
      "logsBloom": "0x00000000000000000000000000000000000000000000000000200000000000000000400000000000000000000000000000000000002000000000000000000000000000000000000000000000000000000000000000000000000000000000000000000000000020000000000000000000000000000000000000000000000000000000000000000000000000000000000000000000000000000000000000000000000000000000000000000000000000000000000000000000000000000000000000000000800000000000000000000000000000000000000000000000000000000000000000000000000000000000000000000000000000000000000020000000",
      "type": "0x2",
      "transactionHash": "0xd09e4d11efa33f7591d5d9237783b881bfdbf8da53ab523ce4ff8f623b5fd6a5",
      "transactionIndex": "0x8",
      "blockHash": "0x98cf3e44083d56733c8d8a92e246f830916228a6a02423fee7a345c497e843fb",
      "blockNumber": "0x1756702f",
      "gasUsed": "0x7ff4",
      "effectiveGasPrice": "0x989680",
      "from": "0xee03621ce83bbf6e3931bccf35b144354f16ccf7",
      "to": "0xc0473bd9e466a7e564b9f1a0065f1efa41966d54",
      "contractAddress": null,
      "gasUsedForL1": "0xfc0",
      "l1BlockNumber": "0x16866f5",
      "timeboosted": false
    },
    {
      "status": "0x1",
      "cumulativeGasUsed": "0xeae06",
      "logs": [
        {
          "address": "0xc0473bd9e466a7e564b9f1a0065f1efa41966d54",
          "topics": [
            "0x06450d77a493ade91a66792442980e4499d56e1565b15d80f0790f2a962a135d"
          ],
          "data": "0x00000000000000000000000099d19f4cb938e0aad646358c20cb9d0ce0a7a9450000000000000000000000002b4c8a6171eff27905a8490e4cdb711bc0ac77cb",
          "blockHash": "0xa3fbd070c4fa2f7a377f6f5f7a3b7faec51d2eee159f936a98710d6c8757b244",
          "blockNumber": "0x17567035",
          "transactionHash": "0xe08abf42bb1f4db221e54420c17b467913d05c79131da6a64cd93c818a0042fe",
          "transactionIndex": "0xd",
          "logIndex": "0x12",
          "removed": false
        }
      ],
      "logsBloom": "0x00000000000000000000000000000000000000000000000000200000000000000000400000000000000000000000000000000000002000000000000000000000000000000000000000000000000000000000000000000000000000000000000000000000000020000000000000000000000000000000000000000000000000000000000000000000000000000000000000000000000000000000000000000000000000000000000000000000000000000000000000000000000000000000000000000000800000000000000000000000000000000000000000000000000000000000000000000000000000000000000000000000000000000000000020000000",
      "type": "0x2",
      "transactionHash": "0xe08abf42bb1f4db221e54420c17b467913d05c79131da6a64cd93c818a0042fe",
      "transactionIndex": "0xd",
      "blockHash": "0xa3fbd070c4fa2f7a377f6f5f7a3b7faec51d2eee159f936a98710d6c8757b244",
      "blockNumber": "0x17567035",
      "gasUsed": "0xcdc6",
      "effectiveGasPrice": "0x989680",
      "from": "0xee03621ce83bbf6e3931bccf35b144354f16ccf7",
      "to": "0xc0473bd9e466a7e564b9f1a0065f1efa41966d54",
      "contractAddress": null,
      "gasUsedForL1": "0xfd6",
      "l1BlockNumber": "0x16866f5",
      "timeboosted": false
    },
    {
      "status": "0x1",
      "cumulativeGasUsed": "0xcdc6",
      "logs": [
        {
          "address": "0xc0473bd9e466a7e564b9f1a0065f1efa41966d54",
          "topics": [
            "0x06450d77a493ade91a66792442980e4499d56e1565b15d80f0790f2a962a135d"
          ],
          "data": "0x000000000000000000000000a0f8c84e78eabdf241a9fa9ff6733ab17bb4e7fa00000000000000000000000093c1b89d8f71e4688debdb688347a04ed91cfddd",
          "blockHash": "0xca6a571ba5d48987e8ac24cc6c1a8ec5b1e757ec3ef1078ed89dbc57fcbba036",
          "blockNumber": "0x1756703c",
          "transactionHash": "0x067ba79dda2d43bed9f5cdd4ed36cf8d0215c6c0e7ca553a40c6f6901c1dfe38",
          "transactionIndex": "0x1",
          "logIndex": "0x0",
          "removed": false
        }
      ],
      "logsBloom": "0x00000000000000000000000000000000000000000000000000200000000000000000400000000000000000000000000000000000002000000000000000000000000000000000000000000000000000000000000000000000000000000000000000000000000020000000000000000000000000000000000000000000000000000000000000000000000000000000000000000000000000000000000000000000000000000000000000000000000000000000000000000000000000000000000000000000800000000000000000000000000000000000000000000000000000000000000000000000000000000000000000000000000000000000000020000000",
      "type": "0x2",
      "transactionHash": "0x067ba79dda2d43bed9f5cdd4ed36cf8d0215c6c0e7ca553a40c6f6901c1dfe38",
      "transactionIndex": "0x1",
      "blockHash": "0xca6a571ba5d48987e8ac24cc6c1a8ec5b1e757ec3ef1078ed89dbc57fcbba036",
      "blockNumber": "0x1756703c",
      "gasUsed": "0xcdc6",
      "effectiveGasPrice": "0x989680",
      "from": "0xee03621ce83bbf6e3931bccf35b144354f16ccf7",
      "to": "0xc0473bd9e466a7e564b9f1a0065f1efa41966d54",
      "contractAddress": null,
      "gasUsedForL1": "0xfd6",
      "l1BlockNumber": "0x16866f5",
      "timeboosted": false
    },
    {
      "status": "0x1",
      "cumulativeGasUsed": "0xcdc6",
      "logs": [
        {
          "address": "0xc0473bd9e466a7e564b9f1a0065f1efa41966d54",
          "topics": [
            "0x06450d77a493ade91a66792442980e4499d56e1565b15d80f0790f2a962a135d"
          ],
          "data": "0x0000000000000000000000000b214413cac3e0b8f356181d7339626fcafff6bd000000000000000000000000b543ffef66c25409ea63dc07352960f06ce564c7",
          "blockHash": "0xa64ed130dc4c21a0c925f6af8db73b0c0e2066cd06b9c58b7eacd0afee138be5",
          "blockNumber": "0x17567044",
          "transactionHash": "0xa04b52bc7a914d66c6c068610b68a5539a17e20c0a3671002ae8165edf168d34",
          "transactionIndex": "0x1",
          "logIndex": "0x0",
          "removed": false
        }
      ],
      "logsBloom": "0x00000000000000000000000000000000000000000000000000200000000000000000400000000000000000000000000000000000002000000000000000000000000000000000000000000000000000000000000000000000000000000000000000000000000020000000000000000000000000000000000000000000000000000000000000000000000000000000000000000000000000000000000000000000000000000000000000000000000000000000000000000000000000000000000000000000800000000000000000000000000000000000000000000000000000000000000000000000000000000000000000000000000000000000000020000000",
      "type": "0x2",
      "transactionHash": "0xa04b52bc7a914d66c6c068610b68a5539a17e20c0a3671002ae8165edf168d34",
      "transactionIndex": "0x1",
      "blockHash": "0xa64ed130dc4c21a0c925f6af8db73b0c0e2066cd06b9c58b7eacd0afee138be5",
      "blockNumber": "0x17567044",
      "gasUsed": "0xcdc6",
      "effectiveGasPrice": "0x989680",
      "from": "0xee03621ce83bbf6e3931bccf35b144354f16ccf7",
      "to": "0xc0473bd9e466a7e564b9f1a0065f1efa41966d54",
      "contractAddress": null,
      "gasUsedForL1": "0xfd6",
      "l1BlockNumber": "0x16866f5",
      "timeboosted": false
    },
    {
      "status": "0x1",
      "cumulativeGasUsed": "0x19dcc8",
      "logs": [
        {
          "address": "0xc0473bd9e466a7e564b9f1a0065f1efa41966d54",
          "topics": [
            "0x06450d77a493ade91a66792442980e4499d56e1565b15d80f0790f2a962a135d"
          ],
          "data": "0x000000000000000000000000a7f56bc3252c676e43ff1f3e6780dbbc7679d7a6000000000000000000000000f0b69ea67ea6a8c7be111b73f791ab25c386cad3",
          "blockHash": "0xbe351ac23d0051738be8434298cb4bcbfcdb75dd6241c64a2adc21f9893dbd73",
          "blockNumber": "0x1756704a",
          "transactionHash": "0xe6f54647de937f5a836dc2c2e478ac608709cf63ca174fe4335f5be8a4a4ced2",
          "transactionIndex": "0xe",
          "logIndex": "0x1e",
          "removed": false
        }
      ],
      "logsBloom": "0x00000000000000000000000000000000000000000000000000200000000000000000400000000000000000000000000000000000002000000000000000000000000000000000000000000000000000000000000000000000000000000000000000000000000020000000000000000000000000000000000000000000000000000000000000000000000000000000000000000000000000000000000000000000000000000000000000000000000000000000000000000000000000000000000000000000800000000000000000000000000000000000000000000000000000000000000000000000000000000000000000000000000000000000000020000000",
      "type": "0x2",
      "transactionHash": "0xe6f54647de937f5a836dc2c2e478ac608709cf63ca174fe4335f5be8a4a4ced2",
      "transactionIndex": "0xe",
      "blockHash": "0xbe351ac23d0051738be8434298cb4bcbfcdb75dd6241c64a2adc21f9893dbd73",
      "blockNumber": "0x1756704a",
      "gasUsed": "0xcdc6",
      "effectiveGasPrice": "0x989680",
      "from": "0xee03621ce83bbf6e3931bccf35b144354f16ccf7",
      "to": "0xc0473bd9e466a7e564b9f1a0065f1efa41966d54",
      "contractAddress": null,
      "gasUsedForL1": "0xfd6",
      "l1BlockNumber": "0x16866f5",
      "timeboosted": false
    },
    {
      "status": "0x1",
      "cumulativeGasUsed": "0x2d3697",
      "logs": [
        {
          "address": "0xc0473bd9e466a7e564b9f1a0065f1efa41966d54",
          "topics": [
            "0x06450d77a493ade91a66792442980e4499d56e1565b15d80f0790f2a962a135d"
          ],
          "data": "0x00000000000000000000000014954b6a207a4cc908f44354e61997070507fcc4000000000000000000000000c469d792421cd0ef585eab54ef93a6bf4623455e",
          "blockHash": "0xe9db9eb7dfb1deff83826c96ece3ea44a8f32c9654b9e04e8aa0f442062e06cf",
          "blockNumber": "0x17567051",
          "transactionHash": "0xc3bf107d9ab01339100d56670824ab649d89e33a94a768dd92a4337abfb38c25",
          "transactionIndex": "0x8",
          "logIndex": "0x15",
          "removed": false
        }
      ],
      "logsBloom": "0x00000000000000000000000000000000000000000000000000200000000000000000400000000000000000000000000000000000002000000000000000000000000000000000000000000000000000000000000000000000000000000000000000000000000020000000000000000000000000000000000000000000000000000000000000000000000000000000000000000000000000000000000000000000000000000000000000000000000000000000000000000000000000000000000000000000800000000000000000000000000000000000000000000000000000000000000000000000000000000000000000000000000000000000000020000000",
      "type": "0x2",
      "transactionHash": "0xc3bf107d9ab01339100d56670824ab649d89e33a94a768dd92a4337abfb38c25",
      "transactionIndex": "0x8",
      "blockHash": "0xe9db9eb7dfb1deff83826c96ece3ea44a8f32c9654b9e04e8aa0f442062e06cf",
      "blockNumber": "0x17567051",
      "gasUsed": "0xcdc6",
      "effectiveGasPrice": "0x989680",
      "from": "0xee03621ce83bbf6e3931bccf35b144354f16ccf7",
      "to": "0xc0473bd9e466a7e564b9f1a0065f1efa41966d54",
      "contractAddress": null,
      "gasUsedForL1": "0xfd6",
      "l1BlockNumber": "0x16866f6",
      "timeboosted": false
    },
    {
      "status": "0x1",
      "cumulativeGasUsed": "0x77e19",
      "logs": [
        {
          "address": "0xc0473bd9e466a7e564b9f1a0065f1efa41966d54",
          "topics": [
            "0x06450d77a493ade91a66792442980e4499d56e1565b15d80f0790f2a962a135d"
          ],
          "data": "0x0000000000000000000000001aa55163e448b100ac4541c69cf2b55c909a2be9000000000000000000000000d0a899a8fe186d0c3bebd8a45a41cfbc30931105",
          "blockHash": "0xdacb4452c61df719b2d6d827e88bc58af93271fc9856ed0f5a1ff7004cb0bb79",
          "blockNumber": "0x17567059",
          "transactionHash": "0x37e96b82fb3afe92e151563eaecf070830950ab230f1d89024aabfc4d3f21cca",
          "transactionIndex": "0x6",
          "logIndex": "0x8",
          "removed": false
        }
      ],
      "logsBloom": "0x00000000000000000000000000000000000000000000000000200000000000000000400000000000000000000000000000000000002000000000000000000000000000000000000000000000000000000000000000000000000000000000000000000000000020000000000000000000000000000000000000000000000000000000000000000000000000000000000000000000000000000000000000000000000000000000000000000000000000000000000000000000000000000000000000000000800000000000000000000000000000000000000000000000000000000000000000000000000000000000000000000000000000000000000020000000",
      "type": "0x2",
      "transactionHash": "0x37e96b82fb3afe92e151563eaecf070830950ab230f1d89024aabfc4d3f21cca",
      "transactionIndex": "0x6",
      "blockHash": "0xdacb4452c61df719b2d6d827e88bc58af93271fc9856ed0f5a1ff7004cb0bb79",
      "blockNumber": "0x17567059",
      "gasUsed": "0xcdba",
      "effectiveGasPrice": "0x989680",
      "from": "0xee03621ce83bbf6e3931bccf35b144354f16ccf7",
      "to": "0xc0473bd9e466a7e564b9f1a0065f1efa41966d54",
      "contractAddress": null,
      "gasUsedForL1": "0xfd6",
      "l1BlockNumber": "0x16866f6",
      "timeboosted": false
    },
    {
      "status": "0x1",
      "cumulativeGasUsed": "0x26cea0",
      "logs": [
        {
          "address": "0xc0473bd9e466a7e564b9f1a0065f1efa41966d54",
          "topics": [
            "0x06450d77a493ade91a66792442980e4499d56e1565b15d80f0790f2a962a135d"
          ],
          "data": "0x000000000000000000000000623cf9e33f269fd459467e98a5e12db4c2fbcae0000000000000000000000000aaef30a81c653520ca5f43dea55b2d1e884946c0",
          "blockHash": "0x1b47e3d6bd3a80fece47f734b1699f1532908e6cb2d32a0d997b2b613b554eb6",
          "blockNumber": "0x1756705f",
          "transactionHash": "0x3bf104acb7f62c7c37991ea13e9b82a46913d0fc811c689b3df037f7fbaa1ac0",
          "transactionIndex": "0x17",
          "logIndex": "0x25",
          "removed": false
        }
      ],
      "logsBloom": "0x00000000000000000000000000000000000000000000000000200000000000000000400000000000000000000000000000000000002000000000000000000000000000000000000000000000000000000000000000000000000000000000000000000000000020000000000000000000000000000000000000000000000000000000000000000000000000000000000000000000000000000000000000000000000000000000000000000000000000000000000000000000000000000000000000000000800000000000000000000000000000000000000000000000000000000000000000000000000000000000000000000000000000000000000020000000",
      "type": "0x2",
      "transactionHash": "0x3bf104acb7f62c7c37991ea13e9b82a46913d0fc811c689b3df037f7fbaa1ac0",
      "transactionIndex": "0x17",
      "blockHash": "0x1b47e3d6bd3a80fece47f734b1699f1532908e6cb2d32a0d997b2b613b554eb6",
      "blockNumber": "0x1756705f",
      "gasUsed": "0xcdc6",
      "effectiveGasPrice": "0x989680",
      "from": "0xee03621ce83bbf6e3931bccf35b144354f16ccf7",
      "to": "0xc0473bd9e466a7e564b9f1a0065f1efa41966d54",
      "contractAddress": null,
      "gasUsedForL1": "0xfd6",
      "l1BlockNumber": "0x16866f6",
      "timeboosted": false
    },
    {
      "status": "0x1",
      "cumulativeGasUsed": "0x6c43a",
      "logs": [
        {
          "address": "0xc0473bd9e466a7e564b9f1a0065f1efa41966d54",
          "topics": [
            "0x06450d77a493ade91a66792442980e4499d56e1565b15d80f0790f2a962a135d"
          ],
          "data": "0x000000000000000000000000b4626c50fb6a0019feecd442310cd1f7395e214800000000000000000000000015118b3d806b68aa5564a89f5f88c7df9a8c6346",
          "blockHash": "0xe7bbfa3ee1164a208b2cfa7173bb087ac5e59aa07bb999a115b3e727b58b207a",
          "blockNumber": "0x17567066",
          "transactionHash": "0x93278d9cbc2627d531b198702f1de21b673f753eab01b1fc1d6c9d699db563e3",
          "transactionIndex": "0xa",
          "logIndex": "0x1",
          "removed": false
        }
      ],
      "logsBloom": "0x00000000000000000000000000000000000000000000000000200000000000000000400000000000000000000000000000000000002000000000000000000000000000000000000000000000000000000000000000000000000000000000000000000000000020000000000000000000000000000000000000000000000000000000000000000000000000000000000000000000000000000000000000000000000000000000000000000000000000000000000000000000000000000000000000000000800000000000000000000000000000000000000000000000000000000000000000000000000000000000000000000000000000000000000020000000",
      "type": "0x2",
      "transactionHash": "0x93278d9cbc2627d531b198702f1de21b673f753eab01b1fc1d6c9d699db563e3",
      "transactionIndex": "0xa",
      "blockHash": "0xe7bbfa3ee1164a208b2cfa7173bb087ac5e59aa07bb999a115b3e727b58b207a",
      "blockNumber": "0x17567066",
      "gasUsed": "0xcdba",
      "effectiveGasPrice": "0x989680",
      "from": "0xee03621ce83bbf6e3931bccf35b144354f16ccf7",
      "to": "0xc0473bd9e466a7e564b9f1a0065f1efa41966d54",
      "contractAddress": null,
      "gasUsedForL1": "0xfd6",
      "l1BlockNumber": "0x16866f6",
      "timeboosted": false
    },
    {
      "status": "0x1",
      "cumulativeGasUsed": "0xc110f",
      "logs": [
        {
          "address": "0xc0473bd9e466a7e564b9f1a0065f1efa41966d54",
          "topics": [
            "0x06450d77a493ade91a66792442980e4499d56e1565b15d80f0790f2a962a135d"
          ],
          "data": "0x0000000000000000000000008d55c23664b46212bc6dc03d03e237988c0d3646000000000000000000000000d50ee02f3bb2b4530c5ffb7df3284c9f2090b517",
          "blockHash": "0xc4b48ce494df79d1ea37273b0d16807c29da328926328ccd893e0baf521f763b",
          "blockNumber": "0x1756706e",
          "transactionHash": "0xe95054b7aa5990868019f5b226ec79ed92b6ea52653db7b24f6515b858f56a68",
          "transactionIndex": "0x4",
          "logIndex": "0x16",
          "removed": false
        }
      ],
      "logsBloom": "0x00000000000000000000000000000000000000000000000000200000000000000000400000000000000000000000000000000000002000000000000000000000000000000000000000000000000000000000000000000000000000000000000000000000000020000000000000000000000000000000000000000000000000000000000000000000000000000000000000000000000000000000000000000000000000000000000000000000000000000000000000000000000000000000000000000000800000000000000000000000000000000000000000000000000000000000000000000000000000000000000000000000000000000000000020000000",
      "type": "0x2",
      "transactionHash": "0xe95054b7aa5990868019f5b226ec79ed92b6ea52653db7b24f6515b858f56a68",
      "transactionIndex": "0x4",
      "blockHash": "0xc4b48ce494df79d1ea37273b0d16807c29da328926328ccd893e0baf521f763b",
      "blockNumber": "0x1756706e",
      "gasUsed": "0xcdc6",
      "effectiveGasPrice": "0x989680",
      "from": "0xee03621ce83bbf6e3931bccf35b144354f16ccf7",
      "to": "0xc0473bd9e466a7e564b9f1a0065f1efa41966d54",
      "contractAddress": null,
      "gasUsedForL1": "0xfd6",
      "l1BlockNumber": "0x16866f6",
      "timeboosted": false
    }
  ],
  "libraries": [],
  "pending": [],
  "returns": {},
  "timestamp": 1760969428776,
  "chain": 42161,
  "commit": "403ecc4"
}