{
  "transactions": [
    {
      "hash": "0xfe731f306e698131da8b0e529979280387cf4a70df7c0f702870b561e3c5355d",
      "transactionType": "CALL",
      "contractName": null,
      "contractAddress": "0x8da2f4663d02dbf598d90f5172347aecf119b463",
      "function": "setRouter(address)",
      "arguments": [
        "0x5E4CB0eE8D6268383F45E81A8Cd0468CC0Acd957"
      ],
      "transaction": {
        "from": "0xee03621ce83bbf6e3931bccf35b144354f16ccf7",
        "to": "0x8da2f4663d02dbf598d90f5172347aecf119b463",
        "gas": "0x9576",
        "value": "0x0",
        "input": "0xc0d786550000000000000000000000005e4cb0ee8d6268383f45e81a8cd0468cc0acd957",
        "nonce": "0x3a",
        "chainId": "0xa4b1"
      },
      "additionalContracts": [],
      "isFixedGasLimit": false
    }
  ],
  "receipts": [
    {
      "status": "0x1",
      "cumulativeGasUsed": "0x8d1e9",
      "logs": [],
      "logsBloom": "0x00000000000000000000000000000000000000000000000000000000000000000000000000000000000000000000000000000000000000000000000000000000000000000000000000000000000000000000000000000000000000000000000000000000000000000000000000000000000000000000000000000000000000000000000000000000000000000000000000000000000000000000000000000000000000000000000000000000000000000000000000000000000000000000000000000000000000000000000000000000000000000000000000000000000000000000000000000000000000000000000000000000000000000000000000000000",
      "type": "0x2",
      "transactionHash": "0xfe731f306e698131da8b0e529979280387cf4a70df7c0f702870b561e3c5355d",
      "transactionIndex": "0x9",
      "blockHash": "0x4461922670fdfaf2a50c015a50513087e81f3af97a1d3a632e79f98036a34374",
      "blockNumber": "0x174b09b2",
      "gasUsed": "0x6909",
      "effectiveGasPrice": "0x989680",
      "from": "0xee03621ce83bbf6e3931bccf35b144354f16ccf7",
      "to": "0x8da2f4663d02dbf598d90f5172347aecf119b463",
      "contractAddress": null,
      "gasUsedForL1": "0x1b6",
      "l1BlockNumber": "0x1682aa3",
      "timeboosted": false
    }
  ],
  "libraries": [],
  "pending": [],
  "returns": {},
  "timestamp": 1760782554172,
  "chain": 42161,
  "commit": "aaddbdd"
}