{
  "transactions": [
    {
      "hash": "0x9e35a06452fb981f07058e62af95901cc816176af44f46d2b4e54dfc2fd12a87",
      "transactionType": "CALL",
      "contractName": null,
      "contractAddress": "0x8868e3511c2c47ac55106c21f958e6cf1cbc1766",
      "function": "setPeer(uint32,bytes32)",
      "arguments": [
        "30110",
        "0x0000000000000000000000008868e3511c2c47ac55106c21f958e6cf1cbc1766"
      ],
      "transaction": {
        "from": "0xee03621ce83bbf6e3931bccf35b144354f16ccf7",
        "to": "0x8868e3511c2c47ac55106c21f958e6cf1cbc1766",
        "gas": "0x96d9",
        "value": "0x0",
        "input": "0x3400288b000000000000000000000000000000000000000000000000000000000000759e0000000000000000000000008868e3511c2c47ac55106c21f958e6cf1cbc1766",
        "nonce": "0x75",
        "chainId": "0xa4b1"
      },
      "additionalContracts": [],
      "isFixedGasLimit": false
    },
    {
      "hash": "0x54841e42ceca6085da5e562d8ea51724de206262ff2f53c48853d2236f2a20c0",
      "transactionType": "CALL",
      "contractName": null,
      "contractAddress": "0x8868e3511c2c47ac55106c21f958e6cf1cbc1766",
      "function": "setPeer(uint32,bytes32)",
      "arguments": [
        "30184",
        "0x000000000000000000000000c469d792421cd0ef585eab54ef93a6bf4623455e"
      ],
      "transaction": {
        "from": "0xee03621ce83bbf6e3931bccf35b144354f16ccf7",
        "to": "0x8868e3511c2c47ac55106c21f958e6cf1cbc1766",
        "gas": "0x96d9",
        "value": "0x0",
        "input": "0x3400288b00000000000000000000000000000000000000000000000000000000000075e8000000000000000000000000c469d792421cd0ef585eab54ef93a6bf4623455e",
        "nonce": "0x76",
        "chainId": "0xa4b1"
      },
      "additionalContracts": [],
      "isFixedGasLimit": false
    },
    {
      "hash": "0x60d26e8b0b06fbb81bffd753617249f68181d36f853e0609ad1f53b540c66e8a",
      "transactionType": "CALL",
      "contractName": null,
      "contractAddress": "0x8868e3511c2c47ac55106c21f958e6cf1cbc1766",
      "function": "setEnforcedOptions((uint32,uint16,bytes)[])",
      "arguments": [
        "[(30110, 1, 0x000301001101000000000000000000000000000c3500), (30184, 1, 0x000301001101000000000000000000000000000f4240)]"
      ],
      "transaction": {
        "from": "0xee03621ce83bbf6e3931bccf35b144354f16ccf7",
        "to": "0x8868e3511c2c47ac55106c21f958e6cf1cbc1766",
        "gas": "0xe2a6",
        "value": "0x0",
        "input": "0xb98bd07000000000000000000000000000000000000000000000000000000000000000200000000000000000000000000000000000000000000000000000000000000002000000000000000000000000000000000000000000000000000000000000004000000000000000000000000000000000000000000000000000000000000000e0000000000000000000000000000000000000000000000000000000000000759e000000000000000000000000000000000000000000000000000000000000000100000000000000000000000000000000000000000000000000000000000000600000000000000000000000000000000000000000000000000000000000000016000301001101000000000000000000000000000c35000000000000000000000000000000000000000000000000000000000000000000000000000000000075e8000000000000000000000000000000000000000000000000000000000000000100000000000000000000000000000000000000000000000000000000000000600000000000000000000000000000000000000000000000000000000000000016000301001101000000000000000000000000000f424000000000000000000000",
        "nonce": "0x77",
        "chainId": "0xa4b1"
      },
      "additionalContracts": [],
      "isFixedGasLimit": false
    },
    {
      "hash": "0xc316c3252991962507eacd215356a2e727a39e964ac158040b42eed9be1fbe1c",
      "transactionType": "CALL",
      "contractName": null,
      "contractAddress": "0x8868e3511c2c47ac55106c21f958e6cf1cbc1766",
      "function": "setRouter(address)",
      "arguments": [
        "0xcC0563F952FADb3a7D54A448AEB079D7d8F849fa"
      ],
      "transaction": {
        "from": "0xee03621ce83bbf6e3931bccf35b144354f16ccf7",
        "to": "0x8868e3511c2c47ac55106c21f958e6cf1cbc1766",
        "gas": "0x96d8",
        "value": "0x0",
        "input": "0xc0d78655000000000000000000000000cc0563f952fadb3a7d54a448aeb079d7d8f849fa",
        "nonce": "0x78",
        "chainId": "0xa4b1"
      },
      "additionalContracts": [],
      "isFixedGasLimit": false
    },
    {
      "hash": "0xb06ba6a7051b00be517aa51ea3868de5f7e98e928d1e4cb2264bac57a0bc7f52",
      "transactionType": "CALL",
      "contractName": null,
      "contractAddress": "0xcc0563f952fadb3a7d54a448aeb079d7d8f849fa",
      "function": "setChainIdToOApp(uint256,address)",
      "arguments": [
        "42161",
        "0x8868E3511c2C47AC55106C21f958E6Cf1Cbc1766"
      ],
      "transaction": {
        "from": "0xee03621ce83bbf6e3931bccf35b144354f16ccf7",
        "to": "0xcc0563f952fadb3a7d54a448aeb079d7d8f849fa",
        "gas": "0x9942",
        "value": "0x0",
        "input": "0xf86ae788000000000000000000000000000000000000000000000000000000000000a4b10000000000000000000000008868e3511c2c47ac55106c21f958e6cf1cbc1766",
        "nonce": "0x79",
        "chainId": "0xa4b1"
      },
      "additionalContracts": [],
      "isFixedGasLimit": false
    }
  ],
  "receipts": [
    {
      "status": "0x1",
      "cumulativeGasUsed": "0xa8e44",
      "logs": [
        {
          "address": "0x8868e3511c2c47ac55106c21f958e6cf1cbc1766",
          "topics": [
            "0x238399d427b947898edb290f5ff0f9109849b1c3ba196a42e35f00c50a54b98b"
          ],
          "data": "0x000000000000000000000000000000000000000000000000000000000000759e0000000000000000000000008868e3511c2c47ac55106c21f958e6cf1cbc1766",
          "blockHash": "0x7809b6967bb524a4d96943c23298a7027d10a92e3dfaccc0c94337e750ec8bd0",
          "blockNumber": "0x1756121e",
          "transactionHash": "0x9e35a06452fb981f07058e62af95901cc816176af44f46d2b4e54dfc2fd12a87",
          "transactionIndex": "0x7",
          "logIndex": "0xd",
          "removed": false
        }
      ],
      "logsBloom": "0x00000000000000000000000000000000000000000000000000000000000000000000000400000000000000000000000000000000000000000800000000000000000000000000000000000008000000000000000000000000000000000000000000000000000000000000000000000000000000000000000000000000000000000000000000000000000000000000000000000000000000000000000000000000000000000000000000000000000000000000000000000000000002000000000000000000000000000000000010000000000000000000000000040000000000000000000000000000000000000000000000000000000000000000000000000000",
      "type": "0x2",
      "transactionHash": "0x9e35a06452fb981f07058e62af95901cc816176af44f46d2b4e54dfc2fd12a87",
      "transactionIndex": "0x7",
      "blockHash": "0x7809b6967bb524a4d96943c23298a7027d10a92e3dfaccc0c94337e750ec8bd0",
      "blockNumber": "0x1756121e",
      "gasUsed": "0x71e5",
      "effectiveGasPrice": "0x989680",
      "from": "0xee03621ce83bbf6e3931bccf35b144354f16ccf7",
      "to": "0x8868e3511c2c47ac55106c21f958e6cf1cbc1766",
      "contractAddress": null,
      "gasUsedForL1": "0x319",
      "l1BlockNumber": "0x1686503",
      "timeboosted": false
    },
    {
      "status": "0x1",
      "cumulativeGasUsed": "0x2c1d5c",
      "logs": [
        {
          "address": "0x8868e3511c2c47ac55106c21f958e6cf1cbc1766",
          "topics": [
            "0x238399d427b947898edb290f5ff0f9109849b1c3ba196a42e35f00c50a54b98b"
          ],
          "data": "0x00000000000000000000000000000000000000000000000000000000000075e8000000000000000000000000c469d792421cd0ef585eab54ef93a6bf4623455e",
          "blockHash": "0xf6db0ca0c7f3a0cf63b5d44d41bde6421d344c84c4dd1d0d0e9d99630cda0d54",
          "blockNumber": "0x17561225",
          "transactionHash": "0x54841e42ceca6085da5e562d8ea51724de206262ff2f53c48853d2236f2a20c0",
          "transactionIndex": "0x4",
          "logIndex": "0x1",
          "removed": false
        }
      ],
      "logsBloom": "0x00000000000000000000000000000000000000000000000000000000000000000000000400000000000000000000000000000000000000000800000000000000000000000000000000000008000000000000000000000000000000000000000000000000000000000000000000000000000000000000000000000000000000000000000000000000000000000000000000000000000000000000000000000000000000000000000000000000000000000000000000000000000002000000000000000000000000000000000010000000000000000000000000040000000000000000000000000000000000000000000000000000000000000000000000000000",
      "type": "0x2",
      "transactionHash": "0x54841e42ceca6085da5e562d8ea51724de206262ff2f53c48853d2236f2a20c0",
      "transactionIndex": "0x4",
      "blockHash": "0xf6db0ca0c7f3a0cf63b5d44d41bde6421d344c84c4dd1d0d0e9d99630cda0d54",
      "blockNumber": "0x17561225",
      "gasUsed": "0x71e5",
      "effectiveGasPrice": "0x989680",
      "from": "0xee03621ce83bbf6e3931bccf35b144354f16ccf7",
      "to": "0x8868e3511c2c47ac55106c21f958e6cf1cbc1766",
      "contractAddress": null,
      "gasUsedForL1": "0x319",
      "l1BlockNumber": "0x1686503",
      "timeboosted": false
    },
    {
      "status": "0x1",
      "cumulativeGasUsed": "0x297b8",
      "logs": [
        {
          "address": "0x8868e3511c2c47ac55106c21f958e6cf1cbc1766",
          "topics": [
            "0xbe4864a8e820971c0247f5992e2da559595f7bf076a21cb5928d443d2a13b674"
          ],
          "data": "0x00000000000000000000000000000000000000000000000000000000000000200000000000000000000000000000000000000000000000000000000000000002000000000000000000000000000000000000000000000000000000000000004000000000000000000000000000000000000000000000000000000000000000e0000000000000000000000000000000000000000000000000000000000000759e000000000000000000000000000000000000000000000000000000000000000100000000000000000000000000000000000000000000000000000000000000600000000000000000000000000000000000000000000000000000000000000016000301001101000000000000000000000000000c35000000000000000000000000000000000000000000000000000000000000000000000000000000000075e8000000000000000000000000000000000000000000000000000000000000000100000000000000000000000000000000000000000000000000000000000000600000000000000000000000000000000000000000000000000000000000000016000301001101000000000000000000000000000f424000000000000000000000",
          "blockHash": "0x951da605b01476062d27a937c52acf766bfb35a1c93d65750a1c682b2bcc2498",
          "blockNumber": "0x1756122b",
          "transactionHash": "0x60d26e8b0b06fbb81bffd753617249f68181d36f853e0609ad1f53b540c66e8a",
          "transactionIndex": "0x3",
          "logIndex": "0x2",
          "removed": false
        }
      ],
      "logsBloom": "0x00000000000000000000000000000000000000000000000000000000000000000000000400000000000000000000000000000000000000000000400000000000000000000000000000000008000000000000000000000000000000000000000000000000000000000000000000000000000000000000000000000000000000000000000000000000000000000000000000000000000000000000000000080000000000000000000000000000000000000000000000000000000000000000000000000000000000000000000012000000000000000000000000000000000000000000000000000000000000000000000000000000000000000000000000000000",
      "type": "0x2",
      "transactionHash": "0x60d26e8b0b06fbb81bffd753617249f68181d36f853e0609ad1f53b540c66e8a",
      "transactionIndex": "0x3",
      "blockHash": "0x951da605b01476062d27a937c52acf766bfb35a1c93d65750a1c682b2bcc2498",
      "blockNumber": "0x1756122b",
      "gasUsed": "0xabd3",
      "effectiveGasPrice": "0x989680",
      "from": "0xee03621ce83bbf6e3931bccf35b144354f16ccf7",
      "to": "0x8868e3511c2c47ac55106c21f958e6cf1cbc1766",
      "contractAddress": null,
      "gasUsedForL1": "0x4cd",
      "l1BlockNumber": "0x1686505",
      "timeboosted": false
    },
    {
      "status": "0x1",
      "cumulativeGasUsed": "0x69da",
      "logs": [],
      "logsBloom": "0x00000000000000000000000000000000000000000000000000000000000000000000000000000000000000000000000000000000000000000000000000000000000000000000000000000000000000000000000000000000000000000000000000000000000000000000000000000000000000000000000000000000000000000000000000000000000000000000000000000000000000000000000000000000000000000000000000000000000000000000000000000000000000000000000000000000000000000000000000000000000000000000000000000000000000000000000000000000000000000000000000000000000000000000000000000000",
      "type": "0x2",
      "transactionHash": "0xc316c3252991962507eacd215356a2e727a39e964ac158040b42eed9be1fbe1c",
      "transactionIndex": "0x1",
      "blockHash": "0x0ab6955bc7b314e15c8d41a28ca512b9b2368d67e71077ff8a3c1646422a6736",
      "blockNumber": "0x17561231",
      "gasUsed": "0x69da",
      "effectiveGasPrice": "0x989680",
      "from": "0xee03621ce83bbf6e3931bccf35b144354f16ccf7",
      "to": "0x8868e3511c2c47ac55106c21f958e6cf1cbc1766",
      "contractAddress": null,
      "gasUsedForL1": "0x287",
      "l1BlockNumber": "0x1686505",
      "timeboosted": false
    },
    {
      "status": "0x1",
      "cumulativeGasUsed": "0x168454",
      "logs": [
        {
          "address": "0xcc0563f952fadb3a7d54a448aeb079d7d8f849fa",
          "topics": [
            "0x08bb8a5c04b030742c31bf3ed154a8ee0a26b42d6edea42acb7a82eefbe8366b"
          ],
          "data": "0x000000000000000000000000000000000000000000000000000000000000a4b10000000000000000000000008868e3511c2c47ac55106c21f958e6cf1cbc1766",
          "blockHash": "0x072432dfeb87caa125ea76d68d2bbc20dcd9b453f6c1e469714598a907c695c1",
          "blockNumber": "0x17561237",
          "transactionHash": "0xb06ba6a7051b00be517aa51ea3868de5f7e98e928d1e4cb2264bac57a0bc7f52",
          "transactionIndex": "0xd",
          "logIndex": "0x23",
          "removed": false
        }
      ],
      "logsBloom": "0x00000000000000000000000000000000000000000000000000002000000000000000000000000000000000000000000000000000000000000000000000000000000000000000000000000000000000000000000000000000000000000000000000000000000000000000000000000000000000000000000000000040000000000000000000000000000000000000000000000000000020000010000000000000000000000000000000000000000000000000000000000000000000000000000000000000000000000000000000000000000000000000000000000000000000000000000000000000000000000000000000000000000000200000040000000000",
      "type": "0x2",
      "transactionHash": "0xb06ba6a7051b00be517aa51ea3868de5f7e98e928d1e4cb2264bac57a0bc7f52",
      "transactionIndex": "0xd",
      "blockHash": "0x072432dfeb87caa125ea76d68d2bbc20dcd9b453f6c1e469714598a907c695c1",
      "blockNumber": "0x17561237",
      "gasUsed": "0x7260",
      "effectiveGasPrice": "0x989680",
      "from": "0xee03621ce83bbf6e3931bccf35b144354f16ccf7",
      "to": "0xcc0563f952fadb3a7d54a448aeb079d7d8f849fa",
      "contractAddress": null,
      "gasUsedForL1": "0x319",
      "l1BlockNumber": "0x1686505",
      "timeboosted": false
    }
  ],
  "libraries": [],
  "pending": [],
  "returns": {},
  "timestamp": 1760963408819,
  "chain": 42161,
  "commit": "fbbea34"
}