{
  "transactions": [
    {
      "hash": "0xf64278530049f537b89e40879f48c11f51a0131660d1eafa56983af9bdd3497f",
      "transactionType": "CALL",
      "contractName": null,
      "contractAddress": "0x8868e3511c2c47ac55106c21f958e6cf1cbc1766",
      "function": "setPeer(uint32,bytes32)",
      "arguments": [
        "30110",
        "0x0000000000000000000000008868e3511c2c47ac55106c21f958e6cf1cbc1766"
      ],
      "transaction": {
        "from": "0xee03621ce83bbf6e3931bccf35b144354f16ccf7",
        "to": "0x8868e3511c2c47ac55106c21f958e6cf1cbc1766",
        "gas": "0x96d9",
        "value": "0x0",
        "input": "0x3400288b000000000000000000000000000000000000000000000000000000000000759e0000000000000000000000008868e3511c2c47ac55106c21f958e6cf1cbc1766",
        "nonce": "0x70",
        "chainId": "0xa4b1"
      },
      "additionalContracts": [],
      "isFixedGasLimit": false
    },
    {
      "hash": "0x24176f49f1d225028c900ab35197f31545fa647dc08f8eefccf01a282f76bf1d",
      "transactionType": "CALL",
      "contractName": null,
      "contractAddress": "0x8868e3511c2c47ac55106c21f958e6cf1cbc1766",
      "function": "setPeer(uint32,bytes32)",
      "arguments": [
        "30184",
        "0x000000000000000000000000c469d792421cd0ef585eab54ef93a6bf4623455e"
      ],
      "transaction": {
        "from": "0xee03621ce83bbf6e3931bccf35b144354f16ccf7",
        "to": "0x8868e3511c2c47ac55106c21f958e6cf1cbc1766",
        "gas": "0x96d9",
        "value": "0x0",
        "input": "0x3400288b00000000000000000000000000000000000000000000000000000000000075e8000000000000000000000000c469d792421cd0ef585eab54ef93a6bf4623455e",
        "nonce": "0x71",
        "chainId": "0xa4b1"
      },
      "additionalContracts": [],
      "isFixedGasLimit": false
    },
    {
      "hash": "0x56d6a098c19f820af080657ae405ea5f260a301d6bbd694b807bd77309e328af",
      "transactionType": "CALL",
      "contractName": null,
      "contractAddress": "0x8868e3511c2c47ac55106c21f958e6cf1cbc1766",
      "function": "setEnforcedOptions((uint32,uint16,bytes)[])",
      "arguments": [
        "[(30110, 1, 0x000301001101000000000000000000000000000c3500), (30184, 1, 0x000301001101000000000000000000000000000f4240)]"
      ],
      "transaction": {
        "from": "0xee03621ce83bbf6e3931bccf35b144354f16ccf7",
        "to": "0x8868e3511c2c47ac55106c21f958e6cf1cbc1766",
        "gas": "0xe2a0",
        "value": "0x0",
        "input": "0xb98bd07000000000000000000000000000000000000000000000000000000000000000200000000000000000000000000000000000000000000000000000000000000002000000000000000000000000000000000000000000000000000000000000004000000000000000000000000000000000000000000000000000000000000000e0000000000000000000000000000000000000000000000000000000000000759e000000000000000000000000000000000000000000000000000000000000000100000000000000000000000000000000000000000000000000000000000000600000000000000000000000000000000000000000000000000000000000000016000301001101000000000000000000000000000c35000000000000000000000000000000000000000000000000000000000000000000000000000000000075e8000000000000000000000000000000000000000000000000000000000000000100000000000000000000000000000000000000000000000000000000000000600000000000000000000000000000000000000000000000000000000000000016000301001101000000000000000000000000000f424000000000000000000000",
        "nonce": "0x72",
        "chainId": "0xa4b1"
      },
      "additionalContracts": [],
      "isFixedGasLimit": false
    },
    {
      "hash": "0xe3fb38eb955181fc6f5b80dfe749ef133793df2c8e6912dbb9a52435f9a17a4a",
      "transactionType": "CALL",
      "contractName": null,
      "contractAddress": "0x8868e3511c2c47ac55106c21f958e6cf1cbc1766",
      "function": "setRouter(address)",
      "arguments": [
        "0xcC0563F952FADb3a7D54A448AEB079D7d8F849fa"
      ],
      "transaction": {
        "from": "0xee03621ce83bbf6e3931bccf35b144354f16ccf7",
        "to": "0x8868e3511c2c47ac55106c21f958e6cf1cbc1766",
        "gas": "0x96d8",
        "value": "0x0",
        "input": "0xc0d78655000000000000000000000000cc0563f952fadb3a7d54a448aeb079d7d8f849fa",
        "nonce": "0x73",
        "chainId": "0xa4b1"
      },
      "additionalContracts": [],
      "isFixedGasLimit": false
    },
    {
      "hash": "0xf84dee881932d8cee860f5c1b9c80f4f776414fd1f77f129e70d0eb0f0565e8d",
      "transactionType": "CALL",
      "contractName": null,
      "contractAddress": "0xcc0563f952fadb3a7d54a448aeb079d7d8f849fa",
      "function": "setChainIdToOApp(uint256,address)",
      "arguments": [
        "42161",
        "0x8868E3511c2C47AC55106C21f958E6Cf1Cbc1766"
      ],
      "transaction": {
        "from": "0xee03621ce83bbf6e3931bccf35b144354f16ccf7",
        "to": "0xcc0563f952fadb3a7d54a448aeb079d7d8f849fa",
        "gas": "0x9942",
        "value": "0x0",
        "input": "0xf86ae788000000000000000000000000000000000000000000000000000000000000a4b10000000000000000000000008868e3511c2c47ac55106c21f958e6cf1cbc1766",
        "nonce": "0x74",
        "chainId": "0xa4b1"
      },
      "additionalContracts": [],
      "isFixedGasLimit": false
    }
  ],
  "receipts": [
    {
      "status": "0x1",
      "cumulativeGasUsed": "0x10034",
      "logs": [
        {
          "address": "0x8868e3511c2c47ac55106c21f958e6cf1cbc1766",
          "topics": [
            "0x238399d427b947898edb290f5ff0f9109849b1c3ba196a42e35f00c50a54b98b"
          ],
          "data": "0x000000000000000000000000000000000000000000000000000000000000759e0000000000000000000000008868e3511c2c47ac55106c21f958e6cf1cbc1766",
          "blockHash": "0xff7e1b0631bcdea470c4d9a80598e0fd7b3af44b07661c05db61cbdbebabff4d",
          "blockNumber": "0x175610c0",
          "transactionHash": "0xf64278530049f537b89e40879f48c11f51a0131660d1eafa56983af9bdd3497f",
          "transactionIndex": "0x2",
          "logIndex": "0x0",
          "removed": false
        }
      ],
      "logsBloom": "0x00000000000000000000000000000000000000000000000000000000000000000000000400000000000000000000000000000000000000000800000000000000000000000000000000000008000000000000000000000000000000000000000000000000000000000000000000000000000000000000000000000000000000000000000000000000000000000000000000000000000000000000000000000000000000000000000000000000000000000000000000000000000002000000000000000000000000000000000010000000000000000000000000040000000000000000000000000000000000000000000000000000000000000000000000000000",
      "type": "0x2",
      "transactionHash": "0xf64278530049f537b89e40879f48c11f51a0131660d1eafa56983af9bdd3497f",
      "transactionIndex": "0x2",
      "blockHash": "0xff7e1b0631bcdea470c4d9a80598e0fd7b3af44b07661c05db61cbdbebabff4d",
      "blockNumber": "0x175610c0",
      "gasUsed": "0x71e5",
      "effectiveGasPrice": "0x989680",
      "from": "0xee03621ce83bbf6e3931bccf35b144354f16ccf7",
      "to": "0x8868e3511c2c47ac55106c21f958e6cf1cbc1766",
      "contractAddress": null,
      "gasUsedForL1": "0x319",
      "l1BlockNumber": "0x16864fd",
      "timeboosted": false
    },
    {
      "status": "0x1",
      "cumulativeGasUsed": "0x10034",
      "logs": [
        {
          "address": "0x8868e3511c2c47ac55106c21f958e6cf1cbc1766",
          "topics": [
            "0x238399d427b947898edb290f5ff0f9109849b1c3ba196a42e35f00c50a54b98b"
          ],
          "data": "0x00000000000000000000000000000000000000000000000000000000000075e8000000000000000000000000c469d792421cd0ef585eab54ef93a6bf4623455e",
          "blockHash": "0xefb54a8496296b541e337ddc2140d67faec1401925dc80b164e6f4df50b810ba",
          "blockNumber": "0x175610c8",
          "transactionHash": "0x24176f49f1d225028c900ab35197f31545fa647dc08f8eefccf01a282f76bf1d",
          "transactionIndex": "0x2",
          "logIndex": "0x0",
          "removed": false
        }
      ],
      "logsBloom": "0x00000000000000000000000000000000000000000000000000000000000000000000000400000000000000000000000000000000000000000800000000000000000000000000000000000008000000000000000000000000000000000000000000000000000000000000000000000000000000000000000000000000000000000000000000000000000000000000000000000000000000000000000000000000000000000000000000000000000000000000000000000000000002000000000000000000000000000000000010000000000000000000000000040000000000000000000000000000000000000000000000000000000000000000000000000000",
      "type": "0x2",
      "transactionHash": "0x24176f49f1d225028c900ab35197f31545fa647dc08f8eefccf01a282f76bf1d",
      "transactionIndex": "0x2",
      "blockHash": "0xefb54a8496296b541e337ddc2140d67faec1401925dc80b164e6f4df50b810ba",
      "blockNumber": "0x175610c8",
      "gasUsed": "0x71e5",
      "effectiveGasPrice": "0x989680",
      "from": "0xee03621ce83bbf6e3931bccf35b144354f16ccf7",
      "to": "0x8868e3511c2c47ac55106c21f958e6cf1cbc1766",
      "contractAddress": null,
      "gasUsedForL1": "0x319",
      "l1BlockNumber": "0x16864fd",
      "timeboosted": false
    },
    {
      "status": "0x1",
      "cumulativeGasUsed": "0xabc6",
      "logs": [
        {
          "address": "0x8868e3511c2c47ac55106c21f958e6cf1cbc1766",
          "topics": [
            "0xbe4864a8e820971c0247f5992e2da559595f7bf076a21cb5928d443d2a13b674"
          ],
          "data": "0x00000000000000000000000000000000000000000000000000000000000000200000000000000000000000000000000000000000000000000000000000000002000000000000000000000000000000000000000000000000000000000000004000000000000000000000000000000000000000000000000000000000000000e0000000000000000000000000000000000000000000000000000000000000759e000000000000000000000000000000000000000000000000000000000000000100000000000000000000000000000000000000000000000000000000000000600000000000000000000000000000000000000000000000000000000000000016000301001101000000000000000000000000000c35000000000000000000000000000000000000000000000000000000000000000000000000000000000075e8000000000000000000000000000000000000000000000000000000000000000100000000000000000000000000000000000000000000000000000000000000600000000000000000000000000000000000000000000000000000000000000016000301001101000000000000000000000000000f424000000000000000000000",
          "blockHash": "0xfd30f519b7523b8ac80cb6e9283a376310d21a03834fe41c98478d4e9f87d9ee",
          "blockNumber": "0x175610cf",
          "transactionHash": "0x56d6a098c19f820af080657ae405ea5f260a301d6bbd694b807bd77309e328af",
          "transactionIndex": "0x1",
          "logIndex": "0x0",
          "removed": false
        }
      ],
      "logsBloom": "0x00000000000000000000000000000000000000000000000000000000000000000000000400000000000000000000000000000000000000000000400000000000000000000000000000000008000000000000000000000000000000000000000000000000000000000000000000000000000000000000000000000000000000000000000000000000000000000000000000000000000000000000000000080000000000000000000000000000000000000000000000000000000000000000000000000000000000000000000012000000000000000000000000000000000000000000000000000000000000000000000000000000000000000000000000000000",
      "type": "0x2",
      "transactionHash": "0x56d6a098c19f820af080657ae405ea5f260a301d6bbd694b807bd77309e328af",
      "transactionIndex": "0x1",
      "blockHash": "0xfd30f519b7523b8ac80cb6e9283a376310d21a03834fe41c98478d4e9f87d9ee",
      "blockNumber": "0x175610cf",
      "gasUsed": "0xabc6",
      "effectiveGasPrice": "0x989680",
      "from": "0xee03621ce83bbf6e3931bccf35b144354f16ccf7",
      "to": "0x8868e3511c2c47ac55106c21f958e6cf1cbc1766",
      "contractAddress": null,
      "gasUsedForL1": "0x4c0",
      "l1BlockNumber": "0x16864fd",
      "timeboosted": false
    },
    {
      "status": "0x1",
      "cumulativeGasUsed": "0xf829",
      "logs": [],
      "logsBloom": "0x00000000000000000000000000000000000000000000000000000000000000000000000000000000000000000000000000000000000000000000000000000000000000000000000000000000000000000000000000000000000000000000000000000000000000000000000000000000000000000000000000000000000000000000000000000000000000000000000000000000000000000000000000000000000000000000000000000000000000000000000000000000000000000000000000000000000000000000000000000000000000000000000000000000000000000000000000000000000000000000000000000000000000000000000000000000",
      "type": "0x2",
      "transactionHash": "0xe3fb38eb955181fc6f5b80dfe749ef133793df2c8e6912dbb9a52435f9a17a4a",
      "transactionIndex": "0x2",
      "blockHash": "0xa145af4bd76411a16625dce8d19ccf11ffc43322f63d9102a0b9e84d7b77cd34",
      "blockNumber": "0x175610d7",
      "gasUsed": "0x69da",
      "effectiveGasPrice": "0x989680",
      "from": "0xee03621ce83bbf6e3931bccf35b144354f16ccf7",
      "to": "0x8868e3511c2c47ac55106c21f958e6cf1cbc1766",
      "contractAddress": null,
      "gasUsedForL1": "0x287",
      "l1BlockNumber": "0x16864fd",
      "timeboosted": false
    },
    {
      "status": "0x1",
      "cumulativeGasUsed": "0x7260",
      "logs": [
        {
          "address": "0xcc0563f952fadb3a7d54a448aeb079d7d8f849fa",
          "topics": [
            "0x08bb8a5c04b030742c31bf3ed154a8ee0a26b42d6edea42acb7a82eefbe8366b"
          ],
          "data": "0x000000000000000000000000000000000000000000000000000000000000a4b10000000000000000000000008868e3511c2c47ac55106c21f958e6cf1cbc1766",
          "blockHash": "0x872c3664b7a325efc5e9d60c0c236abe7e562857a5bf19676948f83a6dbd0f77",
          "blockNumber": "0x175610de",
          "transactionHash": "0xf84dee881932d8cee860f5c1b9c80f4f776414fd1f77f129e70d0eb0f0565e8d",
          "transactionIndex": "0x1",
          "logIndex": "0x0",
          "removed": false
        }
      ],
      "logsBloom": "0x00000000000000000000000000000000000000000000000000002000000000000000000000000000000000000000000000000000000000000000000000000000000000000000000000000000000000000000000000000000000000000000000000000000000000000000000000000000000000000000000000000040000000000000000000000000000000000000000000000000000020000010000000000000000000000000000000000000000000000000000000000000000000000000000000000000000000000000000000000000000000000000000000000000000000000000000000000000000000000000000000000000000000200000040000000000",
      "type": "0x2",
      "transactionHash": "0xf84dee881932d8cee860f5c1b9c80f4f776414fd1f77f129e70d0eb0f0565e8d",
      "transactionIndex": "0x1",
      "blockHash": "0x872c3664b7a325efc5e9d60c0c236abe7e562857a5bf19676948f83a6dbd0f77",
      "blockNumber": "0x175610de",
      "gasUsed": "0x7260",
      "effectiveGasPrice": "0x989680",
      "from": "0xee03621ce83bbf6e3931bccf35b144354f16ccf7",
      "to": "0xcc0563f952fadb3a7d54a448aeb079d7d8f849fa",
      "contractAddress": null,
      "gasUsedForL1": "0x319",
      "l1BlockNumber": "0x16864fd",
      "timeboosted": false
    }
  ],
  "libraries": [],
  "pending": [],
  "returns": {},
  "timestamp": 1760963322268,
  "chain": 42161,
  "commit": "fbbea34"
}