{
  "transactions": [
    {
      "hash": "0x84456c0bd6d5b2a568908578f4f64c7d88d835ba45b1f809b5230a638fbebd24",
      "transactionType": "CREATE",
      "contractName": "OAppBorrow",
      "contractAddress": "0x23c5462bcd096abfdfe9a845a9e1ec06bea3f81b",
      "function": null,
      "arguments": [
        "0x1a44076050125825900e736c501f859c50fE728c",
        "0xEe03621Ce83BbF6e3931BcCf35b144354F16ccf7"
      ],
      "transaction": {
        "from": "0xee03621ce83bbf6e3931bccf35b144354f16ccf7",
        "gas": "0x373926",
        "value": "0x0",
        "input": "0x60a060405234801561000f575f5ffd5b50604051613293380380613293833981810160405281019061003191906102e1565b81818181845f73ffffffffffffffffffffffffffffffffffffffff168173ffffffffffffffffffffffffffffffffffffffff16036100a6575f6040517f1e4fbdf700000000000000000000000000000000000000000000000000000000815260040161009d919061032e565b60405180910390fd5b6100b5816101c260201b60201c565b508173ffffffffffffffffffffffffffffffffffffffff1660808173ffffffffffffffffffffffffffffffffffffffff16815250505f73ffffffffffffffffffffffffffffffffffffffff168173ffffffffffffffffffffffffffffffffffffffff160361014f576040517fb586360400000000000000000000000000000000000000000000000000000000815260040160405180910390fd5b60805173ffffffffffffffffffffffffffffffffffffffff1663ca5eb5e1826040518263ffffffff1660e01b815260040161018a919061032e565b5f604051808303815f87803b1580156101a1575f5ffd5b505af11580156101b3573d5f5f3e3d5ffd5b50505050505050505050610347565b5f5f5f9054906101000a900473ffffffffffffffffffffffffffffffffffffffff169050815f5f6101000a81548173ffffffffffffffffffffffffffffffffffffffff021916908373ffffffffffffffffffffffffffffffffffffffff1602179055508173ffffffffffffffffffffffffffffffffffffffff168173ffffffffffffffffffffffffffffffffffffffff167f8be0079c531659141344cd1fd0a4f28419497f9722a3daafe3b4186f6b6457e060405160405180910390a35050565b5f5ffd5b5f73ffffffffffffffffffffffffffffffffffffffff82169050919050565b5f6102b082610287565b9050919050565b6102c0816102a6565b81146102ca575f5ffd5b50565b5f815190506102db816102b7565b92915050565b5f5f604083850312156102f7576102f6610283565b5b5f610304858286016102cd565b9250506020610315858286016102cd565b9150509250929050565b610328816102a6565b82525050565b5f6020820190506103415f83018461031f565b92915050565b608051612f0a6103895f395f81816105e70152818161084b01528181610d590152818161125501528181611342015281816115e101526116d90152612f0a5ff3fe60806040526004361061013f575f3560e01c80638da5cb5b116100b5578063bc70b3541161006e578063bc70b35414610432578063c0d786551461046e578063ca5eb5e114610496578063f2fde38b146104be578063f887ea40146104e6578063ff7bd03d146105105761013f565b80638da5cb5b14610322578063919edb471461034c5780639ff75c2314610368578063a59a9973146103a4578063b98bd070146103ce578063bb0b6a53146103f65761013f565b80633400288b116101075780633400288b146102065780635535d4611461022e5780635e280f111461026a578063715018a6146102945780637d25a05e146102aa57806382413eac146102e65761013f565b8063113aa8b11461014357806313137d651461016b57806317442b70146101875780631f5e1334146101b257806332970710146101dc575b5f5ffd5b34801561014e575f5ffd5b50610169600480360381019061016491906118f3565b61054c565b005b610185600480360381019061018091906119d4565b6105ce565b005b348015610192575f5ffd5b5061019b6106ee565b6040516101a9929190611aad565b60405180910390f35b3480156101bd575f5ffd5b506101c66106fc565b6040516101d39190611af0565b60405180910390f35b3480156101e7575f5ffd5b506101f0610701565b6040516101fd9190611b79565b60405180910390f35b348015610211575f5ffd5b5061022c60048036038101906102279190611bd2565b61078d565b005b348015610239575f5ffd5b50610254600480360381019061024f9190611c3a565b6107a3565b6040516102619190611b79565b60405180910390f35b348015610275575f5ffd5b5061027e610849565b60405161028b9190611cd3565b60405180910390f35b34801561029f575f5ffd5b506102a861086d565b005b3480156102b5575f5ffd5b506102d060048036038101906102cb9190611bd2565b610880565b6040516102dd9190611cec565b60405180910390f35b3480156102f1575f5ffd5b5061030c60048036038101906103079190611d05565b61088a565b6040516103199190611d90565b60405180910390f35b34801561032d575f5ffd5b506103366108c4565b6040516103439190611db8565b60405180910390f35b61036660048036038101906103619190611e04565b6108eb565b005b348015610373575f5ffd5b5061038e60048036038101906103899190611eb2565b610a55565b60405161039b9190611f84565b60405180910390f35b3480156103af575f5ffd5b506103b8610aa7565b6040516103c59190611db8565b60405180910390f35b3480156103d9575f5ffd5b506103f460048036038101906103ef9190611ff2565b610acc565b005b348015610401575f5ffd5b5061041c6004803603810190610417919061203d565b610aed565b6040516104299190612077565b60405180910390f35b34801561043d575f5ffd5b5061045860048036038101906104539190612090565b610b02565b6040516104659190611b79565b60405180910390f35b348015610479575f5ffd5b50610494600480360381019061048f91906118f3565b610d04565b005b3480156104a1575f5ffd5b506104bc60048036038101906104b791906118f3565b610d4f565b005b3480156104c9575f5ffd5b506104e460048036038101906104df91906118f3565b610de0565b005b3480156104f1575f5ffd5b506104fa610e64565b6040516105079190611db8565b60405180910390f35b34801561051b575f5ffd5b5061053660048036038101906105319190612101565b610e89565b6040516105439190611d90565b60405180910390f35b610554610ec6565b8060045f6101000a81548173ffffffffffffffffffffffffffffffffffffffff021916908373ffffffffffffffffffffffffffffffffffffffff1602179055507f7c3dfe69126e8f8130fd09c600fd8fcba2acbe0c696d598c771f23a12ce811df816040516105c39190611db8565b60405180910390a150565b3373ffffffffffffffffffffffffffffffffffffffff167f000000000000000000000000000000000000000000000000000000000000000073ffffffffffffffffffffffffffffffffffffffff161461065e57336040517f91ac5e4f0000000000000000000000000000000000000000000000000000000081526004016106559190611db8565b60405180910390fd5b866020013561067d885f016020810190610678919061203d565b610f4d565b146106d657865f016020810190610694919061203d565b87602001356040517fc26bebcc0000000000000000000000000000000000000000000000000000000081526004016106cd92919061213b565b60405180910390fd5b6106e587878787878787610fbe565b50505050505050565b5f5f60016002915091509091565b600181565b6003805461070e9061218f565b80601f016020809104026020016040519081016040528092919081815260200182805461073a9061218f565b80156107855780601f1061075c57610100808354040283529160200191610785565b820191905f5260205f20905b81548152906001019060200180831161076857829003601f168201915b505050505081565b610795610ec6565b61079f8282611102565b5050565b6002602052815f5260405f20602052805f5260405f205f915091505080546107ca9061218f565b80601f01602080910402602001604051908101604052809291908181526020018280546107f69061218f565b80156108415780601f1061081857610100808354040283529160200191610841565b820191905f5260205f20905b81548152906001019060200180831161082457829003601f168201915b505050505081565b7f000000000000000000000000000000000000000000000000000000000000000081565b610875610ec6565b61087e5f611161565b565b5f5f905092915050565b5f3073ffffffffffffffffffffffffffffffffffffffff168273ffffffffffffffffffffffffffffffffffffffff16149050949350505050565b5f5f5f9054906101000a900473ffffffffffffffffffffffffffffffffffffffff16905090565b60055f9054906101000a900473ffffffffffffffffffffffffffffffffffffffff1673ffffffffffffffffffffffffffffffffffffffff166361d0dae584876040518363ffffffff1660e01b81526004016109479291906121ef565b602060405180830381865afa158015610962573d5f5f3e3d5ffd5b505050506040513d601f19601f82011682018060405250810190610986919061222a565b92505f73ffffffffffffffffffffffffffffffffffffffff168373ffffffffffffffffffffffffffffffffffffffff16036109fa5782856040517f27eb165b0000000000000000000000000000000000000000000000000000000081526004016109f1929190612255565b60405180910390fd5b5f8484604051602001610a0e92919061228b565b6040516020818303038152906040529050610a4c8682610a318960018888610b02565b60405180604001604052803481526020015f81525033611222565b50505050505050565b610a5d611841565b5f8686604051602001610a7192919061228b565b6040516020818303038152906040529050610a9a8882610a948b60018a8a610b02565b86611338565b9150509695505050505050565b60045f9054906101000a900473ffffffffffffffffffffffffffffffffffffffff1681565b610ad4610ec6565b610ae9828290610ae49190612510565b611419565b5050565b6001602052805f5260405f205f915090505481565b60605f60025f8763ffffffff1663ffffffff1681526020019081526020015f205f8661ffff1661ffff1681526020019081526020015f208054610b449061218f565b80601f0160208091040260200160405190810160405280929190818152602001828054610b709061218f565b8015610bbb5780601f10610b9257610100808354040283529160200191610bbb565b820191905f5260205f20905b815481529060010190602001808311610b9e57829003601f168201915b505050505090505f815103610c165783838080601f0160208091040260200160405190810160405280939291908181526020018383808284375f81840152601f19601f82011690508083019250505050505050915050610cfc565b5f8484905003610c295780915050610cfc565b60028484905010610cbd57610c8084848080601f0160208091040260200160405190810160405280939291908181526020018383808284375f81840152601f19601f82011690508083019250505050505050611531565b8084846002908092610c949392919061252c565b604051602001610ca6939291906125c4565b604051602081830303815290604052915050610cfc565b83836040517f9a6d49cd000000000000000000000000000000000000000000000000000000008152600401610cf3929190612615565b60405180910390fd5b949350505050565b610d0c610ec6565b8060055f6101000a81548173ffffffffffffffffffffffffffffffffffffffff021916908373ffffffffffffffffffffffffffffffffffffffff16021790555050565b610d57610ec6565b7f000000000000000000000000000000000000000000000000000000000000000073ffffffffffffffffffffffffffffffffffffffff1663ca5eb5e1826040518263ffffffff1660e01b8152600401610db09190611db8565b5f604051808303815f87803b158015610dc7575f5ffd5b505af1158015610dd9573d5f5f3e3d5ffd5b5050505050565b610de8610ec6565b5f73ffffffffffffffffffffffffffffffffffffffff168173ffffffffffffffffffffffffffffffffffffffff1603610e58575f6040517f1e4fbdf7000000000000000000000000000000000000000000000000000000008152600401610e4f9190611db8565b60405180910390fd5b610e6181611161565b50565b60055f9054906101000a900473ffffffffffffffffffffffffffffffffffffffff1681565b5f816020013560015f845f016020810190610ea4919061203d565b63ffffffff1663ffffffff1681526020019081526020015f2054149050919050565b610ece61158a565b73ffffffffffffffffffffffffffffffffffffffff16610eec6108c4565b73ffffffffffffffffffffffffffffffffffffffff1614610f4b57610f0f61158a565b6040517f118cdaa7000000000000000000000000000000000000000000000000000000008152600401610f429190611db8565b60405180910390fd5b565b5f5f60015f8463ffffffff1663ffffffff1681526020019081526020015f205490505f5f1b8103610fb557826040517ff6ff4fb7000000000000000000000000000000000000000000000000000000008152600401610fac9190612637565b60405180910390fd5b80915050919050565b5f5f8686810190610fcf919061268b565b91509150868660039182610fe492919061286a565b505f89602001355f1c905060045f9054906101000a900473ffffffffffffffffffffffffffffffffffffffff1673ffffffffffffffffffffffffffffffffffffffff1663fbf37739828486466040518563ffffffff1660e01b815260040161104f9493929190612937565b5f604051808303815f87803b158015611066575f5ffd5b505af1158015611078573d5f5f3e3d5ffd5b505050508073ffffffffffffffffffffffffffffffffffffffff168a5f0160208101906110a5919061203d565b63ffffffff167f1660e7e697bba926221b091a71bfee8ce9db3dad7a9ae9398a9a1fc7e7ac265b8c60400160208101906110df91906129a4565b856040516110ee9291906129cf565b60405180910390a350505050505050505050565b8060015f8463ffffffff1663ffffffff1681526020019081526020015f20819055507f238399d427b947898edb290f5ff0f9109849b1c3ba196a42e35f00c50a54b98b828260405161115592919061213b565b60405180910390a15050565b5f5f5f9054906101000a900473ffffffffffffffffffffffffffffffffffffffff169050815f5f6101000a81548173ffffffffffffffffffffffffffffffffffffffff021916908373ffffffffffffffffffffffffffffffffffffffff1602179055508173ffffffffffffffffffffffffffffffffffffffff168173ffffffffffffffffffffffffffffffffffffffff167f8be0079c531659141344cd1fd0a4f28419497f9722a3daafe3b4186f6b6457e060405160405180910390a35050565b61122a611859565b5f611237845f0151611591565b90505f846020015111156112535761125284602001516115de565b5b7f000000000000000000000000000000000000000000000000000000000000000073ffffffffffffffffffffffffffffffffffffffff16632637a450826040518060a001604052808b63ffffffff1681526020016112b08c610f4d565b81526020018a81526020018981526020015f8960200151111515815250866040518463ffffffff1660e01b81526004016112eb929190612ae5565b60806040518083038185885af1158015611307573d5f5f3e3d5ffd5b50505050506040513d601f19601f8201168201806040525081019061132c9190612bfd565b91505095945050505050565b611340611841565b7f000000000000000000000000000000000000000000000000000000000000000073ffffffffffffffffffffffffffffffffffffffff1663ddc28c586040518060a001604052808863ffffffff16815260200161139c89610f4d565b8152602001878152602001868152602001851515815250306040518363ffffffff1660e01b81526004016113d1929190612ae5565b6040805180830381865afa1580156113eb573d5f5f3e3d5ffd5b505050506040513d601f19601f8201168201806040525081019061140f9190612c28565b9050949350505050565b5f5f90505b81518110156114f65761144e82828151811061143d5761143c612c53565b5b602002602001015160400151611531565b81818151811061146157611460612c53565b5b60200260200101516040015160025f84848151811061148357611482612c53565b5b60200260200101515f015163ffffffff1663ffffffff1681526020019081526020015f205f8484815181106114bb576114ba612c53565b5b60200260200101516020015161ffff1661ffff1681526020019081526020015f2090816114e89190612c80565b50808060010191505061141e565b507fbe4864a8e820971c0247f5992e2da559595f7bf076a21cb5928d443d2a13b674816040516115269190612e66565b60405180910390a150565b5f60028201519050600361ffff168161ffff161461158657816040517f9a6d49cd00000000000000000000000000000000000000000000000000000000815260040161157d9190611b79565b60405180910390fd5b5050565b5f33905090565b5f8134146115d657346040517f9f7041200000000000000000000000000000000000000000000000000000000081526004016115cd9190612e86565b60405180910390fd5b819050919050565b5f7f000000000000000000000000000000000000000000000000000000000000000073ffffffffffffffffffffffffffffffffffffffff1663e4fe1d946040518163ffffffff1660e01b8152600401602060405180830381865afa158015611648573d5f5f3e3d5ffd5b505050506040513d601f19601f8201168201806040525081019061166c919061222a565b90505f73ffffffffffffffffffffffffffffffffffffffff168173ffffffffffffffffffffffffffffffffffffffff16036116d3576040517f5373352a00000000000000000000000000000000000000000000000000000000815260040160405180910390fd5b611720337f0000000000000000000000000000000000000000000000000000000000000000848473ffffffffffffffffffffffffffffffffffffffff16611724909392919063ffffffff16565b5050565b6117a0848573ffffffffffffffffffffffffffffffffffffffff166323b872dd86868660405160240161175993929190612e9f565b604051602081830303815290604052915060e01b6020820180517bffffffffffffffffffffffffffffffffffffffffffffffffffffffff83818316178352505050506117a6565b50505050565b5f5f60205f8451602086015f885af1806117c5576040513d5f823e3d81fd5b3d92505f519150505f82146117de5760018114156117f9565b5f8473ffffffffffffffffffffffffffffffffffffffff163b145b1561183b57836040517f5274afe70000000000000000000000000000000000000000000000000000000081526004016118329190611db8565b60405180910390fd5b50505050565b60405180604001604052805f81526020015f81525090565b60405180606001604052805f81526020015f67ffffffffffffffff168152602001611882611841565b81525090565b5f604051905090565b5f5ffd5b5f5ffd5b5f73ffffffffffffffffffffffffffffffffffffffff82169050919050565b5f6118c282611899565b9050919050565b6118d2816118b8565b81146118dc575f5ffd5b50565b5f813590506118ed816118c9565b92915050565b5f6020828403121561190857611907611891565b5b5f611915848285016118df565b91505092915050565b5f5ffd5b5f606082840312156119375761193661191e565b5b81905092915050565b5f819050919050565b61195281611940565b811461195c575f5ffd5b50565b5f8135905061196d81611949565b92915050565b5f5ffd5b5f5ffd5b5f5ffd5b5f5f83601f84011261199457611993611973565b5b8235905067ffffffffffffffff8111156119b1576119b0611977565b5b6020830191508360018202830111156119cd576119cc61197b565b5b9250929050565b5f5f5f5f5f5f5f60e0888a0312156119ef576119ee611891565b5b5f6119fc8a828b01611922565b9750506060611a0d8a828b0161195f565b965050608088013567ffffffffffffffff811115611a2e57611a2d611895565b5b611a3a8a828b0161197f565b955095505060a0611a4d8a828b016118df565b93505060c088013567ffffffffffffffff811115611a6e57611a6d611895565b5b611a7a8a828b0161197f565b925092505092959891949750929550565b5f67ffffffffffffffff82169050919050565b611aa781611a8b565b82525050565b5f604082019050611ac05f830185611a9e565b611acd6020830184611a9e565b9392505050565b5f61ffff82169050919050565b611aea81611ad4565b82525050565b5f602082019050611b035f830184611ae1565b92915050565b5f81519050919050565b5f82825260208201905092915050565b8281835e5f83830152505050565b5f601f19601f8301169050919050565b5f611b4b82611b09565b611b558185611b13565b9350611b65818560208601611b23565b611b6e81611b31565b840191505092915050565b5f6020820190508181035f830152611b918184611b41565b905092915050565b5f63ffffffff82169050919050565b611bb181611b99565b8114611bbb575f5ffd5b50565b5f81359050611bcc81611ba8565b92915050565b5f5f60408385031215611be857611be7611891565b5b5f611bf585828601611bbe565b9250506020611c068582860161195f565b9150509250929050565b611c1981611ad4565b8114611c23575f5ffd5b50565b5f81359050611c3481611c10565b92915050565b5f5f60408385031215611c5057611c4f611891565b5b5f611c5d85828601611bbe565b9250506020611c6e85828601611c26565b9150509250929050565b5f819050919050565b5f611c9b611c96611c9184611899565b611c78565b611899565b9050919050565b5f611cac82611c81565b9050919050565b5f611cbd82611ca2565b9050919050565b611ccd81611cb3565b82525050565b5f602082019050611ce65f830184611cc4565b92915050565b5f602082019050611cff5f830184611a9e565b92915050565b5f5f5f5f60a08587031215611d1d57611d1c611891565b5b5f611d2a87828801611922565b945050606085013567ffffffffffffffff811115611d4b57611d4a611895565b5b611d578782880161197f565b93509350506080611d6a878288016118df565b91505092959194509250565b5f8115159050919050565b611d8a81611d76565b82525050565b5f602082019050611da35f830184611d81565b92915050565b611db2816118b8565b82525050565b5f602082019050611dcb5f830184611da9565b92915050565b5f819050919050565b611de381611dd1565b8114611ded575f5ffd5b50565b5f81359050611dfe81611dda565b92915050565b5f5f5f5f5f60808688031215611e1d57611e1c611891565b5b5f611e2a88828901611bbe565b9550506020611e3b88828901611df0565b9450506040611e4c888289016118df565b935050606086013567ffffffffffffffff811115611e6d57611e6c611895565b5b611e798882890161197f565b92509250509295509295909350565b611e9181611d76565b8114611e9b575f5ffd5b50565b5f81359050611eac81611e88565b92915050565b5f5f5f5f5f5f60a08789031215611ecc57611ecb611891565b5b5f611ed989828a01611bbe565b9650506020611eea89828a01611df0565b9550506040611efb89828a016118df565b945050606087013567ffffffffffffffff811115611f1c57611f1b611895565b5b611f2889828a0161197f565b93509350506080611f3b89828a01611e9e565b9150509295509295509295565b611f5181611dd1565b82525050565b604082015f820151611f6b5f850182611f48565b506020820151611f7e6020850182611f48565b50505050565b5f604082019050611f975f830184611f57565b92915050565b5f5f83601f840112611fb257611fb1611973565b5b8235905067ffffffffffffffff811115611fcf57611fce611977565b5b602083019150836020820283011115611feb57611fea61197b565b5b9250929050565b5f5f6020838503121561200857612007611891565b5b5f83013567ffffffffffffffff81111561202557612024611895565b5b61203185828601611f9d565b92509250509250929050565b5f6020828403121561205257612051611891565b5b5f61205f84828501611bbe565b91505092915050565b61207181611940565b82525050565b5f60208201905061208a5f830184612068565b92915050565b5f5f5f5f606085870312156120a8576120a7611891565b5b5f6120b587828801611bbe565b94505060206120c687828801611c26565b935050604085013567ffffffffffffffff8111156120e7576120e6611895565b5b6120f38782880161197f565b925092505092959194509250565b5f6060828403121561211657612115611891565b5b5f61212384828501611922565b91505092915050565b61213581611b99565b82525050565b5f60408201905061214e5f83018561212c565b61215b6020830184612068565b9392505050565b7f4e487b71000000000000000000000000000000000000000000000000000000005f52602260045260245ffd5b5f60028204905060018216806121a657607f821691505b6020821081036121b9576121b8612162565b5b50919050565b5f6121d96121d46121cf84611b99565b611c78565b611dd1565b9050919050565b6121e9816121bf565b82525050565b5f6040820190506122025f830185611da9565b61220f60208301846121e0565b9392505050565b5f81519050612224816118c9565b92915050565b5f6020828403121561223f5761223e611891565b5b5f61224c84828501612216565b91505092915050565b5f6040820190506122685f830185611da9565b612275602083018461212c565b9392505050565b61228581611dd1565b82525050565b5f60408201905061229e5f83018561227c565b6122ab6020830184611da9565b9392505050565b7f4e487b71000000000000000000000000000000000000000000000000000000005f52604160045260245ffd5b6122e882611b31565b810181811067ffffffffffffffff82111715612307576123066122b2565b5b80604052505050565b5f612319611888565b905061232582826122df565b919050565b5f67ffffffffffffffff821115612344576123436122b2565b5b602082029050602081019050919050565b5f5ffd5b5f5ffd5b5f5ffd5b5f67ffffffffffffffff82111561237b5761237a6122b2565b5b61238482611b31565b9050602081019050919050565b828183375f83830152505050565b5f6123b16123ac84612361565b612310565b9050828152602081018484840111156123cd576123cc61235d565b5b6123d8848285612391565b509392505050565b5f82601f8301126123f4576123f3611973565b5b813561240484826020860161239f565b91505092915050565b5f6060828403121561242257612421612355565b5b61242c6060612310565b90505f61243b84828501611bbe565b5f83015250602061244e84828501611c26565b602083015250604082013567ffffffffffffffff81111561247257612471612359565b5b61247e848285016123e0565b60408301525092915050565b5f61249c6124978461232a565b612310565b905080838252602082019050602084028301858111156124bf576124be61197b565b5b835b8181101561250657803567ffffffffffffffff8111156124e4576124e3611973565b5b8086016124f1898261240d565b855260208501945050506020810190506124c1565b5050509392505050565b5f61251c36848461248a565b905092915050565b5f5ffd5b5f5ffd5b5f5f8585111561253f5761253e612524565b5b838611156125505761254f612528565b5b6001850283019150848603905094509492505050565b5f81905092915050565b5f61257a82611b09565b6125848185612566565b9350612594818560208601611b23565b80840191505092915050565b5f6125ab8385612566565b93506125b8838584612391565b82840190509392505050565b5f6125cf8286612570565b91506125dc8284866125a0565b9150819050949350505050565b5f6125f48385611b13565b9350612601838584612391565b61260a83611b31565b840190509392505050565b5f6020820190508181035f83015261262e8184866125e9565b90509392505050565b5f60208201905061264a5f83018461212c565b92915050565b5f61265a82611899565b9050919050565b61266a81612650565b8114612674575f5ffd5b50565b5f8135905061268581612661565b92915050565b5f5f604083850312156126a1576126a0611891565b5b5f6126ae85828601611df0565b92505060206126bf85828601612677565b9150509250929050565b5f82905092915050565b5f819050815f5260205f209050919050565b5f6020601f8301049050919050565b5f82821b905092915050565b5f6008830261272f7fffffffffffffffffffffffffffffffffffffffffffffffffffffffffffffffff826126f4565b61273986836126f4565b95508019841693508086168417925050509392505050565b5f61276b61276661276184611dd1565b611c78565b611dd1565b9050919050565b5f819050919050565b61278483612751565b61279861279082612772565b848454612700565b825550505050565b5f5f905090565b6127af6127a0565b6127ba81848461277b565b505050565b5b818110156127dd576127d25f826127a7565b6001810190506127c0565b5050565b601f821115612822576127f3816126d3565b6127fc846126e5565b8101602085101561280b578190505b61281f612817856126e5565b8301826127bf565b50505b505050565b5f82821c905092915050565b5f6128425f1984600802612827565b1980831691505092915050565b5f61285a8383612833565b9150826002028217905092915050565b61287483836126c9565b67ffffffffffffffff81111561288d5761288c6122b2565b5b612897825461218f565b6128a28282856127e1565b5f601f8311600181146128cf575f84156128bd578287013590505b6128c7858261284f565b86555061292e565b601f1984166128dd866126d3565b5f5b82811015612904578489013582556001820191506020850194506020810190506128df565b86831015612921578489013561291d601f891682612833565b8355505b6001600288020188555050505b50505050505050565b5f60808201905061294a5f830187611da9565b6129576020830186611da9565b612964604083018561227c565b612971606083018461227c565b95945050505050565b61298381611a8b565b811461298d575f5ffd5b50565b5f8135905061299e8161297a565b92915050565b5f602082840312156129b9576129b8611891565b5b5f6129c684828501612990565b91505092915050565b5f6040820190506129e25f830185611a9e565b6129ef6020830184611da9565b9392505050565b6129ff81611b99565b82525050565b612a0e81611940565b82525050565b5f82825260208201905092915050565b5f612a2e82611b09565b612a388185612a14565b9350612a48818560208601611b23565b612a5181611b31565b840191505092915050565b612a6581611d76565b82525050565b5f60a083015f830151612a805f8601826129f6565b506020830151612a936020860182612a05565b5060408301518482036040860152612aab8282612a24565b91505060608301518482036060860152612ac58282612a24565b9150506080830151612ada6080860182612a5c565b508091505092915050565b5f6040820190508181035f830152612afd8185612a6b565b9050612b0c6020830184611da9565b9392505050565b5f81519050612b2181611949565b92915050565b5f81519050612b358161297a565b92915050565b5f81519050612b4981611dda565b92915050565b5f60408284031215612b6457612b63612355565b5b612b6e6040612310565b90505f612b7d84828501612b3b565b5f830152506020612b9084828501612b3b565b60208301525092915050565b5f60808284031215612bb157612bb0612355565b5b612bbb6060612310565b90505f612bca84828501612b13565b5f830152506020612bdd84828501612b27565b6020830152506040612bf184828501612b4f565b60408301525092915050565b5f60808284031215612c1257612c11611891565b5b5f612c1f84828501612b9c565b91505092915050565b5f60408284031215612c3d57612c3c611891565b5b5f612c4a84828501612b4f565b91505092915050565b7f4e487b71000000000000000000000000000000000000000000000000000000005f52603260045260245ffd5b612c8982611b09565b67ffffffffffffffff811115612ca257612ca16122b2565b5b612cac825461218f565b612cb78282856127e1565b5f60209050601f831160018114612ce8575f8415612cd6578287015190505b612ce0858261284f565b865550612d47565b601f198416612cf6866126d3565b5f5b82811015612d1d57848901518255600182019150602085019450602081019050612cf8565b86831015612d3a5784890151612d36601f891682612833565b8355505b6001600288020188555050505b505050505050565b5f81519050919050565b5f82825260208201905092915050565b5f819050602082019050919050565b612d8181611ad4565b82525050565b5f606083015f830151612d9c5f8601826129f6565b506020830151612daf6020860182612d78565b5060408301518482036040860152612dc78282612a24565b9150508091505092915050565b5f612ddf8383612d87565b905092915050565b5f602082019050919050565b5f612dfd82612d4f565b612e078185612d59565b935083602082028501612e1985612d69565b805f5b85811015612e545784840389528151612e358582612dd4565b9450612e4083612de7565b925060208a01995050600181019050612e1c565b50829750879550505050505092915050565b5f6020820190508181035f830152612e7e8184612df3565b905092915050565b5f602082019050612e995f83018461227c565b92915050565b5f606082019050612eb25f830186611da9565b612ebf6020830185611da9565b612ecc604083018461227c565b94935050505056fea2646970667358221220fd70cae4e32b1e5e941aafbc2aee79f68afe606e004fae0da951e79b7e9bb0a264736f6c634300081e00330000000000000000000000001a44076050125825900e736c501f859c50fe728c000000000000000000000000ee03621ce83bbf6e3931bccf35b144354f16ccf7",
        "nonce": "0x53",
        "chainId": "0xa4b1"
      },
      "additionalContracts": [],
      "isFixedGasLimit": false
    },
    {
      "hash": "0xfa3c2891174762b7778544181bdfabb039a71c20bbc76dc531413cbb478b3aeb",
      "transactionType": "CALL",
      "contractName": "OAppBorrow",
      "contractAddress": "0x23c5462bcd096abfdfe9a845a9e1ec06bea3f81b",
      "function": "setLendingPool(address)",
      "arguments": [
        "0x7FB63D9Faf99A34bCA04EFd5BA7F75dC6DB37f4D"
      ],
      "transaction": {
        "from": "0xee03621ce83bbf6e3931bccf35b144354f16ccf7",
        "to": "0x23c5462bcd096abfdfe9a845a9e1ec06bea3f81b",
        "gas": "0x74df",
        "value": "0x0",
        "input": "0x113aa8b10000000000000000000000007fb63d9faf99a34bca04efd5ba7f75dc6db37f4d",
        "nonce": "0x54",
        "chainId": "0xa4b1"
      },
      "additionalContracts": [],
      "isFixedGasLimit": false
    },
    {
      "hash": "0x7d71b3f402632c6d084329d01f4e4f004db5ca839ccd90daaafa529c2a9dd8ee",
      "transactionType": "CALL",
      "contractName": null,
      "contractAddress": "0x1a44076050125825900e736c501f859c50fe728c",
      "function": "setSendLibrary(address,uint32,address)",
      "arguments": [
        "0x23c5462BcD096AbFdFe9A845A9E1Ec06bEa3F81B",
        "30110",
        "0x975bcD720be66659e3EB3C0e4F1866a3020E493A"
      ],
      "transaction": {
        "from": "0xee03621ce83bbf6e3931bccf35b144354f16ccf7",
        "to": "0x1a44076050125825900e736c501f859c50fe728c",
        "gas": "0x1378b",
        "value": "0x0",
        "input": "0x9535ff3000000000000000000000000023c5462bcd096abfdfe9a845a9e1ec06bea3f81b000000000000000000000000000000000000000000000000000000000000759e000000000000000000000000975bcd720be66659e3eb3c0e4f1866a3020e493a",
        "nonce": "0x55",
        "chainId": "0xa4b1"
      },
      "additionalContracts": [],
      "isFixedGasLimit": false
    },
    {
      "hash": "0x1eab8b1d17c3e1fc9e1688e0971818596fd7cd09c8e397d3c7b8f55b5cc4e618",
      "transactionType": "CALL",
      "contractName": null,
      "contractAddress": "0x1a44076050125825900e736c501f859c50fe728c",
      "function": "setSendLibrary(address,uint32,address)",
      "arguments": [
        "0x23c5462BcD096AbFdFe9A845A9E1Ec06bEa3F81B",
        "30184",
        "0x975bcD720be66659e3EB3C0e4F1866a3020E493A"
      ],
      "transaction": {
        "from": "0xee03621ce83bbf6e3931bccf35b144354f16ccf7",
        "to": "0x1a44076050125825900e736c501f859c50fe728c",
        "gas": "0x1378b",
        "value": "0x0",
        "input": "0x9535ff3000000000000000000000000023c5462bcd096abfdfe9a845a9e1ec06bea3f81b00000000000000000000000000000000000000000000000000000000000075e8000000000000000000000000975bcd720be66659e3eb3c0e4f1866a3020e493a",
        "nonce": "0x56",
        "chainId": "0xa4b1"
      },
      "additionalContracts": [],
      "isFixedGasLimit": false
    },
    {
      "hash": "0x99df26773bd6db222d77586a2b172790250a7991690ab7ad312f303bc9f88fec",
      "transactionType": "CALL",
      "contractName": null,
      "contractAddress": "0x1a44076050125825900e736c501f859c50fe728c",
      "function": "setReceiveLibrary(address,uint32,address,uint256)",
      "arguments": [
        "0x23c5462BcD096AbFdFe9A845A9E1Ec06bEa3F81B",
        "30110",
        "0x7B9E184e07a6EE1aC23eAe0fe8D6Be2f663f05e6",
        "0"
      ],
      "transaction": {
        "from": "0xee03621ce83bbf6e3931bccf35b144354f16ccf7",
        "to": "0x1a44076050125825900e736c501f859c50fe728c",
        "gas": "0x17001",
        "value": "0x0",
        "input": "0x6a14d71500000000000000000000000023c5462bcd096abfdfe9a845a9e1ec06bea3f81b000000000000000000000000000000000000000000000000000000000000759e0000000000000000000000007b9e184e07a6ee1ac23eae0fe8d6be2f663f05e60000000000000000000000000000000000000000000000000000000000000000",
        "nonce": "0x57",
        "chainId": "0xa4b1"
      },
      "additionalContracts": [],
      "isFixedGasLimit": false
    },
    {
      "hash": "0xd0660aaf34d39ea3b0c09519591e54911cfd6b188522813526aa9e33a28e36d4",
      "transactionType": "CALL",
      "contractName": null,
      "contractAddress": "0x1a44076050125825900e736c501f859c50fe728c",
      "function": "setConfig(address,address,(uint32,uint32,bytes)[])",
      "arguments": [
        "0x23c5462BcD096AbFdFe9A845A9E1Ec06bEa3F81B",
        "0x975bcD720be66659e3EB3C0e4F1866a3020E493A",
        "[(30110, 1, 0x000000000000000000000000000000000000000000000000000000000000271000000000000000000000000031cae3b7fb82d847621859fb1585353c5720660d), (30110, 2, 0x0000000000000000000000000000000000000000000000000000000000000020000000000000000000000000000000000000000000000000000000000000000f000000000000000000000000000000000000000000000000000000000000000200000000000000000000000000000000000000000000000000000000000000ff000000000000000000000000000000000000000000000000000000000000000000000000000000000000000000000000000000000000000000000000000000c00000000000000000000000000000000000000000000000000000000000000120000000000000000000000000000000000000000000000000000000000000000200000000000000000000000019670df5e16bea2ba9b9e68b48c054c5baea06b8000000000000000000000000f2e380c90e6c09721297526dbc74f870e114dfcb0000000000000000000000000000000000000000000000000000000000000000), (30184, 1, 0x000000000000000000000000000000000000000000000000000000000000271000000000000000000000000031cae3b7fb82d847621859fb1585353c5720660d), (30184, 2, 0x0000000000000000000000000000000000000000000000000000000000000020000000000000000000000000000000000000000000000000000000000000000f000000000000000000000000000000000000000000000000000000000000000200000000000000000000000000000000000000000000000000000000000000ff000000000000000000000000000000000000000000000000000000000000000000000000000000000000000000000000000000000000000000000000000000c00000000000000000000000000000000000000000000000000000000000000120000000000000000000000000000000000000000000000000000000000000000200000000000000000000000019670df5e16bea2ba9b9e68b48c054c5baea06b8000000000000000000000000f2e380c90e6c09721297526dbc74f870e114dfcb0000000000000000000000000000000000000000000000000000000000000000)]"
      ],
      "transaction": {
        "from": "0xee03621ce83bbf6e3931bccf35b144354f16ccf7",
        "to": "0x1a44076050125825900e736c501f859c50fe728c",
        "gas": "0x6607c",
        "value": "0x0",
        "input": "0x6dbd9f9000000000000000000000000023c5462bcd096abfdfe9a845a9e1ec06bea3f81b000000000000000000000000975bcd720be66659e3eb3c0e4f1866a3020e493a0000000000000000000000000000000000000000000000000000000000000060000000000000000000000000000000000000000000000000000000000000000400000000000000000000000000000000000000000000000000000000000000800000000000000000000000000000000000000000000000000000000000000140000000000000000000000000000000000000000000000000000000000000032000000000000000000000000000000000000000000000000000000000000003e0000000000000000000000000000000000000000000000000000000000000759e000000000000000000000000000000000000000000000000000000000000000100000000000000000000000000000000000000000000000000000000000000600000000000000000000000000000000000000000000000000000000000000040000000000000000000000000000000000000000000000000000000000000271000000000000000000000000031cae3b7fb82d847621859fb1585353c5720660d000000000000000000000000000000000000000000000000000000000000759e0000000000000000000000000000000000000000000000000000000000000002000000000000000000000000000000000000000000000000000000000000006000000000000000000000000000000000000000000000000000000000000001600000000000000000000000000000000000000000000000000000000000000020000000000000000000000000000000000000000000000000000000000000000f000000000000000000000000000000000000000000000000000000000000000200000000000000000000000000000000000000000000000000000000000000ff000000000000000000000000000000000000000000000000000000000000000000000000000000000000000000000000000000000000000000000000000000c00000000000000000000000000000000000000000000000000000000000000120000000000000000000000000000000000000000000000000000000000000000200000000000000000000000019670df5e16bea2ba9b9e68b48c054c5baea06b8000000000000000000000000f2e380c90e6c09721297526dbc74f870e114dfcb000000000000000000000000000000000000000000000000000000000000000000000000000000000000000000000000000000000000000000000000000075e8000000000000000000000000000000000000000000000000000000000000000100000000000000000000000000000000000000000000000000000000000000600000000000000000000000000000000000000000000000000000000000000040000000000000000000000000000000000000000000000000000000000000271000000000000000000000000031cae3b7fb82d847621859fb1585353c5720660d00000000000000000000000000000000000000000000000000000000000075e80000000000000000000000000000000000000000000000000000000000000002000000000000000000000000000000000000000000000000000000000000006000000000000000000000000000000000000000000000000000000000000001600000000000000000000000000000000000000000000000000000000000000020000000000000000000000000000000000000000000000000000000000000000f000000000000000000000000000000000000000000000000000000000000000200000000000000000000000000000000000000000000000000000000000000ff000000000000000000000000000000000000000000000000000000000000000000000000000000000000000000000000000000000000000000000000000000c00000000000000000000000000000000000000000000000000000000000000120000000000000000000000000000000000000000000000000000000000000000200000000000000000000000019670df5e16bea2ba9b9e68b48c054c5baea06b8000000000000000000000000f2e380c90e6c09721297526dbc74f870e114dfcb0000000000000000000000000000000000000000000000000000000000000000",
        "nonce": "0x58",
        "chainId": "0xa4b1"
      },
      "additionalContracts": [],
      "isFixedGasLimit": false
    },
    {
      "hash": "0xb56c222373306e7cb753ba1b89be113c3ac0803b66c36ff96d92a5d33f8fb7d9",
      "transactionType": "CALL",
      "contractName": null,
      "contractAddress": "0x1a44076050125825900e736c501f859c50fe728c",
      "function": "setConfig(address,address,(uint32,uint32,bytes)[])",
      "arguments": [
        "0x23c5462BcD096AbFdFe9A845A9E1Ec06bEa3F81B",
        "0x7B9E184e07a6EE1aC23eAe0fe8D6Be2f663f05e6",
        "[(30110, 2, 0x0000000000000000000000000000000000000000000000000000000000000020000000000000000000000000000000000000000000000000000000000000000f000000000000000000000000000000000000000000000000000000000000000200000000000000000000000000000000000000000000000000000000000000ff000000000000000000000000000000000000000000000000000000000000000000000000000000000000000000000000000000000000000000000000000000c00000000000000000000000000000000000000000000000000000000000000120000000000000000000000000000000000000000000000000000000000000000200000000000000000000000019670df5e16bea2ba9b9e68b48c054c5baea06b8000000000000000000000000f2e380c90e6c09721297526dbc74f870e114dfcb0000000000000000000000000000000000000000000000000000000000000000), (30184, 2, 0x0000000000000000000000000000000000000000000000000000000000000020000000000000000000000000000000000000000000000000000000000000000f000000000000000000000000000000000000000000000000000000000000000200000000000000000000000000000000000000000000000000000000000000ff000000000000000000000000000000000000000000000000000000000000000000000000000000000000000000000000000000000000000000000000000000c00000000000000000000000000000000000000000000000000000000000000120000000000000000000000000000000000000000000000000000000000000000200000000000000000000000019670df5e16bea2ba9b9e68b48c054c5baea06b8000000000000000000000000f2e380c90e6c09721297526dbc74f870e114dfcb0000000000000000000000000000000000000000000000000000000000000000)]"
      ],
      "transaction": {
        "from": "0xee03621ce83bbf6e3931bccf35b144354f16ccf7",
        "to": "0x1a44076050125825900e736c501f859c50fe728c",
        "gas": "0x5818a",
        "value": "0x0",
        "input": "0x6dbd9f9000000000000000000000000023c5462bcd096abfdfe9a845a9e1ec06bea3f81b0000000000000000000000007b9e184e07a6ee1ac23eae0fe8d6be2f663f05e60000000000000000000000000000000000000000000000000000000000000060000000000000000000000000000000000000000000000000000000000000000200000000000000000000000000000000000000000000000000000000000000400000000000000000000000000000000000000000000000000000000000000220000000000000000000000000000000000000000000000000000000000000759e0000000000000000000000000000000000000000000000000000000000000002000000000000000000000000000000000000000000000000000000000000006000000000000000000000000000000000000000000000000000000000000001600000000000000000000000000000000000000000000000000000000000000020000000000000000000000000000000000000000000000000000000000000000f000000000000000000000000000000000000000000000000000000000000000200000000000000000000000000000000000000000000000000000000000000ff000000000000000000000000000000000000000000000000000000000000000000000000000000000000000000000000000000000000000000000000000000c00000000000000000000000000000000000000000000000000000000000000120000000000000000000000000000000000000000000000000000000000000000200000000000000000000000019670df5e16bea2ba9b9e68b48c054c5baea06b8000000000000000000000000f2e380c90e6c09721297526dbc74f870e114dfcb000000000000000000000000000000000000000000000000000000000000000000000000000000000000000000000000000000000000000000000000000075e80000000000000000000000000000000000000000000000000000000000000002000000000000000000000000000000000000000000000000000000000000006000000000000000000000000000000000000000000000000000000000000001600000000000000000000000000000000000000000000000000000000000000020000000000000000000000000000000000000000000000000000000000000000f000000000000000000000000000000000000000000000000000000000000000200000000000000000000000000000000000000000000000000000000000000ff000000000000000000000000000000000000000000000000000000000000000000000000000000000000000000000000000000000000000000000000000000c00000000000000000000000000000000000000000000000000000000000000120000000000000000000000000000000000000000000000000000000000000000200000000000000000000000019670df5e16bea2ba9b9e68b48c054c5baea06b8000000000000000000000000f2e380c90e6c09721297526dbc74f870e114dfcb0000000000000000000000000000000000000000000000000000000000000000",
        "nonce": "0x59",
        "chainId": "0xa4b1"
      },
      "additionalContracts": [],
      "isFixedGasLimit": false
    },
    {
      "hash": "0xc93f3c6ac6d3f8efb3a4c791ae0f603c4b843e2cc7bbcbfd4f1213d22911dcda",
      "transactionType": "CALL",
      "contractName": "OAppBorrow",
      "contractAddress": "0x23c5462bcd096abfdfe9a845a9e1ec06bea3f81b",
      "function": "setRouter(address)",
      "arguments": [
        "0xcC0563F952FADb3a7D54A448AEB079D7d8F849fa"
      ],
      "transaction": {
        "from": "0xee03621ce83bbf6e3931bccf35b144354f16ccf7",
        "to": "0x23c5462bcd096abfdfe9a845a9e1ec06bea3f81b",
        "gas": "0x74df",
        "value": "0x0",
        "input": "0xc0d78655000000000000000000000000cc0563f952fadb3a7d54a448aeb079d7d8f849fa",
        "nonce": "0x5a",
        "chainId": "0xa4b1"
      },
      "additionalContracts": [],
      "isFixedGasLimit": false
    }
  ],
  "receipts": [
    {
      "status": "0x1",
      "cumulativeGasUsed": "0x33cc14",
      "logs": [
        {
          "address": "0x23c5462bcd096abfdfe9a845a9e1ec06bea3f81b",
          "topics": [
            "0x8be0079c531659141344cd1fd0a4f28419497f9722a3daafe3b4186f6b6457e0",
            "0x0000000000000000000000000000000000000000000000000000000000000000",
            "0x000000000000000000000000ee03621ce83bbf6e3931bccf35b144354f16ccf7"
          ],
          "data": "0x",
          "blockHash": "0x5764034301aa8ea1bcffcdfafd90c8003e946d59dcd05edc70cd7e2baae4eeda",
          "blockNumber": "0x1751edd0",
          "transactionHash": "0x84456c0bd6d5b2a568908578f4f64c7d88d835ba45b1f809b5230a638fbebd24",
          "transactionIndex": "0x5",
          "logIndex": "0xb",
          "removed": false
        },
        {
          "address": "0x1a44076050125825900e736c501f859c50fe728c",
          "topics": [
            "0x6ee10e9ed4d6ce9742703a498707862f4b00f1396a87195eb93267b3d7983981"
          ],
          "data": "0x00000000000000000000000023c5462bcd096abfdfe9a845a9e1ec06bea3f81b000000000000000000000000ee03621ce83bbf6e3931bccf35b144354f16ccf7",
          "blockHash": "0x5764034301aa8ea1bcffcdfafd90c8003e946d59dcd05edc70cd7e2baae4eeda",
          "blockNumber": "0x1751edd0",
          "transactionHash": "0x84456c0bd6d5b2a568908578f4f64c7d88d835ba45b1f809b5230a638fbebd24",
          "transactionIndex": "0x5",
          "logIndex": "0xc",
          "removed": false
        }
      ],
      "logsBloom": "0x00000000000000000000000000000000000000000000000000800000001000000000000000000800000000000000000000000002000000000000000000000000000000000000000000000010040000000001000000000000000000000000000000000000020000000000000000000800000000000010000000000000000000400000000000000000000000004000000000000000000000000000000000000000000000000000000000000000000000000000000000000000000000000000000400000000000008000000000010000000000000000000000000000000000020000000000000000000000000000000000000000000010000000000000000000000",
      "type": "0x2",
      "transactionHash": "0x84456c0bd6d5b2a568908578f4f64c7d88d835ba45b1f809b5230a638fbebd24",
      "transactionIndex": "0x5",
      "blockHash": "0x5764034301aa8ea1bcffcdfafd90c8003e946d59dcd05edc70cd7e2baae4eeda",
      "blockNumber": "0x1751edd0",
      "gasUsed": "0x2a0e7a",
      "effectiveGasPrice": "0x989680",
      "from": "0xee03621ce83bbf6e3931bccf35b144354f16ccf7",
      "to": null,
      "contractAddress": "0x23c5462bcd096abfdfe9a845a9e1ec06bea3f81b",
      "gasUsedForL1": "0x9da6",
      "l1BlockNumber": "0x1684f1a",
      "timeboosted": false
    },
    {
      "status": "0x1",
      "cumulativeGasUsed": "0xbd99",
      "logs": [
        {
          "address": "0x23c5462bcd096abfdfe9a845a9e1ec06bea3f81b",
          "topics": [
            "0x7c3dfe69126e8f8130fd09c600fd8fcba2acbe0c696d598c771f23a12ce811df"
          ],
          "data": "0x0000000000000000000000007fb63d9faf99a34bca04efd5ba7f75dc6db37f4d",
          "blockHash": "0x81836af9f839bfc32922ffd2ab414d7beb1b924256ae4adc2188ba620427a60a",
          "blockNumber": "0x1751edd8",
          "transactionHash": "0xfa3c2891174762b7778544181bdfabb039a71c20bbc76dc531413cbb478b3aeb",
          "transactionIndex": "0x1",
          "logIndex": "0x0",
          "removed": false
        }
      ],
      "logsBloom": "0x00000000000000000000000000000800000000000000000000000000000000000000000000000800000000000000000000000008000000000000000000000000000000000000000000000000000000000000000000000000000000000000000000000000000000000000000000000000000000000000000000000000000000000000000000000000000000004000000000000000000000000000000000000000000000000000000000000000000000000000000000000000000000000000000000000000000008000000000000000000000000000000080000000000000000000000000000000000000000000000000000000000000000000000000000000000",
      "type": "0x2",
      "transactionHash": "0xfa3c2891174762b7778544181bdfabb039a71c20bbc76dc531413cbb478b3aeb",
      "transactionIndex": "0x1",
      "blockHash": "0x81836af9f839bfc32922ffd2ab414d7beb1b924256ae4adc2188ba620427a60a",
      "blockNumber": "0x1751edd8",
      "gasUsed": "0xbd99",
      "effectiveGasPrice": "0x989680",
      "from": "0xee03621ce83bbf6e3931bccf35b144354f16ccf7",
      "to": "0x23c5462bcd096abfdfe9a845a9e1ec06bea3f81b",
      "contractAddress": null,
      "gasUsedForL1": "0x3ca",
      "l1BlockNumber": "0x1684f1c",
      "timeboosted": false
    },
    {
      "status": "0x1",
      "cumulativeGasUsed": "0x36e0b",
      "logs": [
        {
          "address": "0x1a44076050125825900e736c501f859c50fe728c",
          "topics": [
            "0x4cff966ebee29a156dcb34cf72c1d06231fb1777f6bdf6e8089819232f002b1c"
          ],
          "data": "0x00000000000000000000000023c5462bcd096abfdfe9a845a9e1ec06bea3f81b000000000000000000000000000000000000000000000000000000000000759e000000000000000000000000975bcd720be66659e3eb3c0e4f1866a3020e493a",
          "blockHash": "0xde29500276448cef7fbbc12f934e2d0b4001739c1b42f44b54518c6ea856268f",
          "blockNumber": "0x1751eddf",
          "transactionHash": "0x7d71b3f402632c6d084329d01f4e4f004db5ca839ccd90daaafa529c2a9dd8ee",
          "transactionIndex": "0x3",
          "logIndex": "0x2",
          "removed": false
        }
      ],
      "logsBloom": "0x00000000000000000000000000000000000200000000000000000000001000000000000000000000000000000000000000000000000000000000000001000000000000000000000000000000000000000000000000000000000000000000000000000000000000000000000000000000000000000010000000000000000000000000000000000000000000000000000000000000000000000000000000000000000000000000000000000000000000000000000000000000000000000000000000000000000000000000000000000000000000000000000000000000000000000040000000000000000000000000000000000000010000000000000000000000",
      "type": "0x2",
      "transactionHash": "0x7d71b3f402632c6d084329d01f4e4f004db5ca839ccd90daaafa529c2a9dd8ee",
      "transactionIndex": "0x3",
      "blockHash": "0xde29500276448cef7fbbc12f934e2d0b4001739c1b42f44b54518c6ea856268f",
      "blockNumber": "0x1751eddf",
      "gasUsed": "0xe70c",
      "effectiveGasPrice": "0x989680",
      "from": "0xee03621ce83bbf6e3931bccf35b144354f16ccf7",
      "to": "0x1a44076050125825900e736c501f859c50fe728c",
      "contractAddress": null,
      "gasUsedForL1": "0x57e",
      "l1BlockNumber": "0x1684f1c",
      "timeboosted": false
    },
    {
      "status": "0x1",
      "cumulativeGasUsed": "0x1adff",
      "logs": [
        {
          "address": "0x1a44076050125825900e736c501f859c50fe728c",
          "topics": [
            "0x4cff966ebee29a156dcb34cf72c1d06231fb1777f6bdf6e8089819232f002b1c"
          ],
          "data": "0x00000000000000000000000023c5462bcd096abfdfe9a845a9e1ec06bea3f81b00000000000000000000000000000000000000000000000000000000000075e8000000000000000000000000975bcd720be66659e3eb3c0e4f1866a3020e493a",
          "blockHash": "0xdf256c3080e0ff16e186645bdf9e19e1a33ee9669be6456e0001796b73edddfa",
          "blockNumber": "0x1751ede6",
          "transactionHash": "0x1eab8b1d17c3e1fc9e1688e0971818596fd7cd09c8e397d3c7b8f55b5cc4e618",
          "transactionIndex": "0x2",
          "logIndex": "0x0",
          "removed": false
        }
      ],
      "logsBloom": "0x00000000000000000000000000000000000200000000000000000000001000000000000000000000000000000000000000000000000000000000000001000000000000000000000000000000000000000000000000000000000000000000000000000000000000000000000000000000000000000010000000000000000000000000000000000000000000000000000000000000000000000000000000000000000000000000000000000000000000000000000000000000000000000000000000000000000000000000000000000000000000000000000000000000000000000040000000000000000000000000000000000000010000000000000000000000",
      "type": "0x2",
      "transactionHash": "0x1eab8b1d17c3e1fc9e1688e0971818596fd7cd09c8e397d3c7b8f55b5cc4e618",
      "transactionIndex": "0x2",
      "blockHash": "0xdf256c3080e0ff16e186645bdf9e19e1a33ee9669be6456e0001796b73edddfa",
      "blockNumber": "0x1751ede6",
      "gasUsed": "0xe70c",
      "effectiveGasPrice": "0x989680",
      "from": "0xee03621ce83bbf6e3931bccf35b144354f16ccf7",
      "to": "0x1a44076050125825900e736c501f859c50fe728c",
      "contractAddress": null,
      "gasUsedForL1": "0x57e",
      "l1BlockNumber": "0x1684f1c",
      "timeboosted": false
    },
    {
      "status": "0x1",
      "cumulativeGasUsed": "0x101f2",
      "logs": [
        {
          "address": "0x1a44076050125825900e736c501f859c50fe728c",
          "topics": [
            "0xcd6f92f5ac6185a5acfa02c92090746cec64d777269cbcd0ed031e396657a1c2"
          ],
          "data": "0x00000000000000000000000023c5462bcd096abfdfe9a845a9e1ec06bea3f81b000000000000000000000000000000000000000000000000000000000000759e0000000000000000000000007b9e184e07a6ee1ac23eae0fe8d6be2f663f05e6",
          "blockHash": "0x08c71fbdcf8a5f234283759e7a177534bc97fd64de745f99de5173240aeb36d0",
          "blockNumber": "0x1751edee",
          "transactionHash": "0x99df26773bd6db222d77586a2b172790250a7991690ab7ad312f303bc9f88fec",
          "transactionIndex": "0x1",
          "logIndex": "0x0",
          "removed": false
        },
        {
          "address": "0x1a44076050125825900e736c501f859c50fe728c",
          "topics": [
            "0x4e0a5bbfa0c11a64effb1ada324b5437a17272e1aed9320398715ef71bb20928"
          ],
          "data": "0x00000000000000000000000023c5462bcd096abfdfe9a845a9e1ec06bea3f81b000000000000000000000000000000000000000000000000000000000000759e00000000000000000000000000000000000000000000000000000000000000000000000000000000000000000000000000000000000000000000000000000000",
          "blockHash": "0x08c71fbdcf8a5f234283759e7a177534bc97fd64de745f99de5173240aeb36d0",
          "blockNumber": "0x1751edee",
          "transactionHash": "0x99df26773bd6db222d77586a2b172790250a7991690ab7ad312f303bc9f88fec",
          "transactionIndex": "0x1",
          "logIndex": "0x1",
          "removed": false
        }
      ],
      "logsBloom": "0x00000000000000000000020800000000000000000000000000000000001000020400000000000000000000000000000000000000000000000000000000000000000000000000000000000000000000000000000000800000000000000000000000000000000000000000000000000000000000000010000000000000000000100000000000000000000000000000000000000000000000000000000000000000000000000000000000000000000000000000000000000000000000000000000000000000000000000000000000000000000000000000000000000000000000000000000000000000000000000000000000000000010000000000000000000000",
      "type": "0x2",
      "transactionHash": "0x99df26773bd6db222d77586a2b172790250a7991690ab7ad312f303bc9f88fec",
      "transactionIndex": "0x1",
      "blockHash": "0x08c71fbdcf8a5f234283759e7a177534bc97fd64de745f99de5173240aeb36d0",
      "blockNumber": "0x1751edee",
      "gasUsed": "0x101f2",
      "effectiveGasPrice": "0x989680",
      "from": "0xee03621ce83bbf6e3931bccf35b144354f16ccf7",
      "to": "0x1a44076050125825900e736c501f859c50fe728c",
      "contractAddress": null,
      "gasUsedForL1": "0x651",
      "l1BlockNumber": "0x1684f1c",
      "timeboosted": false
    },
    {
      "status": "0x1",
      "cumulativeGasUsed": "0x82655",
      "logs": [
        {
          "address": "0x975bcd720be66659e3eb3c0e4f1866a3020e493a",
          "topics": [
            "0x779cb2dd9d2bb1be1737d05435d744facbfb84a2a4912e21379d39beddcdc805"
          ],
          "data": "0x00000000000000000000000023c5462bcd096abfdfe9a845a9e1ec06bea3f81b000000000000000000000000000000000000000000000000000000000000759e000000000000000000000000000000000000000000000000000000000000271000000000000000000000000031cae3b7fb82d847621859fb1585353c5720660d",
          "blockHash": "0xe384a01972610c86c631ff0265c21df540bc3824c63664427a7c731ff7fcb80a",
          "blockNumber": "0x1751edf6",
          "transactionHash": "0xd0660aaf34d39ea3b0c09519591e54911cfd6b188522813526aa9e33a28e36d4",
          "transactionIndex": "0x4",
          "logIndex": "0x5",
          "removed": false
        },
        {
          "address": "0x975bcd720be66659e3eb3c0e4f1866a3020e493a",
          "topics": [
            "0x82118522aa536ac0e96cc5c689407ae42b89d592aa133890a01f1509842f5081"
          ],
          "data": "0x00000000000000000000000023c5462bcd096abfdfe9a845a9e1ec06bea3f81b000000000000000000000000000000000000000000000000000000000000759e0000000000000000000000000000000000000000000000000000000000000060000000000000000000000000000000000000000000000000000000000000000f000000000000000000000000000000000000000000000000000000000000000200000000000000000000000000000000000000000000000000000000000000ff000000000000000000000000000000000000000000000000000000000000000000000000000000000000000000000000000000000000000000000000000000c00000000000000000000000000000000000000000000000000000000000000120000000000000000000000000000000000000000000000000000000000000000200000000000000000000000019670df5e16bea2ba9b9e68b48c054c5baea06b8000000000000000000000000f2e380c90e6c09721297526dbc74f870e114dfcb0000000000000000000000000000000000000000000000000000000000000000",
          "blockHash": "0xe384a01972610c86c631ff0265c21df540bc3824c63664427a7c731ff7fcb80a",
          "blockNumber": "0x1751edf6",
          "transactionHash": "0xd0660aaf34d39ea3b0c09519591e54911cfd6b188522813526aa9e33a28e36d4",
          "transactionIndex": "0x4",
          "logIndex": "0x6",
          "removed": false
        },
        {
          "address": "0x975bcd720be66659e3eb3c0e4f1866a3020e493a",
          "topics": [
            "0x779cb2dd9d2bb1be1737d05435d744facbfb84a2a4912e21379d39beddcdc805"
          ],
          "data": "0x00000000000000000000000023c5462bcd096abfdfe9a845a9e1ec06bea3f81b00000000000000000000000000000000000000000000000000000000000075e8000000000000000000000000000000000000000000000000000000000000271000000000000000000000000031cae3b7fb82d847621859fb1585353c5720660d",
          "blockHash": "0xe384a01972610c86c631ff0265c21df540bc3824c63664427a7c731ff7fcb80a",
          "blockNumber": "0x1751edf6",
          "transactionHash": "0xd0660aaf34d39ea3b0c09519591e54911cfd6b188522813526aa9e33a28e36d4",
          "transactionIndex": "0x4",
          "logIndex": "0x7",
          "removed": false
        },
        {
          "address": "0x975bcd720be66659e3eb3c0e4f1866a3020e493a",
          "topics": [
            "0x82118522aa536ac0e96cc5c689407ae42b89d592aa133890a01f1509842f5081"
          ],
          "data": "0x00000000000000000000000023c5462bcd096abfdfe9a845a9e1ec06bea3f81b00000000000000000000000000000000000000000000000000000000000075e80000000000000000000000000000000000000000000000000000000000000060000000000000000000000000000000000000000000000000000000000000000f000000000000000000000000000000000000000000000000000000000000000200000000000000000000000000000000000000000000000000000000000000ff000000000000000000000000000000000000000000000000000000000000000000000000000000000000000000000000000000000000000000000000000000c00000000000000000000000000000000000000000000000000000000000000120000000000000000000000000000000000000000000000000000000000000000200000000000000000000000019670df5e16bea2ba9b9e68b48c054c5baea06b8000000000000000000000000f2e380c90e6c09721297526dbc74f870e114dfcb0000000000000000000000000000000000000000000000000000000000000000",
          "blockHash": "0xe384a01972610c86c631ff0265c21df540bc3824c63664427a7c731ff7fcb80a",
          "blockNumber": "0x1751edf6",
          "transactionHash": "0xd0660aaf34d39ea3b0c09519591e54911cfd6b188522813526aa9e33a28e36d4",
          "transactionIndex": "0x4",
          "logIndex": "0x8",
          "removed": false
        }
      ],
      "logsBloom": "0x00000000000000000000000000000000000000000000000000000000000000000000000000000000000000000000000000000000000400000000000000000000000000000000000000000040000000000000000000000000002000000000000000000000000800000000000000000000000000000000000000000000000000000000000000000000000000000000000000000000000000000000000000000000000000000000000000000002000000000000000000000000000000000000008200000000000000000000000000000000000000000000000000000000000000000008000000000000000000000000000000000000000000000000000000000010",
      "type": "0x2",
      "transactionHash": "0xd0660aaf34d39ea3b0c09519591e54911cfd6b188522813526aa9e33a28e36d4",
      "transactionIndex": "0x4",
      "blockHash": "0xe384a01972610c86c631ff0265c21df540bc3824c63664427a7c731ff7fcb80a",
      "blockNumber": "0x1751edf6",
      "gasUsed": "0x4a951",
      "effectiveGasPrice": "0x989680",
      "from": "0xee03621ce83bbf6e3931bccf35b144354f16ccf7",
      "to": "0x1a44076050125825900e736c501f859c50fe728c",
      "contractAddress": null,
      "gasUsedForL1": "0xb6d",
      "l1BlockNumber": "0x1684f1c",
      "timeboosted": false
    },
    {
      "status": "0x1",
      "cumulativeGasUsed": "0x53dde",
      "logs": [
        {
          "address": "0x7b9e184e07a6ee1ac23eae0fe8d6be2f663f05e6",
          "topics": [
            "0x82118522aa536ac0e96cc5c689407ae42b89d592aa133890a01f1509842f5081"
          ],
          "data": "0x00000000000000000000000023c5462bcd096abfdfe9a845a9e1ec06bea3f81b000000000000000000000000000000000000000000000000000000000000759e0000000000000000000000000000000000000000000000000000000000000060000000000000000000000000000000000000000000000000000000000000000f000000000000000000000000000000000000000000000000000000000000000200000000000000000000000000000000000000000000000000000000000000ff000000000000000000000000000000000000000000000000000000000000000000000000000000000000000000000000000000000000000000000000000000c00000000000000000000000000000000000000000000000000000000000000120000000000000000000000000000000000000000000000000000000000000000200000000000000000000000019670df5e16bea2ba9b9e68b48c054c5baea06b8000000000000000000000000f2e380c90e6c09721297526dbc74f870e114dfcb0000000000000000000000000000000000000000000000000000000000000000",
          "blockHash": "0x8c75fd16a4a6e511d17080f5eca0ef02ace9a62c83a07ac21abfebd774e92ee9",
          "blockNumber": "0x1751edfe",
          "transactionHash": "0xb56c222373306e7cb753ba1b89be113c3ac0803b66c36ff96d92a5d33f8fb7d9",
          "transactionIndex": "0x2",
          "logIndex": "0x3",
          "removed": false
        },
        {
          "address": "0x7b9e184e07a6ee1ac23eae0fe8d6be2f663f05e6",
          "topics": [
            "0x82118522aa536ac0e96cc5c689407ae42b89d592aa133890a01f1509842f5081"
          ],
          "data": "0x00000000000000000000000023c5462bcd096abfdfe9a845a9e1ec06bea3f81b00000000000000000000000000000000000000000000000000000000000075e80000000000000000000000000000000000000000000000000000000000000060000000000000000000000000000000000000000000000000000000000000000f000000000000000000000000000000000000000000000000000000000000000200000000000000000000000000000000000000000000000000000000000000ff000000000000000000000000000000000000000000000000000000000000000000000000000000000000000000000000000000000000000000000000000000c00000000000000000000000000000000000000000000000000000000000000120000000000000000000000000000000000000000000000000000000000000000200000000000000000000000019670df5e16bea2ba9b9e68b48c054c5baea06b8000000000000000000000000f2e380c90e6c09721297526dbc74f870e114dfcb0000000000000000000000000000000000000000000000000000000000000000",
          "blockHash": "0x8c75fd16a4a6e511d17080f5eca0ef02ace9a62c83a07ac21abfebd774e92ee9",
          "blockNumber": "0x1751edfe",
          "transactionHash": "0xb56c222373306e7cb753ba1b89be113c3ac0803b66c36ff96d92a5d33f8fb7d9",
          "transactionIndex": "0x2",
          "logIndex": "0x4",
          "removed": false
        }
      ],
      "logsBloom": "0x00000000000020000000000000000000000000000000000000000000000000000000000000000000000000000000000000000000000000000000000000000000000000000000000000000000000000020000000000000000002000000000000000000000000000000000000000000000000000000000008000000000000000000000000000000000000000000000000000000000000000000000000000000000000000000000000000000002000000000000000000000000000000000000000000000000000000000000000000000000000000000000000000000000000000000000000000000000000000000000000000000000000000000000000000000010",
      "type": "0x2",
      "transactionHash": "0xb56c222373306e7cb753ba1b89be113c3ac0803b66c36ff96d92a5d33f8fb7d9",
      "transactionIndex": "0x2",
      "blockHash": "0x8c75fd16a4a6e511d17080f5eca0ef02ace9a62c83a07ac21abfebd774e92ee9",
      "blockNumber": "0x1751edfe",
      "gasUsed": "0x3cde6",
      "effectiveGasPrice": "0x989680",
      "from": "0xee03621ce83bbf6e3931bccf35b144354f16ccf7",
      "to": "0x1a44076050125825900e736c501f859c50fe728c",
      "contractAddress": null,
      "gasUsedForL1": "0xa1c",
      "l1BlockNumber": "0x1684f1c",
      "timeboosted": false
    },
    {
      "status": "0x1",
      "cumulativeGasUsed": "0x100ad1",
      "logs": [],
      "logsBloom": "0x00000000000000000000000000000000000000000000000000000000000000000000000000000000000000000000000000000000000000000000000000000000000000000000000000000000000000000000000000000000000000000000000000000000000000000000000000000000000000000000000000000000000000000000000000000000000000000000000000000000000000000000000000000000000000000000000000000000000000000000000000000000000000000000000000000000000000000000000000000000000000000000000000000000000000000000000000000000000000000000000000000000000000000000000000000000",
      "type": "0x2",
      "transactionHash": "0xc93f3c6ac6d3f8efb3a4c791ae0f603c4b843e2cc7bbcbfd4f1213d22911dcda",
      "transactionIndex": "0x4",
      "blockHash": "0x01d2ac6e3257bc6754e1e7f19d3a40649aa09abc9511ec0a3037d959105d2314",
      "blockNumber": "0x1751ee05",
      "gasUsed": "0xb8d9",
      "effectiveGasPrice": "0x989680",
      "from": "0xee03621ce83bbf6e3931bccf35b144354f16ccf7",
      "to": "0x23c5462bcd096abfdfe9a845a9e1ec06bea3f81b",
      "contractAddress": null,
      "gasUsedForL1": "0x3ca",
      "l1BlockNumber": "0x1684f1c",
      "timeboosted": false
    }
  ],
  "libraries": [],
  "pending": [],
  "returns": {},
  "timestamp": 1760895444262,
  "chain": 42161,
  "commit": "aaddbdd"
}