{
  "transactions": [
    {
      "hash": "0x894b20763be0df224a26ea58926bd83df222e9025d478c72cfb10277d4959701",
      "transactionType": "CALL",
      "contractName": null,
      "contractAddress": "0x23c5462bcd096abfdfe9a845a9e1ec06bea3f81b",
      "function": "setPeer(uint32,bytes32)",
      "arguments": [
        "30110",
        "0x00000000000000000000000023c5462bcd096abfdfe9a845a9e1ec06bea3f81b"
      ],
      "transaction": {
        "from": "0xee03621ce83bbf6e3931bccf35b144354f16ccf7",
        "to": "0x23c5462bcd096abfdfe9a845a9e1ec06bea3f81b",
        "gas": "0xffee",
        "value": "0x0",
        "input": "0x3400288b000000000000000000000000000000000000000000000000000000000000759e00000000000000000000000023c5462bcd096abfdfe9a845a9e1ec06bea3f81b",
        "nonce": "0x5b",
        "chainId": "0xa4b1"
      },
      "additionalContracts": [],
      "isFixedGasLimit": false
    },
    {
      "hash": "0xe31ed3150ece86590d5451d332ab768d55ddeaa5ba168cdbf4ee31d1eed45c4f",
      "transactionType": "CALL",
      "contractName": null,
      "contractAddress": "0x23c5462bcd096abfdfe9a845a9e1ec06bea3f81b",
      "function": "setPeer(uint32,bytes32)",
      "arguments": [
        "30184",
        "0x0000000000000000000000002099fde6100bd4b7a5004a1ae4077be9469984a8"
      ],
      "transaction": {
        "from": "0xee03621ce83bbf6e3931bccf35b144354f16ccf7",
        "to": "0x23c5462bcd096abfdfe9a845a9e1ec06bea3f81b",
        "gas": "0xffdf",
        "value": "0x0",
        "input": "0x3400288b00000000000000000000000000000000000000000000000000000000000075e80000000000000000000000002099fde6100bd4b7a5004a1ae4077be9469984a8",
        "nonce": "0x5c",
        "chainId": "0xa4b1"
      },
      "additionalContracts": [],
      "isFixedGasLimit": false
    },
    {
      "hash": "0x53fc497fc72f7ca6edd21ddd672e94ec5d2dd2dde9a69a149474f1d38fe562e8",
      "transactionType": "CALL",
      "contractName": null,
      "contractAddress": "0x23c5462bcd096abfdfe9a845a9e1ec06bea3f81b",
      "function": "setEnforcedOptions((uint32,uint16,bytes)[])",
      "arguments": [
        "[(30110, 1, 0x00030100110100000000000000000000000000013880), (30184, 1, 0x000301001101000000000000000000000000000186a0)]"
      ],
      "transaction": {
        "from": "0xee03621ce83bbf6e3931bccf35b144354f16ccf7",
        "to": "0x23c5462bcd096abfdfe9a845a9e1ec06bea3f81b",
        "gas": "0x1b550",
        "value": "0x0",
        "input": "0xb98bd07000000000000000000000000000000000000000000000000000000000000000200000000000000000000000000000000000000000000000000000000000000002000000000000000000000000000000000000000000000000000000000000004000000000000000000000000000000000000000000000000000000000000000e0000000000000000000000000000000000000000000000000000000000000759e000000000000000000000000000000000000000000000000000000000000000100000000000000000000000000000000000000000000000000000000000000600000000000000000000000000000000000000000000000000000000000000016000301001101000000000000000000000000000138800000000000000000000000000000000000000000000000000000000000000000000000000000000075e8000000000000000000000000000000000000000000000000000000000000000100000000000000000000000000000000000000000000000000000000000000600000000000000000000000000000000000000000000000000000000000000016000301001101000000000000000000000000000186a000000000000000000000",
        "nonce": "0x5d",
        "chainId": "0xa4b1"
      },
      "additionalContracts": [],
      "isFixedGasLimit": false
    }
  ],
  "receipts": [
    {
      "status": "0x1",
      "cumulativeGasUsed": "0x1b363",
      "logs": [
        {
          "address": "0x23c5462bcd096abfdfe9a845a9e1ec06bea3f81b",
          "topics": [
            "0x238399d427b947898edb290f5ff0f9109849b1c3ba196a42e35f00c50a54b98b"
          ],
          "data": "0x000000000000000000000000000000000000000000000000000000000000759e00000000000000000000000023c5462bcd096abfdfe9a845a9e1ec06bea3f81b",
          "blockHash": "0xd9c56ec3fed09eb3812b088e0c5df46010b548fce57bfb70d034b9561203ea92",
          "blockNumber": "0x1751f3bb",
          "transactionHash": "0x894b20763be0df224a26ea58926bd83df222e9025d478c72cfb10277d4959701",
          "transactionIndex": "0x2",
          "logIndex": "0x1",
          "removed": false
        }
      ],
      "logsBloom": "0x00000000000000000000000000000000000000000000000000000000000000000000000000000800000000000000000000000000000000000800000000000000000000000000000000000000000000000000000000000000000000000000000000000000000000000000000000000000000000000000000000000000000000000000000000000000000000004000000000000000000000000000000000000000000000000000000000000000000000000000000000000000000002000000000000000000000008000000000000000000000000000000000000040000000000000000000000000000000000000000000000000000000000000000000000000000",
      "type": "0x2",
      "transactionHash": "0x894b20763be0df224a26ea58926bd83df222e9025d478c72cfb10277d4959701",
      "transactionIndex": "0x2",
      "blockHash": "0xd9c56ec3fed09eb3812b088e0c5df46010b548fce57bfb70d034b9561203ea92",
      "blockNumber": "0x1751f3bb",
      "gasUsed": "0xc1f0",
      "effectiveGasPrice": "0x989680",
      "from": "0xee03621ce83bbf6e3931bccf35b144354f16ccf7",
      "to": "0x23c5462bcd096abfdfe9a845a9e1ec06bea3f81b",
      "contractAddress": null,
      "gasUsedForL1": "0x594",
      "l1BlockNumber": "0x1684f3b",
      "timeboosted": false
    },
    {
      "status": "0x1",
      "cumulativeGasUsed": "0x1ba72",
      "logs": [
        {
          "address": "0x23c5462bcd096abfdfe9a845a9e1ec06bea3f81b",
          "topics": [
            "0x238399d427b947898edb290f5ff0f9109849b1c3ba196a42e35f00c50a54b98b"
          ],
          "data": "0x00000000000000000000000000000000000000000000000000000000000075e80000000000000000000000002099fde6100bd4b7a5004a1ae4077be9469984a8",
          "blockHash": "0xbf6a78b44ba7d1b898e6677eeb1d3502ed03b71b5ed9ca811183fce6b229510f",
          "blockNumber": "0x1751f3c4",
          "transactionHash": "0xe31ed3150ece86590d5451d332ab768d55ddeaa5ba168cdbf4ee31d1eed45c4f",
          "transactionIndex": "0x2",
          "logIndex": "0x1",
          "removed": false
        }
      ],
      "logsBloom": "0x00000000000000000000000000000000000000000000000000000000000000000000000000000800000000000000000000000000000000000800000000000000000000000000000000000000000000000000000000000000000000000000000000000000000000000000000000000000000000000000000000000000000000000000000000000000000000004000000000000000000000000000000000000000000000000000000000000000000000000000000000000000000002000000000000000000000008000000000000000000000000000000000000040000000000000000000000000000000000000000000000000000000000000000000000000000",
      "type": "0x2",
      "transactionHash": "0xe31ed3150ece86590d5451d332ab768d55ddeaa5ba168cdbf4ee31d1eed45c4f",
      "transactionIndex": "0x2",
      "blockHash": "0xbf6a78b44ba7d1b898e6677eeb1d3502ed03b71b5ed9ca811183fce6b229510f",
      "blockNumber": "0x1751f3c4",
      "gasUsed": "0xc1e4",
      "effectiveGasPrice": "0x989680",
      "from": "0xee03621ce83bbf6e3931bccf35b144354f16ccf7",
      "to": "0x23c5462bcd096abfdfe9a845a9e1ec06bea3f81b",
      "contractAddress": null,
      "gasUsedForL1": "0x594",
      "l1BlockNumber": "0x1684f3b",
      "timeboosted": false
    },
    {
      "status": "0x1",
      "cumulativeGasUsed": "0xbfe9e",
      "logs": [
        {
          "address": "0x23c5462bcd096abfdfe9a845a9e1ec06bea3f81b",
          "topics": [
            "0xbe4864a8e820971c0247f5992e2da559595f7bf076a21cb5928d443d2a13b674"
          ],
          "data": "0x00000000000000000000000000000000000000000000000000000000000000200000000000000000000000000000000000000000000000000000000000000002000000000000000000000000000000000000000000000000000000000000004000000000000000000000000000000000000000000000000000000000000000e0000000000000000000000000000000000000000000000000000000000000759e000000000000000000000000000000000000000000000000000000000000000100000000000000000000000000000000000000000000000000000000000000600000000000000000000000000000000000000000000000000000000000000016000301001101000000000000000000000000000138800000000000000000000000000000000000000000000000000000000000000000000000000000000075e8000000000000000000000000000000000000000000000000000000000000000100000000000000000000000000000000000000000000000000000000000000600000000000000000000000000000000000000000000000000000000000000016000301001101000000000000000000000000000186a000000000000000000000",
          "blockHash": "0x784d18344bd6db0457ed1179b87411d5bac9504bea8670d4ba8ac4d6a115e0d4",
          "blockNumber": "0x1751f3cd",
          "transactionHash": "0x53fc497fc72f7ca6edd21ddd672e94ec5d2dd2dde9a69a149474f1d38fe562e8",
          "transactionIndex": "0x5",
          "logIndex": "0x1a",
          "removed": false
        }
      ],
      "logsBloom": "0x00000000000000000000000000000000000000000000000000000000000000000000000000000800000000000000000000000000000000000000400000000000000000000000000000000000000000000000000000000000000000000000000000000000000000000000000000000000000000000000000000000000000000000000000000000000000000004000000000000000000000000000000000080000000000000000000000000000000000000000000000000000000000000000000000000000000008000000000002000000000000000000000000000000000000000000000000000000000000000000000000000000000000000000000000000000",
      "type": "0x2",
      "transactionHash": "0x53fc497fc72f7ca6edd21ddd672e94ec5d2dd2dde9a69a149474f1d38fe562e8",
      "transactionIndex": "0x5",
      "blockHash": "0x784d18344bd6db0457ed1179b87411d5bac9504bea8670d4ba8ac4d6a115e0d4",
      "blockNumber": "0x1751f3cd",
      "gasUsed": "0x14ae8",
      "effectiveGasPrice": "0x989680",
      "from": "0xee03621ce83bbf6e3931bccf35b144354f16ccf7",
      "to": "0x23c5462bcd096abfdfe9a845a9e1ec06bea3f81b",
      "contractAddress": null,
      "gasUsedForL1": "0x85e",
      "l1BlockNumber": "0x1684f3b",
      "timeboosted": false
    }
  ],
  "libraries": [],
  "pending": [],
  "returns": {},
  "timestamp": 1760895796842,
  "chain": 42161,
  "commit": "aaddbdd"
}