{
  "transactions": [
    {
      "hash": "0x672aaeae3ced32c3ebe892f5a566be689d2e7bedaf5de671276aeebed1c99f77",
      "transactionType": "CALL",
      "contractName": null,
      "contractAddress": "0x23c5462bcd096abfdfe9a845a9e1ec06bea3f81b",
      "function": "setEnforcedOptions((uint32,uint16,bytes)[])",
      "arguments": [
        "[(30110, 1, 0x000301001101000000000000000000000000000c3500), (30184, 1, 0x000301001101000000000000000000000000000f4240)]"
      ],
      "transaction": {
        "from": "0xee03621ce83bbf6e3931bccf35b144354f16ccf7",
        "to": "0x23c5462bcd096abfdfe9a845a9e1ec06bea3f81b",
        "gas": "0xfe16",
        "value": "0x0",
        "input": "0xb98bd07000000000000000000000000000000000000000000000000000000000000000200000000000000000000000000000000000000000000000000000000000000002000000000000000000000000000000000000000000000000000000000000004000000000000000000000000000000000000000000000000000000000000000e0000000000000000000000000000000000000000000000000000000000000759e000000000000000000000000000000000000000000000000000000000000000100000000000000000000000000000000000000000000000000000000000000600000000000000000000000000000000000000000000000000000000000000016000301001101000000000000000000000000000c35000000000000000000000000000000000000000000000000000000000000000000000000000000000075e8000000000000000000000000000000000000000000000000000000000000000100000000000000000000000000000000000000000000000000000000000000600000000000000000000000000000000000000000000000000000000000000016000301001101000000000000000000000000000f424000000000000000000000",
        "nonce": "0x61",
        "chainId": "0xa4b1"
      },
      "additionalContracts": [],
      "isFixedGasLimit": false
    }
  ],
  "receipts": [
    {
      "status": "0x1",
      "cumulativeGasUsed": "0xc138",
      "logs": [
        {
          "address": "0x23c5462bcd096abfdfe9a845a9e1ec06bea3f81b",
          "topics": [
            "0xbe4864a8e820971c0247f5992e2da559595f7bf076a21cb5928d443d2a13b674"
          ],
          "data": "0x00000000000000000000000000000000000000000000000000000000000000200000000000000000000000000000000000000000000000000000000000000002000000000000000000000000000000000000000000000000000000000000004000000000000000000000000000000000000000000000000000000000000000e0000000000000000000000000000000000000000000000000000000000000759e000000000000000000000000000000000000000000000000000000000000000100000000000000000000000000000000000000000000000000000000000000600000000000000000000000000000000000000000000000000000000000000016000301001101000000000000000000000000000c35000000000000000000000000000000000000000000000000000000000000000000000000000000000075e8000000000000000000000000000000000000000000000000000000000000000100000000000000000000000000000000000000000000000000000000000000600000000000000000000000000000000000000000000000000000000000000016000301001101000000000000000000000000000f424000000000000000000000",
          "blockHash": "0xae551ddfddd0dc7458f7e00036e648117bebc52861fa655f3b0d90c37b009efa",
          "blockNumber": "0x17520b4e",
          "transactionHash": "0x672aaeae3ced32c3ebe892f5a566be689d2e7bedaf5de671276aeebed1c99f77",
          "transactionIndex": "0x1",
          "logIndex": "0x0",
          "removed": false
        }
      ],
      "logsBloom": "0x00000000000000000000000000000000000000000000000000000000000000000000000000000800000000000000000000000000000000000000400000000000000000000000000000000000000000000000000000000000000000000000000000000000000000000000000000000000000000000000000000000000000000000000000000000000000000004000000000000000000000000000000000080000000000000000000000000000000000000000000000000000000000000000000000000000000008000000000002000000000000000000000000000000000000000000000000000000000000000000000000000000000000000000000000000000",
      "type": "0x2",
      "transactionHash": "0x672aaeae3ced32c3ebe892f5a566be689d2e7bedaf5de671276aeebed1c99f77",
      "transactionIndex": "0x1",
      "blockHash": "0xae551ddfddd0dc7458f7e00036e648117bebc52861fa655f3b0d90c37b009efa",
      "blockNumber": "0x17520b4e",
      "gasUsed": "0xc138",
      "effectiveGasPrice": "0x989680",
      "from": "0xee03621ce83bbf6e3931bccf35b144354f16ccf7",
      "to": "0x23c5462bcd096abfdfe9a845a9e1ec06bea3f81b",
      "contractAddress": null,
      "gasUsedForL1": "0x452",
      "l1BlockNumber": "0x1684fb7",
      "timeboosted": false
    }
  ],
  "libraries": [],
  "pending": [],
  "returns": {},
  "timestamp": 1760897306359,
  "chain": 42161,
  "commit": "aaddbdd"
}