{
  "transactions": [
    {
      "hash": "0xeca363ac7637763eb9385997f507375a95330c76eb3fefc411fbb02f3329005d",
      "transactionType": "CREATE",
      "contractName": "OAppBorrow",
      "contractAddress": "0x8868e3511c2c47ac55106c21f958e6cf1cbc1766",
      "function": null,
      "arguments": [
        "0x1a44076050125825900e736c501f859c50fE728c",
        "0xEe03621Ce83BbF6e3931BcCf35b144354F16ccf7"
      ],
      "transaction": {
        "from": "0xee03621ce83bbf6e3931bccf35b144354f16ccf7",
        "gas": "0x374e68",
        "value": "0x0",
        "input": "0x60a060405234801561000f575f5ffd5b506040516132d83803806132d8833981810160405281019061003191906102e1565b81818181845f73ffffffffffffffffffffffffffffffffffffffff168173ffffffffffffffffffffffffffffffffffffffff16036100a6575f6040517f1e4fbdf700000000000000000000000000000000000000000000000000000000815260040161009d919061032e565b60405180910390fd5b6100b5816101c260201b60201c565b508173ffffffffffffffffffffffffffffffffffffffff1660808173ffffffffffffffffffffffffffffffffffffffff16815250505f73ffffffffffffffffffffffffffffffffffffffff168173ffffffffffffffffffffffffffffffffffffffff160361014f576040517fb586360400000000000000000000000000000000000000000000000000000000815260040160405180910390fd5b60805173ffffffffffffffffffffffffffffffffffffffff1663ca5eb5e1826040518263ffffffff1660e01b815260040161018a919061032e565b5f604051808303815f87803b1580156101a1575f5ffd5b505af11580156101b3573d5f5f3e3d5ffd5b50505050505050505050610347565b5f5f5f9054906101000a900473ffffffffffffffffffffffffffffffffffffffff169050815f5f6101000a81548173ffffffffffffffffffffffffffffffffffffffff021916908373ffffffffffffffffffffffffffffffffffffffff1602179055508173ffffffffffffffffffffffffffffffffffffffff168173ffffffffffffffffffffffffffffffffffffffff167f8be0079c531659141344cd1fd0a4f28419497f9722a3daafe3b4186f6b6457e060405160405180910390a35050565b5f5ffd5b5f73ffffffffffffffffffffffffffffffffffffffff82169050919050565b5f6102b082610287565b9050919050565b6102c0816102a6565b81146102ca575f5ffd5b50565b5f815190506102db816102b7565b92915050565b5f5f604083850312156102f7576102f6610283565b5b5f610304858286016102cd565b9250506020610315858286016102cd565b9150509250929050565b610328816102a6565b82525050565b5f6020820190506103415f83018461031f565b92915050565b608051612f4f6103895f395f81816107a901528181610a0d01528181610d5f01528181610eff01528181610fec015281816115d901526116d10152612f4f5ff3fe60806040526004361061013f575f3560e01c80637d25a05e116100b5578063bc70b3541161006e578063bc70b35414610432578063c0d786551461046e578063ca5eb5e114610496578063f2fde38b146104be578063f887ea40146104e6578063ff7bd03d146105105761013f565b80637d25a05e1461030257806382413eac1461033e5780638da5cb5b1461037a578063a59a9973146103a4578063b98bd070146103ce578063bb0b6a53146103f65761013f565b80631f5e1334116101075780631f5e13341461020a57806332970710146102345780633400288b1461025e5780635535d461146102865780635e280f11146102c2578063715018a6146102ec5761013f565b806307b47b32146101435780630f6e3fb61461015f578063113aa8b11461019b57806313137d65146101c357806317442b70146101df575b5f5ffd5b61015d600480360381019061015891906119bf565b61054c565b005b34801561016a575f5ffd5b5061018560048036038101906101809190611a8a565b6106b9565b6040516101929190611b70565b60405180910390f35b3480156101a6575f5ffd5b506101c160048036038101906101bc9190611b89565b61070e565b005b6101dd60048036038101906101d89190611c09565b610790565b005b3480156101ea575f5ffd5b506101f36108b0565b604051610201929190611ce2565b60405180910390f35b348015610215575f5ffd5b5061021e6108be565b60405161022b9190611d25565b60405180910390f35b34801561023f575f5ffd5b506102486108c3565b6040516102559190611dae565b60405180910390f35b348015610269575f5ffd5b50610284600480360381019061027f9190611dce565b61094f565b005b348015610291575f5ffd5b506102ac60048036038101906102a79190611e36565b610965565b6040516102b99190611dae565b60405180910390f35b3480156102cd575f5ffd5b506102d6610a0b565b6040516102e39190611ecf565b60405180910390f35b3480156102f7575f5ffd5b50610300610a2f565b005b34801561030d575f5ffd5b5061032860048036038101906103239190611dce565b610a42565b6040516103359190611ee8565b60405180910390f35b348015610349575f5ffd5b50610364600480360381019061035f9190611f01565b610a4c565b6040516103719190611f81565b60405180910390f35b348015610385575f5ffd5b5061038e610a86565b60405161039b9190611fa9565b60405180910390f35b3480156103af575f5ffd5b506103b8610aad565b6040516103c59190611fa9565b60405180910390f35b3480156103d9575f5ffd5b506103f460048036038101906103ef9190612017565b610ad2565b005b348015610401575f5ffd5b5061041c60048036038101906104179190612062565b610af3565b604051610429919061209c565b60405180910390f35b34801561043d575f5ffd5b50610458600480360381019061045391906120b5565b610b08565b6040516104659190611dae565b60405180910390f35b348015610479575f5ffd5b50610494600480360381019061048f9190611b89565b610d0a565b005b3480156104a1575f5ffd5b506104bc60048036038101906104b79190611b89565b610d55565b005b3480156104c9575f5ffd5b506104e460048036038101906104df9190611b89565b610de6565b005b3480156104f1575f5ffd5b506104fa610e6a565b6040516105079190611fa9565b60405180910390f35b34801561051b575f5ffd5b5061053660048036038101906105319190612126565b610e8f565b6040516105439190611f81565b60405180910390f35b60055f9054906101000a900473ffffffffffffffffffffffffffffffffffffffff1673ffffffffffffffffffffffffffffffffffffffff166361d0dae585886040518363ffffffff1660e01b81526004016105a8929190612181565b602060405180830381865afa1580156105c3573d5f5f3e3d5ffd5b505050506040513d601f19601f820116820180604052508101906105e791906121bc565b93505f73ffffffffffffffffffffffffffffffffffffffff168473ffffffffffffffffffffffffffffffffffffffff160361065b5783866040517f27eb165b0000000000000000000000000000000000000000000000000000000081526004016106529291906121f6565b60405180910390fd5b5f8585856040516020016106719392919061222c565b60405160208183030381529060405290506106af87826106948a60018888610b08565b60405180604001604052803481526020015f81525033610ecc565b5050505050505050565b6106c1611840565b5f8787876040516020016106d79392919061222c565b604051602081830303815290604052905061070089826106fa8c60018a8a610b08565b86610fe2565b915050979650505050505050565b6107166110c3565b8060045f6101000a81548173ffffffffffffffffffffffffffffffffffffffff021916908373ffffffffffffffffffffffffffffffffffffffff1602179055507f7c3dfe69126e8f8130fd09c600fd8fcba2acbe0c696d598c771f23a12ce811df816040516107859190611fa9565b60405180910390a150565b3373ffffffffffffffffffffffffffffffffffffffff167f000000000000000000000000000000000000000000000000000000000000000073ffffffffffffffffffffffffffffffffffffffff161461082057336040517f91ac5e4f0000000000000000000000000000000000000000000000000000000081526004016108179190611fa9565b60405180910390fd5b866020013561083f885f01602081019061083a9190612062565b61114a565b1461089857865f0160208101906108569190612062565b87602001356040517fc26bebcc00000000000000000000000000000000000000000000000000000000815260040161088f929190612261565b60405180910390fd5b6108a7878787878787876111bb565b50505050505050565b5f5f60016002915091509091565b600181565b600380546108d0906122b5565b80601f01602080910402602001604051908101604052809291908181526020018280546108fc906122b5565b80156109475780601f1061091e57610100808354040283529160200191610947565b820191905f5260205f20905b81548152906001019060200180831161092a57829003601f168201915b505050505081565b6109576110c3565b61096182826112f8565b5050565b6002602052815f5260405f20602052805f5260405f205f9150915050805461098c906122b5565b80601f01602080910402602001604051908101604052809291908181526020018280546109b8906122b5565b8015610a035780601f106109da57610100808354040283529160200191610a03565b820191905f5260205f20905b8154815290600101906020018083116109e657829003601f168201915b505050505081565b7f000000000000000000000000000000000000000000000000000000000000000081565b610a376110c3565b610a405f611357565b565b5f5f905092915050565b5f3073ffffffffffffffffffffffffffffffffffffffff168273ffffffffffffffffffffffffffffffffffffffff16149050949350505050565b5f5f5f9054906101000a900473ffffffffffffffffffffffffffffffffffffffff16905090565b60045f9054906101000a900473ffffffffffffffffffffffffffffffffffffffff1681565b610ada6110c3565b610aef828290610aea9190612543565b611418565b5050565b6001602052805f5260405f205f915090505481565b60605f60025f8763ffffffff1663ffffffff1681526020019081526020015f205f8661ffff1661ffff1681526020019081526020015f208054610b4a906122b5565b80601f0160208091040260200160405190810160405280929190818152602001828054610b76906122b5565b8015610bc15780601f10610b9857610100808354040283529160200191610bc1565b820191905f5260205f20905b815481529060010190602001808311610ba457829003601f168201915b505050505090505f815103610c1c5783838080601f0160208091040260200160405190810160405280939291908181526020018383808284375f81840152601f19601f82011690508083019250505050505050915050610d02565b5f8484905003610c2f5780915050610d02565b60028484905010610cc357610c8684848080601f0160208091040260200160405190810160405280939291908181526020018383808284375f81840152601f19601f82011690508083019250505050505050611530565b8084846002908092610c9a9392919061255f565b604051602001610cac939291906125f7565b604051602081830303815290604052915050610d02565b83836040517f9a6d49cd000000000000000000000000000000000000000000000000000000008152600401610cf9929190612648565b60405180910390fd5b949350505050565b610d126110c3565b8060055f6101000a81548173ffffffffffffffffffffffffffffffffffffffff021916908373ffffffffffffffffffffffffffffffffffffffff16021790555050565b610d5d6110c3565b7f000000000000000000000000000000000000000000000000000000000000000073ffffffffffffffffffffffffffffffffffffffff1663ca5eb5e1826040518263ffffffff1660e01b8152600401610db69190611fa9565b5f604051808303815f87803b158015610dcd575f5ffd5b505af1158015610ddf573d5f5f3e3d5ffd5b5050505050565b610dee6110c3565b5f73ffffffffffffffffffffffffffffffffffffffff168173ffffffffffffffffffffffffffffffffffffffff1603610e5e575f6040517f1e4fbdf7000000000000000000000000000000000000000000000000000000008152600401610e559190611fa9565b60405180910390fd5b610e6781611357565b50565b60055f9054906101000a900473ffffffffffffffffffffffffffffffffffffffff1681565b5f816020013560015f845f016020810190610eaa9190612062565b63ffffffff1663ffffffff1681526020019081526020015f2054149050919050565b610ed4611858565b5f610ee1845f0151611589565b90505f84602001511115610efd57610efc84602001516115d6565b5b7f000000000000000000000000000000000000000000000000000000000000000073ffffffffffffffffffffffffffffffffffffffff16632637a450826040518060a001604052808b63ffffffff168152602001610f5a8c61114a565b81526020018a81526020018981526020015f8960200151111515815250866040518463ffffffff1660e01b8152600401610f95929190612759565b60806040518083038185885af1158015610fb1573d5f5f3e3d5ffd5b50505050506040513d601f19601f82011682018060405250810190610fd69190612887565b91505095945050505050565b610fea611840565b7f000000000000000000000000000000000000000000000000000000000000000073ffffffffffffffffffffffffffffffffffffffff1663ddc28c586040518060a001604052808863ffffffff1681526020016110468961114a565b8152602001878152602001868152602001851515815250306040518363ffffffff1660e01b815260040161107b929190612759565b6040805180830381865afa158015611095573d5f5f3e3d5ffd5b505050506040513d601f19601f820116820180604052508101906110b991906128b2565b9050949350505050565b6110cb61171c565b73ffffffffffffffffffffffffffffffffffffffff166110e9610a86565b73ffffffffffffffffffffffffffffffffffffffff16146111485761110c61171c565b6040517f118cdaa700000000000000000000000000000000000000000000000000000000815260040161113f9190611fa9565b60405180910390fd5b565b5f5f60015f8463ffffffff1663ffffffff1681526020019081526020015f205490505f5f1b81036111b257826040517ff6ff4fb70000000000000000000000000000000000000000000000000000000081526004016111a991906128dd565b60405180910390fd5b80915050919050565b5f5f5f87878101906111cd9190612931565b9250925092508787600391826111e4929190612b22565b5060045f9054906101000a900473ffffffffffffffffffffffffffffffffffffffff1673ffffffffffffffffffffffffffffffffffffffff1663fbf37739828486466040518563ffffffff1660e01b81526004016112459493929190612bef565b5f604051808303815f87803b15801561125c575f5ffd5b505af115801561126e573d5f5f3e3d5ffd5b505050508073ffffffffffffffffffffffffffffffffffffffff168a5f01602081019061129b9190612062565b63ffffffff167f1660e7e697bba926221b091a71bfee8ce9db3dad7a9ae9398a9a1fc7e7ac265b8c60400160208101906112d59190612c46565b856040516112e4929190612c71565b60405180910390a350505050505050505050565b8060015f8463ffffffff1663ffffffff1681526020019081526020015f20819055507f238399d427b947898edb290f5ff0f9109849b1c3ba196a42e35f00c50a54b98b828260405161134b929190612261565b60405180910390a15050565b5f5f5f9054906101000a900473ffffffffffffffffffffffffffffffffffffffff169050815f5f6101000a81548173ffffffffffffffffffffffffffffffffffffffff021916908373ffffffffffffffffffffffffffffffffffffffff1602179055508173ffffffffffffffffffffffffffffffffffffffff168173ffffffffffffffffffffffffffffffffffffffff167f8be0079c531659141344cd1fd0a4f28419497f9722a3daafe3b4186f6b6457e060405160405180910390a35050565b5f5f90505b81518110156114f55761144d82828151811061143c5761143b612c98565b5b602002602001015160400151611530565b8181815181106114605761145f612c98565b5b60200260200101516040015160025f84848151811061148257611481612c98565b5b60200260200101515f015163ffffffff1663ffffffff1681526020019081526020015f205f8484815181106114ba576114b9612c98565b5b60200260200101516020015161ffff1661ffff1681526020019081526020015f2090816114e79190612cc5565b50808060010191505061141d565b507fbe4864a8e820971c0247f5992e2da559595f7bf076a21cb5928d443d2a13b674816040516115259190612eab565b60405180910390a150565b5f60028201519050600361ffff168161ffff161461158557816040517f9a6d49cd00000000000000000000000000000000000000000000000000000000815260040161157c9190611dae565b60405180910390fd5b5050565b5f8134146115ce57346040517f9f7041200000000000000000000000000000000000000000000000000000000081526004016115c59190612ecb565b60405180910390fd5b819050919050565b5f7f000000000000000000000000000000000000000000000000000000000000000073ffffffffffffffffffffffffffffffffffffffff1663e4fe1d946040518163ffffffff1660e01b8152600401602060405180830381865afa158015611640573d5f5f3e3d5ffd5b505050506040513d601f19601f8201168201806040525081019061166491906121bc565b90505f73ffffffffffffffffffffffffffffffffffffffff168173ffffffffffffffffffffffffffffffffffffffff16036116cb576040517f5373352a00000000000000000000000000000000000000000000000000000000815260040160405180910390fd5b611718337f0000000000000000000000000000000000000000000000000000000000000000848473ffffffffffffffffffffffffffffffffffffffff16611723909392919063ffffffff16565b5050565b5f33905090565b61179f848573ffffffffffffffffffffffffffffffffffffffff166323b872dd86868660405160240161175893929190612ee4565b604051602081830303815290604052915060e01b6020820180517bffffffffffffffffffffffffffffffffffffffffffffffffffffffff83818316178352505050506117a5565b50505050565b5f5f60205f8451602086015f885af1806117c4576040513d5f823e3d81fd5b3d92505f519150505f82146117dd5760018114156117f8565b5f8473ffffffffffffffffffffffffffffffffffffffff163b145b1561183a57836040517f5274afe70000000000000000000000000000000000000000000000000000000081526004016118319190611fa9565b60405180910390fd5b50505050565b60405180604001604052805f81526020015f81525090565b60405180606001604052805f81526020015f67ffffffffffffffff168152602001611881611840565b81525090565b5f604051905090565b5f5ffd5b5f5ffd5b5f63ffffffff82169050919050565b6118b081611898565b81146118ba575f5ffd5b50565b5f813590506118cb816118a7565b92915050565b5f819050919050565b6118e3816118d1565b81146118ed575f5ffd5b50565b5f813590506118fe816118da565b92915050565b5f73ffffffffffffffffffffffffffffffffffffffff82169050919050565b5f61192d82611904565b9050919050565b61193d81611923565b8114611947575f5ffd5b50565b5f8135905061195881611934565b92915050565b5f5ffd5b5f5ffd5b5f5ffd5b5f5f83601f84011261197f5761197e61195e565b5b8235905067ffffffffffffffff81111561199c5761199b611962565b5b6020830191508360018202830111156119b8576119b7611966565b5b9250929050565b5f5f5f5f5f5f60a087890312156119d9576119d8611890565b5b5f6119e689828a016118bd565b96505060206119f789828a016118f0565b9550506040611a0889828a0161194a565b9450506060611a1989828a0161194a565b935050608087013567ffffffffffffffff811115611a3a57611a39611894565b5b611a4689828a0161196a565b92509250509295509295509295565b5f8115159050919050565b611a6981611a55565b8114611a73575f5ffd5b50565b5f81359050611a8481611a60565b92915050565b5f5f5f5f5f5f5f60c0888a031215611aa557611aa4611890565b5b5f611ab28a828b016118bd565b9750506020611ac38a828b016118f0565b9650506040611ad48a828b0161194a565b9550506060611ae58a828b0161194a565b945050608088013567ffffffffffffffff811115611b0657611b05611894565b5b611b128a828b0161196a565b935093505060a0611b258a828b01611a76565b91505092959891949750929550565b611b3d816118d1565b82525050565b604082015f820151611b575f850182611b34565b506020820151611b6a6020850182611b34565b50505050565b5f604082019050611b835f830184611b43565b92915050565b5f60208284031215611b9e57611b9d611890565b5b5f611bab8482850161194a565b91505092915050565b5f5ffd5b5f60608284031215611bcd57611bcc611bb4565b5b81905092915050565b5f819050919050565b611be881611bd6565b8114611bf2575f5ffd5b50565b5f81359050611c0381611bdf565b92915050565b5f5f5f5f5f5f5f60e0888a031215611c2457611c23611890565b5b5f611c318a828b01611bb8565b9750506060611c428a828b01611bf5565b965050608088013567ffffffffffffffff811115611c6357611c62611894565b5b611c6f8a828b0161196a565b955095505060a0611c828a828b0161194a565b93505060c088013567ffffffffffffffff811115611ca357611ca2611894565b5b611caf8a828b0161196a565b925092505092959891949750929550565b5f67ffffffffffffffff82169050919050565b611cdc81611cc0565b82525050565b5f604082019050611cf55f830185611cd3565b611d026020830184611cd3565b9392505050565b5f61ffff82169050919050565b611d1f81611d09565b82525050565b5f602082019050611d385f830184611d16565b92915050565b5f81519050919050565b5f82825260208201905092915050565b8281835e5f83830152505050565b5f601f19601f8301169050919050565b5f611d8082611d3e565b611d8a8185611d48565b9350611d9a818560208601611d58565b611da381611d66565b840191505092915050565b5f6020820190508181035f830152611dc68184611d76565b905092915050565b5f5f60408385031215611de457611de3611890565b5b5f611df1858286016118bd565b9250506020611e0285828601611bf5565b9150509250929050565b611e1581611d09565b8114611e1f575f5ffd5b50565b5f81359050611e3081611e0c565b92915050565b5f5f60408385031215611e4c57611e4b611890565b5b5f611e59858286016118bd565b9250506020611e6a85828601611e22565b9150509250929050565b5f819050919050565b5f611e97611e92611e8d84611904565b611e74565b611904565b9050919050565b5f611ea882611e7d565b9050919050565b5f611eb982611e9e565b9050919050565b611ec981611eaf565b82525050565b5f602082019050611ee25f830184611ec0565b92915050565b5f602082019050611efb5f830184611cd3565b92915050565b5f5f5f5f60a08587031215611f1957611f18611890565b5b5f611f2687828801611bb8565b945050606085013567ffffffffffffffff811115611f4757611f46611894565b5b611f538782880161196a565b93509350506080611f668782880161194a565b91505092959194509250565b611f7b81611a55565b82525050565b5f602082019050611f945f830184611f72565b92915050565b611fa381611923565b82525050565b5f602082019050611fbc5f830184611f9a565b92915050565b5f5f83601f840112611fd757611fd661195e565b5b8235905067ffffffffffffffff811115611ff457611ff3611962565b5b6020830191508360208202830111156120105761200f611966565b5b9250929050565b5f5f6020838503121561202d5761202c611890565b5b5f83013567ffffffffffffffff81111561204a57612049611894565b5b61205685828601611fc2565b92509250509250929050565b5f6020828403121561207757612076611890565b5b5f612084848285016118bd565b91505092915050565b61209681611bd6565b82525050565b5f6020820190506120af5f83018461208d565b92915050565b5f5f5f5f606085870312156120cd576120cc611890565b5b5f6120da878288016118bd565b94505060206120eb87828801611e22565b935050604085013567ffffffffffffffff81111561210c5761210b611894565b5b6121188782880161196a565b925092505092959194509250565b5f6060828403121561213b5761213a611890565b5b5f61214884828501611bb8565b91505092915050565b5f61216b61216661216184611898565b611e74565b6118d1565b9050919050565b61217b81612151565b82525050565b5f6040820190506121945f830185611f9a565b6121a16020830184612172565b9392505050565b5f815190506121b681611934565b92915050565b5f602082840312156121d1576121d0611890565b5b5f6121de848285016121a8565b91505092915050565b6121f081611898565b82525050565b5f6040820190506122095f830185611f9a565b61221660208301846121e7565b9392505050565b612226816118d1565b82525050565b5f60608201905061223f5f83018661221d565b61224c6020830185611f9a565b6122596040830184611f9a565b949350505050565b5f6040820190506122745f8301856121e7565b612281602083018461208d565b9392505050565b7f4e487b71000000000000000000000000000000000000000000000000000000005f52602260045260245ffd5b5f60028204905060018216806122cc57607f821691505b6020821081036122df576122de612288565b5b50919050565b7f4e487b71000000000000000000000000000000000000000000000000000000005f52604160045260245ffd5b61231b82611d66565b810181811067ffffffffffffffff8211171561233a576123396122e5565b5b80604052505050565b5f61234c611887565b90506123588282612312565b919050565b5f67ffffffffffffffff821115612377576123766122e5565b5b602082029050602081019050919050565b5f5ffd5b5f5ffd5b5f5ffd5b5f67ffffffffffffffff8211156123ae576123ad6122e5565b5b6123b782611d66565b9050602081019050919050565b828183375f83830152505050565b5f6123e46123df84612394565b612343565b905082815260208101848484011115612400576123ff612390565b5b61240b8482856123c4565b509392505050565b5f82601f8301126124275761242661195e565b5b81356124378482602086016123d2565b91505092915050565b5f6060828403121561245557612454612388565b5b61245f6060612343565b90505f61246e848285016118bd565b5f83015250602061248184828501611e22565b602083015250604082013567ffffffffffffffff8111156124a5576124a461238c565b5b6124b184828501612413565b60408301525092915050565b5f6124cf6124ca8461235d565b612343565b905080838252602082019050602084028301858111156124f2576124f1611966565b5b835b8181101561253957803567ffffffffffffffff8111156125175761251661195e565b5b8086016125248982612440565b855260208501945050506020810190506124f4565b5050509392505050565b5f61254f3684846124bd565b905092915050565b5f5ffd5b5f5ffd5b5f5f8585111561257257612571612557565b5b838611156125835761258261255b565b5b6001850283019150848603905094509492505050565b5f81905092915050565b5f6125ad82611d3e565b6125b78185612599565b93506125c7818560208601611d58565b80840191505092915050565b5f6125de8385612599565b93506125eb8385846123c4565b82840190509392505050565b5f61260282866125a3565b915061260f8284866125d3565b9150819050949350505050565b5f6126278385611d48565b93506126348385846123c4565b61263d83611d66565b840190509392505050565b5f6020820190508181035f83015261266181848661261c565b90509392505050565b61267381611898565b82525050565b61268281611bd6565b82525050565b5f82825260208201905092915050565b5f6126a282611d3e565b6126ac8185612688565b93506126bc818560208601611d58565b6126c581611d66565b840191505092915050565b6126d981611a55565b82525050565b5f60a083015f8301516126f45f86018261266a565b5060208301516127076020860182612679565b506040830151848203604086015261271f8282612698565b915050606083015184820360608601526127398282612698565b915050608083015161274e60808601826126d0565b508091505092915050565b5f6040820190508181035f83015261277181856126df565b90506127806020830184611f9a565b9392505050565b5f8151905061279581611bdf565b92915050565b6127a481611cc0565b81146127ae575f5ffd5b50565b5f815190506127bf8161279b565b92915050565b5f815190506127d3816118da565b92915050565b5f604082840312156127ee576127ed612388565b5b6127f86040612343565b90505f612807848285016127c5565b5f83015250602061281a848285016127c5565b60208301525092915050565b5f6080828403121561283b5761283a612388565b5b6128456060612343565b90505f61285484828501612787565b5f830152506020612867848285016127b1565b602083015250604061287b848285016127d9565b60408301525092915050565b5f6080828403121561289c5761289b611890565b5b5f6128a984828501612826565b91505092915050565b5f604082840312156128c7576128c6611890565b5b5f6128d4848285016127d9565b91505092915050565b5f6020820190506128f05f8301846121e7565b92915050565b5f61290082611904565b9050919050565b612910816128f6565b811461291a575f5ffd5b50565b5f8135905061292b81612907565b92915050565b5f5f5f6060848603121561294857612947611890565b5b5f612955868287016118f0565b93505060206129668682870161291d565b92505060406129778682870161291d565b9150509250925092565b5f82905092915050565b5f819050815f5260205f209050919050565b5f6020601f8301049050919050565b5f82821b905092915050565b5f600883026129e77fffffffffffffffffffffffffffffffffffffffffffffffffffffffffffffffff826129ac565b6129f186836129ac565b95508019841693508086168417925050509392505050565b5f612a23612a1e612a19846118d1565b611e74565b6118d1565b9050919050565b5f819050919050565b612a3c83612a09565b612a50612a4882612a2a565b8484546129b8565b825550505050565b5f5f905090565b612a67612a58565b612a72818484612a33565b505050565b5b81811015612a9557612a8a5f82612a5f565b600181019050612a78565b5050565b601f821115612ada57612aab8161298b565b612ab48461299d565b81016020851015612ac3578190505b612ad7612acf8561299d565b830182612a77565b50505b505050565b5f82821c905092915050565b5f612afa5f1984600802612adf565b1980831691505092915050565b5f612b128383612aeb565b9150826002028217905092915050565b612b2c8383612981565b67ffffffffffffffff811115612b4557612b446122e5565b5b612b4f82546122b5565b612b5a828285612a99565b5f601f831160018114612b87575f8415612b75578287013590505b612b7f8582612b07565b865550612be6565b601f198416612b958661298b565b5f5b82811015612bbc57848901358255600182019150602085019450602081019050612b97565b86831015612bd95784890135612bd5601f891682612aeb565b8355505b6001600288020188555050505b50505050505050565b5f608082019050612c025f830187611f9a565b612c0f6020830186611f9a565b612c1c604083018561221d565b612c29606083018461221d565b95945050505050565b5f81359050612c408161279b565b92915050565b5f60208284031215612c5b57612c5a611890565b5b5f612c6884828501612c32565b91505092915050565b5f604082019050612c845f830185611cd3565b612c916020830184611f9a565b9392505050565b7f4e487b71000000000000000000000000000000000000000000000000000000005f52603260045260245ffd5b612cce82611d3e565b67ffffffffffffffff811115612ce757612ce66122e5565b5b612cf182546122b5565b612cfc828285612a99565b5f60209050601f831160018114612d2d575f8415612d1b578287015190505b612d258582612b07565b865550612d8c565b601f198416612d3b8661298b565b5f5b82811015612d6257848901518255600182019150602085019450602081019050612d3d565b86831015612d7f5784890151612d7b601f891682612aeb565b8355505b6001600288020188555050505b505050505050565b5f81519050919050565b5f82825260208201905092915050565b5f819050602082019050919050565b612dc681611d09565b82525050565b5f606083015f830151612de15f86018261266a565b506020830151612df46020860182612dbd565b5060408301518482036040860152612e0c8282612698565b9150508091505092915050565b5f612e248383612dcc565b905092915050565b5f602082019050919050565b5f612e4282612d94565b612e4c8185612d9e565b935083602082028501612e5e85612dae565b805f5b85811015612e995784840389528151612e7a8582612e19565b9450612e8583612e2c565b925060208a01995050600181019050612e61565b50829750879550505050505092915050565b5f6020820190508181035f830152612ec38184612e38565b905092915050565b5f602082019050612ede5f83018461221d565b92915050565b5f606082019050612ef75f830186611f9a565b612f046020830185611f9a565b612f11604083018461221d565b94935050505056fea264697066735822122028e543e15fa292b50fc3f01d4d7e8a61e053c427bfea64d4653e8a9f4e66e9bd64736f6c634300081e00330000000000000000000000001a44076050125825900e736c501f859c50fe728c000000000000000000000000ee03621ce83bbf6e3931bccf35b144354f16ccf7",
        "nonce": "0x62",
        "chainId": "0xa4b1"
      },
      "additionalContracts": [],
      "isFixedGasLimit": false
    },
    {
      "hash": "0xf7239cf0b4532fd6ad366351ff3d6fb15fa7ab790d2c81381bb880b40a47b09a",
      "transactionType": "CALL",
      "contractName": "OAppBorrow",
      "contractAddress": "0x8868e3511c2c47ac55106c21f958e6cf1cbc1766",
      "function": "setLendingPool(address)",
      "arguments": [
        "0x7FB63D9Faf99A34bCA04EFd5BA7F75dC6DB37f4D"
      ],
      "transaction": {
        "from": "0xee03621ce83bbf6e3931bccf35b144354f16ccf7",
        "to": "0x8868e3511c2c47ac55106c21f958e6cf1cbc1766",
        "gas": "0x7349",
        "value": "0x0",
        "input": "0x113aa8b10000000000000000000000007fb63d9faf99a34bca04efd5ba7f75dc6db37f4d",
        "nonce": "0x63",
        "chainId": "0xa4b1"
      },
      "additionalContracts": [],
      "isFixedGasLimit": false
    },
    {
      "hash": "0x2920a8cb1f130fd3f7b8af1fa2621cd9be8af4a9135005318c8b2d9566b9fa33",
      "transactionType": "CALL",
      "contractName": null,
      "contractAddress": "0x1a44076050125825900e736c501f859c50fe728c",
      "function": "setSendLibrary(address,uint32,address)",
      "arguments": [
        "0x8868E3511c2C47AC55106C21f958E6Cf1Cbc1766",
        "30110",
        "0x975bcD720be66659e3EB3C0e4F1866a3020E493A"
      ],
      "transaction": {
        "from": "0xee03621ce83bbf6e3931bccf35b144354f16ccf7",
        "to": "0x1a44076050125825900e736c501f859c50fe728c",
        "gas": "0x1378b",
        "value": "0x0",
        "input": "0x9535ff300000000000000000000000008868e3511c2c47ac55106c21f958e6cf1cbc1766000000000000000000000000000000000000000000000000000000000000759e000000000000000000000000975bcd720be66659e3eb3c0e4f1866a3020e493a",
        "nonce": "0x64",
        "chainId": "0xa4b1"
      },
      "additionalContracts": [],
      "isFixedGasLimit": false
    },
    {
      "hash": "0xfd76cdba9d825e77311806421d8affe06eec8720d9ee117c9a92363f69d214b1",
      "transactionType": "CALL",
      "contractName": null,
      "contractAddress": "0x1a44076050125825900e736c501f859c50fe728c",
      "function": "setSendLibrary(address,uint32,address)",
      "arguments": [
        "0x8868E3511c2C47AC55106C21f958E6Cf1Cbc1766",
        "30184",
        "0x975bcD720be66659e3EB3C0e4F1866a3020E493A"
      ],
      "transaction": {
        "from": "0xee03621ce83bbf6e3931bccf35b144354f16ccf7",
        "to": "0x1a44076050125825900e736c501f859c50fe728c",
        "gas": "0x1378b",
        "value": "0x0",
        "input": "0x9535ff300000000000000000000000008868e3511c2c47ac55106c21f958e6cf1cbc176600000000000000000000000000000000000000000000000000000000000075e8000000000000000000000000975bcd720be66659e3eb3c0e4f1866a3020e493a",
        "nonce": "0x65",
        "chainId": "0xa4b1"
      },
      "additionalContracts": [],
      "isFixedGasLimit": false
    },
    {
      "hash": "0x3d65caba6ff4f905f5df00cecf27d862424b7e20292957d9619c4a5fc0d12050",
      "transactionType": "CALL",
      "contractName": null,
      "contractAddress": "0x1a44076050125825900e736c501f859c50fe728c",
      "function": "setReceiveLibrary(address,uint32,address,uint256)",
      "arguments": [
        "0x8868E3511c2C47AC55106C21f958E6Cf1Cbc1766",
        "30110",
        "0x7B9E184e07a6EE1aC23eAe0fe8D6Be2f663f05e6",
        "0"
      ],
      "transaction": {
        "from": "0xee03621ce83bbf6e3931bccf35b144354f16ccf7",
        "to": "0x1a44076050125825900e736c501f859c50fe728c",
        "gas": "0x17001",
        "value": "0x0",
        "input": "0x6a14d7150000000000000000000000008868e3511c2c47ac55106c21f958e6cf1cbc1766000000000000000000000000000000000000000000000000000000000000759e0000000000000000000000007b9e184e07a6ee1ac23eae0fe8d6be2f663f05e60000000000000000000000000000000000000000000000000000000000000000",
        "nonce": "0x66",
        "chainId": "0xa4b1"
      },
      "additionalContracts": [],
      "isFixedGasLimit": false
    },
    {
      "hash": "0xf8282dd0ac09e0011d491b15c24e98b76a7bab34898b1c837dc64421393930c8",
      "transactionType": "CALL",
      "contractName": null,
      "contractAddress": "0x1a44076050125825900e736c501f859c50fe728c",
      "function": "setConfig(address,address,(uint32,uint32,bytes)[])",
      "arguments": [
        "0x8868E3511c2C47AC55106C21f958E6Cf1Cbc1766",
        "0x975bcD720be66659e3EB3C0e4F1866a3020E493A",
        "[(30110, 1, 0x000000000000000000000000000000000000000000000000000000000000271000000000000000000000000031cae3b7fb82d847621859fb1585353c5720660d), (30110, 2, 0x0000000000000000000000000000000000000000000000000000000000000020000000000000000000000000000000000000000000000000000000000000000f000000000000000000000000000000000000000000000000000000000000000200000000000000000000000000000000000000000000000000000000000000ff000000000000000000000000000000000000000000000000000000000000000000000000000000000000000000000000000000000000000000000000000000c00000000000000000000000000000000000000000000000000000000000000120000000000000000000000000000000000000000000000000000000000000000200000000000000000000000019670df5e16bea2ba9b9e68b48c054c5baea06b8000000000000000000000000f2e380c90e6c09721297526dbc74f870e114dfcb0000000000000000000000000000000000000000000000000000000000000000), (30184, 1, 0x000000000000000000000000000000000000000000000000000000000000271000000000000000000000000031cae3b7fb82d847621859fb1585353c5720660d), (30184, 2, 0x0000000000000000000000000000000000000000000000000000000000000020000000000000000000000000000000000000000000000000000000000000000f000000000000000000000000000000000000000000000000000000000000000200000000000000000000000000000000000000000000000000000000000000ff000000000000000000000000000000000000000000000000000000000000000000000000000000000000000000000000000000000000000000000000000000c00000000000000000000000000000000000000000000000000000000000000120000000000000000000000000000000000000000000000000000000000000000200000000000000000000000019670df5e16bea2ba9b9e68b48c054c5baea06b8000000000000000000000000f2e380c90e6c09721297526dbc74f870e114dfcb0000000000000000000000000000000000000000000000000000000000000000)]"
      ],
      "transaction": {
        "from": "0xee03621ce83bbf6e3931bccf35b144354f16ccf7",
        "to": "0x1a44076050125825900e736c501f859c50fe728c",
        "gas": "0x6607c",
        "value": "0x0",
        "input": "0x6dbd9f900000000000000000000000008868e3511c2c47ac55106c21f958e6cf1cbc1766000000000000000000000000975bcd720be66659e3eb3c0e4f1866a3020e493a0000000000000000000000000000000000000000000000000000000000000060000000000000000000000000000000000000000000000000000000000000000400000000000000000000000000000000000000000000000000000000000000800000000000000000000000000000000000000000000000000000000000000140000000000000000000000000000000000000000000000000000000000000032000000000000000000000000000000000000000000000000000000000000003e0000000000000000000000000000000000000000000000000000000000000759e000000000000000000000000000000000000000000000000000000000000000100000000000000000000000000000000000000000000000000000000000000600000000000000000000000000000000000000000000000000000000000000040000000000000000000000000000000000000000000000000000000000000271000000000000000000000000031cae3b7fb82d847621859fb1585353c5720660d000000000000000000000000000000000000000000000000000000000000759e0000000000000000000000000000000000000000000000000000000000000002000000000000000000000000000000000000000000000000000000000000006000000000000000000000000000000000000000000000000000000000000001600000000000000000000000000000000000000000000000000000000000000020000000000000000000000000000000000000000000000000000000000000000f000000000000000000000000000000000000000000000000000000000000000200000000000000000000000000000000000000000000000000000000000000ff000000000000000000000000000000000000000000000000000000000000000000000000000000000000000000000000000000000000000000000000000000c00000000000000000000000000000000000000000000000000000000000000120000000000000000000000000000000000000000000000000000000000000000200000000000000000000000019670df5e16bea2ba9b9e68b48c054c5baea06b8000000000000000000000000f2e380c90e6c09721297526dbc74f870e114dfcb000000000000000000000000000000000000000000000000000000000000000000000000000000000000000000000000000000000000000000000000000075e8000000000000000000000000000000000000000000000000000000000000000100000000000000000000000000000000000000000000000000000000000000600000000000000000000000000000000000000000000000000000000000000040000000000000000000000000000000000000000000000000000000000000271000000000000000000000000031cae3b7fb82d847621859fb1585353c5720660d00000000000000000000000000000000000000000000000000000000000075e80000000000000000000000000000000000000000000000000000000000000002000000000000000000000000000000000000000000000000000000000000006000000000000000000000000000000000000000000000000000000000000001600000000000000000000000000000000000000000000000000000000000000020000000000000000000000000000000000000000000000000000000000000000f000000000000000000000000000000000000000000000000000000000000000200000000000000000000000000000000000000000000000000000000000000ff000000000000000000000000000000000000000000000000000000000000000000000000000000000000000000000000000000000000000000000000000000c00000000000000000000000000000000000000000000000000000000000000120000000000000000000000000000000000000000000000000000000000000000200000000000000000000000019670df5e16bea2ba9b9e68b48c054c5baea06b8000000000000000000000000f2e380c90e6c09721297526dbc74f870e114dfcb0000000000000000000000000000000000000000000000000000000000000000",
        "nonce": "0x67",
        "chainId": "0xa4b1"
      },
      "additionalContracts": [],
      "isFixedGasLimit": false
    },
    {
      "hash": "0x602e07c00981b5a98e46e249645a1f9ddc504a499f14418610e100d0a4b1d691",
      "transactionType": "CALL",
      "contractName": null,
      "contractAddress": "0x1a44076050125825900e736c501f859c50fe728c",
      "function": "setConfig(address,address,(uint32,uint32,bytes)[])",
      "arguments": [
        "0x8868E3511c2C47AC55106C21f958E6Cf1Cbc1766",
        "0x7B9E184e07a6EE1aC23eAe0fe8D6Be2f663f05e6",
        "[(30110, 2, 0x0000000000000000000000000000000000000000000000000000000000000020000000000000000000000000000000000000000000000000000000000000000f000000000000000000000000000000000000000000000000000000000000000200000000000000000000000000000000000000000000000000000000000000ff000000000000000000000000000000000000000000000000000000000000000000000000000000000000000000000000000000000000000000000000000000c00000000000000000000000000000000000000000000000000000000000000120000000000000000000000000000000000000000000000000000000000000000200000000000000000000000019670df5e16bea2ba9b9e68b48c054c5baea06b8000000000000000000000000f2e380c90e6c09721297526dbc74f870e114dfcb0000000000000000000000000000000000000000000000000000000000000000), (30184, 2, 0x0000000000000000000000000000000000000000000000000000000000000020000000000000000000000000000000000000000000000000000000000000000f000000000000000000000000000000000000000000000000000000000000000200000000000000000000000000000000000000000000000000000000000000ff000000000000000000000000000000000000000000000000000000000000000000000000000000000000000000000000000000000000000000000000000000c00000000000000000000000000000000000000000000000000000000000000120000000000000000000000000000000000000000000000000000000000000000200000000000000000000000019670df5e16bea2ba9b9e68b48c054c5baea06b8000000000000000000000000f2e380c90e6c09721297526dbc74f870e114dfcb0000000000000000000000000000000000000000000000000000000000000000)]"
      ],
      "transaction": {
        "from": "0xee03621ce83bbf6e3931bccf35b144354f16ccf7",
        "to": "0x1a44076050125825900e736c501f859c50fe728c",
        "gas": "0x5818a",
        "value": "0x0",
        "input": "0x6dbd9f900000000000000000000000008868e3511c2c47ac55106c21f958e6cf1cbc17660000000000000000000000007b9e184e07a6ee1ac23eae0fe8d6be2f663f05e60000000000000000000000000000000000000000000000000000000000000060000000000000000000000000000000000000000000000000000000000000000200000000000000000000000000000000000000000000000000000000000000400000000000000000000000000000000000000000000000000000000000000220000000000000000000000000000000000000000000000000000000000000759e0000000000000000000000000000000000000000000000000000000000000002000000000000000000000000000000000000000000000000000000000000006000000000000000000000000000000000000000000000000000000000000001600000000000000000000000000000000000000000000000000000000000000020000000000000000000000000000000000000000000000000000000000000000f000000000000000000000000000000000000000000000000000000000000000200000000000000000000000000000000000000000000000000000000000000ff000000000000000000000000000000000000000000000000000000000000000000000000000000000000000000000000000000000000000000000000000000c00000000000000000000000000000000000000000000000000000000000000120000000000000000000000000000000000000000000000000000000000000000200000000000000000000000019670df5e16bea2ba9b9e68b48c054c5baea06b8000000000000000000000000f2e380c90e6c09721297526dbc74f870e114dfcb000000000000000000000000000000000000000000000000000000000000000000000000000000000000000000000000000000000000000000000000000075e80000000000000000000000000000000000000000000000000000000000000002000000000000000000000000000000000000000000000000000000000000006000000000000000000000000000000000000000000000000000000000000001600000000000000000000000000000000000000000000000000000000000000020000000000000000000000000000000000000000000000000000000000000000f000000000000000000000000000000000000000000000000000000000000000200000000000000000000000000000000000000000000000000000000000000ff000000000000000000000000000000000000000000000000000000000000000000000000000000000000000000000000000000000000000000000000000000c00000000000000000000000000000000000000000000000000000000000000120000000000000000000000000000000000000000000000000000000000000000200000000000000000000000019670df5e16bea2ba9b9e68b48c054c5baea06b8000000000000000000000000f2e380c90e6c09721297526dbc74f870e114dfcb0000000000000000000000000000000000000000000000000000000000000000",
        "nonce": "0x68",
        "chainId": "0xa4b1"
      },
      "additionalContracts": [],
      "isFixedGasLimit": false
    }
  ],
  "receipts": [
    {
      "status": "0x1",
      "cumulativeGasUsed": "0x320725",
      "logs": [
        {
          "address": "0x8868e3511c2c47ac55106c21f958e6cf1cbc1766",
          "topics": [
            "0x8be0079c531659141344cd1fd0a4f28419497f9722a3daafe3b4186f6b6457e0",
            "0x0000000000000000000000000000000000000000000000000000000000000000",
            "0x000000000000000000000000ee03621ce83bbf6e3931bccf35b144354f16ccf7"
          ],
          "data": "0x",
          "blockHash": "0x4cc68f19257b765c58f1e77899be910b4ffecf0a6661463b9dcbab1eb61b78d1",
          "blockNumber": "0x1756081f",
          "transactionHash": "0xeca363ac7637763eb9385997f507375a95330c76eb3fefc411fbb02f3329005d",
          "transactionIndex": "0x4",
          "logIndex": "0xd",
          "removed": false
        },
        {
          "address": "0x1a44076050125825900e736c501f859c50fe728c",
          "topics": [
            "0x6ee10e9ed4d6ce9742703a498707862f4b00f1396a87195eb93267b3d7983981"
          ],
          "data": "0x0000000000000000000000008868e3511c2c47ac55106c21f958e6cf1cbc1766000000000000000000000000ee03621ce83bbf6e3931bccf35b144354f16ccf7",
          "blockHash": "0x4cc68f19257b765c58f1e77899be910b4ffecf0a6661463b9dcbab1eb61b78d1",
          "blockNumber": "0x1756081f",
          "transactionHash": "0xeca363ac7637763eb9385997f507375a95330c76eb3fefc411fbb02f3329005d",
          "transactionIndex": "0x4",
          "logIndex": "0xe",
          "removed": false
        }
      ],
      "logsBloom": "0x00000000000000000000000000000000000000000000000000800000001000000000000400000000000000000000000000000002000000000000000000000000000000000000000000000018040000000001000000000000000000000000000000000000020000000000000000000800000000000010000000000000000000400000000000000000000000000000000000000000000000000000000000000000000000000000000000000000000000000000000000000000000000000000000400000000000000000000000010000000000000000000000000000000000020000000000000000000000000000000000000000000010000000000000000000000",
      "type": "0x2",
      "transactionHash": "0xeca363ac7637763eb9385997f507375a95330c76eb3fefc411fbb02f3329005d",
      "transactionIndex": "0x4",
      "blockHash": "0x4cc68f19257b765c58f1e77899be910b4ffecf0a6661463b9dcbab1eb61b78d1",
      "blockNumber": "0x1756081f",
      "gasUsed": "0x2a230d",
      "effectiveGasPrice": "0x989680",
      "from": "0xee03621ce83bbf6e3931bccf35b144354f16ccf7",
      "to": null,
      "contractAddress": "0x8868e3511c2c47ac55106c21f958e6cf1cbc1766",
      "gasUsedForL1": "0x77fa",
      "l1BlockNumber": "0x16864cf",
      "timeboosted": false
    },
    {
      "status": "0x1",
      "cumulativeGasUsed": "0x326c8",
      "logs": [
        {
          "address": "0x8868e3511c2c47ac55106c21f958e6cf1cbc1766",
          "topics": [
            "0x7c3dfe69126e8f8130fd09c600fd8fcba2acbe0c696d598c771f23a12ce811df"
          ],
          "data": "0x0000000000000000000000007fb63d9faf99a34bca04efd5ba7f75dc6db37f4d",
          "blockHash": "0x1296d54b5688651c4d5d8d240fa39eca120c6d1312c312838e0c1fccf2eb0b04",
          "blockNumber": "0x17560826",
          "transactionHash": "0xf7239cf0b4532fd6ad366351ff3d6fb15fa7ab790d2c81381bb880b40a47b09a",
          "transactionIndex": "0x4",
          "logIndex": "0x1",
          "removed": false
        }
      ],
      "logsBloom": "0x00000000000000000000000000000800000000000000000000000000000000000000000400000000000000000000000000000008000000000000000000000000000000000000000000000008000000000000000000000000000000000000000000000000000000000000000000000000000000000000000000000000000000000000000000000000000000000000000000000000000000000000000000000000000000000000000000000000000000000000000000000000000000000000000000000000000000000000000010000000000000000000080000000000000000000000000000000000000000000000000000000000000000000000000000000000",
      "type": "0x2",
      "transactionHash": "0xf7239cf0b4532fd6ad366351ff3d6fb15fa7ab790d2c81381bb880b40a47b09a",
      "transactionIndex": "0x4",
      "blockHash": "0x1296d54b5688651c4d5d8d240fa39eca120c6d1312c312838e0c1fccf2eb0b04",
      "blockNumber": "0x17560826",
      "gasUsed": "0xbcd3",
      "effectiveGasPrice": "0x989680",
      "from": "0xee03621ce83bbf6e3931bccf35b144354f16ccf7",
      "to": "0x8868e3511c2c47ac55106c21f958e6cf1cbc1766",
      "contractAddress": null,
      "gasUsedForL1": "0x2d8",
      "l1BlockNumber": "0x16864cf",
      "timeboosted": false
    },
    {
      "status": "0x1",
      "cumulativeGasUsed": "0x1e4662",
      "logs": [
        {
          "address": "0x1a44076050125825900e736c501f859c50fe728c",
          "topics": [
            "0x4cff966ebee29a156dcb34cf72c1d06231fb1777f6bdf6e8089819232f002b1c"
          ],
          "data": "0x0000000000000000000000008868e3511c2c47ac55106c21f958e6cf1cbc1766000000000000000000000000000000000000000000000000000000000000759e000000000000000000000000975bcd720be66659e3eb3c0e4f1866a3020e493a",
          "blockHash": "0xca52c225278908bfe8442d3ce56c919b20b20a007c41f22afe376f3da60e4cb1",
          "blockNumber": "0x1756082f",
          "transactionHash": "0x2920a8cb1f130fd3f7b8af1fa2621cd9be8af4a9135005318c8b2d9566b9fa33",
          "transactionIndex": "0x7",
          "logIndex": "0x56",
          "removed": false
        }
      ],
      "logsBloom": "0x00000000000000000000000000000000000200000000000000000000001000000000000000000000000000000000000000000000000000000000000001000000000000000000000000000000000000000000000000000000000000000000000000000000000000000000000000000000000000000010000000000000000000000000000000000000000000000000000000000000000000000000000000000000000000000000000000000000000000000000000000000000000000000000000000000000000000000000000000000000000000000000000000000000000000000040000000000000000000000000000000000000010000000000000000000000",
      "type": "0x2",
      "transactionHash": "0x2920a8cb1f130fd3f7b8af1fa2621cd9be8af4a9135005318c8b2d9566b9fa33",
      "transactionIndex": "0x7",
      "blockHash": "0xca52c225278908bfe8442d3ce56c919b20b20a007c41f22afe376f3da60e4cb1",
      "blockNumber": "0x1756082f",
      "gasUsed": "0xe5ad",
      "effectiveGasPrice": "0x989680",
      "from": "0xee03621ce83bbf6e3931bccf35b144354f16ccf7",
      "to": "0x1a44076050125825900e736c501f859c50fe728c",
      "contractAddress": null,
      "gasUsedForL1": "0x41f",
      "l1BlockNumber": "0x16864cf",
      "timeboosted": false
    },
    {
      "status": "0x1",
      "cumulativeGasUsed": "0x221d24",
      "logs": [
        {
          "address": "0x1a44076050125825900e736c501f859c50fe728c",
          "topics": [
            "0x4cff966ebee29a156dcb34cf72c1d06231fb1777f6bdf6e8089819232f002b1c"
          ],
          "data": "0x0000000000000000000000008868e3511c2c47ac55106c21f958e6cf1cbc176600000000000000000000000000000000000000000000000000000000000075e8000000000000000000000000975bcd720be66659e3eb3c0e4f1866a3020e493a",
          "blockHash": "0xee838b0c97c9e21bd1f15010e82f314e54c76cdec92c033646ce87de26f22b01",
          "blockNumber": "0x17560837",
          "transactionHash": "0xfd76cdba9d825e77311806421d8affe06eec8720d9ee117c9a92363f69d214b1",
          "transactionIndex": "0x6",
          "logIndex": "0x15",
          "removed": false
        }
      ],
      "logsBloom": "0x00000000000000000000000000000000000200000000000000000000001000000000000000000000000000000000000000000000000000000000000001000000000000000000000000000000000000000000000000000000000000000000000000000000000000000000000000000000000000000010000000000000000000000000000000000000000000000000000000000000000000000000000000000000000000000000000000000000000000000000000000000000000000000000000000000000000000000000000000000000000000000000000000000000000000000040000000000000000000000000000000000000010000000000000000000000",
      "type": "0x2",
      "transactionHash": "0xfd76cdba9d825e77311806421d8affe06eec8720d9ee117c9a92363f69d214b1",
      "transactionIndex": "0x6",
      "blockHash": "0xee838b0c97c9e21bd1f15010e82f314e54c76cdec92c033646ce87de26f22b01",
      "blockNumber": "0x17560837",
      "gasUsed": "0xe5ad",
      "effectiveGasPrice": "0x989680",
      "from": "0xee03621ce83bbf6e3931bccf35b144354f16ccf7",
      "to": "0x1a44076050125825900e736c501f859c50fe728c",
      "contractAddress": null,
      "gasUsedForL1": "0x41f",
      "l1BlockNumber": "0x16864cf",
      "timeboosted": false
    },
    {
      "status": "0x1",
      "cumulativeGasUsed": "0x17d537",
      "logs": [
        {
          "address": "0x1a44076050125825900e736c501f859c50fe728c",
          "topics": [
            "0xcd6f92f5ac6185a5acfa02c92090746cec64d777269cbcd0ed031e396657a1c2"
          ],
          "data": "0x0000000000000000000000008868e3511c2c47ac55106c21f958e6cf1cbc1766000000000000000000000000000000000000000000000000000000000000759e0000000000000000000000007b9e184e07a6ee1ac23eae0fe8d6be2f663f05e6",
          "blockHash": "0x113e570d1f7359f182647e63c99c644ea3cc44ef2baa9b9bb3458a8dcb4fee20",
          "blockNumber": "0x1756083f",
          "transactionHash": "0x3d65caba6ff4f905f5df00cecf27d862424b7e20292957d9619c4a5fc0d12050",
          "transactionIndex": "0xb",
          "logIndex": "0x1a",
          "removed": false
        },
        {
          "address": "0x1a44076050125825900e736c501f859c50fe728c",
          "topics": [
            "0x4e0a5bbfa0c11a64effb1ada324b5437a17272e1aed9320398715ef71bb20928"
          ],
          "data": "0x0000000000000000000000008868e3511c2c47ac55106c21f958e6cf1cbc1766000000000000000000000000000000000000000000000000000000000000759e00000000000000000000000000000000000000000000000000000000000000000000000000000000000000000000000000000000000000000000000000000000",
          "blockHash": "0x113e570d1f7359f182647e63c99c644ea3cc44ef2baa9b9bb3458a8dcb4fee20",
          "blockNumber": "0x1756083f",
          "transactionHash": "0x3d65caba6ff4f905f5df00cecf27d862424b7e20292957d9619c4a5fc0d12050",
          "transactionIndex": "0xb",
          "logIndex": "0x1b",
          "removed": false
        }
      ],
      "logsBloom": "0x00000000000000000000020800000000000000000000000000000000001000020400000000000000000000000000000000000000000000000000000000000000000000000000000000000000000000000000000000800000000000000000000000000000000000000000000000000000000000000010000000000000000000100000000000000000000000000000000000000000000000000000000000000000000000000000000000000000000000000000000000000000000000000000000000000000000000000000000000000000000000000000000000000000000000000000000000000000000000000000000000000000010000000000000000000000",
      "type": "0x2",
      "transactionHash": "0x3d65caba6ff4f905f5df00cecf27d862424b7e20292957d9619c4a5fc0d12050",
      "transactionIndex": "0xb",
      "blockHash": "0x113e570d1f7359f182647e63c99c644ea3cc44ef2baa9b9bb3458a8dcb4fee20",
      "blockNumber": "0x1756083f",
      "gasUsed": "0x1005f",
      "effectiveGasPrice": "0x989680",
      "from": "0xee03621ce83bbf6e3931bccf35b144354f16ccf7",
      "to": "0x1a44076050125825900e736c501f859c50fe728c",
      "contractAddress": null,
      "gasUsedForL1": "0x4be",
      "l1BlockNumber": "0x16864cf",
      "timeboosted": false
    },
    {
      "status": "0x1",
      "cumulativeGasUsed": "0x36ebac",
      "logs": [
        {
          "address": "0x975bcd720be66659e3eb3c0e4f1866a3020e493a",
          "topics": [
            "0x779cb2dd9d2bb1be1737d05435d744facbfb84a2a4912e21379d39beddcdc805"
          ],
          "data": "0x0000000000000000000000008868e3511c2c47ac55106c21f958e6cf1cbc1766000000000000000000000000000000000000000000000000000000000000759e000000000000000000000000000000000000000000000000000000000000271000000000000000000000000031cae3b7fb82d847621859fb1585353c5720660d",
          "blockHash": "0xa9f4affb56d8b67d1a823e0982a4c59e022fe1cc798a8e0904ede1ddccec9075",
          "blockNumber": "0x17560846",
          "transactionHash": "0xf8282dd0ac09e0011d491b15c24e98b76a7bab34898b1c837dc64421393930c8",
          "transactionIndex": "0x2",
          "logIndex": "0x1e",
          "removed": false
        },
        {
          "address": "0x975bcd720be66659e3eb3c0e4f1866a3020e493a",
          "topics": [
            "0x82118522aa536ac0e96cc5c689407ae42b89d592aa133890a01f1509842f5081"
          ],
          "data": "0x0000000000000000000000008868e3511c2c47ac55106c21f958e6cf1cbc1766000000000000000000000000000000000000000000000000000000000000759e0000000000000000000000000000000000000000000000000000000000000060000000000000000000000000000000000000000000000000000000000000000f000000000000000000000000000000000000000000000000000000000000000200000000000000000000000000000000000000000000000000000000000000ff000000000000000000000000000000000000000000000000000000000000000000000000000000000000000000000000000000000000000000000000000000c00000000000000000000000000000000000000000000000000000000000000120000000000000000000000000000000000000000000000000000000000000000200000000000000000000000019670df5e16bea2ba9b9e68b48c054c5baea06b8000000000000000000000000f2e380c90e6c09721297526dbc74f870e114dfcb0000000000000000000000000000000000000000000000000000000000000000",
          "blockHash": "0xa9f4affb56d8b67d1a823e0982a4c59e022fe1cc798a8e0904ede1ddccec9075",
          "blockNumber": "0x17560846",
          "transactionHash": "0xf8282dd0ac09e0011d491b15c24e98b76a7bab34898b1c837dc64421393930c8",
          "transactionIndex": "0x2",
          "logIndex": "0x1f",
          "removed": false
        },
        {
          "address": "0x975bcd720be66659e3eb3c0e4f1866a3020e493a",
          "topics": [
            "0x779cb2dd9d2bb1be1737d05435d744facbfb84a2a4912e21379d39beddcdc805"
          ],
          "data": "0x0000000000000000000000008868e3511c2c47ac55106c21f958e6cf1cbc176600000000000000000000000000000000000000000000000000000000000075e8000000000000000000000000000000000000000000000000000000000000271000000000000000000000000031cae3b7fb82d847621859fb1585353c5720660d",
          "blockHash": "0xa9f4affb56d8b67d1a823e0982a4c59e022fe1cc798a8e0904ede1ddccec9075",
          "blockNumber": "0x17560846",
          "transactionHash": "0xf8282dd0ac09e0011d491b15c24e98b76a7bab34898b1c837dc64421393930c8",
          "transactionIndex": "0x2",
          "logIndex": "0x20",
          "removed": false
        },
        {
          "address": "0x975bcd720be66659e3eb3c0e4f1866a3020e493a",
          "topics": [
            "0x82118522aa536ac0e96cc5c689407ae42b89d592aa133890a01f1509842f5081"
          ],
          "data": "0x0000000000000000000000008868e3511c2c47ac55106c21f958e6cf1cbc176600000000000000000000000000000000000000000000000000000000000075e80000000000000000000000000000000000000000000000000000000000000060000000000000000000000000000000000000000000000000000000000000000f000000000000000000000000000000000000000000000000000000000000000200000000000000000000000000000000000000000000000000000000000000ff000000000000000000000000000000000000000000000000000000000000000000000000000000000000000000000000000000000000000000000000000000c00000000000000000000000000000000000000000000000000000000000000120000000000000000000000000000000000000000000000000000000000000000200000000000000000000000019670df5e16bea2ba9b9e68b48c054c5baea06b8000000000000000000000000f2e380c90e6c09721297526dbc74f870e114dfcb0000000000000000000000000000000000000000000000000000000000000000",
          "blockHash": "0xa9f4affb56d8b67d1a823e0982a4c59e022fe1cc798a8e0904ede1ddccec9075",
          "blockNumber": "0x17560846",
          "transactionHash": "0xf8282dd0ac09e0011d491b15c24e98b76a7bab34898b1c837dc64421393930c8",
          "transactionIndex": "0x2",
          "logIndex": "0x21",
          "removed": false
        }
      ],
      "logsBloom": "0x00000000000000000000000000000000000000000000000000000000000000000000000000000000000000000000000000000000000400000000000000000000000000000000000000000040000000000000000000000000002000000000000000000000000800000000000000000000000000000000000000000000000000000000000000000000000000000000000000000000000000000000000000000000000000000000000000000002000000000000000000000000000000000000008200000000000000000000000000000000000000000000000000000000000000000008000000000000000000000000000000000000000000000000000000000010",
      "type": "0x2",
      "transactionHash": "0xf8282dd0ac09e0011d491b15c24e98b76a7bab34898b1c837dc64421393930c8",
      "transactionIndex": "0x2",
      "blockHash": "0xa9f4affb56d8b67d1a823e0982a4c59e022fe1cc798a8e0904ede1ddccec9075",
      "blockNumber": "0x17560846",
      "gasUsed": "0x4a664",
      "effectiveGasPrice": "0x989680",
      "from": "0xee03621ce83bbf6e3931bccf35b144354f16ccf7",
      "to": "0x1a44076050125825900e736c501f859c50fe728c",
      "contractAddress": null,
      "gasUsedForL1": "0x880",
      "l1BlockNumber": "0x16864cf",
      "timeboosted": false
    },
    {
      "status": "0x1",
      "cumulativeGasUsed": "0x3cb3e",
      "logs": [
        {
          "address": "0x7b9e184e07a6ee1ac23eae0fe8d6be2f663f05e6",
          "topics": [
            "0x82118522aa536ac0e96cc5c689407ae42b89d592aa133890a01f1509842f5081"
          ],
          "data": "0x0000000000000000000000008868e3511c2c47ac55106c21f958e6cf1cbc1766000000000000000000000000000000000000000000000000000000000000759e0000000000000000000000000000000000000000000000000000000000000060000000000000000000000000000000000000000000000000000000000000000f000000000000000000000000000000000000000000000000000000000000000200000000000000000000000000000000000000000000000000000000000000ff000000000000000000000000000000000000000000000000000000000000000000000000000000000000000000000000000000000000000000000000000000c00000000000000000000000000000000000000000000000000000000000000120000000000000000000000000000000000000000000000000000000000000000200000000000000000000000019670df5e16bea2ba9b9e68b48c054c5baea06b8000000000000000000000000f2e380c90e6c09721297526dbc74f870e114dfcb0000000000000000000000000000000000000000000000000000000000000000",
          "blockHash": "0x5e15e1f40b65c05d14d9e828c977dd4417f42ca9d71f771b9855c7ce7477f70f",
          "blockNumber": "0x1756084e",
          "transactionHash": "0x602e07c00981b5a98e46e249645a1f9ddc504a499f14418610e100d0a4b1d691",
          "transactionIndex": "0x1",
          "logIndex": "0x0",
          "removed": false
        },
        {
          "address": "0x7b9e184e07a6ee1ac23eae0fe8d6be2f663f05e6",
          "topics": [
            "0x82118522aa536ac0e96cc5c689407ae42b89d592aa133890a01f1509842f5081"
          ],
          "data": "0x0000000000000000000000008868e3511c2c47ac55106c21f958e6cf1cbc176600000000000000000000000000000000000000000000000000000000000075e80000000000000000000000000000000000000000000000000000000000000060000000000000000000000000000000000000000000000000000000000000000f000000000000000000000000000000000000000000000000000000000000000200000000000000000000000000000000000000000000000000000000000000ff000000000000000000000000000000000000000000000000000000000000000000000000000000000000000000000000000000000000000000000000000000c00000000000000000000000000000000000000000000000000000000000000120000000000000000000000000000000000000000000000000000000000000000200000000000000000000000019670df5e16bea2ba9b9e68b48c054c5baea06b8000000000000000000000000f2e380c90e6c09721297526dbc74f870e114dfcb0000000000000000000000000000000000000000000000000000000000000000",
          "blockHash": "0x5e15e1f40b65c05d14d9e828c977dd4417f42ca9d71f771b9855c7ce7477f70f",
          "blockNumber": "0x1756084e",
          "transactionHash": "0x602e07c00981b5a98e46e249645a1f9ddc504a499f14418610e100d0a4b1d691",
          "transactionIndex": "0x1",
          "logIndex": "0x1",
          "removed": false
        }
      ],
      "logsBloom": "0x00000000000020000000000000000000000000000000000000000000000000000000000000000000000000000000000000000000000000000000000000000000000000000000000000000000000000020000000000000000002000000000000000000000000000000000000000000000000000000000008000000000000000000000000000000000000000000000000000000000000000000000000000000000000000000000000000000002000000000000000000000000000000000000000000000000000000000000000000000000000000000000000000000000000000000000000000000000000000000000000000000000000000000000000000000010",
      "type": "0x2",
      "transactionHash": "0x602e07c00981b5a98e46e249645a1f9ddc504a499f14418610e100d0a4b1d691",
      "transactionIndex": "0x1",
      "blockHash": "0x5e15e1f40b65c05d14d9e828c977dd4417f42ca9d71f771b9855c7ce7477f70f",
      "blockNumber": "0x1756084e",
      "gasUsed": "0x3cb3e",
      "effectiveGasPrice": "0x989680",
      "from": "0xee03621ce83bbf6e3931bccf35b144354f16ccf7",
      "to": "0x1a44076050125825900e736c501f859c50fe728c",
      "contractAddress": null,
      "gasUsedForL1": "0x774",
      "l1BlockNumber": "0x16864d0",
      "timeboosted": false
    }
  ],
  "libraries": [],
  "pending": [],
  "returns": {},
  "timestamp": 1760962793968,
  "chain": 42161,
  "commit": "fbbea34"
}