{
  "transactions": [
    {
      "hash": "0x5767977b81d34cd8d12006c6377b7f1775a5242d3050ec205ccc22ab27dbcbdc",
      "transactionType": "CALL",
      "contractName": null,
      "contractAddress": "0x8da2f4663d02dbf598d90f5172347aecf119b463",
      "function": "setPeer(uint32,bytes32)",
      "arguments": [
        "30110",
        "0x0000000000000000000000008da2f4663d02dbf598d90f5172347aecf119b463"
      ],
      "transaction": {
        "from": "0xee03621ce83bbf6e3931bccf35b144354f16ccf7",
        "to": "0x8da2f4663d02dbf598d90f5172347aecf119b463",
        "gas": "0x96bd",
        "value": "0x0",
        "input": "0x3400288b000000000000000000000000000000000000000000000000000000000000759e0000000000000000000000008da2f4663d02dbf598d90f5172347aecf119b463",
        "nonce": "0x46",
        "chainId": "0xa4b1"
      },
      "additionalContracts": [],
      "isFixedGasLimit": false
    },
    {
      "hash": "0x76835c302d719f233557db987e5b37d34c02ba3f736168dbcf5307db29ec3aa7",
      "transactionType": "CALL",
      "contractName": null,
      "contractAddress": "0x8da2f4663d02dbf598d90f5172347aecf119b463",
      "function": "setPeer(uint32,bytes32)",
      "arguments": [
        "30184",
        "0x0000000000000000000000009b7168fc8cecee70b1beed9b5ecfcd1f649f2b1c"
      ],
      "transaction": {
        "from": "0xee03621ce83bbf6e3931bccf35b144354f16ccf7",
        "to": "0x8da2f4663d02dbf598d90f5172347aecf119b463",
        "gas": "0xfbfd",
        "value": "0x0",
        "input": "0x3400288b00000000000000000000000000000000000000000000000000000000000075e80000000000000000000000009b7168fc8cecee70b1beed9b5ecfcd1f649f2b1c",
        "nonce": "0x47",
        "chainId": "0xa4b1"
      },
      "additionalContracts": [],
      "isFixedGasLimit": false
    },
    {
      "hash": "0x0e7ca85083f8e6167a83252579a416776ac5992433cbcaeef4171d980bd7484a",
      "transactionType": "CALL",
      "contractName": null,
      "contractAddress": "0x8da2f4663d02dbf598d90f5172347aecf119b463",
      "function": "setEnforcedOptions((uint32,uint16,bytes)[])",
      "arguments": [
        "[(30110, 1, 0x00030100110100000000000000000000000000013880), (30184, 1, 0x000301001101000000000000000000000000000186a0)]"
      ],
      "transaction": {
        "from": "0xee03621ce83bbf6e3931bccf35b144354f16ccf7",
        "to": "0x8da2f4663d02dbf598d90f5172347aecf119b463",
        "gas": "0xe2e9",
        "value": "0x0",
        "input": "0xb98bd07000000000000000000000000000000000000000000000000000000000000000200000000000000000000000000000000000000000000000000000000000000002000000000000000000000000000000000000000000000000000000000000004000000000000000000000000000000000000000000000000000000000000000e0000000000000000000000000000000000000000000000000000000000000759e000000000000000000000000000000000000000000000000000000000000000100000000000000000000000000000000000000000000000000000000000000600000000000000000000000000000000000000000000000000000000000000016000301001101000000000000000000000000000138800000000000000000000000000000000000000000000000000000000000000000000000000000000075e8000000000000000000000000000000000000000000000000000000000000000100000000000000000000000000000000000000000000000000000000000000600000000000000000000000000000000000000000000000000000000000000016000301001101000000000000000000000000000186a000000000000000000000",
        "nonce": "0x48",
        "chainId": "0xa4b1"
      },
      "additionalContracts": [],
      "isFixedGasLimit": false
    },
    {
      "hash": "0x1f56684f0e51dde21e23e0d6efb9b78175fc0606a00662676d80857ce7792629",
      "transactionType": "CALL",
      "contractName": null,
      "contractAddress": "0x8da2f4663d02dbf598d90f5172347aecf119b463",
      "function": "setRouter(address)",
      "arguments": [
        "0xcC0563F952FADb3a7D54A448AEB079D7d8F849fa"
      ],
      "transaction": {
        "from": "0xee03621ce83bbf6e3931bccf35b144354f16ccf7",
        "to": "0x8da2f4663d02dbf598d90f5172347aecf119b463",
        "gas": "0x96ef",
        "value": "0x0",
        "input": "0xc0d78655000000000000000000000000cc0563f952fadb3a7d54a448aeb079d7d8f849fa",
        "nonce": "0x49",
        "chainId": "0xa4b1"
      },
      "additionalContracts": [],
      "isFixedGasLimit": false
    }
  ],
  "receipts": [
    {
      "status": "0x1",
      "cumulativeGasUsed": "0x71ca",
      "logs": [
        {
          "address": "0x8da2f4663d02dbf598d90f5172347aecf119b463",
          "topics": [
            "0x238399d427b947898edb290f5ff0f9109849b1c3ba196a42e35f00c50a54b98b"
          ],
          "data": "0x000000000000000000000000000000000000000000000000000000000000759e0000000000000000000000008da2f4663d02dbf598d90f5172347aecf119b463",
          "blockHash": "0x4ba6101aa9edbe0f800430d290aef1ef8e03de0554f10aec2ab52c433410ca08",
          "blockNumber": "0x174b2186",
          "transactionHash": "0x5767977b81d34cd8d12006c6377b7f1775a5242d3050ec205ccc22ab27dbcbdc",
          "transactionIndex": "0x1",
          "logIndex": "0x0",
          "removed": false
        }
      ],
      "logsBloom": "0x00000000000000000000000000000000000000000000000000000000000000000000000000000000000000001000000000000000000000000800000000000000000000000000000000000000000000000000000000000000000000010000000000000000000000000000000000000000000000000000000000000000000000000000000000000000000000000000000000000000000000000000000000000000000000000000000000000000000000000000000000000000000002000000000000000000000000000000000000000000000000000004000000040000000000000000000000000000000000000000000000000000000000000000000000000000",
      "type": "0x2",
      "transactionHash": "0x5767977b81d34cd8d12006c6377b7f1775a5242d3050ec205ccc22ab27dbcbdc",
      "transactionIndex": "0x1",
      "blockHash": "0x4ba6101aa9edbe0f800430d290aef1ef8e03de0554f10aec2ab52c433410ca08",
      "blockNumber": "0x174b2186",
      "gasUsed": "0x71ca",
      "effectiveGasPrice": "0x989680",
      "from": "0xee03621ce83bbf6e3931bccf35b144354f16ccf7",
      "to": "0x8da2f4663d02dbf598d90f5172347aecf119b463",
      "contractAddress": null,
      "gasUsedForL1": "0x32a",
      "l1BlockNumber": "0x1682b23",
      "timeboosted": false
    },
    {
      "status": "0x1",
      "cumulativeGasUsed": "0x1527b",
      "logs": [
        {
          "address": "0x8da2f4663d02dbf598d90f5172347aecf119b463",
          "topics": [
            "0x238399d427b947898edb290f5ff0f9109849b1c3ba196a42e35f00c50a54b98b"
          ],
          "data": "0x00000000000000000000000000000000000000000000000000000000000075e80000000000000000000000009b7168fc8cecee70b1beed9b5ecfcd1f649f2b1c",
          "blockHash": "0x1e21ea646f3209a71a4a27e67f12ae0b3dc66e9be8dc9314e75ab93ce5863fed",
          "blockNumber": "0x174b2193",
          "transactionHash": "0x76835c302d719f233557db987e5b37d34c02ba3f736168dbcf5307db29ec3aa7",
          "transactionIndex": "0x2",
          "logIndex": "0x0",
          "removed": false
        }
      ],
      "logsBloom": "0x00000000000000000000000000000000000000000000000000000000000000000000000000000000000000001000000000000000000000000800000000000000000000000000000000000000000000000000000000000000000000010000000000000000000000000000000000000000000000000000000000000000000000000000000000000000000000000000000000000000000000000000000000000000000000000000000000000000000000000000000000000000000002000000000000000000000000000000000000000000000000000004000000040000000000000000000000000000000000000000000000000000000000000000000000000000",
      "type": "0x2",
      "transactionHash": "0x76835c302d719f233557db987e5b37d34c02ba3f736168dbcf5307db29ec3aa7",
      "transactionIndex": "0x2",
      "blockHash": "0x1e21ea646f3209a71a4a27e67f12ae0b3dc66e9be8dc9314e75ab93ce5863fed",
      "blockNumber": "0x174b2193",
      "gasUsed": "0xbf81",
      "effectiveGasPrice": "0x989680",
      "from": "0xee03621ce83bbf6e3931bccf35b144354f16ccf7",
      "to": "0x8da2f4663d02dbf598d90f5172347aecf119b463",
      "contractAddress": null,
      "gasUsedForL1": "0x325",
      "l1BlockNumber": "0x1682b23",
      "timeboosted": false
    },
    {
      "status": "0x1",
      "cumulativeGasUsed": "0xac1d",
      "logs": [
        {
          "address": "0x8da2f4663d02dbf598d90f5172347aecf119b463",
          "topics": [
            "0xbe4864a8e820971c0247f5992e2da559595f7bf076a21cb5928d443d2a13b674"
          ],
          "data": "0x00000000000000000000000000000000000000000000000000000000000000200000000000000000000000000000000000000000000000000000000000000002000000000000000000000000000000000000000000000000000000000000004000000000000000000000000000000000000000000000000000000000000000e0000000000000000000000000000000000000000000000000000000000000759e000000000000000000000000000000000000000000000000000000000000000100000000000000000000000000000000000000000000000000000000000000600000000000000000000000000000000000000000000000000000000000000016000301001101000000000000000000000000000138800000000000000000000000000000000000000000000000000000000000000000000000000000000075e8000000000000000000000000000000000000000000000000000000000000000100000000000000000000000000000000000000000000000000000000000000600000000000000000000000000000000000000000000000000000000000000016000301001101000000000000000000000000000186a000000000000000000000",
          "blockHash": "0xb104653b34a00839ea22d696a3a8e7aa37f3ed10744ef3abe10f8ac90597311b",
          "blockNumber": "0x174b219a",
          "transactionHash": "0x0e7ca85083f8e6167a83252579a416776ac5992433cbcaeef4171d980bd7484a",
          "transactionIndex": "0x1",
          "logIndex": "0x0",
          "removed": false
        }
      ],
      "logsBloom": "0x00000000000000000000000000000000000000000000000000000000000000000000000000000000000000001000000000000000000000000000400000000000000000000000000000000000000000000000000000000000000000010000000000000000000000000000000000000000000000000000000000000000000000000000000000000000000000000000000000000000000000000000000000080000000000000000000000000000000000000000000000000000000000000000000000000000000000000000000002000000000000000004000000000000000000000000000000000000000000000000000000000000000000000000000000000000",
      "type": "0x2",
      "transactionHash": "0x0e7ca85083f8e6167a83252579a416776ac5992433cbcaeef4171d980bd7484a",
      "transactionIndex": "0x1",
      "blockHash": "0xb104653b34a00839ea22d696a3a8e7aa37f3ed10744ef3abe10f8ac90597311b",
      "blockNumber": "0x174b219a",
      "gasUsed": "0xac1d",
      "effectiveGasPrice": "0x989680",
      "from": "0xee03621ce83bbf6e3931bccf35b144354f16ccf7",
      "to": "0x8da2f4663d02dbf598d90f5172347aecf119b463",
      "contractAddress": null,
      "gasUsedForL1": "0x50b",
      "l1BlockNumber": "0x1682b23",
      "timeboosted": false
    },
    {
      "status": "0x1",
      "cumulativeGasUsed": "0x296b6e",
      "logs": [],
      "logsBloom": "0x00000000000000000000000000000000000000000000000000000000000000000000000000000000000000000000000000000000000000000000000000000000000000000000000000000000000000000000000000000000000000000000000000000000000000000000000000000000000000000000000000000000000000000000000000000000000000000000000000000000000000000000000000000000000000000000000000000000000000000000000000000000000000000000000000000000000000000000000000000000000000000000000000000000000000000000000000000000000000000000000000000000000000000000000000000000",
      "type": "0x2",
      "transactionHash": "0x1f56684f0e51dde21e23e0d6efb9b78175fc0606a00662676d80857ce7792629",
      "transactionIndex": "0x3",
      "blockHash": "0x0451f7441ff5452575752fb6acb72cc2aad6e2ad4d0ef57eb99572916427a724",
      "blockNumber": "0x174b21a1",
      "gasUsed": "0x69e8",
      "effectiveGasPrice": "0x989680",
      "from": "0xee03621ce83bbf6e3931bccf35b144354f16ccf7",
      "to": "0x8da2f4663d02dbf598d90f5172347aecf119b463",
      "contractAddress": null,
      "gasUsedForL1": "0x295",
      "l1BlockNumber": "0x1682b23",
      "timeboosted": false
    }
  ],
  "libraries": [],
  "pending": [],
  "returns": {},
  "timestamp": 1760784084277,
  "chain": 42161,
  "commit": "aaddbdd"
}