{
  "transactions": [
    {
      "hash": "0x81d801d600b931df717c22df84e4d2d9836451e8ad0b1fc2a0306a5fb9f3ca34",
      "transactionType": "CREATE",
      "contractName": "Router",
      "contractAddress": "0xa2ad81bd2c6b74a88bceea7824a4161b7cf1f26e",
      "function": null,
      "arguments": null,
      "transaction": {
        "from": "0xee03621ce83bbf6e3931bccf35b144354f16ccf7",
        "gas": "0x10c0c0",
        "value": "0x0",
        "input": "0x608060405234801561000f575f5ffd5b50335f73ffffffffffffffffffffffffffffffffffffffff168173ffffffffffffffffffffffffffffffffffffffff1603610081575f6040517f1e4fbdf70000000000000000000000000000000000000000000000000000000081526004016100789190610196565b60405180910390fd5b6100908161009660201b60201c565b506101af565b5f5f5f9054906101000a900473ffffffffffffffffffffffffffffffffffffffff169050815f5f6101000a81548173ffffffffffffffffffffffffffffffffffffffff021916908373ffffffffffffffffffffffffffffffffffffffff1602179055508173ffffffffffffffffffffffffffffffffffffffff168173ffffffffffffffffffffffffffffffffffffffff167f8be0079c531659141344cd1fd0a4f28419497f9722a3daafe3b4186f6b6457e060405160405180910390a35050565b5f73ffffffffffffffffffffffffffffffffffffffff82169050919050565b5f61018082610157565b9050919050565b61019081610176565b82525050565b5f6020820190506101a95f830184610187565b92915050565b610d7a806101bc5f395ff3fe608060405234801561000f575f5ffd5b50600436106100fe575f3560e01c80639ce5d2ba11610095578063e724bc7411610064578063e724bc7414610284578063ef75be55146102a0578063f2fde38b146102d0578063f86ae788146102ec576100fe565b80639ce5d2ba146101fc578063a59a99731461022c578063b3ce07de1461024a578063e402080414610266576100fe565b8063715018a6116100d1578063715018a61461019a57806375b568a6146101a45780638da5cb5b146101c25780639cc8b2d1146101e0576100fe565b8063113aa8b11461010257806339a264d01461011e57806359917d7d1461014e57806361d0dae51461016a575b5f5ffd5b61011c60048036038101906101179190610ad0565b610308565b005b61013860048036038101906101339190610b2e565b61038a565b6040516101459190610b7b565b60405180910390f35b61016860048036038101906101639190610ad0565b6103c7565b005b610184600480360381019061017f9190610b2e565b610449565b6040516101919190610b7b565b60405180910390f35b6101a2610486565b005b6101ac610499565b6040516101b99190610b7b565b60405180910390f35b6101ca6104be565b6040516101d79190610b7b565b60405180910390f35b6101fa60048036038101906101f59190610ad0565b6104e5565b005b61021660048036038101906102119190610b94565b610567565b6040516102239190610bce565b60405180910390f35b61023461057c565b6040516102419190610b7b565b60405180910390f35b610264600480360381019061025f9190610be7565b6105a1565b005b61026e61075b565b60405161027b9190610b7b565b60405180910390f35b61029e60048036038101906102999190610c37565b610780565b005b6102ba60048036038101906102b59190610b94565b6107db565b6040516102c79190610b7b565b60405180910390f35b6102ea60048036038101906102e59190610ad0565b61080b565b005b61030660048036038101906103019190610c75565b61088f565b005b610310610923565b8060035f6101000a81548173ffffffffffffffffffffffffffffffffffffffff021916908373ffffffffffffffffffffffffffffffffffffffff1602179055507f1222804283c650162c0f858b42dcc4564e940f0cc2b3f001bcd6af8aa00a2f308160405161037f9190610b7b565b60405180910390a150565b6006602052815f5260405f20602052805f5260405f205f915091509054906101000a900473ffffffffffffffffffffffffffffffffffffffff1681565b6103cf610923565b8060025f6101000a81548173ffffffffffffffffffffffffffffffffffffffff021916908373ffffffffffffffffffffffffffffffffffffffff1602179055507fdfccf581ae27a41845f39125ccb5ef00c0a079c5bf3bf751ecd2045e2d6d442f8160405161043e9190610b7b565b60405180910390a150565b6007602052815f5260405f20602052805f5260405f205f915091509054906101000a900473ffffffffffffffffffffffffffffffffffffffff1681565b61048e610923565b6104975f6109aa565b565b60015f9054906101000a900473ffffffffffffffffffffffffffffffffffffffff1681565b5f5f5f9054906101000a900473ffffffffffffffffffffffffffffffffffffffff16905090565b6104ed610923565b8060015f6101000a81548173ffffffffffffffffffffffffffffffffffffffff021916908373ffffffffffffffffffffffffffffffffffffffff1602179055507f0a79aff962cc9e0a3ce8d1f62271362cbf066d9d0ffc588f0f90940b1fe419558160405161055c9190610b7b565b60405180910390a150565b6004602052805f5260405f205f915090505481565b60035f9054906101000a900473ffffffffffffffffffffffffffffffffffffffff1681565b6105a9610923565b5f60045f8481526020019081526020015f205490505f81036106045782816040517f31d64e820000000000000000000000000000000000000000000000000000000081526004016105fb929190610cb3565b60405180910390fd5b8160075f8673ffffffffffffffffffffffffffffffffffffffff1673ffffffffffffffffffffffffffffffffffffffff1681526020019081526020015f205f8381526020019081526020015f205f6101000a81548173ffffffffffffffffffffffffffffffffffffffff021916908373ffffffffffffffffffffffffffffffffffffffff1602179055508160065f8673ffffffffffffffffffffffffffffffffffffffff1673ffffffffffffffffffffffffffffffffffffffff1681526020019081526020015f205f8581526020019081526020015f205f6101000a81548173ffffffffffffffffffffffffffffffffffffffff021916908373ffffffffffffffffffffffffffffffffffffffff1602179055507f56c11b172f0dd7dd15debf6b9704a3b4af711bb611b33fcb966b2fa57530b9ff8484838560405161074d9493929190610cda565b60405180910390a150505050565b60025f9054906101000a900473ffffffffffffffffffffffffffffffffffffffff1681565b610788610923565b8060045f8481526020019081526020015f20819055507f84f965c2d43aff223849d7e2295ef7211c3118122c961e195d9dd40a32f46c8682826040516107cf929190610cb3565b60405180910390a15050565b6005602052805f5260405f205f915054906101000a900473ffffffffffffffffffffffffffffffffffffffff1681565b610813610923565b5f73ffffffffffffffffffffffffffffffffffffffff168173ffffffffffffffffffffffffffffffffffffffff1603610883575f6040517f1e4fbdf700000000000000000000000000000000000000000000000000000000815260040161087a9190610b7b565b60405180910390fd5b61088c816109aa565b50565b610897610923565b8060055f8481526020019081526020015f205f6101000a81548173ffffffffffffffffffffffffffffffffffffffff021916908373ffffffffffffffffffffffffffffffffffffffff1602179055507f08bb8a5c04b030742c31bf3ed154a8ee0a26b42d6edea42acb7a82eefbe8366b8282604051610917929190610d1d565b60405180910390a15050565b61092b610a6b565b73ffffffffffffffffffffffffffffffffffffffff166109496104be565b73ffffffffffffffffffffffffffffffffffffffff16146109a85761096c610a6b565b6040517f118cdaa700000000000000000000000000000000000000000000000000000000815260040161099f9190610b7b565b60405180910390fd5b565b5f5f5f9054906101000a900473ffffffffffffffffffffffffffffffffffffffff169050815f5f6101000a81548173ffffffffffffffffffffffffffffffffffffffff021916908373ffffffffffffffffffffffffffffffffffffffff1602179055508173ffffffffffffffffffffffffffffffffffffffff168173ffffffffffffffffffffffffffffffffffffffff167f8be0079c531659141344cd1fd0a4f28419497f9722a3daafe3b4186f6b6457e060405160405180910390a35050565b5f33905090565b5f5ffd5b5f73ffffffffffffffffffffffffffffffffffffffff82169050919050565b5f610a9f82610a76565b9050919050565b610aaf81610a95565b8114610ab9575f5ffd5b50565b5f81359050610aca81610aa6565b92915050565b5f60208284031215610ae557610ae4610a72565b5b5f610af284828501610abc565b91505092915050565b5f819050919050565b610b0d81610afb565b8114610b17575f5ffd5b50565b5f81359050610b2881610b04565b92915050565b5f5f60408385031215610b4457610b43610a72565b5b5f610b5185828601610abc565b9250506020610b6285828601610b1a565b9150509250929050565b610b7581610a95565b82525050565b5f602082019050610b8e5f830184610b6c565b92915050565b5f60208284031215610ba957610ba8610a72565b5b5f610bb684828501610b1a565b91505092915050565b610bc881610afb565b82525050565b5f602082019050610be15f830184610bbf565b92915050565b5f5f5f60608486031215610bfe57610bfd610a72565b5b5f610c0b86828701610abc565b9350506020610c1c86828701610b1a565b9250506040610c2d86828701610abc565b9150509250925092565b5f5f60408385031215610c4d57610c4c610a72565b5b5f610c5a85828601610b1a565b9250506020610c6b85828601610b1a565b9150509250929050565b5f5f60408385031215610c8b57610c8a610a72565b5b5f610c9885828601610b1a565b9250506020610ca985828601610abc565b9150509250929050565b5f604082019050610cc65f830185610bbf565b610cd36020830184610bbf565b9392505050565b5f608082019050610ced5f830187610b6c565b610cfa6020830186610bbf565b610d076040830185610bbf565b610d146060830184610b6c565b95945050505050565b5f604082019050610d305f830185610bbf565b610d3d6020830184610b6c565b939250505056fea264697066735822122029712d3c4c77943ef039f4c3661260f75e9491672ec6e1020b33bc2e410d21e764736f6c634300081e0033",
        "nonce": "0x2f",
        "chainId": "0xa4b1"
      },
      "additionalContracts": [],
      "isFixedGasLimit": false
    },
    {
      "hash": "0xb14dcd03887b6c5db170dadb86dab77f415ba0ff1c61976aa2a3a14c24d2ac84",
      "transactionType": "CALL",
      "contractName": "Router",
      "contractAddress": "0xa2ad81bd2c6b74a88bceea7824a4161b7cf1f26e",
      "function": "setTokenDataStream(address)",
      "arguments": [
        "0xC0473BD9e466A7E564b9f1A0065f1eFa41966D54"
      ],
      "transaction": {
        "from": "0xee03621ce83bbf6e3931bccf35b144354f16ccf7",
        "to": "0xa2ad81bd2c6b74a88bceea7824a4161b7cf1f26e",
        "gas": "0x7273",
        "value": "0x0",
        "input": "0x9cc8b2d1000000000000000000000000c0473bd9e466a7e564b9f1a0065f1efa41966d54",
        "nonce": "0x30",
        "chainId": "0xa4b1"
      },
      "additionalContracts": [],
      "isFixedGasLimit": false
    },
    {
      "hash": "0xb11d769e34c786a2e6f6c605610169756d5820bb1680636bd83b2d48d2ff7b39",
      "transactionType": "CALL",
      "contractName": "Router",
      "contractAddress": "0xa2ad81bd2c6b74a88bceea7824a4161b7cf1f26e",
      "function": "setIsHealthy(address)",
      "arguments": [
        "0x9383C92c309c4Db56Fa3Ee57a9Eb7ED8c5edDa22"
      ],
      "transaction": {
        "from": "0xee03621ce83bbf6e3931bccf35b144354f16ccf7",
        "to": "0xa2ad81bd2c6b74a88bceea7824a4161b7cf1f26e",
        "gas": "0x7273",
        "value": "0x0",
        "input": "0x59917d7d0000000000000000000000009383c92c309c4db56fa3ee57a9eb7ed8c5edda22",
        "nonce": "0x31",
        "chainId": "0xa4b1"
      },
      "additionalContracts": [],
      "isFixedGasLimit": false
    },
    {
      "hash": "0x9cb9b5e5893f3c31d82eed97de2d0d3d106073e37fe77fd93765729f85b0fde0",
      "transactionType": "CALL",
      "contractName": "Router",
      "contractAddress": "0xa2ad81bd2c6b74a88bceea7824a4161b7cf1f26e",
      "function": "setLendingPool(address)",
      "arguments": [
        "0x7FB63D9Faf99A34bCA04EFd5BA7F75dC6DB37f4D"
      ],
      "transaction": {
        "from": "0xee03621ce83bbf6e3931bccf35b144354f16ccf7",
        "to": "0xa2ad81bd2c6b74a88bceea7824a4161b7cf1f26e",
        "gas": "0x7273",
        "value": "0x0",
        "input": "0x113aa8b10000000000000000000000007fb63d9faf99a34bca04efd5ba7f75dc6db37f4d",
        "nonce": "0x32",
        "chainId": "0xa4b1"
      },
      "additionalContracts": [],
      "isFixedGasLimit": false
    },
    {
      "hash": "0xfd7230f41ca7148320c0545ea1891625c1882f0be8761d4e22f0b7b6fd035304",
      "transactionType": "CALL",
      "contractName": "Router",
      "contractAddress": "0xa2ad81bd2c6b74a88bceea7824a4161b7cf1f26e",
      "function": "setChainIdToLzEid(uint256,uint256)",
      "arguments": [
        "42161",
        "30184"
      ],
      "transaction": {
        "from": "0xee03621ce83bbf6e3931bccf35b144354f16ccf7",
        "to": "0xa2ad81bd2c6b74a88bceea7824a4161b7cf1f26e",
        "gas": "0x72e3",
        "value": "0x0",
        "input": "0xe724bc74000000000000000000000000000000000000000000000000000000000000a4b100000000000000000000000000000000000000000000000000000000000075e8",
        "nonce": "0x33",
        "chainId": "0xa4b1"
      },
      "additionalContracts": [],
      "isFixedGasLimit": false
    },
    {
      "hash": "0x3edab791c3cf93a7c3389567f09bfd9af8139605c38055cf5f9fe2d44b0d1969",
      "transactionType": "CALL",
      "contractName": "Router",
      "contractAddress": "0xa2ad81bd2c6b74a88bceea7824a4161b7cf1f26e",
      "function": "setChainIdToLzEid(uint256,uint256)",
      "arguments": [
        "8453",
        "30110"
      ],
      "transaction": {
        "from": "0xee03621ce83bbf6e3931bccf35b144354f16ccf7",
        "to": "0xa2ad81bd2c6b74a88bceea7824a4161b7cf1f26e",
        "gas": "0x72e3",
        "value": "0x0",
        "input": "0xe724bc740000000000000000000000000000000000000000000000000000000000002105000000000000000000000000000000000000000000000000000000000000759e",
        "nonce": "0x34",
        "chainId": "0xa4b1"
      },
      "additionalContracts": [],
      "isFixedGasLimit": false
    },
    {
      "hash": "0xb100147d72124ddd3733d85e1c20774cc9e5536ade8e773d19eb3d0969fc9cb1",
      "transactionType": "CALL",
      "contractName": "Router",
      "contractAddress": "0xa2ad81bd2c6b74a88bceea7824a4161b7cf1f26e",
      "function": "setChainIdToOApp(uint256,address)",
      "arguments": [
        "42161",
        "0x8dA2F4663d02dBf598d90f5172347aeCF119B463"
      ],
      "transaction": {
        "from": "0xee03621ce83bbf6e3931bccf35b144354f16ccf7",
        "to": "0xa2ad81bd2c6b74a88bceea7824a4161b7cf1f26e",
        "gas": "0x73fc",
        "value": "0x0",
        "input": "0xf86ae788000000000000000000000000000000000000000000000000000000000000a4b10000000000000000000000008da2f4663d02dbf598d90f5172347aecf119b463",
        "nonce": "0x35",
        "chainId": "0xa4b1"
      },
      "additionalContracts": [],
      "isFixedGasLimit": false
    },
    {
      "hash": "0x7df0fd582fc921693a097d1b2d5dd031d28ba078a4c15bb092aae85a7ea41330",
      "transactionType": "CALL",
      "contractName": "Router",
      "contractAddress": "0xa2ad81bd2c6b74a88bceea7824a4161b7cf1f26e",
      "function": "setCrosschainToken(address,uint256,address)",
      "arguments": [
        "0xC23e60Ac84240ffCe72680652515dfb1435C356b",
        "8453",
        "0xe3BaB20B2711e0577C46d14fd10bfFC0961036C3"
      ],
      "transaction": {
        "from": "0xee03621ce83bbf6e3931bccf35b144354f16ccf7",
        "to": "0xa2ad81bd2c6b74a88bceea7824a4161b7cf1f26e",
        "gas": "0x7698",
        "value": "0x0",
        "input": "0xb3ce07de000000000000000000000000c23e60ac84240ffce72680652515dfb1435c356b0000000000000000000000000000000000000000000000000000000000002105000000000000000000000000e3bab20b2711e0577c46d14fd10bffc0961036c3",
        "nonce": "0x36",
        "chainId": "0xa4b1"
      },
      "additionalContracts": [],
      "isFixedGasLimit": false
    },
    {
      "hash": "0xb3db0e3e2fd63d2c5a5bea0f69b3a10a1598f20b96d1d746d94a4e706dc1d9ad",
      "transactionType": "CALL",
      "contractName": "Router",
      "contractAddress": "0xa2ad81bd2c6b74a88bceea7824a4161b7cf1f26e",
      "function": "setCrosschainToken(address,uint256,address)",
      "arguments": [
        "0x338802B73DA88D05e1b3A0203092AD43807049Be",
        "8453",
        "0xE29A9fBdf3d83c126C6366D7f401473Ab0850e7F"
      ],
      "transaction": {
        "from": "0xee03621ce83bbf6e3931bccf35b144354f16ccf7",
        "to": "0xa2ad81bd2c6b74a88bceea7824a4161b7cf1f26e",
        "gas": "0x7698",
        "value": "0x0",
        "input": "0xb3ce07de000000000000000000000000338802b73da88d05e1b3a0203092ad43807049be0000000000000000000000000000000000000000000000000000000000002105000000000000000000000000e29a9fbdf3d83c126c6366d7f401473ab0850e7f",
        "nonce": "0x37",
        "chainId": "0xa4b1"
      },
      "additionalContracts": [],
      "isFixedGasLimit": false
    },
    {
      "hash": "0x468d4c49bfa70436bc91407f62b078e930f935b95ef2b128472fb8d47419e1a2",
      "transactionType": "CALL",
      "contractName": null,
      "contractAddress": "0x7fb63d9faf99a34bca04efd5ba7f75dc6db37f4d",
      "function": "setRouter(address)",
      "arguments": [
        "0xA2ad81bd2c6B74a88bCEea7824a4161B7cF1F26E"
      ],
      "transaction": {
        "from": "0xee03621ce83bbf6e3931bccf35b144354f16ccf7",
        "to": "0x7fb63d9faf99a34bca04efd5ba7f75dc6db37f4d",
        "gas": "0xbb97",
        "value": "0x0",
        "input": "0xc0d78655000000000000000000000000a2ad81bd2c6b74a88bceea7824a4161b7cf1f26e",
        "nonce": "0x38",
        "chainId": "0xa4b1"
      },
      "additionalContracts": [],
      "isFixedGasLimit": false
    }
  ],
  "receipts": [
    {
      "status": "0x1",
      "cumulativeGasUsed": "0x51a360",
      "logs": [
        {
          "address": "0xa2ad81bd2c6b74a88bceea7824a4161b7cf1f26e",
          "topics": [
            "0x8be0079c531659141344cd1fd0a4f28419497f9722a3daafe3b4186f6b6457e0",
            "0x0000000000000000000000000000000000000000000000000000000000000000",
            "0x000000000000000000000000ee03621ce83bbf6e3931bccf35b144354f16ccf7"
          ],
          "data": "0x",
          "blockHash": "0x72de4d4a802c64540cac5ba05ee2b307dc5df47c3cbd415d28fbf355c26aa26b",
          "blockNumber": "0x174affca",
          "transactionHash": "0x81d801d600b931df717c22df84e4d2d9836451e8ad0b1fc2a0306a5fb9f3ca34",
          "transactionIndex": "0x9",
          "logIndex": "0x5f",
          "removed": false
        }
      ],
      "logsBloom": "0x00000000000000000000000000000000000000000000000000800000000000000000000000000000000000000000000000000000000000000000000000000000000000000100000000000010040000000001000000000000000000000000000000000000020000000000000000000800000000000000000000000000000000400000000000000000000000000000000000000000000000000000000000000000000000000000000000000000000000000000000000000000000000000000000000000000000000000000000010000000000000000000000000000000000020000000000000000000000002000000000000000000020000000000000000000000",
      "type": "0x2",
      "transactionHash": "0x81d801d600b931df717c22df84e4d2d9836451e8ad0b1fc2a0306a5fb9f3ca34",
      "transactionIndex": "0x9",
      "blockHash": "0x72de4d4a802c64540cac5ba05ee2b307dc5df47c3cbd415d28fbf355c26aa26b",
      "blockNumber": "0x174affca",
      "gasUsed": "0xcc0f4",
      "effectiveGasPrice": "0x989680",
      "from": "0xee03621ce83bbf6e3931bccf35b144354f16ccf7",
      "to": null,
      "contractAddress": "0xa2ad81bd2c6b74a88bceea7824a4161b7cf1f26e",
      "gasUsedForL1": "0x1d1a",
      "l1BlockNumber": "0x1682a6f",
      "timeboosted": false
    },
    {
      "status": "0x1",
      "cumulativeGasUsed": "0x412f2",
      "logs": [
        {
          "address": "0xa2ad81bd2c6b74a88bceea7824a4161b7cf1f26e",
          "topics": [
            "0x0a79aff962cc9e0a3ce8d1f62271362cbf066d9d0ffc588f0f90940b1fe41955"
          ],
          "data": "0x000000000000000000000000c0473bd9e466a7e564b9f1a0065f1efa41966d54",
          "blockHash": "0x5faad46d00ec65b483fdde14323dabf74b1b864bd92f4c5fcca60dd922f711cd",
          "blockNumber": "0x174affd1",
          "transactionHash": "0xb14dcd03887b6c5db170dadb86dab77f415ba0ff1c61976aa2a3a14c24d2ac84",
          "transactionIndex": "0x3",
          "logIndex": "0x3",
          "removed": false
        }
      ],
      "logsBloom": "0x00000000000000000000000000000000000000000000000000000000000000000000000000000001000000000000000000000000000000000000000000000000000000000100000000000000000000000000000000000000000000000000000000000000000000000000000000000000000000000000000000000000000000000000000000000000000000000000000000000000000000000000000000000000000000000000000000000000000000000000000000000000000000020000000000000000000000000000008000000000000000000000000000000000000000000000000000000000000002000000000000000000020000000000000000000000",
      "type": "0x2",
      "transactionHash": "0xb14dcd03887b6c5db170dadb86dab77f415ba0ff1c61976aa2a3a14c24d2ac84",
      "transactionIndex": "0x3",
      "blockHash": "0x5faad46d00ec65b483fdde14323dabf74b1b864bd92f4c5fcca60dd922f711cd",
      "blockNumber": "0x174affd1",
      "gasUsed": "0xbc68",
      "effectiveGasPrice": "0x989680",
      "from": "0xee03621ce83bbf6e3931bccf35b144354f16ccf7",
      "to": "0xa2ad81bd2c6b74a88bceea7824a4161b7cf1f26e",
      "contractAddress": null,
      "gasUsedForL1": "0x258",
      "l1BlockNumber": "0x1682a6f",
      "timeboosted": false
    },
    {
      "status": "0x1",
      "cumulativeGasUsed": "0x141cbf",
      "logs": [
        {
          "address": "0xa2ad81bd2c6b74a88bceea7824a4161b7cf1f26e",
          "topics": [
            "0xdfccf581ae27a41845f39125ccb5ef00c0a079c5bf3bf751ecd2045e2d6d442f"
          ],
          "data": "0x0000000000000000000000009383c92c309c4db56fa3ee57a9eb7ed8c5edda22",
          "blockHash": "0xd3416c1510dd9840d83798f59b1c0d7fc8792d8c325b836161983dca14815319",
          "blockNumber": "0x174affd8",
          "transactionHash": "0xb11d769e34c786a2e6f6c605610169756d5820bb1680636bd83b2d48d2ff7b39",
          "transactionIndex": "0x9",
          "logIndex": "0x1d",
          "removed": false
        }
      ],
      "logsBloom": "0x00000000000000000000000000000000000000000000000000000000000000000000000000000000000000000000000000000000000000000000000000000000000000000100000000000000000000000000000000000000000000000000000000000000000000000000000000000000000000000000000000004000000000000000000000000000000800000000000000000000000000000000000000000000000000000000000000000000000000000000000000000000000000000000000000000000000000000000000100000000000000000000000000000000000000000000000000000000000002000000000000000000020000000000000000000000",
      "type": "0x2",
      "transactionHash": "0xb11d769e34c786a2e6f6c605610169756d5820bb1680636bd83b2d48d2ff7b39",
      "transactionIndex": "0x9",
      "blockHash": "0xd3416c1510dd9840d83798f59b1c0d7fc8792d8c325b836161983dca14815319",
      "blockNumber": "0x174affd8",
      "gasUsed": "0xbc53",
      "effectiveGasPrice": "0x989680",
      "from": "0xee03621ce83bbf6e3931bccf35b144354f16ccf7",
      "to": "0xa2ad81bd2c6b74a88bceea7824a4161b7cf1f26e",
      "contractAddress": null,
      "gasUsedForL1": "0x258",
      "l1BlockNumber": "0x1682a6f",
      "timeboosted": false
    },
    {
      "status": "0x1",
      "cumulativeGasUsed": "0x1d14c5",
      "logs": [
        {
          "address": "0xa2ad81bd2c6b74a88bceea7824a4161b7cf1f26e",
          "topics": [
            "0x1222804283c650162c0f858b42dcc4564e940f0cc2b3f001bcd6af8aa00a2f30"
          ],
          "data": "0x0000000000000000000000007fb63d9faf99a34bca04efd5ba7f75dc6db37f4d",
          "blockHash": "0xeb3c1427da4d2a85128a08537bc89f94ceec499725f28b004fe97c9c2416bbdf",
          "blockNumber": "0x174affe0",
          "transactionHash": "0x9cb9b5e5893f3c31d82eed97de2d0d3d106073e37fe77fd93765729f85b0fde0",
          "transactionIndex": "0x8",
          "logIndex": "0x5",
          "removed": false
        }
      ],
      "logsBloom": "0x00000000000040000000000000000000000000000000000000000000000000000000000000000000000000000000000000000000000000000000000000000000000000000100000000000000000000000000000000000000000000000000000000000000000200000000000000000000000000000000000000000000000000000000000000000000000000000000000000000000000000000000000000000000000000000000000000000000000000000000000000000000000000000000000000000000000000000000000000000000000000000000000000000000000000000000000000000000000002000000000000000000020000000000000000000010",
      "type": "0x2",
      "transactionHash": "0x9cb9b5e5893f3c31d82eed97de2d0d3d106073e37fe77fd93765729f85b0fde0",
      "transactionIndex": "0x8",
      "blockHash": "0xeb3c1427da4d2a85128a08537bc89f94ceec499725f28b004fe97c9c2416bbdf",
      "blockNumber": "0x174affe0",
      "gasUsed": "0xbc23",
      "effectiveGasPrice": "0x989680",
      "from": "0xee03621ce83bbf6e3931bccf35b144354f16ccf7",
      "to": "0xa2ad81bd2c6b74a88bceea7824a4161b7cf1f26e",
      "contractAddress": null,
      "gasUsedForL1": "0x254",
      "l1BlockNumber": "0x1682a6f",
      "timeboosted": false
    },
    {
      "status": "0x1",
      "cumulativeGasUsed": "0x5c210",
      "logs": [
        {
          "address": "0xa2ad81bd2c6b74a88bceea7824a4161b7cf1f26e",
          "topics": [
            "0x84f965c2d43aff223849d7e2295ef7211c3118122c961e195d9dd40a32f46c86"
          ],
          "data": "0x000000000000000000000000000000000000000000000000000000000000a4b100000000000000000000000000000000000000000000000000000000000075e8",
          "blockHash": "0x6d32f037048733fa25a2e548845da80dba0f6388990e9b3533287cab596f5818",
          "blockNumber": "0x174affe7",
          "transactionHash": "0xfd7230f41ca7148320c0545ea1891625c1882f0be8761d4e22f0b7b6fd035304",
          "transactionIndex": "0x3",
          "logIndex": "0x4",
          "removed": false
        }
      ],
      "logsBloom": "0x00000000000000000000000000000000020000000000000000000000000000000000000000000000000000000000000000000000000000000000000000000000000000000100000000000000000000000000080000000000000000000000000000000000000000000000000000000000000000000000000000000000000000000000000000000000000000000000000000000000000000000000000000000000000000000000000000000000000000000000000000000000020000000000000000000000000000000000000000000000000000000000000000000000000000000000000000000000000002000000000000000000020000000000000000000000",
      "type": "0x2",
      "transactionHash": "0xfd7230f41ca7148320c0545ea1891625c1882f0be8761d4e22f0b7b6fd035304",
      "transactionIndex": "0x3",
      "blockHash": "0x6d32f037048733fa25a2e548845da80dba0f6388990e9b3533287cab596f5818",
      "blockNumber": "0x174affe7",
      "gasUsed": "0xbe34",
      "effectiveGasPrice": "0x989680",
      "from": "0xee03621ce83bbf6e3931bccf35b144354f16ccf7",
      "to": "0xa2ad81bd2c6b74a88bceea7824a4161b7cf1f26e",
      "contractAddress": null,
      "gasUsedForL1": "0x2df",
      "l1BlockNumber": "0x1682a6f",
      "timeboosted": false
    },
    {
      "status": "0x1",
      "cumulativeGasUsed": "0x933a6",
      "logs": [
        {
          "address": "0xa2ad81bd2c6b74a88bceea7824a4161b7cf1f26e",
          "topics": [
            "0x84f965c2d43aff223849d7e2295ef7211c3118122c961e195d9dd40a32f46c86"
          ],
          "data": "0x0000000000000000000000000000000000000000000000000000000000002105000000000000000000000000000000000000000000000000000000000000759e",
          "blockHash": "0xf93b6874435e3e62148c1f314cf50ac041eec21af46187c01e60765287a1004c",
          "blockNumber": "0x174affee",
          "transactionHash": "0x3edab791c3cf93a7c3389567f09bfd9af8139605c38055cf5f9fe2d44b0d1969",
          "transactionIndex": "0x5",
          "logIndex": "0xf",
          "removed": false
        }
      ],
      "logsBloom": "0x00000000000000000000000000000000020000000000000000000000000000000000000000000000000000000000000000000000000000000000000000000000000000000100000000000000000000000000080000000000000000000000000000000000000000000000000000000000000000000000000000000000000000000000000000000000000000000000000000000000000000000000000000000000000000000000000000000000000000000000000000000000020000000000000000000000000000000000000000000000000000000000000000000000000000000000000000000000000002000000000000000000020000000000000000000000",
      "type": "0x2",
      "transactionHash": "0x3edab791c3cf93a7c3389567f09bfd9af8139605c38055cf5f9fe2d44b0d1969",
      "transactionIndex": "0x5",
      "blockHash": "0xf93b6874435e3e62148c1f314cf50ac041eec21af46187c01e60765287a1004c",
      "blockNumber": "0x174affee",
      "gasUsed": "0xbe34",
      "effectiveGasPrice": "0x989680",
      "from": "0xee03621ce83bbf6e3931bccf35b144354f16ccf7",
      "to": "0xa2ad81bd2c6b74a88bceea7824a4161b7cf1f26e",
      "contractAddress": null,
      "gasUsedForL1": "0x2df",
      "l1BlockNumber": "0x1682a6f",
      "timeboosted": false
    },
    {
      "status": "0x1",
      "cumulativeGasUsed": "0x1bfef",
      "logs": [
        {
          "address": "0xa2ad81bd2c6b74a88bceea7824a4161b7cf1f26e",
          "topics": [
            "0x08bb8a5c04b030742c31bf3ed154a8ee0a26b42d6edea42acb7a82eefbe8366b"
          ],
          "data": "0x000000000000000000000000000000000000000000000000000000000000a4b10000000000000000000000008da2f4663d02dbf598d90f5172347aecf119b463",
          "blockHash": "0x8273e7bb49f44ec7f8e9a9feda52f4fa63b739f738fce90e18c69dcf2683a655",
          "blockNumber": "0x174afff9",
          "transactionHash": "0xb100147d72124ddd3733d85e1c20774cc9e5536ade8e773d19eb3d0969fc9cb1",
          "transactionIndex": "0x2",
          "logIndex": "0x0",
          "removed": false
        }
      ],
      "logsBloom": "0x00000000000000000000000000000000000000000000000000002000000000000000000000000000000000000000000000000000000000000000000000000000000000000100000000000000000000000000000000000000000000000000000000000000000000000000000000000000000000000000000000000000000000000000000000000000000000000000000000000000000000000010000000000000000000000000000000000000000000000000000000000000000000000000000000000000000000000000000000000000000000000000000000000000000000000000000000000000000002000000000000000000020000000000040000000000",
      "type": "0x2",
      "transactionHash": "0xb100147d72124ddd3733d85e1c20774cc9e5536ade8e773d19eb3d0969fc9cb1",
      "transactionIndex": "0x2",
      "blockHash": "0x8273e7bb49f44ec7f8e9a9feda52f4fa63b739f738fce90e18c69dcf2683a655",
      "blockNumber": "0x174afff9",
      "gasUsed": "0xbf5c",
      "effectiveGasPrice": "0x989680",
      "from": "0xee03621ce83bbf6e3931bccf35b144354f16ccf7",
      "to": "0xa2ad81bd2c6b74a88bceea7824a4161b7cf1f26e",
      "contractAddress": null,
      "gasUsedForL1": "0x259",
      "l1BlockNumber": "0x1682a71",
      "timeboosted": false
    },
    {
      "status": "0x1",
      "cumulativeGasUsed": "0x225bf",
      "logs": [
        {
          "address": "0xa2ad81bd2c6b74a88bceea7824a4161b7cf1f26e",
          "topics": [
            "0x56c11b172f0dd7dd15debf6b9704a3b4af711bb611b33fcb966b2fa57530b9ff"
          ],
          "data": "0x000000000000000000000000c23e60ac84240ffce72680652515dfb1435c356b0000000000000000000000000000000000000000000000000000000000002105000000000000000000000000000000000000000000000000000000000000759e000000000000000000000000e3bab20b2711e0577c46d14fd10bffc0961036c3",
          "blockHash": "0xdc9521d820213b2d1bfbbb44930c5cc631e452e921c3a55d6b9e58f13c0eb009",
          "blockNumber": "0x174b0000",
          "transactionHash": "0x7df0fd582fc921693a097d1b2d5dd031d28ba078a4c15bb092aae85a7ea41330",
          "transactionIndex": "0x2",
          "logIndex": "0x0",
          "removed": false
        }
      ],
      "logsBloom": "0x00000000000000000000000000000000000000000000000000000000000000000000000000000000000000000000000000000000000000000000000000000000000000000100000000000000000000000000000000000000000000000000000000000000000000000000000000000000000000000000000000000000000000000000000800000000000000000000000000000000000000000000000000000000000000000000000000000000000000000000000000000000000000000100000000000000000000000000000000000000000000000000000000000000000000000000000100000000000002000000000000000000020000000000000000000000",
      "type": "0x2",
      "transactionHash": "0x7df0fd582fc921693a097d1b2d5dd031d28ba078a4c15bb092aae85a7ea41330",
      "transactionIndex": "0x2",
      "blockHash": "0xdc9521d820213b2d1bfbbb44930c5cc631e452e921c3a55d6b9e58f13c0eb009",
      "blockNumber": "0x174b0000",
      "gasUsed": "0x1252c",
      "effectiveGasPrice": "0x989680",
      "from": "0xee03621ce83bbf6e3931bccf35b144354f16ccf7",
      "to": "0xa2ad81bd2c6b74a88bceea7824a4161b7cf1f26e",
      "contractAddress": null,
      "gasUsedForL1": "0x2c7",
      "l1BlockNumber": "0x1682a71",
      "timeboosted": false
    },
    {
      "status": "0x1",
      "cumulativeGasUsed": "0x37175",
      "logs": [
        {
          "address": "0xa2ad81bd2c6b74a88bceea7824a4161b7cf1f26e",
          "topics": [
            "0x56c11b172f0dd7dd15debf6b9704a3b4af711bb611b33fcb966b2fa57530b9ff"
          ],
          "data": "0x000000000000000000000000338802b73da88d05e1b3a0203092ad43807049be0000000000000000000000000000000000000000000000000000000000002105000000000000000000000000000000000000000000000000000000000000759e000000000000000000000000e29a9fbdf3d83c126c6366d7f401473ab0850e7f",
          "blockHash": "0x791356fb173808f36eb8f2ab095e93ad322c4f2985867a8e5259d96fe322dd5d",
          "blockNumber": "0x174b0007",
          "transactionHash": "0xb3db0e3e2fd63d2c5a5bea0f69b3a10a1598f20b96d1d746d94a4e706dc1d9ad",
          "transactionIndex": "0x3",
          "logIndex": "0x0",
          "removed": false
        }
      ],
      "logsBloom": "0x00000000000000000000000000000000000000000000000000000000000000000000000000000000000000000000000000000000000000000000000000000000000000000100000000000000000000000000000000000000000000000000000000000000000000000000000000000000000000000000000000000000000000000000000800000000000000000000000000000000000000000000000000000000000000000000000000000000000000000000000000000000000000000100000000000000000000000000000000000000000000000000000000000000000000000000000100000000000002000000000000000000020000000000000000000000",
      "type": "0x2",
      "transactionHash": "0xb3db0e3e2fd63d2c5a5bea0f69b3a10a1598f20b96d1d746d94a4e706dc1d9ad",
      "transactionIndex": "0x3",
      "blockHash": "0x791356fb173808f36eb8f2ab095e93ad322c4f2985867a8e5259d96fe322dd5d",
      "blockNumber": "0x174b0007",
      "gasUsed": "0x1252c",
      "effectiveGasPrice": "0x989680",
      "from": "0xee03621ce83bbf6e3931bccf35b144354f16ccf7",
      "to": "0xa2ad81bd2c6b74a88bceea7824a4161b7cf1f26e",
      "contractAddress": null,
      "gasUsedForL1": "0x2c7",
      "l1BlockNumber": "0x1682a71",
      "timeboosted": false
    },
    {
      "status": "0x1",
      "cumulativeGasUsed": "0x8dca",
      "logs": [
        {
          "address": "0x7fb63d9faf99a34bca04efd5ba7f75dc6db37f4d",
          "topics": [
            "0xc6b438e6a8a59579ce6a4406cbd203b740e0d47b458aae6596339bcd40c40d15"
          ],
          "data": "0x000000000000000000000000a2ad81bd2c6b74a88bceea7824a4161b7cf1f26e",
          "blockHash": "0x91a5ecd0088870ca095ae03a85e86c60e338581fe7396fd3c136a1debe99d16c",
          "blockNumber": "0x174b000e",
          "transactionHash": "0x468d4c49bfa70436bc91407f62b078e930f935b95ef2b128472fb8d47419e1a2",
          "transactionIndex": "0x1",
          "logIndex": "0x0",
          "removed": false
        }
      ],
      "logsBloom": "0x00000000000000000000000000000000000000000000000000000000000000000000000000000000000000000000000000000000000000000000000000000000000000000000000000000000000000000000000000000000040000200000120000000000000000000000000000000000000000000000000000000000000000000000000000000000000000000000000000000000000000000000000000000000000000000000000000000000000000000000000000000000000000000000000000000000000000000000000000000000000000400000000000000000000000000000000000000010000000000000000000000000000000000000000000000000",
      "type": "0x2",
      "transactionHash": "0x468d4c49bfa70436bc91407f62b078e930f935b95ef2b128472fb8d47419e1a2",
      "transactionIndex": "0x1",
      "blockHash": "0x91a5ecd0088870ca095ae03a85e86c60e338581fe7396fd3c136a1debe99d16c",
      "blockNumber": "0x174b000e",
      "gasUsed": "0x8dca",
      "effectiveGasPrice": "0x989680",
      "from": "0xee03621ce83bbf6e3931bccf35b144354f16ccf7",
      "to": "0x7fb63d9faf99a34bca04efd5ba7f75dc6db37f4d",
      "contractAddress": null,
      "gasUsedForL1": "0x1eb",
      "l1BlockNumber": "0x1682a71",
      "timeboosted": false
    }
  ],
  "libraries": [],
  "pending": [],
  "returns": {},
  "timestamp": 1760781955089,
  "chain": 42161,
  "commit": "aaddbdd"
}