{
  "transactions": [
    {
      "hash": "0x4f85ab7bc9c09e7b7db9330b5708d54c2c0a3a2b3f1cdc70b71a8b9f27b4b3e5",
      "transactionType": "CALL",
      "contractName": null,
      "contractAddress": "0xca03a4dfe09f664890ee7b46d9af4f0b6d5f6f15",
      "function": "approve(address,uint256)",
      "arguments": [
        "0xC60D72c8Cb53842f15cfFa8A0bb9DbC759E44452",
        "10000000000000000000000"
      ],
      "transaction": {
        "from": "0xee03621ce83bbf6e3931bccf35b144354f16ccf7",
        "to": "0xca03a4dfe09f664890ee7b46d9af4f0b6d5f6f15",
        "gas": "0xfd73",
        "value": "0x0",
        "input": "0x095ea7b3000000000000000000000000c60d72c8cb53842f15cffa8a0bb9dbc759e4445200000000000000000000000000000000000000000000021e19e0c9bab2400000",
        "nonce": "0xdf",
        "chainId": "0x2105"
      },
      "additionalContracts": [],
      "isFixedGasLimit": false
    },
    {
      "hash": "0x25b2f483e4b5a2e2f4c3beb9541fa6cf284f90c38d9c67797b4d1fa849a1b13d",
      "transactionType": "CALL",
      "contractName": null,
      "contractAddress": "0xc60d72c8cb53842f15cffa8a0bb9dbc759e44452",
      "function": "supplyLiquidity(address,address,uint256)",
      "arguments": [
        "0xEe03621Ce83BbF6e3931BcCf35b144354F16ccf7",
        "0xca03A4dFE09f664890ee7B46D9Af4F0B6d5f6f15",
        "10000000000000000000000"
      ],
      "transaction": {
        "from": "0xee03621ce83bbf6e3931bccf35b144354f16ccf7",
        "to": "0xc60d72c8cb53842f15cffa8a0bb9dbc759e44452",
        "gas": "0x3d0a6",
        "value": "0x0",
        "input": "0xbf38fd2b000000000000000000000000ee03621ce83bbf6e3931bccf35b144354f16ccf7000000000000000000000000ca03a4dfe09f664890ee7b46d9af4f0b6d5f6f1500000000000000000000000000000000000000000000021e19e0c9bab2400000",
        "nonce": "0xe0",
        "chainId": "0x2105"
      },
      "additionalContracts": [],
      "isFixedGasLimit": false
    }
  ],
  "receipts": [
    {
      "status": "0x1",
      "cumulativeGasUsed": "0x220d5c2",
      "logs": [
        {
          "address": "0xca03a4dfe09f664890ee7b46d9af4f0b6d5f6f15",
          "topics": [
            "0x8c5be1e5ebec7d5bd14f71427d1e84f3dd0314c0f7b2291e5b200ac8c7c3b925",
            "0x000000000000000000000000ee03621ce83bbf6e3931bccf35b144354f16ccf7",
            "0x000000000000000000000000c60d72c8cb53842f15cffa8a0bb9dbc759e44452"
          ],
          "data": "0x00000000000000000000000000000000000000000000021e19e0c9bab2400000",
          "blockHash": "0x19b3ebb6a4ebfa7d49144c31536afe03133a24cc3fb0011c7101b2c6b42c90af",
          "blockNumber": "0x235f487",
          "blockTimestamp": "0x68f645f1",
          "transactionHash": "0x4f85ab7bc9c09e7b7db9330b5708d54c2c0a3a2b3f1cdc70b71a8b9f27b4b3e5",
          "transactionIndex": "0xa1",
          "logIndex": "0x215",
          "removed": false
        }
      ],
      "logsBloom": "0x00000000000000000000000000000000000000000000000000000000000000000000000000040000000000000000000000000000000000000000000000200000000000000000000000000010040000000000000000000000000000000080000000000010000000004000000000000000000000000000000000000000000000000000000000000000000000000000000000000000000000000000000000000000020000000000000200000000000000000000000000000000000000000000000000000000000000000000000010000000000000000000000000000000000000000010000000000100000000000000000000000000000000000000000000000000",
      "type": "0x2",
      "transactionHash": "0x4f85ab7bc9c09e7b7db9330b5708d54c2c0a3a2b3f1cdc70b71a8b9f27b4b3e5",
      "transactionIndex": "0xa1",
      "blockHash": "0x19b3ebb6a4ebfa7d49144c31536afe03133a24cc3fb0011c7101b2c6b42c90af",
      "blockNumber": "0x235f487",
      "gasUsed": "0xb77f",
      "effectiveGasPrice": "0x3ff999",
      "from": "0xee03621ce83bbf6e3931bccf35b144354f16ccf7",
      "to": "0xca03a4dfe09f664890ee7b46d9af4f0b6d5f6f15",
      "contractAddress": null,
      "l1BaseFeeScalar": "0x8dd",
      "l1BlobBaseFee": "0x3",
      "l1BlobBaseFeeScalar": "0x101c12",
      "l1Fee": "0xa587a741",
      "l1GasPrice": "0x2d987237",
      "l1GasUsed": "0x640"
    },
    {
      "status": "0x1",
      "cumulativeGasUsed": "0x2597218",
      "logs": [
        {
          "address": "0xca03a4dfe09f664890ee7b46d9af4f0b6d5f6f15",
          "topics": [
            "0xddf252ad1be2c89b69c2b068fc378daa952ba7f163c4a11628f55a4df523b3ef",
            "0x000000000000000000000000ee03621ce83bbf6e3931bccf35b144354f16ccf7",
            "0x000000000000000000000000c60d72c8cb53842f15cffa8a0bb9dbc759e44452"
          ],
          "data": "0x00000000000000000000000000000000000000000000021e19e0c9bab2400000",
          "blockHash": "0x19b3ebb6a4ebfa7d49144c31536afe03133a24cc3fb0011c7101b2c6b42c90af",
          "blockNumber": "0x235f487",
          "blockTimestamp": "0x68f645f1",
          "transactionHash": "0x25b2f483e4b5a2e2f4c3beb9541fa6cf284f90c38d9c67797b4d1fa849a1b13d",
          "transactionIndex": "0xb8",
          "logIndex": "0x254",
          "removed": false
        },
        {
          "address": "0xc60d72c8cb53842f15cffa8a0bb9dbc759e44452",
          "topics": [
            "0x15b46e689142c33450e6dd5c40d81be75acc0ef4a8c3a956621380c49470c98c",
            "0x000000000000000000000000ee03621ce83bbf6e3931bccf35b144354f16ccf7",
            "0x000000000000000000000000ca03a4dfe09f664890ee7b46d9af4f0b6d5f6f15"
          ],
          "data": "0x00000000000000000000000000000000000000000000021e19e0c9bab2400000",
          "blockHash": "0x19b3ebb6a4ebfa7d49144c31536afe03133a24cc3fb0011c7101b2c6b42c90af",
          "blockNumber": "0x235f487",
          "blockTimestamp": "0x68f645f1",
          "transactionHash": "0x25b2f483e4b5a2e2f4c3beb9541fa6cf284f90c38d9c67797b4d1fa849a1b13d",
          "transactionIndex": "0xb8",
          "logIndex": "0x255",
          "removed": false
        }
      ],
      "logsBloom": "0x00000000040000000000000000000000000000000000000000000000000000000000000000040000000000000000000000000000000000400000000000000000040000000000000000000018040000000000000000000000000000000080000000000010000000004000000000000000000000000018000000000010000000000000000000000000088000000000000000000000000000000004000000000000000000400000000200000000000000000000000000000000000000000000000000000002000000000000000010000000000000000000000000000000000000000000000000000100000000000000000000000000000000000000000000000000",
      "type": "0x2",
      "transactionHash": "0x25b2f483e4b5a2e2f4c3beb9541fa6cf284f90c38d9c67797b4d1fa849a1b13d",
      "transactionIndex": "0xb8",
      "blockHash": "0x19b3ebb6a4ebfa7d49144c31536afe03133a24cc3fb0011c7101b2c6b42c90af",
      "blockNumber": "0x235f487",
      "gasUsed": "0x2c314",
      "effectiveGasPrice": "0x3ff999",
      "from": "0xee03621ce83bbf6e3931bccf35b144354f16ccf7",
      "to": "0xc60d72c8cb53842f15cffa8a0bb9dbc759e44452",
      "contractAddress": null,
      "l1BaseFeeScalar": "0x8dd",
      "l1BlobBaseFee": "0x3",
      "l1BlobBaseFeeScalar": "0x101c12",
      "l1Fee": "0xbb0dedd6",
      "l1GasPrice": "0x2d987237",
      "l1GasUsed": "0x710"
    }
  ],
  "libraries": [],
  "pending": [],
  "returns": {},
  "timestamp": 1760970227120,
  "chain": 8453,
  "commit": "403ecc4"
}