{
  "transactions": [
    {
      "hash": "0xd003dea7090a4ba5b269d6e189c2e28503f3562f01656a0bd7391cb8ea083d35",
      "transactionType": "CALL",
      "contractName": null,
      "contractAddress": "0xc469d792421cd0ef585eab54ef93a6bf4623455e",
      "function": "setPeer(uint32,bytes32)",
      "arguments": [
        "30184",
        "0x000000000000000000000000c469d792421cd0ef585eab54ef93a6bf4623455e"
      ],
      "transaction": {
        "from": "0xee03621ce83bbf6e3931bccf35b144354f16ccf7",
        "to": "0xc469d792421cd0ef585eab54ef93a6bf4623455e",
        "gas": "0x9908",
        "value": "0x0",
        "input": "0x3400288b00000000000000000000000000000000000000000000000000000000000075e8000000000000000000000000c469d792421cd0ef585eab54ef93a6bf4623455e",
        "nonce": "0x9a",
        "chainId": "0x2105"
      },
      "additionalContracts": [],
      "isFixedGasLimit": false
    },
    {
      "hash": "0xeedb6497ee52fb2b865e01505fb10eddfcc190f2f1a62c5316710612d914e834",
      "transactionType": "CALL",
      "contractName": null,
      "contractAddress": "0xc469d792421cd0ef585eab54ef93a6bf4623455e",
      "function": "setPeer(uint32,bytes32)",
      "arguments": [
        "30110",
        "0x0000000000000000000000008868e3511c2c47ac55106c21f958e6cf1cbc1766"
      ],
      "transaction": {
        "from": "0xee03621ce83bbf6e3931bccf35b144354f16ccf7",
        "to": "0xc469d792421cd0ef585eab54ef93a6bf4623455e",
        "gas": "0x9908",
        "value": "0x0",
        "input": "0x3400288b000000000000000000000000000000000000000000000000000000000000759e0000000000000000000000008868e3511c2c47ac55106c21f958e6cf1cbc1766",
        "nonce": "0x9b",
        "chainId": "0x2105"
      },
      "additionalContracts": [],
      "isFixedGasLimit": false
    },
    {
      "hash": "0x47d5b0db875366d66720699669b9a42d8fa0ecf6d7da52d9a486825492fdaeba",
      "transactionType": "CALL",
      "contractName": null,
      "contractAddress": "0xc469d792421cd0ef585eab54ef93a6bf4623455e",
      "function": "setEnforcedOptions((uint32,uint16,bytes)[])",
      "arguments": [
        "[(30184, 1, 0x000301001101000000000000000000000000000c3500), (30110, 1, 0x000301001101000000000000000000000000000f4240)]"
      ],
      "transaction": {
        "from": "0xee03621ce83bbf6e3931bccf35b144354f16ccf7",
        "to": "0xc469d792421cd0ef585eab54ef93a6bf4623455e",
        "gas": "0xe6b3",
        "value": "0x0",
        "input": "0xb98bd07000000000000000000000000000000000000000000000000000000000000000200000000000000000000000000000000000000000000000000000000000000002000000000000000000000000000000000000000000000000000000000000004000000000000000000000000000000000000000000000000000000000000000e000000000000000000000000000000000000000000000000000000000000075e8000000000000000000000000000000000000000000000000000000000000000100000000000000000000000000000000000000000000000000000000000000600000000000000000000000000000000000000000000000000000000000000016000301001101000000000000000000000000000c350000000000000000000000000000000000000000000000000000000000000000000000000000000000759e000000000000000000000000000000000000000000000000000000000000000100000000000000000000000000000000000000000000000000000000000000600000000000000000000000000000000000000000000000000000000000000016000301001101000000000000000000000000000f424000000000000000000000",
        "nonce": "0x9c",
        "chainId": "0x2105"
      },
      "additionalContracts": [],
      "isFixedGasLimit": false
    },
    {
      "hash": "0xc463826fb63516027abc35ec6257ba0684a50418c02d994bd9f32634851f4e61",
      "transactionType": "CALL",
      "contractName": null,
      "contractAddress": "0xc469d792421cd0ef585eab54ef93a6bf4623455e",
      "function": "setRouter(address)",
      "arguments": [
        "0x23c5462BcD096AbFdFe9A845A9E1Ec06bEa3F81B"
      ],
      "transaction": {
        "from": "0xee03621ce83bbf6e3931bccf35b144354f16ccf7",
        "to": "0xc469d792421cd0ef585eab54ef93a6bf4623455e",
        "gas": "0x971c",
        "value": "0x0",
        "input": "0xc0d7865500000000000000000000000023c5462bcd096abfdfe9a845a9e1ec06bea3f81b",
        "nonce": "0x9d",
        "chainId": "0x2105"
      },
      "additionalContracts": [],
      "isFixedGasLimit": false
    },
    {
      "hash": "0x0e666c5c897d4abb8ddb930068627093075b8bf23df261d49eddc1e770051197",
      "transactionType": "CALL",
      "contractName": null,
      "contractAddress": "0x23c5462bcd096abfdfe9a845a9e1ec06bea3f81b",
      "function": "setChainIdToOApp(uint256,address)",
      "arguments": [
        "8453",
        "0xC469d792421CD0eF585eab54EF93a6bF4623455E"
      ],
      "transaction": {
        "from": "0xee03621ce83bbf6e3931bccf35b144354f16ccf7",
        "to": "0x23c5462bcd096abfdfe9a845a9e1ec06bea3f81b",
        "gas": "0x99b3",
        "value": "0x0",
        "input": "0xf86ae7880000000000000000000000000000000000000000000000000000000000002105000000000000000000000000c469d792421cd0ef585eab54ef93a6bf4623455e",
        "nonce": "0x9e",
        "chainId": "0x2105"
      },
      "additionalContracts": [],
      "isFixedGasLimit": false
    }
  ],
  "receipts": [
    {
      "status": "0x1",
      "cumulativeGasUsed": "0x20eb27d",
      "logs": [
        {
          "address": "0xc469d792421cd0ef585eab54ef93a6bf4623455e",
          "topics": [
            "0x238399d427b947898edb290f5ff0f9109849b1c3ba196a42e35f00c50a54b98b"
          ],
          "data": "0x00000000000000000000000000000000000000000000000000000000000075e8000000000000000000000000c469d792421cd0ef585eab54ef93a6bf4623455e",
          "blockHash": "0x0940ad77c4a33416bab2e9578b9d423228a4532ea7c2aae8025d1d4bd053ca28",
          "blockNumber": "0x235e746",
          "blockTimestamp": "0x68f62b6f",
          "transactionHash": "0xd003dea7090a4ba5b269d6e189c2e28503f3562f01656a0bd7391cb8ea083d35",
          "transactionIndex": "0x8a",
          "logIndex": "0x26e",
          "removed": false
        }
      ],
      "logsBloom": "0x00000000000000000000000000000000000000000000000000000000010000000000000000000000000000000000000000000000000000000800000000000000000000000000000000000000000000000000000000000000000000000020000000000000000000000000000000000000000000000000000000000000000000000000000000000000000000000000000000000000000000000000000000000000000000000000000000000000000000000000000000000000000002000000000000000000000000000000000000000000000000000000000000040000000000000000000000000000000008000000000000000000000000000000000000000000",
      "type": "0x2",
      "transactionHash": "0xd003dea7090a4ba5b269d6e189c2e28503f3562f01656a0bd7391cb8ea083d35",
      "transactionIndex": "0x8a",
      "blockHash": "0x0940ad77c4a33416bab2e9578b9d423228a4532ea7c2aae8025d1d4bd053ca28",
      "blockNumber": "0x235e746",
      "gasUsed": "0x6ecc",
      "effectiveGasPrice": "0x16e1bc",
      "from": "0xee03621ce83bbf6e3931bccf35b144354f16ccf7",
      "to": "0xc469d792421cd0ef585eab54ef93a6bf4623455e",
      "contractAddress": null,
      "l1BaseFeeScalar": "0x8dd",
      "l1BlobBaseFee": "0x1",
      "l1BlobBaseFeeScalar": "0x101c12",
      "l1Fee": "0x1b9da10d",
      "l1GasPrice": "0x79b5759",
      "l1GasUsed": "0x640"
    },
    {
      "status": "0x1",
      "cumulativeGasUsed": "0x23bcbd2",
      "logs": [
        {
          "address": "0xc469d792421cd0ef585eab54ef93a6bf4623455e",
          "topics": [
            "0x238399d427b947898edb290f5ff0f9109849b1c3ba196a42e35f00c50a54b98b"
          ],
          "data": "0x000000000000000000000000000000000000000000000000000000000000759e0000000000000000000000008868e3511c2c47ac55106c21f958e6cf1cbc1766",
          "blockHash": "0x0940ad77c4a33416bab2e9578b9d423228a4532ea7c2aae8025d1d4bd053ca28",
          "blockNumber": "0x235e746",
          "blockTimestamp": "0x68f62b6f",
          "transactionHash": "0xeedb6497ee52fb2b865e01505fb10eddfcc190f2f1a62c5316710612d914e834",
          "transactionIndex": "0xa1",
          "logIndex": "0x2b3",
          "removed": false
        }
      ],
      "logsBloom": "0x00000000000000000000000000000000000000000000000000000000010000000000000000000000000000000000000000000000000000000800000000000000000000000000000000000000000000000000000000000000000000000020000000000000000000000000000000000000000000000000000000000000000000000000000000000000000000000000000000000000000000000000000000000000000000000000000000000000000000000000000000000000000002000000000000000000000000000000000000000000000000000000000000040000000000000000000000000000000008000000000000000000000000000000000000000000",
      "type": "0x2",
      "transactionHash": "0xeedb6497ee52fb2b865e01505fb10eddfcc190f2f1a62c5316710612d914e834",
      "transactionIndex": "0xa1",
      "blockHash": "0x0940ad77c4a33416bab2e9578b9d423228a4532ea7c2aae8025d1d4bd053ca28",
      "blockNumber": "0x235e746",
      "gasUsed": "0x6ecc",
      "effectiveGasPrice": "0x16e1bc",
      "from": "0xee03621ce83bbf6e3931bccf35b144354f16ccf7",
      "to": "0xc469d792421cd0ef585eab54ef93a6bf4623455e",
      "contractAddress": null,
      "l1BaseFeeScalar": "0x8dd",
      "l1BlobBaseFee": "0x1",
      "l1BlobBaseFeeScalar": "0x101c12",
      "l1Fee": "0x1b9da10d",
      "l1GasPrice": "0x79b5759",
      "l1GasUsed": "0x640"
    },
    {
      "status": "0x1",
      "cumulativeGasUsed": "0x23c72d8",
      "logs": [
        {
          "address": "0xc469d792421cd0ef585eab54ef93a6bf4623455e",
          "topics": [
            "0xbe4864a8e820971c0247f5992e2da559595f7bf076a21cb5928d443d2a13b674"
          ],
          "data": "0x00000000000000000000000000000000000000000000000000000000000000200000000000000000000000000000000000000000000000000000000000000002000000000000000000000000000000000000000000000000000000000000004000000000000000000000000000000000000000000000000000000000000000e000000000000000000000000000000000000000000000000000000000000075e8000000000000000000000000000000000000000000000000000000000000000100000000000000000000000000000000000000000000000000000000000000600000000000000000000000000000000000000000000000000000000000000016000301001101000000000000000000000000000c350000000000000000000000000000000000000000000000000000000000000000000000000000000000759e000000000000000000000000000000000000000000000000000000000000000100000000000000000000000000000000000000000000000000000000000000600000000000000000000000000000000000000000000000000000000000000016000301001101000000000000000000000000000f424000000000000000000000",
          "blockHash": "0x0940ad77c4a33416bab2e9578b9d423228a4532ea7c2aae8025d1d4bd053ca28",
          "blockNumber": "0x235e746",
          "blockTimestamp": "0x68f62b6f",
          "transactionHash": "0x47d5b0db875366d66720699669b9a42d8fa0ecf6d7da52d9a486825492fdaeba",
          "transactionIndex": "0xa2",
          "logIndex": "0x2b4",
          "removed": false
        }
      ],
      "logsBloom": "0x00000000000000000000000000000000000000000000000000000000010000000000000000000000000000000000000000000000000000000000400000000000000000000000000000000000000000000000000000000000000000000020000000000000000000000000000000000000000000000000000000000000000000000000000000000000000000000000000000000000000000000000000000080000000000000000000000000000000000000000000000000000000000000000000000000000000000000000000002000000000000000000000000000000000000000000000000000000000008000000000000000000000000000000000000000000",
      "type": "0x2",
      "transactionHash": "0x47d5b0db875366d66720699669b9a42d8fa0ecf6d7da52d9a486825492fdaeba",
      "transactionIndex": "0xa2",
      "blockHash": "0x0940ad77c4a33416bab2e9578b9d423228a4532ea7c2aae8025d1d4bd053ca28",
      "blockNumber": "0x235e746",
      "gasUsed": "0xa706",
      "effectiveGasPrice": "0x16e1bc",
      "from": "0xee03621ce83bbf6e3931bccf35b144354f16ccf7",
      "to": "0xc469d792421cd0ef585eab54ef93a6bf4623455e",
      "contractAddress": null,
      "l1BaseFeeScalar": "0x8dd",
      "l1BlobBaseFee": "0x1",
      "l1BlobBaseFeeScalar": "0x101c12",
      "l1Fee": "0x25acc511",
      "l1GasPrice": "0x79b5759",
      "l1GasUsed": "0x886"
    },
    {
      "status": "0x1",
      "cumulativeGasUsed": "0x319fe09",
      "logs": [],
      "logsBloom": "0x00000000000000000000000000000000000000000000000000000000000000000000000000000000000000000000000000000000000000000000000000000000000000000000000000000000000000000000000000000000000000000000000000000000000000000000000000000000000000000000000000000000000000000000000000000000000000000000000000000000000000000000000000000000000000000000000000000000000000000000000000000000000000000000000000000000000000000000000000000000000000000000000000000000000000000000000000000000000000000000000000000000000000000000000000000000",
      "type": "0x2",
      "transactionHash": "0xc463826fb63516027abc35ec6257ba0684a50418c02d994bd9f32634851f4e61",
      "transactionIndex": "0xee",
      "blockHash": "0x0940ad77c4a33416bab2e9578b9d423228a4532ea7c2aae8025d1d4bd053ca28",
      "blockNumber": "0x235e746",
      "gasUsed": "0x6753",
      "effectiveGasPrice": "0x16e1bc",
      "from": "0xee03621ce83bbf6e3931bccf35b144354f16ccf7",
      "to": "0xc469d792421cd0ef585eab54ef93a6bf4623455e",
      "contractAddress": null,
      "l1BaseFeeScalar": "0x8dd",
      "l1BlobBaseFee": "0x1",
      "l1BlobBaseFeeScalar": "0x101c12",
      "l1Fee": "0x1b9da10d",
      "l1GasPrice": "0x79b5759",
      "l1GasUsed": "0x640"
    },
    {
      "status": "0x1",
      "cumulativeGasUsed": "0x31a6d50",
      "logs": [
        {
          "address": "0x23c5462bcd096abfdfe9a845a9e1ec06bea3f81b",
          "topics": [
            "0x08bb8a5c04b030742c31bf3ed154a8ee0a26b42d6edea42acb7a82eefbe8366b"
          ],
          "data": "0x0000000000000000000000000000000000000000000000000000000000002105000000000000000000000000c469d792421cd0ef585eab54ef93a6bf4623455e",
          "blockHash": "0x0940ad77c4a33416bab2e9578b9d423228a4532ea7c2aae8025d1d4bd053ca28",
          "blockNumber": "0x235e746",
          "blockTimestamp": "0x68f62b6f",
          "transactionHash": "0x0e666c5c897d4abb8ddb930068627093075b8bf23df261d49eddc1e770051197",
          "transactionIndex": "0xef",
          "logIndex": "0x46e",
          "removed": false
        }
      ],
      "logsBloom": "0x00000000000000000000000000000000000000000000000000002000000000000000000000000800000000000000000000000000000000000000000000000000000000000000000000000000000000000000000000000000000000000000000000000000000000000000000000000000000000000000000000000000000000000000000000000000000000004000000000000000000000000010000000000000000000000000000000000000000000000000000000000000000000000000000000000000000008000000000000000000000000000000000000000000000000000000000000000000000000000000000000000000000000000000040000000000",
      "type": "0x2",
      "transactionHash": "0x0e666c5c897d4abb8ddb930068627093075b8bf23df261d49eddc1e770051197",
      "transactionIndex": "0xef",
      "blockHash": "0x0940ad77c4a33416bab2e9578b9d423228a4532ea7c2aae8025d1d4bd053ca28",
      "blockNumber": "0x235e746",
      "gasUsed": "0x6f47",
      "effectiveGasPrice": "0x16e1bc",
      "from": "0xee03621ce83bbf6e3931bccf35b144354f16ccf7",
      "to": "0x23c5462bcd096abfdfe9a845a9e1ec06bea3f81b",
      "contractAddress": null,
      "l1BaseFeeScalar": "0x8dd",
      "l1BlobBaseFee": "0x1",
      "l1BlobBaseFeeScalar": "0x101c12",
      "l1Fee": "0x1b9da10d",
      "l1GasPrice": "0x79b5759",
      "l1GasUsed": "0x640"
    }
  ],
  "libraries": [],
  "pending": [],
  "returns": {},
  "timestamp": 1760963440749,
  "chain": 8453,
  "commit": "fbbea34"
}