{
  "transactions": [
    {
      "hash": "0x479e9d3aecd6740ea34f345535578bd442858380326d88870067ddb4c7216e67",
      "transactionType": "CALL",
      "contractName": null,
      "contractAddress": "0x9b7168fc8cecee70b1beed9b5ecfcd1f649f2b1c",
      "function": "setPeer(uint32,bytes32)",
      "arguments": [
        "30184",
        "0x0000000000000000000000009b7168fc8cecee70b1beed9b5ecfcd1f649f2b1c"
      ],
      "transaction": {
        "from": "0xee03621ce83bbf6e3931bccf35b144354f16ccf7",
        "to": "0x9b7168fc8cecee70b1beed9b5ecfcd1f649f2b1c",
        "gas": "0x98cd",
        "value": "0x0",
        "input": "0x3400288b00000000000000000000000000000000000000000000000000000000000075e80000000000000000000000009b7168fc8cecee70b1beed9b5ecfcd1f649f2b1c",
        "nonce": "0x72",
        "chainId": "0x2105"
      },
      "additionalContracts": [],
      "isFixedGasLimit": false
    },
    {
      "hash": "0xbdb2b5f50aabccf8b036d21eb168cd1d1e069472405703436386bbc908bcc136",
      "transactionType": "CALL",
      "contractName": null,
      "contractAddress": "0x9b7168fc8cecee70b1beed9b5ecfcd1f649f2b1c",
      "function": "setPeer(uint32,bytes32)",
      "arguments": [
        "30110",
        "0x0000000000000000000000008da2f4663d02dbf598d90f5172347aecf119b463"
      ],
      "transaction": {
        "from": "0xee03621ce83bbf6e3931bccf35b144354f16ccf7",
        "to": "0x9b7168fc8cecee70b1beed9b5ecfcd1f649f2b1c",
        "gas": "0x1042a",
        "value": "0x0",
        "input": "0x3400288b000000000000000000000000000000000000000000000000000000000000759e0000000000000000000000008da2f4663d02dbf598d90f5172347aecf119b463",
        "nonce": "0x73",
        "chainId": "0x2105"
      },
      "additionalContracts": [],
      "isFixedGasLimit": false
    },
    {
      "hash": "0x55dd5957db1f348527b7f4addfafea66791f89dd8456a6e14a1af9bd761d6a82",
      "transactionType": "CALL",
      "contractName": null,
      "contractAddress": "0x9b7168fc8cecee70b1beed9b5ecfcd1f649f2b1c",
      "function": "setEnforcedOptions((uint32,uint16,bytes)[])",
      "arguments": [
        "[(30184, 1, 0x00030100110100000000000000000000000000013880), (30110, 1, 0x000301001101000000000000000000000000000186a0)]"
      ],
      "transaction": {
        "from": "0xee03621ce83bbf6e3931bccf35b144354f16ccf7",
        "to": "0x9b7168fc8cecee70b1beed9b5ecfcd1f649f2b1c",
        "gas": "0xf456",
        "value": "0x0",
        "input": "0xb98bd07000000000000000000000000000000000000000000000000000000000000000200000000000000000000000000000000000000000000000000000000000000002000000000000000000000000000000000000000000000000000000000000004000000000000000000000000000000000000000000000000000000000000000e000000000000000000000000000000000000000000000000000000000000075e80000000000000000000000000000000000000000000000000000000000000001000000000000000000000000000000000000000000000000000000000000006000000000000000000000000000000000000000000000000000000000000000160003010011010000000000000000000000000001388000000000000000000000000000000000000000000000000000000000000000000000000000000000759e000000000000000000000000000000000000000000000000000000000000000100000000000000000000000000000000000000000000000000000000000000600000000000000000000000000000000000000000000000000000000000000016000301001101000000000000000000000000000186a000000000000000000000",
        "nonce": "0x74",
        "chainId": "0x2105"
      },
      "additionalContracts": [],
      "isFixedGasLimit": false
    },
    {
      "hash": "0xe6cf9485b56cbbe85cece64ddb60f3c617bddbfd5006d1c5bc38916112187257",
      "transactionType": "CALL",
      "contractName": null,
      "contractAddress": "0x9b7168fc8cecee70b1beed9b5ecfcd1f649f2b1c",
      "function": "setRouter(address)",
      "arguments": [
        "0x23c5462BcD096AbFdFe9A845A9E1Ec06bEa3F81B"
      ],
      "transaction": {
        "from": "0xee03621ce83bbf6e3931bccf35b144354f16ccf7",
        "to": "0x9b7168fc8cecee70b1beed9b5ecfcd1f649f2b1c",
        "gas": "0x971c",
        "value": "0x0",
        "input": "0xc0d7865500000000000000000000000023c5462bcd096abfdfe9a845a9e1ec06bea3f81b",
        "nonce": "0x75",
        "chainId": "0x2105"
      },
      "additionalContracts": [],
      "isFixedGasLimit": false
    }
  ],
  "receipts": [
    {
      "status": "0x1",
      "cumulativeGasUsed": "0x33a13c3",
      "logs": [
        {
          "address": "0x9b7168fc8cecee70b1beed9b5ecfcd1f649f2b1c",
          "topics": [
            "0x238399d427b947898edb290f5ff0f9109849b1c3ba196a42e35f00c50a54b98b"
          ],
          "data": "0x00000000000000000000000000000000000000000000000000000000000075e80000000000000000000000009b7168fc8cecee70b1beed9b5ecfcd1f649f2b1c",
          "blockHash": "0x5be32d0c5c2f37ba86cc78847639b354b6dc56aa530a4c86b445c1745890bf22",
          "blockNumber": "0x23488ea",
          "blockTimestamp": "0x68f36eb7",
          "transactionHash": "0x479e9d3aecd6740ea34f345535578bd442858380326d88870067ddb4c7216e67",
          "transactionIndex": "0xc0",
          "logIndex": "0x678",
          "removed": false
        }
      ],
      "logsBloom": "0x00000000000000000000000000000000000000000000000000000000000000000000000000000000000000000000000000000000000000000800000000000000000000000000000000000000000002000000000000000000000000000000000000000000000000000000000000000000000000000000000000000000000000000000000000000000000800000000000000000000000000000000000000000000000000000000000000000000000000000000000000000000000002000000000000000000000000000000000000000000000000000001000000040000000000000000000000000000000000000000000000000000000000000000000000000000",
      "type": "0x2",
      "transactionHash": "0x479e9d3aecd6740ea34f345535578bd442858380326d88870067ddb4c7216e67",
      "transactionIndex": "0xc0",
      "blockHash": "0x5be32d0c5c2f37ba86cc78847639b354b6dc56aa530a4c86b445c1745890bf22",
      "blockNumber": "0x23488ea",
      "gasUsed": "0x6ea0",
      "effectiveGasPrice": "0x9ab00",
      "from": "0xee03621ce83bbf6e3931bccf35b144354f16ccf7",
      "to": "0x9b7168fc8cecee70b1beed9b5ecfcd1f649f2b1c",
      "contractAddress": null,
      "l1BaseFeeScalar": "0x8dd",
      "l1BlobBaseFee": "0x1",
      "l1BlobBaseFeeScalar": "0x101c12",
      "l1Fee": "0x1e60bd8f",
      "l1GasPrice": "0x85e1dc3",
      "l1GasUsed": "0x640"
    },
    {
      "status": "0x1",
      "cumulativeGasUsed": "0xbc3656",
      "logs": [
        {
          "address": "0x9b7168fc8cecee70b1beed9b5ecfcd1f649f2b1c",
          "topics": [
            "0x238399d427b947898edb290f5ff0f9109849b1c3ba196a42e35f00c50a54b98b"
          ],
          "data": "0x000000000000000000000000000000000000000000000000000000000000759e0000000000000000000000008da2f4663d02dbf598d90f5172347aecf119b463",
          "blockHash": "0x75e92a6ff82b44eda18dbef45f3c20423b93bc53102cefb0859c1a4aae845549",
          "blockNumber": "0x23488eb",
          "blockTimestamp": "0x68f36eb9",
          "transactionHash": "0xbdb2b5f50aabccf8b036d21eb168cd1d1e069472405703436386bbc908bcc136",
          "transactionIndex": "0x2b",
          "logIndex": "0x10e",
          "removed": false
        }
      ],
      "logsBloom": "0x00000000000000000000000000000000000000000000000000000000000000000000000000000000000000000000000000000000000000000800000000000000000000000000000000000000000002000000000000000000000000000000000000000000000000000000000000000000000000000000000000000000000000000000000000000000000800000000000000000000000000000000000000000000000000000000000000000000000000000000000000000000000002000000000000000000000000000000000000000000000000000001000000040000000000000000000000000000000000000000000000000000000000000000000000000000",
      "type": "0x2",
      "transactionHash": "0xbdb2b5f50aabccf8b036d21eb168cd1d1e069472405703436386bbc908bcc136",
      "transactionIndex": "0x2b",
      "blockHash": "0x75e92a6ff82b44eda18dbef45f3c20423b93bc53102cefb0859c1a4aae845549",
      "blockNumber": "0x23488eb",
      "gasUsed": "0xbc5c",
      "effectiveGasPrice": "0x9b045",
      "from": "0xee03621ce83bbf6e3931bccf35b144354f16ccf7",
      "to": "0x9b7168fc8cecee70b1beed9b5ecfcd1f649f2b1c",
      "contractAddress": null,
      "l1BaseFeeScalar": "0x8dd",
      "l1BlobBaseFee": "0x1",
      "l1BlobBaseFeeScalar": "0x101c12",
      "l1Fee": "0x1e25ee1b",
      "l1GasPrice": "0x84deab6",
      "l1GasUsed": "0x640"
    },
    {
      "status": "0x1",
      "cumulativeGasUsed": "0xbcdd68",
      "logs": [
        {
          "address": "0x9b7168fc8cecee70b1beed9b5ecfcd1f649f2b1c",
          "topics": [
            "0xbe4864a8e820971c0247f5992e2da559595f7bf076a21cb5928d443d2a13b674"
          ],
          "data": "0x00000000000000000000000000000000000000000000000000000000000000200000000000000000000000000000000000000000000000000000000000000002000000000000000000000000000000000000000000000000000000000000004000000000000000000000000000000000000000000000000000000000000000e000000000000000000000000000000000000000000000000000000000000075e80000000000000000000000000000000000000000000000000000000000000001000000000000000000000000000000000000000000000000000000000000006000000000000000000000000000000000000000000000000000000000000000160003010011010000000000000000000000000001388000000000000000000000000000000000000000000000000000000000000000000000000000000000759e000000000000000000000000000000000000000000000000000000000000000100000000000000000000000000000000000000000000000000000000000000600000000000000000000000000000000000000000000000000000000000000016000301001101000000000000000000000000000186a000000000000000000000",
          "blockHash": "0x75e92a6ff82b44eda18dbef45f3c20423b93bc53102cefb0859c1a4aae845549",
          "blockNumber": "0x23488eb",
          "blockTimestamp": "0x68f36eb9",
          "transactionHash": "0x55dd5957db1f348527b7f4addfafea66791f89dd8456a6e14a1af9bd761d6a82",
          "transactionIndex": "0x2c",
          "logIndex": "0x10f",
          "removed": false
        }
      ],
      "logsBloom": "0x00000000000000000000000000000000000000000000000000000000000000000000000000000000000000000000000000000000000000000000400000000000000000000000000000000000000002000000000000000000000000000000000000000000000000000000000000000000000000000000000000000000000000000000000000000000000800000000000000000000000000000000000000080000000000000000000000000000000000000000000000000000000000000000000000000000000000000000000002000000000000000001000000000000000000000000000000000000000000000000000000000000000000000000000000000000",
      "type": "0x2",
      "transactionHash": "0x55dd5957db1f348527b7f4addfafea66791f89dd8456a6e14a1af9bd761d6a82",
      "transactionIndex": "0x2c",
      "blockHash": "0x75e92a6ff82b44eda18dbef45f3c20423b93bc53102cefb0859c1a4aae845549",
      "blockNumber": "0x23488eb",
      "gasUsed": "0xa712",
      "effectiveGasPrice": "0x9b045",
      "from": "0xee03621ce83bbf6e3931bccf35b144354f16ccf7",
      "to": "0x9b7168fc8cecee70b1beed9b5ecfcd1f649f2b1c",
      "contractAddress": null,
      "l1BaseFeeScalar": "0x8dd",
      "l1BlobBaseFee": "0x1",
      "l1BlobBaseFeeScalar": "0x101c12",
      "l1Fee": "0x28e0a812",
      "l1GasPrice": "0x84deab6",
      "l1GasUsed": "0x879"
    },
    {
      "status": "0x1",
      "cumulativeGasUsed": "0xbd44bb",
      "logs": [],
      "logsBloom": "0x00000000000000000000000000000000000000000000000000000000000000000000000000000000000000000000000000000000000000000000000000000000000000000000000000000000000000000000000000000000000000000000000000000000000000000000000000000000000000000000000000000000000000000000000000000000000000000000000000000000000000000000000000000000000000000000000000000000000000000000000000000000000000000000000000000000000000000000000000000000000000000000000000000000000000000000000000000000000000000000000000000000000000000000000000000000",
      "type": "0x2",
      "transactionHash": "0xe6cf9485b56cbbe85cece64ddb60f3c617bddbfd5006d1c5bc38916112187257",
      "transactionIndex": "0x2d",
      "blockHash": "0x75e92a6ff82b44eda18dbef45f3c20423b93bc53102cefb0859c1a4aae845549",
      "blockNumber": "0x23488eb",
      "gasUsed": "0x6753",
      "effectiveGasPrice": "0x9b045",
      "from": "0xee03621ce83bbf6e3931bccf35b144354f16ccf7",
      "to": "0x9b7168fc8cecee70b1beed9b5ecfcd1f649f2b1c",
      "contractAddress": null,
      "l1BaseFeeScalar": "0x8dd",
      "l1BlobBaseFee": "0x1",
      "l1BlobBaseFeeScalar": "0x101c12",
      "l1Fee": "0x1e25ee1b",
      "l1GasPrice": "0x84deab6",
      "l1GasUsed": "0x640"
    }
  ],
  "libraries": [],
  "pending": [],
  "returns": {},
  "timestamp": 1760784057305,
  "chain": 8453,
  "commit": "aaddbdd"
}