{
  "transactions": [
    {
      "hash": "0xcb4f8a76314148ba9db119615a22e3a3594dd0b8b828652507c66985a2292576",
      "transactionType": "CALL",
      "contractName": null,
      "contractAddress": "0x2099fde6100bd4b7a5004a1ae4077be9469984a8",
      "function": "setPeer(uint32,bytes32)",
      "arguments": [
        "30184",
        "0x0000000000000000000000002099fde6100bd4b7a5004a1ae4077be9469984a8"
      ],
      "transaction": {
        "from": "0xee03621ce83bbf6e3931bccf35b144354f16ccf7",
        "to": "0x2099fde6100bd4b7a5004a1ae4077be9469984a8",
        "gas": "0x1041b",
        "value": "0x0",
        "input": "0x3400288b00000000000000000000000000000000000000000000000000000000000075e80000000000000000000000002099fde6100bd4b7a5004a1ae4077be9469984a8",
        "nonce": "0x82",
        "chainId": "0x2105"
      },
      "additionalContracts": [],
      "isFixedGasLimit": false
    },
    {
      "hash": "0x0cf006528000bfeef811b1c36bb1979d9ac65e7a723d0ae5ccb5ea510ed81382",
      "transactionType": "CALL",
      "contractName": null,
      "contractAddress": "0x2099fde6100bd4b7a5004a1ae4077be9469984a8",
      "function": "setPeer(uint32,bytes32)",
      "arguments": [
        "30110",
        "0x00000000000000000000000023c5462bcd096abfdfe9a845a9e1ec06bea3f81b"
      ],
      "transaction": {
        "from": "0xee03621ce83bbf6e3931bccf35b144354f16ccf7",
        "to": "0x2099fde6100bd4b7a5004a1ae4077be9469984a8",
        "gas": "0x1042a",
        "value": "0x0",
        "input": "0x3400288b000000000000000000000000000000000000000000000000000000000000759e00000000000000000000000023c5462bcd096abfdfe9a845a9e1ec06bea3f81b",
        "nonce": "0x83",
        "chainId": "0x2105"
      },
      "additionalContracts": [],
      "isFixedGasLimit": false
    },
    {
      "hash": "0xabebb496c99116c85256ee35cfc246e02061cbc848ac8362d55c0b32a72e0286",
      "transactionType": "CALL",
      "contractName": null,
      "contractAddress": "0x2099fde6100bd4b7a5004a1ae4077be9469984a8",
      "function": "setEnforcedOptions((uint32,uint16,bytes)[])",
      "arguments": [
        "[(30184, 1, 0x00030100110100000000000000000000000000013880), (30110, 1, 0x000301001101000000000000000000000000000186a0)]"
      ],
      "transaction": {
        "from": "0xee03621ce83bbf6e3931bccf35b144354f16ccf7",
        "to": "0x2099fde6100bd4b7a5004a1ae4077be9469984a8",
        "gas": "0x1d7b6",
        "value": "0x0",
        "input": "0xb98bd07000000000000000000000000000000000000000000000000000000000000000200000000000000000000000000000000000000000000000000000000000000002000000000000000000000000000000000000000000000000000000000000004000000000000000000000000000000000000000000000000000000000000000e000000000000000000000000000000000000000000000000000000000000075e80000000000000000000000000000000000000000000000000000000000000001000000000000000000000000000000000000000000000000000000000000006000000000000000000000000000000000000000000000000000000000000000160003010011010000000000000000000000000001388000000000000000000000000000000000000000000000000000000000000000000000000000000000759e000000000000000000000000000000000000000000000000000000000000000100000000000000000000000000000000000000000000000000000000000000600000000000000000000000000000000000000000000000000000000000000016000301001101000000000000000000000000000186a000000000000000000000",
        "nonce": "0x84",
        "chainId": "0x2105"
      },
      "additionalContracts": [],
      "isFixedGasLimit": false
    }
  ],
  "receipts": [
    {
      "status": "0x1",
      "cumulativeGasUsed": "0x10c7394",
      "logs": [
        {
          "address": "0x2099fde6100bd4b7a5004a1ae4077be9469984a8",
          "topics": [
            "0x238399d427b947898edb290f5ff0f9109849b1c3ba196a42e35f00c50a54b98b"
          ],
          "data": "0x00000000000000000000000000000000000000000000000000000000000075e80000000000000000000000002099fde6100bd4b7a5004a1ae4077be9469984a8",
          "blockHash": "0x7009ad8ab0ed5bbc4486a75e9f450e0b35ef38c2bee17769c6ae073191d8c82d",
          "blockNumber": "0x2356316",
          "blockTimestamp": "0x68f5230f",
          "transactionHash": "0xcb4f8a76314148ba9db119615a22e3a3594dd0b8b828652507c66985a2292576",
          "transactionIndex": "0xb8",
          "logIndex": "0x14f",
          "removed": false
        }
      ],
      "logsBloom": "0x00000000000000000000000000000000000000000000000000000000000000000000000000000000000000000000000000000000000000000800000000000000000000000000000000000000000000000000000000000000000000000000000000000000000000000000000000000000000000000000000000000000000000000000000000000000000000000000000000000000000000000000000400000000000000000000000000000000000000000000000000000000000002000000000000000000000200000000000000000000000000000000000001040000000000000000000000000000000000000000000000000000000000000000000000000000",
      "type": "0x2",
      "transactionHash": "0xcb4f8a76314148ba9db119615a22e3a3594dd0b8b828652507c66985a2292576",
      "transactionIndex": "0xb8",
      "blockHash": "0x7009ad8ab0ed5bbc4486a75e9f450e0b35ef38c2bee17769c6ae073191d8c82d",
      "blockNumber": "0x2356316",
      "gasUsed": "0xbc50",
      "effectiveGasPrice": "0x1769de",
      "from": "0xee03621ce83bbf6e3931bccf35b144354f16ccf7",
      "to": "0x2099fde6100bd4b7a5004a1ae4077be9469984a8",
      "contractAddress": null,
      "l1BaseFeeScalar": "0x8dd",
      "l1BlobBaseFee": "0x1",
      "l1BlobBaseFeeScalar": "0x101c12",
      "l1Fee": "0x1f014424",
      "l1GasPrice": "0x88a5556",
      "l1GasUsed": "0x640"
    },
    {
      "status": "0x1",
      "cumulativeGasUsed": "0x161528c",
      "logs": [
        {
          "address": "0x2099fde6100bd4b7a5004a1ae4077be9469984a8",
          "topics": [
            "0x238399d427b947898edb290f5ff0f9109849b1c3ba196a42e35f00c50a54b98b"
          ],
          "data": "0x000000000000000000000000000000000000000000000000000000000000759e00000000000000000000000023c5462bcd096abfdfe9a845a9e1ec06bea3f81b",
          "blockHash": "0x7009ad8ab0ed5bbc4486a75e9f450e0b35ef38c2bee17769c6ae073191d8c82d",
          "blockNumber": "0x2356316",
          "blockTimestamp": "0x68f5230f",
          "transactionHash": "0x0cf006528000bfeef811b1c36bb1979d9ac65e7a723d0ae5ccb5ea510ed81382",
          "transactionIndex": "0xdc",
          "logIndex": "0x172",
          "removed": false
        }
      ],
      "logsBloom": "0x00000000000000000000000000000000000000000000000000000000000000000000000000000000000000000000000000000000000000000800000000000000000000000000000000000000000000000000000000000000000000000000000000000000000000000000000000000000000000000000000000000000000000000000000000000000000000000000000000000000000000000000000400000000000000000000000000000000000000000000000000000000000002000000000000000000000200000000000000000000000000000000000001040000000000000000000000000000000000000000000000000000000000000000000000000000",
      "type": "0x2",
      "transactionHash": "0x0cf006528000bfeef811b1c36bb1979d9ac65e7a723d0ae5ccb5ea510ed81382",
      "transactionIndex": "0xdc",
      "blockHash": "0x7009ad8ab0ed5bbc4486a75e9f450e0b35ef38c2bee17769c6ae073191d8c82d",
      "blockNumber": "0x2356316",
      "gasUsed": "0xbc5c",
      "effectiveGasPrice": "0x1769de",
      "from": "0xee03621ce83bbf6e3931bccf35b144354f16ccf7",
      "to": "0x2099fde6100bd4b7a5004a1ae4077be9469984a8",
      "contractAddress": null,
      "l1BaseFeeScalar": "0x8dd",
      "l1BlobBaseFee": "0x1",
      "l1BlobBaseFeeScalar": "0x101c12",
      "l1Fee": "0x1f014424",
      "l1GasPrice": "0x88a5556",
      "l1GasUsed": "0x640"
    },
    {
      "status": "0x1",
      "cumulativeGasUsed": "0x1629516",
      "logs": [
        {
          "address": "0x2099fde6100bd4b7a5004a1ae4077be9469984a8",
          "topics": [
            "0xbe4864a8e820971c0247f5992e2da559595f7bf076a21cb5928d443d2a13b674"
          ],
          "data": "0x00000000000000000000000000000000000000000000000000000000000000200000000000000000000000000000000000000000000000000000000000000002000000000000000000000000000000000000000000000000000000000000004000000000000000000000000000000000000000000000000000000000000000e000000000000000000000000000000000000000000000000000000000000075e80000000000000000000000000000000000000000000000000000000000000001000000000000000000000000000000000000000000000000000000000000006000000000000000000000000000000000000000000000000000000000000000160003010011010000000000000000000000000001388000000000000000000000000000000000000000000000000000000000000000000000000000000000759e000000000000000000000000000000000000000000000000000000000000000100000000000000000000000000000000000000000000000000000000000000600000000000000000000000000000000000000000000000000000000000000016000301001101000000000000000000000000000186a000000000000000000000",
          "blockHash": "0x7009ad8ab0ed5bbc4486a75e9f450e0b35ef38c2bee17769c6ae073191d8c82d",
          "blockNumber": "0x2356316",
          "blockTimestamp": "0x68f5230f",
          "transactionHash": "0xabebb496c99116c85256ee35cfc246e02061cbc848ac8362d55c0b32a72e0286",
          "transactionIndex": "0xdd",
          "logIndex": "0x173",
          "removed": false
        }
      ],
      "logsBloom": "0x00000000000000000000000000000000000000000000000000000000000000000000000000000000000000000000000000000000000000000000400000000000000000000000000000000000000000000000000000000000000000000000000000000000000000000000000000000000000000000000000000000000000000000000000000000000000000000000000000000000000000000000000400080000000000000000000000000000000000000000000000000000000000000000000000000000000200000000000002000000000000000000000001000000000000000000000000000000000000000000000000000000000000000000000000000000",
      "type": "0x2",
      "transactionHash": "0xabebb496c99116c85256ee35cfc246e02061cbc848ac8362d55c0b32a72e0286",
      "transactionIndex": "0xdd",
      "blockHash": "0x7009ad8ab0ed5bbc4486a75e9f450e0b35ef38c2bee17769c6ae073191d8c82d",
      "blockNumber": "0x2356316",
      "gasUsed": "0x1428a",
      "effectiveGasPrice": "0x1769de",
      "from": "0xee03621ce83bbf6e3931bccf35b144354f16ccf7",
      "to": "0x2099fde6100bd4b7a5004a1ae4077be9469984a8",
      "contractAddress": null,
      "l1BaseFeeScalar": "0x8dd",
      "l1BlobBaseFee": "0x1",
      "l1BlobBaseFeeScalar": "0x101c12",
      "l1Fee": "0x2ad13cd3",
      "l1GasPrice": "0x88a5556",
      "l1GasUsed": "0x8a1"
    }
  ],
  "libraries": [],
  "pending": [],
  "returns": {},
  "timestamp": 1760895760440,
  "chain": 8453,
  "commit": "aaddbdd"
}