{
  "transactions": [
    {
      "hash": "0xf65a33c0ad575cddd34746d8d17c6251525242e21f6356357b7166a57663be47",
      "transactionType": "CALL",
      "contractName": null,
      "contractAddress": "0x2099fde6100bd4b7a5004a1ae4077be9469984a8",
      "function": "setEnforcedOptions((uint32,uint16,bytes)[])",
      "arguments": [
        "[(30184, 1, 0x000301001101000000000000000000000000000c3500), (30110, 1, 0x000301001101000000000000000000000000000f4240)]"
      ],
      "transaction": {
        "from": "0xee03621ce83bbf6e3931bccf35b144354f16ccf7",
        "to": "0x2099fde6100bd4b7a5004a1ae4077be9469984a8",
        "gas": "0x104ea",
        "value": "0x0",
        "input": "0xb98bd07000000000000000000000000000000000000000000000000000000000000000200000000000000000000000000000000000000000000000000000000000000002000000000000000000000000000000000000000000000000000000000000004000000000000000000000000000000000000000000000000000000000000000e000000000000000000000000000000000000000000000000000000000000075e8000000000000000000000000000000000000000000000000000000000000000100000000000000000000000000000000000000000000000000000000000000600000000000000000000000000000000000000000000000000000000000000016000301001101000000000000000000000000000c350000000000000000000000000000000000000000000000000000000000000000000000000000000000759e000000000000000000000000000000000000000000000000000000000000000100000000000000000000000000000000000000000000000000000000000000600000000000000000000000000000000000000000000000000000000000000016000301001101000000000000000000000000000f424000000000000000000000",
        "nonce": "0x8a",
        "chainId": "0x2105"
      },
      "additionalContracts": [],
      "isFixedGasLimit": false
    }
  ],
  "receipts": [
    {
      "status": "0x1",
      "cumulativeGasUsed": "0x2a19119",
      "logs": [
        {
          "address": "0x2099fde6100bd4b7a5004a1ae4077be9469984a8",
          "topics": [
            "0xbe4864a8e820971c0247f5992e2da559595f7bf076a21cb5928d443d2a13b674"
          ],
          "data": "0x00000000000000000000000000000000000000000000000000000000000000200000000000000000000000000000000000000000000000000000000000000002000000000000000000000000000000000000000000000000000000000000004000000000000000000000000000000000000000000000000000000000000000e000000000000000000000000000000000000000000000000000000000000075e8000000000000000000000000000000000000000000000000000000000000000100000000000000000000000000000000000000000000000000000000000000600000000000000000000000000000000000000000000000000000000000000016000301001101000000000000000000000000000c350000000000000000000000000000000000000000000000000000000000000000000000000000000000759e000000000000000000000000000000000000000000000000000000000000000100000000000000000000000000000000000000000000000000000000000000600000000000000000000000000000000000000000000000000000000000000016000301001101000000000000000000000000000f424000000000000000000000",
          "blockHash": "0x3779dcee85c71a6ca4c58702bbb9aaf4b3e549ef7217a6f10eecdc7fa38296e7",
          "blockNumber": "0x2356612",
          "blockTimestamp": "0x68f52907",
          "transactionHash": "0xf65a33c0ad575cddd34746d8d17c6251525242e21f6356357b7166a57663be47",
          "transactionIndex": "0x9a",
          "logIndex": "0x404",
          "removed": false
        }
      ],
      "logsBloom": "0x00000000000000000000000000000000000000000000000000000000000000000000000000000000000000000000000000000000000000000000400000000000000000000000000000000000000000000000000000000000000000000000000000000000000000000000000000000000000000000000000000000000000000000000000000000000000000000000000000000000000000000000000400080000000000000000000000000000000000000000000000000000000000000000000000000000000200000000000002000000000000000000000001000000000000000000000000000000000000000000000000000000000000000000000000000000",
      "type": "0x2",
      "transactionHash": "0xf65a33c0ad575cddd34746d8d17c6251525242e21f6356357b7166a57663be47",
      "transactionIndex": "0x9a",
      "blockHash": "0x3779dcee85c71a6ca4c58702bbb9aaf4b3e549ef7217a6f10eecdc7fa38296e7",
      "blockNumber": "0x2356612",
      "gasUsed": "0xbce6",
      "effectiveGasPrice": "0x16c0ee",
      "from": "0xee03621ce83bbf6e3931bccf35b144354f16ccf7",
      "to": "0x2099fde6100bd4b7a5004a1ae4077be9469984a8",
      "contractAddress": null,
      "l1BaseFeeScalar": "0x8dd",
      "l1BlobBaseFee": "0x1",
      "l1BlobBaseFeeScalar": "0x101c12",
      "l1Fee": "0x294ebaa7",
      "l1GasPrice": "0x84a1823",
      "l1GasUsed": "0x894"
    }
  ],
  "libraries": [],
  "pending": [],
  "returns": {},
  "timestamp": 1760897288003,
  "chain": 8453,
  "commit": "aaddbdd"
}