{
  "transactions": [
    {
      "hash": "0xc098b3ef70577a377ea92fcf763e3653682ea2fcca89e8abc306c1b0c9b47a85",
      "transactionType": "CALL",
      "contractName": null,
      "contractAddress": "0x23c5462bcd096abfdfe9a845a9e1ec06bea3f81b",
      "function": "setChainIdToOApp(uint256,address)",
      "arguments": [
        "8453",
        "0x2099FDE6100bd4B7a5004a1aE4077bE9469984A8"
      ],
      "transaction": {
        "from": "0xee03621ce83bbf6e3931bccf35b144354f16ccf7",
        "to": "0x23c5462bcd096abfdfe9a845a9e1ec06bea3f81b",
        "gas": "0xb2ab",
        "value": "0x0",
        "input": "0xf86ae78800000000000000000000000000000000000000000000000000000000000021050000000000000000000000002099fde6100bd4b7a5004a1ae4077be9469984a8",
        "nonce": "0x85",
        "chainId": "0x2105"
      },
      "additionalContracts": [],
      "isFixedGasLimit": false
    }
  ],
  "receipts": [
    {
      "status": "0x1",
      "cumulativeGasUsed": "0x3017e46",
      "logs": [
        {
          "address": "0x23c5462bcd096abfdfe9a845a9e1ec06bea3f81b",
          "topics": [
            "0x08bb8a5c04b030742c31bf3ed154a8ee0a26b42d6edea42acb7a82eefbe8366b"
          ],
          "data": "0x00000000000000000000000000000000000000000000000000000000000021050000000000000000000000002099fde6100bd4b7a5004a1ae4077be9469984a8",
          "blockHash": "0xd4cec3f945f75e1d4146b53a50ae580b31814e7355c592d4ff49e47ef5cf730c",
          "blockNumber": "0x23563be",
          "blockTimestamp": "0x68f5245f",
          "transactionHash": "0xc098b3ef70577a377ea92fcf763e3653682ea2fcca89e8abc306c1b0c9b47a85",
          "transactionIndex": "0xcc",
          "logIndex": "0x45c",
          "removed": false
        }
      ],
      "logsBloom": "0x00000000000000000000000000000000000000000000000000002000000000000000000000000800000000000000000000000000000000000000000000000000000000000000000000000000000000000000000000000000000000000000000000000000000000000000000000000000000000000000000000000000000000000000000000000000000000004000000000000000000000000010000000000000000000000000000000000000000000000000000000000000000000000000000000000000000008000000000000000000000000000000000000000000000000000000000000000000000000000000000000000000000000000000040000000000",
      "type": "0x2",
      "transactionHash": "0xc098b3ef70577a377ea92fcf763e3653682ea2fcca89e8abc306c1b0c9b47a85",
      "transactionIndex": "0xcc",
      "blockHash": "0xd4cec3f945f75e1d4146b53a50ae580b31814e7355c592d4ff49e47ef5cf730c",
      "blockNumber": "0x23563be",
      "gasUsed": "0x7a2b",
      "effectiveGasPrice": "0xa46ca",
      "from": "0xee03621ce83bbf6e3931bccf35b144354f16ccf7",
      "to": "0x23c5462bcd096abfdfe9a845a9e1ec06bea3f81b",
      "contractAddress": null,
      "l1BaseFeeScalar": "0x8dd",
      "l1BlobBaseFee": "0x1",
      "l1BlobBaseFeeScalar": "0x101c12",
      "l1Fee": "0x1f2a611c",
      "l1GasPrice": "0x895a875",
      "l1GasUsed": "0x640"
    }
  ],
  "libraries": [],
  "pending": [],
  "returns": {},
  "timestamp": 1760896097101,
  "chain": 8453,
  "commit": "aaddbdd"
}