{
  "transactions": [
    {
      "hash": "0x19c1e4ec38b1f72f5b118374110797f9e9ed6e890e83909d7b22187a339ebe6d",
      "transactionType": "CALL",
      "contractName": null,
      "contractAddress": "0x99d19f4cb938e0aad646358c20cb9d0ce0a7a945",
      "function": "mint(address,uint256)",
      "arguments": [
        "0xEe03621Ce83BbF6e3931BcCf35b144354F16ccf7",
        "100000000000000000000000000"
      ],
      "transaction": {
        "from": "0xee03621ce83bbf6e3931bccf35b144354f16ccf7",
        "to": "0x99d19f4cb938e0aad646358c20cb9d0ce0a7a945",
        "gas": "0x167a2",
        "value": "0x0",
        "input": "0x40c10f19000000000000000000000000ee03621ce83bbf6e3931bccf35b144354f16ccf700000000000000000000000000000000000000000052b7d2dcc80cd2e4000000",
        "nonce": "0xff",
        "chainId": "0xa4b1"
      },
      "additionalContracts": [],
      "isFixedGasLimit": false
    }
  ],
  "receipts": [
    {
      "status": "0x1",
      "cumulativeGasUsed": "0x80745",
      "logs": [
        {
          "address": "0x99d19f4cb938e0aad646358c20cb9d0ce0a7a945",
          "topics": [
            "0xddf252ad1be2c89b69c2b068fc378daa952ba7f163c4a11628f55a4df523b3ef",
            "0x0000000000000000000000000000000000000000000000000000000000000000",
            "0x000000000000000000000000ee03621ce83bbf6e3931bccf35b144354f16ccf7"
          ],
          "data": "0x00000000000000000000000000000000000000000052b7d2dcc80cd2e4000000",
          "blockHash": "0x9840b285c25ae6b7af5f8fc74295bb16fdf6d054dc3614141473220bcdcb813e",
          "blockNumber": "0x176b7381",
          "transactionHash": "0x19c1e4ec38b1f72f5b118374110797f9e9ed6e890e83909d7b22187a339ebe6d",
          "transactionIndex": "0x7",
          "logIndex": "0x3",
          "removed": false
        }
      ],
      "logsBloom": "0x00000000000000000000000000000000000000000000000000000000000000000000000000000000000000000000000000000000000000000000000000000000000000000000000000000018040000000000000000000000020000000000000000000000020000000000000000000800000000000000000000000010000000000000000000000000000000000000000000040000000000000000000000000000000000000000000000000000000000000000000000000000000000000000000000000002000000000000000010000000000000000000000000000000000020000000000000000000000000000000000000000000000000000000000000000000",
      "type": "0x2",
      "transactionHash": "0x19c1e4ec38b1f72f5b118374110797f9e9ed6e890e83909d7b22187a339ebe6d",
      "transactionIndex": "0x7",
      "blockHash": "0x9840b285c25ae6b7af5f8fc74295bb16fdf6d054dc3614141473220bcdcb813e",
      "blockNumber": "0x176b7381",
      "gasUsed": "0x11028",
      "effectiveGasPrice": "0x1839e78",
      "from": "0xee03621ce83bbf6e3931bccf35b144354f16ccf7",
      "to": "0x99d19f4cb938e0aad646358c20cb9d0ce0a7a945",
      "contractAddress": null,
      "gasUsedForL1": "0x292",
      "l1BlockNumber": "0x168d5d2",
      "timeboosted": false
    }
  ],
  "libraries": [],
  "pending": [],
  "returns": {},
  "timestamp": 1761313410110,
  "chain": 42161,
  "commit": "23fba6a"
}