{
  "transactions": [
    {
      "hash": "0x2a7d50085233b89000b4f10c1eaac99cf0a767a309d12aafba3dcf8920802bbc",
      "transactionType": "CALL",
      "contractName": null,
      "contractAddress": "0xc23e60ac84240ffce72680652515dfb1435c356b",
      "function": "mint(address,uint256)",
      "arguments": [
        "0xEe03621Ce83BbF6e3931BcCf35b144354F16ccf7",
        "100000000000"
      ],
      "transaction": {
        "from": "0xee03621ce83bbf6e3931bccf35b144354f16ccf7",
        "to": "0xc23e60ac84240ffce72680652515dfb1435c356b",
        "gas": "0x1674d",
        "value": "0x0",
        "input": "0x40c10f19000000000000000000000000ee03621ce83bbf6e3931bccf35b144354f16ccf7000000000000000000000000000000000000000000000000000000174876e800",
        "nonce": "0x4a",
        "chainId": "0xa4b1"
      },
      "additionalContracts": [],
      "isFixedGasLimit": false
    }
  ],
  "receipts": [
    {
      "status": "0x1",
      "cumulativeGasUsed": "0x27e67",
      "logs": [
        {
          "address": "0xc23e60ac84240ffce72680652515dfb1435c356b",
          "topics": [
            "0xddf252ad1be2c89b69c2b068fc378daa952ba7f163c4a11628f55a4df523b3ef",
            "0x0000000000000000000000000000000000000000000000000000000000000000",
            "0x000000000000000000000000ee03621ce83bbf6e3931bccf35b144354f16ccf7"
          ],
          "data": "0x000000000000000000000000000000000000000000000000000000174876e800",
          "blockHash": "0xf3d22a0552e246ff742c670378d0c546d23fda0f8d20591d65b9fe35959c2c90",
          "blockNumber": "0x174b258f",
          "transactionHash": "0x2a7d50085233b89000b4f10c1eaac99cf0a767a309d12aafba3dcf8920802bbc",
          "transactionIndex": "0x3",
          "logIndex": "0x1",
          "removed": false
        }
      ],
      "logsBloom": "0x00000000000000000000000000000000000000000000000000000000000000000000000000000000000000000000000000000000000000000000000000000000000000000000000000000018040000000000000000000000000000000000000000000000020000000000000000000800000000000000000000000010000000000000000000000000000000000000040000000000000000000000000000000000000000000000000000000000000000000000000000000000000200000000000000000002000000000000000010000000000000000000000000000000000020000000000000000080000000000000000000000000000000000000000000000000",
      "type": "0x2",
      "transactionHash": "0x2a7d50085233b89000b4f10c1eaac99cf0a767a309d12aafba3dcf8920802bbc",
      "transactionIndex": "0x3",
      "blockHash": "0xf3d22a0552e246ff742c670378d0c546d23fda0f8d20591d65b9fe35959c2c90",
      "blockNumber": "0x174b258f",
      "gasUsed": "0x11050",
      "effectiveGasPrice": "0x989680",
      "from": "0xee03621ce83bbf6e3931bccf35b144354f16ccf7",
      "to": "0xc23e60ac84240ffce72680652515dfb1435c356b",
      "contractAddress": null,
      "gasUsedForL1": "0x2ea",
      "l1BlockNumber": "0x1682b38",
      "timeboosted": false
    }
  ],
  "libraries": [],
  "pending": [],
  "returns": {},
  "timestamp": 1760784335290,
  "chain": 42161,
  "commit": "aaddbdd"
}