{
  "transactions": [
    {
      "hash": "0x078fc8594512108b8462b1fee0b70805f6cdf1493e27209b8df1a26c2cc3d60c",
      "transactionType": "CALL",
      "contractName": null,
      "contractAddress": "0x338802b73da88d05e1b3a0203092ad43807049be",
      "function": "mint(address,uint256)",
      "arguments": [
        "0xEe03621Ce83BbF6e3931BcCf35b144354F16ccf7",
        "100000000000000000000000"
      ],
      "transaction": {
        "from": "0xee03621ce83bbf6e3931bccf35b144354f16ccf7",
        "to": "0x338802b73da88d05e1b3a0203092ad43807049be",
        "gas": "0x16639",
        "value": "0x0",
        "input": "0x40c10f19000000000000000000000000ee03621ce83bbf6e3931bccf35b144354f16ccf700000000000000000000000000000000000000000000152d02c7e14af6800000",
        "nonce": "0x4d",
        "chainId": "0xa4b1"
      },
      "additionalContracts": [],
      "isFixedGasLimit": false
    }
  ],
  "receipts": [
    {
      "status": "0x1",
      "cumulativeGasUsed": "0x18b4c9",
      "logs": [
        {
          "address": "0x338802b73da88d05e1b3a0203092ad43807049be",
          "topics": [
            "0xddf252ad1be2c89b69c2b068fc378daa952ba7f163c4a11628f55a4df523b3ef",
            "0x0000000000000000000000000000000000000000000000000000000000000000",
            "0x000000000000000000000000ee03621ce83bbf6e3931bccf35b144354f16ccf7"
          ],
          "data": "0x00000000000000000000000000000000000000000000152d02c7e14af6800000",
          "blockHash": "0x631eae3c97c787ecf3ee974d3b4d88dce6d4efe73283c12dab5fa4a5bafcca7e",
          "blockNumber": "0x174b3541",
          "transactionHash": "0x078fc8594512108b8462b1fee0b70805f6cdf1493e27209b8df1a26c2cc3d60c",
          "transactionIndex": "0x9",
          "logIndex": "0x1b",
          "removed": false
        }
      ],
      "logsBloom": "0x00000000000000000000000000000000000000000000000000000008000008000000000000000000000000000000000000000000000000000000000000000000000000000000000000000018040000000000008000000000000000000000000000000000020000000000000000000800000000000000000000000010000000000000000000000000000000000000000000000000000000000000000000000000000000000000000000000000000000000000000000000000000000000000000000000002000000000000000010000000000000000000000000000000000020000000000000000000000000000000000000000000000000000000000000000000",
      "type": "0x2",
      "transactionHash": "0x078fc8594512108b8462b1fee0b70805f6cdf1493e27209b8df1a26c2cc3d60c",
      "transactionIndex": "0x9",
      "blockHash": "0x631eae3c97c787ecf3ee974d3b4d88dce6d4efe73283c12dab5fa4a5bafcca7e",
      "blockNumber": "0x174b3541",
      "gasUsed": "0x10fb0",
      "effectiveGasPrice": "0x989680",
      "from": "0xee03621ce83bbf6e3931bccf35b144354f16ccf7",
      "to": "0x338802b73da88d05e1b3a0203092ad43807049be",
      "contractAddress": null,
      "gasUsedForL1": "0x21a",
      "l1BlockNumber": "0x1682b8b",
      "timeboosted": false
    }
  ],
  "libraries": [],
  "pending": [],
  "returns": {},
  "timestamp": 1760785339340,
  "chain": 42161,
  "commit": "aaddbdd"
}