{
  "transactions": [
    {
      "hash": "0x968484fcd91ec1ed3a388ef1391dbb34636e94bb5d5b43480b502c91373fd794",
      "transactionType": "CALL",
      "contractName": null,
      "contractAddress": "0xb113959014d95c555b8a908d794e73478e5509a8",
      "function": "setTokenPriceFeed(address,address)",
      "arguments": [
        "0xe3BaB20B2711e0577C46d14fd10bfFC0961036C3",
        "0x7e860098F58bBFC8648a4311b374B1D669a2bc6B"
      ],
      "transaction": {
        "from": "0xee03621ce83bbf6e3931bccf35b144354f16ccf7",
        "to": "0xb113959014d95c555b8a908d794e73478e5509a8",
        "gas": "0x9ae9",
        "value": "0x0",
        "input": "0x674417ae000000000000000000000000e3bab20b2711e0577c46d14fd10bffc0961036c30000000000000000000000007e860098f58bbfc8648a4311b374b1d669a2bc6b",
        "nonce": "0x105",
        "chainId": "0x2105"
      },
      "additionalContracts": [],
      "isFixedGasLimit": false
    },
    {
      "hash": "0x62447177632262df0a5e1d933c96e6651caa6c2751f76cf9945cc3c02aa4d38f",
      "transactionType": "CALL",
      "contractName": null,
      "contractAddress": "0xb113959014d95c555b8a908d794e73478e5509a8",
      "function": "setTokenPriceFeed(address,address)",
      "arguments": [
        "0xE29A9fBdf3d83c126C6366D7f401473Ab0850e7F",
        "0x71041dddad3595F9CEd3DcCFBe3D1F4b0a16Bb70"
      ],
      "transaction": {
        "from": "0xee03621ce83bbf6e3931bccf35b144354f16ccf7",
        "to": "0xb113959014d95c555b8a908d794e73478e5509a8",
        "gas": "0x9afa",
        "value": "0x0",
        "input": "0x674417ae000000000000000000000000e29a9fbdf3d83c126c6366d7f401473ab0850e7f00000000000000000000000071041dddad3595f9ced3dccfbe3d1f4b0a16bb70",
        "nonce": "0x106",
        "chainId": "0x2105"
      },
      "additionalContracts": [],
      "isFixedGasLimit": false
    },
    {
      "hash": "0x74216ada3942418754bdb95b7661206dfcdd6bb6d65b3c3b9c649ee4efd33b9e",
      "transactionType": "CALL",
      "contractName": null,
      "contractAddress": "0xb113959014d95c555b8a908d794e73478e5509a8",
      "function": "setTokenPriceFeed(address,address)",
      "arguments": [
        "0xca03A4dFE09f664890ee7B46D9Af4F0B6d5f6f15",
        "0x7B7a330EdC927CD77b41c198ac4fE25A6B5c2C3b"
      ],
      "transaction": {
        "from": "0xee03621ce83bbf6e3931bccf35b144354f16ccf7",
        "to": "0xb113959014d95c555b8a908d794e73478e5509a8",
        "gas": "0x9afa",
        "value": "0x0",
        "input": "0x674417ae000000000000000000000000ca03a4dfe09f664890ee7b46d9af4f0b6d5f6f150000000000000000000000007b7a330edc927cd77b41c198ac4fe25a6b5c2c3b",
        "nonce": "0x107",
        "chainId": "0x2105"
      },
      "additionalContracts": [],
      "isFixedGasLimit": false
    },
    {
      "hash": "0x4a656c2bd5525814202f48f5637120e366cd7519f3da56d209cee12f4f831b2e",
      "transactionType": "CALL",
      "contractName": null,
      "contractAddress": "0xb113959014d95c555b8a908d794e73478e5509a8",
      "function": "setTokenPriceFeed(address,address)",
      "arguments": [
        "0xED6Cfb1D2F61F75419BaB537Ca1C5351B6a4c017",
        "0xEDa712E6D5F0C989e9bdeEb8dadB2F4B4F54ACC5"
      ],
      "transaction": {
        "from": "0xee03621ce83bbf6e3931bccf35b144354f16ccf7",
        "to": "0xb113959014d95c555b8a908d794e73478e5509a8",
        "gas": "0x9afa",
        "value": "0x0",
        "input": "0x674417ae000000000000000000000000ed6cfb1d2f61f75419bab537ca1c5351b6a4c017000000000000000000000000eda712e6d5f0c989e9bdeeb8dadb2f4b4f54acc5",
        "nonce": "0x108",
        "chainId": "0x2105"
      },
      "additionalContracts": [],
      "isFixedGasLimit": false
    },
    {
      "hash": "0xde486d2f65d5634981b524bcd0cef70a6e404fe96a95e7055990c6b92d52b18d",
      "transactionType": "CALL",
      "contractName": null,
      "contractAddress": "0xb113959014d95c555b8a908d794e73478e5509a8",
      "function": "setTokenPriceFeed(address,address)",
      "arguments": [
        "0xD773084B8Cd424AD87D35bE6901255feE285A763",
        "0x43Db7FF630c993f080f315007961756f2b96Fa45"
      ],
      "transaction": {
        "from": "0xee03621ce83bbf6e3931bccf35b144354f16ccf7",
        "to": "0xb113959014d95c555b8a908d794e73478e5509a8",
        "gas": "0x9ae9",
        "value": "0x0",
        "input": "0x674417ae000000000000000000000000d773084b8cd424ad87d35be6901255fee285a76300000000000000000000000043db7ff630c993f080f315007961756f2b96fa45",
        "nonce": "0x109",
        "chainId": "0x2105"
      },
      "additionalContracts": [],
      "isFixedGasLimit": false
    },
    {
      "hash": "0x84eace2ab0183ce936bd38ded8b19f5d18db53fd37dbb3d8d4512ad1b83367a6",
      "transactionType": "CALL",
      "contractName": null,
      "contractAddress": "0xb113959014d95c555b8a908d794e73478e5509a8",
      "function": "setTokenPriceFeed(address,address)",
      "arguments": [
        "0x1D7c9083d76aD235aE44d90Bc13EcA74Ccc2Ed42",
        "0x2F7c95D1848cb0a5E36DE0D4Db04C4aFe09053dD"
      ],
      "transaction": {
        "from": "0xee03621ce83bbf6e3931bccf35b144354f16ccf7",
        "to": "0xb113959014d95c555b8a908d794e73478e5509a8",
        "gas": "0x9afa",
        "value": "0x0",
        "input": "0x674417ae0000000000000000000000001d7c9083d76ad235ae44d90bc13eca74ccc2ed420000000000000000000000002f7c95d1848cb0a5e36de0d4db04c4afe09053dd",
        "nonce": "0x10a",
        "chainId": "0x2105"
      },
      "additionalContracts": [],
      "isFixedGasLimit": false
    },
    {
      "hash": "0x7c59ab49d4c0fc9deb621c4f94c41aee9841a5b18e10db1af9f7c65e75bd6619",
      "transactionType": "CALL",
      "contractName": null,
      "contractAddress": "0xb113959014d95c555b8a908d794e73478e5509a8",
      "function": "setTokenPriceFeed(address,address)",
      "arguments": [
        "0xB7e6d4119F5E482D8d68D0AA4c81F14A082Ec917",
        "0x618942aF15f2Fe6F451bEe0E094D46df39822e74"
      ],
      "transaction": {
        "from": "0xee03621ce83bbf6e3931bccf35b144354f16ccf7",
        "to": "0xb113959014d95c555b8a908d794e73478e5509a8",
        "gas": "0x9afa",
        "value": "0x0",
        "input": "0x674417ae000000000000000000000000b7e6d4119f5e482d8d68d0aa4c81f14a082ec917000000000000000000000000618942af15f2fe6f451bee0e094d46df39822e74",
        "nonce": "0x10b",
        "chainId": "0x2105"
      },
      "additionalContracts": [],
      "isFixedGasLimit": false
    },
    {
      "hash": "0xe08813e284e1e0d9ab1d443690a7262aeece7a8a3234d32288c6c032cb8ed503",
      "transactionType": "CALL",
      "contractName": null,
      "contractAddress": "0xb113959014d95c555b8a908d794e73478e5509a8",
      "function": "setTokenPriceFeed(address,address)",
      "arguments": [
        "0xef49434AcC92ED24e7d245f748aacDE471A68F06",
        "0xBf374ffDde61Ebf4e19dC0320BD2DeD9De447EB4"
      ],
      "transaction": {
        "from": "0xee03621ce83bbf6e3931bccf35b144354f16ccf7",
        "to": "0xb113959014d95c555b8a908d794e73478e5509a8",
        "gas": "0x9afa",
        "value": "0x0",
        "input": "0x674417ae000000000000000000000000ef49434acc92ed24e7d245f748aacde471a68f06000000000000000000000000bf374ffdde61ebf4e19dc0320bd2ded9de447eb4",
        "nonce": "0x10c",
        "chainId": "0x2105"
      },
      "additionalContracts": [],
      "isFixedGasLimit": false
    },
    {
      "hash": "0xb3fb131aacbac631825d95c48c118d82ce991ed33279fc11d81440dbde3bc802",
      "transactionType": "CALL",
      "contractName": null,
      "contractAddress": "0xb113959014d95c555b8a908d794e73478e5509a8",
      "function": "setTokenPriceFeed(address,address)",
      "arguments": [
        "0x5F01296847f20Fc68C79D051AB75Fb9169096F00",
        "0x88D873c00658874996E07E98E84fF89C3Aa314c1"
      ],
      "transaction": {
        "from": "0xee03621ce83bbf6e3931bccf35b144354f16ccf7",
        "to": "0xb113959014d95c555b8a908d794e73478e5509a8",
        "gas": "0x9ae9",
        "value": "0x0",
        "input": "0x674417ae0000000000000000000000005f01296847f20fc68c79d051ab75fb9169096f0000000000000000000000000088d873c00658874996e07e98e84ff89c3aa314c1",
        "nonce": "0x10d",
        "chainId": "0x2105"
      },
      "additionalContracts": [],
      "isFixedGasLimit": false
    },
    {
      "hash": "0xb98583e1655cbce718f7a0fe424c157d3e859d45ccec40180dd07bd99bbebdfb",
      "transactionType": "CALL",
      "contractName": null,
      "contractAddress": "0xb113959014d95c555b8a908d794e73478e5509a8",
      "function": "setTokenPriceFeed(address,address)",
      "arguments": [
        "0x74Ae55CA4EaA2337f309F77A7AF1b60Ea9085FB6",
        "0x7E588B76807B0ADF014c4ceA3d9DF28d4C5E7c80"
      ],
      "transaction": {
        "from": "0xee03621ce83bbf6e3931bccf35b144354f16ccf7",
        "to": "0xb113959014d95c555b8a908d794e73478e5509a8",
        "gas": "0x9afa",
        "value": "0x0",
        "input": "0x674417ae00000000000000000000000074ae55ca4eaa2337f309f77a7af1b60ea9085fb60000000000000000000000007e588b76807b0adf014c4cea3d9df28d4c5e7c80",
        "nonce": "0x10e",
        "chainId": "0x2105"
      },
      "additionalContracts": [],
      "isFixedGasLimit": false
    },
    {
      "hash": "0x151767a500530af64a674e80de0f69adb196c8adb85fdcae254ac8d600ad3458",
      "transactionType": "CALL",
      "contractName": null,
      "contractAddress": "0xb113959014d95c555b8a908d794e73478e5509a8",
      "function": "setTokenPriceFeed(address,address)",
      "arguments": [
        "0xB2B60Bb1e9796cAE4Dc4c87f456db675871b0d2B",
        "0xc75DE9a3c001f6e5f45fb44a11fa7d92E82BAc0E"
      ],
      "transaction": {
        "from": "0xee03621ce83bbf6e3931bccf35b144354f16ccf7",
        "to": "0xb113959014d95c555b8a908d794e73478e5509a8",
        "gas": "0x9afa",
        "value": "0x0",
        "input": "0x674417ae000000000000000000000000b2b60bb1e9796cae4dc4c87f456db675871b0d2b000000000000000000000000c75de9a3c001f6e5f45fb44a11fa7d92e82bac0e",
        "nonce": "0x10f",
        "chainId": "0x2105"
      },
      "additionalContracts": [],
      "isFixedGasLimit": false
    },
    {
      "hash": "0x0a49fd260aeba09537e6e40dadd8a0bf1202a753e9c1282bbf73340eb6c8c08f",
      "transactionType": "CALL",
      "contractName": null,
      "contractAddress": "0xc60d72c8cb53842f15cffa8a0bb9dbc759e44452",
      "function": "setTokenActive(address,bool)",
      "arguments": [
        "0x0000000000000000000000000000000000000000",
        "true"
      ],
      "transaction": {
        "from": "0xee03621ce83bbf6e3931bccf35b144354f16ccf7",
        "to": "0xc60d72c8cb53842f15cffa8a0bb9dbc759e44452",
        "gas": "0x11ff7",
        "value": "0x0",
        "input": "0xe2f1b79200000000000000000000000000000000000000000000000000000000000000000000000000000000000000000000000000000000000000000000000000000001",
        "nonce": "0x110",
        "chainId": "0x2105"
      },
      "additionalContracts": [],
      "isFixedGasLimit": false
    },
    {
      "hash": "0x830b873cd00931a2d990f4c1539c79d6d6f632fb9c315e7f31068c0eaab945b9",
      "transactionType": "CALL",
      "contractName": null,
      "contractAddress": "0xc60d72c8cb53842f15cffa8a0bb9dbc759e44452",
      "function": "setTokenActive(address,bool)",
      "arguments": [
        "0x0000000000000000000000000000000000000000",
        "true"
      ],
      "transaction": {
        "from": "0xee03621ce83bbf6e3931bccf35b144354f16ccf7",
        "to": "0xc60d72c8cb53842f15cffa8a0bb9dbc759e44452",
        "gas": "0xb499",
        "value": "0x0",
        "input": "0xe2f1b79200000000000000000000000000000000000000000000000000000000000000000000000000000000000000000000000000000000000000000000000000000001",
        "nonce": "0x111",
        "chainId": "0x2105"
      },
      "additionalContracts": [],
      "isFixedGasLimit": false
    },
    {
      "hash": "0x6f84ffaef39d07b371100b58c86462e2d8385f4f377989dc4fe0f80b0590d496",
      "transactionType": "CALL",
      "contractName": null,
      "contractAddress": "0xc60d72c8cb53842f15cffa8a0bb9dbc759e44452",
      "function": "setTokenActive(address,bool)",
      "arguments": [
        "0x0000000000000000000000000000000000000000",
        "true"
      ],
      "transaction": {
        "from": "0xee03621ce83bbf6e3931bccf35b144354f16ccf7",
        "to": "0xc60d72c8cb53842f15cffa8a0bb9dbc759e44452",
        "gas": "0xb499",
        "value": "0x0",
        "input": "0xe2f1b79200000000000000000000000000000000000000000000000000000000000000000000000000000000000000000000000000000000000000000000000000000001",
        "nonce": "0x112",
        "chainId": "0x2105"
      },
      "additionalContracts": [],
      "isFixedGasLimit": false
    },
    {
      "hash": "0x2c81e25833770c672f5c044dbefa57b448e4e7b06132955d569c3a060291c793",
      "transactionType": "CALL",
      "contractName": null,
      "contractAddress": "0xc60d72c8cb53842f15cffa8a0bb9dbc759e44452",
      "function": "setTokenActive(address,bool)",
      "arguments": [
        "0x0000000000000000000000000000000000000000",
        "true"
      ],
      "transaction": {
        "from": "0xee03621ce83bbf6e3931bccf35b144354f16ccf7",
        "to": "0xc60d72c8cb53842f15cffa8a0bb9dbc759e44452",
        "gas": "0xb499",
        "value": "0x0",
        "input": "0xe2f1b79200000000000000000000000000000000000000000000000000000000000000000000000000000000000000000000000000000000000000000000000000000001",
        "nonce": "0x113",
        "chainId": "0x2105"
      },
      "additionalContracts": [],
      "isFixedGasLimit": false
    },
    {
      "hash": "0xf81771fd3f966229c2e01ed0f951d28eafef0d3760d6ceb89601646dc4860f95",
      "transactionType": "CALL",
      "contractName": null,
      "contractAddress": "0xc60d72c8cb53842f15cffa8a0bb9dbc759e44452",
      "function": "setTokenActive(address,bool)",
      "arguments": [
        "0x0000000000000000000000000000000000000000",
        "true"
      ],
      "transaction": {
        "from": "0xee03621ce83bbf6e3931bccf35b144354f16ccf7",
        "to": "0xc60d72c8cb53842f15cffa8a0bb9dbc759e44452",
        "gas": "0xb499",
        "value": "0x0",
        "input": "0xe2f1b79200000000000000000000000000000000000000000000000000000000000000000000000000000000000000000000000000000000000000000000000000000001",
        "nonce": "0x114",
        "chainId": "0x2105"
      },
      "additionalContracts": [],
      "isFixedGasLimit": false
    },
    {
      "hash": "0x2f0b95ed13b734fba3ff12f818ea4ccee6eb8d05be8be30fcb6434163694b728",
      "transactionType": "CALL",
      "contractName": null,
      "contractAddress": "0xc60d72c8cb53842f15cffa8a0bb9dbc759e44452",
      "function": "setTokenActive(address,bool)",
      "arguments": [
        "0x0000000000000000000000000000000000000000",
        "true"
      ],
      "transaction": {
        "from": "0xee03621ce83bbf6e3931bccf35b144354f16ccf7",
        "to": "0xc60d72c8cb53842f15cffa8a0bb9dbc759e44452",
        "gas": "0xb499",
        "value": "0x0",
        "input": "0xe2f1b79200000000000000000000000000000000000000000000000000000000000000000000000000000000000000000000000000000000000000000000000000000001",
        "nonce": "0x115",
        "chainId": "0x2105"
      },
      "additionalContracts": [],
      "isFixedGasLimit": false
    },
    {
      "hash": "0xc4fb569b01c36997d6c79b07d5b96cefa3c8753c30fa49a7d3c0f9c220c8d143",
      "transactionType": "CALL",
      "contractName": null,
      "contractAddress": "0xc60d72c8cb53842f15cffa8a0bb9dbc759e44452",
      "function": "setTokenActive(address,bool)",
      "arguments": [
        "0x0000000000000000000000000000000000000000",
        "true"
      ],
      "transaction": {
        "from": "0xee03621ce83bbf6e3931bccf35b144354f16ccf7",
        "to": "0xc60d72c8cb53842f15cffa8a0bb9dbc759e44452",
        "gas": "0xb499",
        "value": "0x0",
        "input": "0xe2f1b79200000000000000000000000000000000000000000000000000000000000000000000000000000000000000000000000000000000000000000000000000000001",
        "nonce": "0x116",
        "chainId": "0x2105"
      },
      "additionalContracts": [],
      "isFixedGasLimit": false
    },
    {
      "hash": "0x185cb3a314b15ae44c9a6a5cffb19b990e7e27d698eb58e277f2b3f1535fba2d",
      "transactionType": "CALL",
      "contractName": null,
      "contractAddress": "0xc60d72c8cb53842f15cffa8a0bb9dbc759e44452",
      "function": "setTokenActive(address,bool)",
      "arguments": [
        "0x0000000000000000000000000000000000000000",
        "true"
      ],
      "transaction": {
        "from": "0xee03621ce83bbf6e3931bccf35b144354f16ccf7",
        "to": "0xc60d72c8cb53842f15cffa8a0bb9dbc759e44452",
        "gas": "0xb499",
        "value": "0x0",
        "input": "0xe2f1b79200000000000000000000000000000000000000000000000000000000000000000000000000000000000000000000000000000000000000000000000000000001",
        "nonce": "0x117",
        "chainId": "0x2105"
      },
      "additionalContracts": [],
      "isFixedGasLimit": false
    },
    {
      "hash": "0xef89a0405e747d2532c78eeeb656a224857556d0a994b7b4880820d349babd2a",
      "transactionType": "CALL",
      "contractName": null,
      "contractAddress": "0xc60d72c8cb53842f15cffa8a0bb9dbc759e44452",
      "function": "setTokenActive(address,bool)",
      "arguments": [
        "0x0000000000000000000000000000000000000000",
        "true"
      ],
      "transaction": {
        "from": "0xee03621ce83bbf6e3931bccf35b144354f16ccf7",
        "to": "0xc60d72c8cb53842f15cffa8a0bb9dbc759e44452",
        "gas": "0xb499",
        "value": "0x0",
        "input": "0xe2f1b79200000000000000000000000000000000000000000000000000000000000000000000000000000000000000000000000000000000000000000000000000000001",
        "nonce": "0x118",
        "chainId": "0x2105"
      },
      "additionalContracts": [],
      "isFixedGasLimit": false
    },
    {
      "hash": "0x935aec24c0841d702eb75ce314c2753c8f2444ccd3c64f9b380734e3b7a7caaa",
      "transactionType": "CALL",
      "contractName": null,
      "contractAddress": "0xc60d72c8cb53842f15cffa8a0bb9dbc759e44452",
      "function": "setTokenActive(address,bool)",
      "arguments": [
        "0x0000000000000000000000000000000000000000",
        "true"
      ],
      "transaction": {
        "from": "0xee03621ce83bbf6e3931bccf35b144354f16ccf7",
        "to": "0xc60d72c8cb53842f15cffa8a0bb9dbc759e44452",
        "gas": "0xb499",
        "value": "0x0",
        "input": "0xe2f1b79200000000000000000000000000000000000000000000000000000000000000000000000000000000000000000000000000000000000000000000000000000001",
        "nonce": "0x119",
        "chainId": "0x2105"
      },
      "additionalContracts": [],
      "isFixedGasLimit": false
    },
    {
      "hash": "0x2f0665e623d55e7e0f588e00d7a74161e07d508554c296609d667c24f5df7052",
      "transactionType": "CALL",
      "contractName": null,
      "contractAddress": "0xc60d72c8cb53842f15cffa8a0bb9dbc759e44452",
      "function": "setTokenActive(address,bool)",
      "arguments": [
        "0x0000000000000000000000000000000000000000",
        "true"
      ],
      "transaction": {
        "from": "0xee03621ce83bbf6e3931bccf35b144354f16ccf7",
        "to": "0xc60d72c8cb53842f15cffa8a0bb9dbc759e44452",
        "gas": "0xb499",
        "value": "0x0",
        "input": "0xe2f1b79200000000000000000000000000000000000000000000000000000000000000000000000000000000000000000000000000000000000000000000000000000001",
        "nonce": "0x11a",
        "chainId": "0x2105"
      },
      "additionalContracts": [],
      "isFixedGasLimit": false
    }
  ],
  "receipts": [
    {
      "status": "0x1",
      "cumulativeGasUsed": "0x618c7e",
      "logs": [
        {
          "address": "0xb113959014d95c555b8a908d794e73478e5509a8",
          "topics": [
            "0x06450d77a493ade91a66792442980e4499d56e1565b15d80f0790f2a962a135d"
          ],
          "data": "0x000000000000000000000000e3bab20b2711e0577c46d14fd10bffc0961036c30000000000000000000000007e860098f58bbfc8648a4311b374b1d669a2bc6b",
          "blockHash": "0xbcbd783c85a970f7e706f8f432df8f60433a53b495247240585b9273ec410546",
          "blockNumber": "0x2375916",
          "blockTimestamp": "0x68f90f0f",
          "transactionHash": "0x968484fcd91ec1ed3a388ef1391dbb34636e94bb5d5b43480b502c91373fd794",
          "transactionIndex": "0x3e",
          "logIndex": "0x8f",
          "removed": false
        }
      ],
      "logsBloom": "0x00000000000000000000000000000000000000000000000000000000000000000000400000000000000000000000000000000000002000000000000000000000000000000000000000000000000000000000000000000000000000000000000000000200000000000000000000000000000000000000000000000100000000000000000000000000000000000000000000000000000000000000000000000000000000000000000000000000000000000000000000000000000000000000000000000000800000000000000000000000000000000000000000000000000000000000000000000000000000000000000000000000000000200000000000000000",
      "type": "0x2",
      "transactionHash": "0x968484fcd91ec1ed3a388ef1391dbb34636e94bb5d5b43480b502c91373fd794",
      "transactionIndex": "0x3e",
      "blockHash": "0xbcbd783c85a970f7e706f8f432df8f60433a53b495247240585b9273ec410546",
      "blockNumber": "0x2375916",
      "gasUsed": "0x7028",
      "effectiveGasPrice": "0x7e20eb",
      "from": "0xee03621ce83bbf6e3931bccf35b144354f16ccf7",
      "to": "0xb113959014d95c555b8a908d794e73478e5509a8",
      "contractAddress": null,
      "l1BaseFeeScalar": "0x8dd",
      "l1BlobBaseFee": "0x19",
      "l1BlobBaseFeeScalar": "0x101c12",
      "l1Fee": "0x4352c5e2",
      "l1GasPrice": "0x128b564e",
      "l1GasUsed": "0x640"
    },
    {
      "status": "0x1",
      "cumulativeGasUsed": "0x61fcb2",
      "logs": [
        {
          "address": "0xb113959014d95c555b8a908d794e73478e5509a8",
          "topics": [
            "0x06450d77a493ade91a66792442980e4499d56e1565b15d80f0790f2a962a135d"
          ],
          "data": "0x000000000000000000000000e29a9fbdf3d83c126c6366d7f401473ab0850e7f00000000000000000000000071041dddad3595f9ced3dccfbe3d1f4b0a16bb70",
          "blockHash": "0xbcbd783c85a970f7e706f8f432df8f60433a53b495247240585b9273ec410546",
          "blockNumber": "0x2375916",
          "transactionHash": "0x62447177632262df0a5e1d933c96e6651caa6c2751f76cf9945cc3c02aa4d38f",
          "transactionIndex": "0x3f",
          "logIndex": "0x90",
          "removed": false
        }
      ],
      "logsBloom": "0x00000000000000000000000000000000000000000000000000000000000000000000400000000000000000000000000000000000002000000000000000000000000000000000000000000000000000000000000000000000000000000000000000000200000000000000000000000000000000000000000000000100000000000000000000000000000000000000000000000000000000000000000000000000000000000000000000000000000000000000000000000000000000000000000000000000800000000000000000000000000000000000000000000000000000000000000000000000000000000000000000000000000000200000000000000000",
      "type": "0x2",
      "transactionHash": "0x62447177632262df0a5e1d933c96e6651caa6c2751f76cf9945cc3c02aa4d38f",
      "transactionIndex": "0x3f",
      "blockHash": "0xbcbd783c85a970f7e706f8f432df8f60433a53b495247240585b9273ec410546",
      "blockNumber": "0x2375916",
      "gasUsed": "0x7034",
      "effectiveGasPrice": "0x7e20eb",
      "from": "0xee03621ce83bbf6e3931bccf35b144354f16ccf7",
      "to": "0xb113959014d95c555b8a908d794e73478e5509a8",
      "contractAddress": null,
      "l1BaseFeeScalar": "0x8dd",
      "l1BlobBaseFee": "0x19",
      "l1BlobBaseFeeScalar": "0x101c12",
      "l1Fee": "0x4352c5e2",
      "l1GasPrice": "0x128b564e",
      "l1GasUsed": "0x640"
    },
    {
      "status": "0x1",
      "cumulativeGasUsed": "0x626ce6",
      "logs": [
        {
          "address": "0xb113959014d95c555b8a908d794e73478e5509a8",
          "topics": [
            "0x06450d77a493ade91a66792442980e4499d56e1565b15d80f0790f2a962a135d"
          ],
          "data": "0x000000000000000000000000ca03a4dfe09f664890ee7b46d9af4f0b6d5f6f150000000000000000000000007b7a330edc927cd77b41c198ac4fe25a6b5c2c3b",
          "blockHash": "0xbcbd783c85a970f7e706f8f432df8f60433a53b495247240585b9273ec410546",
          "blockNumber": "0x2375916",
          "blockTimestamp": "0x68f90f0f",
          "transactionHash": "0x74216ada3942418754bdb95b7661206dfcdd6bb6d65b3c3b9c649ee4efd33b9e",
          "transactionIndex": "0x40",
          "logIndex": "0x91",
          "removed": false
        }
      ],
      "logsBloom": "0x00000000000000000000000000000000000000000000000000000000000000000000400000000000000000000000000000000000002000000000000000000000000000000000000000000000000000000000000000000000000000000000000000000200000000000000000000000000000000000000000000000100000000000000000000000000000000000000000000000000000000000000000000000000000000000000000000000000000000000000000000000000000000000000000000000000800000000000000000000000000000000000000000000000000000000000000000000000000000000000000000000000000000200000000000000000",
      "type": "0x2",
      "transactionHash": "0x74216ada3942418754bdb95b7661206dfcdd6bb6d65b3c3b9c649ee4efd33b9e",
      "transactionIndex": "0x40",
      "blockHash": "0xbcbd783c85a970f7e706f8f432df8f60433a53b495247240585b9273ec410546",
      "blockNumber": "0x2375916",
      "gasUsed": "0x7034",
      "effectiveGasPrice": "0x7e20eb",
      "from": "0xee03621ce83bbf6e3931bccf35b144354f16ccf7",
      "to": "0xb113959014d95c555b8a908d794e73478e5509a8",
      "contractAddress": null,
      "l1BaseFeeScalar": "0x8dd",
      "l1BlobBaseFee": "0x19",
      "l1BlobBaseFeeScalar": "0x101c12",
      "l1Fee": "0x4352c5e2",
      "l1GasPrice": "0x128b564e",
      "l1GasUsed": "0x640"
    },
    {
      "status": "0x1",
      "cumulativeGasUsed": "0x62dd1a",
      "logs": [
        {
          "address": "0xb113959014d95c555b8a908d794e73478e5509a8",
          "topics": [
            "0x06450d77a493ade91a66792442980e4499d56e1565b15d80f0790f2a962a135d"
          ],
          "data": "0x000000000000000000000000ed6cfb1d2f61f75419bab537ca1c5351b6a4c017000000000000000000000000eda712e6d5f0c989e9bdeeb8dadb2f4b4f54acc5",
          "blockHash": "0xbcbd783c85a970f7e706f8f432df8f60433a53b495247240585b9273ec410546",
          "blockNumber": "0x2375916",
          "blockTimestamp": "0x68f90f0f",
          "transactionHash": "0x4a656c2bd5525814202f48f5637120e366cd7519f3da56d209cee12f4f831b2e",
          "transactionIndex": "0x41",
          "logIndex": "0x92",
          "removed": false
        }
      ],
      "logsBloom": "0x00000000000000000000000000000000000000000000000000000000000000000000400000000000000000000000000000000000002000000000000000000000000000000000000000000000000000000000000000000000000000000000000000000200000000000000000000000000000000000000000000000100000000000000000000000000000000000000000000000000000000000000000000000000000000000000000000000000000000000000000000000000000000000000000000000000800000000000000000000000000000000000000000000000000000000000000000000000000000000000000000000000000000200000000000000000",
      "type": "0x2",
      "transactionHash": "0x4a656c2bd5525814202f48f5637120e366cd7519f3da56d209cee12f4f831b2e",
      "transactionIndex": "0x41",
      "blockHash": "0xbcbd783c85a970f7e706f8f432df8f60433a53b495247240585b9273ec410546",
      "blockNumber": "0x2375916",
      "gasUsed": "0x7034",
      "effectiveGasPrice": "0x7e20eb",
      "from": "0xee03621ce83bbf6e3931bccf35b144354f16ccf7",
      "to": "0xb113959014d95c555b8a908d794e73478e5509a8",
      "contractAddress": null,
      "l1BaseFeeScalar": "0x8dd",
      "l1BlobBaseFee": "0x19",
      "l1BlobBaseFeeScalar": "0x101c12",
      "l1Fee": "0x4352c5e2",
      "l1GasPrice": "0x128b564e",
      "l1GasUsed": "0x640"
    },
    {
      "status": "0x1",
      "cumulativeGasUsed": "0x634d42",
      "logs": [
        {
          "address": "0xb113959014d95c555b8a908d794e73478e5509a8",
          "topics": [
            "0x06450d77a493ade91a66792442980e4499d56e1565b15d80f0790f2a962a135d"
          ],
          "data": "0x000000000000000000000000d773084b8cd424ad87d35be6901255fee285a76300000000000000000000000043db7ff630c993f080f315007961756f2b96fa45",
          "blockHash": "0xbcbd783c85a970f7e706f8f432df8f60433a53b495247240585b9273ec410546",
          "blockNumber": "0x2375916",
          "blockTimestamp": "0x68f90f0f",
          "transactionHash": "0xde486d2f65d5634981b524bcd0cef70a6e404fe96a95e7055990c6b92d52b18d",
          "transactionIndex": "0x42",
          "logIndex": "0x93",
          "removed": false
        }
      ],
      "logsBloom": "0x00000000000000000000000000000000000000000000000000000000000000000000400000000000000000000000000000000000002000000000000000000000000000000000000000000000000000000000000000000000000000000000000000000200000000000000000000000000000000000000000000000100000000000000000000000000000000000000000000000000000000000000000000000000000000000000000000000000000000000000000000000000000000000000000000000000800000000000000000000000000000000000000000000000000000000000000000000000000000000000000000000000000000200000000000000000",
      "type": "0x2",
      "transactionHash": "0xde486d2f65d5634981b524bcd0cef70a6e404fe96a95e7055990c6b92d52b18d",
      "transactionIndex": "0x42",
      "blockHash": "0xbcbd783c85a970f7e706f8f432df8f60433a53b495247240585b9273ec410546",
      "blockNumber": "0x2375916",
      "gasUsed": "0x7028",
      "effectiveGasPrice": "0x7e20eb",
      "from": "0xee03621ce83bbf6e3931bccf35b144354f16ccf7",
      "to": "0xb113959014d95c555b8a908d794e73478e5509a8",
      "contractAddress": null,
      "l1BaseFeeScalar": "0x8dd",
      "l1BlobBaseFee": "0x19",
      "l1BlobBaseFeeScalar": "0x101c12",
      "l1Fee": "0x4352c5e2",
      "l1GasPrice": "0x128b564e",
      "l1GasUsed": "0x640"
    },
    {
      "status": "0x1",
      "cumulativeGasUsed": "0x63bd76",
      "logs": [
        {
          "address": "0xb113959014d95c555b8a908d794e73478e5509a8",
          "topics": [
            "0x06450d77a493ade91a66792442980e4499d56e1565b15d80f0790f2a962a135d"
          ],
          "data": "0x0000000000000000000000001d7c9083d76ad235ae44d90bc13eca74ccc2ed420000000000000000000000002f7c95d1848cb0a5e36de0d4db04c4afe09053dd",
          "blockHash": "0xbacd55c329578a8cb00fb265ac7e4441c1941d143ed85afa7fde101865ab8978",
          "blockNumber": "0x2375916",
          "blockTimestamp": "0x68f90f0f",
          "transactionHash": "0x84eace2ab0183ce936bd38ded8b19f5d18db53fd37dbb3d8d4512ad1b83367a6",
          "transactionIndex": "0x43",
          "logIndex": "0x94",
          "removed": false
        }
      ],
      "logsBloom": "0x00000000000000000000000000000000000000000000000000000000000000000000400000000000000000000000000000000000002000000000000000000000000000000000000000000000000000000000000000000000000000000000000000000200000000000000000000000000000000000000000000000100000000000000000000000000000000000000000000000000000000000000000000000000000000000000000000000000000000000000000000000000000000000000000000000000800000000000000000000000000000000000000000000000000000000000000000000000000000000000000000000000000000200000000000000000",
      "type": "0x2",
      "transactionHash": "0x84eace2ab0183ce936bd38ded8b19f5d18db53fd37dbb3d8d4512ad1b83367a6",
      "transactionIndex": "0x43",
      "blockHash": "0xbacd55c329578a8cb00fb265ac7e4441c1941d143ed85afa7fde101865ab8978",
      "blockNumber": "0x2375916",
      "gasUsed": "0x7034",
      "effectiveGasPrice": "0x7e20eb",
      "from": "0xee03621ce83bbf6e3931bccf35b144354f16ccf7",
      "to": "0xb113959014d95c555b8a908d794e73478e5509a8",
      "contractAddress": null,
      "l1BaseFeeScalar": "0x8dd",
      "l1BlobBaseFee": "0x19",
      "l1BlobBaseFeeScalar": "0x101c12",
      "l1Fee": "0x4dc462d6",
      "l1GasPrice": "0x128b564e",
      "l1GasUsed": "0x640"
    },
    {
      "status": "0x1",
      "cumulativeGasUsed": "0x642daa",
      "logs": [
        {
          "address": "0xb113959014d95c555b8a908d794e73478e5509a8",
          "topics": [
            "0x06450d77a493ade91a66792442980e4499d56e1565b15d80f0790f2a962a135d"
          ],
          "data": "0x000000000000000000000000b7e6d4119f5e482d8d68d0aa4c81f14a082ec917000000000000000000000000618942af15f2fe6f451bee0e094d46df39822e74",
          "blockHash": "0xbcbd783c85a970f7e706f8f432df8f60433a53b495247240585b9273ec410546",
          "blockNumber": "0x2375916",
          "blockTimestamp": "0x68f90f0f",
          "transactionHash": "0x7c59ab49d4c0fc9deb621c4f94c41aee9841a5b18e10db1af9f7c65e75bd6619",
          "transactionIndex": "0x44",
          "logIndex": "0x95",
          "removed": false
        }
      ],
      "logsBloom": "0x00000000000000000000000000000000000000000000000000000000000000000000400000000000000000000000000000000000002000000000000000000000000000000000000000000000000000000000000000000000000000000000000000000200000000000000000000000000000000000000000000000100000000000000000000000000000000000000000000000000000000000000000000000000000000000000000000000000000000000000000000000000000000000000000000000000800000000000000000000000000000000000000000000000000000000000000000000000000000000000000000000000000000200000000000000000",
      "type": "0x2",
      "transactionHash": "0x7c59ab49d4c0fc9deb621c4f94c41aee9841a5b18e10db1af9f7c65e75bd6619",
      "transactionIndex": "0x44",
      "blockHash": "0xbcbd783c85a970f7e706f8f432df8f60433a53b495247240585b9273ec410546",
      "blockNumber": "0x2375916",
      "gasUsed": "0x7034",
      "effectiveGasPrice": "0x7e20eb",
      "from": "0xee03621ce83bbf6e3931bccf35b144354f16ccf7",
      "to": "0xb113959014d95c555b8a908d794e73478e5509a8",
      "contractAddress": null,
      "l1BaseFeeScalar": "0x8dd",
      "l1BlobBaseFee": "0x19",
      "l1BlobBaseFeeScalar": "0x101c12",
      "l1Fee": "0x4352c5e2",
      "l1GasPrice": "0x128b564e",
      "l1GasUsed": "0x640"
    },
    {
      "status": "0x1",
      "cumulativeGasUsed": "0x191b33b",
      "logs": [
        {
          "address": "0xb113959014d95c555b8a908d794e73478e5509a8",
          "topics": [
            "0x06450d77a493ade91a66792442980e4499d56e1565b15d80f0790f2a962a135d"
          ],
          "data": "0x000000000000000000000000ef49434acc92ed24e7d245f748aacde471a68f06000000000000000000000000bf374ffdde61ebf4e19dc0320bd2ded9de447eb4",
          "blockHash": "0xbcbd783c85a970f7e706f8f432df8f60433a53b495247240585b9273ec410546",
          "blockNumber": "0x2375916",
          "blockTimestamp": "0x68f90f0f",
          "transactionHash": "0xe08813e284e1e0d9ab1d443690a7262aeece7a8a3234d32288c6c032cb8ed503",
          "transactionIndex": "0xa3",
          "logIndex": "0x1ba",
          "removed": false
        }
      ],
      "logsBloom": "0x00000000000000000000000000000000000000000000000000000000000000000000400000000000000000000000000000000000002000000000000000000000000000000000000000000000000000000000000000000000000000000000000000000200000000000000000000000000000000000000000000000100000000000000000000000000000000000000000000000000000000000000000000000000000000000000000000000000000000000000000000000000000000000000000000000000800000000000000000000000000000000000000000000000000000000000000000000000000000000000000000000000000000200000000000000000",
      "type": "0x2",
      "transactionHash": "0xe08813e284e1e0d9ab1d443690a7262aeece7a8a3234d32288c6c032cb8ed503",
      "transactionIndex": "0xa3",
      "blockHash": "0xbcbd783c85a970f7e706f8f432df8f60433a53b495247240585b9273ec410546",
      "blockNumber": "0x2375916",
      "gasUsed": "0x7034",
      "effectiveGasPrice": "0x7e20eb",
      "from": "0xee03621ce83bbf6e3931bccf35b144354f16ccf7",
      "to": "0xb113959014d95c555b8a908d794e73478e5509a8",
      "contractAddress": null,
      "l1BaseFeeScalar": "0x8dd",
      "l1BlobBaseFee": "0x19",
      "l1BlobBaseFeeScalar": "0x101c12",
      "l1Fee": "0x4352c5e2",
      "l1GasPrice": "0x128b564e",
      "l1GasUsed": "0x640"
    },
    {
      "status": "0x1",
      "cumulativeGasUsed": "0x1adf463",
      "logs": [
        {
          "address": "0xb113959014d95c555b8a908d794e73478e5509a8",
          "topics": [
            "0x06450d77a493ade91a66792442980e4499d56e1565b15d80f0790f2a962a135d"
          ],
          "data": "0x0000000000000000000000005f01296847f20fc68c79d051ab75fb9169096f0000000000000000000000000088d873c00658874996e07e98e84ff89c3aa314c1",
          "blockHash": "0xbacd55c329578a8cb00fb265ac7e4441c1941d143ed85afa7fde101865ab8978",
          "blockNumber": "0x2375916",
          "blockTimestamp": "0x68f90f0f",
          "transactionHash": "0xb3fb131aacbac631825d95c48c118d82ce991ed33279fc11d81440dbde3bc802",
          "transactionIndex": "0xb5",
          "logIndex": "0x1dc",
          "removed": false
        }
      ],
      "logsBloom": "0x00000000000000000000000000000000000000000000000000000000000000000000400000000000000000000000000000000000002000000000000000000000000000000000000000000000000000000000000000000000000000000000000000000200000000000000000000000000000000000000000000000100000000000000000000000000000000000000000000000000000000000000000000000000000000000000000000000000000000000000000000000000000000000000000000000000800000000000000000000000000000000000000000000000000000000000000000000000000000000000000000000000000000200000000000000000",
      "type": "0x2",
      "transactionHash": "0xb3fb131aacbac631825d95c48c118d82ce991ed33279fc11d81440dbde3bc802",
      "transactionIndex": "0xb5",
      "blockHash": "0xbacd55c329578a8cb00fb265ac7e4441c1941d143ed85afa7fde101865ab8978",
      "blockNumber": "0x2375916",
      "gasUsed": "0x7028",
      "effectiveGasPrice": "0x7e20eb",
      "from": "0xee03621ce83bbf6e3931bccf35b144354f16ccf7",
      "to": "0xb113959014d95c555b8a908d794e73478e5509a8",
      "contractAddress": null,
      "l1BaseFeeScalar": "0x8dd",
      "l1BlobBaseFee": "0x19",
      "l1BlobBaseFeeScalar": "0x101c12",
      "l1Fee": "0x4dc462d6",
      "l1GasPrice": "0x128b564e",
      "l1GasUsed": "0x640"
    },
    {
      "status": "0x1",
      "cumulativeGasUsed": "0x1ae6497",
      "logs": [
        {
          "address": "0xb113959014d95c555b8a908d794e73478e5509a8",
          "topics": [
            "0x06450d77a493ade91a66792442980e4499d56e1565b15d80f0790f2a962a135d"
          ],
          "data": "0x00000000000000000000000074ae55ca4eaa2337f309f77a7af1b60ea9085fb60000000000000000000000007e588b76807b0adf014c4cea3d9df28d4c5e7c80",
          "blockHash": "0xbacd55c329578a8cb00fb265ac7e4441c1941d143ed85afa7fde101865ab8978",
          "blockNumber": "0x2375916",
          "blockTimestamp": "0x68f90f0f",
          "transactionHash": "0xb98583e1655cbce718f7a0fe424c157d3e859d45ccec40180dd07bd99bbebdfb",
          "transactionIndex": "0xb6",
          "logIndex": "0x1dd",
          "removed": false
        }
      ],
      "logsBloom": "0x00000000000000000000000000000000000000000000000000000000000000000000400000000000000000000000000000000000002000000000000000000000000000000000000000000000000000000000000000000000000000000000000000000200000000000000000000000000000000000000000000000100000000000000000000000000000000000000000000000000000000000000000000000000000000000000000000000000000000000000000000000000000000000000000000000000800000000000000000000000000000000000000000000000000000000000000000000000000000000000000000000000000000200000000000000000",
      "type": "0x2",
      "transactionHash": "0xb98583e1655cbce718f7a0fe424c157d3e859d45ccec40180dd07bd99bbebdfb",
      "transactionIndex": "0xb6",
      "blockHash": "0xbacd55c329578a8cb00fb265ac7e4441c1941d143ed85afa7fde101865ab8978",
      "blockNumber": "0x2375916",
      "gasUsed": "0x7034",
      "effectiveGasPrice": "0x7e20eb",
      "from": "0xee03621ce83bbf6e3931bccf35b144354f16ccf7",
      "to": "0xb113959014d95c555b8a908d794e73478e5509a8",
      "contractAddress": null,
      "l1BaseFeeScalar": "0x8dd",
      "l1BlobBaseFee": "0x19",
      "l1BlobBaseFeeScalar": "0x101c12",
      "l1Fee": "0x4dc462d6",
      "l1GasPrice": "0x128b564e",
      "l1GasUsed": "0x640"
    },
    {
      "status": "0x1",
      "cumulativeGasUsed": "0x1aed4cb",
      "logs": [
        {
          "address": "0xb113959014d95c555b8a908d794e73478e5509a8",
          "topics": [
            "0x06450d77a493ade91a66792442980e4499d56e1565b15d80f0790f2a962a135d"
          ],
          "data": "0x000000000000000000000000b2b60bb1e9796cae4dc4c87f456db675871b0d2b000000000000000000000000c75de9a3c001f6e5f45fb44a11fa7d92e82bac0e",
          "blockHash": "0xbcbd783c85a970f7e706f8f432df8f60433a53b495247240585b9273ec410546",
          "blockNumber": "0x2375916",
          "blockTimestamp": "0x68f90f0f",
          "transactionHash": "0x151767a500530af64a674e80de0f69adb196c8adb85fdcae254ac8d600ad3458",
          "transactionIndex": "0xb7",
          "logIndex": "0x1de",
          "removed": false
        }
      ],
      "logsBloom": "0x00000000000000000000000000000000000000000000000000000000000000000000400000000000000000000000000000000000002000000000000000000000000000000000000000000000000000000000000000000000000000000000000000000200000000000000000000000000000000000000000000000100000000000000000000000000000000000000000000000000000000000000000000000000000000000000000000000000000000000000000000000000000000000000000000000000800000000000000000000000000000000000000000000000000000000000000000000000000000000000000000000000000000200000000000000000",
      "type": "0x2",
      "transactionHash": "0x151767a500530af64a674e80de0f69adb196c8adb85fdcae254ac8d600ad3458",
      "transactionIndex": "0xb7",
      "blockHash": "0xbcbd783c85a970f7e706f8f432df8f60433a53b495247240585b9273ec410546",
      "blockNumber": "0x2375916",
      "gasUsed": "0x7034",
      "effectiveGasPrice": "0x7e20eb",
      "from": "0xee03621ce83bbf6e3931bccf35b144354f16ccf7",
      "to": "0xb113959014d95c555b8a908d794e73478e5509a8",
      "contractAddress": null,
      "l1BaseFeeScalar": "0x8dd",
      "l1BlobBaseFee": "0x19",
      "l1BlobBaseFeeScalar": "0x101c12",
      "l1Fee": "0x4352c5e2",
      "l1GasPrice": "0x128b564e",
      "l1GasUsed": "0x640"
    },
    {
      "status": "0x1",
      "cumulativeGasUsed": "0x1afa547",
      "logs": [
        {
          "address": "0xc60d72c8cb53842f15cffa8a0bb9dbc759e44452",
          "topics": [
            "0x033b55419a2dba027908fbe5a221c7df98500387bfc5bef4cbfb1e276264d205"
          ],
          "data": "0x00000000000000000000000000000000000000000000000000000000000000000000000000000000000000000000000000000000000000000000000000000001",
          "blockHash": "0xbcbd783c85a970f7e706f8f432df8f60433a53b495247240585b9273ec410546",
          "blockNumber": "0x2375916",
          "blockTimestamp": "0x68f90f0f",
          "transactionHash": "0x0a49fd260aeba09537e6e40dadd8a0bf1202a753e9c1282bbf73340eb6c8c08f",
          "transactionIndex": "0xb8",
          "logIndex": "0x1df",
          "removed": false
        }
      ],
      "logsBloom": "0x00000000000000000000000000000000000000000000000000000000000000000000000000000000000000000000000000000000000000000000000000000000000000000000000000000000000000000000000000000000000000000000000000000000000000000000000000000000000000000018000000000000000000000000000000080000000000000000000000000000000000000000000000000000100000400000000000000000000000000000000000000000000000000000000000000000000000000000000000000000000000000000000000000000000000000000000000000000000000000000000000000800000000000000000000000000",
      "type": "0x2",
      "transactionHash": "0x0a49fd260aeba09537e6e40dadd8a0bf1202a753e9c1282bbf73340eb6c8c08f",
      "transactionIndex": "0xb8",
      "blockHash": "0xbcbd783c85a970f7e706f8f432df8f60433a53b495247240585b9273ec410546",
      "blockNumber": "0x2375916",
      "gasUsed": "0xd07c",
      "effectiveGasPrice": "0x7e20eb",
      "from": "0xee03621ce83bbf6e3931bccf35b144354f16ccf7",
      "to": "0xc60d72c8cb53842f15cffa8a0bb9dbc759e44452",
      "contractAddress": null,
      "l1BaseFeeScalar": "0x8dd",
      "l1BlobBaseFee": "0x19",
      "l1BlobBaseFeeScalar": "0x101c12",
      "l1Fee": "0x4352c5e2",
      "l1GasPrice": "0x128b564e",
      "l1GasUsed": "0x640"
    },
    {
      "status": "0x1",
      "cumulativeGasUsed": "0x1b02807",
      "logs": [
        {
          "address": "0xc60d72c8cb53842f15cffa8a0bb9dbc759e44452",
          "topics": [
            "0x033b55419a2dba027908fbe5a221c7df98500387bfc5bef4cbfb1e276264d205"
          ],
          "data": "0x00000000000000000000000000000000000000000000000000000000000000000000000000000000000000000000000000000000000000000000000000000001",
          "blockHash": "0xbcbd783c85a970f7e706f8f432df8f60433a53b495247240585b9273ec410546",
          "blockNumber": "0x2375916",
          "blockTimestamp": "0x68f90f0f",
          "transactionHash": "0x830b873cd00931a2d990f4c1539c79d6d6f632fb9c315e7f31068c0eaab945b9",
          "transactionIndex": "0xb9",
          "logIndex": "0x1e0",
          "removed": false
        }
      ],
      "logsBloom": "0x00000000000000000000000000000000000000000000000000000000000000000000000000000000000000000000000000000000000000000000000000000000000000000000000000000000000000000000000000000000000000000000000000000000000000000000000000000000000000000018000000000000000000000000000000080000000000000000000000000000000000000000000000000000100000400000000000000000000000000000000000000000000000000000000000000000000000000000000000000000000000000000000000000000000000000000000000000000000000000000000000000800000000000000000000000000",
      "type": "0x2",
      "transactionHash": "0x830b873cd00931a2d990f4c1539c79d6d6f632fb9c315e7f31068c0eaab945b9",
      "transactionIndex": "0xb9",
      "blockHash": "0xbcbd783c85a970f7e706f8f432df8f60433a53b495247240585b9273ec410546",
      "blockNumber": "0x2375916",
      "gasUsed": "0x82c0",
      "effectiveGasPrice": "0x7e20eb",
      "from": "0xee03621ce83bbf6e3931bccf35b144354f16ccf7",
      "to": "0xc60d72c8cb53842f15cffa8a0bb9dbc759e44452",
      "contractAddress": null,
      "l1BaseFeeScalar": "0x8dd",
      "l1BlobBaseFee": "0x19",
      "l1BlobBaseFeeScalar": "0x101c12",
      "l1Fee": "0x4352c5e2",
      "l1GasPrice": "0x128b564e",
      "l1GasUsed": "0x640"
    },
    {
      "status": "0x1",
      "cumulativeGasUsed": "0x1b0aac7",
      "logs": [
        {
          "address": "0xc60d72c8cb53842f15cffa8a0bb9dbc759e44452",
          "topics": [
            "0x033b55419a2dba027908fbe5a221c7df98500387bfc5bef4cbfb1e276264d205"
          ],
          "data": "0x00000000000000000000000000000000000000000000000000000000000000000000000000000000000000000000000000000000000000000000000000000001",
          "blockHash": "0xbcbd783c85a970f7e706f8f432df8f60433a53b495247240585b9273ec410546",
          "blockNumber": "0x2375916",
          "transactionHash": "0x6f84ffaef39d07b371100b58c86462e2d8385f4f377989dc4fe0f80b0590d496",
          "transactionIndex": "0xba",
          "logIndex": "0x1e1",
          "removed": false
        }
      ],
      "logsBloom": "0x00000000000000000000000000000000000000000000000000000000000000000000000000000000000000000000000000000000000000000000000000000000000000000000000000000000000000000000000000000000000000000000000000000000000000000000000000000000000000000018000000000000000000000000000000080000000000000000000000000000000000000000000000000000100000400000000000000000000000000000000000000000000000000000000000000000000000000000000000000000000000000000000000000000000000000000000000000000000000000000000000000800000000000000000000000000",
      "type": "0x2",
      "transactionHash": "0x6f84ffaef39d07b371100b58c86462e2d8385f4f377989dc4fe0f80b0590d496",
      "transactionIndex": "0xba",
      "blockHash": "0xbcbd783c85a970f7e706f8f432df8f60433a53b495247240585b9273ec410546",
      "blockNumber": "0x2375916",
      "gasUsed": "0x82c0",
      "effectiveGasPrice": "0x7e20eb",
      "from": "0xee03621ce83bbf6e3931bccf35b144354f16ccf7",
      "to": "0xc60d72c8cb53842f15cffa8a0bb9dbc759e44452",
      "contractAddress": null,
      "l1BaseFeeScalar": "0x8dd",
      "l1BlobBaseFee": "0x19",
      "l1BlobBaseFeeScalar": "0x101c12",
      "l1Fee": "0x4352c5e2",
      "l1GasPrice": "0x128b564e",
      "l1GasUsed": "0x640"
    },
    {
      "status": "0x1",
      "cumulativeGasUsed": "0x1e9082f",
      "logs": [
        {
          "address": "0xc60d72c8cb53842f15cffa8a0bb9dbc759e44452",
          "topics": [
            "0x033b55419a2dba027908fbe5a221c7df98500387bfc5bef4cbfb1e276264d205"
          ],
          "data": "0x00000000000000000000000000000000000000000000000000000000000000000000000000000000000000000000000000000000000000000000000000000001",
          "blockHash": "0xbcbd783c85a970f7e706f8f432df8f60433a53b495247240585b9273ec410546",
          "blockNumber": "0x2375916",
          "blockTimestamp": "0x68f90f0f",
          "transactionHash": "0x2c81e25833770c672f5c044dbefa57b448e4e7b06132955d569c3a060291c793",
          "transactionIndex": "0xca",
          "logIndex": "0x218",
          "removed": false
        }
      ],
      "logsBloom": "0x00000000000000000000000000000000000000000000000000000000000000000000000000000000000000000000000000000000000000000000000000000000000000000000000000000000000000000000000000000000000000000000000000000000000000000000000000000000000000000018000000000000000000000000000000080000000000000000000000000000000000000000000000000000100000400000000000000000000000000000000000000000000000000000000000000000000000000000000000000000000000000000000000000000000000000000000000000000000000000000000000000800000000000000000000000000",
      "type": "0x2",
      "transactionHash": "0x2c81e25833770c672f5c044dbefa57b448e4e7b06132955d569c3a060291c793",
      "transactionIndex": "0xca",
      "blockHash": "0xbcbd783c85a970f7e706f8f432df8f60433a53b495247240585b9273ec410546",
      "blockNumber": "0x2375916",
      "gasUsed": "0x82c0",
      "effectiveGasPrice": "0x7e20eb",
      "from": "0xee03621ce83bbf6e3931bccf35b144354f16ccf7",
      "to": "0xc60d72c8cb53842f15cffa8a0bb9dbc759e44452",
      "contractAddress": null,
      "l1BaseFeeScalar": "0x8dd",
      "l1BlobBaseFee": "0x19",
      "l1BlobBaseFeeScalar": "0x101c12",
      "l1Fee": "0x4352c5e2",
      "l1GasPrice": "0x128b564e",
      "l1GasUsed": "0x640"
    },
    {
      "status": "0x1",
      "cumulativeGasUsed": "0x1e98aef",
      "logs": [
        {
          "address": "0xc60d72c8cb53842f15cffa8a0bb9dbc759e44452",
          "topics": [
            "0x033b55419a2dba027908fbe5a221c7df98500387bfc5bef4cbfb1e276264d205"
          ],
          "data": "0x00000000000000000000000000000000000000000000000000000000000000000000000000000000000000000000000000000000000000000000000000000001",
          "blockHash": "0xbcbd783c85a970f7e706f8f432df8f60433a53b495247240585b9273ec410546",
          "blockNumber": "0x2375916",
          "blockTimestamp": "0x68f90f0f",
          "transactionHash": "0xf81771fd3f966229c2e01ed0f951d28eafef0d3760d6ceb89601646dc4860f95",
          "transactionIndex": "0xcb",
          "logIndex": "0x219",
          "removed": false
        }
      ],
      "logsBloom": "0x00000000000000000000000000000000000000000000000000000000000000000000000000000000000000000000000000000000000000000000000000000000000000000000000000000000000000000000000000000000000000000000000000000000000000000000000000000000000000000018000000000000000000000000000000080000000000000000000000000000000000000000000000000000100000400000000000000000000000000000000000000000000000000000000000000000000000000000000000000000000000000000000000000000000000000000000000000000000000000000000000000800000000000000000000000000",
      "type": "0x2",
      "transactionHash": "0xf81771fd3f966229c2e01ed0f951d28eafef0d3760d6ceb89601646dc4860f95",
      "transactionIndex": "0xcb",
      "blockHash": "0xbcbd783c85a970f7e706f8f432df8f60433a53b495247240585b9273ec410546",
      "blockNumber": "0x2375916",
      "gasUsed": "0x82c0",
      "effectiveGasPrice": "0x7e20eb",
      "from": "0xee03621ce83bbf6e3931bccf35b144354f16ccf7",
      "to": "0xc60d72c8cb53842f15cffa8a0bb9dbc759e44452",
      "contractAddress": null,
      "l1BaseFeeScalar": "0x8dd",
      "l1BlobBaseFee": "0x19",
      "l1BlobBaseFeeScalar": "0x101c12",
      "l1Fee": "0x4352c5e2",
      "l1GasPrice": "0x128b564e",
      "l1GasUsed": "0x640"
    },
    {
      "status": "0x1",
      "cumulativeGasUsed": "0x1ea0daf",
      "logs": [
        {
          "address": "0xc60d72c8cb53842f15cffa8a0bb9dbc759e44452",
          "topics": [
            "0x033b55419a2dba027908fbe5a221c7df98500387bfc5bef4cbfb1e276264d205"
          ],
          "data": "0x00000000000000000000000000000000000000000000000000000000000000000000000000000000000000000000000000000000000000000000000000000001",
          "blockHash": "0xbcbd783c85a970f7e706f8f432df8f60433a53b495247240585b9273ec410546",
          "blockNumber": "0x2375916",
          "blockTimestamp": "0x68f90f0f",
          "transactionHash": "0x2f0b95ed13b734fba3ff12f818ea4ccee6eb8d05be8be30fcb6434163694b728",
          "transactionIndex": "0xcc",
          "logIndex": "0x21a",
          "removed": false
        }
      ],
      "logsBloom": "0x00000000000000000000000000000000000000000000000000000000000000000000000000000000000000000000000000000000000000000000000000000000000000000000000000000000000000000000000000000000000000000000000000000000000000000000000000000000000000000018000000000000000000000000000000080000000000000000000000000000000000000000000000000000100000400000000000000000000000000000000000000000000000000000000000000000000000000000000000000000000000000000000000000000000000000000000000000000000000000000000000000800000000000000000000000000",
      "type": "0x2",
      "transactionHash": "0x2f0b95ed13b734fba3ff12f818ea4ccee6eb8d05be8be30fcb6434163694b728",
      "transactionIndex": "0xcc",
      "blockHash": "0xbcbd783c85a970f7e706f8f432df8f60433a53b495247240585b9273ec410546",
      "blockNumber": "0x2375916",
      "gasUsed": "0x82c0",
      "effectiveGasPrice": "0x7e20eb",
      "from": "0xee03621ce83bbf6e3931bccf35b144354f16ccf7",
      "to": "0xc60d72c8cb53842f15cffa8a0bb9dbc759e44452",
      "contractAddress": null,
      "l1BaseFeeScalar": "0x8dd",
      "l1BlobBaseFee": "0x19",
      "l1BlobBaseFeeScalar": "0x101c12",
      "l1Fee": "0x4352c5e2",
      "l1GasPrice": "0x128b564e",
      "l1GasUsed": "0x640"
    },
    {
      "status": "0x1",
      "cumulativeGasUsed": "0x1ea906f",
      "logs": [
        {
          "address": "0xc60d72c8cb53842f15cffa8a0bb9dbc759e44452",
          "topics": [
            "0x033b55419a2dba027908fbe5a221c7df98500387bfc5bef4cbfb1e276264d205"
          ],
          "data": "0x00000000000000000000000000000000000000000000000000000000000000000000000000000000000000000000000000000000000000000000000000000001",
          "blockHash": "0xbcbd783c85a970f7e706f8f432df8f60433a53b495247240585b9273ec410546",
          "blockNumber": "0x2375916",
          "blockTimestamp": "0x68f90f0f",
          "transactionHash": "0xc4fb569b01c36997d6c79b07d5b96cefa3c8753c30fa49a7d3c0f9c220c8d143",
          "transactionIndex": "0xcd",
          "logIndex": "0x21b",
          "removed": false
        }
      ],
      "logsBloom": "0x00000000000000000000000000000000000000000000000000000000000000000000000000000000000000000000000000000000000000000000000000000000000000000000000000000000000000000000000000000000000000000000000000000000000000000000000000000000000000000018000000000000000000000000000000080000000000000000000000000000000000000000000000000000100000400000000000000000000000000000000000000000000000000000000000000000000000000000000000000000000000000000000000000000000000000000000000000000000000000000000000000800000000000000000000000000",
      "type": "0x2",
      "transactionHash": "0xc4fb569b01c36997d6c79b07d5b96cefa3c8753c30fa49a7d3c0f9c220c8d143",
      "transactionIndex": "0xcd",
      "blockHash": "0xbcbd783c85a970f7e706f8f432df8f60433a53b495247240585b9273ec410546",
      "blockNumber": "0x2375916",
      "gasUsed": "0x82c0",
      "effectiveGasPrice": "0x7e20eb",
      "from": "0xee03621ce83bbf6e3931bccf35b144354f16ccf7",
      "to": "0xc60d72c8cb53842f15cffa8a0bb9dbc759e44452",
      "contractAddress": null,
      "l1BaseFeeScalar": "0x8dd",
      "l1BlobBaseFee": "0x19",
      "l1BlobBaseFeeScalar": "0x101c12",
      "l1Fee": "0x4352c5e2",
      "l1GasPrice": "0x128b564e",
      "l1GasUsed": "0x640"
    },
    {
      "status": "0x1",
      "cumulativeGasUsed": "0xb0cc29",
      "logs": [
        {
          "address": "0xc60d72c8cb53842f15cffa8a0bb9dbc759e44452",
          "topics": [
            "0x033b55419a2dba027908fbe5a221c7df98500387bfc5bef4cbfb1e276264d205"
          ],
          "data": "0x00000000000000000000000000000000000000000000000000000000000000000000000000000000000000000000000000000000000000000000000000000001",
          "blockHash": "0x2d436ae04b9b96b94e4e699506ec96c21882dbb4c7781685f83012c18fe9298e",
          "blockNumber": "0x2375917",
          "blockTimestamp": "0x68f90f11",
          "transactionHash": "0x185cb3a314b15ae44c9a6a5cffb19b990e7e27d698eb58e277f2b3f1535fba2d",
          "transactionIndex": "0x28",
          "logIndex": "0xeb",
          "removed": false
        }
      ],
      "logsBloom": "0x00000000000000000000000000000000000000000000000000000000000000000000000000000000000000000000000000000000000000000000000000000000000000000000000000000000000000000000000000000000000000000000000000000000000000000000000000000000000000000018000000000000000000000000000000080000000000000000000000000000000000000000000000000000100000400000000000000000000000000000000000000000000000000000000000000000000000000000000000000000000000000000000000000000000000000000000000000000000000000000000000000800000000000000000000000000",
      "type": "0x2",
      "transactionHash": "0x185cb3a314b15ae44c9a6a5cffb19b990e7e27d698eb58e277f2b3f1535fba2d",
      "transactionIndex": "0x28",
      "blockHash": "0x2d436ae04b9b96b94e4e699506ec96c21882dbb4c7781685f83012c18fe9298e",
      "blockNumber": "0x2375917",
      "gasUsed": "0x82c0",
      "effectiveGasPrice": "0x7db61f",
      "from": "0xee03621ce83bbf6e3931bccf35b144354f16ccf7",
      "to": "0xc60d72c8cb53842f15cffa8a0bb9dbc759e44452",
      "contractAddress": null,
      "l1BaseFeeScalar": "0x8dd",
      "l1BlobBaseFee": "0x19",
      "l1BlobBaseFeeScalar": "0x101c12",
      "l1Fee": "0x4352c5e2",
      "l1GasPrice": "0x128b564e",
      "l1GasUsed": "0x640"
    },
    {
      "status": "0x1",
      "cumulativeGasUsed": "0xb14ee9",
      "logs": [
        {
          "address": "0xc60d72c8cb53842f15cffa8a0bb9dbc759e44452",
          "topics": [
            "0x033b55419a2dba027908fbe5a221c7df98500387bfc5bef4cbfb1e276264d205"
          ],
          "data": "0x00000000000000000000000000000000000000000000000000000000000000000000000000000000000000000000000000000000000000000000000000000001",
          "blockHash": "0x2d436ae04b9b96b94e4e699506ec96c21882dbb4c7781685f83012c18fe9298e",
          "blockNumber": "0x2375917",
          "blockTimestamp": "0x68f90f11",
          "transactionHash": "0xef89a0405e747d2532c78eeeb656a224857556d0a994b7b4880820d349babd2a",
          "transactionIndex": "0x29",
          "logIndex": "0xec",
          "removed": false
        }
      ],
      "logsBloom": "0x00000000000000000000000000000000000000000000000000000000000000000000000000000000000000000000000000000000000000000000000000000000000000000000000000000000000000000000000000000000000000000000000000000000000000000000000000000000000000000018000000000000000000000000000000080000000000000000000000000000000000000000000000000000100000400000000000000000000000000000000000000000000000000000000000000000000000000000000000000000000000000000000000000000000000000000000000000000000000000000000000000800000000000000000000000000",
      "type": "0x2",
      "transactionHash": "0xef89a0405e747d2532c78eeeb656a224857556d0a994b7b4880820d349babd2a",
      "transactionIndex": "0x29",
      "blockHash": "0x2d436ae04b9b96b94e4e699506ec96c21882dbb4c7781685f83012c18fe9298e",
      "blockNumber": "0x2375917",
      "gasUsed": "0x82c0",
      "effectiveGasPrice": "0x7db61f",
      "from": "0xee03621ce83bbf6e3931bccf35b144354f16ccf7",
      "to": "0xc60d72c8cb53842f15cffa8a0bb9dbc759e44452",
      "contractAddress": null,
      "l1BaseFeeScalar": "0x8dd",
      "l1BlobBaseFee": "0x19",
      "l1BlobBaseFeeScalar": "0x101c12",
      "l1Fee": "0x4352c5e2",
      "l1GasPrice": "0x128b564e",
      "l1GasUsed": "0x640"
    },
    {
      "status": "0x1",
      "cumulativeGasUsed": "0xb1d1a9",
      "logs": [
        {
          "address": "0xc60d72c8cb53842f15cffa8a0bb9dbc759e44452",
          "topics": [
            "0x033b55419a2dba027908fbe5a221c7df98500387bfc5bef4cbfb1e276264d205"
          ],
          "data": "0x00000000000000000000000000000000000000000000000000000000000000000000000000000000000000000000000000000000000000000000000000000001",
          "blockHash": "0x9b871415b7b6aca04a2415103265b63f34b5cfe28dc595f0075fe75b9da903cc",
          "blockNumber": "0x2375917",
          "blockTimestamp": "0x68f90f11",
          "transactionHash": "0x935aec24c0841d702eb75ce314c2753c8f2444ccd3c64f9b380734e3b7a7caaa",
          "transactionIndex": "0x2a",
          "logIndex": "0xed",
          "removed": false
        }
      ],
      "logsBloom": "0x00000000000000000000000000000000000000000000000000000000000000000000000000000000000000000000000000000000000000000000000000000000000000000000000000000000000000000000000000000000000000000000000000000000000000000000000000000000000000000018000000000000000000000000000000080000000000000000000000000000000000000000000000000000100000400000000000000000000000000000000000000000000000000000000000000000000000000000000000000000000000000000000000000000000000000000000000000000000000000000000000000800000000000000000000000000",
      "type": "0x2",
      "transactionHash": "0x935aec24c0841d702eb75ce314c2753c8f2444ccd3c64f9b380734e3b7a7caaa",
      "transactionIndex": "0x2a",
      "blockHash": "0x9b871415b7b6aca04a2415103265b63f34b5cfe28dc595f0075fe75b9da903cc",
      "blockNumber": "0x2375917",
      "gasUsed": "0x82c0",
      "effectiveGasPrice": "0x7db61f",
      "from": "0xee03621ce83bbf6e3931bccf35b144354f16ccf7",
      "to": "0xc60d72c8cb53842f15cffa8a0bb9dbc759e44452",
      "contractAddress": null,
      "l1BaseFeeScalar": "0x8dd",
      "l1BlobBaseFee": "0x19",
      "l1BlobBaseFeeScalar": "0x101c12",
      "l1Fee": "0x4352c5e2",
      "l1GasPrice": "0x128b564e",
      "l1GasUsed": "0x640"
    },
    {
      "status": "0x1",
      "cumulativeGasUsed": "0xb25469",
      "logs": [
        {
          "address": "0xc60d72c8cb53842f15cffa8a0bb9dbc759e44452",
          "topics": [
            "0x033b55419a2dba027908fbe5a221c7df98500387bfc5bef4cbfb1e276264d205"
          ],
          "data": "0x00000000000000000000000000000000000000000000000000000000000000000000000000000000000000000000000000000000000000000000000000000001",
          "blockHash": "0x9b871415b7b6aca04a2415103265b63f34b5cfe28dc595f0075fe75b9da903cc",
          "blockNumber": "0x2375917",
          "blockTimestamp": "0x68f90f11",
          "transactionHash": "0x2f0665e623d55e7e0f588e00d7a74161e07d508554c296609d667c24f5df7052",
          "transactionIndex": "0x2b",
          "logIndex": "0xee",
          "removed": false
        }
      ],
      "logsBloom": "0x00000000000000000000000000000000000000000000000000000000000000000000000000000000000000000000000000000000000000000000000000000000000000000000000000000000000000000000000000000000000000000000000000000000000000000000000000000000000000000018000000000000000000000000000000080000000000000000000000000000000000000000000000000000100000400000000000000000000000000000000000000000000000000000000000000000000000000000000000000000000000000000000000000000000000000000000000000000000000000000000000000800000000000000000000000000",
      "type": "0x2",
      "transactionHash": "0x2f0665e623d55e7e0f588e00d7a74161e07d508554c296609d667c24f5df7052",
      "transactionIndex": "0x2b",
      "blockHash": "0x9b871415b7b6aca04a2415103265b63f34b5cfe28dc595f0075fe75b9da903cc",
      "blockNumber": "0x2375917",
      "gasUsed": "0x82c0",
      "effectiveGasPrice": "0x7db61f",
      "from": "0xee03621ce83bbf6e3931bccf35b144354f16ccf7",
      "to": "0xc60d72c8cb53842f15cffa8a0bb9dbc759e44452",
      "contractAddress": null,
      "l1BaseFeeScalar": "0x8dd",
      "l1BlobBaseFee": "0x19",
      "l1BlobBaseFeeScalar": "0x101c12",
      "l1Fee": "0x4352c5e2",
      "l1GasPrice": "0x128b564e",
      "l1GasUsed": "0x640"
    }
  ],
  "libraries": [],
  "pending": [],
  "returns": {},
  "timestamp": 1761152804769,
  "chain": 8453,
  "commit": "0b38601"
}