{
  "transactions": [
    {
      "hash": "0x1516edbfc2e433f0ec0eba4b2f6631b57f66d4a24216de8ef2b8da46fd3367ea",
      "transactionType": "CALL",
      "contractName": null,
      "contractAddress": "0xc60d72c8cb53842f15cffa8a0bb9dbc759e44452",
      "function": "setTokenActive(address,bool)",
      "arguments": [
        "0xe3BaB20B2711e0577C46d14fd10bfFC0961036C3",
        "true"
      ],
      "transaction": {
        "from": "0xee03621ce83bbf6e3931bccf35b144354f16ccf7",
        "to": "0xc60d72c8cb53842f15cffa8a0bb9dbc759e44452",
        "gas": "0xb5e4",
        "value": "0x0",
        "input": "0xe2f1b792000000000000000000000000e3bab20b2711e0577c46d14fd10bffc0961036c30000000000000000000000000000000000000000000000000000000000000001",
        "nonce": "0xd4",
        "chainId": "0x2105"
      },
      "additionalContracts": [],
      "isFixedGasLimit": false
    },
    {
      "hash": "0xcee6af581236ed89309b0aa3b6234c88c3ce64f7e4867a4a345d27ad14629d82",
      "transactionType": "CALL",
      "contractName": null,
      "contractAddress": "0xc60d72c8cb53842f15cffa8a0bb9dbc759e44452",
      "function": "setTokenActive(address,bool)",
      "arguments": [
        "0xE29A9fBdf3d83c126C6366D7f401473Ab0850e7F",
        "true"
      ],
      "transaction": {
        "from": "0xee03621ce83bbf6e3931bccf35b144354f16ccf7",
        "to": "0xc60d72c8cb53842f15cffa8a0bb9dbc759e44452",
        "gas": "0xb5e4",
        "value": "0x0",
        "input": "0xe2f1b792000000000000000000000000e29a9fbdf3d83c126c6366d7f401473ab0850e7f0000000000000000000000000000000000000000000000000000000000000001",
        "nonce": "0xd5",
        "chainId": "0x2105"
      },
      "additionalContracts": [],
      "isFixedGasLimit": false
    },
    {
      "hash": "0x771579c5e68ba2bfb26e4630e87ae4472c103a86896b6bc0b9c64a15b6050826",
      "transactionType": "CALL",
      "contractName": null,
      "contractAddress": "0xc60d72c8cb53842f15cffa8a0bb9dbc759e44452",
      "function": "setTokenActive(address,bool)",
      "arguments": [
        "0xca03A4dFE09f664890ee7B46D9Af4F0B6d5f6f15",
        "true"
      ],
      "transaction": {
        "from": "0xee03621ce83bbf6e3931bccf35b144354f16ccf7",
        "to": "0xc60d72c8cb53842f15cffa8a0bb9dbc759e44452",
        "gas": "0x12142",
        "value": "0x0",
        "input": "0xe2f1b792000000000000000000000000ca03a4dfe09f664890ee7b46d9af4f0b6d5f6f150000000000000000000000000000000000000000000000000000000000000001",
        "nonce": "0xd6",
        "chainId": "0x2105"
      },
      "additionalContracts": [],
      "isFixedGasLimit": false
    },
    {
      "hash": "0xb8aa465add36a0966b5c7a77f645239ff6af117f6382c2b527e13b90803a25f7",
      "transactionType": "CALL",
      "contractName": null,
      "contractAddress": "0xc60d72c8cb53842f15cffa8a0bb9dbc759e44452",
      "function": "setTokenActive(address,bool)",
      "arguments": [
        "0xED6Cfb1D2F61F75419BaB537Ca1C5351B6a4c017",
        "true"
      ],
      "transaction": {
        "from": "0xee03621ce83bbf6e3931bccf35b144354f16ccf7",
        "to": "0xc60d72c8cb53842f15cffa8a0bb9dbc759e44452",
        "gas": "0x12142",
        "value": "0x0",
        "input": "0xe2f1b792000000000000000000000000ed6cfb1d2f61f75419bab537ca1c5351b6a4c0170000000000000000000000000000000000000000000000000000000000000001",
        "nonce": "0xd7",
        "chainId": "0x2105"
      },
      "additionalContracts": [],
      "isFixedGasLimit": false
    },
    {
      "hash": "0x5d8a120b3acb6ba87a094caa0f91c20e69703744933515d6ae0fb4a74cac63b8",
      "transactionType": "CALL",
      "contractName": null,
      "contractAddress": "0xc60d72c8cb53842f15cffa8a0bb9dbc759e44452",
      "function": "setTokenActive(address,bool)",
      "arguments": [
        "0xD773084B8Cd424AD87D35bE6901255feE285A763",
        "true"
      ],
      "transaction": {
        "from": "0xee03621ce83bbf6e3931bccf35b144354f16ccf7",
        "to": "0xc60d72c8cb53842f15cffa8a0bb9dbc759e44452",
        "gas": "0x12142",
        "value": "0x0",
        "input": "0xe2f1b792000000000000000000000000d773084b8cd424ad87d35be6901255fee285a7630000000000000000000000000000000000000000000000000000000000000001",
        "nonce": "0xd8",
        "chainId": "0x2105"
      },
      "additionalContracts": [],
      "isFixedGasLimit": false
    },
    {
      "hash": "0xc983bc7dd3b0ae0f5a40386edcb7c3ba75c42102939d17f1bee70fb07fda26e1",
      "transactionType": "CALL",
      "contractName": null,
      "contractAddress": "0xc60d72c8cb53842f15cffa8a0bb9dbc759e44452",
      "function": "setTokenActive(address,bool)",
      "arguments": [
        "0x1D7c9083d76aD235aE44d90Bc13EcA74Ccc2Ed42",
        "true"
      ],
      "transaction": {
        "from": "0xee03621ce83bbf6e3931bccf35b144354f16ccf7",
        "to": "0xc60d72c8cb53842f15cffa8a0bb9dbc759e44452",
        "gas": "0x12142",
        "value": "0x0",
        "input": "0xe2f1b7920000000000000000000000001d7c9083d76ad235ae44d90bc13eca74ccc2ed420000000000000000000000000000000000000000000000000000000000000001",
        "nonce": "0xd9",
        "chainId": "0x2105"
      },
      "additionalContracts": [],
      "isFixedGasLimit": false
    },
    {
      "hash": "0xdaa565ee2d85b8953c0e60e129701bbeda87bca90dbd8c2de49af7d3cc12c006",
      "transactionType": "CALL",
      "contractName": null,
      "contractAddress": "0xc60d72c8cb53842f15cffa8a0bb9dbc759e44452",
      "function": "setTokenActive(address,bool)",
      "arguments": [
        "0xB7e6d4119F5E482D8d68D0AA4c81F14A082Ec917",
        "true"
      ],
      "transaction": {
        "from": "0xee03621ce83bbf6e3931bccf35b144354f16ccf7",
        "to": "0xc60d72c8cb53842f15cffa8a0bb9dbc759e44452",
        "gas": "0x12142",
        "value": "0x0",
        "input": "0xe2f1b792000000000000000000000000b7e6d4119f5e482d8d68d0aa4c81f14a082ec9170000000000000000000000000000000000000000000000000000000000000001",
        "nonce": "0xda",
        "chainId": "0x2105"
      },
      "additionalContracts": [],
      "isFixedGasLimit": false
    },
    {
      "hash": "0xaa5cd23266ffc27e6a2c1c7a62352f68ae14fa85aa5bb882d50d23c5cb392e99",
      "transactionType": "CALL",
      "contractName": null,
      "contractAddress": "0xc60d72c8cb53842f15cffa8a0bb9dbc759e44452",
      "function": "setTokenActive(address,bool)",
      "arguments": [
        "0xef49434AcC92ED24e7d245f748aacDE471A68F06",
        "true"
      ],
      "transaction": {
        "from": "0xee03621ce83bbf6e3931bccf35b144354f16ccf7",
        "to": "0xc60d72c8cb53842f15cffa8a0bb9dbc759e44452",
        "gas": "0x12142",
        "value": "0x0",
        "input": "0xe2f1b792000000000000000000000000ef49434acc92ed24e7d245f748aacde471a68f060000000000000000000000000000000000000000000000000000000000000001",
        "nonce": "0xdb",
        "chainId": "0x2105"
      },
      "additionalContracts": [],
      "isFixedGasLimit": false
    },
    {
      "hash": "0xffc23c25953ed8091c6fa54a56dbe4a96212ac0a15b18e6d3a845561858a2db4",
      "transactionType": "CALL",
      "contractName": null,
      "contractAddress": "0xc60d72c8cb53842f15cffa8a0bb9dbc759e44452",
      "function": "setTokenActive(address,bool)",
      "arguments": [
        "0x5F01296847f20Fc68C79D051AB75Fb9169096F00",
        "true"
      ],
      "transaction": {
        "from": "0xee03621ce83bbf6e3931bccf35b144354f16ccf7",
        "to": "0xc60d72c8cb53842f15cffa8a0bb9dbc759e44452",
        "gas": "0x12133",
        "value": "0x0",
        "input": "0xe2f1b7920000000000000000000000005f01296847f20fc68c79d051ab75fb9169096f000000000000000000000000000000000000000000000000000000000000000001",
        "nonce": "0xdc",
        "chainId": "0x2105"
      },
      "additionalContracts": [],
      "isFixedGasLimit": false
    },
    {
      "hash": "0x4fc4786dba8f924cff2b7a31b369fffaa5f6a76037071d6a7414f8f55953c82a",
      "transactionType": "CALL",
      "contractName": null,
      "contractAddress": "0xc60d72c8cb53842f15cffa8a0bb9dbc759e44452",
      "function": "setTokenActive(address,bool)",
      "arguments": [
        "0x74Ae55CA4EaA2337f309F77A7AF1b60Ea9085FB6",
        "true"
      ],
      "transaction": {
        "from": "0xee03621ce83bbf6e3931bccf35b144354f16ccf7",
        "to": "0xc60d72c8cb53842f15cffa8a0bb9dbc759e44452",
        "gas": "0x12142",
        "value": "0x0",
        "input": "0xe2f1b79200000000000000000000000074ae55ca4eaa2337f309f77a7af1b60ea9085fb60000000000000000000000000000000000000000000000000000000000000001",
        "nonce": "0xdd",
        "chainId": "0x2105"
      },
      "additionalContracts": [],
      "isFixedGasLimit": false
    },
    {
      "hash": "0x49fd03676498250f31553a27e91f4717ce7871e247ef36d433efa3cbbaa2ce98",
      "transactionType": "CALL",
      "contractName": null,
      "contractAddress": "0xc60d72c8cb53842f15cffa8a0bb9dbc759e44452",
      "function": "setTokenActive(address,bool)",
      "arguments": [
        "0xB2B60Bb1e9796cAE4Dc4c87f456db675871b0d2B",
        "true"
      ],
      "transaction": {
        "from": "0xee03621ce83bbf6e3931bccf35b144354f16ccf7",
        "to": "0xc60d72c8cb53842f15cffa8a0bb9dbc759e44452",
        "gas": "0x12142",
        "value": "0x0",
        "input": "0xe2f1b792000000000000000000000000b2b60bb1e9796cae4dc4c87f456db675871b0d2b0000000000000000000000000000000000000000000000000000000000000001",
        "nonce": "0xde",
        "chainId": "0x2105"
      },
      "additionalContracts": [],
      "isFixedGasLimit": false
    }
  ],
  "receipts": [
    {
      "status": "0x1",
      "cumulativeGasUsed": "0x1cdeb69",
      "logs": [
        {
          "address": "0xc60d72c8cb53842f15cffa8a0bb9dbc759e44452",
          "topics": [
            "0x033b55419a2dba027908fbe5a221c7df98500387bfc5bef4cbfb1e276264d205"
          ],
          "data": "0x000000000000000000000000e3bab20b2711e0577c46d14fd10bffc0961036c30000000000000000000000000000000000000000000000000000000000000001",
          "blockHash": "0xa2d0a32acfbaa5292129cee725f5836e2366b121ec6ba9ddf56a78f9ba59a3d9",
          "blockNumber": "0x235f46c",
          "blockTimestamp": "0x68f645bb",
          "transactionHash": "0x1516edbfc2e433f0ec0eba4b2f6631b57f66d4a24216de8ef2b8da46fd3367ea",
          "transactionIndex": "0x93",
          "logIndex": "0x184",
          "removed": false
        }
      ],
      "logsBloom": "0x00000000000000000000000000000000000000000000000000000000000000000000000000000000000000000000000000000000000000000000000000000000000000000000000000000000000000000000000000000000000000000000000000000000000000000000000000000000000000000018000000000000000000000000000000080000000000000000000000000000000000000000000000000000100000400000000000000000000000000000000000000000000000000000000000000000000000000000000000000000000000000000000000000000000000000000000000000000000000000000000000000800000000000000000000000000",
      "type": "0x2",
      "transactionHash": "0x1516edbfc2e433f0ec0eba4b2f6631b57f66d4a24216de8ef2b8da46fd3367ea",
      "transactionIndex": "0x93",
      "blockHash": "0xa2d0a32acfbaa5292129cee725f5836e2366b121ec6ba9ddf56a78f9ba59a3d9",
      "blockNumber": "0x235f46c",
      "gasUsed": "0x83b0",
      "effectiveGasPrice": "0x46b84f",
      "from": "0xee03621ce83bbf6e3931bccf35b144354f16ccf7",
      "to": "0xc60d72c8cb53842f15cffa8a0bb9dbc759e44452",
      "contractAddress": null,
      "l1BaseFeeScalar": "0x8dd",
      "l1BlobBaseFee": "0x4",
      "l1BlobBaseFeeScalar": "0x101c12",
      "l1Fee": "0xac7dc293",
      "l1GasPrice": "0x2f835482",
      "l1GasUsed": "0x640"
    },
    {
      "status": "0x1",
      "cumulativeGasUsed": "0x20f2b4f",
      "logs": [
        {
          "address": "0xc60d72c8cb53842f15cffa8a0bb9dbc759e44452",
          "topics": [
            "0x033b55419a2dba027908fbe5a221c7df98500387bfc5bef4cbfb1e276264d205"
          ],
          "data": "0x000000000000000000000000e29a9fbdf3d83c126c6366d7f401473ab0850e7f0000000000000000000000000000000000000000000000000000000000000001",
          "blockHash": "0xa2d0a32acfbaa5292129cee725f5836e2366b121ec6ba9ddf56a78f9ba59a3d9",
          "blockNumber": "0x235f46c",
          "blockTimestamp": "0x68f645bb",
          "transactionHash": "0xcee6af581236ed89309b0aa3b6234c88c3ce64f7e4867a4a345d27ad14629d82",
          "transactionIndex": "0xaa",
          "logIndex": "0x1d1",
          "removed": false
        }
      ],
      "logsBloom": "0x00000000000000000000000000000000000000000000000000000000000000000000000000000000000000000000000000000000000000000000000000000000000000000000000000000000000000000000000000000000000000000000000000000000000000000000000000000000000000000018000000000000000000000000000000080000000000000000000000000000000000000000000000000000100000400000000000000000000000000000000000000000000000000000000000000000000000000000000000000000000000000000000000000000000000000000000000000000000000000000000000000800000000000000000000000000",
      "type": "0x2",
      "transactionHash": "0xcee6af581236ed89309b0aa3b6234c88c3ce64f7e4867a4a345d27ad14629d82",
      "transactionIndex": "0xaa",
      "blockHash": "0xa2d0a32acfbaa5292129cee725f5836e2366b121ec6ba9ddf56a78f9ba59a3d9",
      "blockNumber": "0x235f46c",
      "gasUsed": "0x83b0",
      "effectiveGasPrice": "0x46b84f",
      "from": "0xee03621ce83bbf6e3931bccf35b144354f16ccf7",
      "to": "0xc60d72c8cb53842f15cffa8a0bb9dbc759e44452",
      "contractAddress": null,
      "l1BaseFeeScalar": "0x8dd",
      "l1BlobBaseFee": "0x4",
      "l1BlobBaseFeeScalar": "0x101c12",
      "l1Fee": "0xac7dc293",
      "l1GasPrice": "0x2f835482",
      "l1GasUsed": "0x640"
    },
    {
      "status": "0x1",
      "cumulativeGasUsed": "0x246f1b5",
      "logs": [
        {
          "address": "0xc60d72c8cb53842f15cffa8a0bb9dbc759e44452",
          "topics": [
            "0x033b55419a2dba027908fbe5a221c7df98500387bfc5bef4cbfb1e276264d205"
          ],
          "data": "0x000000000000000000000000ca03a4dfe09f664890ee7b46d9af4f0b6d5f6f150000000000000000000000000000000000000000000000000000000000000001",
          "blockHash": "0xa2d0a32acfbaa5292129cee725f5836e2366b121ec6ba9ddf56a78f9ba59a3d9",
          "blockNumber": "0x235f46c",
          "blockTimestamp": "0x68f645bb",
          "transactionHash": "0x771579c5e68ba2bfb26e4630e87ae4472c103a86896b6bc0b9c64a15b6050826",
          "transactionIndex": "0xbe",
          "logIndex": "0x206",
          "removed": false
        }
      ],
      "logsBloom": "0x00000000000000000000000000000000000000000000000000000000000000000000000000000000000000000000000000000000000000000000000000000000000000000000000000000000000000000000000000000000000000000000000000000000000000000000000000000000000000000018000000000000000000000000000000080000000000000000000000000000000000000000000000000000100000400000000000000000000000000000000000000000000000000000000000000000000000000000000000000000000000000000000000000000000000000000000000000000000000000000000000000800000000000000000000000000",
      "type": "0x2",
      "transactionHash": "0x771579c5e68ba2bfb26e4630e87ae4472c103a86896b6bc0b9c64a15b6050826",
      "transactionIndex": "0xbe",
      "blockHash": "0xa2d0a32acfbaa5292129cee725f5836e2366b121ec6ba9ddf56a78f9ba59a3d9",
      "blockNumber": "0x235f46c",
      "gasUsed": "0xd16c",
      "effectiveGasPrice": "0x46b84f",
      "from": "0xee03621ce83bbf6e3931bccf35b144354f16ccf7",
      "to": "0xc60d72c8cb53842f15cffa8a0bb9dbc759e44452",
      "contractAddress": null,
      "l1BaseFeeScalar": "0x8dd",
      "l1BlobBaseFee": "0x4",
      "l1BlobBaseFeeScalar": "0x101c12",
      "l1Fee": "0xac7dc293",
      "l1GasPrice": "0x2f835482",
      "l1GasUsed": "0x640"
    },
    {
      "status": "0x1",
      "cumulativeGasUsed": "0x725b48",
      "logs": [
        {
          "address": "0xc60d72c8cb53842f15cffa8a0bb9dbc759e44452",
          "topics": [
            "0x033b55419a2dba027908fbe5a221c7df98500387bfc5bef4cbfb1e276264d205"
          ],
          "data": "0x000000000000000000000000ed6cfb1d2f61f75419bab537ca1c5351b6a4c0170000000000000000000000000000000000000000000000000000000000000001",
          "blockHash": "0x34ca39484f9cbfd87333ab3d9c06b97a3259edf9db5abf6e1d42007c8c744c6d",
          "blockNumber": "0x235f46d",
          "blockTimestamp": "0x68f645bd",
          "transactionHash": "0xb8aa465add36a0966b5c7a77f645239ff6af117f6382c2b527e13b90803a25f7",
          "transactionIndex": "0x26",
          "logIndex": "0x6c",
          "removed": false
        }
      ],
      "logsBloom": "0x00000000000000000000000000000000000000000000000000000000000000000000000000000000000000000000000000000000000000000000000000000000000000000000000000000000000000000000000000000000000000000000000000000000000000000000000000000000000000000018000000000000000000000000000000080000000000000000000000000000000000000000000000000000100000400000000000000000000000000000000000000000000000000000000000000000000000000000000000000000000000000000000000000000000000000000000000000000000000000000000000000800000000000000000000000000",
      "type": "0x2",
      "transactionHash": "0xb8aa465add36a0966b5c7a77f645239ff6af117f6382c2b527e13b90803a25f7",
      "transactionIndex": "0x26",
      "blockHash": "0x34ca39484f9cbfd87333ab3d9c06b97a3259edf9db5abf6e1d42007c8c744c6d",
      "blockNumber": "0x235f46d",
      "gasUsed": "0xd16c",
      "effectiveGasPrice": "0x4677ca",
      "from": "0xee03621ce83bbf6e3931bccf35b144354f16ccf7",
      "to": "0xc60d72c8cb53842f15cffa8a0bb9dbc759e44452",
      "contractAddress": null,
      "l1BaseFeeScalar": "0x8dd",
      "l1BlobBaseFee": "0x4",
      "l1BlobBaseFeeScalar": "0x101c12",
      "l1Fee": "0xa970f172",
      "l1GasPrice": "0x2eac40b3",
      "l1GasUsed": "0x640"
    },
    {
      "status": "0x1",
      "cumulativeGasUsed": "0x732cb4",
      "logs": [
        {
          "address": "0xc60d72c8cb53842f15cffa8a0bb9dbc759e44452",
          "topics": [
            "0x033b55419a2dba027908fbe5a221c7df98500387bfc5bef4cbfb1e276264d205"
          ],
          "data": "0x000000000000000000000000d773084b8cd424ad87d35be6901255fee285a7630000000000000000000000000000000000000000000000000000000000000001",
          "blockHash": "0x34ca39484f9cbfd87333ab3d9c06b97a3259edf9db5abf6e1d42007c8c744c6d",
          "blockNumber": "0x235f46d",
          "blockTimestamp": "0x68f645bd",
          "transactionHash": "0x5d8a120b3acb6ba87a094caa0f91c20e69703744933515d6ae0fb4a74cac63b8",
          "transactionIndex": "0x27",
          "logIndex": "0x6d",
          "removed": false
        }
      ],
      "logsBloom": "0x00000000000000000000000000000000000000000000000000000000000000000000000000000000000000000000000000000000000000000000000000000000000000000000000000000000000000000000000000000000000000000000000000000000000000000000000000000000000000000018000000000000000000000000000000080000000000000000000000000000000000000000000000000000100000400000000000000000000000000000000000000000000000000000000000000000000000000000000000000000000000000000000000000000000000000000000000000000000000000000000000000800000000000000000000000000",
      "type": "0x2",
      "transactionHash": "0x5d8a120b3acb6ba87a094caa0f91c20e69703744933515d6ae0fb4a74cac63b8",
      "transactionIndex": "0x27",
      "blockHash": "0x34ca39484f9cbfd87333ab3d9c06b97a3259edf9db5abf6e1d42007c8c744c6d",
      "blockNumber": "0x235f46d",
      "gasUsed": "0xd16c",
      "effectiveGasPrice": "0x4677ca",
      "from": "0xee03621ce83bbf6e3931bccf35b144354f16ccf7",
      "to": "0xc60d72c8cb53842f15cffa8a0bb9dbc759e44452",
      "contractAddress": null,
      "l1BaseFeeScalar": "0x8dd",
      "l1BlobBaseFee": "0x4",
      "l1BlobBaseFeeScalar": "0x101c12",
      "l1Fee": "0xa970f172",
      "l1GasPrice": "0x2eac40b3",
      "l1GasUsed": "0x640"
    },
    {
      "status": "0x1",
      "cumulativeGasUsed": "0x73fe20",
      "logs": [
        {
          "address": "0xc60d72c8cb53842f15cffa8a0bb9dbc759e44452",
          "topics": [
            "0x033b55419a2dba027908fbe5a221c7df98500387bfc5bef4cbfb1e276264d205"
          ],
          "data": "0x0000000000000000000000001d7c9083d76ad235ae44d90bc13eca74ccc2ed420000000000000000000000000000000000000000000000000000000000000001",
          "blockHash": "0x34ca39484f9cbfd87333ab3d9c06b97a3259edf9db5abf6e1d42007c8c744c6d",
          "blockNumber": "0x235f46d",
          "blockTimestamp": "0x68f645bd",
          "transactionHash": "0xc983bc7dd3b0ae0f5a40386edcb7c3ba75c42102939d17f1bee70fb07fda26e1",
          "transactionIndex": "0x28",
          "logIndex": "0x6e",
          "removed": false
        }
      ],
      "logsBloom": "0x00000000000000000000000000000000000000000000000000000000000000000000000000000000000000000000000000000000000000000000000000000000000000000000000000000000000000000000000000000000000000000000000000000000000000000000000000000000000000000018000000000000000000000000000000080000000000000000000000000000000000000000000000000000100000400000000000000000000000000000000000000000000000000000000000000000000000000000000000000000000000000000000000000000000000000000000000000000000000000000000000000800000000000000000000000000",
      "type": "0x2",
      "transactionHash": "0xc983bc7dd3b0ae0f5a40386edcb7c3ba75c42102939d17f1bee70fb07fda26e1",
      "transactionIndex": "0x28",
      "blockHash": "0x34ca39484f9cbfd87333ab3d9c06b97a3259edf9db5abf6e1d42007c8c744c6d",
      "blockNumber": "0x235f46d",
      "gasUsed": "0xd16c",
      "effectiveGasPrice": "0x4677ca",
      "from": "0xee03621ce83bbf6e3931bccf35b144354f16ccf7",
      "to": "0xc60d72c8cb53842f15cffa8a0bb9dbc759e44452",
      "contractAddress": null,
      "l1BaseFeeScalar": "0x8dd",
      "l1BlobBaseFee": "0x4",
      "l1BlobBaseFeeScalar": "0x101c12",
      "l1Fee": "0xa970f172",
      "l1GasPrice": "0x2eac40b3",
      "l1GasUsed": "0x640"
    },
    {
      "status": "0x1",
      "cumulativeGasUsed": "0x74cf8c",
      "logs": [
        {
          "address": "0xc60d72c8cb53842f15cffa8a0bb9dbc759e44452",
          "topics": [
            "0x033b55419a2dba027908fbe5a221c7df98500387bfc5bef4cbfb1e276264d205"
          ],
          "data": "0x000000000000000000000000b7e6d4119f5e482d8d68d0aa4c81f14a082ec9170000000000000000000000000000000000000000000000000000000000000001",
          "blockHash": "0x34ca39484f9cbfd87333ab3d9c06b97a3259edf9db5abf6e1d42007c8c744c6d",
          "blockNumber": "0x235f46d",
          "blockTimestamp": "0x68f645bd",
          "transactionHash": "0xdaa565ee2d85b8953c0e60e129701bbeda87bca90dbd8c2de49af7d3cc12c006",
          "transactionIndex": "0x29",
          "logIndex": "0x6f",
          "removed": false
        }
      ],
      "logsBloom": "0x00000000000000000000000000000000000000000000000000000000000000000000000000000000000000000000000000000000000000000000000000000000000000000000000000000000000000000000000000000000000000000000000000000000000000000000000000000000000000000018000000000000000000000000000000080000000000000000000000000000000000000000000000000000100000400000000000000000000000000000000000000000000000000000000000000000000000000000000000000000000000000000000000000000000000000000000000000000000000000000000000000800000000000000000000000000",
      "type": "0x2",
      "transactionHash": "0xdaa565ee2d85b8953c0e60e129701bbeda87bca90dbd8c2de49af7d3cc12c006",
      "transactionIndex": "0x29",
      "blockHash": "0x34ca39484f9cbfd87333ab3d9c06b97a3259edf9db5abf6e1d42007c8c744c6d",
      "blockNumber": "0x235f46d",
      "gasUsed": "0xd16c",
      "effectiveGasPrice": "0x4677ca",
      "from": "0xee03621ce83bbf6e3931bccf35b144354f16ccf7",
      "to": "0xc60d72c8cb53842f15cffa8a0bb9dbc759e44452",
      "contractAddress": null,
      "l1BaseFeeScalar": "0x8dd",
      "l1BlobBaseFee": "0x4",
      "l1BlobBaseFeeScalar": "0x101c12",
      "l1Fee": "0xa970f172",
      "l1GasPrice": "0x2eac40b3",
      "l1GasUsed": "0x640"
    },
    {
      "status": "0x1",
      "cumulativeGasUsed": "0x75a0f8",
      "logs": [
        {
          "address": "0xc60d72c8cb53842f15cffa8a0bb9dbc759e44452",
          "topics": [
            "0x033b55419a2dba027908fbe5a221c7df98500387bfc5bef4cbfb1e276264d205"
          ],
          "data": "0x000000000000000000000000ef49434acc92ed24e7d245f748aacde471a68f060000000000000000000000000000000000000000000000000000000000000001",
          "blockHash": "0x34ca39484f9cbfd87333ab3d9c06b97a3259edf9db5abf6e1d42007c8c744c6d",
          "blockNumber": "0x235f46d",
          "blockTimestamp": "0x68f645bd",
          "transactionHash": "0xaa5cd23266ffc27e6a2c1c7a62352f68ae14fa85aa5bb882d50d23c5cb392e99",
          "transactionIndex": "0x2a",
          "logIndex": "0x70",
          "removed": false
        }
      ],
      "logsBloom": "0x00000000000000000000000000000000000000000000000000000000000000000000000000000000000000000000000000000000000000000000000000000000000000000000000000000000000000000000000000000000000000000000000000000000000000000000000000000000000000000018000000000000000000000000000000080000000000000000000000000000000000000000000000000000100000400000000000000000000000000000000000000000000000000000000000000000000000000000000000000000000000000000000000000000000000000000000000000000000000000000000000000800000000000000000000000000",
      "type": "0x2",
      "transactionHash": "0xaa5cd23266ffc27e6a2c1c7a62352f68ae14fa85aa5bb882d50d23c5cb392e99",
      "transactionIndex": "0x2a",
      "blockHash": "0x34ca39484f9cbfd87333ab3d9c06b97a3259edf9db5abf6e1d42007c8c744c6d",
      "blockNumber": "0x235f46d",
      "gasUsed": "0xd16c",
      "effectiveGasPrice": "0x4677ca",
      "from": "0xee03621ce83bbf6e3931bccf35b144354f16ccf7",
      "to": "0xc60d72c8cb53842f15cffa8a0bb9dbc759e44452",
      "contractAddress": null,
      "l1BaseFeeScalar": "0x8dd",
      "l1BlobBaseFee": "0x4",
      "l1BlobBaseFeeScalar": "0x101c12",
      "l1Fee": "0xa970f172",
      "l1GasPrice": "0x2eac40b3",
      "l1GasUsed": "0x640"
    },
    {
      "status": "0x1",
      "cumulativeGasUsed": "0x767258",
      "logs": [
        {
          "address": "0xc60d72c8cb53842f15cffa8a0bb9dbc759e44452",
          "topics": [
            "0x033b55419a2dba027908fbe5a221c7df98500387bfc5bef4cbfb1e276264d205"
          ],
          "data": "0x0000000000000000000000005f01296847f20fc68c79d051ab75fb9169096f000000000000000000000000000000000000000000000000000000000000000001",
          "blockHash": "0x34ca39484f9cbfd87333ab3d9c06b97a3259edf9db5abf6e1d42007c8c744c6d",
          "blockNumber": "0x235f46d",
          "blockTimestamp": "0x68f645bd",
          "transactionHash": "0xffc23c25953ed8091c6fa54a56dbe4a96212ac0a15b18e6d3a845561858a2db4",
          "transactionIndex": "0x2b",
          "logIndex": "0x71",
          "removed": false
        }
      ],
      "logsBloom": "0x00000000000000000000000000000000000000000000000000000000000000000000000000000000000000000000000000000000000000000000000000000000000000000000000000000000000000000000000000000000000000000000000000000000000000000000000000000000000000000018000000000000000000000000000000080000000000000000000000000000000000000000000000000000100000400000000000000000000000000000000000000000000000000000000000000000000000000000000000000000000000000000000000000000000000000000000000000000000000000000000000000800000000000000000000000000",
      "type": "0x2",
      "transactionHash": "0xffc23c25953ed8091c6fa54a56dbe4a96212ac0a15b18e6d3a845561858a2db4",
      "transactionIndex": "0x2b",
      "blockHash": "0x34ca39484f9cbfd87333ab3d9c06b97a3259edf9db5abf6e1d42007c8c744c6d",
      "blockNumber": "0x235f46d",
      "gasUsed": "0xd160",
      "effectiveGasPrice": "0x4677ca",
      "from": "0xee03621ce83bbf6e3931bccf35b144354f16ccf7",
      "to": "0xc60d72c8cb53842f15cffa8a0bb9dbc759e44452",
      "contractAddress": null,
      "l1BaseFeeScalar": "0x8dd",
      "l1BlobBaseFee": "0x4",
      "l1BlobBaseFeeScalar": "0x101c12",
      "l1Fee": "0xa970f172",
      "l1GasPrice": "0x2eac40b3",
      "l1GasUsed": "0x640"
    },
    {
      "status": "0x1",
      "cumulativeGasUsed": "0x9cc74f",
      "logs": [
        {
          "address": "0xc60d72c8cb53842f15cffa8a0bb9dbc759e44452",
          "topics": [
            "0x033b55419a2dba027908fbe5a221c7df98500387bfc5bef4cbfb1e276264d205"
          ],
          "data": "0x00000000000000000000000074ae55ca4eaa2337f309f77a7af1b60ea9085fb60000000000000000000000000000000000000000000000000000000000000001",
          "blockHash": "0x34ca39484f9cbfd87333ab3d9c06b97a3259edf9db5abf6e1d42007c8c744c6d",
          "blockNumber": "0x235f46d",
          "blockTimestamp": "0x68f645bd",
          "transactionHash": "0x4fc4786dba8f924cff2b7a31b369fffaa5f6a76037071d6a7414f8f55953c82a",
          "transactionIndex": "0x3c",
          "logIndex": "0x8f",
          "removed": false
        }
      ],
      "logsBloom": "0x00000000000000000000000000000000000000000000000000000000000000000000000000000000000000000000000000000000000000000000000000000000000000000000000000000000000000000000000000000000000000000000000000000000000000000000000000000000000000000018000000000000000000000000000000080000000000000000000000000000000000000000000000000000100000400000000000000000000000000000000000000000000000000000000000000000000000000000000000000000000000000000000000000000000000000000000000000000000000000000000000000800000000000000000000000000",
      "type": "0x2",
      "transactionHash": "0x4fc4786dba8f924cff2b7a31b369fffaa5f6a76037071d6a7414f8f55953c82a",
      "transactionIndex": "0x3c",
      "blockHash": "0x34ca39484f9cbfd87333ab3d9c06b97a3259edf9db5abf6e1d42007c8c744c6d",
      "blockNumber": "0x235f46d",
      "gasUsed": "0xd16c",
      "effectiveGasPrice": "0x4677ca",
      "from": "0xee03621ce83bbf6e3931bccf35b144354f16ccf7",
      "to": "0xc60d72c8cb53842f15cffa8a0bb9dbc759e44452",
      "contractAddress": null,
      "l1BaseFeeScalar": "0x8dd",
      "l1BlobBaseFee": "0x4",
      "l1BlobBaseFeeScalar": "0x101c12",
      "l1Fee": "0xa970f172",
      "l1GasPrice": "0x2eac40b3",
      "l1GasUsed": "0x640"
    },
    {
      "status": "0x1",
      "cumulativeGasUsed": "0xecbdd4",
      "logs": [
        {
          "address": "0xc60d72c8cb53842f15cffa8a0bb9dbc759e44452",
          "topics": [
            "0x033b55419a2dba027908fbe5a221c7df98500387bfc5bef4cbfb1e276264d205"
          ],
          "data": "0x000000000000000000000000b2b60bb1e9796cae4dc4c87f456db675871b0d2b0000000000000000000000000000000000000000000000000000000000000001",
          "blockHash": "0x34ca39484f9cbfd87333ab3d9c06b97a3259edf9db5abf6e1d42007c8c744c6d",
          "blockNumber": "0x235f46d",
          "blockTimestamp": "0x68f645bd",
          "transactionHash": "0x49fd03676498250f31553a27e91f4717ce7871e247ef36d433efa3cbbaa2ce98",
          "transactionIndex": "0x52",
          "logIndex": "0xaa",
          "removed": false
        }
      ],
      "logsBloom": "0x00000000000000000000000000000000000000000000000000000000000000000000000000000000000000000000000000000000000000000000000000000000000000000000000000000000000000000000000000000000000000000000000000000000000000000000000000000000000000000018000000000000000000000000000000080000000000000000000000000000000000000000000000000000100000400000000000000000000000000000000000000000000000000000000000000000000000000000000000000000000000000000000000000000000000000000000000000000000000000000000000000800000000000000000000000000",
      "type": "0x2",
      "transactionHash": "0x49fd03676498250f31553a27e91f4717ce7871e247ef36d433efa3cbbaa2ce98",
      "transactionIndex": "0x52",
      "blockHash": "0x34ca39484f9cbfd87333ab3d9c06b97a3259edf9db5abf6e1d42007c8c744c6d",
      "blockNumber": "0x235f46d",
      "gasUsed": "0xd16c",
      "effectiveGasPrice": "0x4677ca",
      "from": "0xee03621ce83bbf6e3931bccf35b144354f16ccf7",
      "to": "0xc60d72c8cb53842f15cffa8a0bb9dbc759e44452",
      "contractAddress": null,
      "l1BaseFeeScalar": "0x8dd",
      "l1BlobBaseFee": "0x4",
      "l1BlobBaseFeeScalar": "0x101c12",
      "l1Fee": "0xa970f172",
      "l1GasPrice": "0x2eac40b3",
      "l1GasUsed": "0x640"
    }
  ],
  "libraries": [],
  "pending": [],
  "returns": {},
  "timestamp": 1760970175173,
  "chain": 8453,
  "commit": "403ecc4"
}