{
  "transactions": [
    {
      "hash": "0xde6f1d06f9253e6ce0059543d5f579bb95a73aa1cd79535bb227ea282751bc90",
      "transactionType": "CALL",
      "contractName": null,
      "contractAddress": "0x9b7168fc8cecee70b1beed9b5ecfcd1f649f2b1c",
      "function": "setEnforcedOptions((uint32,uint16,bytes)[])",
      "arguments": [
        "[(0, 1, 0x000301001101000000000000000000000000000493e0), (0, 1, 0x000301001101000000000000000000000000000493e0)]"
      ],
      "transaction": {
        "from": "0xee03621ce83bbf6e3931bccf35b144354f16ccf7",
        "to": "0x9b7168fc8cecee70b1beed9b5ecfcd1f649f2b1c",
        "gas": "0x14715",
        "value": "0x0",
        "input": "0xb98bd07000000000000000000000000000000000000000000000000000000000000000200000000000000000000000000000000000000000000000000000000000000002000000000000000000000000000000000000000000000000000000000000004000000000000000000000000000000000000000000000000000000000000000e00000000000000000000000000000000000000000000000000000000000000000000000000000000000000000000000000000000000000000000000000000000100000000000000000000000000000000000000000000000000000000000000600000000000000000000000000000000000000000000000000000000000000016000301001101000000000000000000000000000493e0000000000000000000000000000000000000000000000000000000000000000000000000000000000000000000000000000000000000000000000000000000000000000000000000000100000000000000000000000000000000000000000000000000000000000000600000000000000000000000000000000000000000000000000000000000000016000301001101000000000000000000000000000493e000000000000000000000",
        "nonce": "0x78",
        "chainId": "0x2105"
      },
      "additionalContracts": [],
      "isFixedGasLimit": false
    }
  ],
  "receipts": [
    {
      "status": "0x1",
      "cumulativeGasUsed": "0x2b74397",
      "logs": [
        {
          "address": "0x9b7168fc8cecee70b1beed9b5ecfcd1f649f2b1c",
          "topics": [
            "0xbe4864a8e820971c0247f5992e2da559595f7bf076a21cb5928d443d2a13b674"
          ],
          "data": "0x00000000000000000000000000000000000000000000000000000000000000200000000000000000000000000000000000000000000000000000000000000002000000000000000000000000000000000000000000000000000000000000004000000000000000000000000000000000000000000000000000000000000000e00000000000000000000000000000000000000000000000000000000000000000000000000000000000000000000000000000000000000000000000000000000100000000000000000000000000000000000000000000000000000000000000600000000000000000000000000000000000000000000000000000000000000016000301001101000000000000000000000000000493e0000000000000000000000000000000000000000000000000000000000000000000000000000000000000000000000000000000000000000000000000000000000000000000000000000100000000000000000000000000000000000000000000000000000000000000600000000000000000000000000000000000000000000000000000000000000016000301001101000000000000000000000000000493e000000000000000000000",
          "blockHash": "0x1b150167d65bcf32d838f6933502c8cafdf263d571678dbb5e08fbf13485f178",
          "blockNumber": "0x23558b3",
          "blockTimestamp": "0x68f50e49",
          "transactionHash": "0xde6f1d06f9253e6ce0059543d5f579bb95a73aa1cd79535bb227ea282751bc90",
          "transactionIndex": "0xd7",
          "logIndex": "0x2b6",
          "removed": false
        }
      ],
      "logsBloom": "0x00000000000000000000000000000000000000000000000000000000000000000000000000000000000000000000000000000000000000000000400000000000000000000000000000000000000002000000000000000000000000000000000000000000000000000000000000000000000000000000000000000000000000000000000000000000000800000000000000000000000000000000000000080000000000000000000000000000000000000000000000000000000000000000000000000000000000000000000002000000000000000001000000000000000000000000000000000000000000000000000000000000000000000000000000000000",
      "type": "0x2",
      "transactionHash": "0xde6f1d06f9253e6ce0059543d5f579bb95a73aa1cd79535bb227ea282751bc90",
      "transactionIndex": "0xd7",
      "blockHash": "0x1b150167d65bcf32d838f6933502c8cafdf263d571678dbb5e08fbf13485f178",
      "blockNumber": "0x23558b3",
      "gasUsed": "0xecce",
      "effectiveGasPrice": "0xb0a56",
      "from": "0xee03621ce83bbf6e3931bccf35b144354f16ccf7",
      "to": "0x9b7168fc8cecee70b1beed9b5ecfcd1f649f2b1c",
      "contractAddress": null,
      "l1BaseFeeScalar": "0x8dd",
      "l1BlobBaseFee": "0x1",
      "l1BlobBaseFeeScalar": "0x101c12",
      "l1Fee": "0x23ec56a7",
      "l1GasPrice": "0x871a5f2",
      "l1GasUsed": "0x752"
    }
  ],
  "libraries": [],
  "pending": [],
  "returns": {},
  "timestamp": 1760890442777,
  "chain": 8453,
  "commit": "aaddbdd"
}