{
  "transactions": [
    {
      "hash": "0x3aeec524625743e18933af011e68c942be5e79d15164ab78564c6edc1a4d393c",
      "transactionType": "CALL",
      "contractName": null,
      "contractAddress": "0xb113959014d95c555b8a908d794e73478e5509a8",
      "function": "setTokenPriceFeed(address,address)",
      "arguments": [
        "0x0000000000000000000000000000000000000000",
        "0xAC1680B08F0a1E9521910b8E807619a48E64430c"
      ],
      "transaction": {
        "from": "0xee03621ce83bbf6e3931bccf35b144354f16ccf7",
        "to": "0xb113959014d95c555b8a908d794e73478e5509a8",
        "gas": "0x1050e",
        "value": "0x0",
        "input": "0x674417ae0000000000000000000000000000000000000000000000000000000000000000000000000000000000000000ac1680b08f0a1e9521910b8e807619a48e64430c",
        "nonce": "0x11b",
        "chainId": "0x2105"
      },
      "additionalContracts": [],
      "isFixedGasLimit": false
    },
    {
      "hash": "0xbc54ccae40a13950a66a839309dbf73c6e3a36d4347663a9bb921e0d473ba5dc",
      "transactionType": "CALL",
      "contractName": null,
      "contractAddress": "0xb113959014d95c555b8a908d794e73478e5509a8",
      "function": "setTokenPriceFeed(address,address)",
      "arguments": [
        "0x0000000000000000000000000000000000000000",
        "0xAB6BCeD997cF2222a571158A9eC458FAaBD8377f"
      ],
      "transaction": {
        "from": "0xee03621ce83bbf6e3931bccf35b144354f16ccf7",
        "to": "0xb113959014d95c555b8a908d794e73478e5509a8",
        "gas": "0xa8ca",
        "value": "0x0",
        "input": "0x674417ae0000000000000000000000000000000000000000000000000000000000000000000000000000000000000000ab6bced997cf2222a571158a9ec458faabd8377f",
        "nonce": "0x11c",
        "chainId": "0x2105"
      },
      "additionalContracts": [],
      "isFixedGasLimit": false
    },
    {
      "hash": "0x9ea80203fe55fb15eec6f6b458a14dbdc51b8aa5ae682b39a1141e54ffe009aa",
      "transactionType": "CALL",
      "contractName": null,
      "contractAddress": "0xb113959014d95c555b8a908d794e73478e5509a8",
      "function": "setTokenPriceFeed(address,address)",
      "arguments": [
        "0x0000000000000000000000000000000000000000",
        "0xB383A3BAD722D80B4b0a575D8F8f5590D1c29898"
      ],
      "transaction": {
        "from": "0xee03621ce83bbf6e3931bccf35b144354f16ccf7",
        "to": "0xb113959014d95c555b8a908d794e73478e5509a8",
        "gas": "0xa8ca",
        "value": "0x0",
        "input": "0x674417ae0000000000000000000000000000000000000000000000000000000000000000000000000000000000000000b383a3bad722d80b4b0a575d8f8f5590d1c29898",
        "nonce": "0x11d",
        "chainId": "0x2105"
      },
      "additionalContracts": [],
      "isFixedGasLimit": false
    },
    {
      "hash": "0x2c3ec8be8caa7c0eefb1657e4aa03145fdba1ef56cd4ba0806db80c0bf38a358",
      "transactionType": "CALL",
      "contractName": null,
      "contractAddress": "0xb113959014d95c555b8a908d794e73478e5509a8",
      "function": "setTokenPriceFeed(address,address)",
      "arguments": [
        "0x0000000000000000000000000000000000000000",
        "0x11952d652d6B943f91a127C19E9f1bA2bdCE4C85"
      ],
      "transaction": {
        "from": "0xee03621ce83bbf6e3931bccf35b144354f16ccf7",
        "to": "0xb113959014d95c555b8a908d794e73478e5509a8",
        "gas": "0xa8ca",
        "value": "0x0",
        "input": "0x674417ae000000000000000000000000000000000000000000000000000000000000000000000000000000000000000011952d652d6b943f91a127c19e9f1ba2bdce4c85",
        "nonce": "0x11e",
        "chainId": "0x2105"
      },
      "additionalContracts": [],
      "isFixedGasLimit": false
    },
    {
      "hash": "0x40ed76bf24e5a71ab489c232dd24955c0c4b85aa9d43bf1c85afa3f7bc435bbb",
      "transactionType": "CALL",
      "contractName": null,
      "contractAddress": "0xb113959014d95c555b8a908d794e73478e5509a8",
      "function": "setTokenPriceFeed(address,address)",
      "arguments": [
        "0x0000000000000000000000000000000000000000",
        "0x772cb1a0A5B975AdDea8bd130832fd35dD803E52"
      ],
      "transaction": {
        "from": "0xee03621ce83bbf6e3931bccf35b144354f16ccf7",
        "to": "0xb113959014d95c555b8a908d794e73478e5509a8",
        "gas": "0xa8ca",
        "value": "0x0",
        "input": "0x674417ae0000000000000000000000000000000000000000000000000000000000000000000000000000000000000000772cb1a0a5b975addea8bd130832fd35dd803e52",
        "nonce": "0x11f",
        "chainId": "0x2105"
      },
      "additionalContracts": [],
      "isFixedGasLimit": false
    },
    {
      "hash": "0xf2c19b66c4964405a7e56b94d4cad9973cb227287679d60b682b2b11c2089083",
      "transactionType": "CALL",
      "contractName": null,
      "contractAddress": "0xb113959014d95c555b8a908d794e73478e5509a8",
      "function": "setTokenPriceFeed(address,address)",
      "arguments": [
        "0x0000000000000000000000000000000000000000",
        "0x56e66eF165ba1854D1E7d42F9cac63f097B9fdcf"
      ],
      "transaction": {
        "from": "0xee03621ce83bbf6e3931bccf35b144354f16ccf7",
        "to": "0xb113959014d95c555b8a908d794e73478e5509a8",
        "gas": "0xa8ca",
        "value": "0x0",
        "input": "0x674417ae000000000000000000000000000000000000000000000000000000000000000000000000000000000000000056e66ef165ba1854d1e7d42f9cac63f097b9fdcf",
        "nonce": "0x120",
        "chainId": "0x2105"
      },
      "additionalContracts": [],
      "isFixedGasLimit": false
    },
    {
      "hash": "0x0ea4e5a3678a0e2ff689a0e291f2bc9fcdb48aa30d53961bcc0f23f2d6a8b364",
      "transactionType": "CALL",
      "contractName": null,
      "contractAddress": "0xb113959014d95c555b8a908d794e73478e5509a8",
      "function": "setTokenPriceFeed(address,address)",
      "arguments": [
        "0x0000000000000000000000000000000000000000",
        "0xD7a93b1177Cfc512236670fDF50A6f92dFeE2355"
      ],
      "transaction": {
        "from": "0xee03621ce83bbf6e3931bccf35b144354f16ccf7",
        "to": "0xb113959014d95c555b8a908d794e73478e5509a8",
        "gas": "0xa8ca",
        "value": "0x0",
        "input": "0x674417ae0000000000000000000000000000000000000000000000000000000000000000000000000000000000000000d7a93b1177cfc512236670fdf50a6f92dfee2355",
        "nonce": "0x121",
        "chainId": "0x2105"
      },
      "additionalContracts": [],
      "isFixedGasLimit": false
    },
    {
      "hash": "0x8519b7986c539ddc40874d5d7a98b1887afdd2141c6b79c7e3be9ec90479e91a",
      "transactionType": "CALL",
      "contractName": null,
      "contractAddress": "0xb113959014d95c555b8a908d794e73478e5509a8",
      "function": "setTokenPriceFeed(address,address)",
      "arguments": [
        "0x0000000000000000000000000000000000000000",
        "0x4acB7B027D51868c2723bB6a1bdd0cC935B61379"
      ],
      "transaction": {
        "from": "0xee03621ce83bbf6e3931bccf35b144354f16ccf7",
        "to": "0xb113959014d95c555b8a908d794e73478e5509a8",
        "gas": "0xa8ca",
        "value": "0x0",
        "input": "0x674417ae00000000000000000000000000000000000000000000000000000000000000000000000000000000000000004acb7b027d51868c2723bb6a1bdd0cc935b61379",
        "nonce": "0x122",
        "chainId": "0x2105"
      },
      "additionalContracts": [],
      "isFixedGasLimit": false
    },
    {
      "hash": "0x64365bf08cea2289c67d6688161d3bd7a9c84a17f0f65ecb8add9fe7e0ce6be0",
      "transactionType": "CALL",
      "contractName": null,
      "contractAddress": "0xb113959014d95c555b8a908d794e73478e5509a8",
      "function": "setTokenPriceFeed(address,address)",
      "arguments": [
        "0x0000000000000000000000000000000000000000",
        "0x82F78Aec6aFE485E5c06480a786e308528D57C97"
      ],
      "transaction": {
        "from": "0xee03621ce83bbf6e3931bccf35b144354f16ccf7",
        "to": "0xb113959014d95c555b8a908d794e73478e5509a8",
        "gas": "0xa8ca",
        "value": "0x0",
        "input": "0x674417ae000000000000000000000000000000000000000000000000000000000000000000000000000000000000000082f78aec6afe485e5c06480a786e308528d57c97",
        "nonce": "0x123",
        "chainId": "0x2105"
      },
      "additionalContracts": [],
      "isFixedGasLimit": false
    },
    {
      "hash": "0x59befc14a85f4cf4868f881f90255a8c92c98c727d39e41679c5b71304518783",
      "transactionType": "CALL",
      "contractName": null,
      "contractAddress": "0xb113959014d95c555b8a908d794e73478e5509a8",
      "function": "setTokenPriceFeed(address,address)",
      "arguments": [
        "0x0000000000000000000000000000000000000000",
        "0x2a49D990B15B3c8b2Ca33BB352c0B9fc99e1Cb8D"
      ],
      "transaction": {
        "from": "0xee03621ce83bbf6e3931bccf35b144354f16ccf7",
        "to": "0xb113959014d95c555b8a908d794e73478e5509a8",
        "gas": "0xa8ca",
        "value": "0x0",
        "input": "0x674417ae00000000000000000000000000000000000000000000000000000000000000000000000000000000000000002a49d990b15b3c8b2ca33bb352c0b9fc99e1cb8d",
        "nonce": "0x124",
        "chainId": "0x2105"
      },
      "additionalContracts": [],
      "isFixedGasLimit": false
    },
    {
      "hash": "0x144cb61c34b27db95987ad99c6cf7d6225b0fdde99e66b521994c5cea1c10327",
      "transactionType": "CALL",
      "contractName": null,
      "contractAddress": "0xb113959014d95c555b8a908d794e73478e5509a8",
      "function": "setTokenPriceFeed(address,address)",
      "arguments": [
        "0x0000000000000000000000000000000000000000",
        "0x2469296eE5FAE005DC25Ed449F7fFf9eCA511Ebd"
      ],
      "transaction": {
        "from": "0xee03621ce83bbf6e3931bccf35b144354f16ccf7",
        "to": "0xb113959014d95c555b8a908d794e73478e5509a8",
        "gas": "0xa8ca",
        "value": "0x0",
        "input": "0x674417ae00000000000000000000000000000000000000000000000000000000000000000000000000000000000000002469296ee5fae005dc25ed449f7fff9eca511ebd",
        "nonce": "0x125",
        "chainId": "0x2105"
      },
      "additionalContracts": [],
      "isFixedGasLimit": false
    },
    {
      "hash": "0x058f34329d287bc3831cf9fe4820d1f325964769b7e1678f00891eaa48092e38",
      "transactionType": "CALL",
      "contractName": null,
      "contractAddress": "0xc60d72c8cb53842f15cffa8a0bb9dbc759e44452",
      "function": "setTokenActive(address,bool)",
      "arguments": [
        "0x0000000000000000000000000000000000000000",
        "true"
      ],
      "transaction": {
        "from": "0xee03621ce83bbf6e3931bccf35b144354f16ccf7",
        "to": "0xc60d72c8cb53842f15cffa8a0bb9dbc759e44452",
        "gas": "0xb499",
        "value": "0x0",
        "input": "0xe2f1b79200000000000000000000000000000000000000000000000000000000000000000000000000000000000000000000000000000000000000000000000000000001",
        "nonce": "0x126",
        "chainId": "0x2105"
      },
      "additionalContracts": [],
      "isFixedGasLimit": false
    },
    {
      "hash": "0xcd9a34d2698dc0670659a0f49a894bbd115b27c76da47d0d27dfbddee769b0cd",
      "transactionType": "CALL",
      "contractName": null,
      "contractAddress": "0xc60d72c8cb53842f15cffa8a0bb9dbc759e44452",
      "function": "setTokenActive(address,bool)",
      "arguments": [
        "0x0000000000000000000000000000000000000000",
        "true"
      ],
      "transaction": {
        "from": "0xee03621ce83bbf6e3931bccf35b144354f16ccf7",
        "to": "0xc60d72c8cb53842f15cffa8a0bb9dbc759e44452",
        "gas": "0xb499",
        "value": "0x0",
        "input": "0xe2f1b79200000000000000000000000000000000000000000000000000000000000000000000000000000000000000000000000000000000000000000000000000000001",
        "nonce": "0x127",
        "chainId": "0x2105"
      },
      "additionalContracts": [],
      "isFixedGasLimit": false
    },
    {
      "hash": "0x6c5e6f593be1fd5a53d2369c6f5e53ddc7ca9bbf77013ccc4dd161773489434a",
      "transactionType": "CALL",
      "contractName": null,
      "contractAddress": "0xc60d72c8cb53842f15cffa8a0bb9dbc759e44452",
      "function": "setTokenActive(address,bool)",
      "arguments": [
        "0x0000000000000000000000000000000000000000",
        "true"
      ],
      "transaction": {
        "from": "0xee03621ce83bbf6e3931bccf35b144354f16ccf7",
        "to": "0xc60d72c8cb53842f15cffa8a0bb9dbc759e44452",
        "gas": "0xb499",
        "value": "0x0",
        "input": "0xe2f1b79200000000000000000000000000000000000000000000000000000000000000000000000000000000000000000000000000000000000000000000000000000001",
        "nonce": "0x128",
        "chainId": "0x2105"
      },
      "additionalContracts": [],
      "isFixedGasLimit": false
    },
    {
      "hash": "0x34daaabe461b15ceadc6d50bbc90f10b644f1840eb20860e78242ff3fb4079a1",
      "transactionType": "CALL",
      "contractName": null,
      "contractAddress": "0xc60d72c8cb53842f15cffa8a0bb9dbc759e44452",
      "function": "setTokenActive(address,bool)",
      "arguments": [
        "0x0000000000000000000000000000000000000000",
        "true"
      ],
      "transaction": {
        "from": "0xee03621ce83bbf6e3931bccf35b144354f16ccf7",
        "to": "0xc60d72c8cb53842f15cffa8a0bb9dbc759e44452",
        "gas": "0xb499",
        "value": "0x0",
        "input": "0xe2f1b79200000000000000000000000000000000000000000000000000000000000000000000000000000000000000000000000000000000000000000000000000000001",
        "nonce": "0x129",
        "chainId": "0x2105"
      },
      "additionalContracts": [],
      "isFixedGasLimit": false
    },
    {
      "hash": "0xaa459fbbec872b380d3930e7ec5b2fc1f851cb563c4b672e4335246d0a43448d",
      "transactionType": "CALL",
      "contractName": null,
      "contractAddress": "0xc60d72c8cb53842f15cffa8a0bb9dbc759e44452",
      "function": "setTokenActive(address,bool)",
      "arguments": [
        "0x0000000000000000000000000000000000000000",
        "true"
      ],
      "transaction": {
        "from": "0xee03621ce83bbf6e3931bccf35b144354f16ccf7",
        "to": "0xc60d72c8cb53842f15cffa8a0bb9dbc759e44452",
        "gas": "0xb499",
        "value": "0x0",
        "input": "0xe2f1b79200000000000000000000000000000000000000000000000000000000000000000000000000000000000000000000000000000000000000000000000000000001",
        "nonce": "0x12a",
        "chainId": "0x2105"
      },
      "additionalContracts": [],
      "isFixedGasLimit": false
    },
    {
      "hash": "0x74977fcde900a8bdf953ec41c3a986336620b6cca683f72c101a06e03a2748a6",
      "transactionType": "CALL",
      "contractName": null,
      "contractAddress": "0xc60d72c8cb53842f15cffa8a0bb9dbc759e44452",
      "function": "setTokenActive(address,bool)",
      "arguments": [
        "0x0000000000000000000000000000000000000000",
        "true"
      ],
      "transaction": {
        "from": "0xee03621ce83bbf6e3931bccf35b144354f16ccf7",
        "to": "0xc60d72c8cb53842f15cffa8a0bb9dbc759e44452",
        "gas": "0xb499",
        "value": "0x0",
        "input": "0xe2f1b79200000000000000000000000000000000000000000000000000000000000000000000000000000000000000000000000000000000000000000000000000000001",
        "nonce": "0x12b",
        "chainId": "0x2105"
      },
      "additionalContracts": [],
      "isFixedGasLimit": false
    },
    {
      "hash": "0x3d63b006337667c4026ca904baebbfd08e886ab540997eee89cb135cb2fff06f",
      "transactionType": "CALL",
      "contractName": null,
      "contractAddress": "0xc60d72c8cb53842f15cffa8a0bb9dbc759e44452",
      "function": "setTokenActive(address,bool)",
      "arguments": [
        "0x0000000000000000000000000000000000000000",
        "true"
      ],
      "transaction": {
        "from": "0xee03621ce83bbf6e3931bccf35b144354f16ccf7",
        "to": "0xc60d72c8cb53842f15cffa8a0bb9dbc759e44452",
        "gas": "0xb499",
        "value": "0x0",
        "input": "0xe2f1b79200000000000000000000000000000000000000000000000000000000000000000000000000000000000000000000000000000000000000000000000000000001",
        "nonce": "0x12c",
        "chainId": "0x2105"
      },
      "additionalContracts": [],
      "isFixedGasLimit": false
    },
    {
      "hash": "0x03a641d1b48867bc6f61addcdb281ff7a0c85a26cfb74157f67df351caa618e5",
      "transactionType": "CALL",
      "contractName": null,
      "contractAddress": "0xc60d72c8cb53842f15cffa8a0bb9dbc759e44452",
      "function": "setTokenActive(address,bool)",
      "arguments": [
        "0x0000000000000000000000000000000000000000",
        "true"
      ],
      "transaction": {
        "from": "0xee03621ce83bbf6e3931bccf35b144354f16ccf7",
        "to": "0xc60d72c8cb53842f15cffa8a0bb9dbc759e44452",
        "gas": "0xb499",
        "value": "0x0",
        "input": "0xe2f1b79200000000000000000000000000000000000000000000000000000000000000000000000000000000000000000000000000000000000000000000000000000001",
        "nonce": "0x12d",
        "chainId": "0x2105"
      },
      "additionalContracts": [],
      "isFixedGasLimit": false
    },
    {
      "hash": "0x6f61f47cd5a11640c13aacf83d1013de23ad42a031ffd5ebf8637e8213d943d4",
      "transactionType": "CALL",
      "contractName": null,
      "contractAddress": "0xc60d72c8cb53842f15cffa8a0bb9dbc759e44452",
      "function": "setTokenActive(address,bool)",
      "arguments": [
        "0x0000000000000000000000000000000000000000",
        "true"
      ],
      "transaction": {
        "from": "0xee03621ce83bbf6e3931bccf35b144354f16ccf7",
        "to": "0xc60d72c8cb53842f15cffa8a0bb9dbc759e44452",
        "gas": "0xb499",
        "value": "0x0",
        "input": "0xe2f1b79200000000000000000000000000000000000000000000000000000000000000000000000000000000000000000000000000000000000000000000000000000001",
        "nonce": "0x12e",
        "chainId": "0x2105"
      },
      "additionalContracts": [],
      "isFixedGasLimit": false
    },
    {
      "hash": "0x29f49b948eb0cca844430bfae34513b0c9d21ffd629f57dd202e7a26d3174f29",
      "transactionType": "CALL",
      "contractName": null,
      "contractAddress": "0xc60d72c8cb53842f15cffa8a0bb9dbc759e44452",
      "function": "setTokenActive(address,bool)",
      "arguments": [
        "0x0000000000000000000000000000000000000000",
        "true"
      ],
      "transaction": {
        "from": "0xee03621ce83bbf6e3931bccf35b144354f16ccf7",
        "to": "0xc60d72c8cb53842f15cffa8a0bb9dbc759e44452",
        "gas": "0xb499",
        "value": "0x0",
        "input": "0xe2f1b79200000000000000000000000000000000000000000000000000000000000000000000000000000000000000000000000000000000000000000000000000000001",
        "nonce": "0x12f",
        "chainId": "0x2105"
      },
      "additionalContracts": [],
      "isFixedGasLimit": false
    },
    {
      "hash": "0x1605833564e21d19f1d107176b82c4a77c87c3bd678dd741058905b490087f2d",
      "transactionType": "CALL",
      "contractName": null,
      "contractAddress": "0xc60d72c8cb53842f15cffa8a0bb9dbc759e44452",
      "function": "setTokenActive(address,bool)",
      "arguments": [
        "0x0000000000000000000000000000000000000000",
        "true"
      ],
      "transaction": {
        "from": "0xee03621ce83bbf6e3931bccf35b144354f16ccf7",
        "to": "0xc60d72c8cb53842f15cffa8a0bb9dbc759e44452",
        "gas": "0xb499",
        "value": "0x0",
        "input": "0xe2f1b79200000000000000000000000000000000000000000000000000000000000000000000000000000000000000000000000000000000000000000000000000000001",
        "nonce": "0x130",
        "chainId": "0x2105"
      },
      "additionalContracts": [],
      "isFixedGasLimit": false
    }
  ],
  "receipts": [
    {
      "status": "0x1",
      "cumulativeGasUsed": "0x2220e1d",
      "logs": [
        {
          "address": "0xb113959014d95c555b8a908d794e73478e5509a8",
          "topics": [
            "0x06450d77a493ade91a66792442980e4499d56e1565b15d80f0790f2a962a135d"
          ],
          "data": "0x0000000000000000000000000000000000000000000000000000000000000000000000000000000000000000ac1680b08f0a1e9521910b8e807619a48e64430c",
          "blockHash": "0xf0934d6180f15a96cf73ad5727a8e93580c2a65d7fe3469bb571296f5de997b0",
          "blockNumber": "0x237599c",
          "blockTimestamp": "0x68f9101b",
          "transactionHash": "0x3aeec524625743e18933af011e68c942be5e79d15164ab78564c6edc1a4d393c",
          "transactionIndex": "0xd3",
          "logIndex": "0x215",
          "removed": false
        }
      ],
      "logsBloom": "0x00000000000000000000000000000000000000000000000000000000000000000000400000000000000000000000000000000000002000000000000000000000000000000000000000000000000000000000000000000000000000000000000000000200000000000000000000000000000000000000000000000100000000000000000000000000000000000000000000000000000000000000000000000000000000000000000000000000000000000000000000000000000000000000000000000000800000000000000000000000000000000000000000000000000000000000000000000000000000000000000000000000000000200000000000000000",
      "type": "0x2",
      "transactionHash": "0x3aeec524625743e18933af011e68c942be5e79d15164ab78564c6edc1a4d393c",
      "transactionIndex": "0xd3",
      "blockHash": "0xf0934d6180f15a96cf73ad5727a8e93580c2a65d7fe3469bb571296f5de997b0",
      "blockNumber": "0x237599c",
      "gasUsed": "0xbd00",
      "effectiveGasPrice": "0x6df80c",
      "from": "0xee03621ce83bbf6e3931bccf35b144354f16ccf7",
      "to": "0xb113959014d95c555b8a908d794e73478e5509a8",
      "contractAddress": null,
      "l1BaseFeeScalar": "0x8dd",
      "l1BlobBaseFee": "0x17",
      "l1BlobBaseFeeScalar": "0x101c12",
      "l1Fee": "0x3b6c5670",
      "l1GasPrice": "0x105e4133",
      "l1GasUsed": "0x640"
    },
    {
      "status": "0x1",
      "cumulativeGasUsed": "0x2228851",
      "logs": [
        {
          "address": "0xb113959014d95c555b8a908d794e73478e5509a8",
          "topics": [
            "0x06450d77a493ade91a66792442980e4499d56e1565b15d80f0790f2a962a135d"
          ],
          "data": "0x0000000000000000000000000000000000000000000000000000000000000000000000000000000000000000ab6bced997cf2222a571158a9ec458faabd8377f",
          "blockHash": "0xf0934d6180f15a96cf73ad5727a8e93580c2a65d7fe3469bb571296f5de997b0",
          "blockNumber": "0x237599c",
          "blockTimestamp": "0x68f9101b",
          "transactionHash": "0xbc54ccae40a13950a66a839309dbf73c6e3a36d4347663a9bb921e0d473ba5dc",
          "transactionIndex": "0xd4",
          "logIndex": "0x216",
          "removed": false
        }
      ],
      "logsBloom": "0x00000000000000000000000000000000000000000000000000000000000000000000400000000000000000000000000000000000002000000000000000000000000000000000000000000000000000000000000000000000000000000000000000000200000000000000000000000000000000000000000000000100000000000000000000000000000000000000000000000000000000000000000000000000000000000000000000000000000000000000000000000000000000000000000000000000800000000000000000000000000000000000000000000000000000000000000000000000000000000000000000000000000000200000000000000000",
      "type": "0x2",
      "transactionHash": "0xbc54ccae40a13950a66a839309dbf73c6e3a36d4347663a9bb921e0d473ba5dc",
      "transactionIndex": "0xd4",
      "blockHash": "0xf0934d6180f15a96cf73ad5727a8e93580c2a65d7fe3469bb571296f5de997b0",
      "blockNumber": "0x237599c",
      "gasUsed": "0x7a34",
      "effectiveGasPrice": "0x6df80c",
      "from": "0xee03621ce83bbf6e3931bccf35b144354f16ccf7",
      "to": "0xb113959014d95c555b8a908d794e73478e5509a8",
      "contractAddress": null,
      "l1BaseFeeScalar": "0x8dd",
      "l1BlobBaseFee": "0x17",
      "l1BlobBaseFeeScalar": "0x101c12",
      "l1Fee": "0x3b6c5670",
      "l1GasPrice": "0x105e4133",
      "l1GasUsed": "0x640"
    },
    {
      "status": "0x1",
      "cumulativeGasUsed": "0x2230285",
      "logs": [
        {
          "address": "0xb113959014d95c555b8a908d794e73478e5509a8",
          "topics": [
            "0x06450d77a493ade91a66792442980e4499d56e1565b15d80f0790f2a962a135d"
          ],
          "data": "0x0000000000000000000000000000000000000000000000000000000000000000000000000000000000000000b383a3bad722d80b4b0a575d8f8f5590d1c29898",
          "blockHash": "0xf0934d6180f15a96cf73ad5727a8e93580c2a65d7fe3469bb571296f5de997b0",
          "blockNumber": "0x237599c",
          "blockTimestamp": "0x68f9101b",
          "transactionHash": "0x9ea80203fe55fb15eec6f6b458a14dbdc51b8aa5ae682b39a1141e54ffe009aa",
          "transactionIndex": "0xd5",
          "logIndex": "0x217",
          "removed": false
        }
      ],
      "logsBloom": "0x00000000000000000000000000000000000000000000000000000000000000000000400000000000000000000000000000000000002000000000000000000000000000000000000000000000000000000000000000000000000000000000000000000200000000000000000000000000000000000000000000000100000000000000000000000000000000000000000000000000000000000000000000000000000000000000000000000000000000000000000000000000000000000000000000000000800000000000000000000000000000000000000000000000000000000000000000000000000000000000000000000000000000200000000000000000",
      "type": "0x2",
      "transactionHash": "0x9ea80203fe55fb15eec6f6b458a14dbdc51b8aa5ae682b39a1141e54ffe009aa",
      "transactionIndex": "0xd5",
      "blockHash": "0xf0934d6180f15a96cf73ad5727a8e93580c2a65d7fe3469bb571296f5de997b0",
      "blockNumber": "0x237599c",
      "gasUsed": "0x7a34",
      "effectiveGasPrice": "0x6df80c",
      "from": "0xee03621ce83bbf6e3931bccf35b144354f16ccf7",
      "to": "0xb113959014d95c555b8a908d794e73478e5509a8",
      "contractAddress": null,
      "l1BaseFeeScalar": "0x8dd",
      "l1BlobBaseFee": "0x17",
      "l1BlobBaseFeeScalar": "0x101c12",
      "l1Fee": "0x3b6c5670",
      "l1GasPrice": "0x105e4133",
      "l1GasUsed": "0x640"
    },
    {
      "status": "0x1",
      "cumulativeGasUsed": "0x2237cb9",
      "logs": [
        {
          "address": "0xb113959014d95c555b8a908d794e73478e5509a8",
          "topics": [
            "0x06450d77a493ade91a66792442980e4499d56e1565b15d80f0790f2a962a135d"
          ],
          "data": "0x000000000000000000000000000000000000000000000000000000000000000000000000000000000000000011952d652d6b943f91a127c19e9f1ba2bdce4c85",
          "blockHash": "0xf0934d6180f15a96cf73ad5727a8e93580c2a65d7fe3469bb571296f5de997b0",
          "blockNumber": "0x237599c",
          "blockTimestamp": "0x68f9101b",
          "transactionHash": "0x2c3ec8be8caa7c0eefb1657e4aa03145fdba1ef56cd4ba0806db80c0bf38a358",
          "transactionIndex": "0xd6",
          "logIndex": "0x218",
          "removed": false
        }
      ],
      "logsBloom": "0x00000000000000000000000000000000000000000000000000000000000000000000400000000000000000000000000000000000002000000000000000000000000000000000000000000000000000000000000000000000000000000000000000000200000000000000000000000000000000000000000000000100000000000000000000000000000000000000000000000000000000000000000000000000000000000000000000000000000000000000000000000000000000000000000000000000800000000000000000000000000000000000000000000000000000000000000000000000000000000000000000000000000000200000000000000000",
      "type": "0x2",
      "transactionHash": "0x2c3ec8be8caa7c0eefb1657e4aa03145fdba1ef56cd4ba0806db80c0bf38a358",
      "transactionIndex": "0xd6",
      "blockHash": "0xf0934d6180f15a96cf73ad5727a8e93580c2a65d7fe3469bb571296f5de997b0",
      "blockNumber": "0x237599c",
      "gasUsed": "0x7a34",
      "effectiveGasPrice": "0x6df80c",
      "from": "0xee03621ce83bbf6e3931bccf35b144354f16ccf7",
      "to": "0xb113959014d95c555b8a908d794e73478e5509a8",
      "contractAddress": null,
      "l1BaseFeeScalar": "0x8dd",
      "l1BlobBaseFee": "0x17",
      "l1BlobBaseFeeScalar": "0x101c12",
      "l1Fee": "0x3b6c5670",
      "l1GasPrice": "0x105e4133",
      "l1GasUsed": "0x640"
    },
    {
      "status": "0x1",
      "cumulativeGasUsed": "0x223f6ed",
      "logs": [
        {
          "address": "0xb113959014d95c555b8a908d794e73478e5509a8",
          "topics": [
            "0x06450d77a493ade91a66792442980e4499d56e1565b15d80f0790f2a962a135d"
          ],
          "data": "0x0000000000000000000000000000000000000000000000000000000000000000000000000000000000000000772cb1a0a5b975addea8bd130832fd35dd803e52",
          "blockHash": "0xf0934d6180f15a96cf73ad5727a8e93580c2a65d7fe3469bb571296f5de997b0",
          "blockNumber": "0x237599c",
          "blockTimestamp": "0x68f9101b",
          "transactionHash": "0x40ed76bf24e5a71ab489c232dd24955c0c4b85aa9d43bf1c85afa3f7bc435bbb",
          "transactionIndex": "0xd7",
          "logIndex": "0x219",
          "removed": false
        }
      ],
      "logsBloom": "0x00000000000000000000000000000000000000000000000000000000000000000000400000000000000000000000000000000000002000000000000000000000000000000000000000000000000000000000000000000000000000000000000000000200000000000000000000000000000000000000000000000100000000000000000000000000000000000000000000000000000000000000000000000000000000000000000000000000000000000000000000000000000000000000000000000000800000000000000000000000000000000000000000000000000000000000000000000000000000000000000000000000000000200000000000000000",
      "type": "0x2",
      "transactionHash": "0x40ed76bf24e5a71ab489c232dd24955c0c4b85aa9d43bf1c85afa3f7bc435bbb",
      "transactionIndex": "0xd7",
      "blockHash": "0xf0934d6180f15a96cf73ad5727a8e93580c2a65d7fe3469bb571296f5de997b0",
      "blockNumber": "0x237599c",
      "gasUsed": "0x7a34",
      "effectiveGasPrice": "0x6df80c",
      "from": "0xee03621ce83bbf6e3931bccf35b144354f16ccf7",
      "to": "0xb113959014d95c555b8a908d794e73478e5509a8",
      "contractAddress": null,
      "l1BaseFeeScalar": "0x8dd",
      "l1BlobBaseFee": "0x17",
      "l1BlobBaseFeeScalar": "0x101c12",
      "l1Fee": "0x3b6c5670",
      "l1GasPrice": "0x105e4133",
      "l1GasUsed": "0x640"
    },
    {
      "status": "0x1",
      "cumulativeGasUsed": "0x2247121",
      "logs": [
        {
          "address": "0xb113959014d95c555b8a908d794e73478e5509a8",
          "topics": [
            "0x06450d77a493ade91a66792442980e4499d56e1565b15d80f0790f2a962a135d"
          ],
          "data": "0x000000000000000000000000000000000000000000000000000000000000000000000000000000000000000056e66ef165ba1854d1e7d42f9cac63f097b9fdcf",
          "blockHash": "0xf0934d6180f15a96cf73ad5727a8e93580c2a65d7fe3469bb571296f5de997b0",
          "blockNumber": "0x237599c",
          "blockTimestamp": "0x68f9101b",
          "transactionHash": "0xf2c19b66c4964405a7e56b94d4cad9973cb227287679d60b682b2b11c2089083",
          "transactionIndex": "0xd8",
          "logIndex": "0x21a",
          "removed": false
        }
      ],
      "logsBloom": "0x00000000000000000000000000000000000000000000000000000000000000000000400000000000000000000000000000000000002000000000000000000000000000000000000000000000000000000000000000000000000000000000000000000200000000000000000000000000000000000000000000000100000000000000000000000000000000000000000000000000000000000000000000000000000000000000000000000000000000000000000000000000000000000000000000000000800000000000000000000000000000000000000000000000000000000000000000000000000000000000000000000000000000200000000000000000",
      "type": "0x2",
      "transactionHash": "0xf2c19b66c4964405a7e56b94d4cad9973cb227287679d60b682b2b11c2089083",
      "transactionIndex": "0xd8",
      "blockHash": "0xf0934d6180f15a96cf73ad5727a8e93580c2a65d7fe3469bb571296f5de997b0",
      "blockNumber": "0x237599c",
      "gasUsed": "0x7a34",
      "effectiveGasPrice": "0x6df80c",
      "from": "0xee03621ce83bbf6e3931bccf35b144354f16ccf7",
      "to": "0xb113959014d95c555b8a908d794e73478e5509a8",
      "contractAddress": null,
      "l1BaseFeeScalar": "0x8dd",
      "l1BlobBaseFee": "0x17",
      "l1BlobBaseFeeScalar": "0x101c12",
      "l1Fee": "0x3b6c5670",
      "l1GasPrice": "0x105e4133",
      "l1GasUsed": "0x640"
    },
    {
      "status": "0x1",
      "cumulativeGasUsed": "0x224eb55",
      "logs": [
        {
          "address": "0xb113959014d95c555b8a908d794e73478e5509a8",
          "topics": [
            "0x06450d77a493ade91a66792442980e4499d56e1565b15d80f0790f2a962a135d"
          ],
          "data": "0x0000000000000000000000000000000000000000000000000000000000000000000000000000000000000000d7a93b1177cfc512236670fdf50a6f92dfee2355",
          "blockHash": "0xf0934d6180f15a96cf73ad5727a8e93580c2a65d7fe3469bb571296f5de997b0",
          "blockNumber": "0x237599c",
          "blockTimestamp": "0x68f9101b",
          "transactionHash": "0x0ea4e5a3678a0e2ff689a0e291f2bc9fcdb48aa30d53961bcc0f23f2d6a8b364",
          "transactionIndex": "0xd9",
          "logIndex": "0x21b",
          "removed": false
        }
      ],
      "logsBloom": "0x00000000000000000000000000000000000000000000000000000000000000000000400000000000000000000000000000000000002000000000000000000000000000000000000000000000000000000000000000000000000000000000000000000200000000000000000000000000000000000000000000000100000000000000000000000000000000000000000000000000000000000000000000000000000000000000000000000000000000000000000000000000000000000000000000000000800000000000000000000000000000000000000000000000000000000000000000000000000000000000000000000000000000200000000000000000",
      "type": "0x2",
      "transactionHash": "0x0ea4e5a3678a0e2ff689a0e291f2bc9fcdb48aa30d53961bcc0f23f2d6a8b364",
      "transactionIndex": "0xd9",
      "blockHash": "0xf0934d6180f15a96cf73ad5727a8e93580c2a65d7fe3469bb571296f5de997b0",
      "blockNumber": "0x237599c",
      "gasUsed": "0x7a34",
      "effectiveGasPrice": "0x6df80c",
      "from": "0xee03621ce83bbf6e3931bccf35b144354f16ccf7",
      "to": "0xb113959014d95c555b8a908d794e73478e5509a8",
      "contractAddress": null,
      "l1BaseFeeScalar": "0x8dd",
      "l1BlobBaseFee": "0x17",
      "l1BlobBaseFeeScalar": "0x101c12",
      "l1Fee": "0x3b6c5670",
      "l1GasPrice": "0x105e4133",
      "l1GasUsed": "0x640"
    },
    {
      "status": "0x1",
      "cumulativeGasUsed": "0x995ddb",
      "logs": [
        {
          "address": "0xb113959014d95c555b8a908d794e73478e5509a8",
          "topics": [
            "0x06450d77a493ade91a66792442980e4499d56e1565b15d80f0790f2a962a135d"
          ],
          "data": "0x00000000000000000000000000000000000000000000000000000000000000000000000000000000000000004acb7b027d51868c2723bb6a1bdd0cc935b61379",
          "blockHash": "0xfe6c9e584241f5f661a8991fea528a364953e2e29cb54705bdbcf1fd6e4671b9",
          "blockNumber": "0x237599d",
          "blockTimestamp": "0x68f9101d",
          "transactionHash": "0x8519b7986c539ddc40874d5d7a98b1887afdd2141c6b79c7e3be9ec90479e91a",
          "transactionIndex": "0x28",
          "logIndex": "0xae",
          "removed": false
        }
      ],
      "logsBloom": "0x00000000000000000000000000000000000000000000000000000000000000000000400000000000000000000000000000000000002000000000000000000000000000000000000000000000000000000000000000000000000000000000000000000200000000000000000000000000000000000000000000000100000000000000000000000000000000000000000000000000000000000000000000000000000000000000000000000000000000000000000000000000000000000000000000000000800000000000000000000000000000000000000000000000000000000000000000000000000000000000000000000000000000200000000000000000",
      "type": "0x2",
      "transactionHash": "0x8519b7986c539ddc40874d5d7a98b1887afdd2141c6b79c7e3be9ec90479e91a",
      "transactionIndex": "0x28",
      "blockHash": "0xfe6c9e584241f5f661a8991fea528a364953e2e29cb54705bdbcf1fd6e4671b9",
      "blockNumber": "0x237599d",
      "gasUsed": "0x7a34",
      "effectiveGasPrice": "0x6d8a97",
      "from": "0xee03621ce83bbf6e3931bccf35b144354f16ccf7",
      "to": "0xb113959014d95c555b8a908d794e73478e5509a8",
      "contractAddress": null,
      "l1BaseFeeScalar": "0x8dd",
      "l1BlobBaseFee": "0x17",
      "l1BlobBaseFeeScalar": "0x101c12",
      "l1Fee": "0x45a2b6fc",
      "l1GasPrice": "0x105e4133",
      "l1GasUsed": "0x640"
    },
    {
      "status": "0x1",
      "cumulativeGasUsed": "0x99d80f",
      "logs": [
        {
          "address": "0xb113959014d95c555b8a908d794e73478e5509a8",
          "topics": [
            "0x06450d77a493ade91a66792442980e4499d56e1565b15d80f0790f2a962a135d"
          ],
          "data": "0x000000000000000000000000000000000000000000000000000000000000000000000000000000000000000082f78aec6afe485e5c06480a786e308528d57c97",
          "blockHash": "0x4290e39e0c4f3681a90ad82ba8bbfd3c31e08ba5aa3065d21f4f78ac07879a63",
          "blockNumber": "0x237599d",
          "blockTimestamp": "0x68f9101d",
          "transactionHash": "0x64365bf08cea2289c67d6688161d3bd7a9c84a17f0f65ecb8add9fe7e0ce6be0",
          "transactionIndex": "0x29",
          "logIndex": "0xaf",
          "removed": false
        }
      ],
      "logsBloom": "0x00000000000000000000000000000000000000000000000000000000000000000000400000000000000000000000000000000000002000000000000000000000000000000000000000000000000000000000000000000000000000000000000000000200000000000000000000000000000000000000000000000100000000000000000000000000000000000000000000000000000000000000000000000000000000000000000000000000000000000000000000000000000000000000000000000000800000000000000000000000000000000000000000000000000000000000000000000000000000000000000000000000000000200000000000000000",
      "type": "0x2",
      "transactionHash": "0x64365bf08cea2289c67d6688161d3bd7a9c84a17f0f65ecb8add9fe7e0ce6be0",
      "transactionIndex": "0x29",
      "blockHash": "0x4290e39e0c4f3681a90ad82ba8bbfd3c31e08ba5aa3065d21f4f78ac07879a63",
      "blockNumber": "0x237599d",
      "gasUsed": "0x7a34",
      "effectiveGasPrice": "0x6d8a97",
      "from": "0xee03621ce83bbf6e3931bccf35b144354f16ccf7",
      "to": "0xb113959014d95c555b8a908d794e73478e5509a8",
      "contractAddress": null,
      "l1BaseFeeScalar": "0x8dd",
      "l1BlobBaseFee": "0x17",
      "l1BlobBaseFeeScalar": "0x101c12",
      "l1Fee": "0x45a2b6fc",
      "l1GasPrice": "0x105e4133",
      "l1GasUsed": "0x640"
    },
    {
      "status": "0x1",
      "cumulativeGasUsed": "0x9a5243",
      "logs": [
        {
          "address": "0xb113959014d95c555b8a908d794e73478e5509a8",
          "topics": [
            "0x06450d77a493ade91a66792442980e4499d56e1565b15d80f0790f2a962a135d"
          ],
          "data": "0x00000000000000000000000000000000000000000000000000000000000000000000000000000000000000002a49d990b15b3c8b2ca33bb352c0b9fc99e1cb8d",
          "blockHash": "0xfe6c9e584241f5f661a8991fea528a364953e2e29cb54705bdbcf1fd6e4671b9",
          "blockNumber": "0x237599d",
          "blockTimestamp": "0x68f9101d",
          "transactionHash": "0x59befc14a85f4cf4868f881f90255a8c92c98c727d39e41679c5b71304518783",
          "transactionIndex": "0x2a",
          "logIndex": "0xb0",
          "removed": false
        }
      ],
      "logsBloom": "0x00000000000000000000000000000000000000000000000000000000000000000000400000000000000000000000000000000000002000000000000000000000000000000000000000000000000000000000000000000000000000000000000000000200000000000000000000000000000000000000000000000100000000000000000000000000000000000000000000000000000000000000000000000000000000000000000000000000000000000000000000000000000000000000000000000000800000000000000000000000000000000000000000000000000000000000000000000000000000000000000000000000000000200000000000000000",
      "type": "0x2",
      "transactionHash": "0x59befc14a85f4cf4868f881f90255a8c92c98c727d39e41679c5b71304518783",
      "transactionIndex": "0x2a",
      "blockHash": "0xfe6c9e584241f5f661a8991fea528a364953e2e29cb54705bdbcf1fd6e4671b9",
      "blockNumber": "0x237599d",
      "gasUsed": "0x7a34",
      "effectiveGasPrice": "0x6d8a97",
      "from": "0xee03621ce83bbf6e3931bccf35b144354f16ccf7",
      "to": "0xb113959014d95c555b8a908d794e73478e5509a8",
      "contractAddress": null,
      "l1BaseFeeScalar": "0x8dd",
      "l1BlobBaseFee": "0x17",
      "l1BlobBaseFeeScalar": "0x101c12",
      "l1Fee": "0x45a2b6fc",
      "l1GasPrice": "0x105e4133",
      "l1GasUsed": "0x640"
    },
    {
      "status": "0x1",
      "cumulativeGasUsed": "0x9acc77",
      "logs": [
        {
          "address": "0xb113959014d95c555b8a908d794e73478e5509a8",
          "topics": [
            "0x06450d77a493ade91a66792442980e4499d56e1565b15d80f0790f2a962a135d"
          ],
          "data": "0x00000000000000000000000000000000000000000000000000000000000000000000000000000000000000002469296ee5fae005dc25ed449f7fff9eca511ebd",
          "blockHash": "0xd0198f3deadcc36a0f2c17fcd7b7b3979388448a21fd7064bce51d6c25b9f42c",
          "blockNumber": "0x237599d",
          "blockTimestamp": "0x68f9101d",
          "transactionHash": "0x144cb61c34b27db95987ad99c6cf7d6225b0fdde99e66b521994c5cea1c10327",
          "transactionIndex": "0x2b",
          "logIndex": "0xb1",
          "removed": false
        }
      ],
      "logsBloom": "0x00000000000000000000000000000000000000000000000000000000000000000000400000000000000000000000000000000000002000000000000000000000000000000000000000000000000000000000000000000000000000000000000000000200000000000000000000000000000000000000000000000100000000000000000000000000000000000000000000000000000000000000000000000000000000000000000000000000000000000000000000000000000000000000000000000000800000000000000000000000000000000000000000000000000000000000000000000000000000000000000000000000000000200000000000000000",
      "type": "0x2",
      "transactionHash": "0x144cb61c34b27db95987ad99c6cf7d6225b0fdde99e66b521994c5cea1c10327",
      "transactionIndex": "0x2b",
      "blockHash": "0xd0198f3deadcc36a0f2c17fcd7b7b3979388448a21fd7064bce51d6c25b9f42c",
      "blockNumber": "0x237599d",
      "gasUsed": "0x7a34",
      "effectiveGasPrice": "0x6d8a97",
      "from": "0xee03621ce83bbf6e3931bccf35b144354f16ccf7",
      "to": "0xb113959014d95c555b8a908d794e73478e5509a8",
      "contractAddress": null,
      "l1BaseFeeScalar": "0x8dd",
      "l1BlobBaseFee": "0x17",
      "l1BlobBaseFeeScalar": "0x101c12",
      "l1Fee": "0x45a2b6fc",
      "l1GasPrice": "0x105e4133",
      "l1GasUsed": "0x640"
    },
    {
      "status": "0x1",
      "cumulativeGasUsed": "0x9b4f37",
      "logs": [
        {
          "address": "0xc60d72c8cb53842f15cffa8a0bb9dbc759e44452",
          "topics": [
            "0x033b55419a2dba027908fbe5a221c7df98500387bfc5bef4cbfb1e276264d205"
          ],
          "data": "0x00000000000000000000000000000000000000000000000000000000000000000000000000000000000000000000000000000000000000000000000000000001",
          "blockHash": "0xd0198f3deadcc36a0f2c17fcd7b7b3979388448a21fd7064bce51d6c25b9f42c",
          "blockNumber": "0x237599d",
          "blockTimestamp": "0x68f9101d",
          "transactionHash": "0x058f34329d287bc3831cf9fe4820d1f325964769b7e1678f00891eaa48092e38",
          "transactionIndex": "0x2c",
          "logIndex": "0xb2",
          "removed": false
        }
      ],
      "logsBloom": "0x00000000000000000000000000000000000000000000000000000000000000000000000000000000000000000000000000000000000000000000000000000000000000000000000000000000000000000000000000000000000000000000000000000000000000000000000000000000000000000018000000000000000000000000000000080000000000000000000000000000000000000000000000000000100000400000000000000000000000000000000000000000000000000000000000000000000000000000000000000000000000000000000000000000000000000000000000000000000000000000000000000800000000000000000000000000",
      "type": "0x2",
      "transactionHash": "0x058f34329d287bc3831cf9fe4820d1f325964769b7e1678f00891eaa48092e38",
      "transactionIndex": "0x2c",
      "blockHash": "0xd0198f3deadcc36a0f2c17fcd7b7b3979388448a21fd7064bce51d6c25b9f42c",
      "blockNumber": "0x237599d",
      "gasUsed": "0x82c0",
      "effectiveGasPrice": "0x6d8a97",
      "from": "0xee03621ce83bbf6e3931bccf35b144354f16ccf7",
      "to": "0xc60d72c8cb53842f15cffa8a0bb9dbc759e44452",
      "contractAddress": null,
      "l1BaseFeeScalar": "0x8dd",
      "l1BlobBaseFee": "0x17",
      "l1BlobBaseFeeScalar": "0x101c12",
      "l1Fee": "0x45a2b6fc",
      "l1GasPrice": "0x105e4133",
      "l1GasUsed": "0x640"
    },
    {
      "status": "0x1",
      "cumulativeGasUsed": "0x9bd1f7",
      "logs": [
        {
          "address": "0xc60d72c8cb53842f15cffa8a0bb9dbc759e44452",
          "topics": [
            "0x033b55419a2dba027908fbe5a221c7df98500387bfc5bef4cbfb1e276264d205"
          ],
          "data": "0x00000000000000000000000000000000000000000000000000000000000000000000000000000000000000000000000000000000000000000000000000000001",
          "blockHash": "0x2da411ee2536ba0ebf690506120caa28407431339f43c182f5a7f5fe301d7a58",
          "blockNumber": "0x237599d",
          "blockTimestamp": "0x68f9101d",
          "transactionHash": "0xcd9a34d2698dc0670659a0f49a894bbd115b27c76da47d0d27dfbddee769b0cd",
          "transactionIndex": "0x2d",
          "logIndex": "0xb3",
          "removed": false
        }
      ],
      "logsBloom": "0x00000000000000000000000000000000000000000000000000000000000000000000000000000000000000000000000000000000000000000000000000000000000000000000000000000000000000000000000000000000000000000000000000000000000000000000000000000000000000000018000000000000000000000000000000080000000000000000000000000000000000000000000000000000100000400000000000000000000000000000000000000000000000000000000000000000000000000000000000000000000000000000000000000000000000000000000000000000000000000000000000000800000000000000000000000000",
      "type": "0x2",
      "transactionHash": "0xcd9a34d2698dc0670659a0f49a894bbd115b27c76da47d0d27dfbddee769b0cd",
      "transactionIndex": "0x2d",
      "blockHash": "0x2da411ee2536ba0ebf690506120caa28407431339f43c182f5a7f5fe301d7a58",
      "blockNumber": "0x237599d",
      "gasUsed": "0x82c0",
      "effectiveGasPrice": "0x6d8a97",
      "from": "0xee03621ce83bbf6e3931bccf35b144354f16ccf7",
      "to": "0xc60d72c8cb53842f15cffa8a0bb9dbc759e44452",
      "contractAddress": null,
      "l1BaseFeeScalar": "0x8dd",
      "l1BlobBaseFee": "0x17",
      "l1BlobBaseFeeScalar": "0x101c12",
      "l1Fee": "0x3b6c5670",
      "l1GasPrice": "0x105e4133",
      "l1GasUsed": "0x640"
    },
    {
      "status": "0x1",
      "cumulativeGasUsed": "0x9c54b7",
      "logs": [
        {
          "address": "0xc60d72c8cb53842f15cffa8a0bb9dbc759e44452",
          "topics": [
            "0x033b55419a2dba027908fbe5a221c7df98500387bfc5bef4cbfb1e276264d205"
          ],
          "data": "0x00000000000000000000000000000000000000000000000000000000000000000000000000000000000000000000000000000000000000000000000000000001",
          "blockHash": "0xd0198f3deadcc36a0f2c17fcd7b7b3979388448a21fd7064bce51d6c25b9f42c",
          "blockNumber": "0x237599d",
          "blockTimestamp": "0x68f9101d",
          "transactionHash": "0x6c5e6f593be1fd5a53d2369c6f5e53ddc7ca9bbf77013ccc4dd161773489434a",
          "transactionIndex": "0x2e",
          "logIndex": "0xb4",
          "removed": false
        }
      ],
      "logsBloom": "0x00000000000000000000000000000000000000000000000000000000000000000000000000000000000000000000000000000000000000000000000000000000000000000000000000000000000000000000000000000000000000000000000000000000000000000000000000000000000000000018000000000000000000000000000000080000000000000000000000000000000000000000000000000000100000400000000000000000000000000000000000000000000000000000000000000000000000000000000000000000000000000000000000000000000000000000000000000000000000000000000000000800000000000000000000000000",
      "type": "0x2",
      "transactionHash": "0x6c5e6f593be1fd5a53d2369c6f5e53ddc7ca9bbf77013ccc4dd161773489434a",
      "transactionIndex": "0x2e",
      "blockHash": "0xd0198f3deadcc36a0f2c17fcd7b7b3979388448a21fd7064bce51d6c25b9f42c",
      "blockNumber": "0x237599d",
      "gasUsed": "0x82c0",
      "effectiveGasPrice": "0x6d8a97",
      "from": "0xee03621ce83bbf6e3931bccf35b144354f16ccf7",
      "to": "0xc60d72c8cb53842f15cffa8a0bb9dbc759e44452",
      "contractAddress": null,
      "l1BaseFeeScalar": "0x8dd",
      "l1BlobBaseFee": "0x17",
      "l1BlobBaseFeeScalar": "0x101c12",
      "l1Fee": "0x45a2b6fc",
      "l1GasPrice": "0x105e4133",
      "l1GasUsed": "0x640"
    },
    {
      "status": "0x1",
      "cumulativeGasUsed": "0xcacf64",
      "logs": [
        {
          "address": "0xc60d72c8cb53842f15cffa8a0bb9dbc759e44452",
          "topics": [
            "0x033b55419a2dba027908fbe5a221c7df98500387bfc5bef4cbfb1e276264d205"
          ],
          "data": "0x00000000000000000000000000000000000000000000000000000000000000000000000000000000000000000000000000000000000000000000000000000001",
          "blockHash": "0x22d7843e896b076c679fb037070076a95fa136d86d8456de8b2ed097311940b1",
          "blockNumber": "0x237599d",
          "blockTimestamp": "0x68f9101d",
          "transactionHash": "0x34daaabe461b15ceadc6d50bbc90f10b644f1840eb20860e78242ff3fb4079a1",
          "transactionIndex": "0x4b",
          "logIndex": "0xe2",
          "removed": false
        }
      ],
      "logsBloom": "0x00000000000000000000000000000000000000000000000000000000000000000000000000000000000000000000000000000000000000000000000000000000000000000000000000000000000000000000000000000000000000000000000000000000000000000000000000000000000000000018000000000000000000000000000000080000000000000000000000000000000000000000000000000000100000400000000000000000000000000000000000000000000000000000000000000000000000000000000000000000000000000000000000000000000000000000000000000000000000000000000000000800000000000000000000000000",
      "type": "0x2",
      "transactionHash": "0x34daaabe461b15ceadc6d50bbc90f10b644f1840eb20860e78242ff3fb4079a1",
      "transactionIndex": "0x4b",
      "blockHash": "0x22d7843e896b076c679fb037070076a95fa136d86d8456de8b2ed097311940b1",
      "blockNumber": "0x237599d",
      "gasUsed": "0x82c0",
      "effectiveGasPrice": "0x6d8a97",
      "from": "0xee03621ce83bbf6e3931bccf35b144354f16ccf7",
      "to": "0xc60d72c8cb53842f15cffa8a0bb9dbc759e44452",
      "contractAddress": null,
      "l1BaseFeeScalar": "0x8dd",
      "l1BlobBaseFee": "0x17",
      "l1BlobBaseFeeScalar": "0x101c12",
      "l1Fee": "0x3b6c5670",
      "l1GasPrice": "0x105e4133",
      "l1GasUsed": "0x640"
    },
    {
      "status": "0x1",
      "cumulativeGasUsed": "0xcb5224",
      "logs": [
        {
          "address": "0xc60d72c8cb53842f15cffa8a0bb9dbc759e44452",
          "topics": [
            "0x033b55419a2dba027908fbe5a221c7df98500387bfc5bef4cbfb1e276264d205"
          ],
          "data": "0x00000000000000000000000000000000000000000000000000000000000000000000000000000000000000000000000000000000000000000000000000000001",
          "blockHash": "0x22d7843e896b076c679fb037070076a95fa136d86d8456de8b2ed097311940b1",
          "blockNumber": "0x237599d",
          "transactionHash": "0xaa459fbbec872b380d3930e7ec5b2fc1f851cb563c4b672e4335246d0a43448d",
          "transactionIndex": "0x4c",
          "logIndex": "0xe3",
          "removed": false
        }
      ],
      "logsBloom": "0x00000000000000000000000000000000000000000000000000000000000000000000000000000000000000000000000000000000000000000000000000000000000000000000000000000000000000000000000000000000000000000000000000000000000000000000000000000000000000000018000000000000000000000000000000080000000000000000000000000000000000000000000000000000100000400000000000000000000000000000000000000000000000000000000000000000000000000000000000000000000000000000000000000000000000000000000000000000000000000000000000000800000000000000000000000000",
      "type": "0x2",
      "transactionHash": "0xaa459fbbec872b380d3930e7ec5b2fc1f851cb563c4b672e4335246d0a43448d",
      "transactionIndex": "0x4c",
      "blockHash": "0x22d7843e896b076c679fb037070076a95fa136d86d8456de8b2ed097311940b1",
      "blockNumber": "0x237599d",
      "gasUsed": "0x82c0",
      "effectiveGasPrice": "0x6d8a97",
      "from": "0xee03621ce83bbf6e3931bccf35b144354f16ccf7",
      "to": "0xc60d72c8cb53842f15cffa8a0bb9dbc759e44452",
      "contractAddress": null,
      "l1BaseFeeScalar": "0x8dd",
      "l1BlobBaseFee": "0x17",
      "l1BlobBaseFeeScalar": "0x101c12",
      "l1Fee": "0x3b6c5670",
      "l1GasPrice": "0x105e4133",
      "l1GasUsed": "0x640"
    },
    {
      "status": "0x1",
      "cumulativeGasUsed": "0x557313",
      "logs": [
        {
          "address": "0xc60d72c8cb53842f15cffa8a0bb9dbc759e44452",
          "topics": [
            "0x033b55419a2dba027908fbe5a221c7df98500387bfc5bef4cbfb1e276264d205"
          ],
          "data": "0x00000000000000000000000000000000000000000000000000000000000000000000000000000000000000000000000000000000000000000000000000000001",
          "blockHash": "0xe6ad38181687e1e29d582e974dd54af2af3160f2925e65dccac4ebf3906667a1",
          "blockNumber": "0x237599e",
          "blockTimestamp": "0x68f9101f",
          "transactionHash": "0x74977fcde900a8bdf953ec41c3a986336620b6cca683f72c101a06e03a2748a6",
          "transactionIndex": "0x29",
          "logIndex": "0x85",
          "removed": false
        }
      ],
      "logsBloom": "0x00000000000000000000000000000000000000000000000000000000000000000000000000000000000000000000000000000000000000000000000000000000000000000000000000000000000000000000000000000000000000000000000000000000000000000000000000000000000000000018000000000000000000000000000000080000000000000000000000000000000000000000000000000000100000400000000000000000000000000000000000000000000000000000000000000000000000000000000000000000000000000000000000000000000000000000000000000000000000000000000000000800000000000000000000000000",
      "type": "0x2",
      "transactionHash": "0x74977fcde900a8bdf953ec41c3a986336620b6cca683f72c101a06e03a2748a6",
      "transactionIndex": "0x29",
      "blockHash": "0xe6ad38181687e1e29d582e974dd54af2af3160f2925e65dccac4ebf3906667a1",
      "blockNumber": "0x237599e",
      "gasUsed": "0x82c0",
      "effectiveGasPrice": "0x6d63cd",
      "from": "0xee03621ce83bbf6e3931bccf35b144354f16ccf7",
      "to": "0xc60d72c8cb53842f15cffa8a0bb9dbc759e44452",
      "contractAddress": null,
      "l1BaseFeeScalar": "0x8dd",
      "l1BlobBaseFee": "0x17",
      "l1BlobBaseFeeScalar": "0x101c12",
      "l1Fee": "0x3b6c5670",
      "l1GasPrice": "0x105e4133",
      "l1GasUsed": "0x640"
    },
    {
      "status": "0x1",
      "cumulativeGasUsed": "0x55f5d3",
      "logs": [
        {
          "address": "0xc60d72c8cb53842f15cffa8a0bb9dbc759e44452",
          "topics": [
            "0x033b55419a2dba027908fbe5a221c7df98500387bfc5bef4cbfb1e276264d205"
          ],
          "data": "0x00000000000000000000000000000000000000000000000000000000000000000000000000000000000000000000000000000000000000000000000000000001",
          "blockHash": "0x42268188b0f6d2513f3d5e53f04f6df3d565b7b0cd7c024203fd832d4aaecde0",
          "blockNumber": "0x237599e",
          "blockTimestamp": "0x68f9101f",
          "transactionHash": "0x3d63b006337667c4026ca904baebbfd08e886ab540997eee89cb135cb2fff06f",
          "transactionIndex": "0x2a",
          "logIndex": "0x86",
          "removed": false
        }
      ],
      "logsBloom": "0x00000000000000000000000000000000000000000000000000000000000000000000000000000000000000000000000000000000000000000000000000000000000000000000000000000000000000000000000000000000000000000000000000000000000000000000000000000000000000000018000000000000000000000000000000080000000000000000000000000000000000000000000000000000100000400000000000000000000000000000000000000000000000000000000000000000000000000000000000000000000000000000000000000000000000000000000000000000000000000000000000000800000000000000000000000000",
      "type": "0x2",
      "transactionHash": "0x3d63b006337667c4026ca904baebbfd08e886ab540997eee89cb135cb2fff06f",
      "transactionIndex": "0x2a",
      "blockHash": "0x42268188b0f6d2513f3d5e53f04f6df3d565b7b0cd7c024203fd832d4aaecde0",
      "blockNumber": "0x237599e",
      "gasUsed": "0x82c0",
      "effectiveGasPrice": "0x6d63cd",
      "from": "0xee03621ce83bbf6e3931bccf35b144354f16ccf7",
      "to": "0xc60d72c8cb53842f15cffa8a0bb9dbc759e44452",
      "contractAddress": null,
      "l1BaseFeeScalar": "0x8dd",
      "l1BlobBaseFee": "0x17",
      "l1BlobBaseFeeScalar": "0x101c12",
      "l1Fee": "0x3b6c5670",
      "l1GasPrice": "0x105e4133",
      "l1GasUsed": "0x640"
    },
    {
      "status": "0x1",
      "cumulativeGasUsed": "0x567893",
      "logs": [
        {
          "address": "0xc60d72c8cb53842f15cffa8a0bb9dbc759e44452",
          "topics": [
            "0x033b55419a2dba027908fbe5a221c7df98500387bfc5bef4cbfb1e276264d205"
          ],
          "data": "0x00000000000000000000000000000000000000000000000000000000000000000000000000000000000000000000000000000000000000000000000000000001",
          "blockHash": "0x7c94d38d39e640ffd453c681adbda1d81f86b5c0ce569a754983faf4f40c97ed",
          "blockNumber": "0x237599e",
          "blockTimestamp": "0x68f9101f",
          "transactionHash": "0x03a641d1b48867bc6f61addcdb281ff7a0c85a26cfb74157f67df351caa618e5",
          "transactionIndex": "0x2b",
          "logIndex": "0x87",
          "removed": false
        }
      ],
      "logsBloom": "0x00000000000000000000000000000000000000000000000000000000000000000000000000000000000000000000000000000000000000000000000000000000000000000000000000000000000000000000000000000000000000000000000000000000000000000000000000000000000000000018000000000000000000000000000000080000000000000000000000000000000000000000000000000000100000400000000000000000000000000000000000000000000000000000000000000000000000000000000000000000000000000000000000000000000000000000000000000000000000000000000000000800000000000000000000000000",
      "type": "0x2",
      "transactionHash": "0x03a641d1b48867bc6f61addcdb281ff7a0c85a26cfb74157f67df351caa618e5",
      "transactionIndex": "0x2b",
      "blockHash": "0x7c94d38d39e640ffd453c681adbda1d81f86b5c0ce569a754983faf4f40c97ed",
      "blockNumber": "0x237599e",
      "gasUsed": "0x82c0",
      "effectiveGasPrice": "0x6d63cd",
      "from": "0xee03621ce83bbf6e3931bccf35b144354f16ccf7",
      "to": "0xc60d72c8cb53842f15cffa8a0bb9dbc759e44452",
      "contractAddress": null,
      "l1BaseFeeScalar": "0x8dd",
      "l1BlobBaseFee": "0x17",
      "l1BlobBaseFeeScalar": "0x101c12",
      "l1Fee": "0x3b6c5670",
      "l1GasPrice": "0x105e4133",
      "l1GasUsed": "0x640"
    },
    {
      "status": "0x1",
      "cumulativeGasUsed": "0x56fb53",
      "logs": [
        {
          "address": "0xc60d72c8cb53842f15cffa8a0bb9dbc759e44452",
          "topics": [
            "0x033b55419a2dba027908fbe5a221c7df98500387bfc5bef4cbfb1e276264d205"
          ],
          "data": "0x00000000000000000000000000000000000000000000000000000000000000000000000000000000000000000000000000000000000000000000000000000001",
          "blockHash": "0x7c94d38d39e640ffd453c681adbda1d81f86b5c0ce569a754983faf4f40c97ed",
          "blockNumber": "0x237599e",
          "blockTimestamp": "0x68f9101f",
          "transactionHash": "0x6f61f47cd5a11640c13aacf83d1013de23ad42a031ffd5ebf8637e8213d943d4",
          "transactionIndex": "0x2c",
          "logIndex": "0x88",
          "removed": false
        }
      ],
      "logsBloom": "0x00000000000000000000000000000000000000000000000000000000000000000000000000000000000000000000000000000000000000000000000000000000000000000000000000000000000000000000000000000000000000000000000000000000000000000000000000000000000000000018000000000000000000000000000000080000000000000000000000000000000000000000000000000000100000400000000000000000000000000000000000000000000000000000000000000000000000000000000000000000000000000000000000000000000000000000000000000000000000000000000000000800000000000000000000000000",
      "type": "0x2",
      "transactionHash": "0x6f61f47cd5a11640c13aacf83d1013de23ad42a031ffd5ebf8637e8213d943d4",
      "transactionIndex": "0x2c",
      "blockHash": "0x7c94d38d39e640ffd453c681adbda1d81f86b5c0ce569a754983faf4f40c97ed",
      "blockNumber": "0x237599e",
      "gasUsed": "0x82c0",
      "effectiveGasPrice": "0x6d63cd",
      "from": "0xee03621ce83bbf6e3931bccf35b144354f16ccf7",
      "to": "0xc60d72c8cb53842f15cffa8a0bb9dbc759e44452",
      "contractAddress": null,
      "l1BaseFeeScalar": "0x8dd",
      "l1BlobBaseFee": "0x17",
      "l1BlobBaseFeeScalar": "0x101c12",
      "l1Fee": "0x3b6c5670",
      "l1GasPrice": "0x105e4133",
      "l1GasUsed": "0x640"
    },
    {
      "status": "0x1",
      "cumulativeGasUsed": "0x577e13",
      "logs": [
        {
          "address": "0xc60d72c8cb53842f15cffa8a0bb9dbc759e44452",
          "topics": [
            "0x033b55419a2dba027908fbe5a221c7df98500387bfc5bef4cbfb1e276264d205"
          ],
          "data": "0x00000000000000000000000000000000000000000000000000000000000000000000000000000000000000000000000000000000000000000000000000000001",
          "blockHash": "0x78ee23721d47506d374a48b0e69399f1c9dbaf775f5febfa45e1a32fefb3ce9a",
          "blockNumber": "0x237599e",
          "blockTimestamp": "0x68f9101f",
          "transactionHash": "0x29f49b948eb0cca844430bfae34513b0c9d21ffd629f57dd202e7a26d3174f29",
          "transactionIndex": "0x2d",
          "logIndex": "0x89",
          "removed": false
        }
      ],
      "logsBloom": "0x00000000000000000000000000000000000000000000000000000000000000000000000000000000000000000000000000000000000000000000000000000000000000000000000000000000000000000000000000000000000000000000000000000000000000000000000000000000000000000018000000000000000000000000000000080000000000000000000000000000000000000000000000000000100000400000000000000000000000000000000000000000000000000000000000000000000000000000000000000000000000000000000000000000000000000000000000000000000000000000000000000800000000000000000000000000",
      "type": "0x2",
      "transactionHash": "0x29f49b948eb0cca844430bfae34513b0c9d21ffd629f57dd202e7a26d3174f29",
      "transactionIndex": "0x2d",
      "blockHash": "0x78ee23721d47506d374a48b0e69399f1c9dbaf775f5febfa45e1a32fefb3ce9a",
      "blockNumber": "0x237599e",
      "gasUsed": "0x82c0",
      "effectiveGasPrice": "0x6d63cd",
      "from": "0xee03621ce83bbf6e3931bccf35b144354f16ccf7",
      "to": "0xc60d72c8cb53842f15cffa8a0bb9dbc759e44452",
      "contractAddress": null,
      "l1BaseFeeScalar": "0x8dd",
      "l1BlobBaseFee": "0x17",
      "l1BlobBaseFeeScalar": "0x101c12",
      "l1Fee": "0x3b6c5670",
      "l1GasPrice": "0x105e4133",
      "l1GasUsed": "0x640"
    },
    {
      "status": "0x1",
      "cumulativeGasUsed": "0x6c868e",
      "logs": [
        {
          "address": "0xc60d72c8cb53842f15cffa8a0bb9dbc759e44452",
          "topics": [
            "0x033b55419a2dba027908fbe5a221c7df98500387bfc5bef4cbfb1e276264d205"
          ],
          "data": "0x00000000000000000000000000000000000000000000000000000000000000000000000000000000000000000000000000000000000000000000000000000001",
          "blockHash": "0x0aeaf3937fab46901cdae175b9071e24e407be9efd46451251312561128f062c",
          "blockNumber": "0x237599f",
          "blockTimestamp": "0x68f91021",
          "transactionHash": "0x1605833564e21d19f1d107176b82c4a77c87c3bd678dd741058905b490087f2d",
          "transactionIndex": "0x2f",
          "logIndex": "0xa4",
          "removed": false
        }
      ],
      "logsBloom": "0x00000000000000000000000000000000000000000000000000000000000000000000000000000000000000000000000000000000000000000000000000000000000000000000000000000000000000000000000000000000000000000000000000000000000000000000000000000000000000000018000000000000000000000000000000080000000000000000000000000000000000000000000000000000100000400000000000000000000000000000000000000000000000000000000000000000000000000000000000000000000000000000000000000000000000000000000000000000000000000000000000000800000000000000000000000000",
      "type": "0x2",
      "transactionHash": "0x1605833564e21d19f1d107176b82c4a77c87c3bd678dd741058905b490087f2d",
      "transactionIndex": "0x2f",
      "blockHash": "0x0aeaf3937fab46901cdae175b9071e24e407be9efd46451251312561128f062c",
      "blockNumber": "0x237599f",
      "gasUsed": "0x82c0",
      "effectiveGasPrice": "0x6d181f",
      "from": "0xee03621ce83bbf6e3931bccf35b144354f16ccf7",
      "to": "0xc60d72c8cb53842f15cffa8a0bb9dbc759e44452",
      "contractAddress": null,
      "l1BaseFeeScalar": "0x8dd",
      "l1BlobBaseFee": "0x17",
      "l1BlobBaseFeeScalar": "0x101c12",
      "l1Fee": "0x69ec0d7f",
      "l1GasPrice": "0x105e4133",
      "l1GasUsed": "0x640"
    }
  ],
  "libraries": [],
  "pending": [],
  "returns": {},
  "timestamp": 1761153070723,
  "chain": 8453,
  "commit": "0b38601"
}