{
  "transactions": [
    {
      "hash": "0x328150809d7a8a9828bed38882491083f0d2f48131260186baf500fa55aa92da",
      "transactionType": "CREATE",
      "contractName": "OAppBorrow",
      "contractAddress": "0x548465328d18822ee31bea8cfcab945879d76f5c",
      "function": null,
      "arguments": [
        "0x1a44076050125825900e736c501f859c50fE728c",
        "0xEe03621Ce83BbF6e3931BcCf35b144354F16ccf7"
      ],
      "transaction": {
        "from": "0xee03621ce83bbf6e3931bccf35b144354f16ccf7",
        "gas": "0x333ff3",
        "value": "0x0",
        "input": "0x60a060405234801561000f575f5ffd5b5060405161302e38038061302e833981810160405281019061003191906102e1565b81818181845f73ffffffffffffffffffffffffffffffffffffffff168173ffffffffffffffffffffffffffffffffffffffff16036100a6575f6040517f1e4fbdf700000000000000000000000000000000000000000000000000000000815260040161009d919061032e565b60405180910390fd5b6100b5816101c260201b60201c565b508173ffffffffffffffffffffffffffffffffffffffff1660808173ffffffffffffffffffffffffffffffffffffffff16815250505f73ffffffffffffffffffffffffffffffffffffffff168173ffffffffffffffffffffffffffffffffffffffff160361014f576040517fb586360400000000000000000000000000000000000000000000000000000000815260040160405180910390fd5b60805173ffffffffffffffffffffffffffffffffffffffff1663ca5eb5e1826040518263ffffffff1660e01b815260040161018a919061032e565b5f604051808303815f87803b1580156101a1575f5ffd5b505af11580156101b3573d5f5f3e3d5ffd5b50505050505050505050610347565b5f5f5f9054906101000a900473ffffffffffffffffffffffffffffffffffffffff169050815f5f6101000a81548173ffffffffffffffffffffffffffffffffffffffff021916908373ffffffffffffffffffffffffffffffffffffffff1602179055508173ffffffffffffffffffffffffffffffffffffffff168173ffffffffffffffffffffffffffffffffffffffff167f8be0079c531659141344cd1fd0a4f28419497f9722a3daafe3b4186f6b6457e060405160405180910390a35050565b5f5ffd5b5f73ffffffffffffffffffffffffffffffffffffffff82169050919050565b5f6102b082610287565b9050919050565b6102c0816102a6565b81146102ca575f5ffd5b50565b5f815190506102db816102b7565b92915050565b5f5f604083850312156102f7576102f6610283565b5b5f610304858286016102cd565b9250506020610315858286016102cd565b9150509250929050565b610328816102a6565b82525050565b5f6020820190506103415f83018461031f565b92915050565b608051612ca56103895f395f818161057f015281816107e301528181610b970152818161106e0152818161115b015281816113fa01526114f20152612ca55ff3fe608060405260043610610129575f3560e01c806382413eac116100aa578063b98bd0701161006e578063b98bd070146103b8578063bb0b6a53146103e0578063bc70b3541461041c578063ca5eb5e114610458578063f2fde38b14610480578063ff7bd03d146104a857610129565b806382413eac146102d05780638da5cb5b1461030c578063919edb47146103365780639ff75c2314610352578063a59a99731461038e57610129565b80633400288b116100f15780633400288b146101f05780635535d461146102185780635e280f1114610254578063715018a61461027e5780637d25a05e1461029457610129565b8063113aa8b11461012d57806313137d651461015557806317442b70146101715780631f5e13341461019c57806332970710146101c6575b5f5ffd5b348015610138575f5ffd5b50610153600480360381019061014e919061170c565b6104e4565b005b61016f600480360381019061016a91906117ed565b610566565b005b34801561017c575f5ffd5b50610185610686565b6040516101939291906118c6565b60405180910390f35b3480156101a7575f5ffd5b506101b0610694565b6040516101bd9190611909565b60405180910390f35b3480156101d1575f5ffd5b506101da610699565b6040516101e79190611992565b60405180910390f35b3480156101fb575f5ffd5b50610216600480360381019061021191906119eb565b610725565b005b348015610223575f5ffd5b5061023e60048036038101906102399190611a53565b61073b565b60405161024b9190611992565b60405180910390f35b34801561025f575f5ffd5b506102686107e1565b6040516102759190611aec565b60405180910390f35b348015610289575f5ffd5b50610292610805565b005b34801561029f575f5ffd5b506102ba60048036038101906102b591906119eb565b610818565b6040516102c79190611b05565b60405180910390f35b3480156102db575f5ffd5b506102f660048036038101906102f19190611b1e565b610822565b6040516103039190611ba9565b60405180910390f35b348015610317575f5ffd5b5061032061085c565b60405161032d9190611bd1565b60405180910390f35b610350600480360381019061034b9190611c1d565b610883565b005b34801561035d575f5ffd5b5061037860048036038101906103739190611ccb565b6108de565b6040516103859190611d9d565b60405180910390f35b348015610399575f5ffd5b506103a2610930565b6040516103af9190611bd1565b60405180910390f35b3480156103c3575f5ffd5b506103de60048036038101906103d99190611e0b565b610955565b005b3480156103eb575f5ffd5b5061040660048036038101906104019190611e56565b610976565b6040516104139190611e90565b60405180910390f35b348015610427575f5ffd5b50610442600480360381019061043d9190611ea9565b61098b565b60405161044f9190611992565b60405180910390f35b348015610463575f5ffd5b5061047e6004803603810190610479919061170c565b610b8d565b005b34801561048b575f5ffd5b506104a660048036038101906104a1919061170c565b610c1e565b005b3480156104b3575f5ffd5b506104ce60048036038101906104c99190611f1a565b610ca2565b6040516104db9190611ba9565b60405180910390f35b6104ec610cdf565b8060045f6101000a81548173ffffffffffffffffffffffffffffffffffffffff021916908373ffffffffffffffffffffffffffffffffffffffff1602179055507f7c3dfe69126e8f8130fd09c600fd8fcba2acbe0c696d598c771f23a12ce811df8160405161055b9190611bd1565b60405180910390a150565b3373ffffffffffffffffffffffffffffffffffffffff167f000000000000000000000000000000000000000000000000000000000000000073ffffffffffffffffffffffffffffffffffffffff16146105f657336040517f91ac5e4f0000000000000000000000000000000000000000000000000000000081526004016105ed9190611bd1565b60405180910390fd5b8660200135610615885f0160208101906106109190611e56565b610d66565b1461066e57865f01602081019061062c9190611e56565b87602001356040517fc26bebcc000000000000000000000000000000000000000000000000000000008152600401610665929190611f54565b60405180910390fd5b61067d87878787878787610dd7565b50505050505050565b5f5f60016002915091509091565b600181565b600380546106a690611fa8565b80601f01602080910402602001604051908101604052809291908181526020018280546106d290611fa8565b801561071d5780601f106106f45761010080835404028352916020019161071d565b820191905f5260205f20905b81548152906001019060200180831161070057829003601f168201915b505050505081565b61072d610cdf565b6107378282610f1b565b5050565b6002602052815f5260405f20602052805f5260405f205f9150915050805461076290611fa8565b80601f016020809104026020016040519081016040528092919081815260200182805461078e90611fa8565b80156107d95780601f106107b0576101008083540402835291602001916107d9565b820191905f5260205f20905b8154815290600101906020018083116107bc57829003601f168201915b505050505081565b7f000000000000000000000000000000000000000000000000000000000000000081565b61080d610cdf565b6108165f610f7a565b565b5f5f905092915050565b5f3073ffffffffffffffffffffffffffffffffffffffff168273ffffffffffffffffffffffffffffffffffffffff16149050949350505050565b5f5f5f9054906101000a900473ffffffffffffffffffffffffffffffffffffffff16905090565b5f8484604051602001610897929190611fe7565b60405160208183030381529060405290506108d586826108ba896001888861098b565b60405180604001604052803481526020015f8152503361103b565b50505050505050565b6108e661165a565b5f86866040516020016108fa929190611fe7565b6040516020818303038152906040529050610923888261091d8b60018a8a61098b565b86611151565b9150509695505050505050565b60045f9054906101000a900473ffffffffffffffffffffffffffffffffffffffff1681565b61095d610cdf565b61097282829061096d919061226c565b611232565b5050565b6001602052805f5260405f205f915090505481565b60605f60025f8763ffffffff1663ffffffff1681526020019081526020015f205f8661ffff1661ffff1681526020019081526020015f2080546109cd90611fa8565b80601f01602080910402602001604051908101604052809291908181526020018280546109f990611fa8565b8015610a445780601f10610a1b57610100808354040283529160200191610a44565b820191905f5260205f20905b815481529060010190602001808311610a2757829003601f168201915b505050505090505f815103610a9f5783838080601f0160208091040260200160405190810160405280939291908181526020018383808284375f81840152601f19601f82011690508083019250505050505050915050610b85565b5f8484905003610ab25780915050610b85565b60028484905010610b4657610b0984848080601f0160208091040260200160405190810160405280939291908181526020018383808284375f81840152601f19601f8201169050808301925050505050505061134a565b8084846002908092610b1d93929190612288565b604051602001610b2f93929190612320565b604051602081830303815290604052915050610b85565b83836040517f9a6d49cd000000000000000000000000000000000000000000000000000000008152600401610b7c929190612371565b60405180910390fd5b949350505050565b610b95610cdf565b7f000000000000000000000000000000000000000000000000000000000000000073ffffffffffffffffffffffffffffffffffffffff1663ca5eb5e1826040518263ffffffff1660e01b8152600401610bee9190611bd1565b5f604051808303815f87803b158015610c05575f5ffd5b505af1158015610c17573d5f5f3e3d5ffd5b5050505050565b610c26610cdf565b5f73ffffffffffffffffffffffffffffffffffffffff168173ffffffffffffffffffffffffffffffffffffffff1603610c96575f6040517f1e4fbdf7000000000000000000000000000000000000000000000000000000008152600401610c8d9190611bd1565b60405180910390fd5b610c9f81610f7a565b50565b5f816020013560015f845f016020810190610cbd9190611e56565b63ffffffff1663ffffffff1681526020019081526020015f2054149050919050565b610ce76113a3565b73ffffffffffffffffffffffffffffffffffffffff16610d0561085c565b73ffffffffffffffffffffffffffffffffffffffff1614610d6457610d286113a3565b6040517f118cdaa7000000000000000000000000000000000000000000000000000000008152600401610d5b9190611bd1565b60405180910390fd5b565b5f5f60015f8463ffffffff1663ffffffff1681526020019081526020015f205490505f5f1b8103610dce57826040517ff6ff4fb7000000000000000000000000000000000000000000000000000000008152600401610dc59190612393565b60405180910390fd5b80915050919050565b5f5f8686810190610de891906123e7565b91509150868660039182610dfd9291906125c6565b505f89602001355f1c905060045f9054906101000a900473ffffffffffffffffffffffffffffffffffffffff1673ffffffffffffffffffffffffffffffffffffffff1663fbf37739828486466040518563ffffffff1660e01b8152600401610e689493929190612693565b5f604051808303815f87803b158015610e7f575f5ffd5b505af1158015610e91573d5f5f3e3d5ffd5b505050508073ffffffffffffffffffffffffffffffffffffffff168a5f016020810190610ebe9190611e56565b63ffffffff167f1660e7e697bba926221b091a71bfee8ce9db3dad7a9ae9398a9a1fc7e7ac265b8c6040016020810190610ef89190612700565b85604051610f0792919061272b565b60405180910390a350505050505050505050565b8060015f8463ffffffff1663ffffffff1681526020019081526020015f20819055507f238399d427b947898edb290f5ff0f9109849b1c3ba196a42e35f00c50a54b98b8282604051610f6e929190611f54565b60405180910390a15050565b5f5f5f9054906101000a900473ffffffffffffffffffffffffffffffffffffffff169050815f5f6101000a81548173ffffffffffffffffffffffffffffffffffffffff021916908373ffffffffffffffffffffffffffffffffffffffff1602179055508173ffffffffffffffffffffffffffffffffffffffff168173ffffffffffffffffffffffffffffffffffffffff167f8be0079c531659141344cd1fd0a4f28419497f9722a3daafe3b4186f6b6457e060405160405180910390a35050565b611043611672565b5f611050845f01516113aa565b90505f8460200151111561106c5761106b84602001516113f7565b5b7f000000000000000000000000000000000000000000000000000000000000000073ffffffffffffffffffffffffffffffffffffffff16632637a450826040518060a001604052808b63ffffffff1681526020016110c98c610d66565b81526020018a81526020018981526020015f8960200151111515815250866040518463ffffffff1660e01b8152600401611104929190612841565b60806040518083038185885af1158015611120573d5f5f3e3d5ffd5b50505050506040513d601f19601f820116820180604052508101906111459190612959565b91505095945050505050565b61115961165a565b7f000000000000000000000000000000000000000000000000000000000000000073ffffffffffffffffffffffffffffffffffffffff1663ddc28c586040518060a001604052808863ffffffff1681526020016111b589610d66565b8152602001878152602001868152602001851515815250306040518363ffffffff1660e01b81526004016111ea929190612841565b6040805180830381865afa158015611204573d5f5f3e3d5ffd5b505050506040513d601f19601f820116820180604052508101906112289190612984565b9050949350505050565b5f5f90505b815181101561130f57611267828281518110611256576112556129af565b5b60200260200101516040015161134a565b81818151811061127a576112796129af565b5b60200260200101516040015160025f84848151811061129c5761129b6129af565b5b60200260200101515f015163ffffffff1663ffffffff1681526020019081526020015f205f8484815181106112d4576112d36129af565b5b60200260200101516020015161ffff1661ffff1681526020019081526020015f20908161130191906129dc565b508080600101915050611237565b507fbe4864a8e820971c0247f5992e2da559595f7bf076a21cb5928d443d2a13b6748160405161133f9190612bc2565b60405180910390a150565b5f60028201519050600361ffff168161ffff161461139f57816040517f9a6d49cd0000000000000000000000000000000000000000000000000000000081526004016113969190611992565b60405180910390fd5b5050565b5f33905090565b5f8134146113ef57346040517f9f7041200000000000000000000000000000000000000000000000000000000081526004016113e69190612be2565b60405180910390fd5b819050919050565b5f7f000000000000000000000000000000000000000000000000000000000000000073ffffffffffffffffffffffffffffffffffffffff1663e4fe1d946040518163ffffffff1660e01b8152600401602060405180830381865afa158015611461573d5f5f3e3d5ffd5b505050506040513d601f19601f820116820180604052508101906114859190612c0f565b90505f73ffffffffffffffffffffffffffffffffffffffff168173ffffffffffffffffffffffffffffffffffffffff16036114ec576040517f5373352a00000000000000000000000000000000000000000000000000000000815260040160405180910390fd5b611539337f0000000000000000000000000000000000000000000000000000000000000000848473ffffffffffffffffffffffffffffffffffffffff1661153d909392919063ffffffff16565b5050565b6115b9848573ffffffffffffffffffffffffffffffffffffffff166323b872dd86868660405160240161157293929190612c3a565b604051602081830303815290604052915060e01b6020820180517bffffffffffffffffffffffffffffffffffffffffffffffffffffffff83818316178352505050506115bf565b50505050565b5f5f60205f8451602086015f885af1806115de576040513d5f823e3d81fd5b3d92505f519150505f82146115f7576001811415611612565b5f8473ffffffffffffffffffffffffffffffffffffffff163b145b1561165457836040517f5274afe700000000000000000000000000000000000000000000000000000000815260040161164b9190611bd1565b60405180910390fd5b50505050565b60405180604001604052805f81526020015f81525090565b60405180606001604052805f81526020015f67ffffffffffffffff16815260200161169b61165a565b81525090565b5f604051905090565b5f5ffd5b5f5ffd5b5f73ffffffffffffffffffffffffffffffffffffffff82169050919050565b5f6116db826116b2565b9050919050565b6116eb816116d1565b81146116f5575f5ffd5b50565b5f81359050611706816116e2565b92915050565b5f60208284031215611721576117206116aa565b5b5f61172e848285016116f8565b91505092915050565b5f5ffd5b5f606082840312156117505761174f611737565b5b81905092915050565b5f819050919050565b61176b81611759565b8114611775575f5ffd5b50565b5f8135905061178681611762565b92915050565b5f5ffd5b5f5ffd5b5f5ffd5b5f5f83601f8401126117ad576117ac61178c565b5b8235905067ffffffffffffffff8111156117ca576117c9611790565b5b6020830191508360018202830111156117e6576117e5611794565b5b9250929050565b5f5f5f5f5f5f5f60e0888a031215611808576118076116aa565b5b5f6118158a828b0161173b565b97505060606118268a828b01611778565b965050608088013567ffffffffffffffff811115611847576118466116ae565b5b6118538a828b01611798565b955095505060a06118668a828b016116f8565b93505060c088013567ffffffffffffffff811115611887576118866116ae565b5b6118938a828b01611798565b925092505092959891949750929550565b5f67ffffffffffffffff82169050919050565b6118c0816118a4565b82525050565b5f6040820190506118d95f8301856118b7565b6118e660208301846118b7565b9392505050565b5f61ffff82169050919050565b611903816118ed565b82525050565b5f60208201905061191c5f8301846118fa565b92915050565b5f81519050919050565b5f82825260208201905092915050565b8281835e5f83830152505050565b5f601f19601f8301169050919050565b5f61196482611922565b61196e818561192c565b935061197e81856020860161193c565b6119878161194a565b840191505092915050565b5f6020820190508181035f8301526119aa818461195a565b905092915050565b5f63ffffffff82169050919050565b6119ca816119b2565b81146119d4575f5ffd5b50565b5f813590506119e5816119c1565b92915050565b5f5f60408385031215611a0157611a006116aa565b5b5f611a0e858286016119d7565b9250506020611a1f85828601611778565b9150509250929050565b611a32816118ed565b8114611a3c575f5ffd5b50565b5f81359050611a4d81611a29565b92915050565b5f5f60408385031215611a6957611a686116aa565b5b5f611a76858286016119d7565b9250506020611a8785828601611a3f565b9150509250929050565b5f819050919050565b5f611ab4611aaf611aaa846116b2565b611a91565b6116b2565b9050919050565b5f611ac582611a9a565b9050919050565b5f611ad682611abb565b9050919050565b611ae681611acc565b82525050565b5f602082019050611aff5f830184611add565b92915050565b5f602082019050611b185f8301846118b7565b92915050565b5f5f5f5f60a08587031215611b3657611b356116aa565b5b5f611b438782880161173b565b945050606085013567ffffffffffffffff811115611b6457611b636116ae565b5b611b7087828801611798565b93509350506080611b83878288016116f8565b91505092959194509250565b5f8115159050919050565b611ba381611b8f565b82525050565b5f602082019050611bbc5f830184611b9a565b92915050565b611bcb816116d1565b82525050565b5f602082019050611be45f830184611bc2565b92915050565b5f819050919050565b611bfc81611bea565b8114611c06575f5ffd5b50565b5f81359050611c1781611bf3565b92915050565b5f5f5f5f5f60808688031215611c3657611c356116aa565b5b5f611c43888289016119d7565b9550506020611c5488828901611c09565b9450506040611c65888289016116f8565b935050606086013567ffffffffffffffff811115611c8657611c856116ae565b5b611c9288828901611798565b92509250509295509295909350565b611caa81611b8f565b8114611cb4575f5ffd5b50565b5f81359050611cc581611ca1565b92915050565b5f5f5f5f5f5f60a08789031215611ce557611ce46116aa565b5b5f611cf289828a016119d7565b9650506020611d0389828a01611c09565b9550506040611d1489828a016116f8565b945050606087013567ffffffffffffffff811115611d3557611d346116ae565b5b611d4189828a01611798565b93509350506080611d5489828a01611cb7565b9150509295509295509295565b611d6a81611bea565b82525050565b604082015f820151611d845f850182611d61565b506020820151611d976020850182611d61565b50505050565b5f604082019050611db05f830184611d70565b92915050565b5f5f83601f840112611dcb57611dca61178c565b5b8235905067ffffffffffffffff811115611de857611de7611790565b5b602083019150836020820283011115611e0457611e03611794565b5b9250929050565b5f5f60208385031215611e2157611e206116aa565b5b5f83013567ffffffffffffffff811115611e3e57611e3d6116ae565b5b611e4a85828601611db6565b92509250509250929050565b5f60208284031215611e6b57611e6a6116aa565b5b5f611e78848285016119d7565b91505092915050565b611e8a81611759565b82525050565b5f602082019050611ea35f830184611e81565b92915050565b5f5f5f5f60608587031215611ec157611ec06116aa565b5b5f611ece878288016119d7565b9450506020611edf87828801611a3f565b935050604085013567ffffffffffffffff811115611f0057611eff6116ae565b5b611f0c87828801611798565b925092505092959194509250565b5f60608284031215611f2f57611f2e6116aa565b5b5f611f3c8482850161173b565b91505092915050565b611f4e816119b2565b82525050565b5f604082019050611f675f830185611f45565b611f746020830184611e81565b9392505050565b7f4e487b71000000000000000000000000000000000000000000000000000000005f52602260045260245ffd5b5f6002820490506001821680611fbf57607f821691505b602082108103611fd257611fd1611f7b565b5b50919050565b611fe181611bea565b82525050565b5f604082019050611ffa5f830185611fd8565b6120076020830184611bc2565b9392505050565b7f4e487b71000000000000000000000000000000000000000000000000000000005f52604160045260245ffd5b6120448261194a565b810181811067ffffffffffffffff821117156120635761206261200e565b5b80604052505050565b5f6120756116a1565b9050612081828261203b565b919050565b5f67ffffffffffffffff8211156120a05761209f61200e565b5b602082029050602081019050919050565b5f5ffd5b5f5ffd5b5f5ffd5b5f67ffffffffffffffff8211156120d7576120d661200e565b5b6120e08261194a565b9050602081019050919050565b828183375f83830152505050565b5f61210d612108846120bd565b61206c565b905082815260208101848484011115612129576121286120b9565b5b6121348482856120ed565b509392505050565b5f82601f8301126121505761214f61178c565b5b81356121608482602086016120fb565b91505092915050565b5f6060828403121561217e5761217d6120b1565b5b612188606061206c565b90505f612197848285016119d7565b5f8301525060206121aa84828501611a3f565b602083015250604082013567ffffffffffffffff8111156121ce576121cd6120b5565b5b6121da8482850161213c565b60408301525092915050565b5f6121f86121f384612086565b61206c565b9050808382526020820190506020840283018581111561221b5761221a611794565b5b835b8181101561226257803567ffffffffffffffff8111156122405761223f61178c565b5b80860161224d8982612169565b8552602085019450505060208101905061221d565b5050509392505050565b5f6122783684846121e6565b905092915050565b5f5ffd5b5f5ffd5b5f5f8585111561229b5761229a612280565b5b838611156122ac576122ab612284565b5b6001850283019150848603905094509492505050565b5f81905092915050565b5f6122d682611922565b6122e081856122c2565b93506122f081856020860161193c565b80840191505092915050565b5f61230783856122c2565b93506123148385846120ed565b82840190509392505050565b5f61232b82866122cc565b91506123388284866122fc565b9150819050949350505050565b5f612350838561192c565b935061235d8385846120ed565b6123668361194a565b840190509392505050565b5f6020820190508181035f83015261238a818486612345565b90509392505050565b5f6020820190506123a65f830184611f45565b92915050565b5f6123b6826116b2565b9050919050565b6123c6816123ac565b81146123d0575f5ffd5b50565b5f813590506123e1816123bd565b92915050565b5f5f604083850312156123fd576123fc6116aa565b5b5f61240a85828601611c09565b925050602061241b858286016123d3565b9150509250929050565b5f82905092915050565b5f819050815f5260205f209050919050565b5f6020601f8301049050919050565b5f82821b905092915050565b5f6008830261248b7fffffffffffffffffffffffffffffffffffffffffffffffffffffffffffffffff82612450565b6124958683612450565b95508019841693508086168417925050509392505050565b5f6124c76124c26124bd84611bea565b611a91565b611bea565b9050919050565b5f819050919050565b6124e0836124ad565b6124f46124ec826124ce565b84845461245c565b825550505050565b5f5f905090565b61250b6124fc565b6125168184846124d7565b505050565b5b818110156125395761252e5f82612503565b60018101905061251c565b5050565b601f82111561257e5761254f8161242f565b61255884612441565b81016020851015612567578190505b61257b61257385612441565b83018261251b565b50505b505050565b5f82821c905092915050565b5f61259e5f1984600802612583565b1980831691505092915050565b5f6125b6838361258f565b9150826002028217905092915050565b6125d08383612425565b67ffffffffffffffff8111156125e9576125e861200e565b5b6125f38254611fa8565b6125fe82828561253d565b5f601f83116001811461262b575f8415612619578287013590505b61262385826125ab565b86555061268a565b601f1984166126398661242f565b5f5b828110156126605784890135825560018201915060208501945060208101905061263b565b8683101561267d5784890135612679601f89168261258f565b8355505b6001600288020188555050505b50505050505050565b5f6080820190506126a65f830187611bc2565b6126b36020830186611bc2565b6126c06040830185611fd8565b6126cd6060830184611fd8565b95945050505050565b6126df816118a4565b81146126e9575f5ffd5b50565b5f813590506126fa816126d6565b92915050565b5f60208284031215612715576127146116aa565b5b5f612722848285016126ec565b91505092915050565b5f60408201905061273e5f8301856118b7565b61274b6020830184611bc2565b9392505050565b61275b816119b2565b82525050565b61276a81611759565b82525050565b5f82825260208201905092915050565b5f61278a82611922565b6127948185612770565b93506127a481856020860161193c565b6127ad8161194a565b840191505092915050565b6127c181611b8f565b82525050565b5f60a083015f8301516127dc5f860182612752565b5060208301516127ef6020860182612761565b50604083015184820360408601526128078282612780565b915050606083015184820360608601526128218282612780565b915050608083015161283660808601826127b8565b508091505092915050565b5f6040820190508181035f83015261285981856127c7565b90506128686020830184611bc2565b9392505050565b5f8151905061287d81611762565b92915050565b5f81519050612891816126d6565b92915050565b5f815190506128a581611bf3565b92915050565b5f604082840312156128c0576128bf6120b1565b5b6128ca604061206c565b90505f6128d984828501612897565b5f8301525060206128ec84828501612897565b60208301525092915050565b5f6080828403121561290d5761290c6120b1565b5b612917606061206c565b90505f6129268482850161286f565b5f83015250602061293984828501612883565b602083015250604061294d848285016128ab565b60408301525092915050565b5f6080828403121561296e5761296d6116aa565b5b5f61297b848285016128f8565b91505092915050565b5f60408284031215612999576129986116aa565b5b5f6129a6848285016128ab565b91505092915050565b7f4e487b71000000000000000000000000000000000000000000000000000000005f52603260045260245ffd5b6129e582611922565b67ffffffffffffffff8111156129fe576129fd61200e565b5b612a088254611fa8565b612a1382828561253d565b5f60209050601f831160018114612a44575f8415612a32578287015190505b612a3c85826125ab565b865550612aa3565b601f198416612a528661242f565b5f5b82811015612a7957848901518255600182019150602085019450602081019050612a54565b86831015612a965784890151612a92601f89168261258f565b8355505b6001600288020188555050505b505050505050565b5f81519050919050565b5f82825260208201905092915050565b5f819050602082019050919050565b612add816118ed565b82525050565b5f606083015f830151612af85f860182612752565b506020830151612b0b6020860182612ad4565b5060408301518482036040860152612b238282612780565b9150508091505092915050565b5f612b3b8383612ae3565b905092915050565b5f602082019050919050565b5f612b5982612aab565b612b638185612ab5565b935083602082028501612b7585612ac5565b805f5b85811015612bb05784840389528151612b918582612b30565b9450612b9c83612b43565b925060208a01995050600181019050612b78565b50829750879550505050505092915050565b5f6020820190508181035f830152612bda8184612b4f565b905092915050565b5f602082019050612bf55f830184611fd8565b92915050565b5f81519050612c09816116e2565b92915050565b5f60208284031215612c2457612c236116aa565b5b5f612c3184828501612bfb565b91505092915050565b5f606082019050612c4d5f830186611bc2565b612c5a6020830185611bc2565b612c676040830184611fd8565b94935050505056fea26469706673582212204e6495df16c2c6f37855aa5fdc6b2aa42b3cae8d92bb245c4ed1b9957dab72f364736f6c634300081e00330000000000000000000000001a44076050125825900e736c501f859c50fe728c000000000000000000000000ee03621ce83bbf6e3931bccf35b144354f16ccf7",
        "nonce": "0x2c",
        "chainId": "0x2105"
      },
      "additionalContracts": [],
      "isFixedGasLimit": false
    },
    {
      "hash": "0xa81940c679efdf7d065133e402f585285b436051e6df44a0b7f533ec9305edf4",
      "transactionType": "CALL",
      "contractName": "OAppBorrow",
      "contractAddress": "0x548465328d18822ee31bea8cfcab945879d76f5c",
      "function": "setLendingPool(address)",
      "arguments": [
        "0x0000000000000000000000000000000000000000"
      ],
      "transaction": {
        "from": "0xee03621ce83bbf6e3931bccf35b144354f16ccf7",
        "to": "0x548465328d18822ee31bea8cfcab945879d76f5c",
        "gas": "0x9caf",
        "value": "0x0",
        "input": "0x113aa8b10000000000000000000000000000000000000000000000000000000000000000",
        "nonce": "0x2d",
        "chainId": "0x2105"
      },
      "additionalContracts": [],
      "isFixedGasLimit": false
    },
    {
      "hash": "0x14e5179a0605e1e20a62d764af5130df278ce33d14bfe5099894a064d3adf122",
      "transactionType": "CALL",
      "contractName": null,
      "contractAddress": "0x1a44076050125825900e736c501f859c50fe728c",
      "function": "setSendLibrary(address,uint32,address)",
      "arguments": [
        "0x548465328d18822eE31bEA8Cfcab945879D76f5C",
        "30367",
        "0xB5320B0B3a13cC860893E2Bd79FCd7e13484Dda2"
      ],
      "transaction": {
        "from": "0xee03621ce83bbf6e3931bccf35b144354f16ccf7",
        "to": "0x1a44076050125825900e736c501f859c50fe728c",
        "gas": "0x1378b",
        "value": "0x0",
        "input": "0x9535ff30000000000000000000000000548465328d18822ee31bea8cfcab945879d76f5c000000000000000000000000000000000000000000000000000000000000769f000000000000000000000000b5320b0b3a13cc860893e2bd79fcd7e13484dda2",
        "nonce": "0x2e",
        "chainId": "0x2105"
      },
      "additionalContracts": [],
      "isFixedGasLimit": false
    },
    {
      "hash": "0x1f14f657e705a659abcbc39250c57a7295b23f7a6640ee7b727f83e4a49bbe67",
      "transactionType": "CALL",
      "contractName": null,
      "contractAddress": "0x1a44076050125825900e736c501f859c50fe728c",
      "function": "setReceiveLibrary(address,uint32,address,uint256)",
      "arguments": [
        "0x548465328d18822eE31bEA8Cfcab945879D76f5C",
        "30184",
        "0xc70AB6f32772f59fBfc23889Caf4Ba3376C84bAf",
        "0"
      ],
      "transaction": {
        "from": "0xee03621ce83bbf6e3931bccf35b144354f16ccf7",
        "to": "0x1a44076050125825900e736c501f859c50fe728c",
        "gas": "0x17001",
        "value": "0x0",
        "input": "0x6a14d715000000000000000000000000548465328d18822ee31bea8cfcab945879d76f5c00000000000000000000000000000000000000000000000000000000000075e8000000000000000000000000c70ab6f32772f59fbfc23889caf4ba3376c84baf0000000000000000000000000000000000000000000000000000000000000000",
        "nonce": "0x2f",
        "chainId": "0x2105"
      },
      "additionalContracts": [],
      "isFixedGasLimit": false
    },
    {
      "hash": "0xd492f89b4c8d096d89fb61192ac3567ad7e60d1ae2e52f578c1f3896d957c43a",
      "transactionType": "CALL",
      "contractName": null,
      "contractAddress": "0x1a44076050125825900e736c501f859c50fe728c",
      "function": "setConfig(address,address,(uint32,uint32,bytes)[])",
      "arguments": [
        "0x548465328d18822eE31bEA8Cfcab945879D76f5C",
        "0xB5320B0B3a13cC860893E2Bd79FCd7e13484Dda2",
        "[(30184, 1, 0x00000000000000000000000000000000000000000000000000000000000027100000000000000000000000002cca08ae69e0c44b18a57ab2a87644234daebae4), (30184, 2, 0x0000000000000000000000000000000000000000000000000000000000000020000000000000000000000000000000000000000000000000000000000000000f000000000000000000000000000000000000000000000000000000000000000200000000000000000000000000000000000000000000000000000000000000ff000000000000000000000000000000000000000000000000000000000000000000000000000000000000000000000000000000000000000000000000000000c000000000000000000000000000000000000000000000000000000000000001200000000000000000000000000000000000000000000000000000000000000002000000000000000000000000554833698ae0fb22ecc90b01222903fd62ca4b47000000000000000000000000a7b5189bca84cd304d8553977c7c614329750d990000000000000000000000000000000000000000000000000000000000000000), (30367, 1, 0x00000000000000000000000000000000000000000000000000000000000027100000000000000000000000002cca08ae69e0c44b18a57ab2a87644234daebae4), (30367, 2, 0x0000000000000000000000000000000000000000000000000000000000000020000000000000000000000000000000000000000000000000000000000000000f000000000000000000000000000000000000000000000000000000000000000200000000000000000000000000000000000000000000000000000000000000ff000000000000000000000000000000000000000000000000000000000000000000000000000000000000000000000000000000000000000000000000000000c000000000000000000000000000000000000000000000000000000000000001200000000000000000000000000000000000000000000000000000000000000002000000000000000000000000554833698ae0fb22ecc90b01222903fd62ca4b47000000000000000000000000a7b5189bca84cd304d8553977c7c614329750d990000000000000000000000000000000000000000000000000000000000000000)]"
      ],
      "transaction": {
        "from": "0xee03621ce83bbf6e3931bccf35b144354f16ccf7",
        "to": "0x1a44076050125825900e736c501f859c50fe728c",
        "gas": "0x6607c",
        "value": "0x0",
        "input": "0x6dbd9f90000000000000000000000000548465328d18822ee31bea8cfcab945879d76f5c000000000000000000000000b5320b0b3a13cc860893e2bd79fcd7e13484dda20000000000000000000000000000000000000000000000000000000000000060000000000000000000000000000000000000000000000000000000000000000400000000000000000000000000000000000000000000000000000000000000800000000000000000000000000000000000000000000000000000000000000140000000000000000000000000000000000000000000000000000000000000032000000000000000000000000000000000000000000000000000000000000003e000000000000000000000000000000000000000000000000000000000000075e800000000000000000000000000000000000000000000000000000000000000010000000000000000000000000000000000000000000000000000000000000060000000000000000000000000000000000000000000000000000000000000004000000000000000000000000000000000000000000000000000000000000027100000000000000000000000002cca08ae69e0c44b18a57ab2a87644234daebae400000000000000000000000000000000000000000000000000000000000075e80000000000000000000000000000000000000000000000000000000000000002000000000000000000000000000000000000000000000000000000000000006000000000000000000000000000000000000000000000000000000000000001600000000000000000000000000000000000000000000000000000000000000020000000000000000000000000000000000000000000000000000000000000000f000000000000000000000000000000000000000000000000000000000000000200000000000000000000000000000000000000000000000000000000000000ff000000000000000000000000000000000000000000000000000000000000000000000000000000000000000000000000000000000000000000000000000000c000000000000000000000000000000000000000000000000000000000000001200000000000000000000000000000000000000000000000000000000000000002000000000000000000000000554833698ae0fb22ecc90b01222903fd62ca4b47000000000000000000000000a7b5189bca84cd304d8553977c7c614329750d990000000000000000000000000000000000000000000000000000000000000000000000000000000000000000000000000000000000000000000000000000769f00000000000000000000000000000000000000000000000000000000000000010000000000000000000000000000000000000000000000000000000000000060000000000000000000000000000000000000000000000000000000000000004000000000000000000000000000000000000000000000000000000000000027100000000000000000000000002cca08ae69e0c44b18a57ab2a87644234daebae4000000000000000000000000000000000000000000000000000000000000769f0000000000000000000000000000000000000000000000000000000000000002000000000000000000000000000000000000000000000000000000000000006000000000000000000000000000000000000000000000000000000000000001600000000000000000000000000000000000000000000000000000000000000020000000000000000000000000000000000000000000000000000000000000000f000000000000000000000000000000000000000000000000000000000000000200000000000000000000000000000000000000000000000000000000000000ff000000000000000000000000000000000000000000000000000000000000000000000000000000000000000000000000000000000000000000000000000000c000000000000000000000000000000000000000000000000000000000000001200000000000000000000000000000000000000000000000000000000000000002000000000000000000000000554833698ae0fb22ecc90b01222903fd62ca4b47000000000000000000000000a7b5189bca84cd304d8553977c7c614329750d990000000000000000000000000000000000000000000000000000000000000000",
        "nonce": "0x30",
        "chainId": "0x2105"
      },
      "additionalContracts": [],
      "isFixedGasLimit": false
    },
    {
      "hash": "0x57ac61f5a8d21240858b328d5af4aea64ed72b16cc605d5d05f3e52cf346a696",
      "transactionType": "CALL",
      "contractName": null,
      "contractAddress": "0x1a44076050125825900e736c501f859c50fe728c",
      "function": "setConfig(address,address,(uint32,uint32,bytes)[])",
      "arguments": [
        "0x548465328d18822eE31bEA8Cfcab945879D76f5C",
        "0xc70AB6f32772f59fBfc23889Caf4Ba3376C84bAf",
        "[(30184, 2, 0x0000000000000000000000000000000000000000000000000000000000000020000000000000000000000000000000000000000000000000000000000000000f000000000000000000000000000000000000000000000000000000000000000200000000000000000000000000000000000000000000000000000000000000ff000000000000000000000000000000000000000000000000000000000000000000000000000000000000000000000000000000000000000000000000000000c000000000000000000000000000000000000000000000000000000000000001200000000000000000000000000000000000000000000000000000000000000002000000000000000000000000554833698ae0fb22ecc90b01222903fd62ca4b47000000000000000000000000a7b5189bca84cd304d8553977c7c614329750d990000000000000000000000000000000000000000000000000000000000000000), (30367, 2, 0x0000000000000000000000000000000000000000000000000000000000000020000000000000000000000000000000000000000000000000000000000000000f000000000000000000000000000000000000000000000000000000000000000200000000000000000000000000000000000000000000000000000000000000ff000000000000000000000000000000000000000000000000000000000000000000000000000000000000000000000000000000000000000000000000000000c000000000000000000000000000000000000000000000000000000000000001200000000000000000000000000000000000000000000000000000000000000002000000000000000000000000554833698ae0fb22ecc90b01222903fd62ca4b47000000000000000000000000a7b5189bca84cd304d8553977c7c614329750d990000000000000000000000000000000000000000000000000000000000000000)]"
      ],
      "transaction": {
        "from": "0xee03621ce83bbf6e3931bccf35b144354f16ccf7",
        "to": "0x1a44076050125825900e736c501f859c50fe728c",
        "gas": "0x5818a",
        "value": "0x0",
        "input": "0x6dbd9f90000000000000000000000000548465328d18822ee31bea8cfcab945879d76f5c000000000000000000000000c70ab6f32772f59fbfc23889caf4ba3376c84baf000000000000000000000000000000000000000000000000000000000000006000000000000000000000000000000000000000000000000000000000000000020000000000000000000000000000000000000000000000000000000000000040000000000000000000000000000000000000000000000000000000000000022000000000000000000000000000000000000000000000000000000000000075e80000000000000000000000000000000000000000000000000000000000000002000000000000000000000000000000000000000000000000000000000000006000000000000000000000000000000000000000000000000000000000000001600000000000000000000000000000000000000000000000000000000000000020000000000000000000000000000000000000000000000000000000000000000f000000000000000000000000000000000000000000000000000000000000000200000000000000000000000000000000000000000000000000000000000000ff000000000000000000000000000000000000000000000000000000000000000000000000000000000000000000000000000000000000000000000000000000c000000000000000000000000000000000000000000000000000000000000001200000000000000000000000000000000000000000000000000000000000000002000000000000000000000000554833698ae0fb22ecc90b01222903fd62ca4b47000000000000000000000000a7b5189bca84cd304d8553977c7c614329750d990000000000000000000000000000000000000000000000000000000000000000000000000000000000000000000000000000000000000000000000000000769f0000000000000000000000000000000000000000000000000000000000000002000000000000000000000000000000000000000000000000000000000000006000000000000000000000000000000000000000000000000000000000000001600000000000000000000000000000000000000000000000000000000000000020000000000000000000000000000000000000000000000000000000000000000f000000000000000000000000000000000000000000000000000000000000000200000000000000000000000000000000000000000000000000000000000000ff000000000000000000000000000000000000000000000000000000000000000000000000000000000000000000000000000000000000000000000000000000c000000000000000000000000000000000000000000000000000000000000001200000000000000000000000000000000000000000000000000000000000000002000000000000000000000000554833698ae0fb22ecc90b01222903fd62ca4b47000000000000000000000000a7b5189bca84cd304d8553977c7c614329750d990000000000000000000000000000000000000000000000000000000000000000",
        "nonce": "0x31",
        "chainId": "0x2105"
      },
      "additionalContracts": [],
      "isFixedGasLimit": false
    }
  ],
  "receipts": [
    {
      "status": "0x1",
      "cumulativeGasUsed": "0x229c47b",
      "logs": [
        {
          "address": "0x548465328d18822ee31bea8cfcab945879d76f5c",
          "topics": [
            "0x8be0079c531659141344cd1fd0a4f28419497f9722a3daafe3b4186f6b6457e0",
            "0x0000000000000000000000000000000000000000000000000000000000000000",
            "0x000000000000000000000000ee03621ce83bbf6e3931bccf35b144354f16ccf7"
          ],
          "data": "0x",
          "blockHash": "0x4fe5c89a5b68c743a3ced67b0f3e7ffd23ee0d3c35bb2863b233d5de7807eae7",
          "blockNumber": "0x232bc03",
          "blockTimestamp": "0x68efd4e9",
          "transactionHash": "0x328150809d7a8a9828bed38882491083f0d2f48131260186baf500fa55aa92da",
          "transactionIndex": "0x82",
          "logIndex": "0x22c",
          "removed": false
        },
        {
          "address": "0x1a44076050125825900e736c501f859c50fe728c",
          "topics": [
            "0x6ee10e9ed4d6ce9742703a498707862f4b00f1396a87195eb93267b3d7983981"
          ],
          "data": "0x000000000000000000000000548465328d18822ee31bea8cfcab945879d76f5c000000000000000000000000ee03621ce83bbf6e3931bccf35b144354f16ccf7",
          "blockHash": "0x4fe5c89a5b68c743a3ced67b0f3e7ffd23ee0d3c35bb2863b233d5de7807eae7",
          "blockNumber": "0x232bc03",
          "blockTimestamp": "0x68efd4e9",
          "transactionHash": "0x328150809d7a8a9828bed38882491083f0d2f48131260186baf500fa55aa92da",
          "transactionIndex": "0x82",
          "logIndex": "0x22d",
          "removed": false
        }
      ],
      "logsBloom": "0x00000000000000000000000000000000000000000000000000800000001000000000000000000000000000000000000000000002000000000000000000000000000000000000000000000010040000000001000000000000000000000000000000000000020000000000000000000800000000000010000000000000000000400000000000000000100000000000000000000000000000000000000000000000000000000000000000000000000000000000400000000000000000000000000400000000000000000000000010000000000000000000080000000000000020000000000000000000000000000000000000000000010000000000000000000000",
      "type": "0x2",
      "transactionHash": "0x328150809d7a8a9828bed38882491083f0d2f48131260186baf500fa55aa92da",
      "transactionIndex": "0x82",
      "blockHash": "0x4fe5c89a5b68c743a3ced67b0f3e7ffd23ee0d3c35bb2863b233d5de7807eae7",
      "blockNumber": "0x232bc03",
      "gasUsed": "0x276c45",
      "effectiveGasPrice": "0x71512b",
      "from": "0xee03621ce83bbf6e3931bccf35b144354f16ccf7",
      "to": null,
      "contractAddress": "0x548465328d18822ee31bea8cfcab945879d76f5c",
      "l1BaseFeeScalar": "0x8dd",
      "l1BlobBaseFee": "0x1",
      "l1BlobBaseFeeScalar": "0x101c12",
      "l1Fee": "0x1731b3b2f",
      "l1GasPrice": "0x35937514",
      "l1GasUsed": "0x17762"
    },
    {
      "status": "0x1",
      "cumulativeGasUsed": "0x22a2f9e",
      "logs": [
        {
          "address": "0x548465328d18822ee31bea8cfcab945879d76f5c",
          "topics": [
            "0x7c3dfe69126e8f8130fd09c600fd8fcba2acbe0c696d598c771f23a12ce811df"
          ],
          "data": "0x0000000000000000000000000000000000000000000000000000000000000000",
          "blockHash": "0x4fe5c89a5b68c743a3ced67b0f3e7ffd23ee0d3c35bb2863b233d5de7807eae7",
          "blockNumber": "0x232bc03",
          "blockTimestamp": "0x68efd4e9",
          "transactionHash": "0xa81940c679efdf7d065133e402f585285b436051e6df44a0b7f533ec9305edf4",
          "transactionIndex": "0x83",
          "logIndex": "0x22e",
          "removed": false
        }
      ],
      "logsBloom": "0x00000000000000000000000000000800000000000000000000000000000000000000000000000000000000000000000000000008000000000000000000000000000000000000000000000000000000000000000000000000000000000000000000000000000000000000000000000000000000000000000000000000000000000000000000000000100000000000000000000000000000000000000000000000000000000000000000000000000000000000400000000000000000000000000000000000000000000000000000000000000000000000080000000000000000000000000000000000000000000000000000000000000000000000000000000000",
      "type": "0x2",
      "transactionHash": "0xa81940c679efdf7d065133e402f585285b436051e6df44a0b7f533ec9305edf4",
      "transactionIndex": "0x83",
      "blockHash": "0x4fe5c89a5b68c743a3ced67b0f3e7ffd23ee0d3c35bb2863b233d5de7807eae7",
      "blockNumber": "0x232bc03",
      "gasUsed": "0x6b23",
      "effectiveGasPrice": "0x71512b",
      "from": "0xee03621ce83bbf6e3931bccf35b144354f16ccf7",
      "to": "0x548465328d18822ee31bea8cfcab945879d76f5c",
      "contractAddress": null,
      "l1BaseFeeScalar": "0x8dd",
      "l1BlobBaseFee": "0x1",
      "l1BlobBaseFeeScalar": "0x101c12",
      "l1Fee": "0xc2809911",
      "l1GasPrice": "0x35937514",
      "l1GasUsed": "0x640"
    },
    {
      "status": "0x1",
      "cumulativeGasUsed": "0x22b112c",
      "logs": [
        {
          "address": "0x1a44076050125825900e736c501f859c50fe728c",
          "topics": [
            "0x4cff966ebee29a156dcb34cf72c1d06231fb1777f6bdf6e8089819232f002b1c"
          ],
          "data": "0x000000000000000000000000548465328d18822ee31bea8cfcab945879d76f5c000000000000000000000000000000000000000000000000000000000000769f000000000000000000000000b5320b0b3a13cc860893e2bd79fcd7e13484dda2",
          "blockHash": "0xf3f2b2180bfc73c51364a9691f678c633176eb92573e7bc4679c02cabcb86312",
          "blockNumber": "0x232bc03",
          "blockTimestamp": "0x68efd4e9",
          "transactionHash": "0x14e5179a0605e1e20a62d764af5130df278ce33d14bfe5099894a064d3adf122",
          "transactionIndex": "0x84",
          "logIndex": "0x22f",
          "removed": false
        }
      ],
      "logsBloom": "0x00000000000000000000000000000000000200000000000000000000001000000000000000000000000000000000000000000000000000000000000001000000000000000000000000000000000000000000000000000000000000000000000000000000000000000000000000000000000000000010000000000000000000000000000000000000000000000000000000000000000000000000000000000000000000000000000000000000000000000000000000000000000000000000000000000000000000000000000000000000000000000000000000000000000000000040000000000000000000000000000000000000010000000000000000000000",
      "type": "0x2",
      "transactionHash": "0x14e5179a0605e1e20a62d764af5130df278ce33d14bfe5099894a064d3adf122",
      "transactionIndex": "0x84",
      "blockHash": "0xf3f2b2180bfc73c51364a9691f678c633176eb92573e7bc4679c02cabcb86312",
      "blockNumber": "0x232bc03",
      "gasUsed": "0xe18e",
      "effectiveGasPrice": "0x71512b",
      "from": "0xee03621ce83bbf6e3931bccf35b144354f16ccf7",
      "to": "0x1a44076050125825900e736c501f859c50fe728c",
      "contractAddress": null,
      "l1BaseFeeScalar": "0x8dd",
      "l1BlobBaseFee": "0x1",
      "l1BlobBaseFeeScalar": "0x101c12",
      "l1Fee": "0xcd26b15f",
      "l1GasPrice": "0x35937514",
      "l1GasUsed": "0x697"
    },
    {
      "status": "0x1",
      "cumulativeGasUsed": "0x77c75a",
      "logs": [
        {
          "address": "0x1a44076050125825900e736c501f859c50fe728c",
          "topics": [
            "0xcd6f92f5ac6185a5acfa02c92090746cec64d777269cbcd0ed031e396657a1c2"
          ],
          "data": "0x000000000000000000000000548465328d18822ee31bea8cfcab945879d76f5c00000000000000000000000000000000000000000000000000000000000075e8000000000000000000000000c70ab6f32772f59fbfc23889caf4ba3376c84baf",
          "blockHash": "0xd16e86745bb08a71c1d6cc8890d56aad7ca8acf5f6a9bf6a26a42d48bb800a06",
          "blockNumber": "0x232bc04",
          "blockTimestamp": "0x68efd4eb",
          "transactionHash": "0x1f14f657e705a659abcbc39250c57a7295b23f7a6640ee7b727f83e4a49bbe67",
          "transactionIndex": "0x23",
          "logIndex": "0xbd",
          "removed": false
        },
        {
          "address": "0x1a44076050125825900e736c501f859c50fe728c",
          "topics": [
            "0x4e0a5bbfa0c11a64effb1ada324b5437a17272e1aed9320398715ef71bb20928"
          ],
          "data": "0x000000000000000000000000548465328d18822ee31bea8cfcab945879d76f5c00000000000000000000000000000000000000000000000000000000000075e800000000000000000000000000000000000000000000000000000000000000000000000000000000000000000000000000000000000000000000000000000000",
          "blockHash": "0xd16e86745bb08a71c1d6cc8890d56aad7ca8acf5f6a9bf6a26a42d48bb800a06",
          "blockNumber": "0x232bc04",
          "blockTimestamp": "0x68efd4eb",
          "transactionHash": "0x1f14f657e705a659abcbc39250c57a7295b23f7a6640ee7b727f83e4a49bbe67",
          "transactionIndex": "0x23",
          "logIndex": "0xbe",
          "removed": false
        }
      ],
      "logsBloom": "0x00000000000000000000020800000000000000000000000000000000001000020400000000000000000000000000000000000000000000000000000000000000000000000000000000000000000000000000000000800000000000000000000000000000000000000000000000000000000000000010000000000000000000100000000000000000000000000000000000000000000000000000000000000000000000000000000000000000000000000000000000000000000000000000000000000000000000000000000000000000000000000000000000000000000000000000000000000000000000000000000000000000010000000000000000000000",
      "type": "0x2",
      "transactionHash": "0x1f14f657e705a659abcbc39250c57a7295b23f7a6640ee7b727f83e4a49bbe67",
      "transactionIndex": "0x23",
      "blockHash": "0xd16e86745bb08a71c1d6cc8890d56aad7ca8acf5f6a9bf6a26a42d48bb800a06",
      "blockNumber": "0x232bc04",
      "gasUsed": "0xfba1",
      "effectiveGasPrice": "0x71318e",
      "from": "0xee03621ce83bbf6e3931bccf35b144354f16ccf7",
      "to": "0x1a44076050125825900e736c501f859c50fe728c",
      "contractAddress": null,
      "l1BaseFeeScalar": "0x8dd",
      "l1BlobBaseFee": "0x1",
      "l1BlobBaseFeeScalar": "0x101c12",
      "l1Fee": "0x2fdbb13b6",
      "l1GasPrice": "0x35de0ab0",
      "l1GasUsed": "0x6f5"
    },
    {
      "status": "0x1",
      "cumulativeGasUsed": "0x7c653e",
      "logs": [
        {
          "address": "0xb5320b0b3a13cc860893e2bd79fcd7e13484dda2",
          "topics": [
            "0x779cb2dd9d2bb1be1737d05435d744facbfb84a2a4912e21379d39beddcdc805"
          ],
          "data": "0x000000000000000000000000548465328d18822ee31bea8cfcab945879d76f5c00000000000000000000000000000000000000000000000000000000000075e800000000000000000000000000000000000000000000000000000000000027100000000000000000000000002cca08ae69e0c44b18a57ab2a87644234daebae4",
          "blockHash": "0xdf5e86cce8e6370995b0bf3248eea1c6c1d788269de7b9fc6d665e36a8b22195",
          "blockNumber": "0x232bc04",
          "blockTimestamp": "0x68efd4eb",
          "transactionHash": "0xd492f89b4c8d096d89fb61192ac3567ad7e60d1ae2e52f578c1f3896d957c43a",
          "transactionIndex": "0x24",
          "logIndex": "0xbf",
          "removed": false
        },
        {
          "address": "0xb5320b0b3a13cc860893e2bd79fcd7e13484dda2",
          "topics": [
            "0x82118522aa536ac0e96cc5c689407ae42b89d592aa133890a01f1509842f5081"
          ],
          "data": "0x000000000000000000000000548465328d18822ee31bea8cfcab945879d76f5c00000000000000000000000000000000000000000000000000000000000075e80000000000000000000000000000000000000000000000000000000000000060000000000000000000000000000000000000000000000000000000000000000f000000000000000000000000000000000000000000000000000000000000000200000000000000000000000000000000000000000000000000000000000000ff000000000000000000000000000000000000000000000000000000000000000000000000000000000000000000000000000000000000000000000000000000c000000000000000000000000000000000000000000000000000000000000001200000000000000000000000000000000000000000000000000000000000000002000000000000000000000000554833698ae0fb22ecc90b01222903fd62ca4b47000000000000000000000000a7b5189bca84cd304d8553977c7c614329750d990000000000000000000000000000000000000000000000000000000000000000",
          "blockHash": "0xdf5e86cce8e6370995b0bf3248eea1c6c1d788269de7b9fc6d665e36a8b22195",
          "blockNumber": "0x232bc04",
          "blockTimestamp": "0x68efd4eb",
          "transactionHash": "0xd492f89b4c8d096d89fb61192ac3567ad7e60d1ae2e52f578c1f3896d957c43a",
          "transactionIndex": "0x24",
          "logIndex": "0xc0",
          "removed": false
        },
        {
          "address": "0xb5320b0b3a13cc860893e2bd79fcd7e13484dda2",
          "topics": [
            "0x779cb2dd9d2bb1be1737d05435d744facbfb84a2a4912e21379d39beddcdc805"
          ],
          "data": "0x000000000000000000000000548465328d18822ee31bea8cfcab945879d76f5c000000000000000000000000000000000000000000000000000000000000769f00000000000000000000000000000000000000000000000000000000000027100000000000000000000000002cca08ae69e0c44b18a57ab2a87644234daebae4",
          "blockHash": "0xdf5e86cce8e6370995b0bf3248eea1c6c1d788269de7b9fc6d665e36a8b22195",
          "blockNumber": "0x232bc04",
          "blockTimestamp": "0x68efd4eb",
          "transactionHash": "0xd492f89b4c8d096d89fb61192ac3567ad7e60d1ae2e52f578c1f3896d957c43a",
          "transactionIndex": "0x24",
          "logIndex": "0xc1",
          "removed": false
        },
        {
          "address": "0xb5320b0b3a13cc860893e2bd79fcd7e13484dda2",
          "topics": [
            "0x82118522aa536ac0e96cc5c689407ae42b89d592aa133890a01f1509842f5081"
          ],
          "data": "0x000000000000000000000000548465328d18822ee31bea8cfcab945879d76f5c000000000000000000000000000000000000000000000000000000000000769f0000000000000000000000000000000000000000000000000000000000000060000000000000000000000000000000000000000000000000000000000000000f000000000000000000000000000000000000000000000000000000000000000200000000000000000000000000000000000000000000000000000000000000ff000000000000000000000000000000000000000000000000000000000000000000000000000000000000000000000000000000000000000000000000000000c000000000000000000000000000000000000000000000000000000000000001200000000000000000000000000000000000000000000000000000000000000002000000000000000000000000554833698ae0fb22ecc90b01222903fd62ca4b47000000000000000000000000a7b5189bca84cd304d8553977c7c614329750d990000000000000000000000000000000000000000000000000000000000000000",
          "blockHash": "0xdf5e86cce8e6370995b0bf3248eea1c6c1d788269de7b9fc6d665e36a8b22195",
          "blockNumber": "0x232bc04",
          "blockTimestamp": "0x68efd4eb",
          "transactionHash": "0xd492f89b4c8d096d89fb61192ac3567ad7e60d1ae2e52f578c1f3896d957c43a",
          "transactionIndex": "0x24",
          "logIndex": "0xc2",
          "removed": false
        }
      ],
      "logsBloom": "0x00000000000000000000000000000000000000000000000000000000000000000000000000000000000000000000000000000000000000000000000000000000000000000000000000000440000000000000000000000000002000000000000100000000000000000000000000000000000000000000000000000000000000000000000000000000000000000000000000000000000000000004000000000000000000000000000000000002000000000000000000000000000000000000000200000000000000000000000000000000000000000000000000000000000000000008000000000000000000000000000000000000000000000000000000000010",
      "type": "0x2",
      "transactionHash": "0xd492f89b4c8d096d89fb61192ac3567ad7e60d1ae2e52f578c1f3896d957c43a",
      "transactionIndex": "0x24",
      "blockHash": "0xdf5e86cce8e6370995b0bf3248eea1c6c1d788269de7b9fc6d665e36a8b22195",
      "blockNumber": "0x232bc04",
      "gasUsed": "0x49de4",
      "effectiveGasPrice": "0x71318e",
      "from": "0xee03621ce83bbf6e3931bccf35b144354f16ccf7",
      "to": "0x1a44076050125825900e736c501f859c50fe728c",
      "contractAddress": null,
      "l1BaseFeeScalar": "0x8dd",
      "l1BlobBaseFee": "0x1",
      "l1BlobBaseFeeScalar": "0x101c12",
      "l1Fee": "0x2fdbb13b6",
      "l1GasPrice": "0x35de0ab0",
      "l1GasUsed": "0x12c6"
    },
    {
      "status": "0x1",
      "cumulativeGasUsed": "0x802908",
      "logs": [
        {
          "address": "0xc70ab6f32772f59fbfc23889caf4ba3376c84baf",
          "topics": [
            "0x82118522aa536ac0e96cc5c689407ae42b89d592aa133890a01f1509842f5081"
          ],
          "data": "0x000000000000000000000000548465328d18822ee31bea8cfcab945879d76f5c00000000000000000000000000000000000000000000000000000000000075e80000000000000000000000000000000000000000000000000000000000000060000000000000000000000000000000000000000000000000000000000000000f000000000000000000000000000000000000000000000000000000000000000200000000000000000000000000000000000000000000000000000000000000ff000000000000000000000000000000000000000000000000000000000000000000000000000000000000000000000000000000000000000000000000000000c000000000000000000000000000000000000000000000000000000000000001200000000000000000000000000000000000000000000000000000000000000002000000000000000000000000554833698ae0fb22ecc90b01222903fd62ca4b47000000000000000000000000a7b5189bca84cd304d8553977c7c614329750d990000000000000000000000000000000000000000000000000000000000000000",
          "blockHash": "0xd16e86745bb08a71c1d6cc8890d56aad7ca8acf5f6a9bf6a26a42d48bb800a06",
          "blockNumber": "0x232bc04",
          "blockTimestamp": "0x68efd4eb",
          "transactionHash": "0x57ac61f5a8d21240858b328d5af4aea64ed72b16cc605d5d05f3e52cf346a696",
          "transactionIndex": "0x25",
          "logIndex": "0xc3",
          "removed": false
        },
        {
          "address": "0xc70ab6f32772f59fbfc23889caf4ba3376c84baf",
          "topics": [
            "0x82118522aa536ac0e96cc5c689407ae42b89d592aa133890a01f1509842f5081"
          ],
          "data": "0x000000000000000000000000548465328d18822ee31bea8cfcab945879d76f5c000000000000000000000000000000000000000000000000000000000000769f0000000000000000000000000000000000000000000000000000000000000060000000000000000000000000000000000000000000000000000000000000000f000000000000000000000000000000000000000000000000000000000000000200000000000000000000000000000000000000000000000000000000000000ff000000000000000000000000000000000000000000000000000000000000000000000000000000000000000000000000000000000000000000000000000000c000000000000000000000000000000000000000000000000000000000000001200000000000000000000000000000000000000000000000000000000000000002000000000000000000000000554833698ae0fb22ecc90b01222903fd62ca4b47000000000000000000000000a7b5189bca84cd304d8553977c7c614329750d990000000000000000000000000000000000000000000000000000000000000000",
          "blockHash": "0xd16e86745bb08a71c1d6cc8890d56aad7ca8acf5f6a9bf6a26a42d48bb800a06",
          "blockNumber": "0x232bc04",
          "blockTimestamp": "0x68efd4eb",
          "transactionHash": "0x57ac61f5a8d21240858b328d5af4aea64ed72b16cc605d5d05f3e52cf346a696",
          "transactionIndex": "0x25",
          "logIndex": "0xc4",
          "removed": false
        }
      ],
      "logsBloom": "0x00000000000000000000000800000000000000000000000000000000000000000000000000000000000000000000000000000000000000000000000000000000000000000000000000000000000000000000000000000000002000080000000000000000000000000000000000000000000000000000000000000000000000000000000000000000000000000000000000000000000000000000000000000000000000000000000000000002000000000000000000000000000000000000000000000000000000000000000000000000000000000000000000000000000000000000000020000000000000000000000000000000000000000000000000000010",
      "type": "0x2",
      "transactionHash": "0x57ac61f5a8d21240858b328d5af4aea64ed72b16cc605d5d05f3e52cf346a696",
      "transactionIndex": "0x25",
      "blockHash": "0xd16e86745bb08a71c1d6cc8890d56aad7ca8acf5f6a9bf6a26a42d48bb800a06",
      "blockNumber": "0x232bc04",
      "gasUsed": "0x3c3ca",
      "effectiveGasPrice": "0x71318e",
      "from": "0xee03621ce83bbf6e3931bccf35b144354f16ccf7",
      "to": "0x1a44076050125825900e736c501f859c50fe728c",
      "contractAddress": null,
      "l1BaseFeeScalar": "0x8dd",
      "l1BlobBaseFee": "0x1",
      "l1BlobBaseFeeScalar": "0x101c12",
      "l1Fee": "0x2fdbb13b6",
      "l1GasPrice": "0x35de0ab0",
      "l1GasUsed": "0xebf"
    }
  ],
  "libraries": [],
  "pending": [],
  "returns": {},
  "timestamp": 1760548094287,
  "chain": 8453,
  "commit": "c6111dc"
}