{
  "transactions": [
    {
      "hash": "0x1f24f74f3448f637d775a97729a932117423ca9f58b44149b1e0ae0a753c9db1",
      "transactionType": "CALL",
      "contractName": null,
      "contractAddress": "0x548465328d18822ee31bea8cfcab945879d76f5c",
      "function": "setPeer(uint32,bytes32)",
      "arguments": [
        "30184",
        "0x000000000000000000000000548465328d18822ee31bea8cfcab945879d76f5c"
      ],
      "transaction": {
        "from": "0xee03621ce83bbf6e3931bccf35b144354f16ccf7",
        "to": "0x548465328d18822ee31bea8cfcab945879d76f5c",
        "gas": "0x1042a",
        "value": "0x0",
        "input": "0x3400288b00000000000000000000000000000000000000000000000000000000000075e8000000000000000000000000548465328d18822ee31bea8cfcab945879d76f5c",
        "nonce": "0x32",
        "chainId": "0x2105"
      },
      "additionalContracts": [],
      "isFixedGasLimit": false
    },
    {
      "hash": "0x369b86e1bac375b4911acbc19095d680d706c848f960295acde6be5975f8aa56",
      "transactionType": "CALL",
      "contractName": null,
      "contractAddress": "0x548465328d18822ee31bea8cfcab945879d76f5c",
      "function": "setEnforcedOptions((uint32,uint16,bytes)[])",
      "arguments": [
        "[(30184, 1, 0x00030100110100000000000000000000000000013880), (30367, 1, 0x000301001101000000000000000000000000000186a0)]"
      ],
      "transaction": {
        "from": "0xee03621ce83bbf6e3931bccf35b144354f16ccf7",
        "to": "0x548465328d18822ee31bea8cfcab945879d76f5c",
        "gas": "0x1d734",
        "value": "0x0",
        "input": "0xb98bd07000000000000000000000000000000000000000000000000000000000000000200000000000000000000000000000000000000000000000000000000000000002000000000000000000000000000000000000000000000000000000000000004000000000000000000000000000000000000000000000000000000000000000e000000000000000000000000000000000000000000000000000000000000075e80000000000000000000000000000000000000000000000000000000000000001000000000000000000000000000000000000000000000000000000000000006000000000000000000000000000000000000000000000000000000000000000160003010011010000000000000000000000000001388000000000000000000000000000000000000000000000000000000000000000000000000000000000769f000000000000000000000000000000000000000000000000000000000000000100000000000000000000000000000000000000000000000000000000000000600000000000000000000000000000000000000000000000000000000000000016000301001101000000000000000000000000000186a000000000000000000000",
        "nonce": "0x33",
        "chainId": "0x2105"
      },
      "additionalContracts": [],
      "isFixedGasLimit": false
    },
    {
      "hash": "0x5c502fc55220d63fb30323ac35109a82068e35be4015e3d6383b68f056e2cac1",
      "transactionType": "CALL",
      "contractName": null,
      "contractAddress": "0xbef0fdacd983941d04f7f3450f4228dafe2cfef2",
      "function": "setChainIdToLzEid(uint256,uint256)",
      "arguments": [
        "999",
        "30367"
      ],
      "transaction": {
        "from": "0xee03621ce83bbf6e3931bccf35b144354f16ccf7",
        "to": "0xbef0fdacd983941d04f7f3450f4228dafe2cfef2",
        "gas": "0x102c0",
        "value": "0x0",
        "input": "0xe724bc7400000000000000000000000000000000000000000000000000000000000003e7000000000000000000000000000000000000000000000000000000000000769f",
        "nonce": "0x34",
        "chainId": "0x2105"
      },
      "additionalContracts": [],
      "isFixedGasLimit": false
    },
    {
      "hash": "0xe95c0e8dc255e3577359115457e9bc0b7ef8c7a0cdbb60c965b9009025adfaa6",
      "transactionType": "CALL",
      "contractName": null,
      "contractAddress": "0xbef0fdacd983941d04f7f3450f4228dafe2cfef2",
      "function": "setChainIdToOApp(uint256,address)",
      "arguments": [
        "8453",
        "0x548465328d18822eE31bEA8Cfcab945879D76f5C"
      ],
      "transaction": {
        "from": "0xee03621ce83bbf6e3931bccf35b144354f16ccf7",
        "to": "0xbef0fdacd983941d04f7f3450f4228dafe2cfef2",
        "gas": "0x1146d",
        "value": "0x0",
        "input": "0xf86ae7880000000000000000000000000000000000000000000000000000000000002105000000000000000000000000548465328d18822ee31bea8cfcab945879d76f5c",
        "nonce": "0x35",
        "chainId": "0x2105"
      },
      "additionalContracts": [],
      "isFixedGasLimit": false
    }
  ],
  "receipts": [
    {
      "status": "0x1",
      "cumulativeGasUsed": "0x18220f3",
      "logs": [
        {
          "address": "0x548465328d18822ee31bea8cfcab945879d76f5c",
          "topics": [
            "0x238399d427b947898edb290f5ff0f9109849b1c3ba196a42e35f00c50a54b98b"
          ],
          "data": "0x00000000000000000000000000000000000000000000000000000000000075e8000000000000000000000000548465328d18822ee31bea8cfcab945879d76f5c",
          "blockHash": "0x4e071b7e06193f7418222ae0af781a0560ab7e5b4a70df9887bc7239a524ed9b",
          "blockNumber": "0x232bda6",
          "blockTimestamp": "0x68efd82f",
          "transactionHash": "0x1f24f74f3448f637d775a97729a932117423ca9f58b44149b1e0ae0a753c9db1",
          "transactionIndex": "0x72",
          "logIndex": "0x1e1",
          "removed": false
        }
      ],
      "logsBloom": "0x00000000000000000000000000000000000000000000000000000000000000000000000000000000000000000000000000000000000000000800000000000000000000000000000000000000000000000000000000000000000000000000000000000000000000000000000000000000000000000000000000000000000000000000000000000000100000000000000000000000000000000000000000000000000000000000000000000000000000000000400000000000000002000000000000000000000000000000000000000000000000000000080000040000000000000000000000000000000000000000000000000000000000000000000000000000",
      "type": "0x2",
      "transactionHash": "0x1f24f74f3448f637d775a97729a932117423ca9f58b44149b1e0ae0a753c9db1",
      "transactionIndex": "0x72",
      "blockHash": "0x4e071b7e06193f7418222ae0af781a0560ab7e5b4a70df9887bc7239a524ed9b",
      "blockNumber": "0x232bda6",
      "gasUsed": "0xbc5c",
      "effectiveGasPrice": "0x8674aa",
      "from": "0xee03621ce83bbf6e3931bccf35b144354f16ccf7",
      "to": "0x548465328d18822ee31bea8cfcab945879d76f5c",
      "contractAddress": null,
      "l1BaseFeeScalar": "0x8dd",
      "l1BlobBaseFee": "0x1",
      "l1BlobBaseFeeScalar": "0x101c12",
      "l1Fee": "0x10098d2f4",
      "l1GasPrice": "0x46ae19ba",
      "l1GasUsed": "0x640"
    },
    {
      "status": "0x1",
      "cumulativeGasUsed": "0x1d4cee6",
      "logs": [
        {
          "address": "0x548465328d18822ee31bea8cfcab945879d76f5c",
          "topics": [
            "0xbe4864a8e820971c0247f5992e2da559595f7bf076a21cb5928d443d2a13b674"
          ],
          "data": "0x00000000000000000000000000000000000000000000000000000000000000200000000000000000000000000000000000000000000000000000000000000002000000000000000000000000000000000000000000000000000000000000004000000000000000000000000000000000000000000000000000000000000000e000000000000000000000000000000000000000000000000000000000000075e80000000000000000000000000000000000000000000000000000000000000001000000000000000000000000000000000000000000000000000000000000006000000000000000000000000000000000000000000000000000000000000000160003010011010000000000000000000000000001388000000000000000000000000000000000000000000000000000000000000000000000000000000000769f000000000000000000000000000000000000000000000000000000000000000100000000000000000000000000000000000000000000000000000000000000600000000000000000000000000000000000000000000000000000000000000016000301001101000000000000000000000000000186a000000000000000000000",
          "blockHash": "0x4e071b7e06193f7418222ae0af781a0560ab7e5b4a70df9887bc7239a524ed9b",
          "blockNumber": "0x232bda6",
          "blockTimestamp": "0x68efd82f",
          "transactionHash": "0x369b86e1bac375b4911acbc19095d680d706c848f960295acde6be5975f8aa56",
          "transactionIndex": "0x83",
          "logIndex": "0x20c",
          "removed": false
        }
      ],
      "logsBloom": "0x00000000000000000000000000000000000000000000000000000000000000000000000000000000000000000000000000000000000000000000400000000000000000000000000000000000000000000000000000000000000000000000000000000000000000000000000000000000000000000000000000000000000000000000000000000000100000000000000000000000000000000000000000080000000000000000000000000000000000000000400000000000000000000000000000000000000000000000000002000000000000000000080000000000000000000000000000000000000000000000000000000000000000000000000000000000",
      "type": "0x2",
      "transactionHash": "0x369b86e1bac375b4911acbc19095d680d706c848f960295acde6be5975f8aa56",
      "transactionIndex": "0x83",
      "blockHash": "0x4e071b7e06193f7418222ae0af781a0560ab7e5b4a70df9887bc7239a524ed9b",
      "blockNumber": "0x232bda6",
      "gasUsed": "0x14231",
      "effectiveGasPrice": "0x8674aa",
      "from": "0xee03621ce83bbf6e3931bccf35b144354f16ccf7",
      "to": "0x548465328d18822ee31bea8cfcab945879d76f5c",
      "contractAddress": null,
      "l1BaseFeeScalar": "0x8dd",
      "l1BlobBaseFee": "0x1",
      "l1BlobBaseFeeScalar": "0x101c12",
      "l1Fee": "0x16035ba5c",
      "l1GasPrice": "0x46ae19ba",
      "l1GasUsed": "0x894"
    },
    {
      "status": "0x1",
      "cumulativeGasUsed": "0x1d58a3b",
      "logs": [
        {
          "address": "0xbef0fdacd983941d04f7f3450f4228dafe2cfef2",
          "topics": [
            "0x84f965c2d43aff223849d7e2295ef7211c3118122c961e195d9dd40a32f46c86"
          ],
          "data": "0x00000000000000000000000000000000000000000000000000000000000003e7000000000000000000000000000000000000000000000000000000000000769f",
          "blockHash": "0x4e071b7e06193f7418222ae0af781a0560ab7e5b4a70df9887bc7239a524ed9b",
          "blockNumber": "0x232bda6",
          "blockTimestamp": "0x68efd82f",
          "transactionHash": "0x5c502fc55220d63fb30323ac35109a82068e35be4015e3d6383b68f056e2cac1",
          "transactionIndex": "0x84",
          "logIndex": "0x20d",
          "removed": false
        }
      ],
      "logsBloom": "0x00000000000000000000000000000000020000000000000000000000000000000000000000000000000000000000000000000000010000000000000000000000000000000000000000000000000000000000080000000000000000000000000000000000000000000000000000000000000000000000000000000000000000000040000000000000000000000000000000000000000000000000000000000000000000000000000000000000000000008000000000000000020000000000000000000000000000000000000000000000000000000000000000000000000000000000000000000000000000000000000000000000000000000000000000000000",
      "type": "0x2",
      "transactionHash": "0x5c502fc55220d63fb30323ac35109a82068e35be4015e3d6383b68f056e2cac1",
      "transactionIndex": "0x84",
      "blockHash": "0x4e071b7e06193f7418222ae0af781a0560ab7e5b4a70df9887bc7239a524ed9b",
      "blockNumber": "0x232bda6",
      "gasUsed": "0xbb55",
      "effectiveGasPrice": "0x8674aa",
      "from": "0xee03621ce83bbf6e3931bccf35b144354f16ccf7",
      "to": "0xbef0fdacd983941d04f7f3450f4228dafe2cfef2",
      "contractAddress": null,
      "l1BaseFeeScalar": "0x8dd",
      "l1BlobBaseFee": "0x1",
      "l1BlobBaseFeeScalar": "0x101c12",
      "l1Fee": "0x10098d2f4",
      "l1GasPrice": "0x46ae19ba",
      "l1GasUsed": "0x640"
    },
    {
      "status": "0x1",
      "cumulativeGasUsed": "0x1d6473e",
      "logs": [
        {
          "address": "0xbef0fdacd983941d04f7f3450f4228dafe2cfef2",
          "topics": [
            "0x08bb8a5c04b030742c31bf3ed154a8ee0a26b42d6edea42acb7a82eefbe8366b"
          ],
          "data": "0x0000000000000000000000000000000000000000000000000000000000002105000000000000000000000000548465328d18822ee31bea8cfcab945879d76f5c",
          "blockHash": "0x4e071b7e06193f7418222ae0af781a0560ab7e5b4a70df9887bc7239a524ed9b",
          "blockNumber": "0x232bda6",
          "blockTimestamp": "0x68efd82f",
          "transactionHash": "0xe95c0e8dc255e3577359115457e9bc0b7ef8c7a0cdbb60c965b9009025adfaa6",
          "transactionIndex": "0x85",
          "logIndex": "0x20e",
          "removed": false
        }
      ],
      "logsBloom": "0x00000000000000000000000000000000000000000000000000002000000000000000000000000000000000000000000000000000010000000000000000000000000000000000000000000000000000000000000000000000000000000000000000000000000000000000000000000000000000000000000000000000000000000040000000000000000000000000000000000000000000000010000000000000000000000000000000000000000000008000000000000000000000000000000000000000000000000000000000000000000000000000000000000000000000000000000000000000000000000000000000000000000000000000040000000000",
      "type": "0x2",
      "transactionHash": "0xe95c0e8dc255e3577359115457e9bc0b7ef8c7a0cdbb60c965b9009025adfaa6",
      "transactionIndex": "0x85",
      "blockHash": "0x4e071b7e06193f7418222ae0af781a0560ab7e5b4a70df9887bc7239a524ed9b",
      "blockNumber": "0x232bda6",
      "gasUsed": "0xbd03",
      "effectiveGasPrice": "0x8674aa",
      "from": "0xee03621ce83bbf6e3931bccf35b144354f16ccf7",
      "to": "0xbef0fdacd983941d04f7f3450f4228dafe2cfef2",
      "contractAddress": null,
      "l1BaseFeeScalar": "0x8dd",
      "l1BlobBaseFee": "0x1",
      "l1BlobBaseFeeScalar": "0x101c12",
      "l1Fee": "0x10098d2f4",
      "l1GasPrice": "0x46ae19ba",
      "l1GasUsed": "0x640"
    }
  ],
  "libraries": [],
  "pending": [],
  "returns": {},
  "timestamp": 1760548913165,
  "chain": 8453,
  "commit": "c6111dc"
}