{
  "transactions": [
    {
      "hash": "0xfa60939b4b14c537469e42e44660153dc557ab19e03b1830e60f06752c6ec7ac",
      "transactionType": "CALL",
      "contractName": null,
      "contractAddress": "0xb113959014d95c555b8a908d794e73478e5509a8",
      "function": "setTokenPriceFeed(address,address)",
      "arguments": [
        "0x650776773016488249D90f5CE25bC2f87Bd037e4",
        "0xAC1680B08F0a1E9521910b8E807619a48E64430c"
      ],
      "transaction": {
        "from": "0xee03621ce83bbf6e3931bccf35b144354f16ccf7",
        "to": "0xb113959014d95c555b8a908d794e73478e5509a8",
        "gas": "0x10659",
        "value": "0x0",
        "input": "0x674417ae000000000000000000000000650776773016488249d90f5ce25bc2f87bd037e4000000000000000000000000ac1680b08f0a1e9521910b8e807619a48e64430c",
        "nonce": "0x132",
        "chainId": "0x2105"
      },
      "additionalContracts": [],
      "isFixedGasLimit": false
    },
    {
      "hash": "0x1e3b277ac82dc5587cabe3cc9f5047ecbf0e38e5975986938d77530541db42ee",
      "transactionType": "CALL",
      "contractName": null,
      "contractAddress": "0xb113959014d95c555b8a908d794e73478e5509a8",
      "function": "setTokenPriceFeed(address,address)",
      "arguments": [
        "0x776E57A6411F734368360BA1c717F5d806CaE7a9",
        "0xAB6BCeD997cF2222a571158A9eC458FAaBD8377f"
      ],
      "transaction": {
        "from": "0xee03621ce83bbf6e3931bccf35b144354f16ccf7",
        "to": "0xb113959014d95c555b8a908d794e73478e5509a8",
        "gas": "0x10659",
        "value": "0x0",
        "input": "0x674417ae000000000000000000000000776e57a6411f734368360ba1c717f5d806cae7a9000000000000000000000000ab6bced997cf2222a571158a9ec458faabd8377f",
        "nonce": "0x133",
        "chainId": "0x2105"
      },
      "additionalContracts": [],
      "isFixedGasLimit": false
    },
    {
      "hash": "0x1980293b2c801d6a245e58e85919df5742280c6d7c80b92a17eb275ee61add33",
      "transactionType": "CALL",
      "contractName": null,
      "contractAddress": "0xb113959014d95c555b8a908d794e73478e5509a8",
      "function": "setTokenPriceFeed(address,address)",
      "arguments": [
        "0x18178895c9Fb3b7a5f69295826d8F18Cc3B79453",
        "0xB383A3BAD722D80B4b0a575D8F8f5590D1c29898"
      ],
      "transaction": {
        "from": "0xee03621ce83bbf6e3931bccf35b144354f16ccf7",
        "to": "0xb113959014d95c555b8a908d794e73478e5509a8",
        "gas": "0x10659",
        "value": "0x0",
        "input": "0x674417ae00000000000000000000000018178895c9fb3b7a5f69295826d8f18cc3b79453000000000000000000000000b383a3bad722d80b4b0a575d8f8f5590d1c29898",
        "nonce": "0x134",
        "chainId": "0x2105"
      },
      "additionalContracts": [],
      "isFixedGasLimit": false
    },
    {
      "hash": "0xa536c80f36cc8fe09937e96026d1d68577bad73b641dc129d426ea8108bd227e",
      "transactionType": "CALL",
      "contractName": null,
      "contractAddress": "0xb113959014d95c555b8a908d794e73478e5509a8",
      "function": "setTokenPriceFeed(address,address)",
      "arguments": [
        "0xBBA0Ba72349226ba2887583cD7078480B2f02c12",
        "0x11952d652d6B943f91a127C19E9f1bA2bdCE4C85"
      ],
      "transaction": {
        "from": "0xee03621ce83bbf6e3931bccf35b144354f16ccf7",
        "to": "0xb113959014d95c555b8a908d794e73478e5509a8",
        "gas": "0x10659",
        "value": "0x0",
        "input": "0x674417ae000000000000000000000000bba0ba72349226ba2887583cd7078480b2f02c1200000000000000000000000011952d652d6b943f91a127c19e9f1ba2bdce4c85",
        "nonce": "0x135",
        "chainId": "0x2105"
      },
      "additionalContracts": [],
      "isFixedGasLimit": false
    },
    {
      "hash": "0x9e0139538363c68a579072f79bde31d540ce9152640d085c1f51053b33479da4",
      "transactionType": "CALL",
      "contractName": null,
      "contractAddress": "0xb113959014d95c555b8a908d794e73478e5509a8",
      "function": "setTokenPriceFeed(address,address)",
      "arguments": [
        "0xf15bA231663f5351F3069C6C72fB117238D66047",
        "0x772cb1a0A5B975AdDea8bd130832fd35dD803E52"
      ],
      "transaction": {
        "from": "0xee03621ce83bbf6e3931bccf35b144354f16ccf7",
        "to": "0xb113959014d95c555b8a908d794e73478e5509a8",
        "gas": "0x10659",
        "value": "0x0",
        "input": "0x674417ae000000000000000000000000f15ba231663f5351f3069c6c72fb117238d66047000000000000000000000000772cb1a0a5b975addea8bd130832fd35dd803e52",
        "nonce": "0x136",
        "chainId": "0x2105"
      },
      "additionalContracts": [],
      "isFixedGasLimit": false
    },
    {
      "hash": "0x14cdb936f6961ce5a5abcd670d67dd58097edcc7bb79f1a04a93e93fd7e6faf1",
      "transactionType": "CALL",
      "contractName": null,
      "contractAddress": "0xb113959014d95c555b8a908d794e73478e5509a8",
      "function": "setTokenPriceFeed(address,address)",
      "arguments": [
        "0x2D85b61280CfaCb67ca97c874AeeF44Aab16Ba63",
        "0x56e66eF165ba1854D1E7d42F9cac63f097B9fdcf"
      ],
      "transaction": {
        "from": "0xee03621ce83bbf6e3931bccf35b144354f16ccf7",
        "to": "0xb113959014d95c555b8a908d794e73478e5509a8",
        "gas": "0x10659",
        "value": "0x0",
        "input": "0x674417ae0000000000000000000000002d85b61280cfacb67ca97c874aeef44aab16ba6300000000000000000000000056e66ef165ba1854d1e7d42f9cac63f097b9fdcf",
        "nonce": "0x137",
        "chainId": "0x2105"
      },
      "additionalContracts": [],
      "isFixedGasLimit": false
    },
    {
      "hash": "0x44be895fc8c2477b33b9a9573d3587b2d02989f36cf9aba07ac54be30766bd2b",
      "transactionType": "CALL",
      "contractName": null,
      "contractAddress": "0xb113959014d95c555b8a908d794e73478e5509a8",
      "function": "setTokenPriceFeed(address,address)",
      "arguments": [
        "0xdb21725DB0162bf173F41CEBFd5dd5a023b56363",
        "0xD7a93b1177Cfc512236670fDF50A6f92dFeE2355"
      ],
      "transaction": {
        "from": "0xee03621ce83bbf6e3931bccf35b144354f16ccf7",
        "to": "0xb113959014d95c555b8a908d794e73478e5509a8",
        "gas": "0x10659",
        "value": "0x0",
        "input": "0x674417ae000000000000000000000000db21725db0162bf173f41cebfd5dd5a023b56363000000000000000000000000d7a93b1177cfc512236670fdf50a6f92dfee2355",
        "nonce": "0x138",
        "chainId": "0x2105"
      },
      "additionalContracts": [],
      "isFixedGasLimit": false
    },
    {
      "hash": "0x6596d7bfcb079925f256df9df6f99027a4b09d5edbc9221851cb6c602ab32bab",
      "transactionType": "CALL",
      "contractName": null,
      "contractAddress": "0xb113959014d95c555b8a908d794e73478e5509a8",
      "function": "setTokenPriceFeed(address,address)",
      "arguments": [
        "0xaCc509f29746DE5ADf75007aBeb84aF3e101dDD7",
        "0x4acB7B027D51868c2723bB6a1bdd0cC935B61379"
      ],
      "transaction": {
        "from": "0xee03621ce83bbf6e3931bccf35b144354f16ccf7",
        "to": "0xb113959014d95c555b8a908d794e73478e5509a8",
        "gas": "0x10649",
        "value": "0x0",
        "input": "0x674417ae000000000000000000000000acc509f29746de5adf75007abeb84af3e101ddd70000000000000000000000004acb7b027d51868c2723bb6a1bdd0cc935b61379",
        "nonce": "0x139",
        "chainId": "0x2105"
      },
      "additionalContracts": [],
      "isFixedGasLimit": false
    },
    {
      "hash": "0x6845e1014bd8061efc13040c93eb7575c3ef01ac56d1a100b04b8bca51b69d62",
      "transactionType": "CALL",
      "contractName": null,
      "contractAddress": "0xb113959014d95c555b8a908d794e73478e5509a8",
      "function": "setTokenPriceFeed(address,address)",
      "arguments": [
        "0xAB0903D4BB2a7ecEB4cA88d74F3924c3fE0A8DC1",
        "0x82F78Aec6aFE485E5c06480a786e308528D57C97"
      ],
      "transaction": {
        "from": "0xee03621ce83bbf6e3931bccf35b144354f16ccf7",
        "to": "0xb113959014d95c555b8a908d794e73478e5509a8",
        "gas": "0x10659",
        "value": "0x0",
        "input": "0x674417ae000000000000000000000000ab0903d4bb2a7eceb4ca88d74f3924c3fe0a8dc100000000000000000000000082f78aec6afe485e5c06480a786e308528d57c97",
        "nonce": "0x13a",
        "chainId": "0x2105"
      },
      "additionalContracts": [],
      "isFixedGasLimit": false
    },
    {
      "hash": "0xadd6043ba2a248fc9baffd6ad7752d6e297e1dd3b09b85b51ecb3a6a60b3e87a",
      "transactionType": "CALL",
      "contractName": null,
      "contractAddress": "0xb113959014d95c555b8a908d794e73478e5509a8",
      "function": "setTokenPriceFeed(address,address)",
      "arguments": [
        "0x09490E9e625adc21DB63183e9BF43eD3F8630782",
        "0x2a49D990B15B3c8b2Ca33BB352c0B9fc99e1Cb8D"
      ],
      "transaction": {
        "from": "0xee03621ce83bbf6e3931bccf35b144354f16ccf7",
        "to": "0xb113959014d95c555b8a908d794e73478e5509a8",
        "gas": "0x10659",
        "value": "0x0",
        "input": "0x674417ae00000000000000000000000009490e9e625adc21db63183e9bf43ed3f86307820000000000000000000000002a49d990b15b3c8b2ca33bb352c0b9fc99e1cb8d",
        "nonce": "0x13b",
        "chainId": "0x2105"
      },
      "additionalContracts": [],
      "isFixedGasLimit": false
    },
    {
      "hash": "0xfb8bff9e3bd63aff91ccf14e74e51467d352a995dada06d7902d5ba2dc06095c",
      "transactionType": "CALL",
      "contractName": null,
      "contractAddress": "0xb113959014d95c555b8a908d794e73478e5509a8",
      "function": "setTokenPriceFeed(address,address)",
      "arguments": [
        "0xc79b05e2962C1d3d9f5FEFE7c5bde9097629989b",
        "0x2469296eE5FAE005DC25Ed449F7fFf9eCA511Ebd"
      ],
      "transaction": {
        "from": "0xee03621ce83bbf6e3931bccf35b144354f16ccf7",
        "to": "0xb113959014d95c555b8a908d794e73478e5509a8",
        "gas": "0x10659",
        "value": "0x0",
        "input": "0x674417ae000000000000000000000000c79b05e2962c1d3d9f5fefe7c5bde9097629989b0000000000000000000000002469296ee5fae005dc25ed449f7fff9eca511ebd",
        "nonce": "0x13c",
        "chainId": "0x2105"
      },
      "additionalContracts": [],
      "isFixedGasLimit": false
    },
    {
      "hash": "0x58cff405d0eb7645afe3d2bb19ad63feaf94d9aceba490556e49e6324edd7646",
      "transactionType": "CALL",
      "contractName": null,
      "contractAddress": "0xc60d72c8cb53842f15cffa8a0bb9dbc759e44452",
      "function": "setTokenActive(address,bool)",
      "arguments": [
        "0x650776773016488249D90f5CE25bC2f87Bd037e4",
        "true"
      ],
      "transaction": {
        "from": "0xee03621ce83bbf6e3931bccf35b144354f16ccf7",
        "to": "0xc60d72c8cb53842f15cffa8a0bb9dbc759e44452",
        "gas": "0x12142",
        "value": "0x0",
        "input": "0xe2f1b792000000000000000000000000650776773016488249d90f5ce25bc2f87bd037e40000000000000000000000000000000000000000000000000000000000000001",
        "nonce": "0x13d",
        "chainId": "0x2105"
      },
      "additionalContracts": [],
      "isFixedGasLimit": false
    },
    {
      "hash": "0xc4f54df821df06a1ad55764f2b0832d95601798aa97f8d49d92372685054dc28",
      "transactionType": "CALL",
      "contractName": null,
      "contractAddress": "0xc60d72c8cb53842f15cffa8a0bb9dbc759e44452",
      "function": "setTokenActive(address,bool)",
      "arguments": [
        "0x776E57A6411F734368360BA1c717F5d806CaE7a9",
        "true"
      ],
      "transaction": {
        "from": "0xee03621ce83bbf6e3931bccf35b144354f16ccf7",
        "to": "0xc60d72c8cb53842f15cffa8a0bb9dbc759e44452",
        "gas": "0x12142",
        "value": "0x0",
        "input": "0xe2f1b792000000000000000000000000776e57a6411f734368360ba1c717f5d806cae7a90000000000000000000000000000000000000000000000000000000000000001",
        "nonce": "0x13e",
        "chainId": "0x2105"
      },
      "additionalContracts": [],
      "isFixedGasLimit": false
    },
    {
      "hash": "0x16368d77a4fc676229ad586e8d4b87630f93236bd8a995d1e4db67e2b28998ab",
      "transactionType": "CALL",
      "contractName": null,
      "contractAddress": "0xc60d72c8cb53842f15cffa8a0bb9dbc759e44452",
      "function": "setTokenActive(address,bool)",
      "arguments": [
        "0x18178895c9Fb3b7a5f69295826d8F18Cc3B79453",
        "true"
      ],
      "transaction": {
        "from": "0xee03621ce83bbf6e3931bccf35b144354f16ccf7",
        "to": "0xc60d72c8cb53842f15cffa8a0bb9dbc759e44452",
        "gas": "0x12142",
        "value": "0x0",
        "input": "0xe2f1b79200000000000000000000000018178895c9fb3b7a5f69295826d8f18cc3b794530000000000000000000000000000000000000000000000000000000000000001",
        "nonce": "0x13f",
        "chainId": "0x2105"
      },
      "additionalContracts": [],
      "isFixedGasLimit": false
    },
    {
      "hash": "0xe0f69b3735007bb0f083f0ed78fd9db821fed7a5d959a24be5427be04bbb7b90",
      "transactionType": "CALL",
      "contractName": null,
      "contractAddress": "0xc60d72c8cb53842f15cffa8a0bb9dbc759e44452",
      "function": "setTokenActive(address,bool)",
      "arguments": [
        "0xBBA0Ba72349226ba2887583cD7078480B2f02c12",
        "true"
      ],
      "transaction": {
        "from": "0xee03621ce83bbf6e3931bccf35b144354f16ccf7",
        "to": "0xc60d72c8cb53842f15cffa8a0bb9dbc759e44452",
        "gas": "0x12142",
        "value": "0x0",
        "input": "0xe2f1b792000000000000000000000000bba0ba72349226ba2887583cd7078480b2f02c120000000000000000000000000000000000000000000000000000000000000001",
        "nonce": "0x140",
        "chainId": "0x2105"
      },
      "additionalContracts": [],
      "isFixedGasLimit": false
    },
    {
      "hash": "0x34c3757f8de902be4bf7288e5361ce6fe61e1a6d31b8ad3d30c3f9bcb856b26f",
      "transactionType": "CALL",
      "contractName": null,
      "contractAddress": "0xc60d72c8cb53842f15cffa8a0bb9dbc759e44452",
      "function": "setTokenActive(address,bool)",
      "arguments": [
        "0xf15bA231663f5351F3069C6C72fB117238D66047",
        "true"
      ],
      "transaction": {
        "from": "0xee03621ce83bbf6e3931bccf35b144354f16ccf7",
        "to": "0xc60d72c8cb53842f15cffa8a0bb9dbc759e44452",
        "gas": "0x12142",
        "value": "0x0",
        "input": "0xe2f1b792000000000000000000000000f15ba231663f5351f3069c6c72fb117238d660470000000000000000000000000000000000000000000000000000000000000001",
        "nonce": "0x141",
        "chainId": "0x2105"
      },
      "additionalContracts": [],
      "isFixedGasLimit": false
    },
    {
      "hash": "0x7407fbdbf43b9272f8a26ef42db4c101a85ccf8e288de080d1f7c301f8635b83",
      "transactionType": "CALL",
      "contractName": null,
      "contractAddress": "0xc60d72c8cb53842f15cffa8a0bb9dbc759e44452",
      "function": "setTokenActive(address,bool)",
      "arguments": [
        "0x2D85b61280CfaCb67ca97c874AeeF44Aab16Ba63",
        "true"
      ],
      "transaction": {
        "from": "0xee03621ce83bbf6e3931bccf35b144354f16ccf7",
        "to": "0xc60d72c8cb53842f15cffa8a0bb9dbc759e44452",
        "gas": "0x12142",
        "value": "0x0",
        "input": "0xe2f1b7920000000000000000000000002d85b61280cfacb67ca97c874aeef44aab16ba630000000000000000000000000000000000000000000000000000000000000001",
        "nonce": "0x142",
        "chainId": "0x2105"
      },
      "additionalContracts": [],
      "isFixedGasLimit": false
    },
    {
      "hash": "0x174209d12d6ce192b359d672b4f6512249aecf7658c7bb4d02975f1e7c1428a0",
      "transactionType": "CALL",
      "contractName": null,
      "contractAddress": "0xc60d72c8cb53842f15cffa8a0bb9dbc759e44452",
      "function": "setTokenActive(address,bool)",
      "arguments": [
        "0xdb21725DB0162bf173F41CEBFd5dd5a023b56363",
        "true"
      ],
      "transaction": {
        "from": "0xee03621ce83bbf6e3931bccf35b144354f16ccf7",
        "to": "0xc60d72c8cb53842f15cffa8a0bb9dbc759e44452",
        "gas": "0x12142",
        "value": "0x0",
        "input": "0xe2f1b792000000000000000000000000db21725db0162bf173f41cebfd5dd5a023b563630000000000000000000000000000000000000000000000000000000000000001",
        "nonce": "0x143",
        "chainId": "0x2105"
      },
      "additionalContracts": [],
      "isFixedGasLimit": false
    },
    {
      "hash": "0xc78e6dc9579f518387a23b4ca38bbd8dabba2587a5b5ffbfe42778e8db73cdb1",
      "transactionType": "CALL",
      "contractName": null,
      "contractAddress": "0xc60d72c8cb53842f15cffa8a0bb9dbc759e44452",
      "function": "setTokenActive(address,bool)",
      "arguments": [
        "0xaCc509f29746DE5ADf75007aBeb84aF3e101dDD7",
        "true"
      ],
      "transaction": {
        "from": "0xee03621ce83bbf6e3931bccf35b144354f16ccf7",
        "to": "0xc60d72c8cb53842f15cffa8a0bb9dbc759e44452",
        "gas": "0x12133",
        "value": "0x0",
        "input": "0xe2f1b792000000000000000000000000acc509f29746de5adf75007abeb84af3e101ddd70000000000000000000000000000000000000000000000000000000000000001",
        "nonce": "0x144",
        "chainId": "0x2105"
      },
      "additionalContracts": [],
      "isFixedGasLimit": false
    },
    {
      "hash": "0x4f5e67f0a724d731c943cc710d56f2a81593f4aab7d7b5cc2b22334382feb419",
      "transactionType": "CALL",
      "contractName": null,
      "contractAddress": "0xc60d72c8cb53842f15cffa8a0bb9dbc759e44452",
      "function": "setTokenActive(address,bool)",
      "arguments": [
        "0xAB0903D4BB2a7ecEB4cA88d74F3924c3fE0A8DC1",
        "true"
      ],
      "transaction": {
        "from": "0xee03621ce83bbf6e3931bccf35b144354f16ccf7",
        "to": "0xc60d72c8cb53842f15cffa8a0bb9dbc759e44452",
        "gas": "0x12142",
        "value": "0x0",
        "input": "0xe2f1b792000000000000000000000000ab0903d4bb2a7eceb4ca88d74f3924c3fe0a8dc10000000000000000000000000000000000000000000000000000000000000001",
        "nonce": "0x145",
        "chainId": "0x2105"
      },
      "additionalContracts": [],
      "isFixedGasLimit": false
    },
    {
      "hash": "0x3c12e2c4c969e40b50f5175baf98a6f35b025c1c331c592e95b0bc7343332664",
      "transactionType": "CALL",
      "contractName": null,
      "contractAddress": "0xc60d72c8cb53842f15cffa8a0bb9dbc759e44452",
      "function": "setTokenActive(address,bool)",
      "arguments": [
        "0x09490E9e625adc21DB63183e9BF43eD3F8630782",
        "true"
      ],
      "transaction": {
        "from": "0xee03621ce83bbf6e3931bccf35b144354f16ccf7",
        "to": "0xc60d72c8cb53842f15cffa8a0bb9dbc759e44452",
        "gas": "0x12142",
        "value": "0x0",
        "input": "0xe2f1b79200000000000000000000000009490e9e625adc21db63183e9bf43ed3f86307820000000000000000000000000000000000000000000000000000000000000001",
        "nonce": "0x146",
        "chainId": "0x2105"
      },
      "additionalContracts": [],
      "isFixedGasLimit": false
    },
    {
      "hash": "0xfac54d07cdbb87c7edb8de35c0993d0cdfffaa0113e681baaf80f943660d9000",
      "transactionType": "CALL",
      "contractName": null,
      "contractAddress": "0xc60d72c8cb53842f15cffa8a0bb9dbc759e44452",
      "function": "setTokenActive(address,bool)",
      "arguments": [
        "0xc79b05e2962C1d3d9f5FEFE7c5bde9097629989b",
        "true"
      ],
      "transaction": {
        "from": "0xee03621ce83bbf6e3931bccf35b144354f16ccf7",
        "to": "0xc60d72c8cb53842f15cffa8a0bb9dbc759e44452",
        "gas": "0x12142",
        "value": "0x0",
        "input": "0xe2f1b792000000000000000000000000c79b05e2962c1d3d9f5fefe7c5bde9097629989b0000000000000000000000000000000000000000000000000000000000000001",
        "nonce": "0x147",
        "chainId": "0x2105"
      },
      "additionalContracts": [],
      "isFixedGasLimit": false
    }
  ],
  "receipts": [
    {
      "status": "0x1",
      "cumulativeGasUsed": "0x381f801",
      "logs": [
        {
          "address": "0xb113959014d95c555b8a908d794e73478e5509a8",
          "topics": [
            "0x06450d77a493ade91a66792442980e4499d56e1565b15d80f0790f2a962a135d"
          ],
          "data": "0x000000000000000000000000650776773016488249d90f5ce25bc2f87bd037e4000000000000000000000000ac1680b08f0a1e9521910b8e807619a48e64430c",
          "blockHash": "0xeea8e1529d5047a2a37374662395261ec900ac26888480433b6fe6f5703ea057",
          "blockNumber": "0x237f7dd",
          "blockTimestamp": "0x68fa4c9d",
          "transactionHash": "0xfa60939b4b14c537469e42e44660153dc557ab19e03b1830e60f06752c6ec7ac",
          "transactionIndex": "0x103",
          "logIndex": "0x35d",
          "removed": false
        }
      ],
      "logsBloom": "0x00000000000000000000000000000000000000000000000000000000000000000000400000000000000000000000000000000000002000000000000000000000000000000000000000000000000000000000000000000000000000000000000000000200000000000000000000000000000000000000000000000100000000000000000000000000000000000000000000000000000000000000000000000000000000000000000000000000000000000000000000000000000000000000000000000000800000000000000000000000000000000000000000000000000000000000000000000000000000000000000000000000000000200000000000000000",
      "type": "0x2",
      "transactionHash": "0xfa60939b4b14c537469e42e44660153dc557ab19e03b1830e60f06752c6ec7ac",
      "transactionIndex": "0x103",
      "blockHash": "0xeea8e1529d5047a2a37374662395261ec900ac26888480433b6fe6f5703ea057",
      "blockNumber": "0x237f7dd",
      "gasUsed": "0xbdf0",
      "effectiveGasPrice": "0x73ba49",
      "from": "0xee03621ce83bbf6e3931bccf35b144354f16ccf7",
      "to": "0xb113959014d95c555b8a908d794e73478e5509a8",
      "contractAddress": null,
      "l1BaseFeeScalar": "0x8dd",
      "l1BlobBaseFee": "0x1",
      "l1BlobBaseFeeScalar": "0x101c12",
      "l1Fee": "0x4e42cbdd",
      "l1GasPrice": "0x157592ea",
      "l1GasUsed": "0x647"
    },
    {
      "status": "0x1",
      "cumulativeGasUsed": "0x382b5f1",
      "logs": [
        {
          "address": "0xb113959014d95c555b8a908d794e73478e5509a8",
          "topics": [
            "0x06450d77a493ade91a66792442980e4499d56e1565b15d80f0790f2a962a135d"
          ],
          "data": "0x000000000000000000000000776e57a6411f734368360ba1c717f5d806cae7a9000000000000000000000000ab6bced997cf2222a571158a9ec458faabd8377f",
          "blockHash": "0xeea8e1529d5047a2a37374662395261ec900ac26888480433b6fe6f5703ea057",
          "blockNumber": "0x237f7dd",
          "blockTimestamp": "0x68fa4c9d",
          "transactionHash": "0x1e3b277ac82dc5587cabe3cc9f5047ecbf0e38e5975986938d77530541db42ee",
          "transactionIndex": "0x104",
          "logIndex": "0x35e",
          "removed": false
        }
      ],
      "logsBloom": "0x00000000000000000000000000000000000000000000000000000000000000000000400000000000000000000000000000000000002000000000000000000000000000000000000000000000000000000000000000000000000000000000000000000200000000000000000000000000000000000000000000000100000000000000000000000000000000000000000000000000000000000000000000000000000000000000000000000000000000000000000000000000000000000000000000000000800000000000000000000000000000000000000000000000000000000000000000000000000000000000000000000000000000200000000000000000",
      "type": "0x2",
      "transactionHash": "0x1e3b277ac82dc5587cabe3cc9f5047ecbf0e38e5975986938d77530541db42ee",
      "transactionIndex": "0x104",
      "blockHash": "0xeea8e1529d5047a2a37374662395261ec900ac26888480433b6fe6f5703ea057",
      "blockNumber": "0x237f7dd",
      "gasUsed": "0xbdf0",
      "effectiveGasPrice": "0x73ba49",
      "from": "0xee03621ce83bbf6e3931bccf35b144354f16ccf7",
      "to": "0xb113959014d95c555b8a908d794e73478e5509a8",
      "contractAddress": null,
      "l1BaseFeeScalar": "0x8dd",
      "l1BlobBaseFee": "0x1",
      "l1BlobBaseFeeScalar": "0x101c12",
      "l1Fee": "0x4e42cbdd",
      "l1GasPrice": "0x157592ea",
      "l1GasUsed": "0x647"
    },
    {
      "status": "0x1",
      "cumulativeGasUsed": "0x38373e1",
      "logs": [
        {
          "address": "0xb113959014d95c555b8a908d794e73478e5509a8",
          "topics": [
            "0x06450d77a493ade91a66792442980e4499d56e1565b15d80f0790f2a962a135d"
          ],
          "data": "0x00000000000000000000000018178895c9fb3b7a5f69295826d8f18cc3b79453000000000000000000000000b383a3bad722d80b4b0a575d8f8f5590d1c29898",
          "blockHash": "0xeea8e1529d5047a2a37374662395261ec900ac26888480433b6fe6f5703ea057",
          "blockNumber": "0x237f7dd",
          "blockTimestamp": "0x68fa4c9d",
          "transactionHash": "0x1980293b2c801d6a245e58e85919df5742280c6d7c80b92a17eb275ee61add33",
          "transactionIndex": "0x105",
          "logIndex": "0x35f",
          "removed": false
        }
      ],
      "logsBloom": "0x00000000000000000000000000000000000000000000000000000000000000000000400000000000000000000000000000000000002000000000000000000000000000000000000000000000000000000000000000000000000000000000000000000200000000000000000000000000000000000000000000000100000000000000000000000000000000000000000000000000000000000000000000000000000000000000000000000000000000000000000000000000000000000000000000000000800000000000000000000000000000000000000000000000000000000000000000000000000000000000000000000000000000200000000000000000",
      "type": "0x2",
      "transactionHash": "0x1980293b2c801d6a245e58e85919df5742280c6d7c80b92a17eb275ee61add33",
      "transactionIndex": "0x105",
      "blockHash": "0xeea8e1529d5047a2a37374662395261ec900ac26888480433b6fe6f5703ea057",
      "blockNumber": "0x237f7dd",
      "gasUsed": "0xbdf0",
      "effectiveGasPrice": "0x73ba49",
      "from": "0xee03621ce83bbf6e3931bccf35b144354f16ccf7",
      "to": "0xb113959014d95c555b8a908d794e73478e5509a8",
      "contractAddress": null,
      "l1BaseFeeScalar": "0x8dd",
      "l1BlobBaseFee": "0x1",
      "l1BlobBaseFeeScalar": "0x101c12",
      "l1Fee": "0x4e42cbdd",
      "l1GasPrice": "0x157592ea",
      "l1GasUsed": "0x647"
    },
    {
      "status": "0x1",
      "cumulativeGasUsed": "0x38431d1",
      "logs": [
        {
          "address": "0xb113959014d95c555b8a908d794e73478e5509a8",
          "topics": [
            "0x06450d77a493ade91a66792442980e4499d56e1565b15d80f0790f2a962a135d"
          ],
          "data": "0x000000000000000000000000bba0ba72349226ba2887583cd7078480b2f02c1200000000000000000000000011952d652d6b943f91a127c19e9f1ba2bdce4c85",
          "blockHash": "0xeea8e1529d5047a2a37374662395261ec900ac26888480433b6fe6f5703ea057",
          "blockNumber": "0x237f7dd",
          "blockTimestamp": "0x68fa4c9d",
          "transactionHash": "0xa536c80f36cc8fe09937e96026d1d68577bad73b641dc129d426ea8108bd227e",
          "transactionIndex": "0x106",
          "logIndex": "0x360",
          "removed": false
        }
      ],
      "logsBloom": "0x00000000000000000000000000000000000000000000000000000000000000000000400000000000000000000000000000000000002000000000000000000000000000000000000000000000000000000000000000000000000000000000000000000200000000000000000000000000000000000000000000000100000000000000000000000000000000000000000000000000000000000000000000000000000000000000000000000000000000000000000000000000000000000000000000000000800000000000000000000000000000000000000000000000000000000000000000000000000000000000000000000000000000200000000000000000",
      "type": "0x2",
      "transactionHash": "0xa536c80f36cc8fe09937e96026d1d68577bad73b641dc129d426ea8108bd227e",
      "transactionIndex": "0x106",
      "blockHash": "0xeea8e1529d5047a2a37374662395261ec900ac26888480433b6fe6f5703ea057",
      "blockNumber": "0x237f7dd",
      "gasUsed": "0xbdf0",
      "effectiveGasPrice": "0x73ba49",
      "from": "0xee03621ce83bbf6e3931bccf35b144354f16ccf7",
      "to": "0xb113959014d95c555b8a908d794e73478e5509a8",
      "contractAddress": null,
      "l1BaseFeeScalar": "0x8dd",
      "l1BlobBaseFee": "0x1",
      "l1BlobBaseFeeScalar": "0x101c12",
      "l1Fee": "0x4e42cbdd",
      "l1GasPrice": "0x157592ea",
      "l1GasUsed": "0x647"
    },
    {
      "status": "0x1",
      "cumulativeGasUsed": "0x384efc1",
      "logs": [
        {
          "address": "0xb113959014d95c555b8a908d794e73478e5509a8",
          "topics": [
            "0x06450d77a493ade91a66792442980e4499d56e1565b15d80f0790f2a962a135d"
          ],
          "data": "0x000000000000000000000000f15ba231663f5351f3069c6c72fb117238d66047000000000000000000000000772cb1a0a5b975addea8bd130832fd35dd803e52",
          "blockHash": "0xeea8e1529d5047a2a37374662395261ec900ac26888480433b6fe6f5703ea057",
          "blockNumber": "0x237f7dd",
          "blockTimestamp": "0x68fa4c9d",
          "transactionHash": "0x9e0139538363c68a579072f79bde31d540ce9152640d085c1f51053b33479da4",
          "transactionIndex": "0x107",
          "logIndex": "0x361",
          "removed": false
        }
      ],
      "logsBloom": "0x00000000000000000000000000000000000000000000000000000000000000000000400000000000000000000000000000000000002000000000000000000000000000000000000000000000000000000000000000000000000000000000000000000200000000000000000000000000000000000000000000000100000000000000000000000000000000000000000000000000000000000000000000000000000000000000000000000000000000000000000000000000000000000000000000000000800000000000000000000000000000000000000000000000000000000000000000000000000000000000000000000000000000200000000000000000",
      "type": "0x2",
      "transactionHash": "0x9e0139538363c68a579072f79bde31d540ce9152640d085c1f51053b33479da4",
      "transactionIndex": "0x107",
      "blockHash": "0xeea8e1529d5047a2a37374662395261ec900ac26888480433b6fe6f5703ea057",
      "blockNumber": "0x237f7dd",
      "gasUsed": "0xbdf0",
      "effectiveGasPrice": "0x73ba49",
      "from": "0xee03621ce83bbf6e3931bccf35b144354f16ccf7",
      "to": "0xb113959014d95c555b8a908d794e73478e5509a8",
      "contractAddress": null,
      "l1BaseFeeScalar": "0x8dd",
      "l1BlobBaseFee": "0x1",
      "l1BlobBaseFeeScalar": "0x101c12",
      "l1Fee": "0x4e42cbdd",
      "l1GasPrice": "0x157592ea",
      "l1GasUsed": "0x647"
    },
    {
      "status": "0x1",
      "cumulativeGasUsed": "0x843935",
      "logs": [
        {
          "address": "0xb113959014d95c555b8a908d794e73478e5509a8",
          "topics": [
            "0x06450d77a493ade91a66792442980e4499d56e1565b15d80f0790f2a962a135d"
          ],
          "data": "0x0000000000000000000000002d85b61280cfacb67ca97c874aeef44aab16ba6300000000000000000000000056e66ef165ba1854d1e7d42f9cac63f097b9fdcf",
          "blockHash": "0x35454443458bf63b6ed5fa4ff45536d72ef8c5d616d333144e8f983ef475a338",
          "blockNumber": "0x237f7de",
          "blockTimestamp": "0x68fa4c9f",
          "transactionHash": "0x14cdb936f6961ce5a5abcd670d67dd58097edcc7bb79f1a04a93e93fd7e6faf1",
          "transactionIndex": "0x39",
          "logIndex": "0xac",
          "removed": false
        }
      ],
      "logsBloom": "0x00000000000000000000000000000000000000000000000000000000000000000000400000000000000000000000000000000000002000000000000000000000000000000000000000000000000000000000000000000000000000000000000000000200000000000000000000000000000000000000000000000100000000000000000000000000000000000000000000000000000000000000000000000000000000000000000000000000000000000000000000000000000000000000000000000000800000000000000000000000000000000000000000000000000000000000000000000000000000000000000000000000000000200000000000000000",
      "type": "0x2",
      "transactionHash": "0x14cdb936f6961ce5a5abcd670d67dd58097edcc7bb79f1a04a93e93fd7e6faf1",
      "transactionIndex": "0x39",
      "blockHash": "0x35454443458bf63b6ed5fa4ff45536d72ef8c5d616d333144e8f983ef475a338",
      "blockNumber": "0x237f7de",
      "gasUsed": "0xbdf0",
      "effectiveGasPrice": "0x741fa7",
      "from": "0xee03621ce83bbf6e3931bccf35b144354f16ccf7",
      "to": "0xb113959014d95c555b8a908d794e73478e5509a8",
      "contractAddress": null,
      "l1BaseFeeScalar": "0x8dd",
      "l1BlobBaseFee": "0x1",
      "l1BlobBaseFeeScalar": "0x101c12",
      "l1Fee": "0x4e42cbdd",
      "l1GasPrice": "0x157592ea",
      "l1GasUsed": "0x647"
    },
    {
      "status": "0x1",
      "cumulativeGasUsed": "0x84f725",
      "logs": [
        {
          "address": "0xb113959014d95c555b8a908d794e73478e5509a8",
          "topics": [
            "0x06450d77a493ade91a66792442980e4499d56e1565b15d80f0790f2a962a135d"
          ],
          "data": "0x000000000000000000000000db21725db0162bf173f41cebfd5dd5a023b56363000000000000000000000000d7a93b1177cfc512236670fdf50a6f92dfee2355",
          "blockHash": "0xf16df4dcae35df76435f0753bf0451c7c078d4f15be3a851d98b92c00ec45fbc",
          "blockNumber": "0x237f7de",
          "blockTimestamp": "0x68fa4c9f",
          "transactionHash": "0x44be895fc8c2477b33b9a9573d3587b2d02989f36cf9aba07ac54be30766bd2b",
          "transactionIndex": "0x3a",
          "logIndex": "0xad",
          "removed": false
        }
      ],
      "logsBloom": "0x00000000000000000000000000000000000000000000000000000000000000000000400000000000000000000000000000000000002000000000000000000000000000000000000000000000000000000000000000000000000000000000000000000200000000000000000000000000000000000000000000000100000000000000000000000000000000000000000000000000000000000000000000000000000000000000000000000000000000000000000000000000000000000000000000000000800000000000000000000000000000000000000000000000000000000000000000000000000000000000000000000000000000200000000000000000",
      "type": "0x2",
      "transactionHash": "0x44be895fc8c2477b33b9a9573d3587b2d02989f36cf9aba07ac54be30766bd2b",
      "transactionIndex": "0x3a",
      "blockHash": "0xf16df4dcae35df76435f0753bf0451c7c078d4f15be3a851d98b92c00ec45fbc",
      "blockNumber": "0x237f7de",
      "gasUsed": "0xbdf0",
      "effectiveGasPrice": "0x741fa7",
      "from": "0xee03621ce83bbf6e3931bccf35b144354f16ccf7",
      "to": "0xb113959014d95c555b8a908d794e73478e5509a8",
      "contractAddress": null,
      "l1BaseFeeScalar": "0x8dd",
      "l1BlobBaseFee": "0x1",
      "l1BlobBaseFeeScalar": "0x101c12",
      "l1Fee": "0x4e42cbdd",
      "l1GasPrice": "0x157592ea",
      "l1GasUsed": "0x647"
    },
    {
      "status": "0x1",
      "cumulativeGasUsed": "0x8d9f25",
      "logs": [
        {
          "address": "0xb113959014d95c555b8a908d794e73478e5509a8",
          "topics": [
            "0x06450d77a493ade91a66792442980e4499d56e1565b15d80f0790f2a962a135d"
          ],
          "data": "0x000000000000000000000000acc509f29746de5adf75007abeb84af3e101ddd70000000000000000000000004acb7b027d51868c2723bb6a1bdd0cc935b61379",
          "blockHash": "0x27a6d7f3c915e5863f7ccc5a050cb64746573b5cc3764d6788f6a0aa456c3330",
          "blockNumber": "0x237f7de",
          "blockTimestamp": "0x68fa4c9f",
          "transactionHash": "0x6596d7bfcb079925f256df9df6f99027a4b09d5edbc9221851cb6c602ab32bab",
          "transactionIndex": "0x40",
          "logIndex": "0x11c",
          "removed": false
        }
      ],
      "logsBloom": "0x00000000000000000000000000000000000000000000000000000000000000000000400000000000000000000000000000000000002000000000000000000000000000000000000000000000000000000000000000000000000000000000000000000200000000000000000000000000000000000000000000000100000000000000000000000000000000000000000000000000000000000000000000000000000000000000000000000000000000000000000000000000000000000000000000000000800000000000000000000000000000000000000000000000000000000000000000000000000000000000000000000000000000200000000000000000",
      "type": "0x2",
      "transactionHash": "0x6596d7bfcb079925f256df9df6f99027a4b09d5edbc9221851cb6c602ab32bab",
      "transactionIndex": "0x40",
      "blockHash": "0x27a6d7f3c915e5863f7ccc5a050cb64746573b5cc3764d6788f6a0aa456c3330",
      "blockNumber": "0x237f7de",
      "gasUsed": "0xbde4",
      "effectiveGasPrice": "0x741fa7",
      "from": "0xee03621ce83bbf6e3931bccf35b144354f16ccf7",
      "to": "0xb113959014d95c555b8a908d794e73478e5509a8",
      "contractAddress": null,
      "l1BaseFeeScalar": "0x8dd",
      "l1BlobBaseFee": "0x1",
      "l1BlobBaseFeeScalar": "0x101c12",
      "l1Fee": "0x10220030e",
      "l1GasPrice": "0x157592ea",
      "l1GasUsed": "0x647"
    },
    {
      "status": "0x1",
      "cumulativeGasUsed": "0x8e5d15",
      "logs": [
        {
          "address": "0xb113959014d95c555b8a908d794e73478e5509a8",
          "topics": [
            "0x06450d77a493ade91a66792442980e4499d56e1565b15d80f0790f2a962a135d"
          ],
          "data": "0x000000000000000000000000ab0903d4bb2a7eceb4ca88d74f3924c3fe0a8dc100000000000000000000000082f78aec6afe485e5c06480a786e308528d57c97",
          "blockHash": "0x0663b7c6b13212ac58ea129404f9ab1fcfe6b1106a9045c41667011e11f4dc41",
          "blockNumber": "0x237f7de",
          "blockTimestamp": "0x68fa4c9f",
          "transactionHash": "0x6845e1014bd8061efc13040c93eb7575c3ef01ac56d1a100b04b8bca51b69d62",
          "transactionIndex": "0x41",
          "logIndex": "0x11d",
          "removed": false
        }
      ],
      "logsBloom": "0x00000000000000000000000000000000000000000000000000000000000000000000400000000000000000000000000000000000002000000000000000000000000000000000000000000000000000000000000000000000000000000000000000000200000000000000000000000000000000000000000000000100000000000000000000000000000000000000000000000000000000000000000000000000000000000000000000000000000000000000000000000000000000000000000000000000800000000000000000000000000000000000000000000000000000000000000000000000000000000000000000000000000000200000000000000000",
      "type": "0x2",
      "transactionHash": "0x6845e1014bd8061efc13040c93eb7575c3ef01ac56d1a100b04b8bca51b69d62",
      "transactionIndex": "0x41",
      "blockHash": "0x0663b7c6b13212ac58ea129404f9ab1fcfe6b1106a9045c41667011e11f4dc41",
      "blockNumber": "0x237f7de",
      "gasUsed": "0xbdf0",
      "effectiveGasPrice": "0x741fa7",
      "from": "0xee03621ce83bbf6e3931bccf35b144354f16ccf7",
      "to": "0xb113959014d95c555b8a908d794e73478e5509a8",
      "contractAddress": null,
      "l1BaseFeeScalar": "0x8dd",
      "l1BlobBaseFee": "0x1",
      "l1BlobBaseFeeScalar": "0x101c12",
      "l1Fee": "0x10220030e",
      "l1GasPrice": "0x157592ea",
      "l1GasUsed": "0x647"
    },
    {
      "status": "0x1",
      "cumulativeGasUsed": "0x8f1b05",
      "logs": [
        {
          "address": "0xb113959014d95c555b8a908d794e73478e5509a8",
          "topics": [
            "0x06450d77a493ade91a66792442980e4499d56e1565b15d80f0790f2a962a135d"
          ],
          "data": "0x00000000000000000000000009490e9e625adc21db63183e9bf43ed3f86307820000000000000000000000002a49d990b15b3c8b2ca33bb352c0b9fc99e1cb8d",
          "blockHash": "0xf16df4dcae35df76435f0753bf0451c7c078d4f15be3a851d98b92c00ec45fbc",
          "blockNumber": "0x237f7de",
          "blockTimestamp": "0x68fa4c9f",
          "transactionHash": "0xadd6043ba2a248fc9baffd6ad7752d6e297e1dd3b09b85b51ecb3a6a60b3e87a",
          "transactionIndex": "0x42",
          "logIndex": "0x11e",
          "removed": false
        }
      ],
      "logsBloom": "0x00000000000000000000000000000000000000000000000000000000000000000000400000000000000000000000000000000000002000000000000000000000000000000000000000000000000000000000000000000000000000000000000000000200000000000000000000000000000000000000000000000100000000000000000000000000000000000000000000000000000000000000000000000000000000000000000000000000000000000000000000000000000000000000000000000000800000000000000000000000000000000000000000000000000000000000000000000000000000000000000000000000000000200000000000000000",
      "type": "0x2",
      "transactionHash": "0xadd6043ba2a248fc9baffd6ad7752d6e297e1dd3b09b85b51ecb3a6a60b3e87a",
      "transactionIndex": "0x42",
      "blockHash": "0xf16df4dcae35df76435f0753bf0451c7c078d4f15be3a851d98b92c00ec45fbc",
      "blockNumber": "0x237f7de",
      "gasUsed": "0xbdf0",
      "effectiveGasPrice": "0x741fa7",
      "from": "0xee03621ce83bbf6e3931bccf35b144354f16ccf7",
      "to": "0xb113959014d95c555b8a908d794e73478e5509a8",
      "contractAddress": null,
      "l1BaseFeeScalar": "0x8dd",
      "l1BlobBaseFee": "0x1",
      "l1BlobBaseFeeScalar": "0x101c12",
      "l1Fee": "0x4e42cbdd",
      "l1GasPrice": "0x157592ea",
      "l1GasUsed": "0x647"
    },
    {
      "status": "0x1",
      "cumulativeGasUsed": "0x8fd8f5",
      "logs": [
        {
          "address": "0xb113959014d95c555b8a908d794e73478e5509a8",
          "topics": [
            "0x06450d77a493ade91a66792442980e4499d56e1565b15d80f0790f2a962a135d"
          ],
          "data": "0x000000000000000000000000c79b05e2962c1d3d9f5fefe7c5bde9097629989b0000000000000000000000002469296ee5fae005dc25ed449f7fff9eca511ebd",
          "blockHash": "0xf16df4dcae35df76435f0753bf0451c7c078d4f15be3a851d98b92c00ec45fbc",
          "blockNumber": "0x237f7de",
          "blockTimestamp": "0x68fa4c9f",
          "transactionHash": "0xfb8bff9e3bd63aff91ccf14e74e51467d352a995dada06d7902d5ba2dc06095c",
          "transactionIndex": "0x43",
          "logIndex": "0x11f",
          "removed": false
        }
      ],
      "logsBloom": "0x00000000000000000000000000000000000000000000000000000000000000000000400000000000000000000000000000000000002000000000000000000000000000000000000000000000000000000000000000000000000000000000000000000200000000000000000000000000000000000000000000000100000000000000000000000000000000000000000000000000000000000000000000000000000000000000000000000000000000000000000000000000000000000000000000000000800000000000000000000000000000000000000000000000000000000000000000000000000000000000000000000000000000200000000000000000",
      "type": "0x2",
      "transactionHash": "0xfb8bff9e3bd63aff91ccf14e74e51467d352a995dada06d7902d5ba2dc06095c",
      "transactionIndex": "0x43",
      "blockHash": "0xf16df4dcae35df76435f0753bf0451c7c078d4f15be3a851d98b92c00ec45fbc",
      "blockNumber": "0x237f7de",
      "gasUsed": "0xbdf0",
      "effectiveGasPrice": "0x741fa7",
      "from": "0xee03621ce83bbf6e3931bccf35b144354f16ccf7",
      "to": "0xb113959014d95c555b8a908d794e73478e5509a8",
      "contractAddress": null,
      "l1BaseFeeScalar": "0x8dd",
      "l1BlobBaseFee": "0x1",
      "l1BlobBaseFeeScalar": "0x101c12",
      "l1Fee": "0x4e42cbdd",
      "l1GasPrice": "0x157592ea",
      "l1GasUsed": "0x647"
    },
    {
      "status": "0x1",
      "cumulativeGasUsed": "0x90aa61",
      "logs": [
        {
          "address": "0xc60d72c8cb53842f15cffa8a0bb9dbc759e44452",
          "topics": [
            "0x033b55419a2dba027908fbe5a221c7df98500387bfc5bef4cbfb1e276264d205"
          ],
          "data": "0x000000000000000000000000650776773016488249d90f5ce25bc2f87bd037e40000000000000000000000000000000000000000000000000000000000000001",
          "blockHash": "0xf8a064587a74320a6e8191c8466f1081a019a7a5083a1049dd2eee031cc0857c",
          "blockNumber": "0x237f7de",
          "blockTimestamp": "0x68fa4c9f",
          "transactionHash": "0x58cff405d0eb7645afe3d2bb19ad63feaf94d9aceba490556e49e6324edd7646",
          "transactionIndex": "0x44",
          "logIndex": "0x120",
          "removed": false
        }
      ],
      "logsBloom": "0x00000000000000000000000000000000000000000000000000000000000000000000000000000000000000000000000000000000000000000000000000000000000000000000000000000000000000000000000000000000000000000000000000000000000000000000000000000000000000000018000000000000000000000000000000080000000000000000000000000000000000000000000000000000100000400000000000000000000000000000000000000000000000000000000000000000000000000000000000000000000000000000000000000000000000000000000000000000000000000000000000000800000000000000000000000000",
      "type": "0x2",
      "transactionHash": "0x58cff405d0eb7645afe3d2bb19ad63feaf94d9aceba490556e49e6324edd7646",
      "transactionIndex": "0x44",
      "blockHash": "0xf8a064587a74320a6e8191c8466f1081a019a7a5083a1049dd2eee031cc0857c",
      "blockNumber": "0x237f7de",
      "gasUsed": "0xd16c",
      "effectiveGasPrice": "0x741fa7",
      "from": "0xee03621ce83bbf6e3931bccf35b144354f16ccf7",
      "to": "0xc60d72c8cb53842f15cffa8a0bb9dbc759e44452",
      "contractAddress": null,
      "l1BaseFeeScalar": "0x8dd",
      "l1BlobBaseFee": "0x1",
      "l1BlobBaseFeeScalar": "0x101c12",
      "l1Fee": "0x10220030e",
      "l1GasPrice": "0x157592ea",
      "l1GasUsed": "0x640"
    },
    {
      "status": "0x1",
      "cumulativeGasUsed": "0x93a120",
      "logs": [
        {
          "address": "0xc60d72c8cb53842f15cffa8a0bb9dbc759e44452",
          "topics": [
            "0x033b55419a2dba027908fbe5a221c7df98500387bfc5bef4cbfb1e276264d205"
          ],
          "data": "0x000000000000000000000000776e57a6411f734368360ba1c717f5d806cae7a90000000000000000000000000000000000000000000000000000000000000001",
          "blockHash": "0x27a6d7f3c915e5863f7ccc5a050cb64746573b5cc3764d6788f6a0aa456c3330",
          "blockNumber": "0x237f7de",
          "blockTimestamp": "0x68fa4c9f",
          "transactionHash": "0xc4f54df821df06a1ad55764f2b0832d95601798aa97f8d49d92372685054dc28",
          "transactionIndex": "0x46",
          "logIndex": "0x127",
          "removed": false
        }
      ],
      "logsBloom": "0x00000000000000000000000000000000000000000000000000000000000000000000000000000000000000000000000000000000000000000000000000000000000000000000000000000000000000000000000000000000000000000000000000000000000000000000000000000000000000000018000000000000000000000000000000080000000000000000000000000000000000000000000000000000100000400000000000000000000000000000000000000000000000000000000000000000000000000000000000000000000000000000000000000000000000000000000000000000000000000000000000000800000000000000000000000000",
      "type": "0x2",
      "transactionHash": "0xc4f54df821df06a1ad55764f2b0832d95601798aa97f8d49d92372685054dc28",
      "transactionIndex": "0x46",
      "blockHash": "0x27a6d7f3c915e5863f7ccc5a050cb64746573b5cc3764d6788f6a0aa456c3330",
      "blockNumber": "0x237f7de",
      "gasUsed": "0xd16c",
      "effectiveGasPrice": "0x741fa7",
      "from": "0xee03621ce83bbf6e3931bccf35b144354f16ccf7",
      "to": "0xc60d72c8cb53842f15cffa8a0bb9dbc759e44452",
      "contractAddress": null,
      "l1BaseFeeScalar": "0x8dd",
      "l1BlobBaseFee": "0x1",
      "l1BlobBaseFeeScalar": "0x101c12",
      "l1Fee": "0x10220030e",
      "l1GasPrice": "0x157592ea",
      "l1GasUsed": "0x640"
    },
    {
      "status": "0x1",
      "cumulativeGasUsed": "0x94728c",
      "logs": [
        {
          "address": "0xc60d72c8cb53842f15cffa8a0bb9dbc759e44452",
          "topics": [
            "0x033b55419a2dba027908fbe5a221c7df98500387bfc5bef4cbfb1e276264d205"
          ],
          "data": "0x00000000000000000000000018178895c9fb3b7a5f69295826d8f18cc3b794530000000000000000000000000000000000000000000000000000000000000001",
          "blockHash": "0xbe4dbcae5a165403339b59ec6eb5a174a0a5c92c1f4abf5177164ec4eeb2ac17",
          "blockNumber": "0x237f7de",
          "blockTimestamp": "0x68fa4c9f",
          "transactionHash": "0x16368d77a4fc676229ad586e8d4b87630f93236bd8a995d1e4db67e2b28998ab",
          "transactionIndex": "0x47",
          "logIndex": "0x128",
          "removed": false
        }
      ],
      "logsBloom": "0x00000000000000000000000000000000000000000000000000000000000000000000000000000000000000000000000000000000000000000000000000000000000000000000000000000000000000000000000000000000000000000000000000000000000000000000000000000000000000000018000000000000000000000000000000080000000000000000000000000000000000000000000000000000100000400000000000000000000000000000000000000000000000000000000000000000000000000000000000000000000000000000000000000000000000000000000000000000000000000000000000000800000000000000000000000000",
      "type": "0x2",
      "transactionHash": "0x16368d77a4fc676229ad586e8d4b87630f93236bd8a995d1e4db67e2b28998ab",
      "transactionIndex": "0x47",
      "blockHash": "0xbe4dbcae5a165403339b59ec6eb5a174a0a5c92c1f4abf5177164ec4eeb2ac17",
      "blockNumber": "0x237f7de",
      "gasUsed": "0xd16c",
      "effectiveGasPrice": "0x741fa7",
      "from": "0xee03621ce83bbf6e3931bccf35b144354f16ccf7",
      "to": "0xc60d72c8cb53842f15cffa8a0bb9dbc759e44452",
      "contractAddress": null,
      "l1BaseFeeScalar": "0x8dd",
      "l1BlobBaseFee": "0x1",
      "l1BlobBaseFeeScalar": "0x101c12",
      "l1Fee": "0x4de7df4a",
      "l1GasPrice": "0x157592ea",
      "l1GasUsed": "0x640"
    },
    {
      "status": "0x1",
      "cumulativeGasUsed": "0x123747c",
      "logs": [
        {
          "address": "0xc60d72c8cb53842f15cffa8a0bb9dbc759e44452",
          "topics": [
            "0x033b55419a2dba027908fbe5a221c7df98500387bfc5bef4cbfb1e276264d205"
          ],
          "data": "0x000000000000000000000000bba0ba72349226ba2887583cd7078480b2f02c120000000000000000000000000000000000000000000000000000000000000001",
          "blockHash": "0xf16df4dcae35df76435f0753bf0451c7c078d4f15be3a851d98b92c00ec45fbc",
          "blockNumber": "0x237f7de",
          "blockTimestamp": "0x68fa4c9f",
          "transactionHash": "0xe0f69b3735007bb0f083f0ed78fd9db821fed7a5d959a24be5427be04bbb7b90",
          "transactionIndex": "0x8b",
          "logIndex": "0x1bf",
          "removed": false
        }
      ],
      "logsBloom": "0x00000000000000000000000000000000000000000000000000000000000000000000000000000000000000000000000000000000000000000000000000000000000000000000000000000000000000000000000000000000000000000000000000000000000000000000000000000000000000000018000000000000000000000000000000080000000000000000000000000000000000000000000000000000100000400000000000000000000000000000000000000000000000000000000000000000000000000000000000000000000000000000000000000000000000000000000000000000000000000000000000000800000000000000000000000000",
      "type": "0x2",
      "transactionHash": "0xe0f69b3735007bb0f083f0ed78fd9db821fed7a5d959a24be5427be04bbb7b90",
      "transactionIndex": "0x8b",
      "blockHash": "0xf16df4dcae35df76435f0753bf0451c7c078d4f15be3a851d98b92c00ec45fbc",
      "blockNumber": "0x237f7de",
      "gasUsed": "0xd16c",
      "effectiveGasPrice": "0x741fa7",
      "from": "0xee03621ce83bbf6e3931bccf35b144354f16ccf7",
      "to": "0xc60d72c8cb53842f15cffa8a0bb9dbc759e44452",
      "contractAddress": null,
      "l1BaseFeeScalar": "0x8dd",
      "l1BlobBaseFee": "0x1",
      "l1BlobBaseFeeScalar": "0x101c12",
      "l1Fee": "0x4de7df4a",
      "l1GasPrice": "0x157592ea",
      "l1GasUsed": "0x640"
    },
    {
      "status": "0x1",
      "cumulativeGasUsed": "0x12445e8",
      "logs": [
        {
          "address": "0xc60d72c8cb53842f15cffa8a0bb9dbc759e44452",
          "topics": [
            "0x033b55419a2dba027908fbe5a221c7df98500387bfc5bef4cbfb1e276264d205"
          ],
          "data": "0x000000000000000000000000f15ba231663f5351f3069c6c72fb117238d660470000000000000000000000000000000000000000000000000000000000000001",
          "blockHash": "0x3917c183d0a5c1a93f7d2dcdb165d6278a479c6e48bc102d17bec191d4e2c65a",
          "blockNumber": "0x237f7de",
          "blockTimestamp": "0x68fa4c9f",
          "transactionHash": "0x34c3757f8de902be4bf7288e5361ce6fe61e1a6d31b8ad3d30c3f9bcb856b26f",
          "transactionIndex": "0x8c",
          "logIndex": "0x1c0",
          "removed": false
        }
      ],
      "logsBloom": "0x00000000000000000000000000000000000000000000000000000000000000000000000000000000000000000000000000000000000000000000000000000000000000000000000000000000000000000000000000000000000000000000000000000000000000000000000000000000000000000018000000000000000000000000000000080000000000000000000000000000000000000000000000000000100000400000000000000000000000000000000000000000000000000000000000000000000000000000000000000000000000000000000000000000000000000000000000000000000000000000000000000800000000000000000000000000",
      "type": "0x2",
      "transactionHash": "0x34c3757f8de902be4bf7288e5361ce6fe61e1a6d31b8ad3d30c3f9bcb856b26f",
      "transactionIndex": "0x8c",
      "blockHash": "0x3917c183d0a5c1a93f7d2dcdb165d6278a479c6e48bc102d17bec191d4e2c65a",
      "blockNumber": "0x237f7de",
      "gasUsed": "0xd16c",
      "effectiveGasPrice": "0x741fa7",
      "from": "0xee03621ce83bbf6e3931bccf35b144354f16ccf7",
      "to": "0xc60d72c8cb53842f15cffa8a0bb9dbc759e44452",
      "contractAddress": null,
      "l1BaseFeeScalar": "0x8dd",
      "l1BlobBaseFee": "0x1",
      "l1BlobBaseFeeScalar": "0x101c12",
      "l1Fee": "0x4de7df4a",
      "l1GasPrice": "0x157592ea",
      "l1GasUsed": "0x640"
    },
    {
      "status": "0x1",
      "cumulativeGasUsed": "0x1251754",
      "logs": [
        {
          "address": "0xc60d72c8cb53842f15cffa8a0bb9dbc759e44452",
          "topics": [
            "0x033b55419a2dba027908fbe5a221c7df98500387bfc5bef4cbfb1e276264d205"
          ],
          "data": "0x0000000000000000000000002d85b61280cfacb67ca97c874aeef44aab16ba630000000000000000000000000000000000000000000000000000000000000001",
          "blockHash": "0xf8a064587a74320a6e8191c8466f1081a019a7a5083a1049dd2eee031cc0857c",
          "blockNumber": "0x237f7de",
          "blockTimestamp": "0x68fa4c9f",
          "transactionHash": "0x7407fbdbf43b9272f8a26ef42db4c101a85ccf8e288de080d1f7c301f8635b83",
          "transactionIndex": "0x8d",
          "logIndex": "0x1c1",
          "removed": false
        }
      ],
      "logsBloom": "0x00000000000000000000000000000000000000000000000000000000000000000000000000000000000000000000000000000000000000000000000000000000000000000000000000000000000000000000000000000000000000000000000000000000000000000000000000000000000000000018000000000000000000000000000000080000000000000000000000000000000000000000000000000000100000400000000000000000000000000000000000000000000000000000000000000000000000000000000000000000000000000000000000000000000000000000000000000000000000000000000000000800000000000000000000000000",
      "type": "0x2",
      "transactionHash": "0x7407fbdbf43b9272f8a26ef42db4c101a85ccf8e288de080d1f7c301f8635b83",
      "transactionIndex": "0x8d",
      "blockHash": "0xf8a064587a74320a6e8191c8466f1081a019a7a5083a1049dd2eee031cc0857c",
      "blockNumber": "0x237f7de",
      "gasUsed": "0xd16c",
      "effectiveGasPrice": "0x741fa7",
      "from": "0xee03621ce83bbf6e3931bccf35b144354f16ccf7",
      "to": "0xc60d72c8cb53842f15cffa8a0bb9dbc759e44452",
      "contractAddress": null,
      "l1BaseFeeScalar": "0x8dd",
      "l1BlobBaseFee": "0x1",
      "l1BlobBaseFeeScalar": "0x101c12",
      "l1Fee": "0x10220030e",
      "l1GasPrice": "0x157592ea",
      "l1GasUsed": "0x640"
    },
    {
      "status": "0x1",
      "cumulativeGasUsed": "0x125e8c0",
      "logs": [
        {
          "address": "0xc60d72c8cb53842f15cffa8a0bb9dbc759e44452",
          "topics": [
            "0x033b55419a2dba027908fbe5a221c7df98500387bfc5bef4cbfb1e276264d205"
          ],
          "data": "0x000000000000000000000000db21725db0162bf173f41cebfd5dd5a023b563630000000000000000000000000000000000000000000000000000000000000001",
          "blockHash": "0xf8a064587a74320a6e8191c8466f1081a019a7a5083a1049dd2eee031cc0857c",
          "blockNumber": "0x237f7de",
          "blockTimestamp": "0x68fa4c9f",
          "transactionHash": "0x174209d12d6ce192b359d672b4f6512249aecf7658c7bb4d02975f1e7c1428a0",
          "transactionIndex": "0x8e",
          "logIndex": "0x1c2",
          "removed": false
        }
      ],
      "logsBloom": "0x00000000000000000000000000000000000000000000000000000000000000000000000000000000000000000000000000000000000000000000000000000000000000000000000000000000000000000000000000000000000000000000000000000000000000000000000000000000000000000018000000000000000000000000000000080000000000000000000000000000000000000000000000000000100000400000000000000000000000000000000000000000000000000000000000000000000000000000000000000000000000000000000000000000000000000000000000000000000000000000000000000800000000000000000000000000",
      "type": "0x2",
      "transactionHash": "0x174209d12d6ce192b359d672b4f6512249aecf7658c7bb4d02975f1e7c1428a0",
      "transactionIndex": "0x8e",
      "blockHash": "0xf8a064587a74320a6e8191c8466f1081a019a7a5083a1049dd2eee031cc0857c",
      "blockNumber": "0x237f7de",
      "gasUsed": "0xd16c",
      "effectiveGasPrice": "0x741fa7",
      "from": "0xee03621ce83bbf6e3931bccf35b144354f16ccf7",
      "to": "0xc60d72c8cb53842f15cffa8a0bb9dbc759e44452",
      "contractAddress": null,
      "l1BaseFeeScalar": "0x8dd",
      "l1BlobBaseFee": "0x1",
      "l1BlobBaseFeeScalar": "0x101c12",
      "l1Fee": "0x10220030e",
      "l1GasPrice": "0x157592ea",
      "l1GasUsed": "0x640"
    },
    {
      "status": "0x1",
      "cumulativeGasUsed": "0x126ba20",
      "logs": [
        {
          "address": "0xc60d72c8cb53842f15cffa8a0bb9dbc759e44452",
          "topics": [
            "0x033b55419a2dba027908fbe5a221c7df98500387bfc5bef4cbfb1e276264d205"
          ],
          "data": "0x000000000000000000000000acc509f29746de5adf75007abeb84af3e101ddd70000000000000000000000000000000000000000000000000000000000000001",
          "blockHash": "0xf16df4dcae35df76435f0753bf0451c7c078d4f15be3a851d98b92c00ec45fbc",
          "blockNumber": "0x237f7de",
          "blockTimestamp": "0x68fa4c9f",
          "transactionHash": "0xc78e6dc9579f518387a23b4ca38bbd8dabba2587a5b5ffbfe42778e8db73cdb1",
          "transactionIndex": "0x8f",
          "logIndex": "0x1c3",
          "removed": false
        }
      ],
      "logsBloom": "0x00000000000000000000000000000000000000000000000000000000000000000000000000000000000000000000000000000000000000000000000000000000000000000000000000000000000000000000000000000000000000000000000000000000000000000000000000000000000000000018000000000000000000000000000000080000000000000000000000000000000000000000000000000000100000400000000000000000000000000000000000000000000000000000000000000000000000000000000000000000000000000000000000000000000000000000000000000000000000000000000000000800000000000000000000000000",
      "type": "0x2",
      "transactionHash": "0xc78e6dc9579f518387a23b4ca38bbd8dabba2587a5b5ffbfe42778e8db73cdb1",
      "transactionIndex": "0x8f",
      "blockHash": "0xf16df4dcae35df76435f0753bf0451c7c078d4f15be3a851d98b92c00ec45fbc",
      "blockNumber": "0x237f7de",
      "gasUsed": "0xd160",
      "effectiveGasPrice": "0x741fa7",
      "from": "0xee03621ce83bbf6e3931bccf35b144354f16ccf7",
      "to": "0xc60d72c8cb53842f15cffa8a0bb9dbc759e44452",
      "contractAddress": null,
      "l1BaseFeeScalar": "0x8dd",
      "l1BlobBaseFee": "0x1",
      "l1BlobBaseFeeScalar": "0x101c12",
      "l1Fee": "0x4de7df4a",
      "l1GasPrice": "0x157592ea",
      "l1GasUsed": "0x640"
    },
    {
      "status": "0x1",
      "cumulativeGasUsed": "0x128465a",
      "logs": [
        {
          "address": "0xc60d72c8cb53842f15cffa8a0bb9dbc759e44452",
          "topics": [
            "0x033b55419a2dba027908fbe5a221c7df98500387bfc5bef4cbfb1e276264d205"
          ],
          "data": "0x000000000000000000000000ab0903d4bb2a7eceb4ca88d74f3924c3fe0a8dc10000000000000000000000000000000000000000000000000000000000000001",
          "blockHash": "0xf16df4dcae35df76435f0753bf0451c7c078d4f15be3a851d98b92c00ec45fbc",
          "blockNumber": "0x237f7de",
          "transactionHash": "0x4f5e67f0a724d731c943cc710d56f2a81593f4aab7d7b5cc2b22334382feb419",
          "transactionIndex": "0x91",
          "logIndex": "0x1c5",
          "removed": false
        }
      ],
      "logsBloom": "0x00000000000000000000000000000000000000000000000000000000000000000000000000000000000000000000000000000000000000000000000000000000000000000000000000000000000000000000000000000000000000000000000000000000000000000000000000000000000000000018000000000000000000000000000000080000000000000000000000000000000000000000000000000000100000400000000000000000000000000000000000000000000000000000000000000000000000000000000000000000000000000000000000000000000000000000000000000000000000000000000000000800000000000000000000000000",
      "type": "0x2",
      "transactionHash": "0x4f5e67f0a724d731c943cc710d56f2a81593f4aab7d7b5cc2b22334382feb419",
      "transactionIndex": "0x91",
      "blockHash": "0xf16df4dcae35df76435f0753bf0451c7c078d4f15be3a851d98b92c00ec45fbc",
      "blockNumber": "0x237f7de",
      "gasUsed": "0xd16c",
      "effectiveGasPrice": "0x741fa7",
      "from": "0xee03621ce83bbf6e3931bccf35b144354f16ccf7",
      "to": "0xc60d72c8cb53842f15cffa8a0bb9dbc759e44452",
      "contractAddress": null,
      "l1BaseFeeScalar": "0x8dd",
      "l1BlobBaseFee": "0x1",
      "l1BlobBaseFeeScalar": "0x101c12",
      "l1Fee": "0x4de7df4a",
      "l1GasPrice": "0x157592ea",
      "l1GasUsed": "0x640"
    },
    {
      "status": "0x1",
      "cumulativeGasUsed": "0x12917c6",
      "logs": [
        {
          "address": "0xc60d72c8cb53842f15cffa8a0bb9dbc759e44452",
          "topics": [
            "0x033b55419a2dba027908fbe5a221c7df98500387bfc5bef4cbfb1e276264d205"
          ],
          "data": "0x00000000000000000000000009490e9e625adc21db63183e9bf43ed3f86307820000000000000000000000000000000000000000000000000000000000000001",
          "blockHash": "0xf8a064587a74320a6e8191c8466f1081a019a7a5083a1049dd2eee031cc0857c",
          "blockNumber": "0x237f7de",
          "blockTimestamp": "0x68fa4c9f",
          "transactionHash": "0x3c12e2c4c969e40b50f5175baf98a6f35b025c1c331c592e95b0bc7343332664",
          "transactionIndex": "0x92",
          "logIndex": "0x1c6",
          "removed": false
        }
      ],
      "logsBloom": "0x00000000000000000000000000000000000000000000000000000000000000000000000000000000000000000000000000000000000000000000000000000000000000000000000000000000000000000000000000000000000000000000000000000000000000000000000000000000000000000018000000000000000000000000000000080000000000000000000000000000000000000000000000000000100000400000000000000000000000000000000000000000000000000000000000000000000000000000000000000000000000000000000000000000000000000000000000000000000000000000000000000800000000000000000000000000",
      "type": "0x2",
      "transactionHash": "0x3c12e2c4c969e40b50f5175baf98a6f35b025c1c331c592e95b0bc7343332664",
      "transactionIndex": "0x92",
      "blockHash": "0xf8a064587a74320a6e8191c8466f1081a019a7a5083a1049dd2eee031cc0857c",
      "blockNumber": "0x237f7de",
      "gasUsed": "0xd16c",
      "effectiveGasPrice": "0x741fa7",
      "from": "0xee03621ce83bbf6e3931bccf35b144354f16ccf7",
      "to": "0xc60d72c8cb53842f15cffa8a0bb9dbc759e44452",
      "contractAddress": null,
      "l1BaseFeeScalar": "0x8dd",
      "l1BlobBaseFee": "0x1",
      "l1BlobBaseFeeScalar": "0x101c12",
      "l1Fee": "0x10220030e",
      "l1GasPrice": "0x157592ea",
      "l1GasUsed": "0x640"
    },
    {
      "status": "0x1",
      "cumulativeGasUsed": "0x18fc1be",
      "logs": [
        {
          "address": "0xc60d72c8cb53842f15cffa8a0bb9dbc759e44452",
          "topics": [
            "0x033b55419a2dba027908fbe5a221c7df98500387bfc5bef4cbfb1e276264d205"
          ],
          "data": "0x000000000000000000000000c79b05e2962c1d3d9f5fefe7c5bde9097629989b0000000000000000000000000000000000000000000000000000000000000001",
          "blockHash": "0xf8a064587a74320a6e8191c8466f1081a019a7a5083a1049dd2eee031cc0857c",
          "blockNumber": "0x237f7de",
          "blockTimestamp": "0x68fa4c9f",
          "transactionHash": "0xfac54d07cdbb87c7edb8de35c0993d0cdfffaa0113e681baaf80f943660d9000",
          "transactionIndex": "0xc7",
          "logIndex": "0x20d",
          "removed": false
        }
      ],
      "logsBloom": "0x00000000000000000000000000000000000000000000000000000000000000000000000000000000000000000000000000000000000000000000000000000000000000000000000000000000000000000000000000000000000000000000000000000000000000000000000000000000000000000018000000000000000000000000000000080000000000000000000000000000000000000000000000000000100000400000000000000000000000000000000000000000000000000000000000000000000000000000000000000000000000000000000000000000000000000000000000000000000000000000000000000800000000000000000000000000",
      "type": "0x2",
      "transactionHash": "0xfac54d07cdbb87c7edb8de35c0993d0cdfffaa0113e681baaf80f943660d9000",
      "transactionIndex": "0xc7",
      "blockHash": "0xf8a064587a74320a6e8191c8466f1081a019a7a5083a1049dd2eee031cc0857c",
      "blockNumber": "0x237f7de",
      "gasUsed": "0xd16c",
      "effectiveGasPrice": "0x741fa7",
      "from": "0xee03621ce83bbf6e3931bccf35b144354f16ccf7",
      "to": "0xc60d72c8cb53842f15cffa8a0bb9dbc759e44452",
      "contractAddress": null,
      "l1BaseFeeScalar": "0x8dd",
      "l1BlobBaseFee": "0x1",
      "l1BlobBaseFeeScalar": "0x101c12",
      "l1Fee": "0x10220030e",
      "l1GasPrice": "0x157592ea",
      "l1GasUsed": "0x640"
    }
  ],
  "libraries": [],
  "pending": [],
  "returns": {},
  "timestamp": 1761234080026,
  "chain": 8453,
  "commit": "0b38601"
}