{
  "transactions": [
    {
      "hash": "0xeaeb5319e1dc0b307fff68f0f093984ea6c79fa230c53cff77122deee5e55cf7",
      "transactionType": "CALL",
      "contractName": null,
      "contractAddress": "0xb113959014d95c555b8a908d794e73478e5509a8",
      "function": "setTokenPriceFeed(address,address)",
      "arguments": [
        "0xe3BaB20B2711e0577C46d14fd10bfFC0961036C3",
        "0x7e860098F58bBFC8648a4311b374B1D669a2bc6B"
      ],
      "transaction": {
        "from": "0xee03621ce83bbf6e3931bccf35b144354f16ccf7",
        "to": "0xb113959014d95c555b8a908d794e73478e5509a8",
        "gas": "0x9ae9",
        "value": "0x0",
        "input": "0x674417ae000000000000000000000000e3bab20b2711e0577c46d14fd10bffc0961036c30000000000000000000000007e860098f58bbfc8648a4311b374b1d669a2bc6b",
        "nonce": "0xc7",
        "chainId": "0x2105"
      },
      "additionalContracts": [],
      "isFixedGasLimit": false
    },
    {
      "hash": "0x58a1e3d09803cbe03c6754eda848998f17f6537b42ae5644e20e014dc44a2688",
      "transactionType": "CALL",
      "contractName": null,
      "contractAddress": "0xb113959014d95c555b8a908d794e73478e5509a8",
      "function": "setTokenPriceFeed(address,address)",
      "arguments": [
        "0xE29A9fBdf3d83c126C6366D7f401473Ab0850e7F",
        "0x71041dddad3595F9CEd3DcCFBe3D1F4b0a16Bb70"
      ],
      "transaction": {
        "from": "0xee03621ce83bbf6e3931bccf35b144354f16ccf7",
        "to": "0xb113959014d95c555b8a908d794e73478e5509a8",
        "gas": "0x9afa",
        "value": "0x0",
        "input": "0x674417ae000000000000000000000000e29a9fbdf3d83c126c6366d7f401473ab0850e7f00000000000000000000000071041dddad3595f9ced3dccfbe3d1f4b0a16bb70",
        "nonce": "0xc8",
        "chainId": "0x2105"
      },
      "additionalContracts": [],
      "isFixedGasLimit": false
    },
    {
      "hash": "0x7ef5f202556c8253863fce8516556ea5ff0152f5222b87abe365be3c39963850",
      "transactionType": "CALL",
      "contractName": null,
      "contractAddress": "0xb113959014d95c555b8a908d794e73478e5509a8",
      "function": "setTokenPriceFeed(address,address)",
      "arguments": [
        "0xca03A4dFE09f664890ee7B46D9Af4F0B6d5f6f15",
        "0x7B7a330EdC927CD77b41c198ac4fE25A6B5c2C3b"
      ],
      "transaction": {
        "from": "0xee03621ce83bbf6e3931bccf35b144354f16ccf7",
        "to": "0xb113959014d95c555b8a908d794e73478e5509a8",
        "gas": "0x10659",
        "value": "0x0",
        "input": "0x674417ae000000000000000000000000ca03a4dfe09f664890ee7b46d9af4f0b6d5f6f150000000000000000000000007b7a330edc927cd77b41c198ac4fe25a6b5c2c3b",
        "nonce": "0xc9",
        "chainId": "0x2105"
      },
      "additionalContracts": [],
      "isFixedGasLimit": false
    },
    {
      "hash": "0x7e46e86906504a95fb7642f174df0a9e638a272e27e20ec5b1ffabf2f6f24d18",
      "transactionType": "CALL",
      "contractName": null,
      "contractAddress": "0xb113959014d95c555b8a908d794e73478e5509a8",
      "function": "setTokenPriceFeed(address,address)",
      "arguments": [
        "0xED6Cfb1D2F61F75419BaB537Ca1C5351B6a4c017",
        "0xEDa712E6D5F0C989e9bdeEb8dadB2F4B4F54ACC5"
      ],
      "transaction": {
        "from": "0xee03621ce83bbf6e3931bccf35b144354f16ccf7",
        "to": "0xb113959014d95c555b8a908d794e73478e5509a8",
        "gas": "0x10659",
        "value": "0x0",
        "input": "0x674417ae000000000000000000000000ed6cfb1d2f61f75419bab537ca1c5351b6a4c017000000000000000000000000eda712e6d5f0c989e9bdeeb8dadb2f4b4f54acc5",
        "nonce": "0xca",
        "chainId": "0x2105"
      },
      "additionalContracts": [],
      "isFixedGasLimit": false
    },
    {
      "hash": "0x1583c13208044f4fe10b12693ef1a3f5dc98006a62730bb941cfa618a4ddc240",
      "transactionType": "CALL",
      "contractName": null,
      "contractAddress": "0xb113959014d95c555b8a908d794e73478e5509a8",
      "function": "setTokenPriceFeed(address,address)",
      "arguments": [
        "0xD773084B8Cd424AD87D35bE6901255feE285A763",
        "0x43Db7FF630c993f080f315007961756f2b96Fa45"
      ],
      "transaction": {
        "from": "0xee03621ce83bbf6e3931bccf35b144354f16ccf7",
        "to": "0xb113959014d95c555b8a908d794e73478e5509a8",
        "gas": "0x10649",
        "value": "0x0",
        "input": "0x674417ae000000000000000000000000d773084b8cd424ad87d35be6901255fee285a76300000000000000000000000043db7ff630c993f080f315007961756f2b96fa45",
        "nonce": "0xcb",
        "chainId": "0x2105"
      },
      "additionalContracts": [],
      "isFixedGasLimit": false
    },
    {
      "hash": "0xffa12d4c344f32246c38aa64b314cbafdbaf3c729641af561bd5f9d8d0eeecbe",
      "transactionType": "CALL",
      "contractName": null,
      "contractAddress": "0xb113959014d95c555b8a908d794e73478e5509a8",
      "function": "setTokenPriceFeed(address,address)",
      "arguments": [
        "0x1D7c9083d76aD235aE44d90Bc13EcA74Ccc2Ed42",
        "0x2F7c95D1848cb0a5E36DE0D4Db04C4aFe09053dD"
      ],
      "transaction": {
        "from": "0xee03621ce83bbf6e3931bccf35b144354f16ccf7",
        "to": "0xb113959014d95c555b8a908d794e73478e5509a8",
        "gas": "0x10659",
        "value": "0x0",
        "input": "0x674417ae0000000000000000000000001d7c9083d76ad235ae44d90bc13eca74ccc2ed420000000000000000000000002f7c95d1848cb0a5e36de0d4db04c4afe09053dd",
        "nonce": "0xcc",
        "chainId": "0x2105"
      },
      "additionalContracts": [],
      "isFixedGasLimit": false
    },
    {
      "hash": "0x716a4b06e02c74206ce11f8920b4f920feba6be46503fb73b6655dc634c33ead",
      "transactionType": "CALL",
      "contractName": null,
      "contractAddress": "0xb113959014d95c555b8a908d794e73478e5509a8",
      "function": "setTokenPriceFeed(address,address)",
      "arguments": [
        "0xB7e6d4119F5E482D8d68D0AA4c81F14A082Ec917",
        "0x618942aF15f2Fe6F451bEe0E094D46df39822e74"
      ],
      "transaction": {
        "from": "0xee03621ce83bbf6e3931bccf35b144354f16ccf7",
        "to": "0xb113959014d95c555b8a908d794e73478e5509a8",
        "gas": "0x10659",
        "value": "0x0",
        "input": "0x674417ae000000000000000000000000b7e6d4119f5e482d8d68d0aa4c81f14a082ec917000000000000000000000000618942af15f2fe6f451bee0e094d46df39822e74",
        "nonce": "0xcd",
        "chainId": "0x2105"
      },
      "additionalContracts": [],
      "isFixedGasLimit": false
    },
    {
      "hash": "0xb4169580e9cf488db8bae4df70811a8e8c21c394d877b500893a7caa3e3f551b",
      "transactionType": "CALL",
      "contractName": null,
      "contractAddress": "0xb113959014d95c555b8a908d794e73478e5509a8",
      "function": "setTokenPriceFeed(address,address)",
      "arguments": [
        "0xef49434AcC92ED24e7d245f748aacDE471A68F06",
        "0xBf374ffDde61Ebf4e19dC0320BD2DeD9De447EB4"
      ],
      "transaction": {
        "from": "0xee03621ce83bbf6e3931bccf35b144354f16ccf7",
        "to": "0xb113959014d95c555b8a908d794e73478e5509a8",
        "gas": "0x10659",
        "value": "0x0",
        "input": "0x674417ae000000000000000000000000ef49434acc92ed24e7d245f748aacde471a68f06000000000000000000000000bf374ffdde61ebf4e19dc0320bd2ded9de447eb4",
        "nonce": "0xce",
        "chainId": "0x2105"
      },
      "additionalContracts": [],
      "isFixedGasLimit": false
    },
    {
      "hash": "0xdc3570cd305c480633330e2026a5562db01350d39b18dbae2b61aa625ef23cb5",
      "transactionType": "CALL",
      "contractName": null,
      "contractAddress": "0xb113959014d95c555b8a908d794e73478e5509a8",
      "function": "setTokenPriceFeed(address,address)",
      "arguments": [
        "0x5F01296847f20Fc68C79D051AB75Fb9169096F00",
        "0x88D873c00658874996E07E98E84fF89C3Aa314c1"
      ],
      "transaction": {
        "from": "0xee03621ce83bbf6e3931bccf35b144354f16ccf7",
        "to": "0xb113959014d95c555b8a908d794e73478e5509a8",
        "gas": "0x10649",
        "value": "0x0",
        "input": "0x674417ae0000000000000000000000005f01296847f20fc68c79d051ab75fb9169096f0000000000000000000000000088d873c00658874996e07e98e84ff89c3aa314c1",
        "nonce": "0xcf",
        "chainId": "0x2105"
      },
      "additionalContracts": [],
      "isFixedGasLimit": false
    },
    {
      "hash": "0x9773d6e9a0bbcecd9966135cde1bad4dfb3bbb69d688588ff8316ae221e4ac35",
      "transactionType": "CALL",
      "contractName": null,
      "contractAddress": "0xb113959014d95c555b8a908d794e73478e5509a8",
      "function": "setTokenPriceFeed(address,address)",
      "arguments": [
        "0x74Ae55CA4EaA2337f309F77A7AF1b60Ea9085FB6",
        "0x7E588B76807B0ADF014c4ceA3d9DF28d4C5E7c80"
      ],
      "transaction": {
        "from": "0xee03621ce83bbf6e3931bccf35b144354f16ccf7",
        "to": "0xb113959014d95c555b8a908d794e73478e5509a8",
        "gas": "0x10659",
        "value": "0x0",
        "input": "0x674417ae00000000000000000000000074ae55ca4eaa2337f309f77a7af1b60ea9085fb60000000000000000000000007e588b76807b0adf014c4cea3d9df28d4c5e7c80",
        "nonce": "0xd0",
        "chainId": "0x2105"
      },
      "additionalContracts": [],
      "isFixedGasLimit": false
    },
    {
      "hash": "0xf16c90439403553d1543b8e1cee103b8f5f2d23d1d33ecc3ebbace32685c68a2",
      "transactionType": "CALL",
      "contractName": null,
      "contractAddress": "0xb113959014d95c555b8a908d794e73478e5509a8",
      "function": "setTokenPriceFeed(address,address)",
      "arguments": [
        "0xB2B60Bb1e9796cAE4Dc4c87f456db675871b0d2B",
        "0xc75DE9a3c001f6e5f45fb44a11fa7d92E82BAc0E"
      ],
      "transaction": {
        "from": "0xee03621ce83bbf6e3931bccf35b144354f16ccf7",
        "to": "0xb113959014d95c555b8a908d794e73478e5509a8",
        "gas": "0x10659",
        "value": "0x0",
        "input": "0x674417ae000000000000000000000000b2b60bb1e9796cae4dc4c87f456db675871b0d2b000000000000000000000000c75de9a3c001f6e5f45fb44a11fa7d92e82bac0e",
        "nonce": "0xd1",
        "chainId": "0x2105"
      },
      "additionalContracts": [],
      "isFixedGasLimit": false
    }
  ],
  "receipts": [
    {
      "status": "0x1",
      "cumulativeGasUsed": "0x2143020",
      "logs": [
        {
          "address": "0xb113959014d95c555b8a908d794e73478e5509a8",
          "topics": [
            "0x06450d77a493ade91a66792442980e4499d56e1565b15d80f0790f2a962a135d"
          ],
          "data": "0x000000000000000000000000e3bab20b2711e0577c46d14fd10bffc0961036c30000000000000000000000007e860098f58bbfc8648a4311b374b1d669a2bc6b",
          "blockHash": "0xe7a434e5dab49149b83d00a385b2f6bc28b903fa6874802d0fdbe40fd2ddf654",
          "blockNumber": "0x235f2de",
          "blockTimestamp": "0x68f6429f",
          "transactionHash": "0xeaeb5319e1dc0b307fff68f0f093984ea6c79fa230c53cff77122deee5e55cf7",
          "transactionIndex": "0xc8",
          "logIndex": "0x1e3",
          "removed": false
        }
      ],
      "logsBloom": "0x00000000000000000000000000000000000000000000000000000000000000000000400000000000000000000000000000000000002000000000000000000000000000000000000000000000000000000000000000000000000000000000000000000200000000000000000000000000000000000000000000000100000000000000000000000000000000000000000000000000000000000000000000000000000000000000000000000000000000000000000000000000000000000000000000000000800000000000000000000000000000000000000000000000000000000000000000000000000000000000000000000000000000200000000000000000",
      "type": "0x2",
      "transactionHash": "0xeaeb5319e1dc0b307fff68f0f093984ea6c79fa230c53cff77122deee5e55cf7",
      "transactionIndex": "0xc8",
      "blockHash": "0xe7a434e5dab49149b83d00a385b2f6bc28b903fa6874802d0fdbe40fd2ddf654",
      "blockNumber": "0x235f2de",
      "gasUsed": "0x7028",
      "effectiveGasPrice": "0x59dc89",
      "from": "0xee03621ce83bbf6e3931bccf35b144354f16ccf7",
      "to": "0xb113959014d95c555b8a908d794e73478e5509a8",
      "contractAddress": null,
      "l1BaseFeeScalar": "0x8dd",
      "l1BlobBaseFee": "0x3",
      "l1BlobBaseFeeScalar": "0x101c12",
      "l1Fee": "0x908f8d85",
      "l1GasPrice": "0x27d1cb24",
      "l1GasUsed": "0x640"
    },
    {
      "status": "0x1",
      "cumulativeGasUsed": "0x480699",
      "logs": [
        {
          "address": "0xb113959014d95c555b8a908d794e73478e5509a8",
          "topics": [
            "0x06450d77a493ade91a66792442980e4499d56e1565b15d80f0790f2a962a135d"
          ],
          "data": "0x000000000000000000000000e29a9fbdf3d83c126c6366d7f401473ab0850e7f00000000000000000000000071041dddad3595f9ced3dccfbe3d1f4b0a16bb70",
          "blockHash": "0x68b4a628d18ee8706b08a961bbde74c36722dcb07df3951c0f57b8f55b79feca",
          "blockNumber": "0x235f2df",
          "blockTimestamp": "0x68f642a1",
          "transactionHash": "0x58a1e3d09803cbe03c6754eda848998f17f6537b42ae5644e20e014dc44a2688",
          "transactionIndex": "0x1d",
          "logIndex": "0x72",
          "removed": false
        }
      ],
      "logsBloom": "0x00000000000000000000000000000000000000000000000000000000000000000000400000000000000000000000000000000000002000000000000000000000000000000000000000000000000000000000000000000000000000000000000000000200000000000000000000000000000000000000000000000100000000000000000000000000000000000000000000000000000000000000000000000000000000000000000000000000000000000000000000000000000000000000000000000000800000000000000000000000000000000000000000000000000000000000000000000000000000000000000000000000000000200000000000000000",
      "type": "0x2",
      "transactionHash": "0x58a1e3d09803cbe03c6754eda848998f17f6537b42ae5644e20e014dc44a2688",
      "transactionIndex": "0x1d",
      "blockHash": "0x68b4a628d18ee8706b08a961bbde74c36722dcb07df3951c0f57b8f55b79feca",
      "blockNumber": "0x235f2df",
      "gasUsed": "0x7034",
      "effectiveGasPrice": "0x597fe1",
      "from": "0xee03621ce83bbf6e3931bccf35b144354f16ccf7",
      "to": "0xb113959014d95c555b8a908d794e73478e5509a8",
      "contractAddress": null,
      "l1BaseFeeScalar": "0x8dd",
      "l1BlobBaseFee": "0x3",
      "l1BlobBaseFeeScalar": "0x101c12",
      "l1Fee": "0x908f8d85",
      "l1GasPrice": "0x27d1cb24",
      "l1GasUsed": "0x640"
    },
    {
      "status": "0x1",
      "cumulativeGasUsed": "0x48c489",
      "logs": [
        {
          "address": "0xb113959014d95c555b8a908d794e73478e5509a8",
          "topics": [
            "0x06450d77a493ade91a66792442980e4499d56e1565b15d80f0790f2a962a135d"
          ],
          "data": "0x000000000000000000000000ca03a4dfe09f664890ee7b46d9af4f0b6d5f6f150000000000000000000000007b7a330edc927cd77b41c198ac4fe25a6b5c2c3b",
          "blockHash": "0x68b4a628d18ee8706b08a961bbde74c36722dcb07df3951c0f57b8f55b79feca",
          "blockNumber": "0x235f2df",
          "blockTimestamp": "0x68f642a1",
          "transactionHash": "0x7ef5f202556c8253863fce8516556ea5ff0152f5222b87abe365be3c39963850",
          "transactionIndex": "0x1e",
          "logIndex": "0x73",
          "removed": false
        }
      ],
      "logsBloom": "0x00000000000000000000000000000000000000000000000000000000000000000000400000000000000000000000000000000000002000000000000000000000000000000000000000000000000000000000000000000000000000000000000000000200000000000000000000000000000000000000000000000100000000000000000000000000000000000000000000000000000000000000000000000000000000000000000000000000000000000000000000000000000000000000000000000000800000000000000000000000000000000000000000000000000000000000000000000000000000000000000000000000000000200000000000000000",
      "type": "0x2",
      "transactionHash": "0x7ef5f202556c8253863fce8516556ea5ff0152f5222b87abe365be3c39963850",
      "transactionIndex": "0x1e",
      "blockHash": "0x68b4a628d18ee8706b08a961bbde74c36722dcb07df3951c0f57b8f55b79feca",
      "blockNumber": "0x235f2df",
      "gasUsed": "0xbdf0",
      "effectiveGasPrice": "0x597fe1",
      "from": "0xee03621ce83bbf6e3931bccf35b144354f16ccf7",
      "to": "0xb113959014d95c555b8a908d794e73478e5509a8",
      "contractAddress": null,
      "l1BaseFeeScalar": "0x8dd",
      "l1BlobBaseFee": "0x3",
      "l1BlobBaseFeeScalar": "0x101c12",
      "l1Fee": "0x908f8d85",
      "l1GasPrice": "0x27d1cb24",
      "l1GasUsed": "0x640"
    },
    {
      "status": "0x1",
      "cumulativeGasUsed": "0x498279",
      "logs": [
        {
          "address": "0xb113959014d95c555b8a908d794e73478e5509a8",
          "topics": [
            "0x06450d77a493ade91a66792442980e4499d56e1565b15d80f0790f2a962a135d"
          ],
          "data": "0x000000000000000000000000ed6cfb1d2f61f75419bab537ca1c5351b6a4c017000000000000000000000000eda712e6d5f0c989e9bdeeb8dadb2f4b4f54acc5",
          "blockHash": "0x68b4a628d18ee8706b08a961bbde74c36722dcb07df3951c0f57b8f55b79feca",
          "blockNumber": "0x235f2df",
          "blockTimestamp": "0x68f642a1",
          "transactionHash": "0x7e46e86906504a95fb7642f174df0a9e638a272e27e20ec5b1ffabf2f6f24d18",
          "transactionIndex": "0x1f",
          "logIndex": "0x74",
          "removed": false
        }
      ],
      "logsBloom": "0x00000000000000000000000000000000000000000000000000000000000000000000400000000000000000000000000000000000002000000000000000000000000000000000000000000000000000000000000000000000000000000000000000000200000000000000000000000000000000000000000000000100000000000000000000000000000000000000000000000000000000000000000000000000000000000000000000000000000000000000000000000000000000000000000000000000800000000000000000000000000000000000000000000000000000000000000000000000000000000000000000000000000000200000000000000000",
      "type": "0x2",
      "transactionHash": "0x7e46e86906504a95fb7642f174df0a9e638a272e27e20ec5b1ffabf2f6f24d18",
      "transactionIndex": "0x1f",
      "blockHash": "0x68b4a628d18ee8706b08a961bbde74c36722dcb07df3951c0f57b8f55b79feca",
      "blockNumber": "0x235f2df",
      "gasUsed": "0xbdf0",
      "effectiveGasPrice": "0x597fe1",
      "from": "0xee03621ce83bbf6e3931bccf35b144354f16ccf7",
      "to": "0xb113959014d95c555b8a908d794e73478e5509a8",
      "contractAddress": null,
      "l1BaseFeeScalar": "0x8dd",
      "l1BlobBaseFee": "0x3",
      "l1BlobBaseFeeScalar": "0x101c12",
      "l1Fee": "0x908f8d85",
      "l1GasPrice": "0x27d1cb24",
      "l1GasUsed": "0x640"
    },
    {
      "status": "0x1",
      "cumulativeGasUsed": "0x4a405d",
      "logs": [
        {
          "address": "0xb113959014d95c555b8a908d794e73478e5509a8",
          "topics": [
            "0x06450d77a493ade91a66792442980e4499d56e1565b15d80f0790f2a962a135d"
          ],
          "data": "0x000000000000000000000000d773084b8cd424ad87d35be6901255fee285a76300000000000000000000000043db7ff630c993f080f315007961756f2b96fa45",
          "blockHash": "0x68b4a628d18ee8706b08a961bbde74c36722dcb07df3951c0f57b8f55b79feca",
          "blockNumber": "0x235f2df",
          "blockTimestamp": "0x68f642a1",
          "transactionHash": "0x1583c13208044f4fe10b12693ef1a3f5dc98006a62730bb941cfa618a4ddc240",
          "transactionIndex": "0x20",
          "logIndex": "0x75",
          "removed": false
        }
      ],
      "logsBloom": "0x00000000000000000000000000000000000000000000000000000000000000000000400000000000000000000000000000000000002000000000000000000000000000000000000000000000000000000000000000000000000000000000000000000200000000000000000000000000000000000000000000000100000000000000000000000000000000000000000000000000000000000000000000000000000000000000000000000000000000000000000000000000000000000000000000000000800000000000000000000000000000000000000000000000000000000000000000000000000000000000000000000000000000200000000000000000",
      "type": "0x2",
      "transactionHash": "0x1583c13208044f4fe10b12693ef1a3f5dc98006a62730bb941cfa618a4ddc240",
      "transactionIndex": "0x20",
      "blockHash": "0x68b4a628d18ee8706b08a961bbde74c36722dcb07df3951c0f57b8f55b79feca",
      "blockNumber": "0x235f2df",
      "gasUsed": "0xbde4",
      "effectiveGasPrice": "0x597fe1",
      "from": "0xee03621ce83bbf6e3931bccf35b144354f16ccf7",
      "to": "0xb113959014d95c555b8a908d794e73478e5509a8",
      "contractAddress": null,
      "l1BaseFeeScalar": "0x8dd",
      "l1BlobBaseFee": "0x3",
      "l1BlobBaseFeeScalar": "0x101c12",
      "l1Fee": "0x908f8d85",
      "l1GasPrice": "0x27d1cb24",
      "l1GasUsed": "0x640"
    },
    {
      "status": "0x1",
      "cumulativeGasUsed": "0x4df2ae",
      "logs": [
        {
          "address": "0xb113959014d95c555b8a908d794e73478e5509a8",
          "topics": [
            "0x06450d77a493ade91a66792442980e4499d56e1565b15d80f0790f2a962a135d"
          ],
          "data": "0x0000000000000000000000001d7c9083d76ad235ae44d90bc13eca74ccc2ed420000000000000000000000002f7c95d1848cb0a5e36de0d4db04c4afe09053dd",
          "blockHash": "0x68b4a628d18ee8706b08a961bbde74c36722dcb07df3951c0f57b8f55b79feca",
          "blockNumber": "0x235f2df",
          "blockTimestamp": "0x68f642a1",
          "transactionHash": "0xffa12d4c344f32246c38aa64b314cbafdbaf3c729641af561bd5f9d8d0eeecbe",
          "transactionIndex": "0x22",
          "logIndex": "0x7c",
          "removed": false
        }
      ],
      "logsBloom": "0x00000000000000000000000000000000000000000000000000000000000000000000400000000000000000000000000000000000002000000000000000000000000000000000000000000000000000000000000000000000000000000000000000000200000000000000000000000000000000000000000000000100000000000000000000000000000000000000000000000000000000000000000000000000000000000000000000000000000000000000000000000000000000000000000000000000800000000000000000000000000000000000000000000000000000000000000000000000000000000000000000000000000000200000000000000000",
      "type": "0x2",
      "transactionHash": "0xffa12d4c344f32246c38aa64b314cbafdbaf3c729641af561bd5f9d8d0eeecbe",
      "transactionIndex": "0x22",
      "blockHash": "0x68b4a628d18ee8706b08a961bbde74c36722dcb07df3951c0f57b8f55b79feca",
      "blockNumber": "0x235f2df",
      "gasUsed": "0xbdf0",
      "effectiveGasPrice": "0x597fe1",
      "from": "0xee03621ce83bbf6e3931bccf35b144354f16ccf7",
      "to": "0xb113959014d95c555b8a908d794e73478e5509a8",
      "contractAddress": null,
      "l1BaseFeeScalar": "0x8dd",
      "l1BlobBaseFee": "0x3",
      "l1BlobBaseFeeScalar": "0x101c12",
      "l1Fee": "0x908f8d85",
      "l1GasPrice": "0x27d1cb24",
      "l1GasUsed": "0x640"
    },
    {
      "status": "0x1",
      "cumulativeGasUsed": "0x4eb09e",
      "logs": [
        {
          "address": "0xb113959014d95c555b8a908d794e73478e5509a8",
          "topics": [
            "0x06450d77a493ade91a66792442980e4499d56e1565b15d80f0790f2a962a135d"
          ],
          "data": "0x000000000000000000000000b7e6d4119f5e482d8d68d0aa4c81f14a082ec917000000000000000000000000618942af15f2fe6f451bee0e094d46df39822e74",
          "blockHash": "0x68b4a628d18ee8706b08a961bbde74c36722dcb07df3951c0f57b8f55b79feca",
          "blockNumber": "0x235f2df",
          "blockTimestamp": "0x68f642a1",
          "transactionHash": "0x716a4b06e02c74206ce11f8920b4f920feba6be46503fb73b6655dc634c33ead",
          "transactionIndex": "0x23",
          "logIndex": "0x7d",
          "removed": false
        }
      ],
      "logsBloom": "0x00000000000000000000000000000000000000000000000000000000000000000000400000000000000000000000000000000000002000000000000000000000000000000000000000000000000000000000000000000000000000000000000000000200000000000000000000000000000000000000000000000100000000000000000000000000000000000000000000000000000000000000000000000000000000000000000000000000000000000000000000000000000000000000000000000000800000000000000000000000000000000000000000000000000000000000000000000000000000000000000000000000000000200000000000000000",
      "type": "0x2",
      "transactionHash": "0x716a4b06e02c74206ce11f8920b4f920feba6be46503fb73b6655dc634c33ead",
      "transactionIndex": "0x23",
      "blockHash": "0x68b4a628d18ee8706b08a961bbde74c36722dcb07df3951c0f57b8f55b79feca",
      "blockNumber": "0x235f2df",
      "gasUsed": "0xbdf0",
      "effectiveGasPrice": "0x597fe1",
      "from": "0xee03621ce83bbf6e3931bccf35b144354f16ccf7",
      "to": "0xb113959014d95c555b8a908d794e73478e5509a8",
      "contractAddress": null,
      "l1BaseFeeScalar": "0x8dd",
      "l1BlobBaseFee": "0x3",
      "l1BlobBaseFeeScalar": "0x101c12",
      "l1Fee": "0x908f8d85",
      "l1GasPrice": "0x27d1cb24",
      "l1GasUsed": "0x640"
    },
    {
      "status": "0x1",
      "cumulativeGasUsed": "0xc540e5",
      "logs": [
        {
          "address": "0xb113959014d95c555b8a908d794e73478e5509a8",
          "topics": [
            "0x06450d77a493ade91a66792442980e4499d56e1565b15d80f0790f2a962a135d"
          ],
          "data": "0x000000000000000000000000ef49434acc92ed24e7d245f748aacde471a68f06000000000000000000000000bf374ffdde61ebf4e19dc0320bd2ded9de447eb4",
          "blockHash": "0x68b4a628d18ee8706b08a961bbde74c36722dcb07df3951c0f57b8f55b79feca",
          "blockNumber": "0x235f2df",
          "blockTimestamp": "0x68f642a1",
          "transactionHash": "0xb4169580e9cf488db8bae4df70811a8e8c21c394d877b500893a7caa3e3f551b",
          "transactionIndex": "0x49",
          "logIndex": "0x10c",
          "removed": false
        }
      ],
      "logsBloom": "0x00000000000000000000000000000000000000000000000000000000000000000000400000000000000000000000000000000000002000000000000000000000000000000000000000000000000000000000000000000000000000000000000000000200000000000000000000000000000000000000000000000100000000000000000000000000000000000000000000000000000000000000000000000000000000000000000000000000000000000000000000000000000000000000000000000000800000000000000000000000000000000000000000000000000000000000000000000000000000000000000000000000000000200000000000000000",
      "type": "0x2",
      "transactionHash": "0xb4169580e9cf488db8bae4df70811a8e8c21c394d877b500893a7caa3e3f551b",
      "transactionIndex": "0x49",
      "blockHash": "0x68b4a628d18ee8706b08a961bbde74c36722dcb07df3951c0f57b8f55b79feca",
      "blockNumber": "0x235f2df",
      "gasUsed": "0xbdf0",
      "effectiveGasPrice": "0x597fe1",
      "from": "0xee03621ce83bbf6e3931bccf35b144354f16ccf7",
      "to": "0xb113959014d95c555b8a908d794e73478e5509a8",
      "contractAddress": null,
      "l1BaseFeeScalar": "0x8dd",
      "l1BlobBaseFee": "0x3",
      "l1BlobBaseFeeScalar": "0x101c12",
      "l1Fee": "0x908f8d85",
      "l1GasPrice": "0x27d1cb24",
      "l1GasUsed": "0x640"
    },
    {
      "status": "0x1",
      "cumulativeGasUsed": "0x13d687d",
      "logs": [
        {
          "address": "0xb113959014d95c555b8a908d794e73478e5509a8",
          "topics": [
            "0x06450d77a493ade91a66792442980e4499d56e1565b15d80f0790f2a962a135d"
          ],
          "data": "0x0000000000000000000000005f01296847f20fc68c79d051ab75fb9169096f0000000000000000000000000088d873c00658874996e07e98e84ff89c3aa314c1",
          "blockHash": "0x68b4a628d18ee8706b08a961bbde74c36722dcb07df3951c0f57b8f55b79feca",
          "blockNumber": "0x235f2df",
          "blockTimestamp": "0x68f642a1",
          "transactionHash": "0xdc3570cd305c480633330e2026a5562db01350d39b18dbae2b61aa625ef23cb5",
          "transactionIndex": "0x81",
          "logIndex": "0x14d",
          "removed": false
        }
      ],
      "logsBloom": "0x00000000000000000000000000000000000000000000000000000000000000000000400000000000000000000000000000000000002000000000000000000000000000000000000000000000000000000000000000000000000000000000000000000200000000000000000000000000000000000000000000000100000000000000000000000000000000000000000000000000000000000000000000000000000000000000000000000000000000000000000000000000000000000000000000000000800000000000000000000000000000000000000000000000000000000000000000000000000000000000000000000000000000200000000000000000",
      "type": "0x2",
      "transactionHash": "0xdc3570cd305c480633330e2026a5562db01350d39b18dbae2b61aa625ef23cb5",
      "transactionIndex": "0x81",
      "blockHash": "0x68b4a628d18ee8706b08a961bbde74c36722dcb07df3951c0f57b8f55b79feca",
      "blockNumber": "0x235f2df",
      "gasUsed": "0xbde4",
      "effectiveGasPrice": "0x597fe1",
      "from": "0xee03621ce83bbf6e3931bccf35b144354f16ccf7",
      "to": "0xb113959014d95c555b8a908d794e73478e5509a8",
      "contractAddress": null,
      "l1BaseFeeScalar": "0x8dd",
      "l1BlobBaseFee": "0x3",
      "l1BlobBaseFeeScalar": "0x101c12",
      "l1Fee": "0x908f8d85",
      "l1GasPrice": "0x27d1cb24",
      "l1GasUsed": "0x640"
    },
    {
      "status": "0x1",
      "cumulativeGasUsed": "0x15f8c59",
      "logs": [
        {
          "address": "0xb113959014d95c555b8a908d794e73478e5509a8",
          "topics": [
            "0x06450d77a493ade91a66792442980e4499d56e1565b15d80f0790f2a962a135d"
          ],
          "data": "0x00000000000000000000000074ae55ca4eaa2337f309f77a7af1b60ea9085fb60000000000000000000000007e588b76807b0adf014c4cea3d9df28d4c5e7c80",
          "blockHash": "0x68b4a628d18ee8706b08a961bbde74c36722dcb07df3951c0f57b8f55b79feca",
          "blockNumber": "0x235f2df",
          "blockTimestamp": "0x68f642a1",
          "transactionHash": "0x9773d6e9a0bbcecd9966135cde1bad4dfb3bbb69d688588ff8316ae221e4ac35",
          "transactionIndex": "0x93",
          "logIndex": "0x16f",
          "removed": false
        }
      ],
      "logsBloom": "0x00000000000000000000000000000000000000000000000000000000000000000000400000000000000000000000000000000000002000000000000000000000000000000000000000000000000000000000000000000000000000000000000000000200000000000000000000000000000000000000000000000100000000000000000000000000000000000000000000000000000000000000000000000000000000000000000000000000000000000000000000000000000000000000000000000000800000000000000000000000000000000000000000000000000000000000000000000000000000000000000000000000000000200000000000000000",
      "type": "0x2",
      "transactionHash": "0x9773d6e9a0bbcecd9966135cde1bad4dfb3bbb69d688588ff8316ae221e4ac35",
      "transactionIndex": "0x93",
      "blockHash": "0x68b4a628d18ee8706b08a961bbde74c36722dcb07df3951c0f57b8f55b79feca",
      "blockNumber": "0x235f2df",
      "gasUsed": "0xbdf0",
      "effectiveGasPrice": "0x597fe1",
      "from": "0xee03621ce83bbf6e3931bccf35b144354f16ccf7",
      "to": "0xb113959014d95c555b8a908d794e73478e5509a8",
      "contractAddress": null,
      "l1BaseFeeScalar": "0x8dd",
      "l1BlobBaseFee": "0x3",
      "l1BlobBaseFeeScalar": "0x101c12",
      "l1Fee": "0x908f8d85",
      "l1GasPrice": "0x27d1cb24",
      "l1GasUsed": "0x640"
    },
    {
      "status": "0x1",
      "cumulativeGasUsed": "0x1604a49",
      "logs": [
        {
          "address": "0xb113959014d95c555b8a908d794e73478e5509a8",
          "topics": [
            "0x06450d77a493ade91a66792442980e4499d56e1565b15d80f0790f2a962a135d"
          ],
          "data": "0x000000000000000000000000b2b60bb1e9796cae4dc4c87f456db675871b0d2b000000000000000000000000c75de9a3c001f6e5f45fb44a11fa7d92e82bac0e",
          "blockHash": "0x68b4a628d18ee8706b08a961bbde74c36722dcb07df3951c0f57b8f55b79feca",
          "blockNumber": "0x235f2df",
          "blockTimestamp": "0x68f642a1",
          "transactionHash": "0xf16c90439403553d1543b8e1cee103b8f5f2d23d1d33ecc3ebbace32685c68a2",
          "transactionIndex": "0x94",
          "logIndex": "0x170",
          "removed": false
        }
      ],
      "logsBloom": "0x00000000000000000000000000000000000000000000000000000000000000000000400000000000000000000000000000000000002000000000000000000000000000000000000000000000000000000000000000000000000000000000000000000200000000000000000000000000000000000000000000000100000000000000000000000000000000000000000000000000000000000000000000000000000000000000000000000000000000000000000000000000000000000000000000000000800000000000000000000000000000000000000000000000000000000000000000000000000000000000000000000000000000200000000000000000",
      "type": "0x2",
      "transactionHash": "0xf16c90439403553d1543b8e1cee103b8f5f2d23d1d33ecc3ebbace32685c68a2",
      "transactionIndex": "0x94",
      "blockHash": "0x68b4a628d18ee8706b08a961bbde74c36722dcb07df3951c0f57b8f55b79feca",
      "blockNumber": "0x235f2df",
      "gasUsed": "0xbdf0",
      "effectiveGasPrice": "0x597fe1",
      "from": "0xee03621ce83bbf6e3931bccf35b144354f16ccf7",
      "to": "0xb113959014d95c555b8a908d794e73478e5509a8",
      "contractAddress": null,
      "l1BaseFeeScalar": "0x8dd",
      "l1BlobBaseFee": "0x3",
      "l1BlobBaseFeeScalar": "0x101c12",
      "l1Fee": "0x908f8d85",
      "l1GasPrice": "0x27d1cb24",
      "l1GasUsed": "0x640"
    }
  ],
  "libraries": [],
  "pending": [],
  "returns": {},
  "timestamp": 1760969378953,
  "chain": 8453,
  "commit": "403ecc4"
}