{
  "transactions": [
    {
      "hash": "0x70a4e375d7d0489274130f9d490a94526f4983e479a2665ec171fd538932c685",
      "transactionType": "CALL",
      "contractName": null,
      "contractAddress": "0xc60d72c8cb53842f15cffa8a0bb9dbc759e44452",
      "function": "withdrawCollateral(address,address,uint256)",
      "arguments": [
        "0xEe03621Ce83BbF6e3931BcCf35b144354F16ccf7",
        "0xE29A9fBdf3d83c126C6366D7f401473Ab0850e7F",
        "1000000000000000000"
      ],
      "transaction": {
        "from": "0xee03621ce83bbf6e3931bccf35b144354f16ccf7",
        "to": "0xc60d72c8cb53842f15cffa8a0bb9dbc759e44452",
        "gas": "0x208c1",
        "value": "0x0",
        "input": "0x2ae8bdfe000000000000000000000000ee03621ce83bbf6e3931bccf35b144354f16ccf7000000000000000000000000e29a9fbdf3d83c126c6366d7f401473ab0850e7f0000000000000000000000000000000000000000000000000de0b6b3a7640000",
        "nonce": "0x3e",
        "chainId": "0x2105"
      },
      "additionalContracts": [],
      "isFixedGasLimit": false
    }
  ],
  "receipts": [
    {
      "status": "0x1",
      "cumulativeGasUsed": "0x117bf42",
      "logs": [
        {
          "address": "0xe29a9fbdf3d83c126c6366d7f401473ab0850e7f",
          "topics": [
            "0xddf252ad1be2c89b69c2b068fc378daa952ba7f163c4a11628f55a4df523b3ef",
            "0x000000000000000000000000c60d72c8cb53842f15cffa8a0bb9dbc759e44452",
            "0x000000000000000000000000ee03621ce83bbf6e3931bccf35b144354f16ccf7"
          ],
          "data": "0x0000000000000000000000000000000000000000000000000de0b6b3a7640000",
          "blockHash": "0xd6c648419d07555848e011c59beca9e3b186d4e9ddddf610e73af7a16c4306c3",
          "blockNumber": "0x2346dd0",
          "blockTimestamp": "0x68f33883",
          "transactionHash": "0x70a4e375d7d0489274130f9d490a94526f4983e479a2665ec171fd538932c685",
          "transactionIndex": "0x57",
          "logIndex": "0x100",
          "removed": false
        },
        {
          "address": "0xc60d72c8cb53842f15cffa8a0bb9dbc759e44452",
          "topics": [
            "0x1607da8e9144035d8537941425741e9e3569c81d34a7f8e0c5c44635dc716921",
            "0x000000000000000000000000ee03621ce83bbf6e3931bccf35b144354f16ccf7",
            "0x000000000000000000000000e29a9fbdf3d83c126c6366d7f401473ab0850e7f"
          ],
          "data": "0x0000000000000000000000000000000000000000000000000de0b6b3a7640000",
          "blockHash": "0xd6c648419d07555848e011c59beca9e3b186d4e9ddddf610e73af7a16c4306c3",
          "blockNumber": "0x2346dd0",
          "blockTimestamp": "0x68f33883",
          "transactionHash": "0x70a4e375d7d0489274130f9d490a94526f4983e479a2665ec171fd538932c685",
          "transactionIndex": "0x57",
          "logIndex": "0x101",
          "removed": false
        }
      ],
      "logsBloom": "0x00000000000000001000000000000000000000000000000000000000000000000000000000000000000000000000000000010000000000000004000000000000000000000000000000000018040000000000000000000000000000000080040000000010010000004000000000000000028000000018000000000010000000000000000000000000000000000000000000000000000000001000000000000000000000400000000000000000000000000000000000000000000000000000000000000002000000000000000010000000000000000000000000000000000000000000000000000000000000000000100000000000000000000000000000000000",
      "type": "0x2",
      "transactionHash": "0x70a4e375d7d0489274130f9d490a94526f4983e479a2665ec171fd538932c685",
      "transactionIndex": "0x57",
      "blockHash": "0xd6c648419d07555848e011c59beca9e3b186d4e9ddddf610e73af7a16c4306c3",
      "blockNumber": "0x2346dd0",
      "gasUsed": "0x16413",
      "effectiveGasPrice": "0x1017c9",
      "from": "0xee03621ce83bbf6e3931bccf35b144354f16ccf7",
      "to": "0xc60d72c8cb53842f15cffa8a0bb9dbc759e44452",
      "contractAddress": null,
      "l1BaseFeeScalar": "0x8dd",
      "l1BlobBaseFee": "0x1",
      "l1BlobBaseFeeScalar": "0x101c12",
      "l1Fee": "0x1a61e730",
      "l1GasPrice": "0x693b070",
      "l1GasUsed": "0x6e7"
    }
  ],
  "libraries": [],
  "pending": [],
  "returns": {},
  "timestamp": 1760770179730,
  "chain": 8453,
  "commit": "ad7e428"
}