{
  "transactions": [
    {
      "hash": "0x9969347372d7c71e4d72f12bd5cdaadbe007bf359737ef82e43b07e68b690fe5",
      "transactionType": "CREATE",
      "contractName": "Pricefeed",
      "contractAddress": "0x2b4c8a6171eff27905a8490e4cdb711bc0ac77cb",
      "function": null,
      "arguments": [
        "0x99d19F4Cb938E0aAD646358c20cB9D0CE0A7a945"
      ],
      "transaction": {
        "from": "0xee03621ce83bbf6e3931bccf35b144354f16ccf7",
        "gas": "0xcd9c8",
        "value": "0x0",
        "input": "0x608060405260085f60146101000a81548160ff021916908360ff16021790555034801561002a575f5ffd5b50604051610d0c380380610d0c833981810160405281019061004c9190610351565b335f73ffffffffffffffffffffffffffffffffffffffff168173ffffffffffffffffffffffffffffffffffffffff16036100bd575f6040517f1e4fbdf70000000000000000000000000000000000000000000000000000000081526004016100b4919061038b565b60405180910390fd5b6100cc816100e260201b60201c565b506100dc816101a360201b60201c565b506103a4565b5f5f5f9054906101000a900473ffffffffffffffffffffffffffffffffffffffff169050815f5f6101000a81548173ffffffffffffffffffffffffffffffffffffffff021916908373ffffffffffffffffffffffffffffffffffffffff1602179055508173ffffffffffffffffffffffffffffffffffffffff168173ffffffffffffffffffffffffffffffffffffffff167f8be0079c531659141344cd1fd0a4f28419497f9722a3daafe3b4186f6b6457e060405160405180910390a35050565b6101b161022c60201b60201c565b806004600a6101000a81548173ffffffffffffffffffffffffffffffffffffffff021916908373ffffffffffffffffffffffffffffffffffffffff1602179055507fa07c91c183e42229e705a9795a1c06d76528b673788b849597364528c96eefb781604051610221919061038b565b60405180910390a150565b61023a6102c560201b60201c565b73ffffffffffffffffffffffffffffffffffffffff1661025e6102cc60201b60201c565b73ffffffffffffffffffffffffffffffffffffffff16146102c3576102876102c560201b60201c565b6040517f118cdaa70000000000000000000000000000000000000000000000000000000081526004016102ba919061038b565b60405180910390fd5b565b5f33905090565b5f5f5f9054906101000a900473ffffffffffffffffffffffffffffffffffffffff16905090565b5f5ffd5b5f73ffffffffffffffffffffffffffffffffffffffff82169050919050565b5f610320826102f7565b9050919050565b61033081610316565b811461033a575f5ffd5b50565b5f8151905061034b81610327565b92915050565b5f60208284031215610366576103656102f3565b5b5f6103738482850161033d565b91505092915050565b61038581610316565b82525050565b5f60208201905061039e5f83018461037c565b92915050565b61095b806103b15f395ff3fe608060405234801561000f575f5ffd5b50600436106100cd575f3560e01c80637b2aab031161008a578063f21f537d11610064578063f21f537d146101c7578063f2fde38b146101e5578063fc0c546a14610201578063feaf968c1461021f576100cd565b80637b2aab031461016d5780638da5cb5b1461018b578063c22c2499146101a9576100cd565b8063144fa6d7146100d1578063313ce567146100ed5780633bd1c1f71461010b5780633efe1f6414610129578063467f1ee414610147578063715018a614610163575b5f5ffd5b6100eb60048036038101906100e691906106b9565b610241565b005b6100f56102c4565b60405161010291906106ff565b60405180910390f35b6101136102d6565b6040516101209190610730565b60405180910390f35b6101316102dc565b60405161013e919061076d565b60405180910390f35b610161600480360381019061015c919061080d565b6102f7565b005b61016b6103b2565b005b6101756103c5565b6040516101829190610893565b60405180910390f35b6101936103cb565b6040516101a091906108bb565b60405180910390f35b6101b16103f2565b6040516101be919061076d565b60405180910390f35b6101cf61040d565b6040516101dc9190610893565b60405180910390f35b6101ff60048036038101906101fa91906106b9565b610413565b005b610209610497565b60405161021691906108bb565b60405180910390f35b6102276104bd565b6040516102389594939291906108d4565b60405180910390f35b61024961050c565b806004600a6101000a81548173ffffffffffffffffffffffffffffffffffffffff021916908373ffffffffffffffffffffffffffffffffffffffff1602179055507fa07c91c183e42229e705a9795a1c06d76528b673788b849597364528c96eefb7816040516102b991906108bb565b60405180910390a150565b5f60149054906101000a900460ff1681565b60015481565b5f60159054906101000a900469ffffffffffffffffffff1681565b6102ff61050c565b845f60156101000a81548169ffffffffffffffffffff021916908369ffffffffffffffffffff1602179055508360018190555082600281905550816003819055508060045f6101000a81548169ffffffffffffffffffff021916908369ffffffffffffffffffff1602179055507ffda678292d5444240435c9b99fcee9e8ff1fa97977e93b7d5ae4062f52cca85385858585856040516103a39594939291906108d4565b60405180910390a15050505050565b6103ba61050c565b6103c35f610593565b565b60035481565b5f5f5f9054906101000a900473ffffffffffffffffffffffffffffffffffffffff16905090565b60045f9054906101000a900469ffffffffffffffffffff1681565b60025481565b61041b61050c565b5f73ffffffffffffffffffffffffffffffffffffffff168173ffffffffffffffffffffffffffffffffffffffff160361048b575f6040517f1e4fbdf700000000000000000000000000000000000000000000000000000000815260040161048291906108bb565b60405180910390fd5b61049481610593565b50565b6004600a9054906101000a900473ffffffffffffffffffffffffffffffffffffffff1681565b5f5f5f5f5f5f60159054906101000a900469ffffffffffffffffffff1660015460025460035460045f9054906101000a900469ffffffffffffffffffff16945094509450945094509091929394565b610514610654565b73ffffffffffffffffffffffffffffffffffffffff166105326103cb565b73ffffffffffffffffffffffffffffffffffffffff161461059157610555610654565b6040517f118cdaa700000000000000000000000000000000000000000000000000000000815260040161058891906108bb565b60405180910390fd5b565b5f5f5f9054906101000a900473ffffffffffffffffffffffffffffffffffffffff169050815f5f6101000a81548173ffffffffffffffffffffffffffffffffffffffff021916908373ffffffffffffffffffffffffffffffffffffffff1602179055508173ffffffffffffffffffffffffffffffffffffffff168173ffffffffffffffffffffffffffffffffffffffff167f8be0079c531659141344cd1fd0a4f28419497f9722a3daafe3b4186f6b6457e060405160405180910390a35050565b5f33905090565b5f5ffd5b5f73ffffffffffffffffffffffffffffffffffffffff82169050919050565b5f6106888261065f565b9050919050565b6106988161067e565b81146106a2575f5ffd5b50565b5f813590506106b38161068f565b92915050565b5f602082840312156106ce576106cd61065b565b5b5f6106db848285016106a5565b91505092915050565b5f60ff82169050919050565b6106f9816106e4565b82525050565b5f6020820190506107125f8301846106f0565b92915050565b5f819050919050565b61072a81610718565b82525050565b5f6020820190506107435f830184610721565b92915050565b5f69ffffffffffffffffffff82169050919050565b61076781610749565b82525050565b5f6020820190506107805f83018461075e565b92915050565b61078f81610749565b8114610799575f5ffd5b50565b5f813590506107aa81610786565b92915050565b6107b981610718565b81146107c3575f5ffd5b50565b5f813590506107d4816107b0565b92915050565b5f819050919050565b6107ec816107da565b81146107f6575f5ffd5b50565b5f81359050610807816107e3565b92915050565b5f5f5f5f5f60a086880312156108265761082561065b565b5b5f6108338882890161079c565b9550506020610844888289016107c6565b9450506040610855888289016107f9565b9350506060610866888289016107f9565b92505060806108778882890161079c565b9150509295509295909350565b61088d816107da565b82525050565b5f6020820190506108a65f830184610884565b92915050565b6108b58161067e565b82525050565b5f6020820190506108ce5f8301846108ac565b92915050565b5f60a0820190506108e75f83018861075e565b6108f46020830187610721565b6109016040830186610884565b61090e6060830185610884565b61091b608083018461075e565b969550505050505056fea26469706673582212208282f448f1236fa1915358c85b22d9c920c791f0a96b77f8cb4673715a40906864736f6c634300081e003300000000000000000000000099d19f4cb938e0aad646358c20cb9d0ce0a7a945",
        "nonce": "0x88",
        "chainId": "0xa4b1"
      },
      "additionalContracts": [],
      "isFixedGasLimit": false
    },
    {
      "hash": "0x1581a4b0c743c0150e1394c1dc7319c6ba6f75dc7429334691ea214d99edf9ed",
      "transactionType": "CREATE",
      "contractName": "Pricefeed",
      "contractAddress": "0x93c1b89d8f71e4688debdb688347a04ed91cfddd",
      "function": null,
      "arguments": [
        "0xA0F8C84E78eabDF241A9fA9Ff6733AB17bB4E7FA"
      ],
      "transaction": {
        "from": "0xee03621ce83bbf6e3931bccf35b144354f16ccf7",
        "gas": "0xcd9db",
        "value": "0x0",
        "input": "0x608060405260085f60146101000a81548160ff021916908360ff16021790555034801561002a575f5ffd5b50604051610d0c380380610d0c833981810160405281019061004c9190610351565b335f73ffffffffffffffffffffffffffffffffffffffff168173ffffffffffffffffffffffffffffffffffffffff16036100bd575f6040517f1e4fbdf70000000000000000000000000000000000000000000000000000000081526004016100b4919061038b565b60405180910390fd5b6100cc816100e260201b60201c565b506100dc816101a360201b60201c565b506103a4565b5f5f5f9054906101000a900473ffffffffffffffffffffffffffffffffffffffff169050815f5f6101000a81548173ffffffffffffffffffffffffffffffffffffffff021916908373ffffffffffffffffffffffffffffffffffffffff1602179055508173ffffffffffffffffffffffffffffffffffffffff168173ffffffffffffffffffffffffffffffffffffffff167f8be0079c531659141344cd1fd0a4f28419497f9722a3daafe3b4186f6b6457e060405160405180910390a35050565b6101b161022c60201b60201c565b806004600a6101000a81548173ffffffffffffffffffffffffffffffffffffffff021916908373ffffffffffffffffffffffffffffffffffffffff1602179055507fa07c91c183e42229e705a9795a1c06d76528b673788b849597364528c96eefb781604051610221919061038b565b60405180910390a150565b61023a6102c560201b60201c565b73ffffffffffffffffffffffffffffffffffffffff1661025e6102cc60201b60201c565b73ffffffffffffffffffffffffffffffffffffffff16146102c3576102876102c560201b60201c565b6040517f118cdaa70000000000000000000000000000000000000000000000000000000081526004016102ba919061038b565b60405180910390fd5b565b5f33905090565b5f5f5f9054906101000a900473ffffffffffffffffffffffffffffffffffffffff16905090565b5f5ffd5b5f73ffffffffffffffffffffffffffffffffffffffff82169050919050565b5f610320826102f7565b9050919050565b61033081610316565b811461033a575f5ffd5b50565b5f8151905061034b81610327565b92915050565b5f60208284031215610366576103656102f3565b5b5f6103738482850161033d565b91505092915050565b61038581610316565b82525050565b5f60208201905061039e5f83018461037c565b92915050565b61095b806103b15f395ff3fe608060405234801561000f575f5ffd5b50600436106100cd575f3560e01c80637b2aab031161008a578063f21f537d11610064578063f21f537d146101c7578063f2fde38b146101e5578063fc0c546a14610201578063feaf968c1461021f576100cd565b80637b2aab031461016d5780638da5cb5b1461018b578063c22c2499146101a9576100cd565b8063144fa6d7146100d1578063313ce567146100ed5780633bd1c1f71461010b5780633efe1f6414610129578063467f1ee414610147578063715018a614610163575b5f5ffd5b6100eb60048036038101906100e691906106b9565b610241565b005b6100f56102c4565b60405161010291906106ff565b60405180910390f35b6101136102d6565b6040516101209190610730565b60405180910390f35b6101316102dc565b60405161013e919061076d565b60405180910390f35b610161600480360381019061015c919061080d565b6102f7565b005b61016b6103b2565b005b6101756103c5565b6040516101829190610893565b60405180910390f35b6101936103cb565b6040516101a091906108bb565b60405180910390f35b6101b16103f2565b6040516101be919061076d565b60405180910390f35b6101cf61040d565b6040516101dc9190610893565b60405180910390f35b6101ff60048036038101906101fa91906106b9565b610413565b005b610209610497565b60405161021691906108bb565b60405180910390f35b6102276104bd565b6040516102389594939291906108d4565b60405180910390f35b61024961050c565b806004600a6101000a81548173ffffffffffffffffffffffffffffffffffffffff021916908373ffffffffffffffffffffffffffffffffffffffff1602179055507fa07c91c183e42229e705a9795a1c06d76528b673788b849597364528c96eefb7816040516102b991906108bb565b60405180910390a150565b5f60149054906101000a900460ff1681565b60015481565b5f60159054906101000a900469ffffffffffffffffffff1681565b6102ff61050c565b845f60156101000a81548169ffffffffffffffffffff021916908369ffffffffffffffffffff1602179055508360018190555082600281905550816003819055508060045f6101000a81548169ffffffffffffffffffff021916908369ffffffffffffffffffff1602179055507ffda678292d5444240435c9b99fcee9e8ff1fa97977e93b7d5ae4062f52cca85385858585856040516103a39594939291906108d4565b60405180910390a15050505050565b6103ba61050c565b6103c35f610593565b565b60035481565b5f5f5f9054906101000a900473ffffffffffffffffffffffffffffffffffffffff16905090565b60045f9054906101000a900469ffffffffffffffffffff1681565b60025481565b61041b61050c565b5f73ffffffffffffffffffffffffffffffffffffffff168173ffffffffffffffffffffffffffffffffffffffff160361048b575f6040517f1e4fbdf700000000000000000000000000000000000000000000000000000000815260040161048291906108bb565b60405180910390fd5b61049481610593565b50565b6004600a9054906101000a900473ffffffffffffffffffffffffffffffffffffffff1681565b5f5f5f5f5f5f60159054906101000a900469ffffffffffffffffffff1660015460025460035460045f9054906101000a900469ffffffffffffffffffff16945094509450945094509091929394565b610514610654565b73ffffffffffffffffffffffffffffffffffffffff166105326103cb565b73ffffffffffffffffffffffffffffffffffffffff161461059157610555610654565b6040517f118cdaa700000000000000000000000000000000000000000000000000000000815260040161058891906108bb565b60405180910390fd5b565b5f5f5f9054906101000a900473ffffffffffffffffffffffffffffffffffffffff169050815f5f6101000a81548173ffffffffffffffffffffffffffffffffffffffff021916908373ffffffffffffffffffffffffffffffffffffffff1602179055508173ffffffffffffffffffffffffffffffffffffffff168173ffffffffffffffffffffffffffffffffffffffff167f8be0079c531659141344cd1fd0a4f28419497f9722a3daafe3b4186f6b6457e060405160405180910390a35050565b5f33905090565b5f5ffd5b5f73ffffffffffffffffffffffffffffffffffffffff82169050919050565b5f6106888261065f565b9050919050565b6106988161067e565b81146106a2575f5ffd5b50565b5f813590506106b38161068f565b92915050565b5f602082840312156106ce576106cd61065b565b5b5f6106db848285016106a5565b91505092915050565b5f60ff82169050919050565b6106f9816106e4565b82525050565b5f6020820190506107125f8301846106f0565b92915050565b5f819050919050565b61072a81610718565b82525050565b5f6020820190506107435f830184610721565b92915050565b5f69ffffffffffffffffffff82169050919050565b61076781610749565b82525050565b5f6020820190506107805f83018461075e565b92915050565b61078f81610749565b8114610799575f5ffd5b50565b5f813590506107aa81610786565b92915050565b6107b981610718565b81146107c3575f5ffd5b50565b5f813590506107d4816107b0565b92915050565b5f819050919050565b6107ec816107da565b81146107f6575f5ffd5b50565b5f81359050610807816107e3565b92915050565b5f5f5f5f5f60a086880312156108265761082561065b565b5b5f6108338882890161079c565b9550506020610844888289016107c6565b9450506040610855888289016107f9565b9350506060610866888289016107f9565b92505060806108778882890161079c565b9150509295509295909350565b61088d816107da565b82525050565b5f6020820190506108a65f830184610884565b92915050565b6108b58161067e565b82525050565b5f6020820190506108ce5f8301846108ac565b92915050565b5f60a0820190506108e75f83018861075e565b6108f46020830187610721565b6109016040830186610884565b61090e6060830185610884565b61091b608083018461075e565b969550505050505056fea26469706673582212208282f448f1236fa1915358c85b22d9c920c791f0a96b77f8cb4673715a40906864736f6c634300081e0033000000000000000000000000a0f8c84e78eabdf241a9fa9ff6733ab17bb4e7fa",
        "nonce": "0x89",
        "chainId": "0xa4b1"
      },
      "additionalContracts": [],
      "isFixedGasLimit": false
    },
    {
      "hash": "0x3ae81a257ab4b82866d5b99e5e2dcd346039989cfb684ca9b95ba97d8fc39d93",
      "transactionType": "CREATE",
      "contractName": "Pricefeed",
      "contractAddress": "0xb543ffef66c25409ea63dc07352960f06ce564c7",
      "function": null,
      "arguments": [
        "0x0B214413CAc3E0B8F356181d7339626FCafff6Bd"
      ],
      "transaction": {
        "from": "0xee03621ce83bbf6e3931bccf35b144354f16ccf7",
        "gas": "0xcd9d5",
        "value": "0x0",
        "input": "0x608060405260085f60146101000a81548160ff021916908360ff16021790555034801561002a575f5ffd5b50604051610d0c380380610d0c833981810160405281019061004c9190610351565b335f73ffffffffffffffffffffffffffffffffffffffff168173ffffffffffffffffffffffffffffffffffffffff16036100bd575f6040517f1e4fbdf70000000000000000000000000000000000000000000000000000000081526004016100b4919061038b565b60405180910390fd5b6100cc816100e260201b60201c565b506100dc816101a360201b60201c565b506103a4565b5f5f5f9054906101000a900473ffffffffffffffffffffffffffffffffffffffff169050815f5f6101000a81548173ffffffffffffffffffffffffffffffffffffffff021916908373ffffffffffffffffffffffffffffffffffffffff1602179055508173ffffffffffffffffffffffffffffffffffffffff168173ffffffffffffffffffffffffffffffffffffffff167f8be0079c531659141344cd1fd0a4f28419497f9722a3daafe3b4186f6b6457e060405160405180910390a35050565b6101b161022c60201b60201c565b806004600a6101000a81548173ffffffffffffffffffffffffffffffffffffffff021916908373ffffffffffffffffffffffffffffffffffffffff1602179055507fa07c91c183e42229e705a9795a1c06d76528b673788b849597364528c96eefb781604051610221919061038b565b60405180910390a150565b61023a6102c560201b60201c565b73ffffffffffffffffffffffffffffffffffffffff1661025e6102cc60201b60201c565b73ffffffffffffffffffffffffffffffffffffffff16146102c3576102876102c560201b60201c565b6040517f118cdaa70000000000000000000000000000000000000000000000000000000081526004016102ba919061038b565b60405180910390fd5b565b5f33905090565b5f5f5f9054906101000a900473ffffffffffffffffffffffffffffffffffffffff16905090565b5f5ffd5b5f73ffffffffffffffffffffffffffffffffffffffff82169050919050565b5f610320826102f7565b9050919050565b61033081610316565b811461033a575f5ffd5b50565b5f8151905061034b81610327565b92915050565b5f60208284031215610366576103656102f3565b5b5f6103738482850161033d565b91505092915050565b61038581610316565b82525050565b5f60208201905061039e5f83018461037c565b92915050565b61095b806103b15f395ff3fe608060405234801561000f575f5ffd5b50600436106100cd575f3560e01c80637b2aab031161008a578063f21f537d11610064578063f21f537d146101c7578063f2fde38b146101e5578063fc0c546a14610201578063feaf968c1461021f576100cd565b80637b2aab031461016d5780638da5cb5b1461018b578063c22c2499146101a9576100cd565b8063144fa6d7146100d1578063313ce567146100ed5780633bd1c1f71461010b5780633efe1f6414610129578063467f1ee414610147578063715018a614610163575b5f5ffd5b6100eb60048036038101906100e691906106b9565b610241565b005b6100f56102c4565b60405161010291906106ff565b60405180910390f35b6101136102d6565b6040516101209190610730565b60405180910390f35b6101316102dc565b60405161013e919061076d565b60405180910390f35b610161600480360381019061015c919061080d565b6102f7565b005b61016b6103b2565b005b6101756103c5565b6040516101829190610893565b60405180910390f35b6101936103cb565b6040516101a091906108bb565b60405180910390f35b6101b16103f2565b6040516101be919061076d565b60405180910390f35b6101cf61040d565b6040516101dc9190610893565b60405180910390f35b6101ff60048036038101906101fa91906106b9565b610413565b005b610209610497565b60405161021691906108bb565b60405180910390f35b6102276104bd565b6040516102389594939291906108d4565b60405180910390f35b61024961050c565b806004600a6101000a81548173ffffffffffffffffffffffffffffffffffffffff021916908373ffffffffffffffffffffffffffffffffffffffff1602179055507fa07c91c183e42229e705a9795a1c06d76528b673788b849597364528c96eefb7816040516102b991906108bb565b60405180910390a150565b5f60149054906101000a900460ff1681565b60015481565b5f60159054906101000a900469ffffffffffffffffffff1681565b6102ff61050c565b845f60156101000a81548169ffffffffffffffffffff021916908369ffffffffffffffffffff1602179055508360018190555082600281905550816003819055508060045f6101000a81548169ffffffffffffffffffff021916908369ffffffffffffffffffff1602179055507ffda678292d5444240435c9b99fcee9e8ff1fa97977e93b7d5ae4062f52cca85385858585856040516103a39594939291906108d4565b60405180910390a15050505050565b6103ba61050c565b6103c35f610593565b565b60035481565b5f5f5f9054906101000a900473ffffffffffffffffffffffffffffffffffffffff16905090565b60045f9054906101000a900469ffffffffffffffffffff1681565b60025481565b61041b61050c565b5f73ffffffffffffffffffffffffffffffffffffffff168173ffffffffffffffffffffffffffffffffffffffff160361048b575f6040517f1e4fbdf700000000000000000000000000000000000000000000000000000000815260040161048291906108bb565b60405180910390fd5b61049481610593565b50565b6004600a9054906101000a900473ffffffffffffffffffffffffffffffffffffffff1681565b5f5f5f5f5f5f60159054906101000a900469ffffffffffffffffffff1660015460025460035460045f9054906101000a900469ffffffffffffffffffff16945094509450945094509091929394565b610514610654565b73ffffffffffffffffffffffffffffffffffffffff166105326103cb565b73ffffffffffffffffffffffffffffffffffffffff161461059157610555610654565b6040517f118cdaa700000000000000000000000000000000000000000000000000000000815260040161058891906108bb565b60405180910390fd5b565b5f5f5f9054906101000a900473ffffffffffffffffffffffffffffffffffffffff169050815f5f6101000a81548173ffffffffffffffffffffffffffffffffffffffff021916908373ffffffffffffffffffffffffffffffffffffffff1602179055508173ffffffffffffffffffffffffffffffffffffffff168173ffffffffffffffffffffffffffffffffffffffff167f8be0079c531659141344cd1fd0a4f28419497f9722a3daafe3b4186f6b6457e060405160405180910390a35050565b5f33905090565b5f5ffd5b5f73ffffffffffffffffffffffffffffffffffffffff82169050919050565b5f6106888261065f565b9050919050565b6106988161067e565b81146106a2575f5ffd5b50565b5f813590506106b38161068f565b92915050565b5f602082840312156106ce576106cd61065b565b5b5f6106db848285016106a5565b91505092915050565b5f60ff82169050919050565b6106f9816106e4565b82525050565b5f6020820190506107125f8301846106f0565b92915050565b5f819050919050565b61072a81610718565b82525050565b5f6020820190506107435f830184610721565b92915050565b5f69ffffffffffffffffffff82169050919050565b61076781610749565b82525050565b5f6020820190506107805f83018461075e565b92915050565b61078f81610749565b8114610799575f5ffd5b50565b5f813590506107aa81610786565b92915050565b6107b981610718565b81146107c3575f5ffd5b50565b5f813590506107d4816107b0565b92915050565b5f819050919050565b6107ec816107da565b81146107f6575f5ffd5b50565b5f81359050610807816107e3565b92915050565b5f5f5f5f5f60a086880312156108265761082561065b565b5b5f6108338882890161079c565b9550506020610844888289016107c6565b9450506040610855888289016107f9565b9350506060610866888289016107f9565b92505060806108778882890161079c565b9150509295509295909350565b61088d816107da565b82525050565b5f6020820190506108a65f830184610884565b92915050565b6108b58161067e565b82525050565b5f6020820190506108ce5f8301846108ac565b92915050565b5f60a0820190506108e75f83018861075e565b6108f46020830187610721565b6109016040830186610884565b61090e6060830185610884565b61091b608083018461075e565b969550505050505056fea26469706673582212208282f448f1236fa1915358c85b22d9c920c791f0a96b77f8cb4673715a40906864736f6c634300081e00330000000000000000000000000b214413cac3e0b8f356181d7339626fcafff6bd",
        "nonce": "0x8a",
        "chainId": "0xa4b1"
      },
      "additionalContracts": [],
      "isFixedGasLimit": false
    },
    {
      "hash": "0x1facdd4205302c16574594db04b8296f5779910b00f5765a2ac9622eba674f02",
      "transactionType": "CREATE",
      "contractName": "Pricefeed",
      "contractAddress": "0xf0b69ea67ea6a8c7be111b73f791ab25c386cad3",
      "function": null,
      "arguments": [
        "0xa7f56bc3252c676E43Ff1F3e6780Dbbc7679D7a6"
      ],
      "transaction": {
        "from": "0xee03621ce83bbf6e3931bccf35b144354f16ccf7",
        "gas": "0xcd9c1",
        "value": "0x0",
        "input": "0x608060405260085f60146101000a81548160ff021916908360ff16021790555034801561002a575f5ffd5b50604051610d0c380380610d0c833981810160405281019061004c9190610351565b335f73ffffffffffffffffffffffffffffffffffffffff168173ffffffffffffffffffffffffffffffffffffffff16036100bd575f6040517f1e4fbdf70000000000000000000000000000000000000000000000000000000081526004016100b4919061038b565b60405180910390fd5b6100cc816100e260201b60201c565b506100dc816101a360201b60201c565b506103a4565b5f5f5f9054906101000a900473ffffffffffffffffffffffffffffffffffffffff169050815f5f6101000a81548173ffffffffffffffffffffffffffffffffffffffff021916908373ffffffffffffffffffffffffffffffffffffffff1602179055508173ffffffffffffffffffffffffffffffffffffffff168173ffffffffffffffffffffffffffffffffffffffff167f8be0079c531659141344cd1fd0a4f28419497f9722a3daafe3b4186f6b6457e060405160405180910390a35050565b6101b161022c60201b60201c565b806004600a6101000a81548173ffffffffffffffffffffffffffffffffffffffff021916908373ffffffffffffffffffffffffffffffffffffffff1602179055507fa07c91c183e42229e705a9795a1c06d76528b673788b849597364528c96eefb781604051610221919061038b565b60405180910390a150565b61023a6102c560201b60201c565b73ffffffffffffffffffffffffffffffffffffffff1661025e6102cc60201b60201c565b73ffffffffffffffffffffffffffffffffffffffff16146102c3576102876102c560201b60201c565b6040517f118cdaa70000000000000000000000000000000000000000000000000000000081526004016102ba919061038b565b60405180910390fd5b565b5f33905090565b5f5f5f9054906101000a900473ffffffffffffffffffffffffffffffffffffffff16905090565b5f5ffd5b5f73ffffffffffffffffffffffffffffffffffffffff82169050919050565b5f610320826102f7565b9050919050565b61033081610316565b811461033a575f5ffd5b50565b5f8151905061034b81610327565b92915050565b5f60208284031215610366576103656102f3565b5b5f6103738482850161033d565b91505092915050565b61038581610316565b82525050565b5f60208201905061039e5f83018461037c565b92915050565b61095b806103b15f395ff3fe608060405234801561000f575f5ffd5b50600436106100cd575f3560e01c80637b2aab031161008a578063f21f537d11610064578063f21f537d146101c7578063f2fde38b146101e5578063fc0c546a14610201578063feaf968c1461021f576100cd565b80637b2aab031461016d5780638da5cb5b1461018b578063c22c2499146101a9576100cd565b8063144fa6d7146100d1578063313ce567146100ed5780633bd1c1f71461010b5780633efe1f6414610129578063467f1ee414610147578063715018a614610163575b5f5ffd5b6100eb60048036038101906100e691906106b9565b610241565b005b6100f56102c4565b60405161010291906106ff565b60405180910390f35b6101136102d6565b6040516101209190610730565b60405180910390f35b6101316102dc565b60405161013e919061076d565b60405180910390f35b610161600480360381019061015c919061080d565b6102f7565b005b61016b6103b2565b005b6101756103c5565b6040516101829190610893565b60405180910390f35b6101936103cb565b6040516101a091906108bb565b60405180910390f35b6101b16103f2565b6040516101be919061076d565b60405180910390f35b6101cf61040d565b6040516101dc9190610893565b60405180910390f35b6101ff60048036038101906101fa91906106b9565b610413565b005b610209610497565b60405161021691906108bb565b60405180910390f35b6102276104bd565b6040516102389594939291906108d4565b60405180910390f35b61024961050c565b806004600a6101000a81548173ffffffffffffffffffffffffffffffffffffffff021916908373ffffffffffffffffffffffffffffffffffffffff1602179055507fa07c91c183e42229e705a9795a1c06d76528b673788b849597364528c96eefb7816040516102b991906108bb565b60405180910390a150565b5f60149054906101000a900460ff1681565b60015481565b5f60159054906101000a900469ffffffffffffffffffff1681565b6102ff61050c565b845f60156101000a81548169ffffffffffffffffffff021916908369ffffffffffffffffffff1602179055508360018190555082600281905550816003819055508060045f6101000a81548169ffffffffffffffffffff021916908369ffffffffffffffffffff1602179055507ffda678292d5444240435c9b99fcee9e8ff1fa97977e93b7d5ae4062f52cca85385858585856040516103a39594939291906108d4565b60405180910390a15050505050565b6103ba61050c565b6103c35f610593565b565b60035481565b5f5f5f9054906101000a900473ffffffffffffffffffffffffffffffffffffffff16905090565b60045f9054906101000a900469ffffffffffffffffffff1681565b60025481565b61041b61050c565b5f73ffffffffffffffffffffffffffffffffffffffff168173ffffffffffffffffffffffffffffffffffffffff160361048b575f6040517f1e4fbdf700000000000000000000000000000000000000000000000000000000815260040161048291906108bb565b60405180910390fd5b61049481610593565b50565b6004600a9054906101000a900473ffffffffffffffffffffffffffffffffffffffff1681565b5f5f5f5f5f5f60159054906101000a900469ffffffffffffffffffff1660015460025460035460045f9054906101000a900469ffffffffffffffffffff16945094509450945094509091929394565b610514610654565b73ffffffffffffffffffffffffffffffffffffffff166105326103cb565b73ffffffffffffffffffffffffffffffffffffffff161461059157610555610654565b6040517f118cdaa700000000000000000000000000000000000000000000000000000000815260040161058891906108bb565b60405180910390fd5b565b5f5f5f9054906101000a900473ffffffffffffffffffffffffffffffffffffffff169050815f5f6101000a81548173ffffffffffffffffffffffffffffffffffffffff021916908373ffffffffffffffffffffffffffffffffffffffff1602179055508173ffffffffffffffffffffffffffffffffffffffff168173ffffffffffffffffffffffffffffffffffffffff167f8be0079c531659141344cd1fd0a4f28419497f9722a3daafe3b4186f6b6457e060405160405180910390a35050565b5f33905090565b5f5ffd5b5f73ffffffffffffffffffffffffffffffffffffffff82169050919050565b5f6106888261065f565b9050919050565b6106988161067e565b81146106a2575f5ffd5b50565b5f813590506106b38161068f565b92915050565b5f602082840312156106ce576106cd61065b565b5b5f6106db848285016106a5565b91505092915050565b5f60ff82169050919050565b6106f9816106e4565b82525050565b5f6020820190506107125f8301846106f0565b92915050565b5f819050919050565b61072a81610718565b82525050565b5f6020820190506107435f830184610721565b92915050565b5f69ffffffffffffffffffff82169050919050565b61076781610749565b82525050565b5f6020820190506107805f83018461075e565b92915050565b61078f81610749565b8114610799575f5ffd5b50565b5f813590506107aa81610786565b92915050565b6107b981610718565b81146107c3575f5ffd5b50565b5f813590506107d4816107b0565b92915050565b5f819050919050565b6107ec816107da565b81146107f6575f5ffd5b50565b5f81359050610807816107e3565b92915050565b5f5f5f5f5f60a086880312156108265761082561065b565b5b5f6108338882890161079c565b9550506020610844888289016107c6565b9450506040610855888289016107f9565b9350506060610866888289016107f9565b92505060806108778882890161079c565b9150509295509295909350565b61088d816107da565b82525050565b5f6020820190506108a65f830184610884565b92915050565b6108b58161067e565b82525050565b5f6020820190506108ce5f8301846108ac565b92915050565b5f60a0820190506108e75f83018861075e565b6108f46020830187610721565b6109016040830186610884565b61090e6060830185610884565b61091b608083018461075e565b969550505050505056fea26469706673582212208282f448f1236fa1915358c85b22d9c920c791f0a96b77f8cb4673715a40906864736f6c634300081e0033000000000000000000000000a7f56bc3252c676e43ff1f3e6780dbbc7679d7a6",
        "nonce": "0x8b",
        "chainId": "0xa4b1"
      },
      "additionalContracts": [],
      "isFixedGasLimit": false
    },
    {
      "hash": "0x9bed0d99a51719acf7a650c706d5e828575239686f521991857ce74103c7b72b",
      "transactionType": "CREATE",
      "contractName": "Pricefeed",
      "contractAddress": "0xc469d792421cd0ef585eab54ef93a6bf4623455e",
      "function": null,
      "arguments": [
        "0x14954b6a207A4CC908f44354e61997070507fCC4"
      ],
      "transaction": {
        "from": "0xee03621ce83bbf6e3931bccf35b144354f16ccf7",
        "gas": "0xcd9c1",
        "value": "0x0",
        "input": "0x608060405260085f60146101000a81548160ff021916908360ff16021790555034801561002a575f5ffd5b50604051610d0c380380610d0c833981810160405281019061004c9190610351565b335f73ffffffffffffffffffffffffffffffffffffffff168173ffffffffffffffffffffffffffffffffffffffff16036100bd575f6040517f1e4fbdf70000000000000000000000000000000000000000000000000000000081526004016100b4919061038b565b60405180910390fd5b6100cc816100e260201b60201c565b506100dc816101a360201b60201c565b506103a4565b5f5f5f9054906101000a900473ffffffffffffffffffffffffffffffffffffffff169050815f5f6101000a81548173ffffffffffffffffffffffffffffffffffffffff021916908373ffffffffffffffffffffffffffffffffffffffff1602179055508173ffffffffffffffffffffffffffffffffffffffff168173ffffffffffffffffffffffffffffffffffffffff167f8be0079c531659141344cd1fd0a4f28419497f9722a3daafe3b4186f6b6457e060405160405180910390a35050565b6101b161022c60201b60201c565b806004600a6101000a81548173ffffffffffffffffffffffffffffffffffffffff021916908373ffffffffffffffffffffffffffffffffffffffff1602179055507fa07c91c183e42229e705a9795a1c06d76528b673788b849597364528c96eefb781604051610221919061038b565b60405180910390a150565b61023a6102c560201b60201c565b73ffffffffffffffffffffffffffffffffffffffff1661025e6102cc60201b60201c565b73ffffffffffffffffffffffffffffffffffffffff16146102c3576102876102c560201b60201c565b6040517f118cdaa70000000000000000000000000000000000000000000000000000000081526004016102ba919061038b565b60405180910390fd5b565b5f33905090565b5f5f5f9054906101000a900473ffffffffffffffffffffffffffffffffffffffff16905090565b5f5ffd5b5f73ffffffffffffffffffffffffffffffffffffffff82169050919050565b5f610320826102f7565b9050919050565b61033081610316565b811461033a575f5ffd5b50565b5f8151905061034b81610327565b92915050565b5f60208284031215610366576103656102f3565b5b5f6103738482850161033d565b91505092915050565b61038581610316565b82525050565b5f60208201905061039e5f83018461037c565b92915050565b61095b806103b15f395ff3fe608060405234801561000f575f5ffd5b50600436106100cd575f3560e01c80637b2aab031161008a578063f21f537d11610064578063f21f537d146101c7578063f2fde38b146101e5578063fc0c546a14610201578063feaf968c1461021f576100cd565b80637b2aab031461016d5780638da5cb5b1461018b578063c22c2499146101a9576100cd565b8063144fa6d7146100d1578063313ce567146100ed5780633bd1c1f71461010b5780633efe1f6414610129578063467f1ee414610147578063715018a614610163575b5f5ffd5b6100eb60048036038101906100e691906106b9565b610241565b005b6100f56102c4565b60405161010291906106ff565b60405180910390f35b6101136102d6565b6040516101209190610730565b60405180910390f35b6101316102dc565b60405161013e919061076d565b60405180910390f35b610161600480360381019061015c919061080d565b6102f7565b005b61016b6103b2565b005b6101756103c5565b6040516101829190610893565b60405180910390f35b6101936103cb565b6040516101a091906108bb565b60405180910390f35b6101b16103f2565b6040516101be919061076d565b60405180910390f35b6101cf61040d565b6040516101dc9190610893565b60405180910390f35b6101ff60048036038101906101fa91906106b9565b610413565b005b610209610497565b60405161021691906108bb565b60405180910390f35b6102276104bd565b6040516102389594939291906108d4565b60405180910390f35b61024961050c565b806004600a6101000a81548173ffffffffffffffffffffffffffffffffffffffff021916908373ffffffffffffffffffffffffffffffffffffffff1602179055507fa07c91c183e42229e705a9795a1c06d76528b673788b849597364528c96eefb7816040516102b991906108bb565b60405180910390a150565b5f60149054906101000a900460ff1681565b60015481565b5f60159054906101000a900469ffffffffffffffffffff1681565b6102ff61050c565b845f60156101000a81548169ffffffffffffffffffff021916908369ffffffffffffffffffff1602179055508360018190555082600281905550816003819055508060045f6101000a81548169ffffffffffffffffffff021916908369ffffffffffffffffffff1602179055507ffda678292d5444240435c9b99fcee9e8ff1fa97977e93b7d5ae4062f52cca85385858585856040516103a39594939291906108d4565b60405180910390a15050505050565b6103ba61050c565b6103c35f610593565b565b60035481565b5f5f5f9054906101000a900473ffffffffffffffffffffffffffffffffffffffff16905090565b60045f9054906101000a900469ffffffffffffffffffff1681565b60025481565b61041b61050c565b5f73ffffffffffffffffffffffffffffffffffffffff168173ffffffffffffffffffffffffffffffffffffffff160361048b575f6040517f1e4fbdf700000000000000000000000000000000000000000000000000000000815260040161048291906108bb565b60405180910390fd5b61049481610593565b50565b6004600a9054906101000a900473ffffffffffffffffffffffffffffffffffffffff1681565b5f5f5f5f5f5f60159054906101000a900469ffffffffffffffffffff1660015460025460035460045f9054906101000a900469ffffffffffffffffffff16945094509450945094509091929394565b610514610654565b73ffffffffffffffffffffffffffffffffffffffff166105326103cb565b73ffffffffffffffffffffffffffffffffffffffff161461059157610555610654565b6040517f118cdaa700000000000000000000000000000000000000000000000000000000815260040161058891906108bb565b60405180910390fd5b565b5f5f5f9054906101000a900473ffffffffffffffffffffffffffffffffffffffff169050815f5f6101000a81548173ffffffffffffffffffffffffffffffffffffffff021916908373ffffffffffffffffffffffffffffffffffffffff1602179055508173ffffffffffffffffffffffffffffffffffffffff168173ffffffffffffffffffffffffffffffffffffffff167f8be0079c531659141344cd1fd0a4f28419497f9722a3daafe3b4186f6b6457e060405160405180910390a35050565b5f33905090565b5f5ffd5b5f73ffffffffffffffffffffffffffffffffffffffff82169050919050565b5f6106888261065f565b9050919050565b6106988161067e565b81146106a2575f5ffd5b50565b5f813590506106b38161068f565b92915050565b5f602082840312156106ce576106cd61065b565b5b5f6106db848285016106a5565b91505092915050565b5f60ff82169050919050565b6106f9816106e4565b82525050565b5f6020820190506107125f8301846106f0565b92915050565b5f819050919050565b61072a81610718565b82525050565b5f6020820190506107435f830184610721565b92915050565b5f69ffffffffffffffffffff82169050919050565b61076781610749565b82525050565b5f6020820190506107805f83018461075e565b92915050565b61078f81610749565b8114610799575f5ffd5b50565b5f813590506107aa81610786565b92915050565b6107b981610718565b81146107c3575f5ffd5b50565b5f813590506107d4816107b0565b92915050565b5f819050919050565b6107ec816107da565b81146107f6575f5ffd5b50565b5f81359050610807816107e3565b92915050565b5f5f5f5f5f60a086880312156108265761082561065b565b5b5f6108338882890161079c565b9550506020610844888289016107c6565b9450506040610855888289016107f9565b9350506060610866888289016107f9565b92505060806108778882890161079c565b9150509295509295909350565b61088d816107da565b82525050565b5f6020820190506108a65f830184610884565b92915050565b6108b58161067e565b82525050565b5f6020820190506108ce5f8301846108ac565b92915050565b5f60a0820190506108e75f83018861075e565b6108f46020830187610721565b6109016040830186610884565b61090e6060830185610884565b61091b608083018461075e565b969550505050505056fea26469706673582212208282f448f1236fa1915358c85b22d9c920c791f0a96b77f8cb4673715a40906864736f6c634300081e003300000000000000000000000014954b6a207a4cc908f44354e61997070507fcc4",
        "nonce": "0x8c",
        "chainId": "0xa4b1"
      },
      "additionalContracts": [],
      "isFixedGasLimit": false
    },
    {
      "hash": "0x07fd48e1ecdb22a499de48fe3593970f1d5d3c66575731c66231f926c2ac1cac",
      "transactionType": "CREATE",
      "contractName": "Pricefeed",
      "contractAddress": "0xd0a899a8fe186d0c3bebd8a45a41cfbc30931105",
      "function": null,
      "arguments": [
        "0x1aA55163E448b100ac4541C69cf2b55C909A2bE9"
      ],
      "transaction": {
        "from": "0xee03621ce83bbf6e3931bccf35b144354f16ccf7",
        "gas": "0xcd9b2",
        "value": "0x0",
        "input": "0x608060405260085f60146101000a81548160ff021916908360ff16021790555034801561002a575f5ffd5b50604051610d0c380380610d0c833981810160405281019061004c9190610351565b335f73ffffffffffffffffffffffffffffffffffffffff168173ffffffffffffffffffffffffffffffffffffffff16036100bd575f6040517f1e4fbdf70000000000000000000000000000000000000000000000000000000081526004016100b4919061038b565b60405180910390fd5b6100cc816100e260201b60201c565b506100dc816101a360201b60201c565b506103a4565b5f5f5f9054906101000a900473ffffffffffffffffffffffffffffffffffffffff169050815f5f6101000a81548173ffffffffffffffffffffffffffffffffffffffff021916908373ffffffffffffffffffffffffffffffffffffffff1602179055508173ffffffffffffffffffffffffffffffffffffffff168173ffffffffffffffffffffffffffffffffffffffff167f8be0079c531659141344cd1fd0a4f28419497f9722a3daafe3b4186f6b6457e060405160405180910390a35050565b6101b161022c60201b60201c565b806004600a6101000a81548173ffffffffffffffffffffffffffffffffffffffff021916908373ffffffffffffffffffffffffffffffffffffffff1602179055507fa07c91c183e42229e705a9795a1c06d76528b673788b849597364528c96eefb781604051610221919061038b565b60405180910390a150565b61023a6102c560201b60201c565b73ffffffffffffffffffffffffffffffffffffffff1661025e6102cc60201b60201c565b73ffffffffffffffffffffffffffffffffffffffff16146102c3576102876102c560201b60201c565b6040517f118cdaa70000000000000000000000000000000000000000000000000000000081526004016102ba919061038b565b60405180910390fd5b565b5f33905090565b5f5f5f9054906101000a900473ffffffffffffffffffffffffffffffffffffffff16905090565b5f5ffd5b5f73ffffffffffffffffffffffffffffffffffffffff82169050919050565b5f610320826102f7565b9050919050565b61033081610316565b811461033a575f5ffd5b50565b5f8151905061034b81610327565b92915050565b5f60208284031215610366576103656102f3565b5b5f6103738482850161033d565b91505092915050565b61038581610316565b82525050565b5f60208201905061039e5f83018461037c565b92915050565b61095b806103b15f395ff3fe608060405234801561000f575f5ffd5b50600436106100cd575f3560e01c80637b2aab031161008a578063f21f537d11610064578063f21f537d146101c7578063f2fde38b146101e5578063fc0c546a14610201578063feaf968c1461021f576100cd565b80637b2aab031461016d5780638da5cb5b1461018b578063c22c2499146101a9576100cd565b8063144fa6d7146100d1578063313ce567146100ed5780633bd1c1f71461010b5780633efe1f6414610129578063467f1ee414610147578063715018a614610163575b5f5ffd5b6100eb60048036038101906100e691906106b9565b610241565b005b6100f56102c4565b60405161010291906106ff565b60405180910390f35b6101136102d6565b6040516101209190610730565b60405180910390f35b6101316102dc565b60405161013e919061076d565b60405180910390f35b610161600480360381019061015c919061080d565b6102f7565b005b61016b6103b2565b005b6101756103c5565b6040516101829190610893565b60405180910390f35b6101936103cb565b6040516101a091906108bb565b60405180910390f35b6101b16103f2565b6040516101be919061076d565b60405180910390f35b6101cf61040d565b6040516101dc9190610893565b60405180910390f35b6101ff60048036038101906101fa91906106b9565b610413565b005b610209610497565b60405161021691906108bb565b60405180910390f35b6102276104bd565b6040516102389594939291906108d4565b60405180910390f35b61024961050c565b806004600a6101000a81548173ffffffffffffffffffffffffffffffffffffffff021916908373ffffffffffffffffffffffffffffffffffffffff1602179055507fa07c91c183e42229e705a9795a1c06d76528b673788b849597364528c96eefb7816040516102b991906108bb565b60405180910390a150565b5f60149054906101000a900460ff1681565b60015481565b5f60159054906101000a900469ffffffffffffffffffff1681565b6102ff61050c565b845f60156101000a81548169ffffffffffffffffffff021916908369ffffffffffffffffffff1602179055508360018190555082600281905550816003819055508060045f6101000a81548169ffffffffffffffffffff021916908369ffffffffffffffffffff1602179055507ffda678292d5444240435c9b99fcee9e8ff1fa97977e93b7d5ae4062f52cca85385858585856040516103a39594939291906108d4565b60405180910390a15050505050565b6103ba61050c565b6103c35f610593565b565b60035481565b5f5f5f9054906101000a900473ffffffffffffffffffffffffffffffffffffffff16905090565b60045f9054906101000a900469ffffffffffffffffffff1681565b60025481565b61041b61050c565b5f73ffffffffffffffffffffffffffffffffffffffff168173ffffffffffffffffffffffffffffffffffffffff160361048b575f6040517f1e4fbdf700000000000000000000000000000000000000000000000000000000815260040161048291906108bb565b60405180910390fd5b61049481610593565b50565b6004600a9054906101000a900473ffffffffffffffffffffffffffffffffffffffff1681565b5f5f5f5f5f5f60159054906101000a900469ffffffffffffffffffff1660015460025460035460045f9054906101000a900469ffffffffffffffffffff16945094509450945094509091929394565b610514610654565b73ffffffffffffffffffffffffffffffffffffffff166105326103cb565b73ffffffffffffffffffffffffffffffffffffffff161461059157610555610654565b6040517f118cdaa700000000000000000000000000000000000000000000000000000000815260040161058891906108bb565b60405180910390fd5b565b5f5f5f9054906101000a900473ffffffffffffffffffffffffffffffffffffffff169050815f5f6101000a81548173ffffffffffffffffffffffffffffffffffffffff021916908373ffffffffffffffffffffffffffffffffffffffff1602179055508173ffffffffffffffffffffffffffffffffffffffff168173ffffffffffffffffffffffffffffffffffffffff167f8be0079c531659141344cd1fd0a4f28419497f9722a3daafe3b4186f6b6457e060405160405180910390a35050565b5f33905090565b5f5ffd5b5f73ffffffffffffffffffffffffffffffffffffffff82169050919050565b5f6106888261065f565b9050919050565b6106988161067e565b81146106a2575f5ffd5b50565b5f813590506106b38161068f565b92915050565b5f602082840312156106ce576106cd61065b565b5b5f6106db848285016106a5565b91505092915050565b5f60ff82169050919050565b6106f9816106e4565b82525050565b5f6020820190506107125f8301846106f0565b92915050565b5f819050919050565b61072a81610718565b82525050565b5f6020820190506107435f830184610721565b92915050565b5f69ffffffffffffffffffff82169050919050565b61076781610749565b82525050565b5f6020820190506107805f83018461075e565b92915050565b61078f81610749565b8114610799575f5ffd5b50565b5f813590506107aa81610786565b92915050565b6107b981610718565b81146107c3575f5ffd5b50565b5f813590506107d4816107b0565b92915050565b5f819050919050565b6107ec816107da565b81146107f6575f5ffd5b50565b5f81359050610807816107e3565b92915050565b5f5f5f5f5f60a086880312156108265761082561065b565b5b5f6108338882890161079c565b9550506020610844888289016107c6565b9450506040610855888289016107f9565b9350506060610866888289016107f9565b92505060806108778882890161079c565b9150509295509295909350565b61088d816107da565b82525050565b5f6020820190506108a65f830184610884565b92915050565b6108b58161067e565b82525050565b5f6020820190506108ce5f8301846108ac565b92915050565b5f60a0820190506108e75f83018861075e565b6108f46020830187610721565b6109016040830186610884565b61090e6060830185610884565b61091b608083018461075e565b969550505050505056fea26469706673582212208282f448f1236fa1915358c85b22d9c920c791f0a96b77f8cb4673715a40906864736f6c634300081e00330000000000000000000000001aa55163e448b100ac4541c69cf2b55c909a2be9",
        "nonce": "0x8d",
        "chainId": "0xa4b1"
      },
      "additionalContracts": [],
      "isFixedGasLimit": false
    },
    {
      "hash": "0x276ea4abb5bdad0fe17ee3df3d96111992be3a015db3d1fc625b02ac23fb0f3b",
      "transactionType": "CREATE",
      "contractName": "Pricefeed",
      "contractAddress": "0xaaef30a81c653520ca5f43dea55b2d1e884946c0",
      "function": null,
      "arguments": [
        "0x623Cf9E33F269Fd459467E98a5e12Db4C2FBCAe0"
      ],
      "transaction": {
        "from": "0xee03621ce83bbf6e3931bccf35b144354f16ccf7",
        "gas": "0xcd9ce",
        "value": "0x0",
        "input": "0x608060405260085f60146101000a81548160ff021916908360ff16021790555034801561002a575f5ffd5b50604051610d0c380380610d0c833981810160405281019061004c9190610351565b335f73ffffffffffffffffffffffffffffffffffffffff168173ffffffffffffffffffffffffffffffffffffffff16036100bd575f6040517f1e4fbdf70000000000000000000000000000000000000000000000000000000081526004016100b4919061038b565b60405180910390fd5b6100cc816100e260201b60201c565b506100dc816101a360201b60201c565b506103a4565b5f5f5f9054906101000a900473ffffffffffffffffffffffffffffffffffffffff169050815f5f6101000a81548173ffffffffffffffffffffffffffffffffffffffff021916908373ffffffffffffffffffffffffffffffffffffffff1602179055508173ffffffffffffffffffffffffffffffffffffffff168173ffffffffffffffffffffffffffffffffffffffff167f8be0079c531659141344cd1fd0a4f28419497f9722a3daafe3b4186f6b6457e060405160405180910390a35050565b6101b161022c60201b60201c565b806004600a6101000a81548173ffffffffffffffffffffffffffffffffffffffff021916908373ffffffffffffffffffffffffffffffffffffffff1602179055507fa07c91c183e42229e705a9795a1c06d76528b673788b849597364528c96eefb781604051610221919061038b565b60405180910390a150565b61023a6102c560201b60201c565b73ffffffffffffffffffffffffffffffffffffffff1661025e6102cc60201b60201c565b73ffffffffffffffffffffffffffffffffffffffff16146102c3576102876102c560201b60201c565b6040517f118cdaa70000000000000000000000000000000000000000000000000000000081526004016102ba919061038b565b60405180910390fd5b565b5f33905090565b5f5f5f9054906101000a900473ffffffffffffffffffffffffffffffffffffffff16905090565b5f5ffd5b5f73ffffffffffffffffffffffffffffffffffffffff82169050919050565b5f610320826102f7565b9050919050565b61033081610316565b811461033a575f5ffd5b50565b5f8151905061034b81610327565b92915050565b5f60208284031215610366576103656102f3565b5b5f6103738482850161033d565b91505092915050565b61038581610316565b82525050565b5f60208201905061039e5f83018461037c565b92915050565b61095b806103b15f395ff3fe608060405234801561000f575f5ffd5b50600436106100cd575f3560e01c80637b2aab031161008a578063f21f537d11610064578063f21f537d146101c7578063f2fde38b146101e5578063fc0c546a14610201578063feaf968c1461021f576100cd565b80637b2aab031461016d5780638da5cb5b1461018b578063c22c2499146101a9576100cd565b8063144fa6d7146100d1578063313ce567146100ed5780633bd1c1f71461010b5780633efe1f6414610129578063467f1ee414610147578063715018a614610163575b5f5ffd5b6100eb60048036038101906100e691906106b9565b610241565b005b6100f56102c4565b60405161010291906106ff565b60405180910390f35b6101136102d6565b6040516101209190610730565b60405180910390f35b6101316102dc565b60405161013e919061076d565b60405180910390f35b610161600480360381019061015c919061080d565b6102f7565b005b61016b6103b2565b005b6101756103c5565b6040516101829190610893565b60405180910390f35b6101936103cb565b6040516101a091906108bb565b60405180910390f35b6101b16103f2565b6040516101be919061076d565b60405180910390f35b6101cf61040d565b6040516101dc9190610893565b60405180910390f35b6101ff60048036038101906101fa91906106b9565b610413565b005b610209610497565b60405161021691906108bb565b60405180910390f35b6102276104bd565b6040516102389594939291906108d4565b60405180910390f35b61024961050c565b806004600a6101000a81548173ffffffffffffffffffffffffffffffffffffffff021916908373ffffffffffffffffffffffffffffffffffffffff1602179055507fa07c91c183e42229e705a9795a1c06d76528b673788b849597364528c96eefb7816040516102b991906108bb565b60405180910390a150565b5f60149054906101000a900460ff1681565b60015481565b5f60159054906101000a900469ffffffffffffffffffff1681565b6102ff61050c565b845f60156101000a81548169ffffffffffffffffffff021916908369ffffffffffffffffffff1602179055508360018190555082600281905550816003819055508060045f6101000a81548169ffffffffffffffffffff021916908369ffffffffffffffffffff1602179055507ffda678292d5444240435c9b99fcee9e8ff1fa97977e93b7d5ae4062f52cca85385858585856040516103a39594939291906108d4565b60405180910390a15050505050565b6103ba61050c565b6103c35f610593565b565b60035481565b5f5f5f9054906101000a900473ffffffffffffffffffffffffffffffffffffffff16905090565b60045f9054906101000a900469ffffffffffffffffffff1681565b60025481565b61041b61050c565b5f73ffffffffffffffffffffffffffffffffffffffff168173ffffffffffffffffffffffffffffffffffffffff160361048b575f6040517f1e4fbdf700000000000000000000000000000000000000000000000000000000815260040161048291906108bb565b60405180910390fd5b61049481610593565b50565b6004600a9054906101000a900473ffffffffffffffffffffffffffffffffffffffff1681565b5f5f5f5f5f5f60159054906101000a900469ffffffffffffffffffff1660015460025460035460045f9054906101000a900469ffffffffffffffffffff16945094509450945094509091929394565b610514610654565b73ffffffffffffffffffffffffffffffffffffffff166105326103cb565b73ffffffffffffffffffffffffffffffffffffffff161461059157610555610654565b6040517f118cdaa700000000000000000000000000000000000000000000000000000000815260040161058891906108bb565b60405180910390fd5b565b5f5f5f9054906101000a900473ffffffffffffffffffffffffffffffffffffffff169050815f5f6101000a81548173ffffffffffffffffffffffffffffffffffffffff021916908373ffffffffffffffffffffffffffffffffffffffff1602179055508173ffffffffffffffffffffffffffffffffffffffff168173ffffffffffffffffffffffffffffffffffffffff167f8be0079c531659141344cd1fd0a4f28419497f9722a3daafe3b4186f6b6457e060405160405180910390a35050565b5f33905090565b5f5ffd5b5f73ffffffffffffffffffffffffffffffffffffffff82169050919050565b5f6106888261065f565b9050919050565b6106988161067e565b81146106a2575f5ffd5b50565b5f813590506106b38161068f565b92915050565b5f602082840312156106ce576106cd61065b565b5b5f6106db848285016106a5565b91505092915050565b5f60ff82169050919050565b6106f9816106e4565b82525050565b5f6020820190506107125f8301846106f0565b92915050565b5f819050919050565b61072a81610718565b82525050565b5f6020820190506107435f830184610721565b92915050565b5f69ffffffffffffffffffff82169050919050565b61076781610749565b82525050565b5f6020820190506107805f83018461075e565b92915050565b61078f81610749565b8114610799575f5ffd5b50565b5f813590506107aa81610786565b92915050565b6107b981610718565b81146107c3575f5ffd5b50565b5f813590506107d4816107b0565b92915050565b5f819050919050565b6107ec816107da565b81146107f6575f5ffd5b50565b5f81359050610807816107e3565b92915050565b5f5f5f5f5f60a086880312156108265761082561065b565b5b5f6108338882890161079c565b9550506020610844888289016107c6565b9450506040610855888289016107f9565b9350506060610866888289016107f9565b92505060806108778882890161079c565b9150509295509295909350565b61088d816107da565b82525050565b5f6020820190506108a65f830184610884565b92915050565b6108b58161067e565b82525050565b5f6020820190506108ce5f8301846108ac565b92915050565b5f60a0820190506108e75f83018861075e565b6108f46020830187610721565b6109016040830186610884565b61090e6060830185610884565b61091b608083018461075e565b969550505050505056fea26469706673582212208282f448f1236fa1915358c85b22d9c920c791f0a96b77f8cb4673715a40906864736f6c634300081e0033000000000000000000000000623cf9e33f269fd459467e98a5e12db4c2fbcae0",
        "nonce": "0x8e",
        "chainId": "0xa4b1"
      },
      "additionalContracts": [],
      "isFixedGasLimit": false
    },
    {
      "hash": "0x4439983cad1d27882f56ca4f4dc44c11ef932321e7468e7af240e7172b68ffc3",
      "transactionType": "CREATE",
      "contractName": "Pricefeed",
      "contractAddress": "0x15118b3d806b68aa5564a89f5f88c7df9a8c6346",
      "function": null,
      "arguments": [
        "0xB4626C50fb6A0019FEECD442310cd1F7395e2148"
      ],
      "transaction": {
        "from": "0xee03621ce83bbf6e3931bccf35b144354f16ccf7",
        "gas": "0xcd9b8",
        "value": "0x0",
        "input": "0x608060405260085f60146101000a81548160ff021916908360ff16021790555034801561002a575f5ffd5b50604051610d0c380380610d0c833981810160405281019061004c9190610351565b335f73ffffffffffffffffffffffffffffffffffffffff168173ffffffffffffffffffffffffffffffffffffffff16036100bd575f6040517f1e4fbdf70000000000000000000000000000000000000000000000000000000081526004016100b4919061038b565b60405180910390fd5b6100cc816100e260201b60201c565b506100dc816101a360201b60201c565b506103a4565b5f5f5f9054906101000a900473ffffffffffffffffffffffffffffffffffffffff169050815f5f6101000a81548173ffffffffffffffffffffffffffffffffffffffff021916908373ffffffffffffffffffffffffffffffffffffffff1602179055508173ffffffffffffffffffffffffffffffffffffffff168173ffffffffffffffffffffffffffffffffffffffff167f8be0079c531659141344cd1fd0a4f28419497f9722a3daafe3b4186f6b6457e060405160405180910390a35050565b6101b161022c60201b60201c565b806004600a6101000a81548173ffffffffffffffffffffffffffffffffffffffff021916908373ffffffffffffffffffffffffffffffffffffffff1602179055507fa07c91c183e42229e705a9795a1c06d76528b673788b849597364528c96eefb781604051610221919061038b565b60405180910390a150565b61023a6102c560201b60201c565b73ffffffffffffffffffffffffffffffffffffffff1661025e6102cc60201b60201c565b73ffffffffffffffffffffffffffffffffffffffff16146102c3576102876102c560201b60201c565b6040517f118cdaa70000000000000000000000000000000000000000000000000000000081526004016102ba919061038b565b60405180910390fd5b565b5f33905090565b5f5f5f9054906101000a900473ffffffffffffffffffffffffffffffffffffffff16905090565b5f5ffd5b5f73ffffffffffffffffffffffffffffffffffffffff82169050919050565b5f610320826102f7565b9050919050565b61033081610316565b811461033a575f5ffd5b50565b5f8151905061034b81610327565b92915050565b5f60208284031215610366576103656102f3565b5b5f6103738482850161033d565b91505092915050565b61038581610316565b82525050565b5f60208201905061039e5f83018461037c565b92915050565b61095b806103b15f395ff3fe608060405234801561000f575f5ffd5b50600436106100cd575f3560e01c80637b2aab031161008a578063f21f537d11610064578063f21f537d146101c7578063f2fde38b146101e5578063fc0c546a14610201578063feaf968c1461021f576100cd565b80637b2aab031461016d5780638da5cb5b1461018b578063c22c2499146101a9576100cd565b8063144fa6d7146100d1578063313ce567146100ed5780633bd1c1f71461010b5780633efe1f6414610129578063467f1ee414610147578063715018a614610163575b5f5ffd5b6100eb60048036038101906100e691906106b9565b610241565b005b6100f56102c4565b60405161010291906106ff565b60405180910390f35b6101136102d6565b6040516101209190610730565b60405180910390f35b6101316102dc565b60405161013e919061076d565b60405180910390f35b610161600480360381019061015c919061080d565b6102f7565b005b61016b6103b2565b005b6101756103c5565b6040516101829190610893565b60405180910390f35b6101936103cb565b6040516101a091906108bb565b60405180910390f35b6101b16103f2565b6040516101be919061076d565b60405180910390f35b6101cf61040d565b6040516101dc9190610893565b60405180910390f35b6101ff60048036038101906101fa91906106b9565b610413565b005b610209610497565b60405161021691906108bb565b60405180910390f35b6102276104bd565b6040516102389594939291906108d4565b60405180910390f35b61024961050c565b806004600a6101000a81548173ffffffffffffffffffffffffffffffffffffffff021916908373ffffffffffffffffffffffffffffffffffffffff1602179055507fa07c91c183e42229e705a9795a1c06d76528b673788b849597364528c96eefb7816040516102b991906108bb565b60405180910390a150565b5f60149054906101000a900460ff1681565b60015481565b5f60159054906101000a900469ffffffffffffffffffff1681565b6102ff61050c565b845f60156101000a81548169ffffffffffffffffffff021916908369ffffffffffffffffffff1602179055508360018190555082600281905550816003819055508060045f6101000a81548169ffffffffffffffffffff021916908369ffffffffffffffffffff1602179055507ffda678292d5444240435c9b99fcee9e8ff1fa97977e93b7d5ae4062f52cca85385858585856040516103a39594939291906108d4565b60405180910390a15050505050565b6103ba61050c565b6103c35f610593565b565b60035481565b5f5f5f9054906101000a900473ffffffffffffffffffffffffffffffffffffffff16905090565b60045f9054906101000a900469ffffffffffffffffffff1681565b60025481565b61041b61050c565b5f73ffffffffffffffffffffffffffffffffffffffff168173ffffffffffffffffffffffffffffffffffffffff160361048b575f6040517f1e4fbdf700000000000000000000000000000000000000000000000000000000815260040161048291906108bb565b60405180910390fd5b61049481610593565b50565b6004600a9054906101000a900473ffffffffffffffffffffffffffffffffffffffff1681565b5f5f5f5f5f5f60159054906101000a900469ffffffffffffffffffff1660015460025460035460045f9054906101000a900469ffffffffffffffffffff16945094509450945094509091929394565b610514610654565b73ffffffffffffffffffffffffffffffffffffffff166105326103cb565b73ffffffffffffffffffffffffffffffffffffffff161461059157610555610654565b6040517f118cdaa700000000000000000000000000000000000000000000000000000000815260040161058891906108bb565b60405180910390fd5b565b5f5f5f9054906101000a900473ffffffffffffffffffffffffffffffffffffffff169050815f5f6101000a81548173ffffffffffffffffffffffffffffffffffffffff021916908373ffffffffffffffffffffffffffffffffffffffff1602179055508173ffffffffffffffffffffffffffffffffffffffff168173ffffffffffffffffffffffffffffffffffffffff167f8be0079c531659141344cd1fd0a4f28419497f9722a3daafe3b4186f6b6457e060405160405180910390a35050565b5f33905090565b5f5ffd5b5f73ffffffffffffffffffffffffffffffffffffffff82169050919050565b5f6106888261065f565b9050919050565b6106988161067e565b81146106a2575f5ffd5b50565b5f813590506106b38161068f565b92915050565b5f602082840312156106ce576106cd61065b565b5b5f6106db848285016106a5565b91505092915050565b5f60ff82169050919050565b6106f9816106e4565b82525050565b5f6020820190506107125f8301846106f0565b92915050565b5f819050919050565b61072a81610718565b82525050565b5f6020820190506107435f830184610721565b92915050565b5f69ffffffffffffffffffff82169050919050565b61076781610749565b82525050565b5f6020820190506107805f83018461075e565b92915050565b61078f81610749565b8114610799575f5ffd5b50565b5f813590506107aa81610786565b92915050565b6107b981610718565b81146107c3575f5ffd5b50565b5f813590506107d4816107b0565b92915050565b5f819050919050565b6107ec816107da565b81146107f6575f5ffd5b50565b5f81359050610807816107e3565b92915050565b5f5f5f5f5f60a086880312156108265761082561065b565b5b5f6108338882890161079c565b9550506020610844888289016107c6565b9450506040610855888289016107f9565b9350506060610866888289016107f9565b92505060806108778882890161079c565b9150509295509295909350565b61088d816107da565b82525050565b5f6020820190506108a65f830184610884565b92915050565b6108b58161067e565b82525050565b5f6020820190506108ce5f8301846108ac565b92915050565b5f60a0820190506108e75f83018861075e565b6108f46020830187610721565b6109016040830186610884565b61090e6060830185610884565b61091b608083018461075e565b969550505050505056fea26469706673582212208282f448f1236fa1915358c85b22d9c920c791f0a96b77f8cb4673715a40906864736f6c634300081e0033000000000000000000000000b4626c50fb6a0019feecd442310cd1f7395e2148",
        "nonce": "0x8f",
        "chainId": "0xa4b1"
      },
      "additionalContracts": [],
      "isFixedGasLimit": false
    },
    {
      "hash": "0x8f428aba39a1a7d046d0fc7a7eccad8b31b6d5f8d37d4d0cd5cfa445bc3fc96c",
      "transactionType": "CREATE",
      "contractName": "Pricefeed",
      "contractAddress": "0xd50ee02f3bb2b4530c5ffb7df3284c9f2090b517",
      "function": null,
      "arguments": [
        "0x8d55C23664B46212bC6dC03d03E237988c0d3646"
      ],
      "transaction": {
        "from": "0xee03621ce83bbf6e3931bccf35b144354f16ccf7",
        "gas": "0xcd9c1",
        "value": "0x0",
        "input": "0x608060405260085f60146101000a81548160ff021916908360ff16021790555034801561002a575f5ffd5b50604051610d0c380380610d0c833981810160405281019061004c9190610351565b335f73ffffffffffffffffffffffffffffffffffffffff168173ffffffffffffffffffffffffffffffffffffffff16036100bd575f6040517f1e4fbdf70000000000000000000000000000000000000000000000000000000081526004016100b4919061038b565b60405180910390fd5b6100cc816100e260201b60201c565b506100dc816101a360201b60201c565b506103a4565b5f5f5f9054906101000a900473ffffffffffffffffffffffffffffffffffffffff169050815f5f6101000a81548173ffffffffffffffffffffffffffffffffffffffff021916908373ffffffffffffffffffffffffffffffffffffffff1602179055508173ffffffffffffffffffffffffffffffffffffffff168173ffffffffffffffffffffffffffffffffffffffff167f8be0079c531659141344cd1fd0a4f28419497f9722a3daafe3b4186f6b6457e060405160405180910390a35050565b6101b161022c60201b60201c565b806004600a6101000a81548173ffffffffffffffffffffffffffffffffffffffff021916908373ffffffffffffffffffffffffffffffffffffffff1602179055507fa07c91c183e42229e705a9795a1c06d76528b673788b849597364528c96eefb781604051610221919061038b565b60405180910390a150565b61023a6102c560201b60201c565b73ffffffffffffffffffffffffffffffffffffffff1661025e6102cc60201b60201c565b73ffffffffffffffffffffffffffffffffffffffff16146102c3576102876102c560201b60201c565b6040517f118cdaa70000000000000000000000000000000000000000000000000000000081526004016102ba919061038b565b60405180910390fd5b565b5f33905090565b5f5f5f9054906101000a900473ffffffffffffffffffffffffffffffffffffffff16905090565b5f5ffd5b5f73ffffffffffffffffffffffffffffffffffffffff82169050919050565b5f610320826102f7565b9050919050565b61033081610316565b811461033a575f5ffd5b50565b5f8151905061034b81610327565b92915050565b5f60208284031215610366576103656102f3565b5b5f6103738482850161033d565b91505092915050565b61038581610316565b82525050565b5f60208201905061039e5f83018461037c565b92915050565b61095b806103b15f395ff3fe608060405234801561000f575f5ffd5b50600436106100cd575f3560e01c80637b2aab031161008a578063f21f537d11610064578063f21f537d146101c7578063f2fde38b146101e5578063fc0c546a14610201578063feaf968c1461021f576100cd565b80637b2aab031461016d5780638da5cb5b1461018b578063c22c2499146101a9576100cd565b8063144fa6d7146100d1578063313ce567146100ed5780633bd1c1f71461010b5780633efe1f6414610129578063467f1ee414610147578063715018a614610163575b5f5ffd5b6100eb60048036038101906100e691906106b9565b610241565b005b6100f56102c4565b60405161010291906106ff565b60405180910390f35b6101136102d6565b6040516101209190610730565b60405180910390f35b6101316102dc565b60405161013e919061076d565b60405180910390f35b610161600480360381019061015c919061080d565b6102f7565b005b61016b6103b2565b005b6101756103c5565b6040516101829190610893565b60405180910390f35b6101936103cb565b6040516101a091906108bb565b60405180910390f35b6101b16103f2565b6040516101be919061076d565b60405180910390f35b6101cf61040d565b6040516101dc9190610893565b60405180910390f35b6101ff60048036038101906101fa91906106b9565b610413565b005b610209610497565b60405161021691906108bb565b60405180910390f35b6102276104bd565b6040516102389594939291906108d4565b60405180910390f35b61024961050c565b806004600a6101000a81548173ffffffffffffffffffffffffffffffffffffffff021916908373ffffffffffffffffffffffffffffffffffffffff1602179055507fa07c91c183e42229e705a9795a1c06d76528b673788b849597364528c96eefb7816040516102b991906108bb565b60405180910390a150565b5f60149054906101000a900460ff1681565b60015481565b5f60159054906101000a900469ffffffffffffffffffff1681565b6102ff61050c565b845f60156101000a81548169ffffffffffffffffffff021916908369ffffffffffffffffffff1602179055508360018190555082600281905550816003819055508060045f6101000a81548169ffffffffffffffffffff021916908369ffffffffffffffffffff1602179055507ffda678292d5444240435c9b99fcee9e8ff1fa97977e93b7d5ae4062f52cca85385858585856040516103a39594939291906108d4565b60405180910390a15050505050565b6103ba61050c565b6103c35f610593565b565b60035481565b5f5f5f9054906101000a900473ffffffffffffffffffffffffffffffffffffffff16905090565b60045f9054906101000a900469ffffffffffffffffffff1681565b60025481565b61041b61050c565b5f73ffffffffffffffffffffffffffffffffffffffff168173ffffffffffffffffffffffffffffffffffffffff160361048b575f6040517f1e4fbdf700000000000000000000000000000000000000000000000000000000815260040161048291906108bb565b60405180910390fd5b61049481610593565b50565b6004600a9054906101000a900473ffffffffffffffffffffffffffffffffffffffff1681565b5f5f5f5f5f5f60159054906101000a900469ffffffffffffffffffff1660015460025460035460045f9054906101000a900469ffffffffffffffffffff16945094509450945094509091929394565b610514610654565b73ffffffffffffffffffffffffffffffffffffffff166105326103cb565b73ffffffffffffffffffffffffffffffffffffffff161461059157610555610654565b6040517f118cdaa700000000000000000000000000000000000000000000000000000000815260040161058891906108bb565b60405180910390fd5b565b5f5f5f9054906101000a900473ffffffffffffffffffffffffffffffffffffffff169050815f5f6101000a81548173ffffffffffffffffffffffffffffffffffffffff021916908373ffffffffffffffffffffffffffffffffffffffff1602179055508173ffffffffffffffffffffffffffffffffffffffff168173ffffffffffffffffffffffffffffffffffffffff167f8be0079c531659141344cd1fd0a4f28419497f9722a3daafe3b4186f6b6457e060405160405180910390a35050565b5f33905090565b5f5ffd5b5f73ffffffffffffffffffffffffffffffffffffffff82169050919050565b5f6106888261065f565b9050919050565b6106988161067e565b81146106a2575f5ffd5b50565b5f813590506106b38161068f565b92915050565b5f602082840312156106ce576106cd61065b565b5b5f6106db848285016106a5565b91505092915050565b5f60ff82169050919050565b6106f9816106e4565b82525050565b5f6020820190506107125f8301846106f0565b92915050565b5f819050919050565b61072a81610718565b82525050565b5f6020820190506107435f830184610721565b92915050565b5f69ffffffffffffffffffff82169050919050565b61076781610749565b82525050565b5f6020820190506107805f83018461075e565b92915050565b61078f81610749565b8114610799575f5ffd5b50565b5f813590506107aa81610786565b92915050565b6107b981610718565b81146107c3575f5ffd5b50565b5f813590506107d4816107b0565b92915050565b5f819050919050565b6107ec816107da565b81146107f6575f5ffd5b50565b5f81359050610807816107e3565b92915050565b5f5f5f5f5f60a086880312156108265761082561065b565b5b5f6108338882890161079c565b9550506020610844888289016107c6565b9450506040610855888289016107f9565b9350506060610866888289016107f9565b92505060806108778882890161079c565b9150509295509295909350565b61088d816107da565b82525050565b5f6020820190506108a65f830184610884565b92915050565b6108b58161067e565b82525050565b5f6020820190506108ce5f8301846108ac565b92915050565b5f60a0820190506108e75f83018861075e565b6108f46020830187610721565b6109016040830186610884565b61090e6060830185610884565b61091b608083018461075e565b969550505050505056fea26469706673582212208282f448f1236fa1915358c85b22d9c920c791f0a96b77f8cb4673715a40906864736f6c634300081e00330000000000000000000000008d55c23664b46212bc6dc03d03e237988c0d3646",
        "nonce": "0x90",
        "chainId": "0xa4b1"
      },
      "additionalContracts": [],
      "isFixedGasLimit": false
    },
    {
      "hash": "0x49bc1975c592888f7e39980b8c7d1588105aaf315f65e7d4188e957ea4cb9a73",
      "transactionType": "CREATE",
      "contractName": "Pricefeed",
      "contractAddress": "0x0e9162722b305b7cb86cf58bbd7b32082c271ac3",
      "function": null,
      "arguments": [
        "0xC23e60Ac84240ffCe72680652515dfb1435C356b"
      ],
      "transaction": {
        "from": "0xee03621ce83bbf6e3931bccf35b144354f16ccf7",
        "gas": "0xcd9c8",
        "value": "0x0",
        "input": "0x608060405260085f60146101000a81548160ff021916908360ff16021790555034801561002a575f5ffd5b50604051610d0c380380610d0c833981810160405281019061004c9190610351565b335f73ffffffffffffffffffffffffffffffffffffffff168173ffffffffffffffffffffffffffffffffffffffff16036100bd575f6040517f1e4fbdf70000000000000000000000000000000000000000000000000000000081526004016100b4919061038b565b60405180910390fd5b6100cc816100e260201b60201c565b506100dc816101a360201b60201c565b506103a4565b5f5f5f9054906101000a900473ffffffffffffffffffffffffffffffffffffffff169050815f5f6101000a81548173ffffffffffffffffffffffffffffffffffffffff021916908373ffffffffffffffffffffffffffffffffffffffff1602179055508173ffffffffffffffffffffffffffffffffffffffff168173ffffffffffffffffffffffffffffffffffffffff167f8be0079c531659141344cd1fd0a4f28419497f9722a3daafe3b4186f6b6457e060405160405180910390a35050565b6101b161022c60201b60201c565b806004600a6101000a81548173ffffffffffffffffffffffffffffffffffffffff021916908373ffffffffffffffffffffffffffffffffffffffff1602179055507fa07c91c183e42229e705a9795a1c06d76528b673788b849597364528c96eefb781604051610221919061038b565b60405180910390a150565b61023a6102c560201b60201c565b73ffffffffffffffffffffffffffffffffffffffff1661025e6102cc60201b60201c565b73ffffffffffffffffffffffffffffffffffffffff16146102c3576102876102c560201b60201c565b6040517f118cdaa70000000000000000000000000000000000000000000000000000000081526004016102ba919061038b565b60405180910390fd5b565b5f33905090565b5f5f5f9054906101000a900473ffffffffffffffffffffffffffffffffffffffff16905090565b5f5ffd5b5f73ffffffffffffffffffffffffffffffffffffffff82169050919050565b5f610320826102f7565b9050919050565b61033081610316565b811461033a575f5ffd5b50565b5f8151905061034b81610327565b92915050565b5f60208284031215610366576103656102f3565b5b5f6103738482850161033d565b91505092915050565b61038581610316565b82525050565b5f60208201905061039e5f83018461037c565b92915050565b61095b806103b15f395ff3fe608060405234801561000f575f5ffd5b50600436106100cd575f3560e01c80637b2aab031161008a578063f21f537d11610064578063f21f537d146101c7578063f2fde38b146101e5578063fc0c546a14610201578063feaf968c1461021f576100cd565b80637b2aab031461016d5780638da5cb5b1461018b578063c22c2499146101a9576100cd565b8063144fa6d7146100d1578063313ce567146100ed5780633bd1c1f71461010b5780633efe1f6414610129578063467f1ee414610147578063715018a614610163575b5f5ffd5b6100eb60048036038101906100e691906106b9565b610241565b005b6100f56102c4565b60405161010291906106ff565b60405180910390f35b6101136102d6565b6040516101209190610730565b60405180910390f35b6101316102dc565b60405161013e919061076d565b60405180910390f35b610161600480360381019061015c919061080d565b6102f7565b005b61016b6103b2565b005b6101756103c5565b6040516101829190610893565b60405180910390f35b6101936103cb565b6040516101a091906108bb565b60405180910390f35b6101b16103f2565b6040516101be919061076d565b60405180910390f35b6101cf61040d565b6040516101dc9190610893565b60405180910390f35b6101ff60048036038101906101fa91906106b9565b610413565b005b610209610497565b60405161021691906108bb565b60405180910390f35b6102276104bd565b6040516102389594939291906108d4565b60405180910390f35b61024961050c565b806004600a6101000a81548173ffffffffffffffffffffffffffffffffffffffff021916908373ffffffffffffffffffffffffffffffffffffffff1602179055507fa07c91c183e42229e705a9795a1c06d76528b673788b849597364528c96eefb7816040516102b991906108bb565b60405180910390a150565b5f60149054906101000a900460ff1681565b60015481565b5f60159054906101000a900469ffffffffffffffffffff1681565b6102ff61050c565b845f60156101000a81548169ffffffffffffffffffff021916908369ffffffffffffffffffff1602179055508360018190555082600281905550816003819055508060045f6101000a81548169ffffffffffffffffffff021916908369ffffffffffffffffffff1602179055507ffda678292d5444240435c9b99fcee9e8ff1fa97977e93b7d5ae4062f52cca85385858585856040516103a39594939291906108d4565b60405180910390a15050505050565b6103ba61050c565b6103c35f610593565b565b60035481565b5f5f5f9054906101000a900473ffffffffffffffffffffffffffffffffffffffff16905090565b60045f9054906101000a900469ffffffffffffffffffff1681565b60025481565b61041b61050c565b5f73ffffffffffffffffffffffffffffffffffffffff168173ffffffffffffffffffffffffffffffffffffffff160361048b575f6040517f1e4fbdf700000000000000000000000000000000000000000000000000000000815260040161048291906108bb565b60405180910390fd5b61049481610593565b50565b6004600a9054906101000a900473ffffffffffffffffffffffffffffffffffffffff1681565b5f5f5f5f5f5f60159054906101000a900469ffffffffffffffffffff1660015460025460035460045f9054906101000a900469ffffffffffffffffffff16945094509450945094509091929394565b610514610654565b73ffffffffffffffffffffffffffffffffffffffff166105326103cb565b73ffffffffffffffffffffffffffffffffffffffff161461059157610555610654565b6040517f118cdaa700000000000000000000000000000000000000000000000000000000815260040161058891906108bb565b60405180910390fd5b565b5f5f5f9054906101000a900473ffffffffffffffffffffffffffffffffffffffff169050815f5f6101000a81548173ffffffffffffffffffffffffffffffffffffffff021916908373ffffffffffffffffffffffffffffffffffffffff1602179055508173ffffffffffffffffffffffffffffffffffffffff168173ffffffffffffffffffffffffffffffffffffffff167f8be0079c531659141344cd1fd0a4f28419497f9722a3daafe3b4186f6b6457e060405160405180910390a35050565b5f33905090565b5f5ffd5b5f73ffffffffffffffffffffffffffffffffffffffff82169050919050565b5f6106888261065f565b9050919050565b6106988161067e565b81146106a2575f5ffd5b50565b5f813590506106b38161068f565b92915050565b5f602082840312156106ce576106cd61065b565b5b5f6106db848285016106a5565b91505092915050565b5f60ff82169050919050565b6106f9816106e4565b82525050565b5f6020820190506107125f8301846106f0565b92915050565b5f819050919050565b61072a81610718565b82525050565b5f6020820190506107435f830184610721565b92915050565b5f69ffffffffffffffffffff82169050919050565b61076781610749565b82525050565b5f6020820190506107805f83018461075e565b92915050565b61078f81610749565b8114610799575f5ffd5b50565b5f813590506107aa81610786565b92915050565b6107b981610718565b81146107c3575f5ffd5b50565b5f813590506107d4816107b0565b92915050565b5f819050919050565b6107ec816107da565b81146107f6575f5ffd5b50565b5f81359050610807816107e3565b92915050565b5f5f5f5f5f60a086880312156108265761082561065b565b5b5f6108338882890161079c565b9550506020610844888289016107c6565b9450506040610855888289016107f9565b9350506060610866888289016107f9565b92505060806108778882890161079c565b9150509295509295909350565b61088d816107da565b82525050565b5f6020820190506108a65f830184610884565b92915050565b6108b58161067e565b82525050565b5f6020820190506108ce5f8301846108ac565b92915050565b5f60a0820190506108e75f83018861075e565b6108f46020830187610721565b6109016040830186610884565b61090e6060830185610884565b61091b608083018461075e565b969550505050505056fea26469706673582212208282f448f1236fa1915358c85b22d9c920c791f0a96b77f8cb4673715a40906864736f6c634300081e0033000000000000000000000000c23e60ac84240ffce72680652515dfb1435c356b",
        "nonce": "0x91",
        "chainId": "0xa4b1"
      },
      "additionalContracts": [],
      "isFixedGasLimit": false
    },
    {
      "hash": "0x763e80eacf6d8034c381d83d5bdb72e633a695aaa7dfdb025a8f8058fcc49eed",
      "transactionType": "CREATE",
      "contractName": "Pricefeed",
      "contractAddress": "0xacb7ba59d48d188fefffdb7adaddc366eda85a00",
      "function": null,
      "arguments": [
        "0x338802B73DA88D05e1b3A0203092AD43807049Be"
      ],
      "transaction": {
        "from": "0xee03621ce83bbf6e3931bccf35b144354f16ccf7",
        "gas": "0xcd9c1",
        "value": "0x0",
        "input": "0x608060405260085f60146101000a81548160ff021916908360ff16021790555034801561002a575f5ffd5b50604051610d0c380380610d0c833981810160405281019061004c9190610351565b335f73ffffffffffffffffffffffffffffffffffffffff168173ffffffffffffffffffffffffffffffffffffffff16036100bd575f6040517f1e4fbdf70000000000000000000000000000000000000000000000000000000081526004016100b4919061038b565b60405180910390fd5b6100cc816100e260201b60201c565b506100dc816101a360201b60201c565b506103a4565b5f5f5f9054906101000a900473ffffffffffffffffffffffffffffffffffffffff169050815f5f6101000a81548173ffffffffffffffffffffffffffffffffffffffff021916908373ffffffffffffffffffffffffffffffffffffffff1602179055508173ffffffffffffffffffffffffffffffffffffffff168173ffffffffffffffffffffffffffffffffffffffff167f8be0079c531659141344cd1fd0a4f28419497f9722a3daafe3b4186f6b6457e060405160405180910390a35050565b6101b161022c60201b60201c565b806004600a6101000a81548173ffffffffffffffffffffffffffffffffffffffff021916908373ffffffffffffffffffffffffffffffffffffffff1602179055507fa07c91c183e42229e705a9795a1c06d76528b673788b849597364528c96eefb781604051610221919061038b565b60405180910390a150565b61023a6102c560201b60201c565b73ffffffffffffffffffffffffffffffffffffffff1661025e6102cc60201b60201c565b73ffffffffffffffffffffffffffffffffffffffff16146102c3576102876102c560201b60201c565b6040517f118cdaa70000000000000000000000000000000000000000000000000000000081526004016102ba919061038b565b60405180910390fd5b565b5f33905090565b5f5f5f9054906101000a900473ffffffffffffffffffffffffffffffffffffffff16905090565b5f5ffd5b5f73ffffffffffffffffffffffffffffffffffffffff82169050919050565b5f610320826102f7565b9050919050565b61033081610316565b811461033a575f5ffd5b50565b5f8151905061034b81610327565b92915050565b5f60208284031215610366576103656102f3565b5b5f6103738482850161033d565b91505092915050565b61038581610316565b82525050565b5f60208201905061039e5f83018461037c565b92915050565b61095b806103b15f395ff3fe608060405234801561000f575f5ffd5b50600436106100cd575f3560e01c80637b2aab031161008a578063f21f537d11610064578063f21f537d146101c7578063f2fde38b146101e5578063fc0c546a14610201578063feaf968c1461021f576100cd565b80637b2aab031461016d5780638da5cb5b1461018b578063c22c2499146101a9576100cd565b8063144fa6d7146100d1578063313ce567146100ed5780633bd1c1f71461010b5780633efe1f6414610129578063467f1ee414610147578063715018a614610163575b5f5ffd5b6100eb60048036038101906100e691906106b9565b610241565b005b6100f56102c4565b60405161010291906106ff565b60405180910390f35b6101136102d6565b6040516101209190610730565b60405180910390f35b6101316102dc565b60405161013e919061076d565b60405180910390f35b610161600480360381019061015c919061080d565b6102f7565b005b61016b6103b2565b005b6101756103c5565b6040516101829190610893565b60405180910390f35b6101936103cb565b6040516101a091906108bb565b60405180910390f35b6101b16103f2565b6040516101be919061076d565b60405180910390f35b6101cf61040d565b6040516101dc9190610893565b60405180910390f35b6101ff60048036038101906101fa91906106b9565b610413565b005b610209610497565b60405161021691906108bb565b60405180910390f35b6102276104bd565b6040516102389594939291906108d4565b60405180910390f35b61024961050c565b806004600a6101000a81548173ffffffffffffffffffffffffffffffffffffffff021916908373ffffffffffffffffffffffffffffffffffffffff1602179055507fa07c91c183e42229e705a9795a1c06d76528b673788b849597364528c96eefb7816040516102b991906108bb565b60405180910390a150565b5f60149054906101000a900460ff1681565b60015481565b5f60159054906101000a900469ffffffffffffffffffff1681565b6102ff61050c565b845f60156101000a81548169ffffffffffffffffffff021916908369ffffffffffffffffffff1602179055508360018190555082600281905550816003819055508060045f6101000a81548169ffffffffffffffffffff021916908369ffffffffffffffffffff1602179055507ffda678292d5444240435c9b99fcee9e8ff1fa97977e93b7d5ae4062f52cca85385858585856040516103a39594939291906108d4565b60405180910390a15050505050565b6103ba61050c565b6103c35f610593565b565b60035481565b5f5f5f9054906101000a900473ffffffffffffffffffffffffffffffffffffffff16905090565b60045f9054906101000a900469ffffffffffffffffffff1681565b60025481565b61041b61050c565b5f73ffffffffffffffffffffffffffffffffffffffff168173ffffffffffffffffffffffffffffffffffffffff160361048b575f6040517f1e4fbdf700000000000000000000000000000000000000000000000000000000815260040161048291906108bb565b60405180910390fd5b61049481610593565b50565b6004600a9054906101000a900473ffffffffffffffffffffffffffffffffffffffff1681565b5f5f5f5f5f5f60159054906101000a900469ffffffffffffffffffff1660015460025460035460045f9054906101000a900469ffffffffffffffffffff16945094509450945094509091929394565b610514610654565b73ffffffffffffffffffffffffffffffffffffffff166105326103cb565b73ffffffffffffffffffffffffffffffffffffffff161461059157610555610654565b6040517f118cdaa700000000000000000000000000000000000000000000000000000000815260040161058891906108bb565b60405180910390fd5b565b5f5f5f9054906101000a900473ffffffffffffffffffffffffffffffffffffffff169050815f5f6101000a81548173ffffffffffffffffffffffffffffffffffffffff021916908373ffffffffffffffffffffffffffffffffffffffff1602179055508173ffffffffffffffffffffffffffffffffffffffff168173ffffffffffffffffffffffffffffffffffffffff167f8be0079c531659141344cd1fd0a4f28419497f9722a3daafe3b4186f6b6457e060405160405180910390a35050565b5f33905090565b5f5ffd5b5f73ffffffffffffffffffffffffffffffffffffffff82169050919050565b5f6106888261065f565b9050919050565b6106988161067e565b81146106a2575f5ffd5b50565b5f813590506106b38161068f565b92915050565b5f602082840312156106ce576106cd61065b565b5b5f6106db848285016106a5565b91505092915050565b5f60ff82169050919050565b6106f9816106e4565b82525050565b5f6020820190506107125f8301846106f0565b92915050565b5f819050919050565b61072a81610718565b82525050565b5f6020820190506107435f830184610721565b92915050565b5f69ffffffffffffffffffff82169050919050565b61076781610749565b82525050565b5f6020820190506107805f83018461075e565b92915050565b61078f81610749565b8114610799575f5ffd5b50565b5f813590506107aa81610786565b92915050565b6107b981610718565b81146107c3575f5ffd5b50565b5f813590506107d4816107b0565b92915050565b5f819050919050565b6107ec816107da565b81146107f6575f5ffd5b50565b5f81359050610807816107e3565b92915050565b5f5f5f5f5f60a086880312156108265761082561065b565b5b5f6108338882890161079c565b9550506020610844888289016107c6565b9450506040610855888289016107f9565b9350506060610866888289016107f9565b92505060806108778882890161079c565b9150509295509295909350565b61088d816107da565b82525050565b5f6020820190506108a65f830184610884565b92915050565b6108b58161067e565b82525050565b5f6020820190506108ce5f8301846108ac565b92915050565b5f60a0820190506108e75f83018861075e565b6108f46020830187610721565b6109016040830186610884565b61090e6060830185610884565b61091b608083018461075e565b969550505050505056fea26469706673582212208282f448f1236fa1915358c85b22d9c920c791f0a96b77f8cb4673715a40906864736f6c634300081e0033000000000000000000000000338802b73da88d05e1b3a0203092ad43807049be",
        "nonce": "0x92",
        "chainId": "0xa4b1"
      },
      "additionalContracts": [],
      "isFixedGasLimit": false
    },
    {
      "hash": "0x63bdd8a482108ba872564ea01c38e0879aba0e24dd9b629403b9502f1ba5fb8d",
      "transactionType": "CREATE",
      "contractName": "Pricefeed",
      "contractAddress": "0x2b9e978952e76cab4a52f61dcbabfa039eb9bb1f",
      "function": null,
      "arguments": [
        "0xF1839107BECE28De0e83c92911434a18293B45A4"
      ],
      "transaction": {
        "from": "0xee03621ce83bbf6e3931bccf35b144354f16ccf7",
        "gas": "0xcd9ce",
        "value": "0x0",
        "input": "0x608060405260085f60146101000a81548160ff021916908360ff16021790555034801561002a575f5ffd5b50604051610d0c380380610d0c833981810160405281019061004c9190610351565b335f73ffffffffffffffffffffffffffffffffffffffff168173ffffffffffffffffffffffffffffffffffffffff16036100bd575f6040517f1e4fbdf70000000000000000000000000000000000000000000000000000000081526004016100b4919061038b565b60405180910390fd5b6100cc816100e260201b60201c565b506100dc816101a360201b60201c565b506103a4565b5f5f5f9054906101000a900473ffffffffffffffffffffffffffffffffffffffff169050815f5f6101000a81548173ffffffffffffffffffffffffffffffffffffffff021916908373ffffffffffffffffffffffffffffffffffffffff1602179055508173ffffffffffffffffffffffffffffffffffffffff168173ffffffffffffffffffffffffffffffffffffffff167f8be0079c531659141344cd1fd0a4f28419497f9722a3daafe3b4186f6b6457e060405160405180910390a35050565b6101b161022c60201b60201c565b806004600a6101000a81548173ffffffffffffffffffffffffffffffffffffffff021916908373ffffffffffffffffffffffffffffffffffffffff1602179055507fa07c91c183e42229e705a9795a1c06d76528b673788b849597364528c96eefb781604051610221919061038b565b60405180910390a150565b61023a6102c560201b60201c565b73ffffffffffffffffffffffffffffffffffffffff1661025e6102cc60201b60201c565b73ffffffffffffffffffffffffffffffffffffffff16146102c3576102876102c560201b60201c565b6040517f118cdaa70000000000000000000000000000000000000000000000000000000081526004016102ba919061038b565b60405180910390fd5b565b5f33905090565b5f5f5f9054906101000a900473ffffffffffffffffffffffffffffffffffffffff16905090565b5f5ffd5b5f73ffffffffffffffffffffffffffffffffffffffff82169050919050565b5f610320826102f7565b9050919050565b61033081610316565b811461033a575f5ffd5b50565b5f8151905061034b81610327565b92915050565b5f60208284031215610366576103656102f3565b5b5f6103738482850161033d565b91505092915050565b61038581610316565b82525050565b5f60208201905061039e5f83018461037c565b92915050565b61095b806103b15f395ff3fe608060405234801561000f575f5ffd5b50600436106100cd575f3560e01c80637b2aab031161008a578063f21f537d11610064578063f21f537d146101c7578063f2fde38b146101e5578063fc0c546a14610201578063feaf968c1461021f576100cd565b80637b2aab031461016d5780638da5cb5b1461018b578063c22c2499146101a9576100cd565b8063144fa6d7146100d1578063313ce567146100ed5780633bd1c1f71461010b5780633efe1f6414610129578063467f1ee414610147578063715018a614610163575b5f5ffd5b6100eb60048036038101906100e691906106b9565b610241565b005b6100f56102c4565b60405161010291906106ff565b60405180910390f35b6101136102d6565b6040516101209190610730565b60405180910390f35b6101316102dc565b60405161013e919061076d565b60405180910390f35b610161600480360381019061015c919061080d565b6102f7565b005b61016b6103b2565b005b6101756103c5565b6040516101829190610893565b60405180910390f35b6101936103cb565b6040516101a091906108bb565b60405180910390f35b6101b16103f2565b6040516101be919061076d565b60405180910390f35b6101cf61040d565b6040516101dc9190610893565b60405180910390f35b6101ff60048036038101906101fa91906106b9565b610413565b005b610209610497565b60405161021691906108bb565b60405180910390f35b6102276104bd565b6040516102389594939291906108d4565b60405180910390f35b61024961050c565b806004600a6101000a81548173ffffffffffffffffffffffffffffffffffffffff021916908373ffffffffffffffffffffffffffffffffffffffff1602179055507fa07c91c183e42229e705a9795a1c06d76528b673788b849597364528c96eefb7816040516102b991906108bb565b60405180910390a150565b5f60149054906101000a900460ff1681565b60015481565b5f60159054906101000a900469ffffffffffffffffffff1681565b6102ff61050c565b845f60156101000a81548169ffffffffffffffffffff021916908369ffffffffffffffffffff1602179055508360018190555082600281905550816003819055508060045f6101000a81548169ffffffffffffffffffff021916908369ffffffffffffffffffff1602179055507ffda678292d5444240435c9b99fcee9e8ff1fa97977e93b7d5ae4062f52cca85385858585856040516103a39594939291906108d4565b60405180910390a15050505050565b6103ba61050c565b6103c35f610593565b565b60035481565b5f5f5f9054906101000a900473ffffffffffffffffffffffffffffffffffffffff16905090565b60045f9054906101000a900469ffffffffffffffffffff1681565b60025481565b61041b61050c565b5f73ffffffffffffffffffffffffffffffffffffffff168173ffffffffffffffffffffffffffffffffffffffff160361048b575f6040517f1e4fbdf700000000000000000000000000000000000000000000000000000000815260040161048291906108bb565b60405180910390fd5b61049481610593565b50565b6004600a9054906101000a900473ffffffffffffffffffffffffffffffffffffffff1681565b5f5f5f5f5f5f60159054906101000a900469ffffffffffffffffffff1660015460025460035460045f9054906101000a900469ffffffffffffffffffff16945094509450945094509091929394565b610514610654565b73ffffffffffffffffffffffffffffffffffffffff166105326103cb565b73ffffffffffffffffffffffffffffffffffffffff161461059157610555610654565b6040517f118cdaa700000000000000000000000000000000000000000000000000000000815260040161058891906108bb565b60405180910390fd5b565b5f5f5f9054906101000a900473ffffffffffffffffffffffffffffffffffffffff169050815f5f6101000a81548173ffffffffffffffffffffffffffffffffffffffff021916908373ffffffffffffffffffffffffffffffffffffffff1602179055508173ffffffffffffffffffffffffffffffffffffffff168173ffffffffffffffffffffffffffffffffffffffff167f8be0079c531659141344cd1fd0a4f28419497f9722a3daafe3b4186f6b6457e060405160405180910390a35050565b5f33905090565b5f5ffd5b5f73ffffffffffffffffffffffffffffffffffffffff82169050919050565b5f6106888261065f565b9050919050565b6106988161067e565b81146106a2575f5ffd5b50565b5f813590506106b38161068f565b92915050565b5f602082840312156106ce576106cd61065b565b5b5f6106db848285016106a5565b91505092915050565b5f60ff82169050919050565b6106f9816106e4565b82525050565b5f6020820190506107125f8301846106f0565b92915050565b5f819050919050565b61072a81610718565b82525050565b5f6020820190506107435f830184610721565b92915050565b5f69ffffffffffffffffffff82169050919050565b61076781610749565b82525050565b5f6020820190506107805f83018461075e565b92915050565b61078f81610749565b8114610799575f5ffd5b50565b5f813590506107aa81610786565b92915050565b6107b981610718565b81146107c3575f5ffd5b50565b5f813590506107d4816107b0565b92915050565b5f819050919050565b6107ec816107da565b81146107f6575f5ffd5b50565b5f81359050610807816107e3565b92915050565b5f5f5f5f5f60a086880312156108265761082561065b565b5b5f6108338882890161079c565b9550506020610844888289016107c6565b9450506040610855888289016107f9565b9350506060610866888289016107f9565b92505060806108778882890161079c565b9150509295509295909350565b61088d816107da565b82525050565b5f6020820190506108a65f830184610884565b92915050565b6108b58161067e565b82525050565b5f6020820190506108ce5f8301846108ac565b92915050565b5f60a0820190506108e75f83018861075e565b6108f46020830187610721565b6109016040830186610884565b61090e6060830185610884565b61091b608083018461075e565b969550505050505056fea26469706673582212208282f448f1236fa1915358c85b22d9c920c791f0a96b77f8cb4673715a40906864736f6c634300081e0033000000000000000000000000f1839107bece28de0e83c92911434a18293b45a4",
        "nonce": "0x93",
        "chainId": "0xa4b1"
      },
      "additionalContracts": [],
      "isFixedGasLimit": false
    },
    {
      "hash": "0x21dfb951b1f92038952049180e0e76bdf3ca06caf3be09f3ddd4fc916e75203d",
      "transactionType": "CALL",
      "contractName": "Pricefeed",
      "contractAddress": "0x2b4c8a6171eff27905a8490e4cdb711bc0ac77cb",
      "function": "setPrice(uint80,int256,uint256,uint256,uint80)",
      "arguments": [
        "1",
        "73000000",
        "1760965591",
        "1760965591",
        "1"
      ],
      "transaction": {
        "from": "0xee03621ce83bbf6e3931bccf35b144354f16ccf7",
        "to": "0x2b4c8a6171eff27905a8490e4cdb711bc0ac77cb",
        "gas": "0x7753",
        "value": "0x0",
        "input": "0x467f1ee40000000000000000000000000000000000000000000000000000000000000001000000000000000000000000000000000000000000000000000000000459e4400000000000000000000000000000000000000000000000000000000068f633d70000000000000000000000000000000000000000000000000000000068f633d70000000000000000000000000000000000000000000000000000000000000001",
        "nonce": "0x94",
        "chainId": "0xa4b1"
      },
      "additionalContracts": [],
      "isFixedGasLimit": false
    },
    {
      "hash": "0x5d1b759fa371bc810e44ff79cb7cab7a2f0bee5b397621c0f2d6d824ae18efba",
      "transactionType": "CALL",
      "contractName": "Pricefeed",
      "contractAddress": "0x93c1b89d8f71e4688debdb688347a04ed91cfddd",
      "function": "setPrice(uint80,int256,uint256,uint256,uint80)",
      "arguments": [
        "1",
        "730",
        "1760965591",
        "1760965591",
        "1"
      ],
      "transaction": {
        "from": "0xee03621ce83bbf6e3931bccf35b144354f16ccf7",
        "to": "0x93c1b89d8f71e4688debdb688347a04ed91cfddd",
        "gas": "0x76f1",
        "value": "0x0",
        "input": "0x467f1ee4000000000000000000000000000000000000000000000000000000000000000100000000000000000000000000000000000000000000000000000000000002da0000000000000000000000000000000000000000000000000000000068f633d70000000000000000000000000000000000000000000000000000000068f633d70000000000000000000000000000000000000000000000000000000000000001",
        "nonce": "0x95",
        "chainId": "0xa4b1"
      },
      "additionalContracts": [],
      "isFixedGasLimit": false
    },
    {
      "hash": "0x3e68adabd39cb3ecbeea06607cf1a7f42d561b2b39efa4c21ec2c5f83a1a2768",
      "transactionType": "CALL",
      "contractName": "Pricefeed",
      "contractAddress": "0xb543ffef66c25409ea63dc07352960f06ce564c7",
      "function": "setPrice(uint80,int256,uint256,uint256,uint80)",
      "arguments": [
        "1",
        "750",
        "1760965591",
        "1760965591",
        "1"
      ],
      "transaction": {
        "from": "0xee03621ce83bbf6e3931bccf35b144354f16ccf7",
        "to": "0xb543ffef66c25409ea63dc07352960f06ce564c7",
        "gas": "0x76f1",
        "value": "0x0",
        "input": "0x467f1ee4000000000000000000000000000000000000000000000000000000000000000100000000000000000000000000000000000000000000000000000000000002ee0000000000000000000000000000000000000000000000000000000068f633d70000000000000000000000000000000000000000000000000000000068f633d70000000000000000000000000000000000000000000000000000000000000001",
        "nonce": "0x96",
        "chainId": "0xa4b1"
      },
      "additionalContracts": [],
      "isFixedGasLimit": false
    },
    {
      "hash": "0xf2fbeb271d6d16b1d122d97567be436e6c4ade7592c9f7acea08b8462df01fea",
      "transactionType": "CALL",
      "contractName": "Pricefeed",
      "contractAddress": "0xf0b69ea67ea6a8c7be111b73f791ab25c386cad3",
      "function": "setPrice(uint80,int256,uint256,uint256,uint80)",
      "arguments": [
        "1",
        "3000000",
        "1760965591",
        "1760965591",
        "1"
      ],
      "transaction": {
        "from": "0xee03621ce83bbf6e3931bccf35b144354f16ccf7",
        "to": "0xf0b69ea67ea6a8c7be111b73f791ab25c386cad3",
        "gas": "0x770f",
        "value": "0x0",
        "input": "0x467f1ee4000000000000000000000000000000000000000000000000000000000000000100000000000000000000000000000000000000000000000000000000002dc6c00000000000000000000000000000000000000000000000000000000068f633d70000000000000000000000000000000000000000000000000000000068f633d70000000000000000000000000000000000000000000000000000000000000001",
        "nonce": "0x97",
        "chainId": "0xa4b1"
      },
      "additionalContracts": [],
      "isFixedGasLimit": false
    },
    {
      "hash": "0x5bf5ca40413504a381bb9bc64eabd1556fa464e8a2899ed5ebf5016d6b3bbcbf",
      "transactionType": "CALL",
      "contractName": "Pricefeed",
      "contractAddress": "0xc469d792421cd0ef585eab54ef93a6bf4623455e",
      "function": "setPrice(uint80,int256,uint256,uint256,uint80)",
      "arguments": [
        "1",
        "5000",
        "1760965591",
        "1760965591",
        "1"
      ],
      "transaction": {
        "from": "0xee03621ce83bbf6e3931bccf35b144354f16ccf7",
        "to": "0xc469d792421cd0ef585eab54ef93a6bf4623455e",
        "gas": "0x7706",
        "value": "0x0",
        "input": "0x467f1ee4000000000000000000000000000000000000000000000000000000000000000100000000000000000000000000000000000000000000000000000000000013880000000000000000000000000000000000000000000000000000000068f633d70000000000000000000000000000000000000000000000000000000068f633d70000000000000000000000000000000000000000000000000000000000000001",
        "nonce": "0x98",
        "chainId": "0xa4b1"
      },
      "additionalContracts": [],
      "isFixedGasLimit": false
    },
    {
      "hash": "0x930678e54a7c7ceac36a23257a52245ef97b76bc7c8af9116f0a63762f2d1ecf",
      "transactionType": "CALL",
      "contractName": "Pricefeed",
      "contractAddress": "0xd0a899a8fe186d0c3bebd8a45a41cfbc30931105",
      "function": "setPrice(uint80,int256,uint256,uint256,uint80)",
      "arguments": [
        "1",
        "74000000",
        "1760965591",
        "1760965591",
        "1"
      ],
      "transaction": {
        "from": "0xee03621ce83bbf6e3931bccf35b144354f16ccf7",
        "to": "0xd0a899a8fe186d0c3bebd8a45a41cfbc30931105",
        "gas": "0x771f",
        "value": "0x0",
        "input": "0x467f1ee4000000000000000000000000000000000000000000000000000000000000000100000000000000000000000000000000000000000000000000000000046926800000000000000000000000000000000000000000000000000000000068f633d70000000000000000000000000000000000000000000000000000000068f633d70000000000000000000000000000000000000000000000000000000000000001",
        "nonce": "0x99",
        "chainId": "0xa4b1"
      },
      "additionalContracts": [],
      "isFixedGasLimit": false
    },
    {
      "hash": "0xfb12ac2c9c037e35345c3f2077a28f2594976c8aca953da639c3a278ddc07179",
      "transactionType": "CALL",
      "contractName": "Pricefeed",
      "contractAddress": "0xaaef30a81c653520ca5f43dea55b2d1e884946c0",
      "function": "setPrice(uint80,int256,uint256,uint256,uint80)",
      "arguments": [
        "1",
        "5500000",
        "1760965591",
        "1760965591",
        "1"
      ],
      "transaction": {
        "from": "0xee03621ce83bbf6e3931bccf35b144354f16ccf7",
        "to": "0xaaef30a81c653520ca5f43dea55b2d1e884946c0",
        "gas": "0x770f",
        "value": "0x0",
        "input": "0x467f1ee40000000000000000000000000000000000000000000000000000000000000001000000000000000000000000000000000000000000000000000000000053ec600000000000000000000000000000000000000000000000000000000068f633d70000000000000000000000000000000000000000000000000000000068f633d70000000000000000000000000000000000000000000000000000000000000001",
        "nonce": "0x9a",
        "chainId": "0xa4b1"
      },
      "additionalContracts": [],
      "isFixedGasLimit": false
    },
    {
      "hash": "0xd5bd40f037bac9e8fa0e05be41a9010bf627764f90858ec00f04f674369bc9f6",
      "transactionType": "CALL",
      "contractName": "Pricefeed",
      "contractAddress": "0x15118b3d806b68aa5564a89f5f88c7df9a8c6346",
      "function": "setPrice(uint80,int256,uint256,uint256,uint80)",
      "arguments": [
        "1",
        "67",
        "1760965591",
        "1760965591",
        "1"
      ],
      "transaction": {
        "from": "0xee03621ce83bbf6e3931bccf35b144354f16ccf7",
        "to": "0x15118b3d806b68aa5564a89f5f88c7df9a8c6346",
        "gas": "0x76e8",
        "value": "0x0",
        "input": "0x467f1ee4000000000000000000000000000000000000000000000000000000000000000100000000000000000000000000000000000000000000000000000000000000430000000000000000000000000000000000000000000000000000000068f633d70000000000000000000000000000000000000000000000000000000068f633d70000000000000000000000000000000000000000000000000000000000000001",
        "nonce": "0x9b",
        "chainId": "0xa4b1"
      },
      "additionalContracts": [],
      "isFixedGasLimit": false
    },
    {
      "hash": "0x55f5d3d2461e38de68b38c7bf81372f6da7fb2d6d53ebf63e785b68b1f89ac62",
      "transactionType": "CALL",
      "contractName": "Pricefeed",
      "contractAddress": "0xd50ee02f3bb2b4530c5ffb7df3284c9f2090b517",
      "function": "setPrice(uint80,int256,uint256,uint256,uint80)",
      "arguments": [
        "1",
        "108000000",
        "1760965591",
        "1760965591",
        "1"
      ],
      "transaction": {
        "from": "0xee03621ce83bbf6e3931bccf35b144354f16ccf7",
        "to": "0xd50ee02f3bb2b4530c5ffb7df3284c9f2090b517",
        "gas": "0x7730",
        "value": "0x0",
        "input": "0x467f1ee4000000000000000000000000000000000000000000000000000000000000000100000000000000000000000000000000000000000000000000000000066ff3000000000000000000000000000000000000000000000000000000000068f633d70000000000000000000000000000000000000000000000000000000068f633d70000000000000000000000000000000000000000000000000000000000000001",
        "nonce": "0x9c",
        "chainId": "0xa4b1"
      },
      "additionalContracts": [],
      "isFixedGasLimit": false
    },
    {
      "hash": "0x9663dcf7aa28c51ceacfaf559b22a14bee4ff0147a07972fa2d48c5f11257cb9",
      "transactionType": "CALL",
      "contractName": "Pricefeed",
      "contractAddress": "0x0e9162722b305b7cb86cf58bbd7b32082c271ac3",
      "function": "setPrice(uint80,int256,uint256,uint256,uint80)",
      "arguments": [
        "1",
        "100000000",
        "1760965591",
        "1760965591",
        "1"
      ],
      "transaction": {
        "from": "0xee03621ce83bbf6e3931bccf35b144354f16ccf7",
        "to": "0x0e9162722b305b7cb86cf58bbd7b32082c271ac3",
        "gas": "0x7716",
        "value": "0x0",
        "input": "0x467f1ee400000000000000000000000000000000000000000000000000000000000000010000000000000000000000000000000000000000000000000000000005f5e1000000000000000000000000000000000000000000000000000000000068f633d70000000000000000000000000000000000000000000000000000000068f633d70000000000000000000000000000000000000000000000000000000000000001",
        "nonce": "0x9d",
        "chainId": "0xa4b1"
      },
      "additionalContracts": [],
      "isFixedGasLimit": false
    },
    {
      "hash": "0x451889fab5bc622dad5e49d85a5e13c3246432d8a24033c1c1acd2f1515b6d54",
      "transactionType": "CALL",
      "contractName": "Pricefeed",
      "contractAddress": "0xacb7ba59d48d188fefffdb7adaddc366eda85a00",
      "function": "setPrice(uint80,int256,uint256,uint256,uint80)",
      "arguments": [
        "1",
        "350000000000",
        "1760965591",
        "1760965591",
        "1"
      ],
      "transaction": {
        "from": "0xee03621ce83bbf6e3931bccf35b144354f16ccf7",
        "to": "0xacb7ba59d48d188fefffdb7adaddc366eda85a00",
        "gas": "0x773f",
        "value": "0x0",
        "input": "0x467f1ee40000000000000000000000000000000000000000000000000000000000000001000000000000000000000000000000000000000000000000000000517da02c000000000000000000000000000000000000000000000000000000000068f633d70000000000000000000000000000000000000000000000000000000068f633d70000000000000000000000000000000000000000000000000000000000000001",
        "nonce": "0x9e",
        "chainId": "0xa4b1"
      },
      "additionalContracts": [],
      "isFixedGasLimit": false
    },
    {
      "hash": "0x34519700dab89bf244fe943da619b0c80b6b1d79dd1a3fa5d234812492bed2c9",
      "transactionType": "CALL",
      "contractName": "Pricefeed",
      "contractAddress": "0x2b9e978952e76cab4a52f61dcbabfa039eb9bb1f",
      "function": "setPrice(uint80,int256,uint256,uint256,uint80)",
      "arguments": [
        "1",
        "9500000000000",
        "1760965591",
        "1760965591",
        "1"
      ],
      "transaction": {
        "from": "0xee03621ce83bbf6e3931bccf35b144354f16ccf7",
        "to": "0x2b9e978952e76cab4a52f61dcbabfa039eb9bb1f",
        "gas": "0x7776",
        "value": "0x0",
        "input": "0x467f1ee40000000000000000000000000000000000000000000000000000000000000001000000000000000000000000000000000000000000000000000008a3e42018000000000000000000000000000000000000000000000000000000000068f633d70000000000000000000000000000000000000000000000000000000068f633d70000000000000000000000000000000000000000000000000000000000000001",
        "nonce": "0x9f",
        "chainId": "0xa4b1"
      },
      "additionalContracts": [],
      "isFixedGasLimit": false
    }
  ],
  "receipts": [
    {
      "status": "0x1",
      "cumulativeGasUsed": "0xad74f",
      "logs": [
        {
          "address": "0x2b4c8a6171eff27905a8490e4cdb711bc0ac77cb",
          "topics": [
            "0x8be0079c531659141344cd1fd0a4f28419497f9722a3daafe3b4186f6b6457e0",
            "0x0000000000000000000000000000000000000000000000000000000000000000",
            "0x000000000000000000000000ee03621ce83bbf6e3931bccf35b144354f16ccf7"
          ],
          "data": "0x",
          "blockHash": "0x9912b488afb36707f8930a4eaa0c7b1189bdbd90b093dc0b4c8290a9ab995e08",
          "blockNumber": "0x175634b8",
          "transactionHash": "0x9969347372d7c71e4d72f12bd5cdaadbe007bf359737ef82e43b07e68b690fe5",
          "transactionIndex": "0x2",
          "logIndex": "0x0",
          "removed": false
        },
        {
          "address": "0x2b4c8a6171eff27905a8490e4cdb711bc0ac77cb",
          "topics": [
            "0xa07c91c183e42229e705a9795a1c06d76528b673788b849597364528c96eefb7"
          ],
          "data": "0x00000000000000000000000099d19f4cb938e0aad646358c20cb9d0ce0a7a945",
          "blockHash": "0x9912b488afb36707f8930a4eaa0c7b1189bdbd90b093dc0b4c8290a9ab995e08",
          "blockNumber": "0x175634b8",
          "transactionHash": "0x9969347372d7c71e4d72f12bd5cdaadbe007bf359737ef82e43b07e68b690fe5",
          "transactionIndex": "0x2",
          "logIndex": "0x1",
          "removed": false
        }
      ],
      "logsBloom": "0x00000000000000000000000000000000000000000000000000800000000000000000000000000000000000000000000000000000000000000000000000000000000000000000000000000010040000000001000000000000000000000000000000000000020000000000000000000800000000000000008000000200000000400000000000000000000000000000000000000000000000000000000000080000000000000000000000000000000000000000004000000000000000000000000000000000000000000000000010000000000000000000000000000800000020000000000000000000000000000000000000000000004000000000000000000000",
      "type": "0x2",
      "transactionHash": "0x9969347372d7c71e4d72f12bd5cdaadbe007bf359737ef82e43b07e68b690fe5",
      "transactionIndex": "0x2",
      "blockHash": "0x9912b488afb36707f8930a4eaa0c7b1189bdbd90b093dc0b4c8290a9ab995e08",
      "blockNumber": "0x175634b8",
      "gasUsed": "0x9c666",
      "effectiveGasPrice": "0x989680",
      "from": "0xee03621ce83bbf6e3931bccf35b144354f16ccf7",
      "to": null,
      "contractAddress": "0x2b4c8a6171eff27905a8490e4cdb711bc0ac77cb",
      "gasUsedForL1": "0x1d6f",
      "l1BlockNumber": "0x16865ba",
      "timeboosted": false
    },
    {
      "status": "0x1",
      "cumulativeGasUsed": "0xb74d1",
      "logs": [
        {
          "address": "0x93c1b89d8f71e4688debdb688347a04ed91cfddd",
          "topics": [
            "0x8be0079c531659141344cd1fd0a4f28419497f9722a3daafe3b4186f6b6457e0",
            "0x0000000000000000000000000000000000000000000000000000000000000000",
            "0x000000000000000000000000ee03621ce83bbf6e3931bccf35b144354f16ccf7"
          ],
          "data": "0x",
          "blockHash": "0xd508dfb1fec5ec869271baaf9bf5ec9910651a77bbfb3281256f1d88c7882b71",
          "blockNumber": "0x175634c2",
          "transactionHash": "0x1581a4b0c743c0150e1394c1dc7319c6ba6f75dc7429334691ea214d99edf9ed",
          "transactionIndex": "0x3",
          "logIndex": "0x0",
          "removed": false
        },
        {
          "address": "0x93c1b89d8f71e4688debdb688347a04ed91cfddd",
          "topics": [
            "0xa07c91c183e42229e705a9795a1c06d76528b673788b849597364528c96eefb7"
          ],
          "data": "0x000000000000000000000000a0f8c84e78eabdf241a9fa9ff6733ab17bb4e7fa",
          "blockHash": "0xd508dfb1fec5ec869271baaf9bf5ec9910651a77bbfb3281256f1d88c7882b71",
          "blockNumber": "0x175634c2",
          "transactionHash": "0x1581a4b0c743c0150e1394c1dc7319c6ba6f75dc7429334691ea214d99edf9ed",
          "transactionIndex": "0x3",
          "logIndex": "0x1",
          "removed": false
        }
      ],
      "logsBloom": "0x00000000000000000000000000000000000000000000000000800000000000000000000000000000000004000000000000000200000000000000000000000000000000000000000000000010040000000001000000000000000000000000000000000000020000000000000000000800000000000000000000000200000000400000000000000000000000000000000000000000000000000000100000080000000000000000000000000000000000000000000000000000000000000000000000000000000000000000000010000000000000000000000000000800000020000000000000000000000000000000000000000000000000000000000000000000",
      "type": "0x2",
      "transactionHash": "0x1581a4b0c743c0150e1394c1dc7319c6ba6f75dc7429334691ea214d99edf9ed",
      "transactionIndex": "0x3",
      "blockHash": "0xd508dfb1fec5ec869271baaf9bf5ec9910651a77bbfb3281256f1d88c7882b71",
      "blockNumber": "0x175634c2",
      "gasUsed": "0x9c65d",
      "effectiveGasPrice": "0x989680",
      "from": "0xee03621ce83bbf6e3931bccf35b144354f16ccf7",
      "to": null,
      "contractAddress": "0x93c1b89d8f71e4688debdb688347a04ed91cfddd",
      "gasUsedForL1": "0x1d66",
      "l1BlockNumber": "0x16865ba",
      "timeboosted": false
    },
    {
      "status": "0x1",
      "cumulativeGasUsed": "0x9c66f",
      "logs": [
        {
          "address": "0xb543ffef66c25409ea63dc07352960f06ce564c7",
          "topics": [
            "0x8be0079c531659141344cd1fd0a4f28419497f9722a3daafe3b4186f6b6457e0",
            "0x0000000000000000000000000000000000000000000000000000000000000000",
            "0x000000000000000000000000ee03621ce83bbf6e3931bccf35b144354f16ccf7"
          ],
          "data": "0x",
          "blockHash": "0x11a564c4a6d28df57afd5111f319607c75ffd07ce38e631abec3827173d67680",
          "blockNumber": "0x175634c9",
          "transactionHash": "0x3ae81a257ab4b82866d5b99e5e2dcd346039989cfb684ca9b95ba97d8fc39d93",
          "transactionIndex": "0x1",
          "logIndex": "0x0",
          "removed": false
        },
        {
          "address": "0xb543ffef66c25409ea63dc07352960f06ce564c7",
          "topics": [
            "0xa07c91c183e42229e705a9795a1c06d76528b673788b849597364528c96eefb7"
          ],
          "data": "0x0000000000000000000000000b214413cac3e0b8f356181d7339626fcafff6bd",
          "blockHash": "0x11a564c4a6d28df57afd5111f319607c75ffd07ce38e631abec3827173d67680",
          "blockNumber": "0x175634c9",
          "transactionHash": "0x3ae81a257ab4b82866d5b99e5e2dcd346039989cfb684ca9b95ba97d8fc39d93",
          "transactionIndex": "0x1",
          "logIndex": "0x1",
          "removed": false
        }
      ],
      "logsBloom": "0x00000000000000000000000000000000000000000000000000800000000000000000000000000000002000000000000000000000000000000000000000000000000000000000000000000010040000000001000000000000000000000000000000000000020000000000000000000800000000000000000000000200000000400000000000000000000000000000000000000000000000000000000000080000000000000000000000000000000000000000000000000000000000000000000000000000000000000000000010000000000000000800000000000800000020000000000000000000000000000000000000000000000000000000000000000000",
      "type": "0x2",
      "transactionHash": "0x3ae81a257ab4b82866d5b99e5e2dcd346039989cfb684ca9b95ba97d8fc39d93",
      "transactionIndex": "0x1",
      "blockHash": "0x11a564c4a6d28df57afd5111f319607c75ffd07ce38e631abec3827173d67680",
      "blockNumber": "0x175634c9",
      "gasUsed": "0x9c66f",
      "effectiveGasPrice": "0x989680",
      "from": "0xee03621ce83bbf6e3931bccf35b144354f16ccf7",
      "to": null,
      "contractAddress": "0xb543ffef66c25409ea63dc07352960f06ce564c7",
      "gasUsedForL1": "0x1d78",
      "l1BlockNumber": "0x16865ba",
      "timeboosted": false
    },
    {
      "status": "0x1",
      "cumulativeGasUsed": "0x9c66b",
      "logs": [
        {
          "address": "0xf0b69ea67ea6a8c7be111b73f791ab25c386cad3",
          "topics": [
            "0x8be0079c531659141344cd1fd0a4f28419497f9722a3daafe3b4186f6b6457e0",
            "0x0000000000000000000000000000000000000000000000000000000000000000",
            "0x000000000000000000000000ee03621ce83bbf6e3931bccf35b144354f16ccf7"
          ],
          "data": "0x",
          "blockHash": "0xe789394a3b232d4cd644d5742462fc7f57055bb1c73aedfd77bedcb966d1e7b0",
          "blockNumber": "0x175634d0",
          "transactionHash": "0x1facdd4205302c16574594db04b8296f5779910b00f5765a2ac9622eba674f02",
          "transactionIndex": "0x1",
          "logIndex": "0x0",
          "removed": false
        },
        {
          "address": "0xf0b69ea67ea6a8c7be111b73f791ab25c386cad3",
          "topics": [
            "0xa07c91c183e42229e705a9795a1c06d76528b673788b849597364528c96eefb7"
          ],
          "data": "0x000000000000000000000000a7f56bc3252c676e43ff1f3e6780dbbc7679d7a6",
          "blockHash": "0xe789394a3b232d4cd644d5742462fc7f57055bb1c73aedfd77bedcb966d1e7b0",
          "blockNumber": "0x175634d0",
          "transactionHash": "0x1facdd4205302c16574594db04b8296f5779910b00f5765a2ac9622eba674f02",
          "transactionIndex": "0x1",
          "logIndex": "0x1",
          "removed": false
        }
      ],
      "logsBloom": "0x00000000000000000000000000000000000000000000000000800000000000000000000000000000000000000000000000000000000000000000000000000000000000000000000000000010040000000001000000000000000000000000000000000000020000000000000000000800000000000000000000000200000000400000000000000000000000000000000000000000000000000000000000080000000000000000000000000000000100000000000800000000000000000000000000000000000000000000000010000000000000000000000000000800000020000000000000000000000000000000000000000000000000000000000000000010",
      "type": "0x2",
      "transactionHash": "0x1facdd4205302c16574594db04b8296f5779910b00f5765a2ac9622eba674f02",
      "transactionIndex": "0x1",
      "blockHash": "0xe789394a3b232d4cd644d5742462fc7f57055bb1c73aedfd77bedcb966d1e7b0",
      "blockNumber": "0x175634d0",
      "gasUsed": "0x9c66b",
      "effectiveGasPrice": "0x989680",
      "from": "0xee03621ce83bbf6e3931bccf35b144354f16ccf7",
      "to": null,
      "contractAddress": "0xf0b69ea67ea6a8c7be111b73f791ab25c386cad3",
      "gasUsedForL1": "0x1d74",
      "l1BlockNumber": "0x16865ba",
      "timeboosted": false
    },
    {
      "status": "0x1",
      "cumulativeGasUsed": "0xcaf73",
      "logs": [
        {
          "address": "0xc469d792421cd0ef585eab54ef93a6bf4623455e",
          "topics": [
            "0x8be0079c531659141344cd1fd0a4f28419497f9722a3daafe3b4186f6b6457e0",
            "0x0000000000000000000000000000000000000000000000000000000000000000",
            "0x000000000000000000000000ee03621ce83bbf6e3931bccf35b144354f16ccf7"
          ],
          "data": "0x",
          "blockHash": "0x106056764d00321ef96861761a36bca1a53fcc3917736ce668b68edfd92f8e49",
          "blockNumber": "0x175634d7",
          "transactionHash": "0x9bed0d99a51719acf7a650c706d5e828575239686f521991857ce74103c7b72b",
          "transactionIndex": "0x6",
          "logIndex": "0x1",
          "removed": false
        },
        {
          "address": "0xc469d792421cd0ef585eab54ef93a6bf4623455e",
          "topics": [
            "0xa07c91c183e42229e705a9795a1c06d76528b673788b849597364528c96eefb7"
          ],
          "data": "0x00000000000000000000000014954b6a207a4cc908f44354e61997070507fcc4",
          "blockHash": "0x106056764d00321ef96861761a36bca1a53fcc3917736ce668b68edfd92f8e49",
          "blockNumber": "0x175634d7",
          "transactionHash": "0x9bed0d99a51719acf7a650c706d5e828575239686f521991857ce74103c7b72b",
          "transactionIndex": "0x6",
          "logIndex": "0x2",
          "removed": false
        }
      ],
      "logsBloom": "0x00000000000000000000000000000000000000000000000000800000010000000000000000000000000000000000000000000000000000000000000000000000000000000000000000000010040000000001000000000000000000000020000000000000020000000000000000000800000000000000000000000200000000400000000000000000000000000000000000000000000000000000000000080000000000000000000000000000000000000000000000000000000000000000000000000000000000000000000010000000000000000000000000000800000020000000000000000000000008000000000000000000000000000000000000000000",
      "type": "0x2",
      "transactionHash": "0x9bed0d99a51719acf7a650c706d5e828575239686f521991857ce74103c7b72b",
      "transactionIndex": "0x6",
      "blockHash": "0x106056764d00321ef96861761a36bca1a53fcc3917736ce668b68edfd92f8e49",
      "blockNumber": "0x175634d7",
      "gasUsed": "0x9c666",
      "effectiveGasPrice": "0x989680",
      "from": "0xee03621ce83bbf6e3931bccf35b144354f16ccf7",
      "to": null,
      "contractAddress": "0xc469d792421cd0ef585eab54ef93a6bf4623455e",
      "gasUsedForL1": "0x1d6f",
      "l1BlockNumber": "0x16865ba",
      "timeboosted": false
    },
    {
      "status": "0x1",
      "cumulativeGasUsed": "0x792fde",
      "logs": [
        {
          "address": "0xd0a899a8fe186d0c3bebd8a45a41cfbc30931105",
          "topics": [
            "0x8be0079c531659141344cd1fd0a4f28419497f9722a3daafe3b4186f6b6457e0",
            "0x0000000000000000000000000000000000000000000000000000000000000000",
            "0x000000000000000000000000ee03621ce83bbf6e3931bccf35b144354f16ccf7"
          ],
          "data": "0x",
          "blockHash": "0x11da8a237e36056234ca73db60fdbaf622f880ea6f87f5d83994c4162c630f28",
          "blockNumber": "0x175634dd",
          "transactionHash": "0x07fd48e1ecdb22a499de48fe3593970f1d5d3c66575731c66231f926c2ac1cac",
          "transactionIndex": "0xa",
          "logIndex": "0x37",
          "removed": false
        },
        {
          "address": "0xd0a899a8fe186d0c3bebd8a45a41cfbc30931105",
          "topics": [
            "0xa07c91c183e42229e705a9795a1c06d76528b673788b849597364528c96eefb7"
          ],
          "data": "0x0000000000000000000000001aa55163e448b100ac4541c69cf2b55c909a2be9",
          "blockHash": "0x11da8a237e36056234ca73db60fdbaf622f880ea6f87f5d83994c4162c630f28",
          "blockNumber": "0x175634dd",
          "transactionHash": "0x07fd48e1ecdb22a499de48fe3593970f1d5d3c66575731c66231f926c2ac1cac",
          "transactionIndex": "0xa",
          "logIndex": "0x38",
          "removed": false
        }
      ],
      "logsBloom": "0x00000000020000000000000000000000000000000000000000800000000000000000000000000000000000000000000000000000000000000000000000000000000000000000000000000010040000000001000000000000000000000000000000000000020000000000000000000800000000000000000000000200000000400000040000000000000000000000000000000000000000000000000000080000000000000000020000000000000000000000000000000000000000000000000000000000000000000000000010000000000000000000000000000800000020000000000000000000000000000000000000000000000000000000000000000000",
      "type": "0x2",
      "transactionHash": "0x07fd48e1ecdb22a499de48fe3593970f1d5d3c66575731c66231f926c2ac1cac",
      "transactionIndex": "0xa",
      "blockHash": "0x11da8a237e36056234ca73db60fdbaf622f880ea6f87f5d83994c4162c630f28",
      "blockNumber": "0x175634dd",
      "gasUsed": "0x9c65a",
      "effectiveGasPrice": "0x989680",
      "from": "0xee03621ce83bbf6e3931bccf35b144354f16ccf7",
      "to": null,
      "contractAddress": "0xd0a899a8fe186d0c3bebd8a45a41cfbc30931105",
      "gasUsedForL1": "0x1d6f",
      "l1BlockNumber": "0x16865ba",
      "timeboosted": false
    },
    {
      "status": "0x1",
      "cumulativeGasUsed": "0xd9b28",
      "logs": [
        {
          "address": "0xaaef30a81c653520ca5f43dea55b2d1e884946c0",
          "topics": [
            "0x8be0079c531659141344cd1fd0a4f28419497f9722a3daafe3b4186f6b6457e0",
            "0x0000000000000000000000000000000000000000000000000000000000000000",
            "0x000000000000000000000000ee03621ce83bbf6e3931bccf35b144354f16ccf7"
          ],
          "data": "0x",
          "blockHash": "0xa1cb32bd9d7e0ebaf26b4960a558cc2a76a997e2e32fe13f4e1504312e3178eb",
          "blockNumber": "0x175634e6",
          "transactionHash": "0x276ea4abb5bdad0fe17ee3df3d96111992be3a015db3d1fc625b02ac23fb0f3b",
          "transactionIndex": "0x6",
          "logIndex": "0x1",
          "removed": false
        },
        {
          "address": "0xaaef30a81c653520ca5f43dea55b2d1e884946c0",
          "topics": [
            "0xa07c91c183e42229e705a9795a1c06d76528b673788b849597364528c96eefb7"
          ],
          "data": "0x000000000000000000000000623cf9e33f269fd459467e98a5e12db4c2fbcae0",
          "blockHash": "0xa1cb32bd9d7e0ebaf26b4960a558cc2a76a997e2e32fe13f4e1504312e3178eb",
          "blockNumber": "0x175634e6",
          "transactionHash": "0x276ea4abb5bdad0fe17ee3df3d96111992be3a015db3d1fc625b02ac23fb0f3b",
          "transactionIndex": "0x6",
          "logIndex": "0x2",
          "removed": false
        }
      ],
      "logsBloom": "0x00000000000000000000000000000000000000000000000000800000000000000000000000000000000000000000000000000000000000000000000000000000000000000000000000000051040000000001000000000000000000000000000000000000020000000000000000000800000000000000000000000200000000400000080000000000000000000000000000000000000000000000000000080000000000000000000000000000000000000000000000000000000000000000000000000000000000000000000010000000000000000000000000000800000020000000000000000000000000000000000000000000000000000000000000000000",
      "type": "0x2",
      "transactionHash": "0x276ea4abb5bdad0fe17ee3df3d96111992be3a015db3d1fc625b02ac23fb0f3b",
      "transactionIndex": "0x6",
      "blockHash": "0xa1cb32bd9d7e0ebaf26b4960a558cc2a76a997e2e32fe13f4e1504312e3178eb",
      "blockNumber": "0x175634e6",
      "gasUsed": "0x9c66b",
      "effectiveGasPrice": "0x989680",
      "from": "0xee03621ce83bbf6e3931bccf35b144354f16ccf7",
      "to": null,
      "contractAddress": "0xaaef30a81c653520ca5f43dea55b2d1e884946c0",
      "gasUsedForL1": "0x1d74",
      "l1BlockNumber": "0x16865ba",
      "timeboosted": false
    },
    {
      "status": "0x1",
      "cumulativeGasUsed": "0x139123",
      "logs": [
        {
          "address": "0x15118b3d806b68aa5564a89f5f88c7df9a8c6346",
          "topics": [
            "0x8be0079c531659141344cd1fd0a4f28419497f9722a3daafe3b4186f6b6457e0",
            "0x0000000000000000000000000000000000000000000000000000000000000000",
            "0x000000000000000000000000ee03621ce83bbf6e3931bccf35b144354f16ccf7"
          ],
          "data": "0x",
          "blockHash": "0x20a19ef937cfc960019f0f6410f6182f89750439a5e8e75ca02db566c9520474",
          "blockNumber": "0x175634ec",
          "transactionHash": "0x4439983cad1d27882f56ca4f4dc44c11ef932321e7468e7af240e7172b68ffc3",
          "transactionIndex": "0x6",
          "logIndex": "0x8",
          "removed": false
        },
        {
          "address": "0x15118b3d806b68aa5564a89f5f88c7df9a8c6346",
          "topics": [
            "0xa07c91c183e42229e705a9795a1c06d76528b673788b849597364528c96eefb7"
          ],
          "data": "0x000000000000000000000000b4626c50fb6a0019feecd442310cd1f7395e2148",
          "blockHash": "0x20a19ef937cfc960019f0f6410f6182f89750439a5e8e75ca02db566c9520474",
          "blockNumber": "0x175634ec",
          "transactionHash": "0x4439983cad1d27882f56ca4f4dc44c11ef932321e7468e7af240e7172b68ffc3",
          "transactionIndex": "0x6",
          "logIndex": "0x9",
          "removed": false
        }
      ],
      "logsBloom": "0x00000000000000000000000000000000000000000000000000800000000000000000000000000000000000000000000000000000000000000000000010000000000000000000000000000010040000000001000000000000000000000000000000000000020000002000000000000800000000000000000000000200000000400000000000000000000000000000000000000000000000000000000000080000000000000000000000000000000000000000000000000000000000000000000000000000000000000000000010000000000000000000000000000800000020000000000000000000000000008000000000000000000000000000000000000000",
      "type": "0x2",
      "transactionHash": "0x4439983cad1d27882f56ca4f4dc44c11ef932321e7468e7af240e7172b68ffc3",
      "transactionIndex": "0x6",
      "blockHash": "0x20a19ef937cfc960019f0f6410f6182f89750439a5e8e75ca02db566c9520474",
      "blockNumber": "0x175634ec",
      "gasUsed": "0x9c65a",
      "effectiveGasPrice": "0x989680",
      "from": "0xee03621ce83bbf6e3931bccf35b144354f16ccf7",
      "to": null,
      "contractAddress": "0x15118b3d806b68aa5564a89f5f88c7df9a8c6346",
      "gasUsedForL1": "0x1d6f",
      "l1BlockNumber": "0x16865bc",
      "timeboosted": false
    },
    {
      "status": "0x1",
      "cumulativeGasUsed": "0x11b326",
      "logs": [
        {
          "address": "0xd50ee02f3bb2b4530c5ffb7df3284c9f2090b517",
          "topics": [
            "0x8be0079c531659141344cd1fd0a4f28419497f9722a3daafe3b4186f6b6457e0",
            "0x0000000000000000000000000000000000000000000000000000000000000000",
            "0x000000000000000000000000ee03621ce83bbf6e3931bccf35b144354f16ccf7"
          ],
          "data": "0x",
          "blockHash": "0xfb89bb23e7479d88952417317eeb26e2b1c29a5fe5ac2e8ad88330147945a5b4",
          "blockNumber": "0x175634f4",
          "transactionHash": "0x8f428aba39a1a7d046d0fc7a7eccad8b31b6d5f8d37d4d0cd5cfa445bc3fc96c",
          "transactionIndex": "0x5",
          "logIndex": "0x7",
          "removed": false
        },
        {
          "address": "0xd50ee02f3bb2b4530c5ffb7df3284c9f2090b517",
          "topics": [
            "0xa07c91c183e42229e705a9795a1c06d76528b673788b849597364528c96eefb7"
          ],
          "data": "0x0000000000000000000000008d55c23664b46212bc6dc03d03e237988c0d3646",
          "blockHash": "0xfb89bb23e7479d88952417317eeb26e2b1c29a5fe5ac2e8ad88330147945a5b4",
          "blockNumber": "0x175634f4",
          "transactionHash": "0x8f428aba39a1a7d046d0fc7a7eccad8b31b6d5f8d37d4d0cd5cfa445bc3fc96c",
          "transactionIndex": "0x5",
          "logIndex": "0x8",
          "removed": false
        }
      ],
      "logsBloom": "0x00000000000000000000000000001000000000000000000000800000000000000000000000000000000000000000000000000000000000000000000000000000000000000000000000000010040000004001000000000000000000000000000000000000020000000000000000000800000000000000000000000200000000400000000000000000000000000000000000000000000000000000000000080000000000000000000000000000000000000000000000000000000000000000000000000000000000000000000010000000000000000000000000000800000020000200000000000000000000000000000000000000000000000000000000000000",
      "type": "0x2",
      "transactionHash": "0x8f428aba39a1a7d046d0fc7a7eccad8b31b6d5f8d37d4d0cd5cfa445bc3fc96c",
      "transactionIndex": "0x5",
      "blockHash": "0xfb89bb23e7479d88952417317eeb26e2b1c29a5fe5ac2e8ad88330147945a5b4",
      "blockNumber": "0x175634f4",
      "gasUsed": "0x9c659",
      "effectiveGasPrice": "0x989680",
      "from": "0xee03621ce83bbf6e3931bccf35b144354f16ccf7",
      "to": null,
      "contractAddress": "0xd50ee02f3bb2b4530c5ffb7df3284c9f2090b517",
      "gasUsedForL1": "0x1d62",
      "l1BlockNumber": "0x16865bc",
      "timeboosted": false
    },
    {
      "status": "0x1",
      "cumulativeGasUsed": "0xbacdd",
      "logs": [
        {
          "address": "0x0e9162722b305b7cb86cf58bbd7b32082c271ac3",
          "topics": [
            "0x8be0079c531659141344cd1fd0a4f28419497f9722a3daafe3b4186f6b6457e0",
            "0x0000000000000000000000000000000000000000000000000000000000000000",
            "0x000000000000000000000000ee03621ce83bbf6e3931bccf35b144354f16ccf7"
          ],
          "data": "0x",
          "blockHash": "0x9f2a2dc0661824cef3aa1c69ed5b693f2689825aa001ca571679b0c38b60ef58",
          "blockNumber": "0x175634fb",
          "transactionHash": "0x49bc1975c592888f7e39980b8c7d1588105aaf315f65e7d4188e957ea4cb9a73",
          "transactionIndex": "0x2",
          "logIndex": "0x3",
          "removed": false
        },
        {
          "address": "0x0e9162722b305b7cb86cf58bbd7b32082c271ac3",
          "topics": [
            "0xa07c91c183e42229e705a9795a1c06d76528b673788b849597364528c96eefb7"
          ],
          "data": "0x000000000000000000000000c23e60ac84240ffce72680652515dfb1435c356b",
          "blockHash": "0x9f2a2dc0661824cef3aa1c69ed5b693f2689825aa001ca571679b0c38b60ef58",
          "blockNumber": "0x175634fb",
          "transactionHash": "0x49bc1975c592888f7e39980b8c7d1588105aaf315f65e7d4188e957ea4cb9a73",
          "transactionIndex": "0x2",
          "logIndex": "0x4",
          "removed": false
        }
      ],
      "logsBloom": "0x00000000000000000000000000000000000000000000000008800000000000000000000000000000000000000000000000000000000000000000000000000000000000000000000000000010040000000001000000000000000000000000000000000000020000000000000000000800000000000000000000000200000000400000000000000000000000000000000000000000000000000000000000080000000000000000000000000000000000000000000000000000010000000000000000000000000000000000000010000000000000000000000000000800000020000800000000000000000000000000000000000000000000000000000000000000",
      "type": "0x2",
      "transactionHash": "0x49bc1975c592888f7e39980b8c7d1588105aaf315f65e7d4188e957ea4cb9a73",
      "transactionIndex": "0x2",
      "blockHash": "0x9f2a2dc0661824cef3aa1c69ed5b693f2689825aa001ca571679b0c38b60ef58",
      "blockNumber": "0x175634fb",
      "gasUsed": "0x9c65d",
      "effectiveGasPrice": "0x989680",
      "from": "0xee03621ce83bbf6e3931bccf35b144354f16ccf7",
      "to": null,
      "contractAddress": "0x0e9162722b305b7cb86cf58bbd7b32082c271ac3",
      "gasUsedForL1": "0x1d66",
      "l1BlockNumber": "0x16865bc",
      "timeboosted": false
    },
    {
      "status": "0x1",
      "cumulativeGasUsed": "0xca67d",
      "logs": [
        {
          "address": "0xacb7ba59d48d188fefffdb7adaddc366eda85a00",
          "topics": [
            "0x8be0079c531659141344cd1fd0a4f28419497f9722a3daafe3b4186f6b6457e0",
            "0x0000000000000000000000000000000000000000000000000000000000000000",
            "0x000000000000000000000000ee03621ce83bbf6e3931bccf35b144354f16ccf7"
          ],
          "data": "0x",
          "blockHash": "0xd03789347de5b2934d4931670210141e1705f968d40f04e0c017be6e90f9cd75",
          "blockNumber": "0x17563504",
          "transactionHash": "0x763e80eacf6d8034c381d83d5bdb72e633a695aaa7dfdb025a8f8058fcc49eed",
          "transactionIndex": "0x2",
          "logIndex": "0x5",
          "removed": false
        },
        {
          "address": "0xacb7ba59d48d188fefffdb7adaddc366eda85a00",
          "topics": [
            "0xa07c91c183e42229e705a9795a1c06d76528b673788b849597364528c96eefb7"
          ],
          "data": "0x000000000000000000000000338802b73da88d05e1b3a0203092ad43807049be",
          "blockHash": "0xd03789347de5b2934d4931670210141e1705f968d40f04e0c017be6e90f9cd75",
          "blockNumber": "0x17563504",
          "transactionHash": "0x763e80eacf6d8034c381d83d5bdb72e633a695aaa7dfdb025a8f8058fcc49eed",
          "transactionIndex": "0x2",
          "logIndex": "0x6",
          "removed": false
        }
      ],
      "logsBloom": "0x00000000000000000000000000000000000000000000000000800000000000000000000000000000000000000000000000000000000000000000000000000000000000000000000000000010040000000001000000000000000000000000000000000000020000000000000000000800000000000000000000000200000000400000000000000000000000000000000000000000000000000000000000080000000800000002000000000000000000000000000000000000000000000000000000000000000000000000000010000800000000000000000000000800000020000000000000000000000000000000000000000000000000000000000000000000",
      "type": "0x2",
      "transactionHash": "0x763e80eacf6d8034c381d83d5bdb72e633a695aaa7dfdb025a8f8058fcc49eed",
      "transactionIndex": "0x2",
      "blockHash": "0xd03789347de5b2934d4931670210141e1705f968d40f04e0c017be6e90f9cd75",
      "blockNumber": "0x17563504",
      "gasUsed": "0x9c65d",
      "effectiveGasPrice": "0x989680",
      "from": "0xee03621ce83bbf6e3931bccf35b144354f16ccf7",
      "to": null,
      "contractAddress": "0xacb7ba59d48d188fefffdb7adaddc366eda85a00",
      "gasUsedForL1": "0x1d66",
      "l1BlockNumber": "0x16865bc",
      "timeboosted": false
    },
    {
      "status": "0x1",
      "cumulativeGasUsed": "0xda9ff",
      "logs": [
        {
          "address": "0x2b9e978952e76cab4a52f61dcbabfa039eb9bb1f",
          "topics": [
            "0x8be0079c531659141344cd1fd0a4f28419497f9722a3daafe3b4186f6b6457e0",
            "0x0000000000000000000000000000000000000000000000000000000000000000",
            "0x000000000000000000000000ee03621ce83bbf6e3931bccf35b144354f16ccf7"
          ],
          "data": "0x",
          "blockHash": "0x1afda8ee798a073febb3b3ea5c4cf6cba7a95afc96a5c3abc015b39922ba45ff",
          "blockNumber": "0x1756350a",
          "transactionHash": "0x63bdd8a482108ba872564ea01c38e0879aba0e24dd9b629403b9502f1ba5fb8d",
          "transactionIndex": "0x5",
          "logIndex": "0x3",
          "removed": false
        },
        {
          "address": "0x2b9e978952e76cab4a52f61dcbabfa039eb9bb1f",
          "topics": [
            "0xa07c91c183e42229e705a9795a1c06d76528b673788b849597364528c96eefb7"
          ],
          "data": "0x000000000000000000000000f1839107bece28de0e83c92911434a18293b45a4",
          "blockHash": "0x1afda8ee798a073febb3b3ea5c4cf6cba7a95afc96a5c3abc015b39922ba45ff",
          "blockNumber": "0x1756350a",
          "transactionHash": "0x63bdd8a482108ba872564ea01c38e0879aba0e24dd9b629403b9502f1ba5fb8d",
          "transactionIndex": "0x5",
          "logIndex": "0x4",
          "removed": false
        }
      ],
      "logsBloom": "0x00000000000000000000000000000000008000000000000000800000000000000000000000000000000000000000000000000000000000000000000000000000000000000000000000000010040000000001000000000010000000000000000000000000020000000000000000000800000000000000000000000200000000400000000000000000000000000000000000000000000000000008000000080000000000000000000000000000000000000000000000000000000000000000000000000000000000000000000010000000000000000000000000000800000020000000000000000000000000000000000000000000000000000000000000000000",
      "type": "0x2",
      "transactionHash": "0x63bdd8a482108ba872564ea01c38e0879aba0e24dd9b629403b9502f1ba5fb8d",
      "transactionIndex": "0x5",
      "blockHash": "0x1afda8ee798a073febb3b3ea5c4cf6cba7a95afc96a5c3abc015b39922ba45ff",
      "blockNumber": "0x1756350a",
      "gasUsed": "0x9c66b",
      "effectiveGasPrice": "0x989680",
      "from": "0xee03621ce83bbf6e3931bccf35b144354f16ccf7",
      "to": null,
      "contractAddress": "0x2b9e978952e76cab4a52f61dcbabfa039eb9bb1f",
      "gasUsedForL1": "0x1d74",
      "l1BlockNumber": "0x16865bc",
      "timeboosted": false
    },
    {
      "status": "0x1",
      "cumulativeGasUsed": "0x6f4f4",
      "logs": [
        {
          "address": "0x2b4c8a6171eff27905a8490e4cdb711bc0ac77cb",
          "topics": [
            "0xfda678292d5444240435c9b99fcee9e8ff1fa97977e93b7d5ae4062f52cca853"
          ],
          "data": "0x0000000000000000000000000000000000000000000000000000000000000001000000000000000000000000000000000000000000000000000000000459e4400000000000000000000000000000000000000000000000000000000068f633d70000000000000000000000000000000000000000000000000000000068f633d70000000000000000000000000000000000000000000000000000000000000001",
          "blockHash": "0xf554269db1e1071f571aeb946a4e76aed8a1debf6d5f820ba06a85b1341fe4ba",
          "blockNumber": "0x17563511",
          "transactionHash": "0x21dfb951b1f92038952049180e0e76bdf3ca06caf3be09f3ddd4fc916e75203d",
          "transactionIndex": "0x3",
          "logIndex": "0x1",
          "removed": false
        }
      ],
      "logsBloom": "0x00000000000000000000000000000000000000000000000000000000000000000000000000000000000000000000000000000000000000000000000000000000000000000000000000000000000000000000000000000000000000000200000000000000000000000000000000000000000000000000008000000000000000000000000000000000000000000000000000000000000000000000000000000000000000000000000000000000000000000000004000000000000000000000000000000000000000000000000000010000000000000000000000000000000000000000000000000000000080000000000000000000004000000000000000000000",
      "type": "0x2",
      "transactionHash": "0x21dfb951b1f92038952049180e0e76bdf3ca06caf3be09f3ddd4fc916e75203d",
      "transactionIndex": "0x3",
      "blockHash": "0xf554269db1e1071f571aeb946a4e76aed8a1debf6d5f820ba06a85b1341fe4ba",
      "blockNumber": "0x17563511",
      "gasUsed": "0x19475",
      "effectiveGasPrice": "0x989680",
      "from": "0xee03621ce83bbf6e3931bccf35b144354f16ccf7",
      "to": "0x2b4c8a6171eff27905a8490e4cdb711bc0ac77cb",
      "contractAddress": null,
      "gasUsedForL1": "0x42f",
      "l1BlockNumber": "0x16865bc",
      "timeboosted": false
    },
    {
      "status": "0x1",
      "cumulativeGasUsed": "0x6d0f3",
      "logs": [
        {
          "address": "0x93c1b89d8f71e4688debdb688347a04ed91cfddd",
          "topics": [
            "0xfda678292d5444240435c9b99fcee9e8ff1fa97977e93b7d5ae4062f52cca853"
          ],
          "data": "0x000000000000000000000000000000000000000000000000000000000000000100000000000000000000000000000000000000000000000000000000000002da0000000000000000000000000000000000000000000000000000000068f633d70000000000000000000000000000000000000000000000000000000068f633d70000000000000000000000000000000000000000000000000000000000000001",
          "blockHash": "0x72ee1f6656e5e0eb46f49e6c9ca9aa6cb47c337f31530705a99a001b7b89d0ee",
          "blockNumber": "0x17563519",
          "transactionHash": "0x5d1b759fa371bc810e44ff79cb7cab7a2f0bee5b397621c0f2d6d824ae18efba",
          "transactionIndex": "0x3",
          "logIndex": "0x5",
          "removed": false
        }
      ],
      "logsBloom": "0x00000000000000000000000000000000000000000000000000000000000000000000000000000000000004000000000000000200000000000000000000000000000000000000000000000000000000000000000000000000000000000200000000000000000000000000000000000000000000000000000000000000000000000000000000000000000000000000000000000000000000000000100000000000000000000000000000000000000000000000000000000000000000000000000000000000000000000000000000010000000000000000000000000000000000000000000000000000000080000000000000000000000000000000000000000000",
      "type": "0x2",
      "transactionHash": "0x5d1b759fa371bc810e44ff79cb7cab7a2f0bee5b397621c0f2d6d824ae18efba",
      "transactionIndex": "0x3",
      "blockHash": "0x72ee1f6656e5e0eb46f49e6c9ca9aa6cb47c337f31530705a99a001b7b89d0ee",
      "blockNumber": "0x17563519",
      "gasUsed": "0x193ff",
      "effectiveGasPrice": "0x989680",
      "from": "0xee03621ce83bbf6e3931bccf35b144354f16ccf7",
      "to": "0x93c1b89d8f71e4688debdb688347a04ed91cfddd",
      "contractAddress": null,
      "gasUsedForL1": "0x3d1",
      "l1BlockNumber": "0x16865bc",
      "timeboosted": false
    },
    {
      "status": "0x1",
      "cumulativeGasUsed": "0x231cd",
      "logs": [
        {
          "address": "0xb543ffef66c25409ea63dc07352960f06ce564c7",
          "topics": [
            "0xfda678292d5444240435c9b99fcee9e8ff1fa97977e93b7d5ae4062f52cca853"
          ],
          "data": "0x000000000000000000000000000000000000000000000000000000000000000100000000000000000000000000000000000000000000000000000000000002ee0000000000000000000000000000000000000000000000000000000068f633d70000000000000000000000000000000000000000000000000000000068f633d70000000000000000000000000000000000000000000000000000000000000001",
          "blockHash": "0x7b3698d00876f670d3f4fc80eda8a313aac81ac82518835d5bc8592bf9c357a1",
          "blockNumber": "0x17563520",
          "transactionHash": "0x3e68adabd39cb3ecbeea06607cf1a7f42d561b2b39efa4c21ec2c5f83a1a2768",
          "transactionIndex": "0x2",
          "logIndex": "0x0",
          "removed": false
        }
      ],
      "logsBloom": "0x00000000000000000000000000000000000000000000000000800000000000000000000000000000002000000000000000000000000000000000000000000000000000000000000000000000000000000000000000000000000000000200000000000000000000000000000000000000000000000000000000000000000000000000000000000000000000000000000000000000000000000000000000000000000000000000000000000000000000000000000000000000000000000000000000000000000000000000000000010000000000000800000000000000000000000000000000000000000080000000000000000000000000000000000000000000",
      "type": "0x2",
      "transactionHash": "0x3e68adabd39cb3ecbeea06607cf1a7f42d561b2b39efa4c21ec2c5f83a1a2768",
      "transactionIndex": "0x2",
      "blockHash": "0x7b3698d00876f670d3f4fc80eda8a313aac81ac82518835d5bc8592bf9c357a1",
      "blockNumber": "0x17563520",
      "gasUsed": "0x19442",
      "effectiveGasPrice": "0x989680",
      "from": "0xee03621ce83bbf6e3931bccf35b144354f16ccf7",
      "to": "0xb543ffef66c25409ea63dc07352960f06ce564c7",
      "contractAddress": null,
      "gasUsedForL1": "0x414",
      "l1BlockNumber": "0x16865bc",
      "timeboosted": false
    },
    {
      "status": "0x1",
      "cumulativeGasUsed": "0x342b9",
      "logs": [
        {
          "address": "0xf0b69ea67ea6a8c7be111b73f791ab25c386cad3",
          "topics": [
            "0xfda678292d5444240435c9b99fcee9e8ff1fa97977e93b7d5ae4062f52cca853"
          ],
          "data": "0x000000000000000000000000000000000000000000000000000000000000000100000000000000000000000000000000000000000000000000000000002dc6c00000000000000000000000000000000000000000000000000000000068f633d70000000000000000000000000000000000000000000000000000000068f633d70000000000000000000000000000000000000000000000000000000000000001",
          "blockHash": "0xa8264573bb7bb09621f056718b3e98a5b72047723e02bf26e7c7843c3a5dae07",
          "blockNumber": "0x17563526",
          "transactionHash": "0xf2fbeb271d6d16b1d122d97567be436e6c4ade7592c9f7acea08b8462df01fea",
          "transactionIndex": "0x3",
          "logIndex": "0x0",
          "removed": false
        }
      ],
      "logsBloom": "0x00000000000000000000000000000000000000000000000000000000000000000000000000000000000000000000000000000000000000000000000000000000000000000000000000000000000000000000000000000000000000000200000000000000000000000000000000000000000000000000000000000000000000000000000000000000000000000000000000000000000000000000000000000000000000000000000000000000000100000000000800000000000000000000000000000000000000000000000000010000000000000000000000000000000000000000000000000000000080000000000000000000000000000000000000000010",
      "type": "0x2",
      "transactionHash": "0xf2fbeb271d6d16b1d122d97567be436e6c4ade7592c9f7acea08b8462df01fea",
      "transactionIndex": "0x3",
      "blockHash": "0xa8264573bb7bb09621f056718b3e98a5b72047723e02bf26e7c7843c3a5dae07",
      "blockNumber": "0x17563526",
      "gasUsed": "0x19445",
      "effectiveGasPrice": "0x989680",
      "from": "0xee03621ce83bbf6e3931bccf35b144354f16ccf7",
      "to": "0xf0b69ea67ea6a8c7be111b73f791ab25c386cad3",
      "contractAddress": null,
      "gasUsedForL1": "0x40b",
      "l1BlockNumber": "0x16865bd",
      "timeboosted": false
    },
    {
      "status": "0x1",
      "cumulativeGasUsed": "0x58a99",
      "logs": [
        {
          "address": "0xc469d792421cd0ef585eab54ef93a6bf4623455e",
          "topics": [
            "0xfda678292d5444240435c9b99fcee9e8ff1fa97977e93b7d5ae4062f52cca853"
          ],
          "data": "0x000000000000000000000000000000000000000000000000000000000000000100000000000000000000000000000000000000000000000000000000000013880000000000000000000000000000000000000000000000000000000068f633d70000000000000000000000000000000000000000000000000000000068f633d70000000000000000000000000000000000000000000000000000000000000001",
          "blockHash": "0x8557c919fd1b31375d8fc7d0a998542bde2e5c459895ec38b1ec470f86b03ec6",
          "blockNumber": "0x1756352e",
          "transactionHash": "0x5bf5ca40413504a381bb9bc64eabd1556fa464e8a2899ed5ebf5016d6b3bbcbf",
          "transactionIndex": "0x4",
          "logIndex": "0x4",
          "removed": false
        }
      ],
      "logsBloom": "0x00000000000000000000000000000000000000000000000000000000010000000000000000000000000000000000000000000000000000000000000000000000000000000000000000000000000000000000000000000000000000000220000000000000000000000000000000000000000000000000000000000000000000000000000000000000000000000000000000000000000000000000000000000000000000000000000000000000000000000000000000000000000000000000000000000000000000000000000000010000000000000000000000000000000000000000000000000000000088000000000000000000000000000000000000000000",
      "type": "0x2",
      "transactionHash": "0x5bf5ca40413504a381bb9bc64eabd1556fa464e8a2899ed5ebf5016d6b3bbcbf",
      "transactionIndex": "0x4",
      "blockHash": "0x8557c919fd1b31375d8fc7d0a998542bde2e5c459895ec38b1ec470f86b03ec6",
      "blockNumber": "0x1756352e",
      "gasUsed": "0x19435",
      "effectiveGasPrice": "0x989680",
      "from": "0xee03621ce83bbf6e3931bccf35b144354f16ccf7",
      "to": "0xc469d792421cd0ef585eab54ef93a6bf4623455e",
      "contractAddress": null,
      "gasUsedForL1": "0x407",
      "l1BlockNumber": "0x16865bd",
      "timeboosted": false
    },
    {
      "status": "0x1",
      "cumulativeGasUsed": "0x523bf",
      "logs": [
        {
          "address": "0xd0a899a8fe186d0c3bebd8a45a41cfbc30931105",
          "topics": [
            "0xfda678292d5444240435c9b99fcee9e8ff1fa97977e93b7d5ae4062f52cca853"
          ],
          "data": "0x000000000000000000000000000000000000000000000000000000000000000100000000000000000000000000000000000000000000000000000000046926800000000000000000000000000000000000000000000000000000000068f633d70000000000000000000000000000000000000000000000000000000068f633d70000000000000000000000000000000000000000000000000000000000000001",
          "blockHash": "0x4679a1e58a42f58190baed706e4a469ecea9448b57cb91cc22bbd48009060095",
          "blockNumber": "0x17563537",
          "transactionHash": "0x930678e54a7c7ceac36a23257a52245ef97b76bc7c8af9116f0a63762f2d1ecf",
          "transactionIndex": "0x4",
          "logIndex": "0x3",
          "removed": false
        }
      ],
      "logsBloom": "0x00000000020000000000000000000000000000000000000000000000000000000000000000000000000000000000000000000000000000000000000000000000000000000000000000000000000000000000000000000000000000000200000000000000000000000000000000000000000000000000000000000000000000000000040000000000000000000000000000000000000000000000000000000000000000000000020000000000000000000000000000000000000000000000000000000000000000000000000000010000000000000000000000000000000000000000000000000000000080000000000000000000000000000000000000000000",
      "type": "0x2",
      "transactionHash": "0x930678e54a7c7ceac36a23257a52245ef97b76bc7c8af9116f0a63762f2d1ecf",
      "transactionIndex": "0x4",
      "blockHash": "0x4679a1e58a42f58190baed706e4a469ecea9448b57cb91cc22bbd48009060095",
      "blockNumber": "0x17563537",
      "gasUsed": "0x1945f",
      "effectiveGasPrice": "0x989680",
      "from": "0xee03621ce83bbf6e3931bccf35b144354f16ccf7",
      "to": "0xd0a899a8fe186d0c3bebd8a45a41cfbc30931105",
      "contractAddress": null,
      "gasUsedForL1": "0x419",
      "l1BlockNumber": "0x16865bd",
      "timeboosted": false
    },
    {
      "status": "0x1",
      "cumulativeGasUsed": "0x231d5",
      "logs": [
        {
          "address": "0xaaef30a81c653520ca5f43dea55b2d1e884946c0",
          "topics": [
            "0xfda678292d5444240435c9b99fcee9e8ff1fa97977e93b7d5ae4062f52cca853"
          ],
          "data": "0x0000000000000000000000000000000000000000000000000000000000000001000000000000000000000000000000000000000000000000000000000053ec600000000000000000000000000000000000000000000000000000000068f633d70000000000000000000000000000000000000000000000000000000068f633d70000000000000000000000000000000000000000000000000000000000000001",
          "blockHash": "0xc9c995e4120455cb82320c0561c7324e809546b064b3a4e2e6699c49af6f5ab1",
          "blockNumber": "0x1756353e",
          "transactionHash": "0xfb12ac2c9c037e35345c3f2077a28f2594976c8aca953da639c3a278ddc07179",
          "transactionIndex": "0x2",
          "logIndex": "0x0",
          "removed": false
        }
      ],
      "logsBloom": "0x00000000000000000000000000000000000000000000000000000000000000000000000000000000000000000000000000000000000000000000000000000000000000000000000000000041000000000000000000000000000000000200000000000000000000000000000000000000000000000000000000000000000000000000080000000000000000000000000000000000000000000000000000000000000000000000000000000000000000000000000000000000000000000000000000000000000000000000000000010000000000000000000000000000000000000000000000000000000080000000000000000000000000000000000000000000",
      "type": "0x2",
      "transactionHash": "0xfb12ac2c9c037e35345c3f2077a28f2594976c8aca953da639c3a278ddc07179",
      "transactionIndex": "0x2",
      "blockHash": "0xc9c995e4120455cb82320c0561c7324e809546b064b3a4e2e6699c49af6f5ab1",
      "blockNumber": "0x1756353e",
      "gasUsed": "0x1944a",
      "effectiveGasPrice": "0x989680",
      "from": "0xee03621ce83bbf6e3931bccf35b144354f16ccf7",
      "to": "0xaaef30a81c653520ca5f43dea55b2d1e884946c0",
      "contractAddress": null,
      "gasUsedForL1": "0x410",
      "l1BlockNumber": "0x16865bd",
      "timeboosted": false
    },
    {
      "status": "0x1",
      "cumulativeGasUsed": "0x23196",
      "logs": [
        {
          "address": "0x15118b3d806b68aa5564a89f5f88c7df9a8c6346",
          "topics": [
            "0xfda678292d5444240435c9b99fcee9e8ff1fa97977e93b7d5ae4062f52cca853"
          ],
          "data": "0x000000000000000000000000000000000000000000000000000000000000000100000000000000000000000000000000000000000000000000000000000000430000000000000000000000000000000000000000000000000000000068f633d70000000000000000000000000000000000000000000000000000000068f633d70000000000000000000000000000000000000000000000000000000000000001",
          "blockHash": "0xbb849b53fba6f387279e3674d3c3a4106e30f380837c13d36d435560f3f778ab",
          "blockNumber": "0x17563545",
          "transactionHash": "0xd5bd40f037bac9e8fa0e05be41a9010bf627764f90858ec00f04f674369bc9f6",
          "transactionIndex": "0x2",
          "logIndex": "0x0",
          "removed": false
        }
      ],
      "logsBloom": "0x00000000000000000000000000000000000000000000000000000000000000000000000000000000000000000000000000000000000000000000000010000000000000000000000000000000000000000000000000000000000000000200000000000000000000002000000000000000000000000000000000000000000000000000000000000000000000000000000000000000000000000000000000000000000000000000000000000000000000000000000000000000000000000000000000000000000000000000000000010000000000000000000000000000000000000000000000000000000080008000000000000000000000000000000000000000",
      "type": "0x2",
      "transactionHash": "0xd5bd40f037bac9e8fa0e05be41a9010bf627764f90858ec00f04f674369bc9f6",
      "transactionIndex": "0x2",
      "blockHash": "0xbb849b53fba6f387279e3674d3c3a4106e30f380837c13d36d435560f3f778ab",
      "blockNumber": "0x17563545",
      "gasUsed": "0x19417",
      "effectiveGasPrice": "0x989680",
      "from": "0xee03621ce83bbf6e3931bccf35b144354f16ccf7",
      "to": "0x15118b3d806b68aa5564a89f5f88c7df9a8c6346",
      "contractAddress": null,
      "gasUsedForL1": "0x3f5",
      "l1BlockNumber": "0x16865bd",
      "timeboosted": false
    },
    {
      "status": "0x1",
      "cumulativeGasUsed": "0xe7ed8",
      "logs": [
        {
          "address": "0xd50ee02f3bb2b4530c5ffb7df3284c9f2090b517",
          "topics": [
            "0xfda678292d5444240435c9b99fcee9e8ff1fa97977e93b7d5ae4062f52cca853"
          ],
          "data": "0x000000000000000000000000000000000000000000000000000000000000000100000000000000000000000000000000000000000000000000000000066ff3000000000000000000000000000000000000000000000000000000000068f633d70000000000000000000000000000000000000000000000000000000068f633d70000000000000000000000000000000000000000000000000000000000000001",
          "blockHash": "0xa431d64483ed57182fb2a564257eeca282487aadfa603eb2fdbb94bdfde2fb68",
          "blockNumber": "0x1756354e",
          "transactionHash": "0x55f5d3d2461e38de68b38c7bf81372f6da7fb2d6d53ebf63e785b68b1f89ac62",
          "transactionIndex": "0x7",
          "logIndex": "0x11",
          "removed": false
        }
      ],
      "logsBloom": "0x00000000000000000000000000001000000000000000000000000000000000000000000000000000000000000000000000000000000000000000000000000000000000000000000000000000000000004000000000000000000000000200000000000000000000000000000000000000000000000000000000000000000000000000000000000000000000000000000000000000000000000000000000000000000000000000000000000000000000000000000000000000000000000000000000000000000000000000000000010000000000000000000000000000000000000200000000000000000080000000000000000000000000000000000000000000",
      "type": "0x2",
      "transactionHash": "0x55f5d3d2461e38de68b38c7bf81372f6da7fb2d6d53ebf63e785b68b1f89ac62",
      "transactionIndex": "0x7",
      "blockHash": "0xa431d64483ed57182fb2a564257eeca282487aadfa603eb2fdbb94bdfde2fb68",
      "blockNumber": "0x1756354e",
      "gasUsed": "0x19457",
      "effectiveGasPrice": "0x989680",
      "from": "0xee03621ce83bbf6e3931bccf35b144354f16ccf7",
      "to": "0xd50ee02f3bb2b4530c5ffb7df3284c9f2090b517",
      "contractAddress": null,
      "gasUsedForL1": "0x41d",
      "l1BlockNumber": "0x16865bd",
      "timeboosted": false
    },
    {
      "status": "0x1",
      "cumulativeGasUsed": "0x19441",
      "logs": [
        {
          "address": "0x0e9162722b305b7cb86cf58bbd7b32082c271ac3",
          "topics": [
            "0xfda678292d5444240435c9b99fcee9e8ff1fa97977e93b7d5ae4062f52cca853"
          ],
          "data": "0x00000000000000000000000000000000000000000000000000000000000000010000000000000000000000000000000000000000000000000000000005f5e1000000000000000000000000000000000000000000000000000000000068f633d70000000000000000000000000000000000000000000000000000000068f633d70000000000000000000000000000000000000000000000000000000000000001",
          "blockHash": "0x9e6b46b44c0ce3ccb5a2e05be56fed1b8663fc27f3955583111e41d97ff5428e",
          "blockNumber": "0x17563558",
          "transactionHash": "0x9663dcf7aa28c51ceacfaf559b22a14bee4ff0147a07972fa2d48c5f11257cb9",
          "transactionIndex": "0x1",
          "logIndex": "0x0",
          "removed": false
        }
      ],
      "logsBloom": "0x00000000000000000000000000000000000000000000000008000000000000000000000000000000000000000000000000000000000000000000000000000000000000000000000000000000000000000000000000000000000000000200000000000000000000000000000000000000000000000000000000000000000000000000000000000000000000000000000000000000000000000000000000000000000000000000000000000000000000000000000000000000010000000000000000000000000000000000000000010000000000000000000000000000000000000800000000000000000080000000000000000000000000000000000000000000",
      "type": "0x2",
      "transactionHash": "0x9663dcf7aa28c51ceacfaf559b22a14bee4ff0147a07972fa2d48c5f11257cb9",
      "transactionIndex": "0x1",
      "blockHash": "0x9e6b46b44c0ce3ccb5a2e05be56fed1b8663fc27f3955583111e41d97ff5428e",
      "blockNumber": "0x17563558",
      "gasUsed": "0x19441",
      "effectiveGasPrice": "0x989680",
      "from": "0xee03621ce83bbf6e3931bccf35b144354f16ccf7",
      "to": "0x0e9162722b305b7cb86cf58bbd7b32082c271ac3",
      "contractAddress": null,
      "gasUsedForL1": "0x407",
      "l1BlockNumber": "0x16865bd",
      "timeboosted": false
    },
    {
      "status": "0x1",
      "cumulativeGasUsed": "0x35e7a",
      "logs": [
        {
          "address": "0xacb7ba59d48d188fefffdb7adaddc366eda85a00",
          "topics": [
            "0xfda678292d5444240435c9b99fcee9e8ff1fa97977e93b7d5ae4062f52cca853"
          ],
          "data": "0x0000000000000000000000000000000000000000000000000000000000000001000000000000000000000000000000000000000000000000000000517da02c000000000000000000000000000000000000000000000000000000000068f633d70000000000000000000000000000000000000000000000000000000068f633d70000000000000000000000000000000000000000000000000000000000000001",
          "blockHash": "0x749d1b967aae43f9075868271d98b5d2de0ef91514c712a8e5d94759fff2d60d",
          "blockNumber": "0x1756355f",
          "transactionHash": "0x451889fab5bc622dad5e49d85a5e13c3246432d8a24033c1c1acd2f1515b6d54",
          "transactionIndex": "0x3",
          "logIndex": "0x1",
          "removed": false
        }
      ],
      "logsBloom": "0x00000000000000000000000000000000000000000000000000000000000000000000000000000000000000000000000000000000000000000000000000000000000000000000000000000000000000000000000000000000000000000200000000000000000000000000000000000000000000000000000000000000000000000000000000000000000000000000000000000000000000000000000000000000000800000002000000000000000000000000000000000000000000000000000000000000000000000000000000010800000000000000000000000000000000000000000000000000000080000000000000000000000000000000000000000000",
      "type": "0x2",
      "transactionHash": "0x451889fab5bc622dad5e49d85a5e13c3246432d8a24033c1c1acd2f1515b6d54",
      "transactionIndex": "0x3",
      "blockHash": "0x749d1b967aae43f9075868271d98b5d2de0ef91514c712a8e5d94759fff2d60d",
      "blockNumber": "0x1756355f",
      "gasUsed": "0x19463",
      "effectiveGasPrice": "0x989680",
      "from": "0xee03621ce83bbf6e3931bccf35b144354f16ccf7",
      "to": "0xacb7ba59d48d188fefffdb7adaddc366eda85a00",
      "contractAddress": null,
      "gasUsedForL1": "0x41d",
      "l1BlockNumber": "0x16865be",
      "timeboosted": false
    },
    {
      "status": "0x1",
      "cumulativeGasUsed": "0x6e014",
      "logs": [
        {
          "address": "0x2b9e978952e76cab4a52f61dcbabfa039eb9bb1f",
          "topics": [
            "0xfda678292d5444240435c9b99fcee9e8ff1fa97977e93b7d5ae4062f52cca853"
          ],
          "data": "0x0000000000000000000000000000000000000000000000000000000000000001000000000000000000000000000000000000000000000000000008a3e42018000000000000000000000000000000000000000000000000000000000068f633d70000000000000000000000000000000000000000000000000000000068f633d70000000000000000000000000000000000000000000000000000000000000001",
          "blockHash": "0x95250d0cd841ed4077c179f762d1071531761686ebf762637b67abef238e496c",
          "blockNumber": "0x17563565",
          "transactionHash": "0x34519700dab89bf244fe943da619b0c80b6b1d79dd1a3fa5d234812492bed2c9",
          "transactionIndex": "0x7",
          "logIndex": "0x4",
          "removed": false
        }
      ],
      "logsBloom": "0x00000000000000000000000000000000008000000000000000000000000000000000000000000000000000000000000000000000000000000000000000000000000000000000000000000000000000000000000000000010000000000200000000000000000000000000000000000000000000000000000000000000000000000000000000000000000000000000000000000000000000000008000000000000000000000000000000000000000000000000000000000000000000000000000000000000000000000000000000010000000000000000000000000000000000000000000000000000000080000000000000000000000000000000000000000000",
      "type": "0x2",
      "transactionHash": "0x34519700dab89bf244fe943da619b0c80b6b1d79dd1a3fa5d234812492bed2c9",
      "transactionIndex": "0x7",
      "blockHash": "0x95250d0cd841ed4077c179f762d1071531761686ebf762637b67abef238e496c",
      "blockNumber": "0x17563565",
      "gasUsed": "0x19474",
      "effectiveGasPrice": "0x989680",
      "from": "0xee03621ce83bbf6e3931bccf35b144354f16ccf7",
      "to": "0x2b9e978952e76cab4a52f61dcbabfa039eb9bb1f",
      "contractAddress": null,
      "gasUsedForL1": "0x422",
      "l1BlockNumber": "0x16865be",
      "timeboosted": false
    }
  ],
  "libraries": [],
  "pending": [],
  "returns": {},
  "timestamp": 1760965834680,
  "chain": 42161,
  "commit": "fbbea34"
}