{
  "transactions": [
    {
      "hash": "0x02d4a0adbcc60d696ae315665a6f0b2c1658b96ab0b40bb8a494b51a9f438370",
      "transactionType": "CALL",
      "contractName": null,
      "contractAddress": "0xca03a4dfe09f664890ee7b46d9af4f0b6d5f6f15",
      "function": "mint(address,uint256)",
      "arguments": [
        "0xEe03621Ce83BbF6e3931BcCf35b144354F16ccf7",
        "100000000000000000000000000"
      ],
      "transaction": {
        "from": "0xee03621ce83bbf6e3931bccf35b144354f16ccf7",
        "to": "0xca03a4dfe09f664890ee7b46d9af4f0b6d5f6f15",
        "gas": "0x1745d",
        "value": "0x0",
        "input": "0x40c10f19000000000000000000000000ee03621ce83bbf6e3931bccf35b144354f16ccf700000000000000000000000000000000000000000052b7d2dcc80cd2e4000000",
        "nonce": "0xc6",
        "chainId": "0x2105"
      },
      "additionalContracts": [],
      "isFixedGasLimit": false
    }
  ],
  "receipts": [
    {
      "status": "0x1",
      "cumulativeGasUsed": "0x562c5d",
      "logs": [
        {
          "address": "0xca03a4dfe09f664890ee7b46d9af4f0b6d5f6f15",
          "topics": [
            "0xddf252ad1be2c89b69c2b068fc378daa952ba7f163c4a11628f55a4df523b3ef",
            "0x0000000000000000000000000000000000000000000000000000000000000000",
            "0x000000000000000000000000ee03621ce83bbf6e3931bccf35b144354f16ccf7"
          ],
          "data": "0x00000000000000000000000000000000000000000052b7d2dcc80cd2e4000000",
          "blockHash": "0x5c04bb1e6466abef5840859b12ead5c52d08a717a4b8eb53590579838cbb8673",
          "blockNumber": "0x235f26c",
          "blockTimestamp": "0x68f641bb",
          "transactionHash": "0x02d4a0adbcc60d696ae315665a6f0b2c1658b96ab0b40bb8a494b51a9f438370",
          "transactionIndex": "0x36",
          "logIndex": "0x60",
          "removed": false
        }
      ],
      "logsBloom": "0x00000000000000000000000000000000000000000000000000000000000000000000000000040000000000000000000000000000000000000000000000000000000000000000000000000018040000000000000000000000000000000000000000000000020000000000000000000800000000000000000000000010000000000000000000000000000000000000000000000000000000000000000000000000000000000000000200000000000000000000000000000000000000000000000000000002000000000000000010000000000000000000000000000000000020000000000000000100000000000000000000000000000000000000000000000000",
      "type": "0x2",
      "transactionHash": "0x02d4a0adbcc60d696ae315665a6f0b2c1658b96ab0b40bb8a494b51a9f438370",
      "transactionIndex": "0x36",
      "blockHash": "0x5c04bb1e6466abef5840859b12ead5c52d08a717a4b8eb53590579838cbb8673",
      "blockNumber": "0x235f26c",
      "gasUsed": "0x10d96",
      "effectiveGasPrice": "0x7a36e8",
      "from": "0xee03621ce83bbf6e3931bccf35b144354f16ccf7",
      "to": "0xca03a4dfe09f664890ee7b46d9af4f0b6d5f6f15",
      "contractAddress": null,
      "l1BaseFeeScalar": "0x8dd",
      "l1BlobBaseFee": "0x2",
      "l1BlobBaseFeeScalar": "0x101c12",
      "l1Fee": "0x817f8dfe",
      "l1GasPrice": "0x23aba70e",
      "l1GasUsed": "0x640"
    }
  ],
  "libraries": [],
  "pending": [],
  "returns": {},
  "timestamp": 1760969147641,
  "chain": 8453,
  "commit": "403ecc4"
}