{
  "transactions": [
    {
      "hash": "0xfb7398c6def359dccb1e847a918951fdfc46169397d8361cd993ae6796f77e45",
      "transactionType": "CALL",
      "contractName": null,
      "contractAddress": "0x2d85b61280cfacb67ca97c874aeef44aab16ba63",
      "function": "mint(address,uint256)",
      "arguments": [
        "0xfd1AF2826012385a84A8E9BE8a1586293FB3980B",
        "100000000000000000000000000"
      ],
      "transaction": {
        "from": "0xee03621ce83bbf6e3931bccf35b144354f16ccf7",
        "to": "0x2d85b61280cfacb67ca97c874aeef44aab16ba63",
        "gas": "0x1829a",
        "value": "0x0",
        "input": "0x40c10f19000000000000000000000000fd1af2826012385a84a8e9be8a1586293fb3980b00000000000000000000000000000000000000000052b7d2dcc80cd2e4000000",
        "nonce": "0x131",
        "chainId": "0x2105"
      },
      "additionalContracts": [],
      "isFixedGasLimit": false
    }
  ],
  "receipts": [
    {
      "status": "0x1",
      "cumulativeGasUsed": "0xabe7cd",
      "logs": [
        {
          "address": "0x2d85b61280cfacb67ca97c874aeef44aab16ba63",
          "topics": [
            "0xddf252ad1be2c89b69c2b068fc378daa952ba7f163c4a11628f55a4df523b3ef",
            "0x0000000000000000000000000000000000000000000000000000000000000000",
            "0x000000000000000000000000fd1af2826012385a84a8e9be8a1586293fb3980b"
          ],
          "data": "0x00000000000000000000000000000000000000000052b7d2dcc80cd2e4000000",
          "blockHash": "0x06bd5c4a5189f24c83bc1a533778d4e1d75c40c3ec5b4cd7b1885312a7c82dff",
          "blockNumber": "0x237bb70",
          "blockTimestamp": "0x68f9d3c3",
          "transactionHash": "0xfb7398c6def359dccb1e847a918951fdfc46169397d8361cd993ae6796f77e45",
          "transactionIndex": "0x35",
          "logIndex": "0xda",
          "removed": false
        }
      ],
      "logsBloom": "0x00000000000000000000000000000000000000000000000000000000010000000000000000000002004000000000000000000000000000000000000000000000000000000000000000000008000100000000000000000000000000000000000000000000020000000000000000000800000000000000000000000010000000000000000000000000000000000000000000000000000000000000000000000400000000000000000000000000000000000000000000000000000000000000000000000002000000000000000000000000000000000000000000000000000020000000000000000000000000000000000000000000008000000000000000000000",
      "type": "0x2",
      "transactionHash": "0xfb7398c6def359dccb1e847a918951fdfc46169397d8361cd993ae6796f77e45",
      "transactionIndex": "0x35",
      "blockHash": "0x06bd5c4a5189f24c83bc1a533778d4e1d75c40c3ec5b4cd7b1885312a7c82dff",
      "blockNumber": "0x237bb70",
      "gasUsed": "0x117e5",
      "effectiveGasPrice": "0x5a842b",
      "from": "0xee03621ce83bbf6e3931bccf35b144354f16ccf7",
      "to": "0x2d85b61280cfacb67ca97c874aeef44aab16ba63",
      "contractAddress": null,
      "l1BaseFeeScalar": "0x8dd",
      "l1BlobBaseFee": "0x1",
      "l1BlobBaseFeeScalar": "0x101c12",
      "l1Fee": "0x1b29fcde",
      "l1GasPrice": "0x77b7cd3",
      "l1GasUsed": "0x640"
    }
  ],
  "libraries": [],
  "pending": [],
  "returns": {},
  "timestamp": 1761203137851,
  "chain": 8453,
  "commit": "0b38601"
}