{
  "transactions": [
    {
      "hash": "0x7555d4fab83eccb3d7b0964c97d4a82ec56d72d445aa58fff246e27b076e313f",
      "transactionType": "CALL",
      "contractName": null,
      "contractAddress": "0xed6cfb1d2f61f75419bab537ca1c5351b6a4c017",
      "function": "mint(address,uint256)",
      "arguments": [
        "0xfd1AF2826012385a84A8E9BE8a1586293FB3980B",
        "100000000000000"
      ],
      "transaction": {
        "from": "0xee03621ce83bbf6e3931bccf35b144354f16ccf7",
        "to": "0xed6cfb1d2f61f75419bab537ca1c5351b6a4c017",
        "gas": "0x18a10",
        "value": "0x0",
        "input": "0x40c10f19000000000000000000000000fd1af2826012385a84a8e9be8a1586293fb3980b00000000000000000000000000000000000000000000000000005af3107a4000",
        "nonce": "0xe3",
        "chainId": "0x2105"
      },
      "additionalContracts": [],
      "isFixedGasLimit": false
    }
  ],
  "receipts": [
    {
      "status": "0x1",
      "cumulativeGasUsed": "0xecf5f4",
      "logs": [
        {
          "address": "0xed6cfb1d2f61f75419bab537ca1c5351b6a4c017",
          "topics": [
            "0xddf252ad1be2c89b69c2b068fc378daa952ba7f163c4a11628f55a4df523b3ef",
            "0x0000000000000000000000000000000000000000000000000000000000000000",
            "0x000000000000000000000000fd1af2826012385a84a8e9be8a1586293fb3980b"
          ],
          "data": "0x00000000000000000000000000000000000000000000000000005af3107a4000",
          "blockHash": "0x58229b5b5f42b3b23a230cc2838265c23492fd4a11b8a7af82f6bc4ad70c4030",
          "blockNumber": "0x236babd",
          "blockTimestamp": "0x68f7d25d",
          "transactionHash": "0x7555d4fab83eccb3d7b0964c97d4a82ec56d72d445aa58fff246e27b076e313f",
          "transactionIndex": "0x5f",
          "logIndex": "0x152",
          "removed": false
        }
      ],
      "logsBloom": "0x00000000000000000000000000000000004000000000000000000000000000000000000000000000004000000200000000000000000000000000000000000000000000000000000000000008000100000000000000000000000000000000000000000000020000000000000000000800000000000000000000000010000000000000000000000000000000000000000000000000000000000000000000000000000000000000000000000000000000000000000000000000000000000000000000000082000000000000000000000000000000000000000000000000000020000000000000000000000000000000000000000000008000000000000000000000",
      "type": "0x2",
      "transactionHash": "0x7555d4fab83eccb3d7b0964c97d4a82ec56d72d445aa58fff246e27b076e313f",
      "transactionIndex": "0x5f",
      "blockHash": "0x58229b5b5f42b3b23a230cc2838265c23492fd4a11b8a7af82f6bc4ad70c4030",
      "blockNumber": "0x236babd",
      "gasUsed": "0x10d72",
      "effectiveGasPrice": "0x5ed1be",
      "from": "0xee03621ce83bbf6e3931bccf35b144354f16ccf7",
      "to": "0xed6cfb1d2f61f75419bab537ca1c5351b6a4c017",
      "contractAddress": null,
      "l1BaseFeeScalar": "0x8dd",
      "l1BlobBaseFee": "0x1",
      "l1BlobBaseFeeScalar": "0x101c12",
      "l1Fee": "0x3f56dee7",
      "l1GasPrice": "0x117269f7",
      "l1GasUsed": "0x640"
    }
  ],
  "libraries": [],
  "pending": [],
  "returns": {},
  "timestamp": 1761071713563,
  "chain": 8453,
  "commit": "0b38601"
}