{
  "transactions": [
    {
      "hash": "0xb9394f85d3dec324078a14bf209ee4eab5acb54d9e6ad035a95d9218be38f7b3",
      "transactionType": "CALL",
      "contractName": null,
      "contractAddress": "0xca03a4dfe09f664890ee7b46d9af4f0b6d5f6f15",
      "function": "mint(address,uint256)",
      "arguments": [
        "0xfd1AF2826012385a84A8E9BE8a1586293FB3980B",
        "100000000000000000000000000"
      ],
      "transaction": {
        "from": "0xee03621ce83bbf6e3931bccf35b144354f16ccf7",
        "to": "0xca03a4dfe09f664890ee7b46d9af4f0b6d5f6f15",
        "gas": "0xbbd5",
        "value": "0x0",
        "input": "0x40c10f19000000000000000000000000fd1af2826012385a84a8e9be8a1586293fb3980b00000000000000000000000000000000000000000052b7d2dcc80cd2e4000000",
        "nonce": "0xe2",
        "chainId": "0x2105"
      },
      "additionalContracts": [],
      "isFixedGasLimit": false
    }
  ],
  "receipts": [
    {
      "status": "0x1",
      "cumulativeGasUsed": "0x160ed6f",
      "logs": [
        {
          "address": "0xca03a4dfe09f664890ee7b46d9af4f0b6d5f6f15",
          "topics": [
            "0xddf252ad1be2c89b69c2b068fc378daa952ba7f163c4a11628f55a4df523b3ef",
            "0x0000000000000000000000000000000000000000000000000000000000000000",
            "0x000000000000000000000000fd1af2826012385a84a8e9be8a1586293fb3980b"
          ],
          "data": "0x00000000000000000000000000000000000000000052b7d2dcc80cd2e4000000",
          "blockHash": "0xc7fd6778b5f0a15431e459a5c047d00498211ac0130eb9ba16d74d680e007151",
          "blockNumber": "0x236ba9e",
          "blockTimestamp": "0x68f7d21f",
          "transactionHash": "0xb9394f85d3dec324078a14bf209ee4eab5acb54d9e6ad035a95d9218be38f7b3",
          "transactionIndex": "0x6d",
          "logIndex": "0x1e5",
          "removed": false
        }
      ],
      "logsBloom": "0x00000000000000000000000000000000000000000000000000000000000000000000000000040000004000000000000000000000000000000000000000000000000000000000000000000008000100000000000000000000000000000000000000000000020000000000000000000800000000000000000000000010000000000000000000000000000000000000000000000000000000000000000000000000000000000000000200000000000000000000000000000000000000000000000000000002000000000000000000000000000000000000000000000000000020000000000000000100000000000000000000000000008000000000000000000000",
      "type": "0x2",
      "transactionHash": "0xb9394f85d3dec324078a14bf209ee4eab5acb54d9e6ad035a95d9218be38f7b3",
      "transactionIndex": "0x6d",
      "blockHash": "0xc7fd6778b5f0a15431e459a5c047d00498211ac0130eb9ba16d74d680e007151",
      "blockNumber": "0x236ba9e",
      "gasUsed": "0x87fe",
      "effectiveGasPrice": "0x61c100",
      "from": "0xee03621ce83bbf6e3931bccf35b144354f16ccf7",
      "to": "0xca03a4dfe09f664890ee7b46d9af4f0b6d5f6f15",
      "contractAddress": null,
      "l1BaseFeeScalar": "0x8dd",
      "l1BlobBaseFee": "0x1",
      "l1BlobBaseFeeScalar": "0x101c12",
      "l1Fee": "0x4313edb2",
      "l1GasPrice": "0x127a0983",
      "l1GasUsed": "0x640"
    }
  ],
  "libraries": [],
  "pending": [],
  "returns": {},
  "timestamp": 1761071647749,
  "chain": 8453,
  "commit": "0b38601"
}