{
  "transactions": [
    {
      "hash": "0xd167b801e08a33697197ce5bb35da4e1defd91483c1d6908bb24e3ba38eb07ba",
      "transactionType": "CALL",
      "contractName": null,
      "contractAddress": "0x2d85b61280cfacb67ca97c874aeef44aab16ba63",
      "function": "mint(address,uint256)",
      "arguments": [
        "0xEe03621Ce83BbF6e3931BcCf35b144354F16ccf7",
        "100000000000000000000000000"
      ],
      "transaction": {
        "from": "0xee03621ce83bbf6e3931bccf35b144354f16ccf7",
        "to": "0x2d85b61280cfacb67ca97c874aeef44aab16ba63",
        "gas": "0x137a7",
        "value": "0x0",
        "input": "0x40c10f19000000000000000000000000ee03621ce83bbf6e3931bccf35b144354f16ccf700000000000000000000000000000000000000000052b7d2dcc80cd2e4000000",
        "nonce": "0x15a",
        "chainId": "0x2105"
      },
      "additionalContracts": [],
      "isFixedGasLimit": false
    }
  ],
  "receipts": [
    {
      "status": "0x1",
      "cumulativeGasUsed": "0x3096ad0",
      "logs": [
        {
          "address": "0x2d85b61280cfacb67ca97c874aeef44aab16ba63",
          "topics": [
            "0xddf252ad1be2c89b69c2b068fc378daa952ba7f163c4a11628f55a4df523b3ef",
            "0x0000000000000000000000000000000000000000000000000000000000000000",
            "0x000000000000000000000000ee03621ce83bbf6e3931bccf35b144354f16ccf7"
          ],
          "data": "0x00000000000000000000000000000000000000000052b7d2dcc80cd2e4000000",
          "blockHash": "0x69d74e8f5646a32317d401c929be1c4444da4698d76487612238edd5ddbade50",
          "blockNumber": "0x23872e3",
          "blockTimestamp": "0x68fb42a9",
          "transactionHash": "0xd167b801e08a33697197ce5bb35da4e1defd91483c1d6908bb24e3ba38eb07ba",
          "transactionIndex": "0x10e",
          "logIndex": "0x3b7",
          "removed": false
        }
      ],
      "logsBloom": "0x00000000000000000000000000000000000000000000000000000000010000000000000000000002000000000000000000000000000000000000000000000000000000000000000000000018040000000000000000000000000000000000000000000000020000000000000000000800000000000000000000000010000000000000000000000000000000000000000000000000000000000000000000000400000000000000000000000000000000000000000000000000000000000000000000000002000000000000000010000000000000000000000000000000000020000000000000000000000000000000000000000000000000000000000000000000",
      "type": "0x2",
      "transactionHash": "0xd167b801e08a33697197ce5bb35da4e1defd91483c1d6908bb24e3ba38eb07ba",
      "transactionIndex": "0x10e",
      "blockHash": "0x69d74e8f5646a32317d401c929be1c4444da4698d76487612238edd5ddbade50",
      "blockNumber": "0x23872e3",
      "gasUsed": "0xd519",
      "effectiveGasPrice": "0x16bf143",
      "from": "0xee03621ce83bbf6e3931bccf35b144354f16ccf7",
      "to": "0x2d85b61280cfacb67ca97c874aeef44aab16ba63",
      "contractAddress": null,
      "l1BaseFeeScalar": "0x8dd",
      "l1BlobBaseFee": "0x1",
      "l1BlobBaseFeeScalar": "0x101c12",
      "l1Fee": "0x2f28a2d4",
      "l1GasPrice": "0x89f725b",
      "l1GasUsed": "0x640"
    }
  ],
  "libraries": [],
  "pending": [],
  "returns": {},
  "timestamp": 1761297065058,
  "chain": 8453,
  "commit": "23fba6a"
}