{
  "transactions": [
    {
      "hash": "0x3a292cb61b77515b8f346cb69334785b8dc00734bb4b9e70d355194c71826d6c",
      "transactionType": "CALL",
      "contractName": null,
      "contractAddress": "0xca03a4dfe09f664890ee7b46d9af4f0b6d5f6f15",
      "function": "mint(address,uint256)",
      "arguments": [
        "0xfd1AF2826012385a84A8E9BE8a1586293FB3980B",
        "100000000000000000000000000"
      ],
      "transaction": {
        "from": "0xee03621ce83bbf6e3931bccf35b144354f16ccf7",
        "to": "0xca03a4dfe09f664890ee7b46d9af4f0b6d5f6f15",
        "gas": "0x12893",
        "value": "0x0",
        "input": "0x40c10f19000000000000000000000000fd1af2826012385a84a8e9be8a1586293fb3980b00000000000000000000000000000000000000000052b7d2dcc80cd2e4000000",
        "nonce": "0xd2",
        "chainId": "0x2105"
      },
      "additionalContracts": [],
      "isFixedGasLimit": false
    }
  ],
  "receipts": [
    {
      "status": "0x1",
      "cumulativeGasUsed": "0x19ee62e",
      "logs": [
        {
          "address": "0xca03a4dfe09f664890ee7b46d9af4f0b6d5f6f15",
          "topics": [
            "0xddf252ad1be2c89b69c2b068fc378daa952ba7f163c4a11628f55a4df523b3ef",
            "0x0000000000000000000000000000000000000000000000000000000000000000",
            "0x000000000000000000000000fd1af2826012385a84a8e9be8a1586293fb3980b"
          ],
          "data": "0x00000000000000000000000000000000000000000052b7d2dcc80cd2e4000000",
          "blockHash": "0xfc3b2ed466aa258f70ec08b39d9e859efda96c9c695916b00b12f8fb2a99f0c0",
          "blockNumber": "0x235f305",
          "blockTimestamp": "0x68f642ed",
          "transactionHash": "0x3a292cb61b77515b8f346cb69334785b8dc00734bb4b9e70d355194c71826d6c",
          "transactionIndex": "0x93",
          "logIndex": "0x18c",
          "removed": false
        }
      ],
      "logsBloom": "0x00000000000000000000000000000000000000000000000000000000000000000000000000040000004000000000000000000000000000000000000000000000000000000000000000000008000100000000000000000000000000000000000000000000020000000000000000000800000000000000000000000010000000000000000000000000000000000000000000000000000000000000000000000000000000000000000200000000000000000000000000000000000000000000000000000002000000000000000000000000000000000000000000000000000020000000000000000100000000000000000000000000008000000000000000000000",
      "type": "0x2",
      "transactionHash": "0x3a292cb61b77515b8f346cb69334785b8dc00734bb4b9e70d355194c71826d6c",
      "transactionIndex": "0x93",
      "blockHash": "0xfc3b2ed466aa258f70ec08b39d9e859efda96c9c695916b00b12f8fb2a99f0c0",
      "blockNumber": "0x235f305",
      "gasUsed": "0xcaca",
      "effectiveGasPrice": "0x4ed22c",
      "from": "0xee03621ce83bbf6e3931bccf35b144354f16ccf7",
      "to": "0xca03a4dfe09f664890ee7b46d9af4f0b6d5f6f15",
      "contractAddress": null,
      "l1BaseFeeScalar": "0x8dd",
      "l1BlobBaseFee": "0x3",
      "l1BlobBaseFeeScalar": "0x101c12",
      "l1Fee": "0x95b8ab17",
      "l1GasPrice": "0x293db274",
      "l1GasUsed": "0x640"
    }
  ],
  "libraries": [],
  "pending": [],
  "returns": {},
  "timestamp": 1760969454792,
  "chain": 8453,
  "commit": "403ecc4"
}