{
  "transactions": [
    {
      "hash": "0x928fef86a529c915a30205fb134db6bc9b341ed70edd6a7e94f363832b7ef6c3",
      "transactionType": "CALL",
      "contractName": null,
      "contractAddress": "0x99d19f4cb938e0aad646358c20cb9d0ce0a7a945",
      "function": "approve(address,uint256)",
      "arguments": [
        "0x7FB63D9Faf99A34bCA04EFd5BA7F75dC6DB37f4D",
        "10000000000000000000000"
      ],
      "transaction": {
        "from": "0xee03621ce83bbf6e3931bccf35b144354f16ccf7",
        "to": "0x99d19f4cb938e0aad646358c20cb9d0ce0a7a945",
        "gas": "0xf553",
        "value": "0x0",
        "input": "0x095ea7b30000000000000000000000007fb63d9faf99a34bca04efd5ba7f75dc6db37f4d00000000000000000000000000000000000000000000021e19e0c9bab2400000",
        "nonce": "0x100",
        "chainId": "0xa4b1"
      },
      "additionalContracts": [],
      "isFixedGasLimit": false
    },
    {
      "hash": "0x822a7e7addc116480f8c8d2c7978b38c85151716749f11077a34b368ebaf5866",
      "transactionType": "CALL",
      "contractName": null,
      "contractAddress": "0x7fb63d9faf99a34bca04efd5ba7f75dc6db37f4d",
      "function": "supplyLiquidity(address,address,uint256)",
      "arguments": [
        "0xEe03621Ce83BbF6e3931BcCf35b144354F16ccf7",
        "0x99d19F4Cb938E0aAD646358c20cB9D0CE0A7a945",
        "10000000000000000000000"
      ],
      "transaction": {
        "from": "0xee03621ce83bbf6e3931bccf35b144354f16ccf7",
        "to": "0x7fb63d9faf99a34bca04efd5ba7f75dc6db37f4d",
        "gas": "0x3d0a6",
        "value": "0x0",
        "input": "0xbf38fd2b000000000000000000000000ee03621ce83bbf6e3931bccf35b144354f16ccf700000000000000000000000099d19f4cb938e0aad646358c20cb9d0ce0a7a94500000000000000000000000000000000000000000000021e19e0c9bab2400000",
        "nonce": "0x101",
        "chainId": "0xa4b1"
      },
      "additionalContracts": [],
      "isFixedGasLimit": false
    }
  ],
  "receipts": [
    {
      "status": "0x1",
      "cumulativeGasUsed": "0x40be7a",
      "logs": [
        {
          "address": "0x99d19f4cb938e0aad646358c20cb9d0ce0a7a945",
          "topics": [
            "0x8c5be1e5ebec7d5bd14f71427d1e84f3dd0314c0f7b2291e5b200ac8c7c3b925",
            "0x000000000000000000000000ee03621ce83bbf6e3931bccf35b144354f16ccf7",
            "0x0000000000000000000000007fb63d9faf99a34bca04efd5ba7f75dc6db37f4d"
          ],
          "data": "0x00000000000000000000000000000000000000000000021e19e0c9bab2400000",
          "blockHash": "0x2609c6fe549268402fa4a9f61ab14b6ab3a3a94272458c65eb2205ec99063557",
          "blockNumber": "0x176b73d3",
          "transactionHash": "0x928fef86a529c915a30205fb134db6bc9b341ed70edd6a7e94f363832b7ef6c3",
          "transactionIndex": "0x3",
          "logIndex": "0x32",
          "removed": false
        }
      ],
      "logsBloom": "0x00000000000000000000000000000000000000000000000000000000000000000000000000000000000000000000000000000000000000000000000000200000000000000000000000000018040000000000000000000000020000000000000000000000000000000000000000000000000000000000000000000000000000000000000000000000000004000000000000040000000000000000000000000000020000000000000080000000000000000000000000000000000000000000000000000000000000000000000010000000000000000000000000000000000000000010000200000000000000000000000000000000000000000000000000000000",
      "type": "0x2",
      "transactionHash": "0x928fef86a529c915a30205fb134db6bc9b341ed70edd6a7e94f363832b7ef6c3",
      "transactionIndex": "0x3",
      "blockHash": "0x2609c6fe549268402fa4a9f61ab14b6ab3a3a94272458c65eb2205ec99063557",
      "blockNumber": "0x176b73d3",
      "gasUsed": "0xba0e",
      "effectiveGasPrice": "0x18557e0",
      "from": "0xee03621ce83bbf6e3931bccf35b144354f16ccf7",
      "to": "0x99d19f4cb938e0aad646358c20cb9d0ce0a7a945",
      "contractAddress": null,
      "gasUsedForL1": "0x28f",
      "l1BlockNumber": "0x168d5d3",
      "timeboosted": false
    },
    {
      "status": "0x1",
      "cumulativeGasUsed": "0x5e526",
      "logs": [
        {
          "address": "0x99d19f4cb938e0aad646358c20cb9d0ce0a7a945",
          "topics": [
            "0xddf252ad1be2c89b69c2b068fc378daa952ba7f163c4a11628f55a4df523b3ef",
            "0x000000000000000000000000ee03621ce83bbf6e3931bccf35b144354f16ccf7",
            "0x0000000000000000000000007fb63d9faf99a34bca04efd5ba7f75dc6db37f4d"
          ],
          "data": "0x00000000000000000000000000000000000000000000021e19e0c9bab2400000",
          "blockHash": "0x08c9a5e6a0e09794038d5307dcdaef6c79e365d7cddf0155fa1f261ad43553ad",
          "blockNumber": "0x176b73d9",
          "transactionHash": "0x822a7e7addc116480f8c8d2c7978b38c85151716749f11077a34b368ebaf5866",
          "transactionIndex": "0x4",
          "logIndex": "0x3",
          "removed": false
        },
        {
          "address": "0x7fb63d9faf99a34bca04efd5ba7f75dc6db37f4d",
          "topics": [
            "0x15b46e689142c33450e6dd5c40d81be75acc0ef4a8c3a956621380c49470c98c",
            "0x000000000000000000000000ee03621ce83bbf6e3931bccf35b144354f16ccf7",
            "0x00000000000000000000000099d19f4cb938e0aad646358c20cb9d0ce0a7a945"
          ],
          "data": "0x00000000000000000000000000000000000000000000021e19e0c9bab2400000",
          "blockHash": "0x08c9a5e6a0e09794038d5307dcdaef6c79e365d7cddf0155fa1f261ad43553ad",
          "blockNumber": "0x176b73d9",
          "transactionHash": "0x822a7e7addc116480f8c8d2c7978b38c85151716749f11077a34b368ebaf5866",
          "transactionIndex": "0x4",
          "logIndex": "0x4",
          "removed": false
        }
      ],
      "logsBloom": "0x00000000000000000000000000000000000000000000000000000000000000000000000000000000000000000000000000000000000000400000000000000000040000000000000000000018040000000000000000000000060000200000020000000000000000000000000000000000000000000000000000000010000000000800000000000000000004000000000000040000000000000004000000000000000000000000000080000000000000000000000000000000000000000000000000000002000000000000000010000000100000000000000000004000000000000000000200000000000000000000000000000000000000000000000000000000",
      "type": "0x2",
      "transactionHash": "0x822a7e7addc116480f8c8d2c7978b38c85151716749f11077a34b368ebaf5866",
      "transactionIndex": "0x4",
      "blockHash": "0x08c9a5e6a0e09794038d5307dcdaef6c79e365d7cddf0155fa1f261ad43553ad",
      "blockNumber": "0x176b73d9",
      "gasUsed": "0x2c622",
      "effectiveGasPrice": "0x1818368",
      "from": "0xee03621ce83bbf6e3931bccf35b144354f16ccf7",
      "to": "0x7fb63d9faf99a34bca04efd5ba7f75dc6db37f4d",
      "contractAddress": null,
      "gasUsedForL1": "0x30e",
      "l1BlockNumber": "0x168d5d3",
      "timeboosted": false
    }
  ],
  "libraries": [],
  "pending": [],
  "returns": {},
  "timestamp": 1761313432357,
  "chain": 42161,
  "commit": "23fba6a"
}