{
  "transactions": [
    {
      "hash": "0x80e9041b05417fe93121aa685fabf98528e8153cc5fec1f0626a21f0ba25eaea",
      "transactionType": "CALL",
      "contractName": null,
      "contractAddress": "0xc23e60ac84240ffce72680652515dfb1435c356b",
      "function": "approve(address,uint256)",
      "arguments": [
        "0x7FB63D9Faf99A34bCA04EFd5BA7F75dC6DB37f4D",
        "10000000000"
      ],
      "transaction": {
        "from": "0xee03621ce83bbf6e3931bccf35b144354f16ccf7",
        "to": "0xc23e60ac84240ffce72680652515dfb1435c356b",
        "gas": "0xf4fa",
        "value": "0x0",
        "input": "0x095ea7b30000000000000000000000007fb63d9faf99a34bca04efd5ba7f75dc6db37f4d00000000000000000000000000000000000000000000000000000002540be400",
        "nonce": "0x4b",
        "chainId": "0xa4b1"
      },
      "additionalContracts": [],
      "isFixedGasLimit": false
    },
    {
      "hash": "0xe30c40f2a046f2927dfa957048b98b63c650b60a345a851e032a2fc0a283cbee",
      "transactionType": "CALL",
      "contractName": null,
      "contractAddress": "0x7fb63d9faf99a34bca04efd5ba7f75dc6db37f4d",
      "function": "supplyLiquidity(address,address,uint256)",
      "arguments": [
        "0xEe03621Ce83BbF6e3931BcCf35b144354F16ccf7",
        "0xC23e60Ac84240ffCe72680652515dfb1435C356b",
        "10000000000"
      ],
      "transaction": {
        "from": "0xee03621ce83bbf6e3931bccf35b144354f16ccf7",
        "to": "0x7fb63d9faf99a34bca04efd5ba7f75dc6db37f4d",
        "gas": "0x3df7f",
        "value": "0x0",
        "input": "0xbf38fd2b000000000000000000000000ee03621ce83bbf6e3931bccf35b144354f16ccf7000000000000000000000000c23e60ac84240ffce72680652515dfb1435c356b00000000000000000000000000000000000000000000000000000002540be400",
        "nonce": "0x4c",
        "chainId": "0xa4b1"
      },
      "additionalContracts": [],
      "isFixedGasLimit": false
    }
  ],
  "receipts": [
    {
      "status": "0x1",
      "cumulativeGasUsed": "0x576d3",
      "logs": [
        {
          "address": "0xc23e60ac84240ffce72680652515dfb1435c356b",
          "topics": [
            "0x8c5be1e5ebec7d5bd14f71427d1e84f3dd0314c0f7b2291e5b200ac8c7c3b925",
            "0x000000000000000000000000ee03621ce83bbf6e3931bccf35b144354f16ccf7",
            "0x0000000000000000000000007fb63d9faf99a34bca04efd5ba7f75dc6db37f4d"
          ],
          "data": "0x00000000000000000000000000000000000000000000000000000002540be400",
          "blockHash": "0x3f444bbf2560524f99efc966cfd4831c37890226edf5489e5786958f434cac5b",
          "blockNumber": "0x174b2661",
          "transactionHash": "0x80e9041b05417fe93121aa685fabf98528e8153cc5fec1f0626a21f0ba25eaea",
          "transactionIndex": "0x3",
          "logIndex": "0x9",
          "removed": false
        }
      ],
      "logsBloom": "0x00000000000000000000000000000000000000000000000000000000000000000000000000000000000000000000000000000000000000000000000000200000000000000000000000000010040000000000000000000000000000000000000000000000000000000000000000000000000000000000000000000000000000000000000000000000000004000000040000000000000000000000000000000000020000000000000080000000000000000000000000000000000200000000000000000000000000000000000010000000000000000000000000000000000000000010000200000080000000000000000000000000000000000000000000000000",
      "type": "0x2",
      "transactionHash": "0x80e9041b05417fe93121aa685fabf98528e8153cc5fec1f0626a21f0ba25eaea",
      "transactionIndex": "0x3",
      "blockHash": "0x3f444bbf2560524f99efc966cfd4831c37890226edf5489e5786958f434cac5b",
      "blockNumber": "0x174b2661",
      "gasUsed": "0xba34",
      "effectiveGasPrice": "0x989680",
      "from": "0xee03621ce83bbf6e3931bccf35b144354f16ccf7",
      "to": "0xc23e60ac84240ffce72680652515dfb1435c356b",
      "contractAddress": null,
      "gasUsedForL1": "0x2e5",
      "l1BlockNumber": "0x1682b3c",
      "timeboosted": false
    },
    {
      "status": "0x1",
      "cumulativeGasUsed": "0x3943f",
      "logs": [
        {
          "address": "0xc23e60ac84240ffce72680652515dfb1435c356b",
          "topics": [
            "0xddf252ad1be2c89b69c2b068fc378daa952ba7f163c4a11628f55a4df523b3ef",
            "0x000000000000000000000000ee03621ce83bbf6e3931bccf35b144354f16ccf7",
            "0x0000000000000000000000007fb63d9faf99a34bca04efd5ba7f75dc6db37f4d"
          ],
          "data": "0x00000000000000000000000000000000000000000000000000000002540be400",
          "blockHash": "0xa079bd7a4ea329f8a43c0c755bc1d6b71a79ef0d857e2af4505c0542c5e5a03c",
          "blockNumber": "0x174b2668",
          "transactionHash": "0xe30c40f2a046f2927dfa957048b98b63c650b60a345a851e032a2fc0a283cbee",
          "transactionIndex": "0x2",
          "logIndex": "0x0",
          "removed": false
        },
        {
          "address": "0x7fb63d9faf99a34bca04efd5ba7f75dc6db37f4d",
          "topics": [
            "0x15b46e689142c33450e6dd5c40d81be75acc0ef4a8c3a956621380c49470c98c",
            "0x000000000000000000000000ee03621ce83bbf6e3931bccf35b144354f16ccf7",
            "0x000000000000000000000000c23e60ac84240ffce72680652515dfb1435c356b"
          ],
          "data": "0x00000000000000000000000000000000000000000000000000000002540be400",
          "blockHash": "0xa079bd7a4ea329f8a43c0c755bc1d6b71a79ef0d857e2af4505c0542c5e5a03c",
          "blockNumber": "0x174b2668",
          "transactionHash": "0xe30c40f2a046f2927dfa957048b98b63c650b60a345a851e032a2fc0a283cbee",
          "transactionIndex": "0x2",
          "logIndex": "0x1",
          "removed": false
        }
      ],
      "logsBloom": "0x00000000000000000000000000000000000000000000000000000000000000000000000000000000000000000000000000000000000000400000000002000000040100000000000000000018040000000000000000000000040000200000020000000000000000000000000000000000000000000000000000000010000000000000000000000000000004000000040000000000000000000004000000000000000000000000000080000000000000000000000000000000001200000000000000000002000000000000000010000000000000000000000000000000000000000000000200000080000000000000000000000000000000000000000000000000",
      "type": "0x2",
      "transactionHash": "0xe30c40f2a046f2927dfa957048b98b63c650b60a345a851e032a2fc0a283cbee",
      "transactionIndex": "0x2",
      "blockHash": "0xa079bd7a4ea329f8a43c0c755bc1d6b71a79ef0d857e2af4505c0542c5e5a03c",
      "blockNumber": "0x174b2668",
      "gasUsed": "0x2d141",
      "effectiveGasPrice": "0x989680",
      "from": "0xee03621ce83bbf6e3931bccf35b144354f16ccf7",
      "to": "0x7fb63d9faf99a34bca04efd5ba7f75dc6db37f4d",
      "contractAddress": null,
      "gasUsedForL1": "0x36d",
      "l1BlockNumber": "0x1682b3c",
      "timeboosted": false
    }
  ],
  "libraries": [],
  "pending": [],
  "returns": {},
  "timestamp": 1760784390639,
  "chain": 42161,
  "commit": "aaddbdd"
}