{
  "transactions": [
    {
      "hash": "0x703a7c7305a728dbb6ebc360419df6f4cec58319a45a487e6198bb06ebd21bb8",
      "transactionType": "CREATE",
      "contractName": "Pricefeed",
      "contractAddress": "0x7b7a330edc927cd77b41c198ac4fe25a6b5c2c3b",
      "function": null,
      "arguments": [
        "0xca03A4dFE09f664890ee7B46D9Af4F0B6d5f6f15"
      ],
      "transaction": {
        "from": "0xee03621ce83bbf6e3931bccf35b144354f16ccf7",
        "gas": "0xc8eda",
        "value": "0x0",
        "input": "0x608060405260085f60146101000a81548160ff021916908360ff16021790555034801561002a575f5ffd5b50604051610d0c380380610d0c833981810160405281019061004c9190610351565b335f73ffffffffffffffffffffffffffffffffffffffff168173ffffffffffffffffffffffffffffffffffffffff16036100bd575f6040517f1e4fbdf70000000000000000000000000000000000000000000000000000000081526004016100b4919061038b565b60405180910390fd5b6100cc816100e260201b60201c565b506100dc816101a360201b60201c565b506103a4565b5f5f5f9054906101000a900473ffffffffffffffffffffffffffffffffffffffff169050815f5f6101000a81548173ffffffffffffffffffffffffffffffffffffffff021916908373ffffffffffffffffffffffffffffffffffffffff1602179055508173ffffffffffffffffffffffffffffffffffffffff168173ffffffffffffffffffffffffffffffffffffffff167f8be0079c531659141344cd1fd0a4f28419497f9722a3daafe3b4186f6b6457e060405160405180910390a35050565b6101b161022c60201b60201c565b806004600a6101000a81548173ffffffffffffffffffffffffffffffffffffffff021916908373ffffffffffffffffffffffffffffffffffffffff1602179055507fa07c91c183e42229e705a9795a1c06d76528b673788b849597364528c96eefb781604051610221919061038b565b60405180910390a150565b61023a6102c560201b60201c565b73ffffffffffffffffffffffffffffffffffffffff1661025e6102cc60201b60201c565b73ffffffffffffffffffffffffffffffffffffffff16146102c3576102876102c560201b60201c565b6040517f118cdaa70000000000000000000000000000000000000000000000000000000081526004016102ba919061038b565b60405180910390fd5b565b5f33905090565b5f5f5f9054906101000a900473ffffffffffffffffffffffffffffffffffffffff16905090565b5f5ffd5b5f73ffffffffffffffffffffffffffffffffffffffff82169050919050565b5f610320826102f7565b9050919050565b61033081610316565b811461033a575f5ffd5b50565b5f8151905061034b81610327565b92915050565b5f60208284031215610366576103656102f3565b5b5f6103738482850161033d565b91505092915050565b61038581610316565b82525050565b5f60208201905061039e5f83018461037c565b92915050565b61095b806103b15f395ff3fe608060405234801561000f575f5ffd5b50600436106100cd575f3560e01c80637b2aab031161008a578063f21f537d11610064578063f21f537d146101c7578063f2fde38b146101e5578063fc0c546a14610201578063feaf968c1461021f576100cd565b80637b2aab031461016d5780638da5cb5b1461018b578063c22c2499146101a9576100cd565b8063144fa6d7146100d1578063313ce567146100ed5780633bd1c1f71461010b5780633efe1f6414610129578063467f1ee414610147578063715018a614610163575b5f5ffd5b6100eb60048036038101906100e691906106b9565b610241565b005b6100f56102c4565b60405161010291906106ff565b60405180910390f35b6101136102d6565b6040516101209190610730565b60405180910390f35b6101316102dc565b60405161013e919061076d565b60405180910390f35b610161600480360381019061015c919061080d565b6102f7565b005b61016b6103b2565b005b6101756103c5565b6040516101829190610893565b60405180910390f35b6101936103cb565b6040516101a091906108bb565b60405180910390f35b6101b16103f2565b6040516101be919061076d565b60405180910390f35b6101cf61040d565b6040516101dc9190610893565b60405180910390f35b6101ff60048036038101906101fa91906106b9565b610413565b005b610209610497565b60405161021691906108bb565b60405180910390f35b6102276104bd565b6040516102389594939291906108d4565b60405180910390f35b61024961050c565b806004600a6101000a81548173ffffffffffffffffffffffffffffffffffffffff021916908373ffffffffffffffffffffffffffffffffffffffff1602179055507fa07c91c183e42229e705a9795a1c06d76528b673788b849597364528c96eefb7816040516102b991906108bb565b60405180910390a150565b5f60149054906101000a900460ff1681565b60015481565b5f60159054906101000a900469ffffffffffffffffffff1681565b6102ff61050c565b845f60156101000a81548169ffffffffffffffffffff021916908369ffffffffffffffffffff1602179055508360018190555082600281905550816003819055508060045f6101000a81548169ffffffffffffffffffff021916908369ffffffffffffffffffff1602179055507ffda678292d5444240435c9b99fcee9e8ff1fa97977e93b7d5ae4062f52cca85385858585856040516103a39594939291906108d4565b60405180910390a15050505050565b6103ba61050c565b6103c35f610593565b565b60035481565b5f5f5f9054906101000a900473ffffffffffffffffffffffffffffffffffffffff16905090565b60045f9054906101000a900469ffffffffffffffffffff1681565b60025481565b61041b61050c565b5f73ffffffffffffffffffffffffffffffffffffffff168173ffffffffffffffffffffffffffffffffffffffff160361048b575f6040517f1e4fbdf700000000000000000000000000000000000000000000000000000000815260040161048291906108bb565b60405180910390fd5b61049481610593565b50565b6004600a9054906101000a900473ffffffffffffffffffffffffffffffffffffffff1681565b5f5f5f5f5f5f60159054906101000a900469ffffffffffffffffffff1660015460025460035460045f9054906101000a900469ffffffffffffffffffff16945094509450945094509091929394565b610514610654565b73ffffffffffffffffffffffffffffffffffffffff166105326103cb565b73ffffffffffffffffffffffffffffffffffffffff161461059157610555610654565b6040517f118cdaa700000000000000000000000000000000000000000000000000000000815260040161058891906108bb565b60405180910390fd5b565b5f5f5f9054906101000a900473ffffffffffffffffffffffffffffffffffffffff169050815f5f6101000a81548173ffffffffffffffffffffffffffffffffffffffff021916908373ffffffffffffffffffffffffffffffffffffffff1602179055508173ffffffffffffffffffffffffffffffffffffffff168173ffffffffffffffffffffffffffffffffffffffff167f8be0079c531659141344cd1fd0a4f28419497f9722a3daafe3b4186f6b6457e060405160405180910390a35050565b5f33905090565b5f5ffd5b5f73ffffffffffffffffffffffffffffffffffffffff82169050919050565b5f6106888261065f565b9050919050565b6106988161067e565b81146106a2575f5ffd5b50565b5f813590506106b38161068f565b92915050565b5f602082840312156106ce576106cd61065b565b5b5f6106db848285016106a5565b91505092915050565b5f60ff82169050919050565b6106f9816106e4565b82525050565b5f6020820190506107125f8301846106f0565b92915050565b5f819050919050565b61072a81610718565b82525050565b5f6020820190506107435f830184610721565b92915050565b5f69ffffffffffffffffffff82169050919050565b61076781610749565b82525050565b5f6020820190506107805f83018461075e565b92915050565b61078f81610749565b8114610799575f5ffd5b50565b5f813590506107aa81610786565b92915050565b6107b981610718565b81146107c3575f5ffd5b50565b5f813590506107d4816107b0565b92915050565b5f819050919050565b6107ec816107da565b81146107f6575f5ffd5b50565b5f81359050610807816107e3565b92915050565b5f5f5f5f5f60a086880312156108265761082561065b565b5b5f6108338882890161079c565b9550506020610844888289016107c6565b9450506040610855888289016107f9565b9350506060610866888289016107f9565b92505060806108778882890161079c565b9150509295509295909350565b61088d816107da565b82525050565b5f6020820190506108a65f830184610884565b92915050565b6108b58161067e565b82525050565b5f6020820190506108ce5f8301846108ac565b92915050565b5f60a0820190506108e75f83018861075e565b6108f46020830187610721565b6109016040830186610884565b61090e6060830185610884565b61091b608083018461075e565b969550505050505056fea26469706673582212208282f448f1236fa1915358c85b22d9c920c791f0a96b77f8cb4673715a40906864736f6c634300081e0033000000000000000000000000ca03a4dfe09f664890ee7b46d9af4f0b6d5f6f15",
        "nonce": "0xae",
        "chainId": "0x2105"
      },
      "additionalContracts": [],
      "isFixedGasLimit": false
    },
    {
      "hash": "0x7a4edce76e4c930d069e3c82b0ade33149f53fb957ee8c5a74d999722a23c087",
      "transactionType": "CREATE",
      "contractName": "Pricefeed",
      "contractAddress": "0xeda712e6d5f0c989e9bdeeb8dadb2f4b4f54acc5",
      "function": null,
      "arguments": [
        "0xED6Cfb1D2F61F75419BaB537Ca1C5351B6a4c017"
      ],
      "transaction": {
        "from": "0xee03621ce83bbf6e3931bccf35b144354f16ccf7",
        "gas": "0xc8eda",
        "value": "0x0",
        "input": "0x608060405260085f60146101000a81548160ff021916908360ff16021790555034801561002a575f5ffd5b50604051610d0c380380610d0c833981810160405281019061004c9190610351565b335f73ffffffffffffffffffffffffffffffffffffffff168173ffffffffffffffffffffffffffffffffffffffff16036100bd575f6040517f1e4fbdf70000000000000000000000000000000000000000000000000000000081526004016100b4919061038b565b60405180910390fd5b6100cc816100e260201b60201c565b506100dc816101a360201b60201c565b506103a4565b5f5f5f9054906101000a900473ffffffffffffffffffffffffffffffffffffffff169050815f5f6101000a81548173ffffffffffffffffffffffffffffffffffffffff021916908373ffffffffffffffffffffffffffffffffffffffff1602179055508173ffffffffffffffffffffffffffffffffffffffff168173ffffffffffffffffffffffffffffffffffffffff167f8be0079c531659141344cd1fd0a4f28419497f9722a3daafe3b4186f6b6457e060405160405180910390a35050565b6101b161022c60201b60201c565b806004600a6101000a81548173ffffffffffffffffffffffffffffffffffffffff021916908373ffffffffffffffffffffffffffffffffffffffff1602179055507fa07c91c183e42229e705a9795a1c06d76528b673788b849597364528c96eefb781604051610221919061038b565b60405180910390a150565b61023a6102c560201b60201c565b73ffffffffffffffffffffffffffffffffffffffff1661025e6102cc60201b60201c565b73ffffffffffffffffffffffffffffffffffffffff16146102c3576102876102c560201b60201c565b6040517f118cdaa70000000000000000000000000000000000000000000000000000000081526004016102ba919061038b565b60405180910390fd5b565b5f33905090565b5f5f5f9054906101000a900473ffffffffffffffffffffffffffffffffffffffff16905090565b5f5ffd5b5f73ffffffffffffffffffffffffffffffffffffffff82169050919050565b5f610320826102f7565b9050919050565b61033081610316565b811461033a575f5ffd5b50565b5f8151905061034b81610327565b92915050565b5f60208284031215610366576103656102f3565b5b5f6103738482850161033d565b91505092915050565b61038581610316565b82525050565b5f60208201905061039e5f83018461037c565b92915050565b61095b806103b15f395ff3fe608060405234801561000f575f5ffd5b50600436106100cd575f3560e01c80637b2aab031161008a578063f21f537d11610064578063f21f537d146101c7578063f2fde38b146101e5578063fc0c546a14610201578063feaf968c1461021f576100cd565b80637b2aab031461016d5780638da5cb5b1461018b578063c22c2499146101a9576100cd565b8063144fa6d7146100d1578063313ce567146100ed5780633bd1c1f71461010b5780633efe1f6414610129578063467f1ee414610147578063715018a614610163575b5f5ffd5b6100eb60048036038101906100e691906106b9565b610241565b005b6100f56102c4565b60405161010291906106ff565b60405180910390f35b6101136102d6565b6040516101209190610730565b60405180910390f35b6101316102dc565b60405161013e919061076d565b60405180910390f35b610161600480360381019061015c919061080d565b6102f7565b005b61016b6103b2565b005b6101756103c5565b6040516101829190610893565b60405180910390f35b6101936103cb565b6040516101a091906108bb565b60405180910390f35b6101b16103f2565b6040516101be919061076d565b60405180910390f35b6101cf61040d565b6040516101dc9190610893565b60405180910390f35b6101ff60048036038101906101fa91906106b9565b610413565b005b610209610497565b60405161021691906108bb565b60405180910390f35b6102276104bd565b6040516102389594939291906108d4565b60405180910390f35b61024961050c565b806004600a6101000a81548173ffffffffffffffffffffffffffffffffffffffff021916908373ffffffffffffffffffffffffffffffffffffffff1602179055507fa07c91c183e42229e705a9795a1c06d76528b673788b849597364528c96eefb7816040516102b991906108bb565b60405180910390a150565b5f60149054906101000a900460ff1681565b60015481565b5f60159054906101000a900469ffffffffffffffffffff1681565b6102ff61050c565b845f60156101000a81548169ffffffffffffffffffff021916908369ffffffffffffffffffff1602179055508360018190555082600281905550816003819055508060045f6101000a81548169ffffffffffffffffffff021916908369ffffffffffffffffffff1602179055507ffda678292d5444240435c9b99fcee9e8ff1fa97977e93b7d5ae4062f52cca85385858585856040516103a39594939291906108d4565b60405180910390a15050505050565b6103ba61050c565b6103c35f610593565b565b60035481565b5f5f5f9054906101000a900473ffffffffffffffffffffffffffffffffffffffff16905090565b60045f9054906101000a900469ffffffffffffffffffff1681565b60025481565b61041b61050c565b5f73ffffffffffffffffffffffffffffffffffffffff168173ffffffffffffffffffffffffffffffffffffffff160361048b575f6040517f1e4fbdf700000000000000000000000000000000000000000000000000000000815260040161048291906108bb565b60405180910390fd5b61049481610593565b50565b6004600a9054906101000a900473ffffffffffffffffffffffffffffffffffffffff1681565b5f5f5f5f5f5f60159054906101000a900469ffffffffffffffffffff1660015460025460035460045f9054906101000a900469ffffffffffffffffffff16945094509450945094509091929394565b610514610654565b73ffffffffffffffffffffffffffffffffffffffff166105326103cb565b73ffffffffffffffffffffffffffffffffffffffff161461059157610555610654565b6040517f118cdaa700000000000000000000000000000000000000000000000000000000815260040161058891906108bb565b60405180910390fd5b565b5f5f5f9054906101000a900473ffffffffffffffffffffffffffffffffffffffff169050815f5f6101000a81548173ffffffffffffffffffffffffffffffffffffffff021916908373ffffffffffffffffffffffffffffffffffffffff1602179055508173ffffffffffffffffffffffffffffffffffffffff168173ffffffffffffffffffffffffffffffffffffffff167f8be0079c531659141344cd1fd0a4f28419497f9722a3daafe3b4186f6b6457e060405160405180910390a35050565b5f33905090565b5f5ffd5b5f73ffffffffffffffffffffffffffffffffffffffff82169050919050565b5f6106888261065f565b9050919050565b6106988161067e565b81146106a2575f5ffd5b50565b5f813590506106b38161068f565b92915050565b5f602082840312156106ce576106cd61065b565b5b5f6106db848285016106a5565b91505092915050565b5f60ff82169050919050565b6106f9816106e4565b82525050565b5f6020820190506107125f8301846106f0565b92915050565b5f819050919050565b61072a81610718565b82525050565b5f6020820190506107435f830184610721565b92915050565b5f69ffffffffffffffffffff82169050919050565b61076781610749565b82525050565b5f6020820190506107805f83018461075e565b92915050565b61078f81610749565b8114610799575f5ffd5b50565b5f813590506107aa81610786565b92915050565b6107b981610718565b81146107c3575f5ffd5b50565b5f813590506107d4816107b0565b92915050565b5f819050919050565b6107ec816107da565b81146107f6575f5ffd5b50565b5f81359050610807816107e3565b92915050565b5f5f5f5f5f60a086880312156108265761082561065b565b5b5f6108338882890161079c565b9550506020610844888289016107c6565b9450506040610855888289016107f9565b9350506060610866888289016107f9565b92505060806108778882890161079c565b9150509295509295909350565b61088d816107da565b82525050565b5f6020820190506108a65f830184610884565b92915050565b6108b58161067e565b82525050565b5f6020820190506108ce5f8301846108ac565b92915050565b5f60a0820190506108e75f83018861075e565b6108f46020830187610721565b6109016040830186610884565b61090e6060830185610884565b61091b608083018461075e565b969550505050505056fea26469706673582212208282f448f1236fa1915358c85b22d9c920c791f0a96b77f8cb4673715a40906864736f6c634300081e0033000000000000000000000000ed6cfb1d2f61f75419bab537ca1c5351b6a4c017",
        "nonce": "0xaf",
        "chainId": "0x2105"
      },
      "additionalContracts": [],
      "isFixedGasLimit": false
    },
    {
      "hash": "0xe5bb4459b332c7e33b588e6c0baa89b4dcf855cf9c956410b06117892a042fb9",
      "transactionType": "CREATE",
      "contractName": "Pricefeed",
      "contractAddress": "0x43db7ff630c993f080f315007961756f2b96fa45",
      "function": null,
      "arguments": [
        "0xD773084B8Cd424AD87D35bE6901255feE285A763"
      ],
      "transaction": {
        "from": "0xee03621ce83bbf6e3931bccf35b144354f16ccf7",
        "gas": "0xc8eda",
        "value": "0x0",
        "input": "0x608060405260085f60146101000a81548160ff021916908360ff16021790555034801561002a575f5ffd5b50604051610d0c380380610d0c833981810160405281019061004c9190610351565b335f73ffffffffffffffffffffffffffffffffffffffff168173ffffffffffffffffffffffffffffffffffffffff16036100bd575f6040517f1e4fbdf70000000000000000000000000000000000000000000000000000000081526004016100b4919061038b565b60405180910390fd5b6100cc816100e260201b60201c565b506100dc816101a360201b60201c565b506103a4565b5f5f5f9054906101000a900473ffffffffffffffffffffffffffffffffffffffff169050815f5f6101000a81548173ffffffffffffffffffffffffffffffffffffffff021916908373ffffffffffffffffffffffffffffffffffffffff1602179055508173ffffffffffffffffffffffffffffffffffffffff168173ffffffffffffffffffffffffffffffffffffffff167f8be0079c531659141344cd1fd0a4f28419497f9722a3daafe3b4186f6b6457e060405160405180910390a35050565b6101b161022c60201b60201c565b806004600a6101000a81548173ffffffffffffffffffffffffffffffffffffffff021916908373ffffffffffffffffffffffffffffffffffffffff1602179055507fa07c91c183e42229e705a9795a1c06d76528b673788b849597364528c96eefb781604051610221919061038b565b60405180910390a150565b61023a6102c560201b60201c565b73ffffffffffffffffffffffffffffffffffffffff1661025e6102cc60201b60201c565b73ffffffffffffffffffffffffffffffffffffffff16146102c3576102876102c560201b60201c565b6040517f118cdaa70000000000000000000000000000000000000000000000000000000081526004016102ba919061038b565b60405180910390fd5b565b5f33905090565b5f5f5f9054906101000a900473ffffffffffffffffffffffffffffffffffffffff16905090565b5f5ffd5b5f73ffffffffffffffffffffffffffffffffffffffff82169050919050565b5f610320826102f7565b9050919050565b61033081610316565b811461033a575f5ffd5b50565b5f8151905061034b81610327565b92915050565b5f60208284031215610366576103656102f3565b5b5f6103738482850161033d565b91505092915050565b61038581610316565b82525050565b5f60208201905061039e5f83018461037c565b92915050565b61095b806103b15f395ff3fe608060405234801561000f575f5ffd5b50600436106100cd575f3560e01c80637b2aab031161008a578063f21f537d11610064578063f21f537d146101c7578063f2fde38b146101e5578063fc0c546a14610201578063feaf968c1461021f576100cd565b80637b2aab031461016d5780638da5cb5b1461018b578063c22c2499146101a9576100cd565b8063144fa6d7146100d1578063313ce567146100ed5780633bd1c1f71461010b5780633efe1f6414610129578063467f1ee414610147578063715018a614610163575b5f5ffd5b6100eb60048036038101906100e691906106b9565b610241565b005b6100f56102c4565b60405161010291906106ff565b60405180910390f35b6101136102d6565b6040516101209190610730565b60405180910390f35b6101316102dc565b60405161013e919061076d565b60405180910390f35b610161600480360381019061015c919061080d565b6102f7565b005b61016b6103b2565b005b6101756103c5565b6040516101829190610893565b60405180910390f35b6101936103cb565b6040516101a091906108bb565b60405180910390f35b6101b16103f2565b6040516101be919061076d565b60405180910390f35b6101cf61040d565b6040516101dc9190610893565b60405180910390f35b6101ff60048036038101906101fa91906106b9565b610413565b005b610209610497565b60405161021691906108bb565b60405180910390f35b6102276104bd565b6040516102389594939291906108d4565b60405180910390f35b61024961050c565b806004600a6101000a81548173ffffffffffffffffffffffffffffffffffffffff021916908373ffffffffffffffffffffffffffffffffffffffff1602179055507fa07c91c183e42229e705a9795a1c06d76528b673788b849597364528c96eefb7816040516102b991906108bb565b60405180910390a150565b5f60149054906101000a900460ff1681565b60015481565b5f60159054906101000a900469ffffffffffffffffffff1681565b6102ff61050c565b845f60156101000a81548169ffffffffffffffffffff021916908369ffffffffffffffffffff1602179055508360018190555082600281905550816003819055508060045f6101000a81548169ffffffffffffffffffff021916908369ffffffffffffffffffff1602179055507ffda678292d5444240435c9b99fcee9e8ff1fa97977e93b7d5ae4062f52cca85385858585856040516103a39594939291906108d4565b60405180910390a15050505050565b6103ba61050c565b6103c35f610593565b565b60035481565b5f5f5f9054906101000a900473ffffffffffffffffffffffffffffffffffffffff16905090565b60045f9054906101000a900469ffffffffffffffffffff1681565b60025481565b61041b61050c565b5f73ffffffffffffffffffffffffffffffffffffffff168173ffffffffffffffffffffffffffffffffffffffff160361048b575f6040517f1e4fbdf700000000000000000000000000000000000000000000000000000000815260040161048291906108bb565b60405180910390fd5b61049481610593565b50565b6004600a9054906101000a900473ffffffffffffffffffffffffffffffffffffffff1681565b5f5f5f5f5f5f60159054906101000a900469ffffffffffffffffffff1660015460025460035460045f9054906101000a900469ffffffffffffffffffff16945094509450945094509091929394565b610514610654565b73ffffffffffffffffffffffffffffffffffffffff166105326103cb565b73ffffffffffffffffffffffffffffffffffffffff161461059157610555610654565b6040517f118cdaa700000000000000000000000000000000000000000000000000000000815260040161058891906108bb565b60405180910390fd5b565b5f5f5f9054906101000a900473ffffffffffffffffffffffffffffffffffffffff169050815f5f6101000a81548173ffffffffffffffffffffffffffffffffffffffff021916908373ffffffffffffffffffffffffffffffffffffffff1602179055508173ffffffffffffffffffffffffffffffffffffffff168173ffffffffffffffffffffffffffffffffffffffff167f8be0079c531659141344cd1fd0a4f28419497f9722a3daafe3b4186f6b6457e060405160405180910390a35050565b5f33905090565b5f5ffd5b5f73ffffffffffffffffffffffffffffffffffffffff82169050919050565b5f6106888261065f565b9050919050565b6106988161067e565b81146106a2575f5ffd5b50565b5f813590506106b38161068f565b92915050565b5f602082840312156106ce576106cd61065b565b5b5f6106db848285016106a5565b91505092915050565b5f60ff82169050919050565b6106f9816106e4565b82525050565b5f6020820190506107125f8301846106f0565b92915050565b5f819050919050565b61072a81610718565b82525050565b5f6020820190506107435f830184610721565b92915050565b5f69ffffffffffffffffffff82169050919050565b61076781610749565b82525050565b5f6020820190506107805f83018461075e565b92915050565b61078f81610749565b8114610799575f5ffd5b50565b5f813590506107aa81610786565b92915050565b6107b981610718565b81146107c3575f5ffd5b50565b5f813590506107d4816107b0565b92915050565b5f819050919050565b6107ec816107da565b81146107f6575f5ffd5b50565b5f81359050610807816107e3565b92915050565b5f5f5f5f5f60a086880312156108265761082561065b565b5b5f6108338882890161079c565b9550506020610844888289016107c6565b9450506040610855888289016107f9565b9350506060610866888289016107f9565b92505060806108778882890161079c565b9150509295509295909350565b61088d816107da565b82525050565b5f6020820190506108a65f830184610884565b92915050565b6108b58161067e565b82525050565b5f6020820190506108ce5f8301846108ac565b92915050565b5f60a0820190506108e75f83018861075e565b6108f46020830187610721565b6109016040830186610884565b61090e6060830185610884565b61091b608083018461075e565b969550505050505056fea26469706673582212208282f448f1236fa1915358c85b22d9c920c791f0a96b77f8cb4673715a40906864736f6c634300081e0033000000000000000000000000d773084b8cd424ad87d35be6901255fee285a763",
        "nonce": "0xb0",
        "chainId": "0x2105"
      },
      "additionalContracts": [],
      "isFixedGasLimit": false
    },
    {
      "hash": "0x6141d309c85a21d75eccd7e9ab3e22d6d36b07b768ffb71a39b454e8f0cb5519",
      "transactionType": "CREATE",
      "contractName": "Pricefeed",
      "contractAddress": "0x2f7c95d1848cb0a5e36de0d4db04c4afe09053dd",
      "function": null,
      "arguments": [
        "0x1D7c9083d76aD235aE44d90Bc13EcA74Ccc2Ed42"
      ],
      "transaction": {
        "from": "0xee03621ce83bbf6e3931bccf35b144354f16ccf7",
        "gas": "0xc8eda",
        "value": "0x0",
        "input": "0x608060405260085f60146101000a81548160ff021916908360ff16021790555034801561002a575f5ffd5b50604051610d0c380380610d0c833981810160405281019061004c9190610351565b335f73ffffffffffffffffffffffffffffffffffffffff168173ffffffffffffffffffffffffffffffffffffffff16036100bd575f6040517f1e4fbdf70000000000000000000000000000000000000000000000000000000081526004016100b4919061038b565b60405180910390fd5b6100cc816100e260201b60201c565b506100dc816101a360201b60201c565b506103a4565b5f5f5f9054906101000a900473ffffffffffffffffffffffffffffffffffffffff169050815f5f6101000a81548173ffffffffffffffffffffffffffffffffffffffff021916908373ffffffffffffffffffffffffffffffffffffffff1602179055508173ffffffffffffffffffffffffffffffffffffffff168173ffffffffffffffffffffffffffffffffffffffff167f8be0079c531659141344cd1fd0a4f28419497f9722a3daafe3b4186f6b6457e060405160405180910390a35050565b6101b161022c60201b60201c565b806004600a6101000a81548173ffffffffffffffffffffffffffffffffffffffff021916908373ffffffffffffffffffffffffffffffffffffffff1602179055507fa07c91c183e42229e705a9795a1c06d76528b673788b849597364528c96eefb781604051610221919061038b565b60405180910390a150565b61023a6102c560201b60201c565b73ffffffffffffffffffffffffffffffffffffffff1661025e6102cc60201b60201c565b73ffffffffffffffffffffffffffffffffffffffff16146102c3576102876102c560201b60201c565b6040517f118cdaa70000000000000000000000000000000000000000000000000000000081526004016102ba919061038b565b60405180910390fd5b565b5f33905090565b5f5f5f9054906101000a900473ffffffffffffffffffffffffffffffffffffffff16905090565b5f5ffd5b5f73ffffffffffffffffffffffffffffffffffffffff82169050919050565b5f610320826102f7565b9050919050565b61033081610316565b811461033a575f5ffd5b50565b5f8151905061034b81610327565b92915050565b5f60208284031215610366576103656102f3565b5b5f6103738482850161033d565b91505092915050565b61038581610316565b82525050565b5f60208201905061039e5f83018461037c565b92915050565b61095b806103b15f395ff3fe608060405234801561000f575f5ffd5b50600436106100cd575f3560e01c80637b2aab031161008a578063f21f537d11610064578063f21f537d146101c7578063f2fde38b146101e5578063fc0c546a14610201578063feaf968c1461021f576100cd565b80637b2aab031461016d5780638da5cb5b1461018b578063c22c2499146101a9576100cd565b8063144fa6d7146100d1578063313ce567146100ed5780633bd1c1f71461010b5780633efe1f6414610129578063467f1ee414610147578063715018a614610163575b5f5ffd5b6100eb60048036038101906100e691906106b9565b610241565b005b6100f56102c4565b60405161010291906106ff565b60405180910390f35b6101136102d6565b6040516101209190610730565b60405180910390f35b6101316102dc565b60405161013e919061076d565b60405180910390f35b610161600480360381019061015c919061080d565b6102f7565b005b61016b6103b2565b005b6101756103c5565b6040516101829190610893565b60405180910390f35b6101936103cb565b6040516101a091906108bb565b60405180910390f35b6101b16103f2565b6040516101be919061076d565b60405180910390f35b6101cf61040d565b6040516101dc9190610893565b60405180910390f35b6101ff60048036038101906101fa91906106b9565b610413565b005b610209610497565b60405161021691906108bb565b60405180910390f35b6102276104bd565b6040516102389594939291906108d4565b60405180910390f35b61024961050c565b806004600a6101000a81548173ffffffffffffffffffffffffffffffffffffffff021916908373ffffffffffffffffffffffffffffffffffffffff1602179055507fa07c91c183e42229e705a9795a1c06d76528b673788b849597364528c96eefb7816040516102b991906108bb565b60405180910390a150565b5f60149054906101000a900460ff1681565b60015481565b5f60159054906101000a900469ffffffffffffffffffff1681565b6102ff61050c565b845f60156101000a81548169ffffffffffffffffffff021916908369ffffffffffffffffffff1602179055508360018190555082600281905550816003819055508060045f6101000a81548169ffffffffffffffffffff021916908369ffffffffffffffffffff1602179055507ffda678292d5444240435c9b99fcee9e8ff1fa97977e93b7d5ae4062f52cca85385858585856040516103a39594939291906108d4565b60405180910390a15050505050565b6103ba61050c565b6103c35f610593565b565b60035481565b5f5f5f9054906101000a900473ffffffffffffffffffffffffffffffffffffffff16905090565b60045f9054906101000a900469ffffffffffffffffffff1681565b60025481565b61041b61050c565b5f73ffffffffffffffffffffffffffffffffffffffff168173ffffffffffffffffffffffffffffffffffffffff160361048b575f6040517f1e4fbdf700000000000000000000000000000000000000000000000000000000815260040161048291906108bb565b60405180910390fd5b61049481610593565b50565b6004600a9054906101000a900473ffffffffffffffffffffffffffffffffffffffff1681565b5f5f5f5f5f5f60159054906101000a900469ffffffffffffffffffff1660015460025460035460045f9054906101000a900469ffffffffffffffffffff16945094509450945094509091929394565b610514610654565b73ffffffffffffffffffffffffffffffffffffffff166105326103cb565b73ffffffffffffffffffffffffffffffffffffffff161461059157610555610654565b6040517f118cdaa700000000000000000000000000000000000000000000000000000000815260040161058891906108bb565b60405180910390fd5b565b5f5f5f9054906101000a900473ffffffffffffffffffffffffffffffffffffffff169050815f5f6101000a81548173ffffffffffffffffffffffffffffffffffffffff021916908373ffffffffffffffffffffffffffffffffffffffff1602179055508173ffffffffffffffffffffffffffffffffffffffff168173ffffffffffffffffffffffffffffffffffffffff167f8be0079c531659141344cd1fd0a4f28419497f9722a3daafe3b4186f6b6457e060405160405180910390a35050565b5f33905090565b5f5ffd5b5f73ffffffffffffffffffffffffffffffffffffffff82169050919050565b5f6106888261065f565b9050919050565b6106988161067e565b81146106a2575f5ffd5b50565b5f813590506106b38161068f565b92915050565b5f602082840312156106ce576106cd61065b565b5b5f6106db848285016106a5565b91505092915050565b5f60ff82169050919050565b6106f9816106e4565b82525050565b5f6020820190506107125f8301846106f0565b92915050565b5f819050919050565b61072a81610718565b82525050565b5f6020820190506107435f830184610721565b92915050565b5f69ffffffffffffffffffff82169050919050565b61076781610749565b82525050565b5f6020820190506107805f83018461075e565b92915050565b61078f81610749565b8114610799575f5ffd5b50565b5f813590506107aa81610786565b92915050565b6107b981610718565b81146107c3575f5ffd5b50565b5f813590506107d4816107b0565b92915050565b5f819050919050565b6107ec816107da565b81146107f6575f5ffd5b50565b5f81359050610807816107e3565b92915050565b5f5f5f5f5f60a086880312156108265761082561065b565b5b5f6108338882890161079c565b9550506020610844888289016107c6565b9450506040610855888289016107f9565b9350506060610866888289016107f9565b92505060806108778882890161079c565b9150509295509295909350565b61088d816107da565b82525050565b5f6020820190506108a65f830184610884565b92915050565b6108b58161067e565b82525050565b5f6020820190506108ce5f8301846108ac565b92915050565b5f60a0820190506108e75f83018861075e565b6108f46020830187610721565b6109016040830186610884565b61090e6060830185610884565b61091b608083018461075e565b969550505050505056fea26469706673582212208282f448f1236fa1915358c85b22d9c920c791f0a96b77f8cb4673715a40906864736f6c634300081e00330000000000000000000000001d7c9083d76ad235ae44d90bc13eca74ccc2ed42",
        "nonce": "0xb1",
        "chainId": "0x2105"
      },
      "additionalContracts": [],
      "isFixedGasLimit": false
    },
    {
      "hash": "0xe16c132fc3dac200abaa2debd87b31bd35cde57571c9bfb4959bb7a93c47d44d",
      "transactionType": "CREATE",
      "contractName": "Pricefeed",
      "contractAddress": "0x618942af15f2fe6f451bee0e094d46df39822e74",
      "function": null,
      "arguments": [
        "0xB7e6d4119F5E482D8d68D0AA4c81F14A082Ec917"
      ],
      "transaction": {
        "from": "0xee03621ce83bbf6e3931bccf35b144354f16ccf7",
        "gas": "0xc8eda",
        "value": "0x0",
        "input": "0x608060405260085f60146101000a81548160ff021916908360ff16021790555034801561002a575f5ffd5b50604051610d0c380380610d0c833981810160405281019061004c9190610351565b335f73ffffffffffffffffffffffffffffffffffffffff168173ffffffffffffffffffffffffffffffffffffffff16036100bd575f6040517f1e4fbdf70000000000000000000000000000000000000000000000000000000081526004016100b4919061038b565b60405180910390fd5b6100cc816100e260201b60201c565b506100dc816101a360201b60201c565b506103a4565b5f5f5f9054906101000a900473ffffffffffffffffffffffffffffffffffffffff169050815f5f6101000a81548173ffffffffffffffffffffffffffffffffffffffff021916908373ffffffffffffffffffffffffffffffffffffffff1602179055508173ffffffffffffffffffffffffffffffffffffffff168173ffffffffffffffffffffffffffffffffffffffff167f8be0079c531659141344cd1fd0a4f28419497f9722a3daafe3b4186f6b6457e060405160405180910390a35050565b6101b161022c60201b60201c565b806004600a6101000a81548173ffffffffffffffffffffffffffffffffffffffff021916908373ffffffffffffffffffffffffffffffffffffffff1602179055507fa07c91c183e42229e705a9795a1c06d76528b673788b849597364528c96eefb781604051610221919061038b565b60405180910390a150565b61023a6102c560201b60201c565b73ffffffffffffffffffffffffffffffffffffffff1661025e6102cc60201b60201c565b73ffffffffffffffffffffffffffffffffffffffff16146102c3576102876102c560201b60201c565b6040517f118cdaa70000000000000000000000000000000000000000000000000000000081526004016102ba919061038b565b60405180910390fd5b565b5f33905090565b5f5f5f9054906101000a900473ffffffffffffffffffffffffffffffffffffffff16905090565b5f5ffd5b5f73ffffffffffffffffffffffffffffffffffffffff82169050919050565b5f610320826102f7565b9050919050565b61033081610316565b811461033a575f5ffd5b50565b5f8151905061034b81610327565b92915050565b5f60208284031215610366576103656102f3565b5b5f6103738482850161033d565b91505092915050565b61038581610316565b82525050565b5f60208201905061039e5f83018461037c565b92915050565b61095b806103b15f395ff3fe608060405234801561000f575f5ffd5b50600436106100cd575f3560e01c80637b2aab031161008a578063f21f537d11610064578063f21f537d146101c7578063f2fde38b146101e5578063fc0c546a14610201578063feaf968c1461021f576100cd565b80637b2aab031461016d5780638da5cb5b1461018b578063c22c2499146101a9576100cd565b8063144fa6d7146100d1578063313ce567146100ed5780633bd1c1f71461010b5780633efe1f6414610129578063467f1ee414610147578063715018a614610163575b5f5ffd5b6100eb60048036038101906100e691906106b9565b610241565b005b6100f56102c4565b60405161010291906106ff565b60405180910390f35b6101136102d6565b6040516101209190610730565b60405180910390f35b6101316102dc565b60405161013e919061076d565b60405180910390f35b610161600480360381019061015c919061080d565b6102f7565b005b61016b6103b2565b005b6101756103c5565b6040516101829190610893565b60405180910390f35b6101936103cb565b6040516101a091906108bb565b60405180910390f35b6101b16103f2565b6040516101be919061076d565b60405180910390f35b6101cf61040d565b6040516101dc9190610893565b60405180910390f35b6101ff60048036038101906101fa91906106b9565b610413565b005b610209610497565b60405161021691906108bb565b60405180910390f35b6102276104bd565b6040516102389594939291906108d4565b60405180910390f35b61024961050c565b806004600a6101000a81548173ffffffffffffffffffffffffffffffffffffffff021916908373ffffffffffffffffffffffffffffffffffffffff1602179055507fa07c91c183e42229e705a9795a1c06d76528b673788b849597364528c96eefb7816040516102b991906108bb565b60405180910390a150565b5f60149054906101000a900460ff1681565b60015481565b5f60159054906101000a900469ffffffffffffffffffff1681565b6102ff61050c565b845f60156101000a81548169ffffffffffffffffffff021916908369ffffffffffffffffffff1602179055508360018190555082600281905550816003819055508060045f6101000a81548169ffffffffffffffffffff021916908369ffffffffffffffffffff1602179055507ffda678292d5444240435c9b99fcee9e8ff1fa97977e93b7d5ae4062f52cca85385858585856040516103a39594939291906108d4565b60405180910390a15050505050565b6103ba61050c565b6103c35f610593565b565b60035481565b5f5f5f9054906101000a900473ffffffffffffffffffffffffffffffffffffffff16905090565b60045f9054906101000a900469ffffffffffffffffffff1681565b60025481565b61041b61050c565b5f73ffffffffffffffffffffffffffffffffffffffff168173ffffffffffffffffffffffffffffffffffffffff160361048b575f6040517f1e4fbdf700000000000000000000000000000000000000000000000000000000815260040161048291906108bb565b60405180910390fd5b61049481610593565b50565b6004600a9054906101000a900473ffffffffffffffffffffffffffffffffffffffff1681565b5f5f5f5f5f5f60159054906101000a900469ffffffffffffffffffff1660015460025460035460045f9054906101000a900469ffffffffffffffffffff16945094509450945094509091929394565b610514610654565b73ffffffffffffffffffffffffffffffffffffffff166105326103cb565b73ffffffffffffffffffffffffffffffffffffffff161461059157610555610654565b6040517f118cdaa700000000000000000000000000000000000000000000000000000000815260040161058891906108bb565b60405180910390fd5b565b5f5f5f9054906101000a900473ffffffffffffffffffffffffffffffffffffffff169050815f5f6101000a81548173ffffffffffffffffffffffffffffffffffffffff021916908373ffffffffffffffffffffffffffffffffffffffff1602179055508173ffffffffffffffffffffffffffffffffffffffff168173ffffffffffffffffffffffffffffffffffffffff167f8be0079c531659141344cd1fd0a4f28419497f9722a3daafe3b4186f6b6457e060405160405180910390a35050565b5f33905090565b5f5ffd5b5f73ffffffffffffffffffffffffffffffffffffffff82169050919050565b5f6106888261065f565b9050919050565b6106988161067e565b81146106a2575f5ffd5b50565b5f813590506106b38161068f565b92915050565b5f602082840312156106ce576106cd61065b565b5b5f6106db848285016106a5565b91505092915050565b5f60ff82169050919050565b6106f9816106e4565b82525050565b5f6020820190506107125f8301846106f0565b92915050565b5f819050919050565b61072a81610718565b82525050565b5f6020820190506107435f830184610721565b92915050565b5f69ffffffffffffffffffff82169050919050565b61076781610749565b82525050565b5f6020820190506107805f83018461075e565b92915050565b61078f81610749565b8114610799575f5ffd5b50565b5f813590506107aa81610786565b92915050565b6107b981610718565b81146107c3575f5ffd5b50565b5f813590506107d4816107b0565b92915050565b5f819050919050565b6107ec816107da565b81146107f6575f5ffd5b50565b5f81359050610807816107e3565b92915050565b5f5f5f5f5f60a086880312156108265761082561065b565b5b5f6108338882890161079c565b9550506020610844888289016107c6565b9450506040610855888289016107f9565b9350506060610866888289016107f9565b92505060806108778882890161079c565b9150509295509295909350565b61088d816107da565b82525050565b5f6020820190506108a65f830184610884565b92915050565b6108b58161067e565b82525050565b5f6020820190506108ce5f8301846108ac565b92915050565b5f60a0820190506108e75f83018861075e565b6108f46020830187610721565b6109016040830186610884565b61090e6060830185610884565b61091b608083018461075e565b969550505050505056fea26469706673582212208282f448f1236fa1915358c85b22d9c920c791f0a96b77f8cb4673715a40906864736f6c634300081e0033000000000000000000000000b7e6d4119f5e482d8d68d0aa4c81f14a082ec917",
        "nonce": "0xb2",
        "chainId": "0x2105"
      },
      "additionalContracts": [],
      "isFixedGasLimit": false
    },
    {
      "hash": "0x5e3e15cbc4018721f3b5c441ace36e1e9330957874a4e589bda6b4a54e546599",
      "transactionType": "CREATE",
      "contractName": "Pricefeed",
      "contractAddress": "0xbf374ffdde61ebf4e19dc0320bd2ded9de447eb4",
      "function": null,
      "arguments": [
        "0xef49434AcC92ED24e7d245f748aacDE471A68F06"
      ],
      "transaction": {
        "from": "0xee03621ce83bbf6e3931bccf35b144354f16ccf7",
        "gas": "0xc8eda",
        "value": "0x0",
        "input": "0x608060405260085f60146101000a81548160ff021916908360ff16021790555034801561002a575f5ffd5b50604051610d0c380380610d0c833981810160405281019061004c9190610351565b335f73ffffffffffffffffffffffffffffffffffffffff168173ffffffffffffffffffffffffffffffffffffffff16036100bd575f6040517f1e4fbdf70000000000000000000000000000000000000000000000000000000081526004016100b4919061038b565b60405180910390fd5b6100cc816100e260201b60201c565b506100dc816101a360201b60201c565b506103a4565b5f5f5f9054906101000a900473ffffffffffffffffffffffffffffffffffffffff169050815f5f6101000a81548173ffffffffffffffffffffffffffffffffffffffff021916908373ffffffffffffffffffffffffffffffffffffffff1602179055508173ffffffffffffffffffffffffffffffffffffffff168173ffffffffffffffffffffffffffffffffffffffff167f8be0079c531659141344cd1fd0a4f28419497f9722a3daafe3b4186f6b6457e060405160405180910390a35050565b6101b161022c60201b60201c565b806004600a6101000a81548173ffffffffffffffffffffffffffffffffffffffff021916908373ffffffffffffffffffffffffffffffffffffffff1602179055507fa07c91c183e42229e705a9795a1c06d76528b673788b849597364528c96eefb781604051610221919061038b565b60405180910390a150565b61023a6102c560201b60201c565b73ffffffffffffffffffffffffffffffffffffffff1661025e6102cc60201b60201c565b73ffffffffffffffffffffffffffffffffffffffff16146102c3576102876102c560201b60201c565b6040517f118cdaa70000000000000000000000000000000000000000000000000000000081526004016102ba919061038b565b60405180910390fd5b565b5f33905090565b5f5f5f9054906101000a900473ffffffffffffffffffffffffffffffffffffffff16905090565b5f5ffd5b5f73ffffffffffffffffffffffffffffffffffffffff82169050919050565b5f610320826102f7565b9050919050565b61033081610316565b811461033a575f5ffd5b50565b5f8151905061034b81610327565b92915050565b5f60208284031215610366576103656102f3565b5b5f6103738482850161033d565b91505092915050565b61038581610316565b82525050565b5f60208201905061039e5f83018461037c565b92915050565b61095b806103b15f395ff3fe608060405234801561000f575f5ffd5b50600436106100cd575f3560e01c80637b2aab031161008a578063f21f537d11610064578063f21f537d146101c7578063f2fde38b146101e5578063fc0c546a14610201578063feaf968c1461021f576100cd565b80637b2aab031461016d5780638da5cb5b1461018b578063c22c2499146101a9576100cd565b8063144fa6d7146100d1578063313ce567146100ed5780633bd1c1f71461010b5780633efe1f6414610129578063467f1ee414610147578063715018a614610163575b5f5ffd5b6100eb60048036038101906100e691906106b9565b610241565b005b6100f56102c4565b60405161010291906106ff565b60405180910390f35b6101136102d6565b6040516101209190610730565b60405180910390f35b6101316102dc565b60405161013e919061076d565b60405180910390f35b610161600480360381019061015c919061080d565b6102f7565b005b61016b6103b2565b005b6101756103c5565b6040516101829190610893565b60405180910390f35b6101936103cb565b6040516101a091906108bb565b60405180910390f35b6101b16103f2565b6040516101be919061076d565b60405180910390f35b6101cf61040d565b6040516101dc9190610893565b60405180910390f35b6101ff60048036038101906101fa91906106b9565b610413565b005b610209610497565b60405161021691906108bb565b60405180910390f35b6102276104bd565b6040516102389594939291906108d4565b60405180910390f35b61024961050c565b806004600a6101000a81548173ffffffffffffffffffffffffffffffffffffffff021916908373ffffffffffffffffffffffffffffffffffffffff1602179055507fa07c91c183e42229e705a9795a1c06d76528b673788b849597364528c96eefb7816040516102b991906108bb565b60405180910390a150565b5f60149054906101000a900460ff1681565b60015481565b5f60159054906101000a900469ffffffffffffffffffff1681565b6102ff61050c565b845f60156101000a81548169ffffffffffffffffffff021916908369ffffffffffffffffffff1602179055508360018190555082600281905550816003819055508060045f6101000a81548169ffffffffffffffffffff021916908369ffffffffffffffffffff1602179055507ffda678292d5444240435c9b99fcee9e8ff1fa97977e93b7d5ae4062f52cca85385858585856040516103a39594939291906108d4565b60405180910390a15050505050565b6103ba61050c565b6103c35f610593565b565b60035481565b5f5f5f9054906101000a900473ffffffffffffffffffffffffffffffffffffffff16905090565b60045f9054906101000a900469ffffffffffffffffffff1681565b60025481565b61041b61050c565b5f73ffffffffffffffffffffffffffffffffffffffff168173ffffffffffffffffffffffffffffffffffffffff160361048b575f6040517f1e4fbdf700000000000000000000000000000000000000000000000000000000815260040161048291906108bb565b60405180910390fd5b61049481610593565b50565b6004600a9054906101000a900473ffffffffffffffffffffffffffffffffffffffff1681565b5f5f5f5f5f5f60159054906101000a900469ffffffffffffffffffff1660015460025460035460045f9054906101000a900469ffffffffffffffffffff16945094509450945094509091929394565b610514610654565b73ffffffffffffffffffffffffffffffffffffffff166105326103cb565b73ffffffffffffffffffffffffffffffffffffffff161461059157610555610654565b6040517f118cdaa700000000000000000000000000000000000000000000000000000000815260040161058891906108bb565b60405180910390fd5b565b5f5f5f9054906101000a900473ffffffffffffffffffffffffffffffffffffffff169050815f5f6101000a81548173ffffffffffffffffffffffffffffffffffffffff021916908373ffffffffffffffffffffffffffffffffffffffff1602179055508173ffffffffffffffffffffffffffffffffffffffff168173ffffffffffffffffffffffffffffffffffffffff167f8be0079c531659141344cd1fd0a4f28419497f9722a3daafe3b4186f6b6457e060405160405180910390a35050565b5f33905090565b5f5ffd5b5f73ffffffffffffffffffffffffffffffffffffffff82169050919050565b5f6106888261065f565b9050919050565b6106988161067e565b81146106a2575f5ffd5b50565b5f813590506106b38161068f565b92915050565b5f602082840312156106ce576106cd61065b565b5b5f6106db848285016106a5565b91505092915050565b5f60ff82169050919050565b6106f9816106e4565b82525050565b5f6020820190506107125f8301846106f0565b92915050565b5f819050919050565b61072a81610718565b82525050565b5f6020820190506107435f830184610721565b92915050565b5f69ffffffffffffffffffff82169050919050565b61076781610749565b82525050565b5f6020820190506107805f83018461075e565b92915050565b61078f81610749565b8114610799575f5ffd5b50565b5f813590506107aa81610786565b92915050565b6107b981610718565b81146107c3575f5ffd5b50565b5f813590506107d4816107b0565b92915050565b5f819050919050565b6107ec816107da565b81146107f6575f5ffd5b50565b5f81359050610807816107e3565b92915050565b5f5f5f5f5f60a086880312156108265761082561065b565b5b5f6108338882890161079c565b9550506020610844888289016107c6565b9450506040610855888289016107f9565b9350506060610866888289016107f9565b92505060806108778882890161079c565b9150509295509295909350565b61088d816107da565b82525050565b5f6020820190506108a65f830184610884565b92915050565b6108b58161067e565b82525050565b5f6020820190506108ce5f8301846108ac565b92915050565b5f60a0820190506108e75f83018861075e565b6108f46020830187610721565b6109016040830186610884565b61090e6060830185610884565b61091b608083018461075e565b969550505050505056fea26469706673582212208282f448f1236fa1915358c85b22d9c920c791f0a96b77f8cb4673715a40906864736f6c634300081e0033000000000000000000000000ef49434acc92ed24e7d245f748aacde471a68f06",
        "nonce": "0xb3",
        "chainId": "0x2105"
      },
      "additionalContracts": [],
      "isFixedGasLimit": false
    },
    {
      "hash": "0x65cf867dca3ae223055a1e484e5338e6c98b1675c91eb21a38f536132d7b0d23",
      "transactionType": "CREATE",
      "contractName": "Pricefeed",
      "contractAddress": "0x88d873c00658874996e07e98e84ff89c3aa314c1",
      "function": null,
      "arguments": [
        "0x5F01296847f20Fc68C79D051AB75Fb9169096F00"
      ],
      "transaction": {
        "from": "0xee03621ce83bbf6e3931bccf35b144354f16ccf7",
        "gas": "0xc8ecb",
        "value": "0x0",
        "input": "0x608060405260085f60146101000a81548160ff021916908360ff16021790555034801561002a575f5ffd5b50604051610d0c380380610d0c833981810160405281019061004c9190610351565b335f73ffffffffffffffffffffffffffffffffffffffff168173ffffffffffffffffffffffffffffffffffffffff16036100bd575f6040517f1e4fbdf70000000000000000000000000000000000000000000000000000000081526004016100b4919061038b565b60405180910390fd5b6100cc816100e260201b60201c565b506100dc816101a360201b60201c565b506103a4565b5f5f5f9054906101000a900473ffffffffffffffffffffffffffffffffffffffff169050815f5f6101000a81548173ffffffffffffffffffffffffffffffffffffffff021916908373ffffffffffffffffffffffffffffffffffffffff1602179055508173ffffffffffffffffffffffffffffffffffffffff168173ffffffffffffffffffffffffffffffffffffffff167f8be0079c531659141344cd1fd0a4f28419497f9722a3daafe3b4186f6b6457e060405160405180910390a35050565b6101b161022c60201b60201c565b806004600a6101000a81548173ffffffffffffffffffffffffffffffffffffffff021916908373ffffffffffffffffffffffffffffffffffffffff1602179055507fa07c91c183e42229e705a9795a1c06d76528b673788b849597364528c96eefb781604051610221919061038b565b60405180910390a150565b61023a6102c560201b60201c565b73ffffffffffffffffffffffffffffffffffffffff1661025e6102cc60201b60201c565b73ffffffffffffffffffffffffffffffffffffffff16146102c3576102876102c560201b60201c565b6040517f118cdaa70000000000000000000000000000000000000000000000000000000081526004016102ba919061038b565b60405180910390fd5b565b5f33905090565b5f5f5f9054906101000a900473ffffffffffffffffffffffffffffffffffffffff16905090565b5f5ffd5b5f73ffffffffffffffffffffffffffffffffffffffff82169050919050565b5f610320826102f7565b9050919050565b61033081610316565b811461033a575f5ffd5b50565b5f8151905061034b81610327565b92915050565b5f60208284031215610366576103656102f3565b5b5f6103738482850161033d565b91505092915050565b61038581610316565b82525050565b5f60208201905061039e5f83018461037c565b92915050565b61095b806103b15f395ff3fe608060405234801561000f575f5ffd5b50600436106100cd575f3560e01c80637b2aab031161008a578063f21f537d11610064578063f21f537d146101c7578063f2fde38b146101e5578063fc0c546a14610201578063feaf968c1461021f576100cd565b80637b2aab031461016d5780638da5cb5b1461018b578063c22c2499146101a9576100cd565b8063144fa6d7146100d1578063313ce567146100ed5780633bd1c1f71461010b5780633efe1f6414610129578063467f1ee414610147578063715018a614610163575b5f5ffd5b6100eb60048036038101906100e691906106b9565b610241565b005b6100f56102c4565b60405161010291906106ff565b60405180910390f35b6101136102d6565b6040516101209190610730565b60405180910390f35b6101316102dc565b60405161013e919061076d565b60405180910390f35b610161600480360381019061015c919061080d565b6102f7565b005b61016b6103b2565b005b6101756103c5565b6040516101829190610893565b60405180910390f35b6101936103cb565b6040516101a091906108bb565b60405180910390f35b6101b16103f2565b6040516101be919061076d565b60405180910390f35b6101cf61040d565b6040516101dc9190610893565b60405180910390f35b6101ff60048036038101906101fa91906106b9565b610413565b005b610209610497565b60405161021691906108bb565b60405180910390f35b6102276104bd565b6040516102389594939291906108d4565b60405180910390f35b61024961050c565b806004600a6101000a81548173ffffffffffffffffffffffffffffffffffffffff021916908373ffffffffffffffffffffffffffffffffffffffff1602179055507fa07c91c183e42229e705a9795a1c06d76528b673788b849597364528c96eefb7816040516102b991906108bb565b60405180910390a150565b5f60149054906101000a900460ff1681565b60015481565b5f60159054906101000a900469ffffffffffffffffffff1681565b6102ff61050c565b845f60156101000a81548169ffffffffffffffffffff021916908369ffffffffffffffffffff1602179055508360018190555082600281905550816003819055508060045f6101000a81548169ffffffffffffffffffff021916908369ffffffffffffffffffff1602179055507ffda678292d5444240435c9b99fcee9e8ff1fa97977e93b7d5ae4062f52cca85385858585856040516103a39594939291906108d4565b60405180910390a15050505050565b6103ba61050c565b6103c35f610593565b565b60035481565b5f5f5f9054906101000a900473ffffffffffffffffffffffffffffffffffffffff16905090565b60045f9054906101000a900469ffffffffffffffffffff1681565b60025481565b61041b61050c565b5f73ffffffffffffffffffffffffffffffffffffffff168173ffffffffffffffffffffffffffffffffffffffff160361048b575f6040517f1e4fbdf700000000000000000000000000000000000000000000000000000000815260040161048291906108bb565b60405180910390fd5b61049481610593565b50565b6004600a9054906101000a900473ffffffffffffffffffffffffffffffffffffffff1681565b5f5f5f5f5f5f60159054906101000a900469ffffffffffffffffffff1660015460025460035460045f9054906101000a900469ffffffffffffffffffff16945094509450945094509091929394565b610514610654565b73ffffffffffffffffffffffffffffffffffffffff166105326103cb565b73ffffffffffffffffffffffffffffffffffffffff161461059157610555610654565b6040517f118cdaa700000000000000000000000000000000000000000000000000000000815260040161058891906108bb565b60405180910390fd5b565b5f5f5f9054906101000a900473ffffffffffffffffffffffffffffffffffffffff169050815f5f6101000a81548173ffffffffffffffffffffffffffffffffffffffff021916908373ffffffffffffffffffffffffffffffffffffffff1602179055508173ffffffffffffffffffffffffffffffffffffffff168173ffffffffffffffffffffffffffffffffffffffff167f8be0079c531659141344cd1fd0a4f28419497f9722a3daafe3b4186f6b6457e060405160405180910390a35050565b5f33905090565b5f5ffd5b5f73ffffffffffffffffffffffffffffffffffffffff82169050919050565b5f6106888261065f565b9050919050565b6106988161067e565b81146106a2575f5ffd5b50565b5f813590506106b38161068f565b92915050565b5f602082840312156106ce576106cd61065b565b5b5f6106db848285016106a5565b91505092915050565b5f60ff82169050919050565b6106f9816106e4565b82525050565b5f6020820190506107125f8301846106f0565b92915050565b5f819050919050565b61072a81610718565b82525050565b5f6020820190506107435f830184610721565b92915050565b5f69ffffffffffffffffffff82169050919050565b61076781610749565b82525050565b5f6020820190506107805f83018461075e565b92915050565b61078f81610749565b8114610799575f5ffd5b50565b5f813590506107aa81610786565b92915050565b6107b981610718565b81146107c3575f5ffd5b50565b5f813590506107d4816107b0565b92915050565b5f819050919050565b6107ec816107da565b81146107f6575f5ffd5b50565b5f81359050610807816107e3565b92915050565b5f5f5f5f5f60a086880312156108265761082561065b565b5b5f6108338882890161079c565b9550506020610844888289016107c6565b9450506040610855888289016107f9565b9350506060610866888289016107f9565b92505060806108778882890161079c565b9150509295509295909350565b61088d816107da565b82525050565b5f6020820190506108a65f830184610884565b92915050565b6108b58161067e565b82525050565b5f6020820190506108ce5f8301846108ac565b92915050565b5f60a0820190506108e75f83018861075e565b6108f46020830187610721565b6109016040830186610884565b61090e6060830185610884565b61091b608083018461075e565b969550505050505056fea26469706673582212208282f448f1236fa1915358c85b22d9c920c791f0a96b77f8cb4673715a40906864736f6c634300081e00330000000000000000000000005f01296847f20fc68c79d051ab75fb9169096f00",
        "nonce": "0xb4",
        "chainId": "0x2105"
      },
      "additionalContracts": [],
      "isFixedGasLimit": false
    },
    {
      "hash": "0x2268f465007383208fe0778e759a8f50b3b8945651c0b7b9cf3c0cb9e1c916a8",
      "transactionType": "CREATE",
      "contractName": "Pricefeed",
      "contractAddress": "0x7e588b76807b0adf014c4cea3d9df28d4c5e7c80",
      "function": null,
      "arguments": [
        "0x74Ae55CA4EaA2337f309F77A7AF1b60Ea9085FB6"
      ],
      "transaction": {
        "from": "0xee03621ce83bbf6e3931bccf35b144354f16ccf7",
        "gas": "0xc8eda",
        "value": "0x0",
        "input": "0x608060405260085f60146101000a81548160ff021916908360ff16021790555034801561002a575f5ffd5b50604051610d0c380380610d0c833981810160405281019061004c9190610351565b335f73ffffffffffffffffffffffffffffffffffffffff168173ffffffffffffffffffffffffffffffffffffffff16036100bd575f6040517f1e4fbdf70000000000000000000000000000000000000000000000000000000081526004016100b4919061038b565b60405180910390fd5b6100cc816100e260201b60201c565b506100dc816101a360201b60201c565b506103a4565b5f5f5f9054906101000a900473ffffffffffffffffffffffffffffffffffffffff169050815f5f6101000a81548173ffffffffffffffffffffffffffffffffffffffff021916908373ffffffffffffffffffffffffffffffffffffffff1602179055508173ffffffffffffffffffffffffffffffffffffffff168173ffffffffffffffffffffffffffffffffffffffff167f8be0079c531659141344cd1fd0a4f28419497f9722a3daafe3b4186f6b6457e060405160405180910390a35050565b6101b161022c60201b60201c565b806004600a6101000a81548173ffffffffffffffffffffffffffffffffffffffff021916908373ffffffffffffffffffffffffffffffffffffffff1602179055507fa07c91c183e42229e705a9795a1c06d76528b673788b849597364528c96eefb781604051610221919061038b565b60405180910390a150565b61023a6102c560201b60201c565b73ffffffffffffffffffffffffffffffffffffffff1661025e6102cc60201b60201c565b73ffffffffffffffffffffffffffffffffffffffff16146102c3576102876102c560201b60201c565b6040517f118cdaa70000000000000000000000000000000000000000000000000000000081526004016102ba919061038b565b60405180910390fd5b565b5f33905090565b5f5f5f9054906101000a900473ffffffffffffffffffffffffffffffffffffffff16905090565b5f5ffd5b5f73ffffffffffffffffffffffffffffffffffffffff82169050919050565b5f610320826102f7565b9050919050565b61033081610316565b811461033a575f5ffd5b50565b5f8151905061034b81610327565b92915050565b5f60208284031215610366576103656102f3565b5b5f6103738482850161033d565b91505092915050565b61038581610316565b82525050565b5f60208201905061039e5f83018461037c565b92915050565b61095b806103b15f395ff3fe608060405234801561000f575f5ffd5b50600436106100cd575f3560e01c80637b2aab031161008a578063f21f537d11610064578063f21f537d146101c7578063f2fde38b146101e5578063fc0c546a14610201578063feaf968c1461021f576100cd565b80637b2aab031461016d5780638da5cb5b1461018b578063c22c2499146101a9576100cd565b8063144fa6d7146100d1578063313ce567146100ed5780633bd1c1f71461010b5780633efe1f6414610129578063467f1ee414610147578063715018a614610163575b5f5ffd5b6100eb60048036038101906100e691906106b9565b610241565b005b6100f56102c4565b60405161010291906106ff565b60405180910390f35b6101136102d6565b6040516101209190610730565b60405180910390f35b6101316102dc565b60405161013e919061076d565b60405180910390f35b610161600480360381019061015c919061080d565b6102f7565b005b61016b6103b2565b005b6101756103c5565b6040516101829190610893565b60405180910390f35b6101936103cb565b6040516101a091906108bb565b60405180910390f35b6101b16103f2565b6040516101be919061076d565b60405180910390f35b6101cf61040d565b6040516101dc9190610893565b60405180910390f35b6101ff60048036038101906101fa91906106b9565b610413565b005b610209610497565b60405161021691906108bb565b60405180910390f35b6102276104bd565b6040516102389594939291906108d4565b60405180910390f35b61024961050c565b806004600a6101000a81548173ffffffffffffffffffffffffffffffffffffffff021916908373ffffffffffffffffffffffffffffffffffffffff1602179055507fa07c91c183e42229e705a9795a1c06d76528b673788b849597364528c96eefb7816040516102b991906108bb565b60405180910390a150565b5f60149054906101000a900460ff1681565b60015481565b5f60159054906101000a900469ffffffffffffffffffff1681565b6102ff61050c565b845f60156101000a81548169ffffffffffffffffffff021916908369ffffffffffffffffffff1602179055508360018190555082600281905550816003819055508060045f6101000a81548169ffffffffffffffffffff021916908369ffffffffffffffffffff1602179055507ffda678292d5444240435c9b99fcee9e8ff1fa97977e93b7d5ae4062f52cca85385858585856040516103a39594939291906108d4565b60405180910390a15050505050565b6103ba61050c565b6103c35f610593565b565b60035481565b5f5f5f9054906101000a900473ffffffffffffffffffffffffffffffffffffffff16905090565b60045f9054906101000a900469ffffffffffffffffffff1681565b60025481565b61041b61050c565b5f73ffffffffffffffffffffffffffffffffffffffff168173ffffffffffffffffffffffffffffffffffffffff160361048b575f6040517f1e4fbdf700000000000000000000000000000000000000000000000000000000815260040161048291906108bb565b60405180910390fd5b61049481610593565b50565b6004600a9054906101000a900473ffffffffffffffffffffffffffffffffffffffff1681565b5f5f5f5f5f5f60159054906101000a900469ffffffffffffffffffff1660015460025460035460045f9054906101000a900469ffffffffffffffffffff16945094509450945094509091929394565b610514610654565b73ffffffffffffffffffffffffffffffffffffffff166105326103cb565b73ffffffffffffffffffffffffffffffffffffffff161461059157610555610654565b6040517f118cdaa700000000000000000000000000000000000000000000000000000000815260040161058891906108bb565b60405180910390fd5b565b5f5f5f9054906101000a900473ffffffffffffffffffffffffffffffffffffffff169050815f5f6101000a81548173ffffffffffffffffffffffffffffffffffffffff021916908373ffffffffffffffffffffffffffffffffffffffff1602179055508173ffffffffffffffffffffffffffffffffffffffff168173ffffffffffffffffffffffffffffffffffffffff167f8be0079c531659141344cd1fd0a4f28419497f9722a3daafe3b4186f6b6457e060405160405180910390a35050565b5f33905090565b5f5ffd5b5f73ffffffffffffffffffffffffffffffffffffffff82169050919050565b5f6106888261065f565b9050919050565b6106988161067e565b81146106a2575f5ffd5b50565b5f813590506106b38161068f565b92915050565b5f602082840312156106ce576106cd61065b565b5b5f6106db848285016106a5565b91505092915050565b5f60ff82169050919050565b6106f9816106e4565b82525050565b5f6020820190506107125f8301846106f0565b92915050565b5f819050919050565b61072a81610718565b82525050565b5f6020820190506107435f830184610721565b92915050565b5f69ffffffffffffffffffff82169050919050565b61076781610749565b82525050565b5f6020820190506107805f83018461075e565b92915050565b61078f81610749565b8114610799575f5ffd5b50565b5f813590506107aa81610786565b92915050565b6107b981610718565b81146107c3575f5ffd5b50565b5f813590506107d4816107b0565b92915050565b5f819050919050565b6107ec816107da565b81146107f6575f5ffd5b50565b5f81359050610807816107e3565b92915050565b5f5f5f5f5f60a086880312156108265761082561065b565b5b5f6108338882890161079c565b9550506020610844888289016107c6565b9450506040610855888289016107f9565b9350506060610866888289016107f9565b92505060806108778882890161079c565b9150509295509295909350565b61088d816107da565b82525050565b5f6020820190506108a65f830184610884565b92915050565b6108b58161067e565b82525050565b5f6020820190506108ce5f8301846108ac565b92915050565b5f60a0820190506108e75f83018861075e565b6108f46020830187610721565b6109016040830186610884565b61090e6060830185610884565b61091b608083018461075e565b969550505050505056fea26469706673582212208282f448f1236fa1915358c85b22d9c920c791f0a96b77f8cb4673715a40906864736f6c634300081e003300000000000000000000000074ae55ca4eaa2337f309f77a7af1b60ea9085fb6",
        "nonce": "0xb5",
        "chainId": "0x2105"
      },
      "additionalContracts": [],
      "isFixedGasLimit": false
    },
    {
      "hash": "0xf07f4ea6f30eb59dd219a0f3f0ab50dc328ed238ca5d984b787a6345247dd92e",
      "transactionType": "CREATE",
      "contractName": "Pricefeed",
      "contractAddress": "0xc75de9a3c001f6e5f45fb44a11fa7d92e82bac0e",
      "function": null,
      "arguments": [
        "0xB2B60Bb1e9796cAE4Dc4c87f456db675871b0d2B"
      ],
      "transaction": {
        "from": "0xee03621ce83bbf6e3931bccf35b144354f16ccf7",
        "gas": "0xc8eda",
        "value": "0x0",
        "input": "0x608060405260085f60146101000a81548160ff021916908360ff16021790555034801561002a575f5ffd5b50604051610d0c380380610d0c833981810160405281019061004c9190610351565b335f73ffffffffffffffffffffffffffffffffffffffff168173ffffffffffffffffffffffffffffffffffffffff16036100bd575f6040517f1e4fbdf70000000000000000000000000000000000000000000000000000000081526004016100b4919061038b565b60405180910390fd5b6100cc816100e260201b60201c565b506100dc816101a360201b60201c565b506103a4565b5f5f5f9054906101000a900473ffffffffffffffffffffffffffffffffffffffff169050815f5f6101000a81548173ffffffffffffffffffffffffffffffffffffffff021916908373ffffffffffffffffffffffffffffffffffffffff1602179055508173ffffffffffffffffffffffffffffffffffffffff168173ffffffffffffffffffffffffffffffffffffffff167f8be0079c531659141344cd1fd0a4f28419497f9722a3daafe3b4186f6b6457e060405160405180910390a35050565b6101b161022c60201b60201c565b806004600a6101000a81548173ffffffffffffffffffffffffffffffffffffffff021916908373ffffffffffffffffffffffffffffffffffffffff1602179055507fa07c91c183e42229e705a9795a1c06d76528b673788b849597364528c96eefb781604051610221919061038b565b60405180910390a150565b61023a6102c560201b60201c565b73ffffffffffffffffffffffffffffffffffffffff1661025e6102cc60201b60201c565b73ffffffffffffffffffffffffffffffffffffffff16146102c3576102876102c560201b60201c565b6040517f118cdaa70000000000000000000000000000000000000000000000000000000081526004016102ba919061038b565b60405180910390fd5b565b5f33905090565b5f5f5f9054906101000a900473ffffffffffffffffffffffffffffffffffffffff16905090565b5f5ffd5b5f73ffffffffffffffffffffffffffffffffffffffff82169050919050565b5f610320826102f7565b9050919050565b61033081610316565b811461033a575f5ffd5b50565b5f8151905061034b81610327565b92915050565b5f60208284031215610366576103656102f3565b5b5f6103738482850161033d565b91505092915050565b61038581610316565b82525050565b5f60208201905061039e5f83018461037c565b92915050565b61095b806103b15f395ff3fe608060405234801561000f575f5ffd5b50600436106100cd575f3560e01c80637b2aab031161008a578063f21f537d11610064578063f21f537d146101c7578063f2fde38b146101e5578063fc0c546a14610201578063feaf968c1461021f576100cd565b80637b2aab031461016d5780638da5cb5b1461018b578063c22c2499146101a9576100cd565b8063144fa6d7146100d1578063313ce567146100ed5780633bd1c1f71461010b5780633efe1f6414610129578063467f1ee414610147578063715018a614610163575b5f5ffd5b6100eb60048036038101906100e691906106b9565b610241565b005b6100f56102c4565b60405161010291906106ff565b60405180910390f35b6101136102d6565b6040516101209190610730565b60405180910390f35b6101316102dc565b60405161013e919061076d565b60405180910390f35b610161600480360381019061015c919061080d565b6102f7565b005b61016b6103b2565b005b6101756103c5565b6040516101829190610893565b60405180910390f35b6101936103cb565b6040516101a091906108bb565b60405180910390f35b6101b16103f2565b6040516101be919061076d565b60405180910390f35b6101cf61040d565b6040516101dc9190610893565b60405180910390f35b6101ff60048036038101906101fa91906106b9565b610413565b005b610209610497565b60405161021691906108bb565b60405180910390f35b6102276104bd565b6040516102389594939291906108d4565b60405180910390f35b61024961050c565b806004600a6101000a81548173ffffffffffffffffffffffffffffffffffffffff021916908373ffffffffffffffffffffffffffffffffffffffff1602179055507fa07c91c183e42229e705a9795a1c06d76528b673788b849597364528c96eefb7816040516102b991906108bb565b60405180910390a150565b5f60149054906101000a900460ff1681565b60015481565b5f60159054906101000a900469ffffffffffffffffffff1681565b6102ff61050c565b845f60156101000a81548169ffffffffffffffffffff021916908369ffffffffffffffffffff1602179055508360018190555082600281905550816003819055508060045f6101000a81548169ffffffffffffffffffff021916908369ffffffffffffffffffff1602179055507ffda678292d5444240435c9b99fcee9e8ff1fa97977e93b7d5ae4062f52cca85385858585856040516103a39594939291906108d4565b60405180910390a15050505050565b6103ba61050c565b6103c35f610593565b565b60035481565b5f5f5f9054906101000a900473ffffffffffffffffffffffffffffffffffffffff16905090565b60045f9054906101000a900469ffffffffffffffffffff1681565b60025481565b61041b61050c565b5f73ffffffffffffffffffffffffffffffffffffffff168173ffffffffffffffffffffffffffffffffffffffff160361048b575f6040517f1e4fbdf700000000000000000000000000000000000000000000000000000000815260040161048291906108bb565b60405180910390fd5b61049481610593565b50565b6004600a9054906101000a900473ffffffffffffffffffffffffffffffffffffffff1681565b5f5f5f5f5f5f60159054906101000a900469ffffffffffffffffffff1660015460025460035460045f9054906101000a900469ffffffffffffffffffff16945094509450945094509091929394565b610514610654565b73ffffffffffffffffffffffffffffffffffffffff166105326103cb565b73ffffffffffffffffffffffffffffffffffffffff161461059157610555610654565b6040517f118cdaa700000000000000000000000000000000000000000000000000000000815260040161058891906108bb565b60405180910390fd5b565b5f5f5f9054906101000a900473ffffffffffffffffffffffffffffffffffffffff169050815f5f6101000a81548173ffffffffffffffffffffffffffffffffffffffff021916908373ffffffffffffffffffffffffffffffffffffffff1602179055508173ffffffffffffffffffffffffffffffffffffffff168173ffffffffffffffffffffffffffffffffffffffff167f8be0079c531659141344cd1fd0a4f28419497f9722a3daafe3b4186f6b6457e060405160405180910390a35050565b5f33905090565b5f5ffd5b5f73ffffffffffffffffffffffffffffffffffffffff82169050919050565b5f6106888261065f565b9050919050565b6106988161067e565b81146106a2575f5ffd5b50565b5f813590506106b38161068f565b92915050565b5f602082840312156106ce576106cd61065b565b5b5f6106db848285016106a5565b91505092915050565b5f60ff82169050919050565b6106f9816106e4565b82525050565b5f6020820190506107125f8301846106f0565b92915050565b5f819050919050565b61072a81610718565b82525050565b5f6020820190506107435f830184610721565b92915050565b5f69ffffffffffffffffffff82169050919050565b61076781610749565b82525050565b5f6020820190506107805f83018461075e565b92915050565b61078f81610749565b8114610799575f5ffd5b50565b5f813590506107aa81610786565b92915050565b6107b981610718565b81146107c3575f5ffd5b50565b5f813590506107d4816107b0565b92915050565b5f819050919050565b6107ec816107da565b81146107f6575f5ffd5b50565b5f81359050610807816107e3565b92915050565b5f5f5f5f5f60a086880312156108265761082561065b565b5b5f6108338882890161079c565b9550506020610844888289016107c6565b9450506040610855888289016107f9565b9350506060610866888289016107f9565b92505060806108778882890161079c565b9150509295509295909350565b61088d816107da565b82525050565b5f6020820190506108a65f830184610884565b92915050565b6108b58161067e565b82525050565b5f6020820190506108ce5f8301846108ac565b92915050565b5f60a0820190506108e75f83018861075e565b6108f46020830187610721565b6109016040830186610884565b61090e6060830185610884565b61091b608083018461075e565b969550505050505056fea26469706673582212208282f448f1236fa1915358c85b22d9c920c791f0a96b77f8cb4673715a40906864736f6c634300081e0033000000000000000000000000b2b60bb1e9796cae4dc4c87f456db675871b0d2b",
        "nonce": "0xb6",
        "chainId": "0x2105"
      },
      "additionalContracts": [],
      "isFixedGasLimit": false
    },
    {
      "hash": "0xba3bb9cffeed66a38649966028b55883e918cf25b4804209e0e3198f8ae9a716",
      "transactionType": "CREATE",
      "contractName": "Pricefeed",
      "contractAddress": "0x479702c416cbbd2d95f0c5408a961f9870e6eea5",
      "function": null,
      "arguments": [
        "0xe3BaB20B2711e0577C46d14fd10bfFC0961036C3"
      ],
      "transaction": {
        "from": "0xee03621ce83bbf6e3931bccf35b144354f16ccf7",
        "gas": "0xc8eda",
        "value": "0x0",
        "input": "0x608060405260085f60146101000a81548160ff021916908360ff16021790555034801561002a575f5ffd5b50604051610d0c380380610d0c833981810160405281019061004c9190610351565b335f73ffffffffffffffffffffffffffffffffffffffff168173ffffffffffffffffffffffffffffffffffffffff16036100bd575f6040517f1e4fbdf70000000000000000000000000000000000000000000000000000000081526004016100b4919061038b565b60405180910390fd5b6100cc816100e260201b60201c565b506100dc816101a360201b60201c565b506103a4565b5f5f5f9054906101000a900473ffffffffffffffffffffffffffffffffffffffff169050815f5f6101000a81548173ffffffffffffffffffffffffffffffffffffffff021916908373ffffffffffffffffffffffffffffffffffffffff1602179055508173ffffffffffffffffffffffffffffffffffffffff168173ffffffffffffffffffffffffffffffffffffffff167f8be0079c531659141344cd1fd0a4f28419497f9722a3daafe3b4186f6b6457e060405160405180910390a35050565b6101b161022c60201b60201c565b806004600a6101000a81548173ffffffffffffffffffffffffffffffffffffffff021916908373ffffffffffffffffffffffffffffffffffffffff1602179055507fa07c91c183e42229e705a9795a1c06d76528b673788b849597364528c96eefb781604051610221919061038b565b60405180910390a150565b61023a6102c560201b60201c565b73ffffffffffffffffffffffffffffffffffffffff1661025e6102cc60201b60201c565b73ffffffffffffffffffffffffffffffffffffffff16146102c3576102876102c560201b60201c565b6040517f118cdaa70000000000000000000000000000000000000000000000000000000081526004016102ba919061038b565b60405180910390fd5b565b5f33905090565b5f5f5f9054906101000a900473ffffffffffffffffffffffffffffffffffffffff16905090565b5f5ffd5b5f73ffffffffffffffffffffffffffffffffffffffff82169050919050565b5f610320826102f7565b9050919050565b61033081610316565b811461033a575f5ffd5b50565b5f8151905061034b81610327565b92915050565b5f60208284031215610366576103656102f3565b5b5f6103738482850161033d565b91505092915050565b61038581610316565b82525050565b5f60208201905061039e5f83018461037c565b92915050565b61095b806103b15f395ff3fe608060405234801561000f575f5ffd5b50600436106100cd575f3560e01c80637b2aab031161008a578063f21f537d11610064578063f21f537d146101c7578063f2fde38b146101e5578063fc0c546a14610201578063feaf968c1461021f576100cd565b80637b2aab031461016d5780638da5cb5b1461018b578063c22c2499146101a9576100cd565b8063144fa6d7146100d1578063313ce567146100ed5780633bd1c1f71461010b5780633efe1f6414610129578063467f1ee414610147578063715018a614610163575b5f5ffd5b6100eb60048036038101906100e691906106b9565b610241565b005b6100f56102c4565b60405161010291906106ff565b60405180910390f35b6101136102d6565b6040516101209190610730565b60405180910390f35b6101316102dc565b60405161013e919061076d565b60405180910390f35b610161600480360381019061015c919061080d565b6102f7565b005b61016b6103b2565b005b6101756103c5565b6040516101829190610893565b60405180910390f35b6101936103cb565b6040516101a091906108bb565b60405180910390f35b6101b16103f2565b6040516101be919061076d565b60405180910390f35b6101cf61040d565b6040516101dc9190610893565b60405180910390f35b6101ff60048036038101906101fa91906106b9565b610413565b005b610209610497565b60405161021691906108bb565b60405180910390f35b6102276104bd565b6040516102389594939291906108d4565b60405180910390f35b61024961050c565b806004600a6101000a81548173ffffffffffffffffffffffffffffffffffffffff021916908373ffffffffffffffffffffffffffffffffffffffff1602179055507fa07c91c183e42229e705a9795a1c06d76528b673788b849597364528c96eefb7816040516102b991906108bb565b60405180910390a150565b5f60149054906101000a900460ff1681565b60015481565b5f60159054906101000a900469ffffffffffffffffffff1681565b6102ff61050c565b845f60156101000a81548169ffffffffffffffffffff021916908369ffffffffffffffffffff1602179055508360018190555082600281905550816003819055508060045f6101000a81548169ffffffffffffffffffff021916908369ffffffffffffffffffff1602179055507ffda678292d5444240435c9b99fcee9e8ff1fa97977e93b7d5ae4062f52cca85385858585856040516103a39594939291906108d4565b60405180910390a15050505050565b6103ba61050c565b6103c35f610593565b565b60035481565b5f5f5f9054906101000a900473ffffffffffffffffffffffffffffffffffffffff16905090565b60045f9054906101000a900469ffffffffffffffffffff1681565b60025481565b61041b61050c565b5f73ffffffffffffffffffffffffffffffffffffffff168173ffffffffffffffffffffffffffffffffffffffff160361048b575f6040517f1e4fbdf700000000000000000000000000000000000000000000000000000000815260040161048291906108bb565b60405180910390fd5b61049481610593565b50565b6004600a9054906101000a900473ffffffffffffffffffffffffffffffffffffffff1681565b5f5f5f5f5f5f60159054906101000a900469ffffffffffffffffffff1660015460025460035460045f9054906101000a900469ffffffffffffffffffff16945094509450945094509091929394565b610514610654565b73ffffffffffffffffffffffffffffffffffffffff166105326103cb565b73ffffffffffffffffffffffffffffffffffffffff161461059157610555610654565b6040517f118cdaa700000000000000000000000000000000000000000000000000000000815260040161058891906108bb565b60405180910390fd5b565b5f5f5f9054906101000a900473ffffffffffffffffffffffffffffffffffffffff169050815f5f6101000a81548173ffffffffffffffffffffffffffffffffffffffff021916908373ffffffffffffffffffffffffffffffffffffffff1602179055508173ffffffffffffffffffffffffffffffffffffffff168173ffffffffffffffffffffffffffffffffffffffff167f8be0079c531659141344cd1fd0a4f28419497f9722a3daafe3b4186f6b6457e060405160405180910390a35050565b5f33905090565b5f5ffd5b5f73ffffffffffffffffffffffffffffffffffffffff82169050919050565b5f6106888261065f565b9050919050565b6106988161067e565b81146106a2575f5ffd5b50565b5f813590506106b38161068f565b92915050565b5f602082840312156106ce576106cd61065b565b5b5f6106db848285016106a5565b91505092915050565b5f60ff82169050919050565b6106f9816106e4565b82525050565b5f6020820190506107125f8301846106f0565b92915050565b5f819050919050565b61072a81610718565b82525050565b5f6020820190506107435f830184610721565b92915050565b5f69ffffffffffffffffffff82169050919050565b61076781610749565b82525050565b5f6020820190506107805f83018461075e565b92915050565b61078f81610749565b8114610799575f5ffd5b50565b5f813590506107aa81610786565b92915050565b6107b981610718565b81146107c3575f5ffd5b50565b5f813590506107d4816107b0565b92915050565b5f819050919050565b6107ec816107da565b81146107f6575f5ffd5b50565b5f81359050610807816107e3565b92915050565b5f5f5f5f5f60a086880312156108265761082561065b565b5b5f6108338882890161079c565b9550506020610844888289016107c6565b9450506040610855888289016107f9565b9350506060610866888289016107f9565b92505060806108778882890161079c565b9150509295509295909350565b61088d816107da565b82525050565b5f6020820190506108a65f830184610884565b92915050565b6108b58161067e565b82525050565b5f6020820190506108ce5f8301846108ac565b92915050565b5f60a0820190506108e75f83018861075e565b6108f46020830187610721565b6109016040830186610884565b61090e6060830185610884565b61091b608083018461075e565b969550505050505056fea26469706673582212208282f448f1236fa1915358c85b22d9c920c791f0a96b77f8cb4673715a40906864736f6c634300081e0033000000000000000000000000e3bab20b2711e0577c46d14fd10bffc0961036c3",
        "nonce": "0xb7",
        "chainId": "0x2105"
      },
      "additionalContracts": [],
      "isFixedGasLimit": false
    },
    {
      "hash": "0x26c3226fcb46573c7803ef39cffd1c0234c26a5157eb58e217c696de3218fe9e",
      "transactionType": "CREATE",
      "contractName": "Pricefeed",
      "contractAddress": "0x7f7e97a31409ca29f1878e0d1b7068160834739b",
      "function": null,
      "arguments": [
        "0xE29A9fBdf3d83c126C6366D7f401473Ab0850e7F"
      ],
      "transaction": {
        "from": "0xee03621ce83bbf6e3931bccf35b144354f16ccf7",
        "gas": "0xc8eda",
        "value": "0x0",
        "input": "0x608060405260085f60146101000a81548160ff021916908360ff16021790555034801561002a575f5ffd5b50604051610d0c380380610d0c833981810160405281019061004c9190610351565b335f73ffffffffffffffffffffffffffffffffffffffff168173ffffffffffffffffffffffffffffffffffffffff16036100bd575f6040517f1e4fbdf70000000000000000000000000000000000000000000000000000000081526004016100b4919061038b565b60405180910390fd5b6100cc816100e260201b60201c565b506100dc816101a360201b60201c565b506103a4565b5f5f5f9054906101000a900473ffffffffffffffffffffffffffffffffffffffff169050815f5f6101000a81548173ffffffffffffffffffffffffffffffffffffffff021916908373ffffffffffffffffffffffffffffffffffffffff1602179055508173ffffffffffffffffffffffffffffffffffffffff168173ffffffffffffffffffffffffffffffffffffffff167f8be0079c531659141344cd1fd0a4f28419497f9722a3daafe3b4186f6b6457e060405160405180910390a35050565b6101b161022c60201b60201c565b806004600a6101000a81548173ffffffffffffffffffffffffffffffffffffffff021916908373ffffffffffffffffffffffffffffffffffffffff1602179055507fa07c91c183e42229e705a9795a1c06d76528b673788b849597364528c96eefb781604051610221919061038b565b60405180910390a150565b61023a6102c560201b60201c565b73ffffffffffffffffffffffffffffffffffffffff1661025e6102cc60201b60201c565b73ffffffffffffffffffffffffffffffffffffffff16146102c3576102876102c560201b60201c565b6040517f118cdaa70000000000000000000000000000000000000000000000000000000081526004016102ba919061038b565b60405180910390fd5b565b5f33905090565b5f5f5f9054906101000a900473ffffffffffffffffffffffffffffffffffffffff16905090565b5f5ffd5b5f73ffffffffffffffffffffffffffffffffffffffff82169050919050565b5f610320826102f7565b9050919050565b61033081610316565b811461033a575f5ffd5b50565b5f8151905061034b81610327565b92915050565b5f60208284031215610366576103656102f3565b5b5f6103738482850161033d565b91505092915050565b61038581610316565b82525050565b5f60208201905061039e5f83018461037c565b92915050565b61095b806103b15f395ff3fe608060405234801561000f575f5ffd5b50600436106100cd575f3560e01c80637b2aab031161008a578063f21f537d11610064578063f21f537d146101c7578063f2fde38b146101e5578063fc0c546a14610201578063feaf968c1461021f576100cd565b80637b2aab031461016d5780638da5cb5b1461018b578063c22c2499146101a9576100cd565b8063144fa6d7146100d1578063313ce567146100ed5780633bd1c1f71461010b5780633efe1f6414610129578063467f1ee414610147578063715018a614610163575b5f5ffd5b6100eb60048036038101906100e691906106b9565b610241565b005b6100f56102c4565b60405161010291906106ff565b60405180910390f35b6101136102d6565b6040516101209190610730565b60405180910390f35b6101316102dc565b60405161013e919061076d565b60405180910390f35b610161600480360381019061015c919061080d565b6102f7565b005b61016b6103b2565b005b6101756103c5565b6040516101829190610893565b60405180910390f35b6101936103cb565b6040516101a091906108bb565b60405180910390f35b6101b16103f2565b6040516101be919061076d565b60405180910390f35b6101cf61040d565b6040516101dc9190610893565b60405180910390f35b6101ff60048036038101906101fa91906106b9565b610413565b005b610209610497565b60405161021691906108bb565b60405180910390f35b6102276104bd565b6040516102389594939291906108d4565b60405180910390f35b61024961050c565b806004600a6101000a81548173ffffffffffffffffffffffffffffffffffffffff021916908373ffffffffffffffffffffffffffffffffffffffff1602179055507fa07c91c183e42229e705a9795a1c06d76528b673788b849597364528c96eefb7816040516102b991906108bb565b60405180910390a150565b5f60149054906101000a900460ff1681565b60015481565b5f60159054906101000a900469ffffffffffffffffffff1681565b6102ff61050c565b845f60156101000a81548169ffffffffffffffffffff021916908369ffffffffffffffffffff1602179055508360018190555082600281905550816003819055508060045f6101000a81548169ffffffffffffffffffff021916908369ffffffffffffffffffff1602179055507ffda678292d5444240435c9b99fcee9e8ff1fa97977e93b7d5ae4062f52cca85385858585856040516103a39594939291906108d4565b60405180910390a15050505050565b6103ba61050c565b6103c35f610593565b565b60035481565b5f5f5f9054906101000a900473ffffffffffffffffffffffffffffffffffffffff16905090565b60045f9054906101000a900469ffffffffffffffffffff1681565b60025481565b61041b61050c565b5f73ffffffffffffffffffffffffffffffffffffffff168173ffffffffffffffffffffffffffffffffffffffff160361048b575f6040517f1e4fbdf700000000000000000000000000000000000000000000000000000000815260040161048291906108bb565b60405180910390fd5b61049481610593565b50565b6004600a9054906101000a900473ffffffffffffffffffffffffffffffffffffffff1681565b5f5f5f5f5f5f60159054906101000a900469ffffffffffffffffffff1660015460025460035460045f9054906101000a900469ffffffffffffffffffff16945094509450945094509091929394565b610514610654565b73ffffffffffffffffffffffffffffffffffffffff166105326103cb565b73ffffffffffffffffffffffffffffffffffffffff161461059157610555610654565b6040517f118cdaa700000000000000000000000000000000000000000000000000000000815260040161058891906108bb565b60405180910390fd5b565b5f5f5f9054906101000a900473ffffffffffffffffffffffffffffffffffffffff169050815f5f6101000a81548173ffffffffffffffffffffffffffffffffffffffff021916908373ffffffffffffffffffffffffffffffffffffffff1602179055508173ffffffffffffffffffffffffffffffffffffffff168173ffffffffffffffffffffffffffffffffffffffff167f8be0079c531659141344cd1fd0a4f28419497f9722a3daafe3b4186f6b6457e060405160405180910390a35050565b5f33905090565b5f5ffd5b5f73ffffffffffffffffffffffffffffffffffffffff82169050919050565b5f6106888261065f565b9050919050565b6106988161067e565b81146106a2575f5ffd5b50565b5f813590506106b38161068f565b92915050565b5f602082840312156106ce576106cd61065b565b5b5f6106db848285016106a5565b91505092915050565b5f60ff82169050919050565b6106f9816106e4565b82525050565b5f6020820190506107125f8301846106f0565b92915050565b5f819050919050565b61072a81610718565b82525050565b5f6020820190506107435f830184610721565b92915050565b5f69ffffffffffffffffffff82169050919050565b61076781610749565b82525050565b5f6020820190506107805f83018461075e565b92915050565b61078f81610749565b8114610799575f5ffd5b50565b5f813590506107aa81610786565b92915050565b6107b981610718565b81146107c3575f5ffd5b50565b5f813590506107d4816107b0565b92915050565b5f819050919050565b6107ec816107da565b81146107f6575f5ffd5b50565b5f81359050610807816107e3565b92915050565b5f5f5f5f5f60a086880312156108265761082561065b565b5b5f6108338882890161079c565b9550506020610844888289016107c6565b9450506040610855888289016107f9565b9350506060610866888289016107f9565b92505060806108778882890161079c565b9150509295509295909350565b61088d816107da565b82525050565b5f6020820190506108a65f830184610884565b92915050565b6108b58161067e565b82525050565b5f6020820190506108ce5f8301846108ac565b92915050565b5f60a0820190506108e75f83018861075e565b6108f46020830187610721565b6109016040830186610884565b61090e6060830185610884565b61091b608083018461075e565b969550505050505056fea26469706673582212208282f448f1236fa1915358c85b22d9c920c791f0a96b77f8cb4673715a40906864736f6c634300081e0033000000000000000000000000e29a9fbdf3d83c126c6366d7f401473ab0850e7f",
        "nonce": "0xb8",
        "chainId": "0x2105"
      },
      "additionalContracts": [],
      "isFixedGasLimit": false
    },
    {
      "hash": "0x9649ed149dff5299cf0503ad2d396d566ae32b6afd31cf185831528ac5cf9641",
      "transactionType": "CREATE",
      "contractName": "Pricefeed",
      "contractAddress": "0xe8484f0442707c3daec850be6e05a128100a00cd",
      "function": null,
      "arguments": [
        "0xEF0CeF5eB4F2B475b00C9Cae5E58065f9f5062E8"
      ],
      "transaction": {
        "from": "0xee03621ce83bbf6e3931bccf35b144354f16ccf7",
        "gas": "0xc8eda",
        "value": "0x0",
        "input": "0x608060405260085f60146101000a81548160ff021916908360ff16021790555034801561002a575f5ffd5b50604051610d0c380380610d0c833981810160405281019061004c9190610351565b335f73ffffffffffffffffffffffffffffffffffffffff168173ffffffffffffffffffffffffffffffffffffffff16036100bd575f6040517f1e4fbdf70000000000000000000000000000000000000000000000000000000081526004016100b4919061038b565b60405180910390fd5b6100cc816100e260201b60201c565b506100dc816101a360201b60201c565b506103a4565b5f5f5f9054906101000a900473ffffffffffffffffffffffffffffffffffffffff169050815f5f6101000a81548173ffffffffffffffffffffffffffffffffffffffff021916908373ffffffffffffffffffffffffffffffffffffffff1602179055508173ffffffffffffffffffffffffffffffffffffffff168173ffffffffffffffffffffffffffffffffffffffff167f8be0079c531659141344cd1fd0a4f28419497f9722a3daafe3b4186f6b6457e060405160405180910390a35050565b6101b161022c60201b60201c565b806004600a6101000a81548173ffffffffffffffffffffffffffffffffffffffff021916908373ffffffffffffffffffffffffffffffffffffffff1602179055507fa07c91c183e42229e705a9795a1c06d76528b673788b849597364528c96eefb781604051610221919061038b565b60405180910390a150565b61023a6102c560201b60201c565b73ffffffffffffffffffffffffffffffffffffffff1661025e6102cc60201b60201c565b73ffffffffffffffffffffffffffffffffffffffff16146102c3576102876102c560201b60201c565b6040517f118cdaa70000000000000000000000000000000000000000000000000000000081526004016102ba919061038b565b60405180910390fd5b565b5f33905090565b5f5f5f9054906101000a900473ffffffffffffffffffffffffffffffffffffffff16905090565b5f5ffd5b5f73ffffffffffffffffffffffffffffffffffffffff82169050919050565b5f610320826102f7565b9050919050565b61033081610316565b811461033a575f5ffd5b50565b5f8151905061034b81610327565b92915050565b5f60208284031215610366576103656102f3565b5b5f6103738482850161033d565b91505092915050565b61038581610316565b82525050565b5f60208201905061039e5f83018461037c565b92915050565b61095b806103b15f395ff3fe608060405234801561000f575f5ffd5b50600436106100cd575f3560e01c80637b2aab031161008a578063f21f537d11610064578063f21f537d146101c7578063f2fde38b146101e5578063fc0c546a14610201578063feaf968c1461021f576100cd565b80637b2aab031461016d5780638da5cb5b1461018b578063c22c2499146101a9576100cd565b8063144fa6d7146100d1578063313ce567146100ed5780633bd1c1f71461010b5780633efe1f6414610129578063467f1ee414610147578063715018a614610163575b5f5ffd5b6100eb60048036038101906100e691906106b9565b610241565b005b6100f56102c4565b60405161010291906106ff565b60405180910390f35b6101136102d6565b6040516101209190610730565b60405180910390f35b6101316102dc565b60405161013e919061076d565b60405180910390f35b610161600480360381019061015c919061080d565b6102f7565b005b61016b6103b2565b005b6101756103c5565b6040516101829190610893565b60405180910390f35b6101936103cb565b6040516101a091906108bb565b60405180910390f35b6101b16103f2565b6040516101be919061076d565b60405180910390f35b6101cf61040d565b6040516101dc9190610893565b60405180910390f35b6101ff60048036038101906101fa91906106b9565b610413565b005b610209610497565b60405161021691906108bb565b60405180910390f35b6102276104bd565b6040516102389594939291906108d4565b60405180910390f35b61024961050c565b806004600a6101000a81548173ffffffffffffffffffffffffffffffffffffffff021916908373ffffffffffffffffffffffffffffffffffffffff1602179055507fa07c91c183e42229e705a9795a1c06d76528b673788b849597364528c96eefb7816040516102b991906108bb565b60405180910390a150565b5f60149054906101000a900460ff1681565b60015481565b5f60159054906101000a900469ffffffffffffffffffff1681565b6102ff61050c565b845f60156101000a81548169ffffffffffffffffffff021916908369ffffffffffffffffffff1602179055508360018190555082600281905550816003819055508060045f6101000a81548169ffffffffffffffffffff021916908369ffffffffffffffffffff1602179055507ffda678292d5444240435c9b99fcee9e8ff1fa97977e93b7d5ae4062f52cca85385858585856040516103a39594939291906108d4565b60405180910390a15050505050565b6103ba61050c565b6103c35f610593565b565b60035481565b5f5f5f9054906101000a900473ffffffffffffffffffffffffffffffffffffffff16905090565b60045f9054906101000a900469ffffffffffffffffffff1681565b60025481565b61041b61050c565b5f73ffffffffffffffffffffffffffffffffffffffff168173ffffffffffffffffffffffffffffffffffffffff160361048b575f6040517f1e4fbdf700000000000000000000000000000000000000000000000000000000815260040161048291906108bb565b60405180910390fd5b61049481610593565b50565b6004600a9054906101000a900473ffffffffffffffffffffffffffffffffffffffff1681565b5f5f5f5f5f5f60159054906101000a900469ffffffffffffffffffff1660015460025460035460045f9054906101000a900469ffffffffffffffffffff16945094509450945094509091929394565b610514610654565b73ffffffffffffffffffffffffffffffffffffffff166105326103cb565b73ffffffffffffffffffffffffffffffffffffffff161461059157610555610654565b6040517f118cdaa700000000000000000000000000000000000000000000000000000000815260040161058891906108bb565b60405180910390fd5b565b5f5f5f9054906101000a900473ffffffffffffffffffffffffffffffffffffffff169050815f5f6101000a81548173ffffffffffffffffffffffffffffffffffffffff021916908373ffffffffffffffffffffffffffffffffffffffff1602179055508173ffffffffffffffffffffffffffffffffffffffff168173ffffffffffffffffffffffffffffffffffffffff167f8be0079c531659141344cd1fd0a4f28419497f9722a3daafe3b4186f6b6457e060405160405180910390a35050565b5f33905090565b5f5ffd5b5f73ffffffffffffffffffffffffffffffffffffffff82169050919050565b5f6106888261065f565b9050919050565b6106988161067e565b81146106a2575f5ffd5b50565b5f813590506106b38161068f565b92915050565b5f602082840312156106ce576106cd61065b565b5b5f6106db848285016106a5565b91505092915050565b5f60ff82169050919050565b6106f9816106e4565b82525050565b5f6020820190506107125f8301846106f0565b92915050565b5f819050919050565b61072a81610718565b82525050565b5f6020820190506107435f830184610721565b92915050565b5f69ffffffffffffffffffff82169050919050565b61076781610749565b82525050565b5f6020820190506107805f83018461075e565b92915050565b61078f81610749565b8114610799575f5ffd5b50565b5f813590506107aa81610786565b92915050565b6107b981610718565b81146107c3575f5ffd5b50565b5f813590506107d4816107b0565b92915050565b5f819050919050565b6107ec816107da565b81146107f6575f5ffd5b50565b5f81359050610807816107e3565b92915050565b5f5f5f5f5f60a086880312156108265761082561065b565b5b5f6108338882890161079c565b9550506020610844888289016107c6565b9450506040610855888289016107f9565b9350506060610866888289016107f9565b92505060806108778882890161079c565b9150509295509295909350565b61088d816107da565b82525050565b5f6020820190506108a65f830184610884565b92915050565b6108b58161067e565b82525050565b5f6020820190506108ce5f8301846108ac565b92915050565b5f60a0820190506108e75f83018861075e565b6108f46020830187610721565b6109016040830186610884565b61090e6060830185610884565b61091b608083018461075e565b969550505050505056fea26469706673582212208282f448f1236fa1915358c85b22d9c920c791f0a96b77f8cb4673715a40906864736f6c634300081e0033000000000000000000000000ef0cef5eb4f2b475b00c9cae5e58065f9f5062e8",
        "nonce": "0xb9",
        "chainId": "0x2105"
      },
      "additionalContracts": [],
      "isFixedGasLimit": false
    },
    {
      "hash": "0xd0bcf1fe4c6fadb8d7c511bbea35a797a630b952bd1de8714c3a4b9ab436128e",
      "transactionType": "CALL",
      "contractName": "Pricefeed",
      "contractAddress": "0x7b7a330edc927cd77b41c198ac4fe25a6b5c2c3b",
      "function": "setPrice(uint80,int256,uint256,uint256,uint80)",
      "arguments": [
        "1",
        "73000000",
        "1760965861",
        "1760965861",
        "1"
      ],
      "transaction": {
        "from": "0xee03621ce83bbf6e3931bccf35b144354f16ccf7",
        "to": "0x7b7a330edc927cd77b41c198ac4fe25a6b5c2c3b",
        "gas": "0x228e0",
        "value": "0x0",
        "input": "0x467f1ee40000000000000000000000000000000000000000000000000000000000000001000000000000000000000000000000000000000000000000000000000459e4400000000000000000000000000000000000000000000000000000000068f634e50000000000000000000000000000000000000000000000000000000068f634e50000000000000000000000000000000000000000000000000000000000000001",
        "nonce": "0xba",
        "chainId": "0x2105"
      },
      "additionalContracts": [],
      "isFixedGasLimit": false
    },
    {
      "hash": "0x2ce1b6a3bd9d7d26c6ed936ec12ed01a7f32a009dd59f1638c2dd9eb695a52f7",
      "transactionType": "CALL",
      "contractName": "Pricefeed",
      "contractAddress": "0xeda712e6d5f0c989e9bdeeb8dadb2f4b4f54acc5",
      "function": "setPrice(uint80,int256,uint256,uint256,uint80)",
      "arguments": [
        "1",
        "730",
        "1760965861",
        "1760965861",
        "1"
      ],
      "transaction": {
        "from": "0xee03621ce83bbf6e3931bccf35b144354f16ccf7",
        "to": "0xeda712e6d5f0c989e9bdeeb8dadb2f4b4f54acc5",
        "gas": "0x228be",
        "value": "0x0",
        "input": "0x467f1ee4000000000000000000000000000000000000000000000000000000000000000100000000000000000000000000000000000000000000000000000000000002da0000000000000000000000000000000000000000000000000000000068f634e50000000000000000000000000000000000000000000000000000000068f634e50000000000000000000000000000000000000000000000000000000000000001",
        "nonce": "0xbb",
        "chainId": "0x2105"
      },
      "additionalContracts": [],
      "isFixedGasLimit": false
    },
    {
      "hash": "0x365ea53d6d8716499980b1bf8b41e4fc86f5e7ba3faaf3fca383b1aedb9c7371",
      "transactionType": "CALL",
      "contractName": "Pricefeed",
      "contractAddress": "0x43db7ff630c993f080f315007961756f2b96fa45",
      "function": "setPrice(uint80,int256,uint256,uint256,uint80)",
      "arguments": [
        "1",
        "750",
        "1760965861",
        "1760965861",
        "1"
      ],
      "transaction": {
        "from": "0xee03621ce83bbf6e3931bccf35b144354f16ccf7",
        "to": "0x43db7ff630c993f080f315007961756f2b96fa45",
        "gas": "0x228be",
        "value": "0x0",
        "input": "0x467f1ee4000000000000000000000000000000000000000000000000000000000000000100000000000000000000000000000000000000000000000000000000000002ee0000000000000000000000000000000000000000000000000000000068f634e50000000000000000000000000000000000000000000000000000000068f634e50000000000000000000000000000000000000000000000000000000000000001",
        "nonce": "0xbc",
        "chainId": "0x2105"
      },
      "additionalContracts": [],
      "isFixedGasLimit": false
    },
    {
      "hash": "0xf1e606a3c47a6a11376deb8692552100e766bc7b410ee79ef8a2bb0a0e5d726d",
      "transactionType": "CALL",
      "contractName": "Pricefeed",
      "contractAddress": "0x2f7c95d1848cb0a5e36de0d4db04c4afe09053dd",
      "function": "setPrice(uint80,int256,uint256,uint256,uint80)",
      "arguments": [
        "1",
        "3000000",
        "1760965861",
        "1760965861",
        "1"
      ],
      "transaction": {
        "from": "0xee03621ce83bbf6e3931bccf35b144354f16ccf7",
        "to": "0x2f7c95d1848cb0a5e36de0d4db04c4afe09053dd",
        "gas": "0x24954",
        "value": "0x0",
        "input": "0x467f1ee4000000000000000000000000000000000000000000000000000000000000000100000000000000000000000000000000000000000000000000000000002dc6c00000000000000000000000000000000000000000000000000000000068f634e50000000000000000000000000000000000000000000000000000000068f634e50000000000000000000000000000000000000000000000000000000000000001",
        "nonce": "0xbd",
        "chainId": "0x2105"
      },
      "additionalContracts": [],
      "isFixedGasLimit": false
    },
    {
      "hash": "0xa43d00f109b04eb2df103c3c22c6070894c463efa990855ada9fa04aff02329d",
      "transactionType": "CALL",
      "contractName": "Pricefeed",
      "contractAddress": "0x618942af15f2fe6f451bee0e094d46df39822e74",
      "function": "setPrice(uint80,int256,uint256,uint256,uint80)",
      "arguments": [
        "1",
        "5000",
        "1760965861",
        "1760965861",
        "1"
      ],
      "transaction": {
        "from": "0xee03621ce83bbf6e3931bccf35b144354f16ccf7",
        "to": "0x618942af15f2fe6f451bee0e094d46df39822e74",
        "gas": "0x228be",
        "value": "0x0",
        "input": "0x467f1ee4000000000000000000000000000000000000000000000000000000000000000100000000000000000000000000000000000000000000000000000000000013880000000000000000000000000000000000000000000000000000000068f634e50000000000000000000000000000000000000000000000000000000068f634e50000000000000000000000000000000000000000000000000000000000000001",
        "nonce": "0xbe",
        "chainId": "0x2105"
      },
      "additionalContracts": [],
      "isFixedGasLimit": false
    },
    {
      "hash": "0xc168ff6cf4f390331b55f3ff273156feea6ce741d2df2baa97b8e07e2f71caa1",
      "transactionType": "CALL",
      "contractName": "Pricefeed",
      "contractAddress": "0xbf374ffdde61ebf4e19dc0320bd2ded9de447eb4",
      "function": "setPrice(uint80,int256,uint256,uint256,uint80)",
      "arguments": [
        "1",
        "74000000",
        "1760965861",
        "1760965861",
        "1"
      ],
      "transaction": {
        "from": "0xee03621ce83bbf6e3931bccf35b144354f16ccf7",
        "to": "0xbf374ffdde61ebf4e19dc0320bd2ded9de447eb4",
        "gas": "0x228e0",
        "value": "0x0",
        "input": "0x467f1ee4000000000000000000000000000000000000000000000000000000000000000100000000000000000000000000000000000000000000000000000000046926800000000000000000000000000000000000000000000000000000000068f634e50000000000000000000000000000000000000000000000000000000068f634e50000000000000000000000000000000000000000000000000000000000000001",
        "nonce": "0xbf",
        "chainId": "0x2105"
      },
      "additionalContracts": [],
      "isFixedGasLimit": false
    },
    {
      "hash": "0x4c19457448d2528a50916f9df83a4afa0dad7f2029ec53d8fcb900d900a38fbd",
      "transactionType": "CALL",
      "contractName": "Pricefeed",
      "contractAddress": "0x88d873c00658874996e07e98e84ff89c3aa314c1",
      "function": "setPrice(uint80,int256,uint256,uint256,uint80)",
      "arguments": [
        "1",
        "5500000",
        "1760965861",
        "1760965861",
        "1"
      ],
      "transaction": {
        "from": "0xee03621ce83bbf6e3931bccf35b144354f16ccf7",
        "to": "0x88d873c00658874996e07e98e84ff89c3aa314c1",
        "gas": "0x24954",
        "value": "0x0",
        "input": "0x467f1ee40000000000000000000000000000000000000000000000000000000000000001000000000000000000000000000000000000000000000000000000000053ec600000000000000000000000000000000000000000000000000000000068f634e50000000000000000000000000000000000000000000000000000000068f634e50000000000000000000000000000000000000000000000000000000000000001",
        "nonce": "0xc0",
        "chainId": "0x2105"
      },
      "additionalContracts": [],
      "isFixedGasLimit": false
    },
    {
      "hash": "0x75964e83996354bf1c9dc1e31729fe137af4275695a1b473a9e488009611bc59",
      "transactionType": "CALL",
      "contractName": "Pricefeed",
      "contractAddress": "0x7e588b76807b0adf014c4cea3d9df28d4c5e7c80",
      "function": "setPrice(uint80,int256,uint256,uint256,uint80)",
      "arguments": [
        "1",
        "67",
        "1760965861",
        "1760965861",
        "1"
      ],
      "transaction": {
        "from": "0xee03621ce83bbf6e3931bccf35b144354f16ccf7",
        "to": "0x7e588b76807b0adf014c4cea3d9df28d4c5e7c80",
        "gas": "0x24931",
        "value": "0x0",
        "input": "0x467f1ee4000000000000000000000000000000000000000000000000000000000000000100000000000000000000000000000000000000000000000000000000000000430000000000000000000000000000000000000000000000000000000068f634e50000000000000000000000000000000000000000000000000000000068f634e50000000000000000000000000000000000000000000000000000000000000001",
        "nonce": "0xc1",
        "chainId": "0x2105"
      },
      "additionalContracts": [],
      "isFixedGasLimit": false
    },
    {
      "hash": "0xacc7c0b6d9ef18c40db996534c51d1c351fe306ae86581994aa5815d27430cd7",
      "transactionType": "CALL",
      "contractName": "Pricefeed",
      "contractAddress": "0xc75de9a3c001f6e5f45fb44a11fa7d92e82bac0e",
      "function": "setPrice(uint80,int256,uint256,uint256,uint80)",
      "arguments": [
        "1",
        "108000000",
        "1760965861",
        "1760965861",
        "1"
      ],
      "transaction": {
        "from": "0xee03621ce83bbf6e3931bccf35b144354f16ccf7",
        "to": "0xc75de9a3c001f6e5f45fb44a11fa7d92e82bac0e",
        "gas": "0x24954",
        "value": "0x0",
        "input": "0x467f1ee4000000000000000000000000000000000000000000000000000000000000000100000000000000000000000000000000000000000000000000000000066ff3000000000000000000000000000000000000000000000000000000000068f634e50000000000000000000000000000000000000000000000000000000068f634e50000000000000000000000000000000000000000000000000000000000000001",
        "nonce": "0xc2",
        "chainId": "0x2105"
      },
      "additionalContracts": [],
      "isFixedGasLimit": false
    },
    {
      "hash": "0xfefde7448509ccf66dff800849ad8af768431b01009c1e17d22bab74eda0e43c",
      "transactionType": "CALL",
      "contractName": "Pricefeed",
      "contractAddress": "0x479702c416cbbd2d95f0c5408a961f9870e6eea5",
      "function": "setPrice(uint80,int256,uint256,uint256,uint80)",
      "arguments": [
        "1",
        "100000000",
        "1760965861",
        "1760965861",
        "1"
      ],
      "transaction": {
        "from": "0xee03621ce83bbf6e3931bccf35b144354f16ccf7",
        "to": "0x479702c416cbbd2d95f0c5408a961f9870e6eea5",
        "gas": "0x24954",
        "value": "0x0",
        "input": "0x467f1ee400000000000000000000000000000000000000000000000000000000000000010000000000000000000000000000000000000000000000000000000005f5e1000000000000000000000000000000000000000000000000000000000068f634e50000000000000000000000000000000000000000000000000000000068f634e50000000000000000000000000000000000000000000000000000000000000001",
        "nonce": "0xc3",
        "chainId": "0x2105"
      },
      "additionalContracts": [],
      "isFixedGasLimit": false
    },
    {
      "hash": "0xfa32ff357443108abcb391c18a09ff02a809ed1fd155535f9b28d19cf7455b2a",
      "transactionType": "CALL",
      "contractName": "Pricefeed",
      "contractAddress": "0x7f7e97a31409ca29f1878e0d1b7068160834739b",
      "function": "setPrice(uint80,int256,uint256,uint256,uint80)",
      "arguments": [
        "1",
        "350000000000",
        "1760965861",
        "1760965861",
        "1"
      ],
      "transaction": {
        "from": "0xee03621ce83bbf6e3931bccf35b144354f16ccf7",
        "to": "0x7f7e97a31409ca29f1878e0d1b7068160834739b",
        "gas": "0x228e0",
        "value": "0x0",
        "input": "0x467f1ee40000000000000000000000000000000000000000000000000000000000000001000000000000000000000000000000000000000000000000000000517da02c000000000000000000000000000000000000000000000000000000000068f634e50000000000000000000000000000000000000000000000000000000068f634e50000000000000000000000000000000000000000000000000000000000000001",
        "nonce": "0xc4",
        "chainId": "0x2105"
      },
      "additionalContracts": [],
      "isFixedGasLimit": false
    },
    {
      "hash": "0x074e0fc3a0122858981a1018eaa3bf75c51e8b62af427fee3a6f7068af7baa8e",
      "transactionType": "CALL",
      "contractName": "Pricefeed",
      "contractAddress": "0xe8484f0442707c3daec850be6e05a128100a00cd",
      "function": "setPrice(uint80,int256,uint256,uint256,uint80)",
      "arguments": [
        "1",
        "9500000000000",
        "1760965861",
        "1760965861",
        "1"
      ],
      "transaction": {
        "from": "0xee03621ce83bbf6e3931bccf35b144354f16ccf7",
        "to": "0xe8484f0442707c3daec850be6e05a128100a00cd",
        "gas": "0x24977",
        "value": "0x0",
        "input": "0x467f1ee40000000000000000000000000000000000000000000000000000000000000001000000000000000000000000000000000000000000000000000008a3e42018000000000000000000000000000000000000000000000000000000000068f634e50000000000000000000000000000000000000000000000000000000068f634e50000000000000000000000000000000000000000000000000000000000000001",
        "nonce": "0xc5",
        "chainId": "0x2105"
      },
      "additionalContracts": [],
      "isFixedGasLimit": false
    }
  ],
  "receipts": [
    {
      "status": "0x1",
      "cumulativeGasUsed": "0x1cf06c7",
      "logs": [
        {
          "address": "0x7b7a330edc927cd77b41c198ac4fe25a6b5c2c3b",
          "topics": [
            "0x8be0079c531659141344cd1fd0a4f28419497f9722a3daafe3b4186f6b6457e0",
            "0x0000000000000000000000000000000000000000000000000000000000000000",
            "0x000000000000000000000000ee03621ce83bbf6e3931bccf35b144354f16ccf7"
          ],
          "data": "0x",
          "blockHash": "0xddeda4da64a49bada5732628451d0c973941167d257c9ce2f61defa9425eedd3",
          "blockNumber": "0x235ec1a",
          "blockTimestamp": "0x68f63517",
          "transactionHash": "0x703a7c7305a728dbb6ebc360419df6f4cec58319a45a487e6198bb06ebd21bb8",
          "transactionIndex": "0x85",
          "logIndex": "0x1b0",
          "removed": false
        },
        {
          "address": "0x7b7a330edc927cd77b41c198ac4fe25a6b5c2c3b",
          "topics": [
            "0xa07c91c183e42229e705a9795a1c06d76528b673788b849597364528c96eefb7"
          ],
          "data": "0x000000000000000000000000ca03a4dfe09f664890ee7b46d9af4f0b6d5f6f15",
          "blockHash": "0xddeda4da64a49bada5732628451d0c973941167d257c9ce2f61defa9425eedd3",
          "blockNumber": "0x235ec1a",
          "blockTimestamp": "0x68f63517",
          "transactionHash": "0x703a7c7305a728dbb6ebc360419df6f4cec58319a45a487e6198bb06ebd21bb8",
          "transactionIndex": "0x85",
          "logIndex": "0x1b1",
          "removed": false
        }
      ],
      "logsBloom": "0x00000000000000000000000000004000000000000000000000800000000000000000000000000000000000000000000000000000000000000000000000000000000000008000000000000010040000000001000000000000000000000000000000000000020000000000000000000800000000000000000000000200000000400000000000000000000000000000000000000000000000000000000000080000000000000000000000000000000000000000000000000000000000000000000000000000000000000000000010000000000000000000000000000800000020000000000000000000000000000000000000000000001000000000000000000000",
      "type": "0x2",
      "transactionHash": "0x703a7c7305a728dbb6ebc360419df6f4cec58319a45a487e6198bb06ebd21bb8",
      "transactionIndex": "0x85",
      "blockHash": "0xddeda4da64a49bada5732628451d0c973941167d257c9ce2f61defa9425eedd3",
      "blockNumber": "0x235ec1a",
      "gasUsed": "0x9a8f7",
      "effectiveGasPrice": "0xa2bef",
      "from": "0xee03621ce83bbf6e3931bccf35b144354f16ccf7",
      "to": null,
      "contractAddress": "0x7b7a330edc927cd77b41c198ac4fe25a6b5c2c3b",
      "l1BaseFeeScalar": "0x8dd",
      "l1BlobBaseFee": "0x1",
      "l1BlobBaseFeeScalar": "0x101c12",
      "l1Fee": "0x28d060ded",
      "l1GasPrice": "0xbe2e70b",
      "l1GasUsed": "0x5e94"
    },
    {
      "status": "0x1",
      "cumulativeGasUsed": "0x1d8afbe",
      "logs": [
        {
          "address": "0xeda712e6d5f0c989e9bdeeb8dadb2f4b4f54acc5",
          "topics": [
            "0x8be0079c531659141344cd1fd0a4f28419497f9722a3daafe3b4186f6b6457e0",
            "0x0000000000000000000000000000000000000000000000000000000000000000",
            "0x000000000000000000000000ee03621ce83bbf6e3931bccf35b144354f16ccf7"
          ],
          "data": "0x",
          "blockHash": "0xddeda4da64a49bada5732628451d0c973941167d257c9ce2f61defa9425eedd3",
          "blockNumber": "0x235ec1a",
          "blockTimestamp": "0x68f63517",
          "transactionHash": "0x7a4edce76e4c930d069e3c82b0ade33149f53fb957ee8c5a74d999722a23c087",
          "transactionIndex": "0x86",
          "logIndex": "0x1b2",
          "removed": false
        },
        {
          "address": "0xeda712e6d5f0c989e9bdeeb8dadb2f4b4f54acc5",
          "topics": [
            "0xa07c91c183e42229e705a9795a1c06d76528b673788b849597364528c96eefb7"
          ],
          "data": "0x000000000000000000000000ed6cfb1d2f61f75419bab537ca1c5351b6a4c017",
          "blockHash": "0xddeda4da64a49bada5732628451d0c973941167d257c9ce2f61defa9425eedd3",
          "blockNumber": "0x235ec1a",
          "blockTimestamp": "0x68f63517",
          "transactionHash": "0x7a4edce76e4c930d069e3c82b0ade33149f53fb957ee8c5a74d999722a23c087",
          "transactionIndex": "0x86",
          "logIndex": "0x1b3",
          "removed": false
        }
      ],
      "logsBloom": "0x00000000000000000000000000000000000000000000000000800000000000000000000000000000000000000000000000000000000000000000000000002000000000000000000000000010040000000001000000000000400000000000000000000000020000000000000000000800000000000000000000000200000000400000000000000000000000000000000000000000000000000000000000080000000000000000000000000000000000000000000000000000000000000000000000000000000000000000000010000000000000000000000000000800000020000000000000000000000000000000040000000000000000000000000000000000",
      "type": "0x2",
      "transactionHash": "0x7a4edce76e4c930d069e3c82b0ade33149f53fb957ee8c5a74d999722a23c087",
      "transactionIndex": "0x86",
      "blockHash": "0xddeda4da64a49bada5732628451d0c973941167d257c9ce2f61defa9425eedd3",
      "blockNumber": "0x235ec1a",
      "gasUsed": "0x9a8f7",
      "effectiveGasPrice": "0xa2bef",
      "from": "0xee03621ce83bbf6e3931bccf35b144354f16ccf7",
      "to": null,
      "contractAddress": "0xeda712e6d5f0c989e9bdeeb8dadb2f4b4f54acc5",
      "l1BaseFeeScalar": "0x8dd",
      "l1BlobBaseFee": "0x1",
      "l1BlobBaseFeeScalar": "0x101c12",
      "l1Fee": "0x28d060ded",
      "l1GasPrice": "0xbe2e70b",
      "l1GasUsed": "0x5e94"
    },
    {
      "status": "0x1",
      "cumulativeGasUsed": "0x2207e5a",
      "logs": [
        {
          "address": "0x43db7ff630c993f080f315007961756f2b96fa45",
          "topics": [
            "0x8be0079c531659141344cd1fd0a4f28419497f9722a3daafe3b4186f6b6457e0",
            "0x0000000000000000000000000000000000000000000000000000000000000000",
            "0x000000000000000000000000ee03621ce83bbf6e3931bccf35b144354f16ccf7"
          ],
          "data": "0x",
          "blockHash": "0xddeda4da64a49bada5732628451d0c973941167d257c9ce2f61defa9425eedd3",
          "blockNumber": "0x235ec1a",
          "blockTimestamp": "0x68f63517",
          "transactionHash": "0xe5bb4459b332c7e33b588e6c0baa89b4dcf855cf9c956410b06117892a042fb9",
          "transactionIndex": "0xa5",
          "logIndex": "0x210",
          "removed": false
        },
        {
          "address": "0x43db7ff630c993f080f315007961756f2b96fa45",
          "topics": [
            "0xa07c91c183e42229e705a9795a1c06d76528b673788b849597364528c96eefb7"
          ],
          "data": "0x000000000000000000000000d773084b8cd424ad87d35be6901255fee285a763",
          "blockHash": "0xddeda4da64a49bada5732628451d0c973941167d257c9ce2f61defa9425eedd3",
          "blockNumber": "0x235ec1a",
          "blockTimestamp": "0x68f63517",
          "transactionHash": "0xe5bb4459b332c7e33b588e6c0baa89b4dcf855cf9c956410b06117892a042fb9",
          "transactionIndex": "0xa5",
          "logIndex": "0x211",
          "removed": false
        }
      ],
      "logsBloom": "0x00000000000000000000000000000000000000000000000000800000000000000000000000000000000000000000000000000000000000000000000000000000000000000000000000000010040000000001000000000000000000000000000000000000020000000000000000000800000000000000000000000200000000400000000000000000000000000000000000000000000000000000000040080000000100000000000000000000000000000000000000000000000000000000000000000000000000000000000010000000000000010000000000000800000020000000000000000000000000000000000000000000000000000000000000000000",
      "type": "0x2",
      "transactionHash": "0xe5bb4459b332c7e33b588e6c0baa89b4dcf855cf9c956410b06117892a042fb9",
      "transactionIndex": "0xa5",
      "blockHash": "0xddeda4da64a49bada5732628451d0c973941167d257c9ce2f61defa9425eedd3",
      "blockNumber": "0x235ec1a",
      "gasUsed": "0x9a8f7",
      "effectiveGasPrice": "0xa2bef",
      "from": "0xee03621ce83bbf6e3931bccf35b144354f16ccf7",
      "to": null,
      "contractAddress": "0x43db7ff630c993f080f315007961756f2b96fa45",
      "l1BaseFeeScalar": "0x8dd",
      "l1BlobBaseFee": "0x1",
      "l1BlobBaseFeeScalar": "0x101c12",
      "l1Fee": "0x28d060ded",
      "l1GasPrice": "0xbe2e70b",
      "l1GasUsed": "0x5e94"
    },
    {
      "status": "0x1",
      "cumulativeGasUsed": "0x22a2751",
      "logs": [
        {
          "address": "0x2f7c95d1848cb0a5e36de0d4db04c4afe09053dd",
          "topics": [
            "0x8be0079c531659141344cd1fd0a4f28419497f9722a3daafe3b4186f6b6457e0",
            "0x0000000000000000000000000000000000000000000000000000000000000000",
            "0x000000000000000000000000ee03621ce83bbf6e3931bccf35b144354f16ccf7"
          ],
          "data": "0x",
          "blockHash": "0xddeda4da64a49bada5732628451d0c973941167d257c9ce2f61defa9425eedd3",
          "blockNumber": "0x235ec1a",
          "blockTimestamp": "0x68f63517",
          "transactionHash": "0x6141d309c85a21d75eccd7e9ab3e22d6d36b07b768ffb71a39b454e8f0cb5519",
          "transactionIndex": "0xa6",
          "logIndex": "0x212",
          "removed": false
        },
        {
          "address": "0x2f7c95d1848cb0a5e36de0d4db04c4afe09053dd",
          "topics": [
            "0xa07c91c183e42229e705a9795a1c06d76528b673788b849597364528c96eefb7"
          ],
          "data": "0x0000000000000000000000001d7c9083d76ad235ae44d90bc13eca74ccc2ed42",
          "blockHash": "0xddeda4da64a49bada5732628451d0c973941167d257c9ce2f61defa9425eedd3",
          "blockNumber": "0x235ec1a",
          "blockTimestamp": "0x68f63517",
          "transactionHash": "0x6141d309c85a21d75eccd7e9ab3e22d6d36b07b768ffb71a39b454e8f0cb5519",
          "transactionIndex": "0xa6",
          "logIndex": "0x213",
          "removed": false
        }
      ],
      "logsBloom": "0x00000000000000000000000000000000000000000000000000800000000000000000000000000000000000000000000000000000000000000000000040000000000000000000000000000010040000000001000000000000000000000000000000000000020000000000000000000a00000000000000000000000200000000420000000000000000000000000000000000000000000000000000000000080000000000000000000000000000000000000000000000000000000000000000000000000000000000000000000010000000000000000000000000000800000020000000000000000000000000000000000000000000000000000000000000000000",
      "type": "0x2",
      "transactionHash": "0x6141d309c85a21d75eccd7e9ab3e22d6d36b07b768ffb71a39b454e8f0cb5519",
      "transactionIndex": "0xa6",
      "blockHash": "0xddeda4da64a49bada5732628451d0c973941167d257c9ce2f61defa9425eedd3",
      "blockNumber": "0x235ec1a",
      "gasUsed": "0x9a8f7",
      "effectiveGasPrice": "0xa2bef",
      "from": "0xee03621ce83bbf6e3931bccf35b144354f16ccf7",
      "to": null,
      "contractAddress": "0x2f7c95d1848cb0a5e36de0d4db04c4afe09053dd",
      "l1BaseFeeScalar": "0x8dd",
      "l1BlobBaseFee": "0x1",
      "l1BlobBaseFeeScalar": "0x101c12",
      "l1Fee": "0x28d060ded",
      "l1GasPrice": "0xbe2e70b",
      "l1GasUsed": "0x5e94"
    },
    {
      "status": "0x1",
      "cumulativeGasUsed": "0x233d048",
      "logs": [
        {
          "address": "0x618942af15f2fe6f451bee0e094d46df39822e74",
          "topics": [
            "0x8be0079c531659141344cd1fd0a4f28419497f9722a3daafe3b4186f6b6457e0",
            "0x0000000000000000000000000000000000000000000000000000000000000000",
            "0x000000000000000000000000ee03621ce83bbf6e3931bccf35b144354f16ccf7"
          ],
          "data": "0x",
          "blockHash": "0xddeda4da64a49bada5732628451d0c973941167d257c9ce2f61defa9425eedd3",
          "blockNumber": "0x235ec1a",
          "blockTimestamp": "0x68f63517",
          "transactionHash": "0xe16c132fc3dac200abaa2debd87b31bd35cde57571c9bfb4959bb7a93c47d44d",
          "transactionIndex": "0xa7",
          "logIndex": "0x214",
          "removed": false
        },
        {
          "address": "0x618942af15f2fe6f451bee0e094d46df39822e74",
          "topics": [
            "0xa07c91c183e42229e705a9795a1c06d76528b673788b849597364528c96eefb7"
          ],
          "data": "0x000000000000000000000000b7e6d4119f5e482d8d68d0aa4c81f14a082ec917",
          "blockHash": "0xddeda4da64a49bada5732628451d0c973941167d257c9ce2f61defa9425eedd3",
          "blockNumber": "0x235ec1a",
          "blockTimestamp": "0x68f63517",
          "transactionHash": "0xe16c132fc3dac200abaa2debd87b31bd35cde57571c9bfb4959bb7a93c47d44d",
          "transactionIndex": "0xa7",
          "logIndex": "0x215",
          "removed": false
        }
      ],
      "logsBloom": "0x00000000000000000000000000000000000000000000000000800000000000000010000000000000000000000000000000000000000000000000000000000000080000000000000000000010040000000001000000000000000000000000000000000000020000000000000000000800000000000000000000000200000000400008000000000000000000000000000000000000000000000000000000080000000000000000000000000000000000000000000000000000000000000000000000000000000000000000000010000000000000000000000000000800000020000000000000000000000000000000000000000000000000000000000000000000",
      "type": "0x2",
      "transactionHash": "0xe16c132fc3dac200abaa2debd87b31bd35cde57571c9bfb4959bb7a93c47d44d",
      "transactionIndex": "0xa7",
      "blockHash": "0xddeda4da64a49bada5732628451d0c973941167d257c9ce2f61defa9425eedd3",
      "blockNumber": "0x235ec1a",
      "gasUsed": "0x9a8f7",
      "effectiveGasPrice": "0xa2bef",
      "from": "0xee03621ce83bbf6e3931bccf35b144354f16ccf7",
      "to": null,
      "contractAddress": "0x618942af15f2fe6f451bee0e094d46df39822e74",
      "l1BaseFeeScalar": "0x8dd",
      "l1BlobBaseFee": "0x1",
      "l1BlobBaseFeeScalar": "0x101c12",
      "l1Fee": "0x28d060ded",
      "l1GasPrice": "0xbe2e70b",
      "l1GasUsed": "0x5e94"
    },
    {
      "status": "0x1",
      "cumulativeGasUsed": "0xb81943",
      "logs": [
        {
          "address": "0xbf374ffdde61ebf4e19dc0320bd2ded9de447eb4",
          "topics": [
            "0x8be0079c531659141344cd1fd0a4f28419497f9722a3daafe3b4186f6b6457e0",
            "0x0000000000000000000000000000000000000000000000000000000000000000",
            "0x000000000000000000000000ee03621ce83bbf6e3931bccf35b144354f16ccf7"
          ],
          "data": "0x",
          "blockHash": "0x0a6d371dd7211f4a4aa2096f7701180b9c6c8a84b43f82519f317a641585e12f",
          "blockNumber": "0x235ec1b",
          "blockTimestamp": "0x68f63519",
          "transactionHash": "0x5e3e15cbc4018721f3b5c441ace36e1e9330957874a4e589bda6b4a54e546599",
          "transactionIndex": "0x20",
          "logIndex": "0xb4",
          "removed": false
        },
        {
          "address": "0xbf374ffdde61ebf4e19dc0320bd2ded9de447eb4",
          "topics": [
            "0xa07c91c183e42229e705a9795a1c06d76528b673788b849597364528c96eefb7"
          ],
          "data": "0x000000000000000000000000ef49434acc92ed24e7d245f748aacde471a68f06",
          "blockHash": "0x0a6d371dd7211f4a4aa2096f7701180b9c6c8a84b43f82519f317a641585e12f",
          "blockNumber": "0x235ec1b",
          "blockTimestamp": "0x68f63519",
          "transactionHash": "0x5e3e15cbc4018721f3b5c441ace36e1e9330957874a4e589bda6b4a54e546599",
          "transactionIndex": "0x20",
          "logIndex": "0xb5",
          "removed": false
        }
      ],
      "logsBloom": "0x00000000000000000000000000000000000000000000000000802000000000000000000000000000000000000000000000000000000080000000000000000000000000000000000000000010040000000001000000000000000000000000000000000000020000000000000000000800000000000000000000000200000000400000000000000000000000000000000000000000000000000000000000080000000000000000000000000000000000000000000000000000000000000000000000000000000000000000000010000000000000000000000000000804000020000000000000000000000000000000000000000000000000000000000000000000",
      "type": "0x2",
      "transactionHash": "0x5e3e15cbc4018721f3b5c441ace36e1e9330957874a4e589bda6b4a54e546599",
      "transactionIndex": "0x20",
      "blockHash": "0x0a6d371dd7211f4a4aa2096f7701180b9c6c8a84b43f82519f317a641585e12f",
      "blockNumber": "0x235ec1b",
      "gasUsed": "0x9a8f7",
      "effectiveGasPrice": "0xa1f50",
      "from": "0xee03621ce83bbf6e3931bccf35b144354f16ccf7",
      "to": null,
      "contractAddress": "0xbf374ffdde61ebf4e19dc0320bd2ded9de447eb4",
      "l1BaseFeeScalar": "0x8dd",
      "l1BlobBaseFee": "0x1",
      "l1BlobBaseFeeScalar": "0x101c12",
      "l1Fee": "0x28d060ded",
      "l1GasPrice": "0xbe2e70b",
      "l1GasUsed": "0x5e94"
    },
    {
      "status": "0x1",
      "cumulativeGasUsed": "0xc1c22e",
      "logs": [
        {
          "address": "0x88d873c00658874996e07e98e84ff89c3aa314c1",
          "topics": [
            "0x8be0079c531659141344cd1fd0a4f28419497f9722a3daafe3b4186f6b6457e0",
            "0x0000000000000000000000000000000000000000000000000000000000000000",
            "0x000000000000000000000000ee03621ce83bbf6e3931bccf35b144354f16ccf7"
          ],
          "data": "0x",
          "blockHash": "0x0a6d371dd7211f4a4aa2096f7701180b9c6c8a84b43f82519f317a641585e12f",
          "blockNumber": "0x235ec1b",
          "blockTimestamp": "0x68f63519",
          "transactionHash": "0x65cf867dca3ae223055a1e484e5338e6c98b1675c91eb21a38f536132d7b0d23",
          "transactionIndex": "0x21",
          "logIndex": "0xb6",
          "removed": false
        },
        {
          "address": "0x88d873c00658874996e07e98e84ff89c3aa314c1",
          "topics": [
            "0xa07c91c183e42229e705a9795a1c06d76528b673788b849597364528c96eefb7"
          ],
          "data": "0x0000000000000000000000005f01296847f20fc68c79d051ab75fb9169096f00",
          "blockHash": "0x0a6d371dd7211f4a4aa2096f7701180b9c6c8a84b43f82519f317a641585e12f",
          "blockNumber": "0x235ec1b",
          "blockTimestamp": "0x68f63519",
          "transactionHash": "0x65cf867dca3ae223055a1e484e5338e6c98b1675c91eb21a38f536132d7b0d23",
          "transactionIndex": "0x21",
          "logIndex": "0xb7",
          "removed": false
        }
      ],
      "logsBloom": "0x00000000000000000000000000000000000000000000000000800020000000000000000000000000000000000000000000000000000000000000000000000000000000000000000000000010040000000001000000000000000000000000000000000000020000000000000000000800000000000000000004000200000000400000000000000000000000000000000000000000000000000000000000080000000000000000000000000000000000000000000000000000000000000000000040000000000000000000000010000000000000000000000000000800000020000000000000000000000000000000000000000000000000000000000000000000",
      "type": "0x2",
      "transactionHash": "0x65cf867dca3ae223055a1e484e5338e6c98b1675c91eb21a38f536132d7b0d23",
      "transactionIndex": "0x21",
      "blockHash": "0x0a6d371dd7211f4a4aa2096f7701180b9c6c8a84b43f82519f317a641585e12f",
      "blockNumber": "0x235ec1b",
      "gasUsed": "0x9a8eb",
      "effectiveGasPrice": "0xa1f50",
      "from": "0xee03621ce83bbf6e3931bccf35b144354f16ccf7",
      "to": null,
      "contractAddress": "0x88d873c00658874996e07e98e84ff89c3aa314c1",
      "l1BaseFeeScalar": "0x8dd",
      "l1BlobBaseFee": "0x1",
      "l1BlobBaseFeeScalar": "0x101c12",
      "l1Fee": "0x28d060ded",
      "l1GasPrice": "0xbe2e70b",
      "l1GasUsed": "0x5e94"
    },
    {
      "status": "0x1",
      "cumulativeGasUsed": "0x22dcae1",
      "logs": [
        {
          "address": "0x7e588b76807b0adf014c4cea3d9df28d4c5e7c80",
          "topics": [
            "0x8be0079c531659141344cd1fd0a4f28419497f9722a3daafe3b4186f6b6457e0",
            "0x0000000000000000000000000000000000000000000000000000000000000000",
            "0x000000000000000000000000ee03621ce83bbf6e3931bccf35b144354f16ccf7"
          ],
          "data": "0x",
          "blockHash": "0x0a6d371dd7211f4a4aa2096f7701180b9c6c8a84b43f82519f317a641585e12f",
          "blockNumber": "0x235ec1b",
          "blockTimestamp": "0x68f63519",
          "transactionHash": "0x2268f465007383208fe0778e759a8f50b3b8945651c0b7b9cf3c0cb9e1c916a8",
          "transactionIndex": "0x8c",
          "logIndex": "0x17d",
          "removed": false
        },
        {
          "address": "0x7e588b76807b0adf014c4cea3d9df28d4c5e7c80",
          "topics": [
            "0xa07c91c183e42229e705a9795a1c06d76528b673788b849597364528c96eefb7"
          ],
          "data": "0x00000000000000000000000074ae55ca4eaa2337f309f77a7af1b60ea9085fb6",
          "blockHash": "0x0a6d371dd7211f4a4aa2096f7701180b9c6c8a84b43f82519f317a641585e12f",
          "blockNumber": "0x235ec1b",
          "blockTimestamp": "0x68f63519",
          "transactionHash": "0x2268f465007383208fe0778e759a8f50b3b8945651c0b7b9cf3c0cb9e1c916a8",
          "transactionIndex": "0x8c",
          "logIndex": "0x17e",
          "removed": false
        }
      ],
      "logsBloom": "0x00000000000000000000000000000000000000000000000000800000000000000000000000000000000000000000000000000000000000000000000000000000000000020000000000000010040000000001000000000000000000000000000000000000020000000000000000000800000000000000000000000200100000400000000000000000000000000000000000000000000000000000000000080000000000000000000000000000000000000000000000000000000000000000000000000000000000000000000010000000000000000000000040000800000020000000000000000000000000000000000000000000000000000000000000000000",
      "type": "0x2",
      "transactionHash": "0x2268f465007383208fe0778e759a8f50b3b8945651c0b7b9cf3c0cb9e1c916a8",
      "transactionIndex": "0x8c",
      "blockHash": "0x0a6d371dd7211f4a4aa2096f7701180b9c6c8a84b43f82519f317a641585e12f",
      "blockNumber": "0x235ec1b",
      "gasUsed": "0x9a8f7",
      "effectiveGasPrice": "0xa1f50",
      "from": "0xee03621ce83bbf6e3931bccf35b144354f16ccf7",
      "to": null,
      "contractAddress": "0x7e588b76807b0adf014c4cea3d9df28d4c5e7c80",
      "l1BaseFeeScalar": "0x8dd",
      "l1BlobBaseFee": "0x1",
      "l1BlobBaseFeeScalar": "0x101c12",
      "l1Fee": "0x28d060ded",
      "l1GasPrice": "0xbe2e70b",
      "l1GasUsed": "0x5e94"
    },
    {
      "status": "0x1",
      "cumulativeGasUsed": "0x23773d8",
      "logs": [
        {
          "address": "0xc75de9a3c001f6e5f45fb44a11fa7d92e82bac0e",
          "topics": [
            "0x8be0079c531659141344cd1fd0a4f28419497f9722a3daafe3b4186f6b6457e0",
            "0x0000000000000000000000000000000000000000000000000000000000000000",
            "0x000000000000000000000000ee03621ce83bbf6e3931bccf35b144354f16ccf7"
          ],
          "data": "0x",
          "blockHash": "0x0a6d371dd7211f4a4aa2096f7701180b9c6c8a84b43f82519f317a641585e12f",
          "blockNumber": "0x235ec1b",
          "blockTimestamp": "0x68f63519",
          "transactionHash": "0xf07f4ea6f30eb59dd219a0f3f0ab50dc328ed238ca5d984b787a6345247dd92e",
          "transactionIndex": "0x8d",
          "logIndex": "0x17f",
          "removed": false
        },
        {
          "address": "0xc75de9a3c001f6e5f45fb44a11fa7d92e82bac0e",
          "topics": [
            "0xa07c91c183e42229e705a9795a1c06d76528b673788b849597364528c96eefb7"
          ],
          "data": "0x000000000000000000000000b2b60bb1e9796cae4dc4c87f456db675871b0d2b",
          "blockHash": "0x0a6d371dd7211f4a4aa2096f7701180b9c6c8a84b43f82519f317a641585e12f",
          "blockNumber": "0x235ec1b",
          "blockTimestamp": "0x68f63519",
          "transactionHash": "0xf07f4ea6f30eb59dd219a0f3f0ab50dc328ed238ca5d984b787a6345247dd92e",
          "transactionIndex": "0x8d",
          "logIndex": "0x180",
          "removed": false
        }
      ],
      "logsBloom": "0x00000000000000000000000000000000000000000000000100800000000000000000000000000000000000000000000000000000000000000000000000000000000000000000000000000010040000000001000000000000000000000000000000000000020000000000000000000800000000000000000000000200000000440000000000000000000000000000000000000000000000000000000000080000000000000000000000000000000000000000000000000000000000000000000000000000000000000000000010000000000000000000000000000800000020000000000000000000000000000000000000000000000000000004000000000000",
      "type": "0x2",
      "transactionHash": "0xf07f4ea6f30eb59dd219a0f3f0ab50dc328ed238ca5d984b787a6345247dd92e",
      "transactionIndex": "0x8d",
      "blockHash": "0x0a6d371dd7211f4a4aa2096f7701180b9c6c8a84b43f82519f317a641585e12f",
      "blockNumber": "0x235ec1b",
      "gasUsed": "0x9a8f7",
      "effectiveGasPrice": "0xa1f50",
      "from": "0xee03621ce83bbf6e3931bccf35b144354f16ccf7",
      "to": null,
      "contractAddress": "0xc75de9a3c001f6e5f45fb44a11fa7d92e82bac0e",
      "l1BaseFeeScalar": "0x8dd",
      "l1BlobBaseFee": "0x1",
      "l1BlobBaseFeeScalar": "0x101c12",
      "l1Fee": "0x28d060ded",
      "l1GasPrice": "0xbe2e70b",
      "l1GasUsed": "0x5e94"
    },
    {
      "status": "0x1",
      "cumulativeGasUsed": "0x2634ebb",
      "logs": [
        {
          "address": "0x479702c416cbbd2d95f0c5408a961f9870e6eea5",
          "topics": [
            "0x8be0079c531659141344cd1fd0a4f28419497f9722a3daafe3b4186f6b6457e0",
            "0x0000000000000000000000000000000000000000000000000000000000000000",
            "0x000000000000000000000000ee03621ce83bbf6e3931bccf35b144354f16ccf7"
          ],
          "data": "0x",
          "blockHash": "0x0a6d371dd7211f4a4aa2096f7701180b9c6c8a84b43f82519f317a641585e12f",
          "blockNumber": "0x235ec1b",
          "blockTimestamp": "0x68f63519",
          "transactionHash": "0xba3bb9cffeed66a38649966028b55883e918cf25b4804209e0e3198f8ae9a716",
          "transactionIndex": "0x9a",
          "logIndex": "0x1a3",
          "removed": false
        },
        {
          "address": "0x479702c416cbbd2d95f0c5408a961f9870e6eea5",
          "topics": [
            "0xa07c91c183e42229e705a9795a1c06d76528b673788b849597364528c96eefb7"
          ],
          "data": "0x000000000000000000000000e3bab20b2711e0577c46d14fd10bffc0961036c3",
          "blockHash": "0x0a6d371dd7211f4a4aa2096f7701180b9c6c8a84b43f82519f317a641585e12f",
          "blockNumber": "0x235ec1b",
          "blockTimestamp": "0x68f63519",
          "transactionHash": "0xba3bb9cffeed66a38649966028b55883e918cf25b4804209e0e3198f8ae9a716",
          "transactionIndex": "0x9a",
          "logIndex": "0x1a4",
          "removed": false
        }
      ],
      "logsBloom": "0x00000000004000000000000000000000000000000000000000800000000000000000000000000000000000000002000000000000000000000000000000000000000000000000000000000010040000000001000000000000000000000000000000000000020000000001000000000800000000000000000000000200000000400000000000000000000000000000000000000000000000000000000000080000000000000000000000000000000000000000000000000000000000000000000000000000000000000000000010000000000000000000000000000800000020000000000000000000000000000000000000000000000000000000000000000000",
      "type": "0x2",
      "transactionHash": "0xba3bb9cffeed66a38649966028b55883e918cf25b4804209e0e3198f8ae9a716",
      "transactionIndex": "0x9a",
      "blockHash": "0x0a6d371dd7211f4a4aa2096f7701180b9c6c8a84b43f82519f317a641585e12f",
      "blockNumber": "0x235ec1b",
      "gasUsed": "0x9a8f7",
      "effectiveGasPrice": "0xa1f50",
      "from": "0xee03621ce83bbf6e3931bccf35b144354f16ccf7",
      "to": null,
      "contractAddress": "0x479702c416cbbd2d95f0c5408a961f9870e6eea5",
      "l1BaseFeeScalar": "0x8dd",
      "l1BlobBaseFee": "0x1",
      "l1BlobBaseFeeScalar": "0x101c12",
      "l1Fee": "0x28d060ded",
      "l1GasPrice": "0xbe2e70b",
      "l1GasUsed": "0x5e94"
    },
    {
      "status": "0x1",
      "cumulativeGasUsed": "0x27c5bf1",
      "logs": [
        {
          "address": "0x7f7e97a31409ca29f1878e0d1b7068160834739b",
          "topics": [
            "0x8be0079c531659141344cd1fd0a4f28419497f9722a3daafe3b4186f6b6457e0",
            "0x0000000000000000000000000000000000000000000000000000000000000000",
            "0x000000000000000000000000ee03621ce83bbf6e3931bccf35b144354f16ccf7"
          ],
          "data": "0x",
          "blockHash": "0x0a6d371dd7211f4a4aa2096f7701180b9c6c8a84b43f82519f317a641585e12f",
          "blockNumber": "0x235ec1b",
          "blockTimestamp": "0x68f63519",
          "transactionHash": "0x26c3226fcb46573c7803ef39cffd1c0234c26a5157eb58e217c696de3218fe9e",
          "transactionIndex": "0xa7",
          "logIndex": "0x1ae",
          "removed": false
        },
        {
          "address": "0x7f7e97a31409ca29f1878e0d1b7068160834739b",
          "topics": [
            "0xa07c91c183e42229e705a9795a1c06d76528b673788b849597364528c96eefb7"
          ],
          "data": "0x000000000000000000000000e29a9fbdf3d83c126c6366d7f401473ab0850e7f",
          "blockHash": "0x0a6d371dd7211f4a4aa2096f7701180b9c6c8a84b43f82519f317a641585e12f",
          "blockNumber": "0x235ec1b",
          "blockTimestamp": "0x68f63519",
          "transactionHash": "0x26c3226fcb46573c7803ef39cffd1c0234c26a5157eb58e217c696de3218fe9e",
          "transactionIndex": "0xa7",
          "logIndex": "0x1af",
          "removed": false
        }
      ],
      "logsBloom": "0x00000000000000000000010000000000000000000000000000800000000000000000000000000000001000000000000000000000000000000000000000000000000000000000000000000010040000000001000000000000000000000000000000000000020000000000000000000800000000000000000000000200000000400000000000000000000000000000000000000000000000000000000000080000000000000000000000000000000000000000000080000000000000000000000000000000000000000000000010000000000000000000000000000800000020000000000000000000000000000000000000000000000000000000000000000000",
      "type": "0x2",
      "transactionHash": "0x26c3226fcb46573c7803ef39cffd1c0234c26a5157eb58e217c696de3218fe9e",
      "transactionIndex": "0xa7",
      "blockHash": "0x0a6d371dd7211f4a4aa2096f7701180b9c6c8a84b43f82519f317a641585e12f",
      "blockNumber": "0x235ec1b",
      "gasUsed": "0x9a8f7",
      "effectiveGasPrice": "0xa1f50",
      "from": "0xee03621ce83bbf6e3931bccf35b144354f16ccf7",
      "to": null,
      "contractAddress": "0x7f7e97a31409ca29f1878e0d1b7068160834739b",
      "l1BaseFeeScalar": "0x8dd",
      "l1BlobBaseFee": "0x1",
      "l1BlobBaseFeeScalar": "0x101c12",
      "l1Fee": "0x28d060ded",
      "l1GasPrice": "0xbe2e70b",
      "l1GasUsed": "0x5e94"
    },
    {
      "status": "0x1",
      "cumulativeGasUsed": "0x28604e8",
      "logs": [
        {
          "address": "0xe8484f0442707c3daec850be6e05a128100a00cd",
          "topics": [
            "0x8be0079c531659141344cd1fd0a4f28419497f9722a3daafe3b4186f6b6457e0",
            "0x0000000000000000000000000000000000000000000000000000000000000000",
            "0x000000000000000000000000ee03621ce83bbf6e3931bccf35b144354f16ccf7"
          ],
          "data": "0x",
          "blockHash": "0x0a6d371dd7211f4a4aa2096f7701180b9c6c8a84b43f82519f317a641585e12f",
          "blockNumber": "0x235ec1b",
          "blockTimestamp": "0x68f63519",
          "transactionHash": "0x9649ed149dff5299cf0503ad2d396d566ae32b6afd31cf185831528ac5cf9641",
          "transactionIndex": "0xa8",
          "logIndex": "0x1b0",
          "removed": false
        },
        {
          "address": "0xe8484f0442707c3daec850be6e05a128100a00cd",
          "topics": [
            "0xa07c91c183e42229e705a9795a1c06d76528b673788b849597364528c96eefb7"
          ],
          "data": "0x000000000000000000000000ef0cef5eb4f2b475b00c9cae5e58065f9f5062e8",
          "blockHash": "0x0a6d371dd7211f4a4aa2096f7701180b9c6c8a84b43f82519f317a641585e12f",
          "blockNumber": "0x235ec1b",
          "blockTimestamp": "0x68f63519",
          "transactionHash": "0x9649ed149dff5299cf0503ad2d396d566ae32b6afd31cf185831528ac5cf9641",
          "transactionIndex": "0xa8",
          "logIndex": "0x1b1",
          "removed": false
        }
      ],
      "logsBloom": "0x00000000000000000008000000000000000000000000000000800000000000000000000000000000000000000000000000000000000000000000000000000080000000000000000000000010040000000001000000000000000000000000000000000000020000000000000000000800000000000000000000000200000000400000000000000000000000000000000000000000000000000000000000080000000000000000000000000000000000000000000000000000000000000000000000000000000000000000000010000000000000000000000000000800000020000000000000000000000000000000000000000000000000000000000000000000",
      "type": "0x2",
      "transactionHash": "0x9649ed149dff5299cf0503ad2d396d566ae32b6afd31cf185831528ac5cf9641",
      "transactionIndex": "0xa8",
      "blockHash": "0x0a6d371dd7211f4a4aa2096f7701180b9c6c8a84b43f82519f317a641585e12f",
      "blockNumber": "0x235ec1b",
      "gasUsed": "0x9a8f7",
      "effectiveGasPrice": "0xa1f50",
      "from": "0xee03621ce83bbf6e3931bccf35b144354f16ccf7",
      "to": null,
      "contractAddress": "0xe8484f0442707c3daec850be6e05a128100a00cd",
      "l1BaseFeeScalar": "0x8dd",
      "l1BlobBaseFee": "0x1",
      "l1BlobBaseFeeScalar": "0x101c12",
      "l1Fee": "0x28d060ded",
      "l1GasPrice": "0xbe2e70b",
      "l1GasUsed": "0x5e94"
    },
    {
      "status": "0x1",
      "cumulativeGasUsed": "0x29568d5",
      "logs": [
        {
          "address": "0x7b7a330edc927cd77b41c198ac4fe25a6b5c2c3b",
          "topics": [
            "0xfda678292d5444240435c9b99fcee9e8ff1fa97977e93b7d5ae4062f52cca853"
          ],
          "data": "0x0000000000000000000000000000000000000000000000000000000000000001000000000000000000000000000000000000000000000000000000000459e4400000000000000000000000000000000000000000000000000000000068f634e50000000000000000000000000000000000000000000000000000000068f634e50000000000000000000000000000000000000000000000000000000000000001",
          "blockHash": "0x0a6d371dd7211f4a4aa2096f7701180b9c6c8a84b43f82519f317a641585e12f",
          "blockNumber": "0x235ec1b",
          "blockTimestamp": "0x68f63519",
          "transactionHash": "0xd0bcf1fe4c6fadb8d7c511bbea35a797a630b952bd1de8714c3a4b9ab436128e",
          "transactionIndex": "0xb3",
          "logIndex": "0x1c2",
          "removed": false
        }
      ],
      "logsBloom": "0x00000000000000000000000000004000000000000000000000000000000000000000000000000000000000000000000000000000000000000000000000000000000000008000000000000000000000000000000000000000000000000200000000000000000000000000000000000000000000000000000000000000000000000000000000000000000000000000000000000000000000000000000000000000000000000000000000000000000000000000000000000000000000000000000000000000000000000000000000010000000000000000000000000000000000000000000000000000000080000000000000000000001000000000000000000000",
      "type": "0x2",
      "transactionHash": "0xd0bcf1fe4c6fadb8d7c511bbea35a797a630b952bd1de8714c3a4b9ab436128e",
      "transactionIndex": "0xb3",
      "blockHash": "0x0a6d371dd7211f4a4aa2096f7701180b9c6c8a84b43f82519f317a641585e12f",
      "blockNumber": "0x235ec1b",
      "gasUsed": "0x19046",
      "effectiveGasPrice": "0xa1f50",
      "from": "0xee03621ce83bbf6e3931bccf35b144354f16ccf7",
      "to": "0x7b7a330edc927cd77b41c198ac4fe25a6b5c2c3b",
      "contractAddress": null,
      "l1BaseFeeScalar": "0x8dd",
      "l1BlobBaseFee": "0x1",
      "l1BlobBaseFeeScalar": "0x101c12",
      "l1Fee": "0x2b26f473",
      "l1GasPrice": "0xbe2e70b",
      "l1GasUsed": "0x640"
    },
    {
      "status": "0x1",
      "cumulativeGasUsed": "0x296f903",
      "logs": [
        {
          "address": "0xeda712e6d5f0c989e9bdeeb8dadb2f4b4f54acc5",
          "topics": [
            "0xfda678292d5444240435c9b99fcee9e8ff1fa97977e93b7d5ae4062f52cca853"
          ],
          "data": "0x000000000000000000000000000000000000000000000000000000000000000100000000000000000000000000000000000000000000000000000000000002da0000000000000000000000000000000000000000000000000000000068f634e50000000000000000000000000000000000000000000000000000000068f634e50000000000000000000000000000000000000000000000000000000000000001",
          "blockHash": "0x0a6d371dd7211f4a4aa2096f7701180b9c6c8a84b43f82519f317a641585e12f",
          "blockNumber": "0x235ec1b",
          "blockTimestamp": "0x68f63519",
          "transactionHash": "0x2ce1b6a3bd9d7d26c6ed936ec12ed01a7f32a009dd59f1638c2dd9eb695a52f7",
          "transactionIndex": "0xb4",
          "logIndex": "0x1c3",
          "removed": false
        }
      ],
      "logsBloom": "0x00000000000000000000000000000000000000000000000000000000000000000000000000000000000000000000000000000000000000000000000000002000000000000000000000000000000000000000000000000000400000000200000000000000000000000000000000000000000000000000000000000000000000000000000000000000000000000000000000000000000000000000000000000000000000000000000000000000000000000000000000000000000000000000000000000000000000000000000000010000000000000000000000000000000000000000000000000000000080000000040000000000000000000000000000000000",
      "type": "0x2",
      "transactionHash": "0x2ce1b6a3bd9d7d26c6ed936ec12ed01a7f32a009dd59f1638c2dd9eb695a52f7",
      "transactionIndex": "0xb4",
      "blockHash": "0x0a6d371dd7211f4a4aa2096f7701180b9c6c8a84b43f82519f317a641585e12f",
      "blockNumber": "0x235ec1b",
      "gasUsed": "0x1902e",
      "effectiveGasPrice": "0xa1f50",
      "from": "0xee03621ce83bbf6e3931bccf35b144354f16ccf7",
      "to": "0xeda712e6d5f0c989e9bdeeb8dadb2f4b4f54acc5",
      "contractAddress": null,
      "l1BaseFeeScalar": "0x8dd",
      "l1BlobBaseFee": "0x1",
      "l1BlobBaseFeeScalar": "0x101c12",
      "l1Fee": "0x2b26f473",
      "l1GasPrice": "0xbe2e70b",
      "l1GasUsed": "0x640"
    },
    {
      "status": "0x1",
      "cumulativeGasUsed": "0x84e5c4",
      "logs": [
        {
          "address": "0x43db7ff630c993f080f315007961756f2b96fa45",
          "topics": [
            "0xfda678292d5444240435c9b99fcee9e8ff1fa97977e93b7d5ae4062f52cca853"
          ],
          "data": "0x000000000000000000000000000000000000000000000000000000000000000100000000000000000000000000000000000000000000000000000000000002ee0000000000000000000000000000000000000000000000000000000068f634e50000000000000000000000000000000000000000000000000000000068f634e50000000000000000000000000000000000000000000000000000000000000001",
          "blockHash": "0x4c7ded360f481736910b7ed9d1f48d7736234d66cf3ac7578fa578d67f4d82d7",
          "blockNumber": "0x235ec1c",
          "blockTimestamp": "0x68f6351b",
          "transactionHash": "0x365ea53d6d8716499980b1bf8b41e4fc86f5e7ba3faaf3fca383b1aedb9c7371",
          "transactionIndex": "0x26",
          "logIndex": "0x97",
          "removed": false
        }
      ],
      "logsBloom": "0x00000000000000000000000000000000000000000000000000000000000000000000000000000000000000000000000000000000000000000000000000000000000000000000000000000000000000000000000000000000000000000200000000000000000000000000000000000000000000000000000000000000000000000000000000000000000000000000000000000000000000000000000040000000000100000000000000000000000000000000000000000000000000000000000000000000000000000000000000010000000000010000000000000000000000000000000000000000000080000000000000000000000000000000000000000000",
      "type": "0x2",
      "transactionHash": "0x365ea53d6d8716499980b1bf8b41e4fc86f5e7ba3faaf3fca383b1aedb9c7371",
      "transactionIndex": "0x26",
      "blockHash": "0x4c7ded360f481736910b7ed9d1f48d7736234d66cf3ac7578fa578d67f4d82d7",
      "blockNumber": "0x235ec1c",
      "gasUsed": "0x1902e",
      "effectiveGasPrice": "0xa1955",
      "from": "0xee03621ce83bbf6e3931bccf35b144354f16ccf7",
      "to": "0x43db7ff630c993f080f315007961756f2b96fa45",
      "contractAddress": null,
      "l1BaseFeeScalar": "0x8dd",
      "l1BlobBaseFee": "0x1",
      "l1BlobBaseFeeScalar": "0x101c12",
      "l1Fee": "0x2b26f473",
      "l1GasPrice": "0xbe2e70b",
      "l1GasUsed": "0x640"
    },
    {
      "status": "0x1",
      "cumulativeGasUsed": "0x8675fe",
      "logs": [
        {
          "address": "0x2f7c95d1848cb0a5e36de0d4db04c4afe09053dd",
          "topics": [
            "0xfda678292d5444240435c9b99fcee9e8ff1fa97977e93b7d5ae4062f52cca853"
          ],
          "data": "0x000000000000000000000000000000000000000000000000000000000000000100000000000000000000000000000000000000000000000000000000002dc6c00000000000000000000000000000000000000000000000000000000068f634e50000000000000000000000000000000000000000000000000000000068f634e50000000000000000000000000000000000000000000000000000000000000001",
          "blockHash": "0x4c7ded360f481736910b7ed9d1f48d7736234d66cf3ac7578fa578d67f4d82d7",
          "blockNumber": "0x235ec1c",
          "blockTimestamp": "0x68f6351b",
          "transactionHash": "0xf1e606a3c47a6a11376deb8692552100e766bc7b410ee79ef8a2bb0a0e5d726d",
          "transactionIndex": "0x27",
          "logIndex": "0x98",
          "removed": false
        }
      ],
      "logsBloom": "0x00000000000000000000000000000000000000000000000000000000000000000000000000000000000000000000000000000000000000000000000040000000000000000000000000000000000000000000000000000000000000000200000000000000000000000000000000000200000000000000000000000000000000020000000000000000000000000000000000000000000000000000000000000000000000000000000000000000000000000000000000000000000000000000000000000000000000000000000000010000000000000000000000000000000000000000000000000000000080000000000000000000000000000000000000000000",
      "type": "0x2",
      "transactionHash": "0xf1e606a3c47a6a11376deb8692552100e766bc7b410ee79ef8a2bb0a0e5d726d",
      "transactionIndex": "0x27",
      "blockHash": "0x4c7ded360f481736910b7ed9d1f48d7736234d66cf3ac7578fa578d67f4d82d7",
      "blockNumber": "0x235ec1c",
      "gasUsed": "0x1903a",
      "effectiveGasPrice": "0xa1955",
      "from": "0xee03621ce83bbf6e3931bccf35b144354f16ccf7",
      "to": "0x2f7c95d1848cb0a5e36de0d4db04c4afe09053dd",
      "contractAddress": null,
      "l1BaseFeeScalar": "0x8dd",
      "l1BlobBaseFee": "0x1",
      "l1BlobBaseFeeScalar": "0x101c12",
      "l1Fee": "0x2b26f473",
      "l1GasPrice": "0xbe2e70b",
      "l1GasUsed": "0x640"
    },
    {
      "status": "0x1",
      "cumulativeGasUsed": "0x88062c",
      "logs": [
        {
          "address": "0x618942af15f2fe6f451bee0e094d46df39822e74",
          "topics": [
            "0xfda678292d5444240435c9b99fcee9e8ff1fa97977e93b7d5ae4062f52cca853"
          ],
          "data": "0x000000000000000000000000000000000000000000000000000000000000000100000000000000000000000000000000000000000000000000000000000013880000000000000000000000000000000000000000000000000000000068f634e50000000000000000000000000000000000000000000000000000000068f634e50000000000000000000000000000000000000000000000000000000000000001",
          "blockHash": "0x4c7ded360f481736910b7ed9d1f48d7736234d66cf3ac7578fa578d67f4d82d7",
          "blockNumber": "0x235ec1c",
          "blockTimestamp": "0x68f6351b",
          "transactionHash": "0xa43d00f109b04eb2df103c3c22c6070894c463efa990855ada9fa04aff02329d",
          "transactionIndex": "0x28",
          "logIndex": "0x99",
          "removed": false
        }
      ],
      "logsBloom": "0x00000000000000000000000000000000000000000000000000000000000000000010000000000000000000000000000000000000000000000000000000000000080000000000000000000000000000000000000000000000000000000200000000000000000000000000000000000000000000000000000000000000000000000008000000000000000000000000000000000000000000000000000000000000000000000000000000000000000000000000000000000000000000000000000000000000000000000000000000010000000000000000000000000000000000000000000000000000000080000000000000000000000000000000000000000000",
      "type": "0x2",
      "transactionHash": "0xa43d00f109b04eb2df103c3c22c6070894c463efa990855ada9fa04aff02329d",
      "transactionIndex": "0x28",
      "blockHash": "0x4c7ded360f481736910b7ed9d1f48d7736234d66cf3ac7578fa578d67f4d82d7",
      "blockNumber": "0x235ec1c",
      "gasUsed": "0x1902e",
      "effectiveGasPrice": "0xa1955",
      "from": "0xee03621ce83bbf6e3931bccf35b144354f16ccf7",
      "to": "0x618942af15f2fe6f451bee0e094d46df39822e74",
      "contractAddress": null,
      "l1BaseFeeScalar": "0x8dd",
      "l1BlobBaseFee": "0x1",
      "l1BlobBaseFeeScalar": "0x101c12",
      "l1Fee": "0x2b26f473",
      "l1GasPrice": "0xbe2e70b",
      "l1GasUsed": "0x640"
    },
    {
      "status": "0x1",
      "cumulativeGasUsed": "0xba8a9a",
      "logs": [
        {
          "address": "0xbf374ffdde61ebf4e19dc0320bd2ded9de447eb4",
          "topics": [
            "0xfda678292d5444240435c9b99fcee9e8ff1fa97977e93b7d5ae4062f52cca853"
          ],
          "data": "0x000000000000000000000000000000000000000000000000000000000000000100000000000000000000000000000000000000000000000000000000046926800000000000000000000000000000000000000000000000000000000068f634e50000000000000000000000000000000000000000000000000000000068f634e50000000000000000000000000000000000000000000000000000000000000001",
          "blockHash": "0x4c7ded360f481736910b7ed9d1f48d7736234d66cf3ac7578fa578d67f4d82d7",
          "blockNumber": "0x235ec1c",
          "blockTimestamp": "0x68f6351b",
          "transactionHash": "0xc168ff6cf4f390331b55f3ff273156feea6ce741d2df2baa97b8e07e2f71caa1",
          "transactionIndex": "0x3c",
          "logIndex": "0xd3",
          "removed": false
        }
      ],
      "logsBloom": "0x00000000000000000000000000000000000000000000000000002000000000000000000000000000000000000000000000000000000080000000000000000000000000000000000000000000000000000000000000000000000000000200000000000000000000000000000000000000000000000000000000000000000000000000000000000000000000000000000000000000000000000000000000000000000000000000000000000000000000000000000000000000000000000000000000000000000000000000000000010000000000000000000000000004000000000000000000000000000080000000000000000000000000000000000000000000",
      "type": "0x2",
      "transactionHash": "0xc168ff6cf4f390331b55f3ff273156feea6ce741d2df2baa97b8e07e2f71caa1",
      "transactionIndex": "0x3c",
      "blockHash": "0x4c7ded360f481736910b7ed9d1f48d7736234d66cf3ac7578fa578d67f4d82d7",
      "blockNumber": "0x235ec1c",
      "gasUsed": "0x19046",
      "effectiveGasPrice": "0xa1955",
      "from": "0xee03621ce83bbf6e3931bccf35b144354f16ccf7",
      "to": "0xbf374ffdde61ebf4e19dc0320bd2ded9de447eb4",
      "contractAddress": null,
      "l1BaseFeeScalar": "0x8dd",
      "l1BlobBaseFee": "0x1",
      "l1BlobBaseFeeScalar": "0x101c12",
      "l1Fee": "0x2b26f473",
      "l1GasPrice": "0xbe2e70b",
      "l1GasUsed": "0x640"
    },
    {
      "status": "0x1",
      "cumulativeGasUsed": "0xd60307",
      "logs": [
        {
          "address": "0x88d873c00658874996e07e98e84ff89c3aa314c1",
          "topics": [
            "0xfda678292d5444240435c9b99fcee9e8ff1fa97977e93b7d5ae4062f52cca853"
          ],
          "data": "0x0000000000000000000000000000000000000000000000000000000000000001000000000000000000000000000000000000000000000000000000000053ec600000000000000000000000000000000000000000000000000000000068f634e50000000000000000000000000000000000000000000000000000000068f634e50000000000000000000000000000000000000000000000000000000000000001",
          "blockHash": "0x4c7ded360f481736910b7ed9d1f48d7736234d66cf3ac7578fa578d67f4d82d7",
          "blockNumber": "0x235ec1c",
          "blockTimestamp": "0x68f6351b",
          "transactionHash": "0x4c19457448d2528a50916f9df83a4afa0dad7f2029ec53d8fcb900d900a38fbd",
          "transactionIndex": "0x4c",
          "logIndex": "0xf1",
          "removed": false
        }
      ],
      "logsBloom": "0x00000000000000000000000000000000000000000000000000000020000000000000000000000000000000000000000000000000000000000000000000000000000000000000000000000000000000000000000000000000000000000200000000000000000000000000000000000000000000000000000004000000000000000000000000000000000000000000000000000000000000000000000000000000000000000000000000000000000000000000000000000000000000000000000040000000000000000000000000010000000000000000000000000000000000000000000000000000000080000000000000000000000000000000000000000000",
      "type": "0x2",
      "transactionHash": "0x4c19457448d2528a50916f9df83a4afa0dad7f2029ec53d8fcb900d900a38fbd",
      "transactionIndex": "0x4c",
      "blockHash": "0x4c7ded360f481736910b7ed9d1f48d7736234d66cf3ac7578fa578d67f4d82d7",
      "blockNumber": "0x235ec1c",
      "gasUsed": "0x1903a",
      "effectiveGasPrice": "0xa1955",
      "from": "0xee03621ce83bbf6e3931bccf35b144354f16ccf7",
      "to": "0x88d873c00658874996e07e98e84ff89c3aa314c1",
      "contractAddress": null,
      "l1BaseFeeScalar": "0x8dd",
      "l1BlobBaseFee": "0x1",
      "l1BlobBaseFeeScalar": "0x101c12",
      "l1Fee": "0x2b26f473",
      "l1GasPrice": "0xbe2e70b",
      "l1GasUsed": "0x640"
    },
    {
      "status": "0x1",
      "cumulativeGasUsed": "0xd79329",
      "logs": [
        {
          "address": "0x7e588b76807b0adf014c4cea3d9df28d4c5e7c80",
          "topics": [
            "0xfda678292d5444240435c9b99fcee9e8ff1fa97977e93b7d5ae4062f52cca853"
          ],
          "data": "0x000000000000000000000000000000000000000000000000000000000000000100000000000000000000000000000000000000000000000000000000000000430000000000000000000000000000000000000000000000000000000068f634e50000000000000000000000000000000000000000000000000000000068f634e50000000000000000000000000000000000000000000000000000000000000001",
          "blockHash": "0x4c7ded360f481736910b7ed9d1f48d7736234d66cf3ac7578fa578d67f4d82d7",
          "blockNumber": "0x235ec1c",
          "blockTimestamp": "0x68f6351b",
          "transactionHash": "0x75964e83996354bf1c9dc1e31729fe137af4275695a1b473a9e488009611bc59",
          "transactionIndex": "0x4d",
          "logIndex": "0xf2",
          "removed": false
        }
      ],
      "logsBloom": "0x00000000000000000000000000000000000000000000000000000000000000000000000000000000000000000000000000000000000000000000000000000000000000020000000000000000000000000000000000000000000000000200000000000000000000000000000000000000000000000000000000000000100000000000000000000000000000000000000000000000000000000000000000000000000000000000000000000000000000000000000000000000000000000000000000000000000000000000000000010000000000000000000040000000000000000000000000000000000080000000000000000000000000000000000000000000",
      "type": "0x2",
      "transactionHash": "0x75964e83996354bf1c9dc1e31729fe137af4275695a1b473a9e488009611bc59",
      "transactionIndex": "0x4d",
      "blockHash": "0x4c7ded360f481736910b7ed9d1f48d7736234d66cf3ac7578fa578d67f4d82d7",
      "blockNumber": "0x235ec1c",
      "gasUsed": "0x19022",
      "effectiveGasPrice": "0xa1955",
      "from": "0xee03621ce83bbf6e3931bccf35b144354f16ccf7",
      "to": "0x7e588b76807b0adf014c4cea3d9df28d4c5e7c80",
      "contractAddress": null,
      "l1BaseFeeScalar": "0x8dd",
      "l1BlobBaseFee": "0x1",
      "l1BlobBaseFeeScalar": "0x101c12",
      "l1Fee": "0x2b26f473",
      "l1GasPrice": "0xbe2e70b",
      "l1GasUsed": "0x640"
    },
    {
      "status": "0x1",
      "cumulativeGasUsed": "0x1dbdba5",
      "logs": [
        {
          "address": "0xc75de9a3c001f6e5f45fb44a11fa7d92e82bac0e",
          "topics": [
            "0xfda678292d5444240435c9b99fcee9e8ff1fa97977e93b7d5ae4062f52cca853"
          ],
          "data": "0x000000000000000000000000000000000000000000000000000000000000000100000000000000000000000000000000000000000000000000000000066ff3000000000000000000000000000000000000000000000000000000000068f634e50000000000000000000000000000000000000000000000000000000068f634e50000000000000000000000000000000000000000000000000000000000000001",
          "blockHash": "0x4c7ded360f481736910b7ed9d1f48d7736234d66cf3ac7578fa578d67f4d82d7",
          "blockNumber": "0x235ec1c",
          "blockTimestamp": "0x68f6351b",
          "transactionHash": "0xacc7c0b6d9ef18c40db996534c51d1c351fe306ae86581994aa5815d27430cd7",
          "transactionIndex": "0xaf",
          "logIndex": "0x1e5",
          "removed": false
        }
      ],
      "logsBloom": "0x00000000000000000000000000000000000000000000000100000000000000000000000000000000000000000000000000000000000000000000000000000000000000000000000000000000000000000000000000000000000000000200000000000000000000000000000000000000000000000000000000000000000000040000000000000000000000000000000000000000000000000000000000000000000000000000000000000000000000000000000000000000000000000000000000000000000000000000000000010000000000000000000000000000000000000000000000000000000080000000000000000000000000000004000000000000",
      "type": "0x2",
      "transactionHash": "0xacc7c0b6d9ef18c40db996534c51d1c351fe306ae86581994aa5815d27430cd7",
      "transactionIndex": "0xaf",
      "blockHash": "0x4c7ded360f481736910b7ed9d1f48d7736234d66cf3ac7578fa578d67f4d82d7",
      "blockNumber": "0x235ec1c",
      "gasUsed": "0x1903a",
      "effectiveGasPrice": "0xa1955",
      "from": "0xee03621ce83bbf6e3931bccf35b144354f16ccf7",
      "to": "0xc75de9a3c001f6e5f45fb44a11fa7d92e82bac0e",
      "contractAddress": null,
      "l1BaseFeeScalar": "0x8dd",
      "l1BlobBaseFee": "0x1",
      "l1BlobBaseFeeScalar": "0x101c12",
      "l1Fee": "0x2b26f473",
      "l1GasPrice": "0xbe2e70b",
      "l1GasUsed": "0x640"
    },
    {
      "status": "0x1",
      "cumulativeGasUsed": "0x2050d16",
      "logs": [
        {
          "address": "0x479702c416cbbd2d95f0c5408a961f9870e6eea5",
          "topics": [
            "0xfda678292d5444240435c9b99fcee9e8ff1fa97977e93b7d5ae4062f52cca853"
          ],
          "data": "0x00000000000000000000000000000000000000000000000000000000000000010000000000000000000000000000000000000000000000000000000005f5e1000000000000000000000000000000000000000000000000000000000068f634e50000000000000000000000000000000000000000000000000000000068f634e50000000000000000000000000000000000000000000000000000000000000001",
          "blockHash": "0x4c7ded360f481736910b7ed9d1f48d7736234d66cf3ac7578fa578d67f4d82d7",
          "blockNumber": "0x235ec1c",
          "blockTimestamp": "0x68f6351b",
          "transactionHash": "0xfefde7448509ccf66dff800849ad8af768431b01009c1e17d22bab74eda0e43c",
          "transactionIndex": "0xc8",
          "logIndex": "0x20b",
          "removed": false
        }
      ],
      "logsBloom": "0x00000000004000000000000000000000000000000000000000000000000000000000000000000000000000000002000000000000000000000000000000000000000000000000000000000000000000000000000000000000000000000200000000000000000000000001000000000000000000000000000000000000000000000000000000000000000000000000000000000000000000000000000000000000000000000000000000000000000000000000000000000000000000000000000000000000000000000000000000010000000000000000000000000000000000000000000000000000000080000000000000000000000000000000000000000000",
      "type": "0x2",
      "transactionHash": "0xfefde7448509ccf66dff800849ad8af768431b01009c1e17d22bab74eda0e43c",
      "transactionIndex": "0xc8",
      "blockHash": "0x4c7ded360f481736910b7ed9d1f48d7736234d66cf3ac7578fa578d67f4d82d7",
      "blockNumber": "0x235ec1c",
      "gasUsed": "0x1903a",
      "effectiveGasPrice": "0xa1955",
      "from": "0xee03621ce83bbf6e3931bccf35b144354f16ccf7",
      "to": "0x479702c416cbbd2d95f0c5408a961f9870e6eea5",
      "contractAddress": null,
      "l1BaseFeeScalar": "0x8dd",
      "l1BlobBaseFee": "0x1",
      "l1BlobBaseFeeScalar": "0x101c12",
      "l1Fee": "0x2b26f473",
      "l1GasPrice": "0xbe2e70b",
      "l1GasUsed": "0x640"
    },
    {
      "status": "0x1",
      "cumulativeGasUsed": "0x2069d5c",
      "logs": [
        {
          "address": "0x7f7e97a31409ca29f1878e0d1b7068160834739b",
          "topics": [
            "0xfda678292d5444240435c9b99fcee9e8ff1fa97977e93b7d5ae4062f52cca853"
          ],
          "data": "0x0000000000000000000000000000000000000000000000000000000000000001000000000000000000000000000000000000000000000000000000517da02c000000000000000000000000000000000000000000000000000000000068f634e50000000000000000000000000000000000000000000000000000000068f634e50000000000000000000000000000000000000000000000000000000000000001",
          "blockHash": "0x4c7ded360f481736910b7ed9d1f48d7736234d66cf3ac7578fa578d67f4d82d7",
          "blockNumber": "0x235ec1c",
          "blockTimestamp": "0x68f6351b",
          "transactionHash": "0xfa32ff357443108abcb391c18a09ff02a809ed1fd155535f9b28d19cf7455b2a",
          "transactionIndex": "0xc9",
          "logIndex": "0x20c",
          "removed": false
        }
      ],
      "logsBloom": "0x00000000000000000000010000000000000000000000000000000000000000000000000000000000001000000000000000000000000000000000000000000000000000000000000000000000000000000000000000000000000000000200000000000000000000000000000000000000000000000000000000000000000000000000000000000000000000000000000000000000000000000000000000000000000000000000000000000000000000000000000080000000000000000000000000000000000000000000000000010000000000000000000000000000000000000000000000000000000080000000000000000000000000000000000000000000",
      "type": "0x2",
      "transactionHash": "0xfa32ff357443108abcb391c18a09ff02a809ed1fd155535f9b28d19cf7455b2a",
      "transactionIndex": "0xc9",
      "blockHash": "0x4c7ded360f481736910b7ed9d1f48d7736234d66cf3ac7578fa578d67f4d82d7",
      "blockNumber": "0x235ec1c",
      "gasUsed": "0x19046",
      "effectiveGasPrice": "0xa1955",
      "from": "0xee03621ce83bbf6e3931bccf35b144354f16ccf7",
      "to": "0x7f7e97a31409ca29f1878e0d1b7068160834739b",
      "contractAddress": null,
      "l1BaseFeeScalar": "0x8dd",
      "l1BlobBaseFee": "0x1",
      "l1BlobBaseFeeScalar": "0x101c12",
      "l1Fee": "0x2b26f473",
      "l1GasPrice": "0xbe2e70b",
      "l1GasUsed": "0x640"
    },
    {
      "status": "0x1",
      "cumulativeGasUsed": "0x2082dae",
      "logs": [
        {
          "address": "0xe8484f0442707c3daec850be6e05a128100a00cd",
          "topics": [
            "0xfda678292d5444240435c9b99fcee9e8ff1fa97977e93b7d5ae4062f52cca853"
          ],
          "data": "0x0000000000000000000000000000000000000000000000000000000000000001000000000000000000000000000000000000000000000000000008a3e42018000000000000000000000000000000000000000000000000000000000068f634e50000000000000000000000000000000000000000000000000000000068f634e50000000000000000000000000000000000000000000000000000000000000001",
          "blockHash": "0x4c7ded360f481736910b7ed9d1f48d7736234d66cf3ac7578fa578d67f4d82d7",
          "blockNumber": "0x235ec1c",
          "blockTimestamp": "0x68f6351b",
          "transactionHash": "0x074e0fc3a0122858981a1018eaa3bf75c51e8b62af427fee3a6f7068af7baa8e",
          "transactionIndex": "0xca",
          "logIndex": "0x20d",
          "removed": false
        }
      ],
      "logsBloom": "0x00000000000000000008000000000000000000000000000000000000000000000000000000000000000000000000000000000000000000000000000000000080000000000000000000000000000000000000000000000000000000000200000000000000000000000000000000000000000000000000000000000000000000400000000000000000000000000000000000000000000000000000000000000000000000000000000000000000000000000000000000000000000000000000000000000000000000000000000000010000000000000000000000000000000000000000000000000000000080000000000000000000000000000000000000000000",
      "type": "0x2",
      "transactionHash": "0x074e0fc3a0122858981a1018eaa3bf75c51e8b62af427fee3a6f7068af7baa8e",
      "transactionIndex": "0xca",
      "blockHash": "0x4c7ded360f481736910b7ed9d1f48d7736234d66cf3ac7578fa578d67f4d82d7",
      "blockNumber": "0x235ec1c",
      "gasUsed": "0x19052",
      "effectiveGasPrice": "0xa1955",
      "from": "0xee03621ce83bbf6e3931bccf35b144354f16ccf7",
      "to": "0xe8484f0442707c3daec850be6e05a128100a00cd",
      "contractAddress": null,
      "l1BaseFeeScalar": "0x8dd",
      "l1BlobBaseFee": "0x1",
      "l1BlobBaseFeeScalar": "0x101c12",
      "l1Fee": "0x2b26f473",
      "l1GasPrice": "0xbe2e70b",
      "l1GasUsed": "0x640"
    }
  ],
  "libraries": [],
  "pending": [],
  "returns": {},
  "timestamp": 1760966150459,
  "chain": 8453,
  "commit": "fbbea34"
}