{
  "transactions": [
    {
      "hash": "0x6284022e42dc0bd4fd903e493647745298e5e5dafa3914df668a6e72bea2aaec",
      "transactionType": "CALL",
      "contractName": null,
      "contractAddress": "0x23c5462bcd096abfdfe9a845a9e1ec06bea3f81b",
      "function": "setTokenDataStream(address)",
      "arguments": [
        "0xB113959014d95C555B8A908D794e73478e5509A8"
      ],
      "transaction": {
        "from": "0xee03621ce83bbf6e3931bccf35b144354f16ccf7",
        "to": "0x23c5462bcd096abfdfe9a845a9e1ec06bea3f81b",
        "gas": "0x95a0",
        "value": "0x0",
        "input": "0x9cc8b2d1000000000000000000000000b113959014d95c555b8a908d794e73478e5509a8",
        "nonce": "0x69",
        "chainId": "0x2105"
      },
      "additionalContracts": [],
      "isFixedGasLimit": false
    },
    {
      "hash": "0x124c226ddcf06ed2bdc6400e881a75293b4fc44348471320215465c56e5493d1",
      "transactionType": "CALL",
      "contractName": null,
      "contractAddress": "0x23c5462bcd096abfdfe9a845a9e1ec06bea3f81b",
      "function": "setIsHealthy(address)",
      "arguments": [
        "0x9EDF457dB4C061E22CD87d3E4a886CeA967b629B"
      ],
      "transaction": {
        "from": "0xee03621ce83bbf6e3931bccf35b144354f16ccf7",
        "to": "0x23c5462bcd096abfdfe9a845a9e1ec06bea3f81b",
        "gas": "0x9582",
        "value": "0x0",
        "input": "0x59917d7d0000000000000000000000009edf457db4c061e22cd87d3e4a886cea967b629b",
        "nonce": "0x6a",
        "chainId": "0x2105"
      },
      "additionalContracts": [],
      "isFixedGasLimit": false
    },
    {
      "hash": "0xdec6e3dc9cc36af0d965006a7b961caa6b8493fa335a71b8d980c02c2effa945",
      "transactionType": "CALL",
      "contractName": null,
      "contractAddress": "0x23c5462bcd096abfdfe9a845a9e1ec06bea3f81b",
      "function": "setLendingPool(address)",
      "arguments": [
        "0xC60D72c8Cb53842f15cfFa8A0bb9DbC759E44452"
      ],
      "transaction": {
        "from": "0xee03621ce83bbf6e3931bccf35b144354f16ccf7",
        "to": "0x23c5462bcd096abfdfe9a845a9e1ec06bea3f81b",
        "gas": "0x9e0e",
        "value": "0x0",
        "input": "0x113aa8b1000000000000000000000000c60d72c8cb53842f15cffa8a0bb9dbc759e44452",
        "nonce": "0x6b",
        "chainId": "0x2105"
      },
      "additionalContracts": [],
      "isFixedGasLimit": false
    },
    {
      "hash": "0x54128c1e5e8fc372dafcf895bbd46f78e6eee2d9101fb6a988c8183ba395fc03",
      "transactionType": "CALL",
      "contractName": null,
      "contractAddress": "0x23c5462bcd096abfdfe9a845a9e1ec06bea3f81b",
      "function": "setChainIdToLzEid(uint256,uint256)",
      "arguments": [
        "8453",
        "30184"
      ],
      "transaction": {
        "from": "0xee03621ce83bbf6e3931bccf35b144354f16ccf7",
        "to": "0x23c5462bcd096abfdfe9a845a9e1ec06bea3f81b",
        "gas": "0xa049",
        "value": "0x0",
        "input": "0xe724bc74000000000000000000000000000000000000000000000000000000000000210500000000000000000000000000000000000000000000000000000000000075e8",
        "nonce": "0x6c",
        "chainId": "0x2105"
      },
      "additionalContracts": [],
      "isFixedGasLimit": false
    },
    {
      "hash": "0x4cfb0aee202232deb900430e8cdee4deef2229f4fc40ffd6d8ad8d293362770d",
      "transactionType": "CALL",
      "contractName": null,
      "contractAddress": "0x23c5462bcd096abfdfe9a845a9e1ec06bea3f81b",
      "function": "setChainIdToLzEid(uint256,uint256)",
      "arguments": [
        "42161",
        "30110"
      ],
      "transaction": {
        "from": "0xee03621ce83bbf6e3931bccf35b144354f16ccf7",
        "to": "0x23c5462bcd096abfdfe9a845a9e1ec06bea3f81b",
        "gas": "0xa049",
        "value": "0x0",
        "input": "0xe724bc74000000000000000000000000000000000000000000000000000000000000a4b1000000000000000000000000000000000000000000000000000000000000759e",
        "nonce": "0x6d",
        "chainId": "0x2105"
      },
      "additionalContracts": [],
      "isFixedGasLimit": false
    },
    {
      "hash": "0xd15b24efa11f5d2a81db4f59eff5490c61d20d7f03bdf9b3aa3782aaa7c109a1",
      "transactionType": "CALL",
      "contractName": null,
      "contractAddress": "0x23c5462bcd096abfdfe9a845a9e1ec06bea3f81b",
      "function": "setChainIdToOApp(uint256,address)",
      "arguments": [
        "8453",
        "0x9B7168FC8cECeE70B1bEeD9B5EcFcD1f649F2B1C"
      ],
      "transaction": {
        "from": "0xee03621ce83bbf6e3931bccf35b144354f16ccf7",
        "to": "0x23c5462bcd096abfdfe9a845a9e1ec06bea3f81b",
        "gas": "0x99b3",
        "value": "0x0",
        "input": "0xf86ae78800000000000000000000000000000000000000000000000000000000000021050000000000000000000000009b7168fc8cecee70b1beed9b5ecfcd1f649f2b1c",
        "nonce": "0x6e",
        "chainId": "0x2105"
      },
      "additionalContracts": [],
      "isFixedGasLimit": false
    },
    {
      "hash": "0xb48082afd22259b0d24a2dd104486d2afafdb5f2c5a1364a9b93dff57dc5783f",
      "transactionType": "CALL",
      "contractName": null,
      "contractAddress": "0x23c5462bcd096abfdfe9a845a9e1ec06bea3f81b",
      "function": "setCrosschainToken(address,uint256,address)",
      "arguments": [
        "0xe3BaB20B2711e0577C46d14fd10bfFC0961036C3",
        "42161",
        "0xC23e60Ac84240ffCe72680652515dfb1435C356b"
      ],
      "transaction": {
        "from": "0xee03621ce83bbf6e3931bccf35b144354f16ccf7",
        "to": "0x23c5462bcd096abfdfe9a845a9e1ec06bea3f81b",
        "gas": "0xba5c",
        "value": "0x0",
        "input": "0xb3ce07de000000000000000000000000e3bab20b2711e0577c46d14fd10bffc0961036c3000000000000000000000000000000000000000000000000000000000000a4b1000000000000000000000000c23e60ac84240ffce72680652515dfb1435c356b",
        "nonce": "0x6f",
        "chainId": "0x2105"
      },
      "additionalContracts": [],
      "isFixedGasLimit": false
    },
    {
      "hash": "0xc027cdb63b9966c8ec10e2f2cb3f36920aa491d24c57f3f00fbecb36d7d37c95",
      "transactionType": "CALL",
      "contractName": null,
      "contractAddress": "0x23c5462bcd096abfdfe9a845a9e1ec06bea3f81b",
      "function": "setCrosschainToken(address,uint256,address)",
      "arguments": [
        "0xE29A9fBdf3d83c126C6366D7f401473Ab0850e7F",
        "42161",
        "0x338802B73DA88D05e1b3A0203092AD43807049Be"
      ],
      "transaction": {
        "from": "0xee03621ce83bbf6e3931bccf35b144354f16ccf7",
        "to": "0x23c5462bcd096abfdfe9a845a9e1ec06bea3f81b",
        "gas": "0xba5c",
        "value": "0x0",
        "input": "0xb3ce07de000000000000000000000000e29a9fbdf3d83c126c6366d7f401473ab0850e7f000000000000000000000000000000000000000000000000000000000000a4b1000000000000000000000000338802b73da88d05e1b3a0203092ad43807049be",
        "nonce": "0x70",
        "chainId": "0x2105"
      },
      "additionalContracts": [],
      "isFixedGasLimit": false
    },
    {
      "hash": "0x1c86ca9c62d01eeec9114bf7a0a2cbb151bc60df91095d5e9a99d35dc131b4c1",
      "transactionType": "CALL",
      "contractName": null,
      "contractAddress": "0xc60d72c8cb53842f15cffa8a0bb9dbc759e44452",
      "function": "setRouter(address)",
      "arguments": [
        "0x23c5462BcD096AbFdFe9A845A9E1Ec06bEa3F81B"
      ],
      "transaction": {
        "from": "0xee03621ce83bbf6e3931bccf35b144354f16ccf7",
        "to": "0xc60d72c8cb53842f15cffa8a0bb9dbc759e44452",
        "gas": "0xc131",
        "value": "0x0",
        "input": "0xc0d7865500000000000000000000000023c5462bcd096abfdfe9a845a9e1ec06bea3f81b",
        "nonce": "0x71",
        "chainId": "0x2105"
      },
      "additionalContracts": [],
      "isFixedGasLimit": false
    }
  ],
  "receipts": [
    {
      "status": "0x1",
      "cumulativeGasUsed": "0x1a411d3",
      "logs": [
        {
          "address": "0x23c5462bcd096abfdfe9a845a9e1ec06bea3f81b",
          "topics": [
            "0x0a79aff962cc9e0a3ce8d1f62271362cbf066d9d0ffc588f0f90940b1fe41955"
          ],
          "data": "0x000000000000000000000000b113959014d95c555b8a908d794e73478e5509a8",
          "blockHash": "0x31233103e2afc009e95dd65456eb6a0ba0209e809c32b60fcd876d5ec4891a92",
          "blockNumber": "0x234876d",
          "blockTimestamp": "0x68f36bbd",
          "transactionHash": "0x6284022e42dc0bd4fd903e493647745298e5e5dafa3914df668a6e72bea2aaec",
          "transactionIndex": "0xa1",
          "logIndex": "0x32f",
          "removed": false
        }
      ],
      "logsBloom": "0x00000000000000000000000000000000000000000000000000000000000000000000000000000801000000000000000000000000000000000000000000000000000000000000000000000000000000000000000000000000000000000000000000000000000000000000000000000000000000000000000000000000000000000000000000000000000000004000000000000000000000000000000000000000000000000000000000000000000000000000000000000000000000020000000000000000000008000000008000000000000000000000000000000000000000000000000000000000000000000000000000000000000000000000000000000000",
      "type": "0x2",
      "transactionHash": "0x6284022e42dc0bd4fd903e493647745298e5e5dafa3914df668a6e72bea2aaec",
      "transactionIndex": "0xa1",
      "blockHash": "0x31233103e2afc009e95dd65456eb6a0ba0209e809c32b60fcd876d5ec4891a92",
      "blockNumber": "0x234876d",
      "gasUsed": "0x6c54",
      "effectiveGasPrice": "0xf26fa",
      "from": "0xee03621ce83bbf6e3931bccf35b144354f16ccf7",
      "to": "0x23c5462bcd096abfdfe9a845a9e1ec06bea3f81b",
      "contractAddress": null,
      "l1BaseFeeScalar": "0x8dd",
      "l1BlobBaseFee": "0x1",
      "l1BlobBaseFeeScalar": "0x101c12",
      "l1Fee": "0x1b73c9ba",
      "l1GasPrice": "0x78fd0e5",
      "l1GasUsed": "0x640"
    },
    {
      "status": "0x1",
      "cumulativeGasUsed": "0x1a47e12",
      "logs": [
        {
          "address": "0x23c5462bcd096abfdfe9a845a9e1ec06bea3f81b",
          "topics": [
            "0xdfccf581ae27a41845f39125ccb5ef00c0a079c5bf3bf751ecd2045e2d6d442f"
          ],
          "data": "0x0000000000000000000000009edf457db4c061e22cd87d3e4a886cea967b629b",
          "blockHash": "0x31233103e2afc009e95dd65456eb6a0ba0209e809c32b60fcd876d5ec4891a92",
          "blockNumber": "0x234876d",
          "blockTimestamp": "0x68f36bbd",
          "transactionHash": "0x124c226ddcf06ed2bdc6400e881a75293b4fc44348471320215465c56e5493d1",
          "transactionIndex": "0xa2",
          "logIndex": "0x330",
          "removed": false
        }
      ],
      "logsBloom": "0x00000000000000000000000000000000000000000000000000000000000000000000000000000800000000000000000000000000000000000000000000000000000000000000000000000000000000000000000000000000000000000000000000000000000000000000000000000000000000000000000000004000000000000000000000000000000800004000000000000000000000000000000000000000000000000000000000000000000000000000000000000000000000000000000000000000000008000000000100000000000000000000000000000000000000000000000000000000000000000000000000000000000000000000000000000000",
      "type": "0x2",
      "transactionHash": "0x124c226ddcf06ed2bdc6400e881a75293b4fc44348471320215465c56e5493d1",
      "transactionIndex": "0xa2",
      "blockHash": "0x31233103e2afc009e95dd65456eb6a0ba0209e809c32b60fcd876d5ec4891a92",
      "blockNumber": "0x234876d",
      "gasUsed": "0x6c3f",
      "effectiveGasPrice": "0xf26fa",
      "from": "0xee03621ce83bbf6e3931bccf35b144354f16ccf7",
      "to": "0x23c5462bcd096abfdfe9a845a9e1ec06bea3f81b",
      "contractAddress": null,
      "l1BaseFeeScalar": "0x8dd",
      "l1BlobBaseFee": "0x1",
      "l1BlobBaseFeeScalar": "0x101c12",
      "l1Fee": "0x1b73c9ba",
      "l1GasPrice": "0x78fd0e5",
      "l1GasUsed": "0x640"
    },
    {
      "status": "0x1",
      "cumulativeGasUsed": "0x20568dd",
      "logs": [
        {
          "address": "0x23c5462bcd096abfdfe9a845a9e1ec06bea3f81b",
          "topics": [
            "0x1222804283c650162c0f858b42dcc4564e940f0cc2b3f001bcd6af8aa00a2f30"
          ],
          "data": "0x000000000000000000000000c60d72c8cb53842f15cffa8a0bb9dbc759e44452",
          "blockHash": "0x31233103e2afc009e95dd65456eb6a0ba0209e809c32b60fcd876d5ec4891a92",
          "blockNumber": "0x234876d",
          "blockTimestamp": "0x68f36bbd",
          "transactionHash": "0xdec6e3dc9cc36af0d965006a7b961caa6b8493fa335a71b8d980c02c2effa945",
          "transactionIndex": "0xcd",
          "logIndex": "0x3bd",
          "removed": false
        }
      ],
      "logsBloom": "0x00000000000040000000000000000000000000000000000000000000000000000000000000000800000000000000000000000000000000000000000000000000000000000000000000000000000000000000000000000000000000000000000000000000000200000000000000000000000000000000000000000000000000000000000000000000000000004000000000000000000000000000000000000000000000000000000000000000000000000000000000000000000000000000000000000000000008000000000000000000000000000000000000000000000000000000000000000000000000000000000000000000000000000000000000000010",
      "type": "0x2",
      "transactionHash": "0xdec6e3dc9cc36af0d965006a7b961caa6b8493fa335a71b8d980c02c2effa945",
      "transactionIndex": "0xcd",
      "blockHash": "0x31233103e2afc009e95dd65456eb6a0ba0209e809c32b60fcd876d5ec4891a92",
      "blockNumber": "0x234876d",
      "gasUsed": "0x6c13",
      "effectiveGasPrice": "0xf26fa",
      "from": "0xee03621ce83bbf6e3931bccf35b144354f16ccf7",
      "to": "0x23c5462bcd096abfdfe9a845a9e1ec06bea3f81b",
      "contractAddress": null,
      "l1BaseFeeScalar": "0x8dd",
      "l1BlobBaseFee": "0x1",
      "l1BlobBaseFeeScalar": "0x101c12",
      "l1Fee": "0x1b73c9ba",
      "l1GasPrice": "0x78fd0e5",
      "l1GasUsed": "0x640"
    },
    {
      "status": "0x1",
      "cumulativeGasUsed": "0x205d676",
      "logs": [
        {
          "address": "0x23c5462bcd096abfdfe9a845a9e1ec06bea3f81b",
          "topics": [
            "0x84f965c2d43aff223849d7e2295ef7211c3118122c961e195d9dd40a32f46c86"
          ],
          "data": "0x000000000000000000000000000000000000000000000000000000000000210500000000000000000000000000000000000000000000000000000000000075e8",
          "blockHash": "0x31233103e2afc009e95dd65456eb6a0ba0209e809c32b60fcd876d5ec4891a92",
          "blockNumber": "0x234876d",
          "blockTimestamp": "0x68f36bbd",
          "transactionHash": "0x54128c1e5e8fc372dafcf895bbd46f78e6eee2d9101fb6a988c8183ba395fc03",
          "transactionIndex": "0xce",
          "logIndex": "0x3be",
          "removed": false
        }
      ],
      "logsBloom": "0x00000000000000000000000000000000020000000000000000000000000000000000000000000800000000000000000000000000000000000000000000000000000000000000000000000000000000000000080000000000000000000000000000000000000000000000000000000000000000000000000000000000000000000000000000000000000000004000000000000000000000000000000000000000000000000000000000000000000000000000000000000000020000000000000000000000000008000000000000000000000000000000000000000000000000000000000000000000000000000000000000000000000000000000000000000000",
      "type": "0x2",
      "transactionHash": "0x54128c1e5e8fc372dafcf895bbd46f78e6eee2d9101fb6a988c8183ba395fc03",
      "transactionIndex": "0xce",
      "blockHash": "0x31233103e2afc009e95dd65456eb6a0ba0209e809c32b60fcd876d5ec4891a92",
      "blockNumber": "0x234876d",
      "gasUsed": "0x6d99",
      "effectiveGasPrice": "0xf26fa",
      "from": "0xee03621ce83bbf6e3931bccf35b144354f16ccf7",
      "to": "0x23c5462bcd096abfdfe9a845a9e1ec06bea3f81b",
      "contractAddress": null,
      "l1BaseFeeScalar": "0x8dd",
      "l1BlobBaseFee": "0x1",
      "l1BlobBaseFeeScalar": "0x101c12",
      "l1Fee": "0x1b73c9ba",
      "l1GasPrice": "0x78fd0e5",
      "l1GasUsed": "0x640"
    },
    {
      "status": "0x1",
      "cumulativeGasUsed": "0x206440f",
      "logs": [
        {
          "address": "0x23c5462bcd096abfdfe9a845a9e1ec06bea3f81b",
          "topics": [
            "0x84f965c2d43aff223849d7e2295ef7211c3118122c961e195d9dd40a32f46c86"
          ],
          "data": "0x000000000000000000000000000000000000000000000000000000000000a4b1000000000000000000000000000000000000000000000000000000000000759e",
          "blockHash": "0x31233103e2afc009e95dd65456eb6a0ba0209e809c32b60fcd876d5ec4891a92",
          "blockNumber": "0x234876d",
          "blockTimestamp": "0x68f36bbd",
          "transactionHash": "0x4cfb0aee202232deb900430e8cdee4deef2229f4fc40ffd6d8ad8d293362770d",
          "transactionIndex": "0xcf",
          "logIndex": "0x3bf",
          "removed": false
        }
      ],
      "logsBloom": "0x00000000000000000000000000000000020000000000000000000000000000000000000000000800000000000000000000000000000000000000000000000000000000000000000000000000000000000000080000000000000000000000000000000000000000000000000000000000000000000000000000000000000000000000000000000000000000004000000000000000000000000000000000000000000000000000000000000000000000000000000000000000020000000000000000000000000008000000000000000000000000000000000000000000000000000000000000000000000000000000000000000000000000000000000000000000",
      "type": "0x2",
      "transactionHash": "0x4cfb0aee202232deb900430e8cdee4deef2229f4fc40ffd6d8ad8d293362770d",
      "transactionIndex": "0xcf",
      "blockHash": "0x31233103e2afc009e95dd65456eb6a0ba0209e809c32b60fcd876d5ec4891a92",
      "blockNumber": "0x234876d",
      "gasUsed": "0x6d99",
      "effectiveGasPrice": "0xf26fa",
      "from": "0xee03621ce83bbf6e3931bccf35b144354f16ccf7",
      "to": "0x23c5462bcd096abfdfe9a845a9e1ec06bea3f81b",
      "contractAddress": null,
      "l1BaseFeeScalar": "0x8dd",
      "l1BlobBaseFee": "0x1",
      "l1BlobBaseFeeScalar": "0x101c12",
      "l1Fee": "0x1b73c9ba",
      "l1GasPrice": "0x78fd0e5",
      "l1GasUsed": "0x640"
    },
    {
      "status": "0x1",
      "cumulativeGasUsed": "0x132538f",
      "logs": [
        {
          "address": "0x23c5462bcd096abfdfe9a845a9e1ec06bea3f81b",
          "topics": [
            "0x08bb8a5c04b030742c31bf3ed154a8ee0a26b42d6edea42acb7a82eefbe8366b"
          ],
          "data": "0x00000000000000000000000000000000000000000000000000000000000021050000000000000000000000009b7168fc8cecee70b1beed9b5ecfcd1f649f2b1c",
          "blockHash": "0xafbd88b54a233b74fb92a877e7416d7b7f3e883917b97c6259e5a288304a04dc",
          "blockNumber": "0x234876e",
          "blockTimestamp": "0x68f36bbf",
          "transactionHash": "0xd15b24efa11f5d2a81db4f59eff5490c61d20d7f03bdf9b3aa3782aaa7c109a1",
          "transactionIndex": "0x3d",
          "logIndex": "0x146",
          "removed": false
        }
      ],
      "logsBloom": "0x00000000000000000000000000000000000000000000000000002000000000000000000000000800000000000000000000000000000000000000000000000000000000000000000000000000000000000000000000000000000000000000000000000000000000000000000000000000000000000000000000000000000000000000000000000000000000004000000000000000000000000010000000000000000000000000000000000000000000000000000000000000000000000000000000000000000008000000000000000000000000000000000000000000000000000000000000000000000000000000000000000000000000000000040000000000",
      "type": "0x2",
      "transactionHash": "0xd15b24efa11f5d2a81db4f59eff5490c61d20d7f03bdf9b3aa3782aaa7c109a1",
      "transactionIndex": "0x3d",
      "blockHash": "0xafbd88b54a233b74fb92a877e7416d7b7f3e883917b97c6259e5a288304a04dc",
      "blockNumber": "0x234876e",
      "gasUsed": "0x6f47",
      "effectiveGasPrice": "0xf1180",
      "from": "0xee03621ce83bbf6e3931bccf35b144354f16ccf7",
      "to": "0x23c5462bcd096abfdfe9a845a9e1ec06bea3f81b",
      "contractAddress": null,
      "l1BaseFeeScalar": "0x8dd",
      "l1BlobBaseFee": "0x1",
      "l1BlobBaseFeeScalar": "0x101c12",
      "l1Fee": "0x1b73c9ba",
      "l1GasPrice": "0x78fd0e5",
      "l1GasUsed": "0x640"
    },
    {
      "status": "0x1",
      "cumulativeGasUsed": "0x132da7c",
      "logs": [
        {
          "address": "0x23c5462bcd096abfdfe9a845a9e1ec06bea3f81b",
          "topics": [
            "0x56c11b172f0dd7dd15debf6b9704a3b4af711bb611b33fcb966b2fa57530b9ff"
          ],
          "data": "0x000000000000000000000000e3bab20b2711e0577c46d14fd10bffc0961036c3000000000000000000000000000000000000000000000000000000000000a4b1000000000000000000000000000000000000000000000000000000000000759e000000000000000000000000c23e60ac84240ffce72680652515dfb1435c356b",
          "blockHash": "0xafbd88b54a233b74fb92a877e7416d7b7f3e883917b97c6259e5a288304a04dc",
          "blockNumber": "0x234876e",
          "blockTimestamp": "0x68f36bbf",
          "transactionHash": "0xb48082afd22259b0d24a2dd104486d2afafdb5f2c5a1364a9b93dff57dc5783f",
          "transactionIndex": "0x3e",
          "logIndex": "0x147",
          "removed": false
        }
      ],
      "logsBloom": "0x00000000000000000000000000000000000000000000000000000000000000000000000000000800000000000000000000000000000000000000000000000000000000000000000000000000000000000000000000000000000000000000000000000000000000000000000000000000000000000000000000000000000000000000000800000000000000004000000000000000000000000000000000000000000000000000000000000000000000000000000000000000000000000100000000000000000008000000000000000000000000000000000000000000000000000000000100000000000000000000000000000000000000000000000000000000",
      "type": "0x2",
      "transactionHash": "0xb48082afd22259b0d24a2dd104486d2afafdb5f2c5a1364a9b93dff57dc5783f",
      "transactionIndex": "0x3e",
      "blockHash": "0xafbd88b54a233b74fb92a877e7416d7b7f3e883917b97c6259e5a288304a04dc",
      "blockNumber": "0x234876e",
      "gasUsed": "0x86ed",
      "effectiveGasPrice": "0xf1180",
      "from": "0xee03621ce83bbf6e3931bccf35b144354f16ccf7",
      "to": "0x23c5462bcd096abfdfe9a845a9e1ec06bea3f81b",
      "contractAddress": null,
      "l1BaseFeeScalar": "0x8dd",
      "l1BlobBaseFee": "0x1",
      "l1BlobBaseFeeScalar": "0x101c12",
      "l1Fee": "0x1c7efa3b",
      "l1GasPrice": "0x78fd0e5",
      "l1GasUsed": "0x67c"
    },
    {
      "status": "0x1",
      "cumulativeGasUsed": "0x1336169",
      "logs": [
        {
          "address": "0x23c5462bcd096abfdfe9a845a9e1ec06bea3f81b",
          "topics": [
            "0x56c11b172f0dd7dd15debf6b9704a3b4af711bb611b33fcb966b2fa57530b9ff"
          ],
          "data": "0x000000000000000000000000e29a9fbdf3d83c126c6366d7f401473ab0850e7f000000000000000000000000000000000000000000000000000000000000a4b1000000000000000000000000000000000000000000000000000000000000759e000000000000000000000000338802b73da88d05e1b3a0203092ad43807049be",
          "blockHash": "0xafbd88b54a233b74fb92a877e7416d7b7f3e883917b97c6259e5a288304a04dc",
          "blockNumber": "0x234876e",
          "blockTimestamp": "0x68f36bbf",
          "transactionHash": "0xc027cdb63b9966c8ec10e2f2cb3f36920aa491d24c57f3f00fbecb36d7d37c95",
          "transactionIndex": "0x3f",
          "logIndex": "0x148",
          "removed": false
        }
      ],
      "logsBloom": "0x00000000000000000000000000000000000000000000000000000000000000000000000000000800000000000000000000000000000000000000000000000000000000000000000000000000000000000000000000000000000000000000000000000000000000000000000000000000000000000000000000000000000000000000000800000000000000004000000000000000000000000000000000000000000000000000000000000000000000000000000000000000000000000100000000000000000008000000000000000000000000000000000000000000000000000000000100000000000000000000000000000000000000000000000000000000",
      "type": "0x2",
      "transactionHash": "0xc027cdb63b9966c8ec10e2f2cb3f36920aa491d24c57f3f00fbecb36d7d37c95",
      "transactionIndex": "0x3f",
      "blockHash": "0xafbd88b54a233b74fb92a877e7416d7b7f3e883917b97c6259e5a288304a04dc",
      "blockNumber": "0x234876e",
      "gasUsed": "0x86ed",
      "effectiveGasPrice": "0xf1180",
      "from": "0xee03621ce83bbf6e3931bccf35b144354f16ccf7",
      "to": "0x23c5462bcd096abfdfe9a845a9e1ec06bea3f81b",
      "contractAddress": null,
      "l1BaseFeeScalar": "0x8dd",
      "l1BlobBaseFee": "0x1",
      "l1BlobBaseFeeScalar": "0x101c12",
      "l1Fee": "0x1cb9c3d1",
      "l1GasPrice": "0x78fd0e5",
      "l1GasUsed": "0x68a"
    },
    {
      "status": "0x1",
      "cumulativeGasUsed": "0x133ed48",
      "logs": [
        {
          "address": "0xc60d72c8cb53842f15cffa8a0bb9dbc759e44452",
          "topics": [
            "0xc6b438e6a8a59579ce6a4406cbd203b740e0d47b458aae6596339bcd40c40d15"
          ],
          "data": "0x00000000000000000000000023c5462bcd096abfdfe9a845a9e1ec06bea3f81b",
          "blockHash": "0xafbd88b54a233b74fb92a877e7416d7b7f3e883917b97c6259e5a288304a04dc",
          "blockNumber": "0x234876e",
          "blockTimestamp": "0x68f36bbf",
          "transactionHash": "0x1c86ca9c62d01eeec9114bf7a0a2cbb151bc60df91095d5e9a99d35dc131b4c1",
          "transactionIndex": "0x40",
          "logIndex": "0x149",
          "removed": false
        }
      ],
      "logsBloom": "0x00000000000000000000000000000000000000000000000000000000000000000000000000000000000000000000000000000000000000000000000000000000000000000000000000000000000000000000000000000000000000000000100000000000000000000000000000000000000000000018000000000000000000000000000000000000000000000000000000000000000000000000000000000000000000400000000000000000000000000000000000000000000000000000000000000000000000000000000000000000000000400000000000000000000000000000000000000010000000000000000000000000000000000000000000000000",
      "type": "0x2",
      "transactionHash": "0x1c86ca9c62d01eeec9114bf7a0a2cbb151bc60df91095d5e9a99d35dc131b4c1",
      "transactionIndex": "0x40",
      "blockHash": "0xafbd88b54a233b74fb92a877e7416d7b7f3e883917b97c6259e5a288304a04dc",
      "blockNumber": "0x234876e",
      "gasUsed": "0x8bdf",
      "effectiveGasPrice": "0xf1180",
      "from": "0xee03621ce83bbf6e3931bccf35b144354f16ccf7",
      "to": "0xc60d72c8cb53842f15cffa8a0bb9dbc759e44452",
      "contractAddress": null,
      "l1BaseFeeScalar": "0x8dd",
      "l1BlobBaseFee": "0x1",
      "l1BlobBaseFeeScalar": "0x101c12",
      "l1Fee": "0x1b73c9ba",
      "l1GasPrice": "0x78fd0e5",
      "l1GasUsed": "0x640"
    }
  ],
  "libraries": [],
  "pending": [],
  "returns": {},
  "timestamp": 1760783297322,
  "chain": 8453,
  "commit": "aaddbdd"
}