{
  "transactions": [
    {
      "hash": "0xf9f06a4f5e7fc20113041ad0af0fdc5a59f2e662f1491456aeca195631e4c464",
      "transactionType": "CREATE",
      "contractName": "Router",
      "contractAddress": "0x23c5462bcd096abfdfe9a845a9e1ec06bea3f81b",
      "function": null,
      "arguments": null,
      "transaction": {
        "from": "0xee03621ce83bbf6e3931bccf35b144354f16ccf7",
        "gas": "0x106e9b",
        "value": "0x0",
        "input": "0x608060405234801561000f575f5ffd5b50335f73ffffffffffffffffffffffffffffffffffffffff168173ffffffffffffffffffffffffffffffffffffffff1603610081575f6040517f1e4fbdf70000000000000000000000000000000000000000000000000000000081526004016100789190610196565b60405180910390fd5b6100908161009660201b60201c565b506101af565b5f5f5f9054906101000a900473ffffffffffffffffffffffffffffffffffffffff169050815f5f6101000a81548173ffffffffffffffffffffffffffffffffffffffff021916908373ffffffffffffffffffffffffffffffffffffffff1602179055508173ffffffffffffffffffffffffffffffffffffffff168173ffffffffffffffffffffffffffffffffffffffff167f8be0079c531659141344cd1fd0a4f28419497f9722a3daafe3b4186f6b6457e060405160405180910390a35050565b5f73ffffffffffffffffffffffffffffffffffffffff82169050919050565b5f61018082610157565b9050919050565b61019081610176565b82525050565b5f6020820190506101a95f830184610187565b92915050565b610d7a806101bc5f395ff3fe608060405234801561000f575f5ffd5b50600436106100fe575f3560e01c80639ce5d2ba11610095578063e724bc7411610064578063e724bc7414610284578063ef75be55146102a0578063f2fde38b146102d0578063f86ae788146102ec576100fe565b80639ce5d2ba146101fc578063a59a99731461022c578063b3ce07de1461024a578063e402080414610266576100fe565b8063715018a6116100d1578063715018a61461019a57806375b568a6146101a45780638da5cb5b146101c25780639cc8b2d1146101e0576100fe565b8063113aa8b11461010257806339a264d01461011e57806359917d7d1461014e57806361d0dae51461016a575b5f5ffd5b61011c60048036038101906101179190610ad0565b610308565b005b61013860048036038101906101339190610b2e565b61038a565b6040516101459190610b7b565b60405180910390f35b61016860048036038101906101639190610ad0565b6103c7565b005b610184600480360381019061017f9190610b2e565b610449565b6040516101919190610b7b565b60405180910390f35b6101a2610486565b005b6101ac610499565b6040516101b99190610b7b565b60405180910390f35b6101ca6104be565b6040516101d79190610b7b565b60405180910390f35b6101fa60048036038101906101f59190610ad0565b6104e5565b005b61021660048036038101906102119190610b94565b610567565b6040516102239190610bce565b60405180910390f35b61023461057c565b6040516102419190610b7b565b60405180910390f35b610264600480360381019061025f9190610be7565b6105a1565b005b61026e61075b565b60405161027b9190610b7b565b60405180910390f35b61029e60048036038101906102999190610c37565b610780565b005b6102ba60048036038101906102b59190610b94565b6107db565b6040516102c79190610b7b565b60405180910390f35b6102ea60048036038101906102e59190610ad0565b61080b565b005b61030660048036038101906103019190610c75565b61088f565b005b610310610923565b8060035f6101000a81548173ffffffffffffffffffffffffffffffffffffffff021916908373ffffffffffffffffffffffffffffffffffffffff1602179055507f1222804283c650162c0f858b42dcc4564e940f0cc2b3f001bcd6af8aa00a2f308160405161037f9190610b7b565b60405180910390a150565b6006602052815f5260405f20602052805f5260405f205f915091509054906101000a900473ffffffffffffffffffffffffffffffffffffffff1681565b6103cf610923565b8060025f6101000a81548173ffffffffffffffffffffffffffffffffffffffff021916908373ffffffffffffffffffffffffffffffffffffffff1602179055507fdfccf581ae27a41845f39125ccb5ef00c0a079c5bf3bf751ecd2045e2d6d442f8160405161043e9190610b7b565b60405180910390a150565b6007602052815f5260405f20602052805f5260405f205f915091509054906101000a900473ffffffffffffffffffffffffffffffffffffffff1681565b61048e610923565b6104975f6109aa565b565b60015f9054906101000a900473ffffffffffffffffffffffffffffffffffffffff1681565b5f5f5f9054906101000a900473ffffffffffffffffffffffffffffffffffffffff16905090565b6104ed610923565b8060015f6101000a81548173ffffffffffffffffffffffffffffffffffffffff021916908373ffffffffffffffffffffffffffffffffffffffff1602179055507f0a79aff962cc9e0a3ce8d1f62271362cbf066d9d0ffc588f0f90940b1fe419558160405161055c9190610b7b565b60405180910390a150565b6004602052805f5260405f205f915090505481565b60035f9054906101000a900473ffffffffffffffffffffffffffffffffffffffff1681565b6105a9610923565b5f60045f8481526020019081526020015f205490505f81036106045782816040517f31d64e820000000000000000000000000000000000000000000000000000000081526004016105fb929190610cb3565b60405180910390fd5b8160075f8673ffffffffffffffffffffffffffffffffffffffff1673ffffffffffffffffffffffffffffffffffffffff1681526020019081526020015f205f8381526020019081526020015f205f6101000a81548173ffffffffffffffffffffffffffffffffffffffff021916908373ffffffffffffffffffffffffffffffffffffffff1602179055508160065f8673ffffffffffffffffffffffffffffffffffffffff1673ffffffffffffffffffffffffffffffffffffffff1681526020019081526020015f205f8581526020019081526020015f205f6101000a81548173ffffffffffffffffffffffffffffffffffffffff021916908373ffffffffffffffffffffffffffffffffffffffff1602179055507f56c11b172f0dd7dd15debf6b9704a3b4af711bb611b33fcb966b2fa57530b9ff8484838560405161074d9493929190610cda565b60405180910390a150505050565b60025f9054906101000a900473ffffffffffffffffffffffffffffffffffffffff1681565b610788610923565b8060045f8481526020019081526020015f20819055507f84f965c2d43aff223849d7e2295ef7211c3118122c961e195d9dd40a32f46c8682826040516107cf929190610cb3565b60405180910390a15050565b6005602052805f5260405f205f915054906101000a900473ffffffffffffffffffffffffffffffffffffffff1681565b610813610923565b5f73ffffffffffffffffffffffffffffffffffffffff168173ffffffffffffffffffffffffffffffffffffffff1603610883575f6040517f1e4fbdf700000000000000000000000000000000000000000000000000000000815260040161087a9190610b7b565b60405180910390fd5b61088c816109aa565b50565b610897610923565b8060055f8481526020019081526020015f205f6101000a81548173ffffffffffffffffffffffffffffffffffffffff021916908373ffffffffffffffffffffffffffffffffffffffff1602179055507f08bb8a5c04b030742c31bf3ed154a8ee0a26b42d6edea42acb7a82eefbe8366b8282604051610917929190610d1d565b60405180910390a15050565b61092b610a6b565b73ffffffffffffffffffffffffffffffffffffffff166109496104be565b73ffffffffffffffffffffffffffffffffffffffff16146109a85761096c610a6b565b6040517f118cdaa700000000000000000000000000000000000000000000000000000000815260040161099f9190610b7b565b60405180910390fd5b565b5f5f5f9054906101000a900473ffffffffffffffffffffffffffffffffffffffff169050815f5f6101000a81548173ffffffffffffffffffffffffffffffffffffffff021916908373ffffffffffffffffffffffffffffffffffffffff1602179055508173ffffffffffffffffffffffffffffffffffffffff168173ffffffffffffffffffffffffffffffffffffffff167f8be0079c531659141344cd1fd0a4f28419497f9722a3daafe3b4186f6b6457e060405160405180910390a35050565b5f33905090565b5f5ffd5b5f73ffffffffffffffffffffffffffffffffffffffff82169050919050565b5f610a9f82610a76565b9050919050565b610aaf81610a95565b8114610ab9575f5ffd5b50565b5f81359050610aca81610aa6565b92915050565b5f60208284031215610ae557610ae4610a72565b5b5f610af284828501610abc565b91505092915050565b5f819050919050565b610b0d81610afb565b8114610b17575f5ffd5b50565b5f81359050610b2881610b04565b92915050565b5f5f60408385031215610b4457610b43610a72565b5b5f610b5185828601610abc565b9250506020610b6285828601610b1a565b9150509250929050565b610b7581610a95565b82525050565b5f602082019050610b8e5f830184610b6c565b92915050565b5f60208284031215610ba957610ba8610a72565b5b5f610bb684828501610b1a565b91505092915050565b610bc881610afb565b82525050565b5f602082019050610be15f830184610bbf565b92915050565b5f5f5f60608486031215610bfe57610bfd610a72565b5b5f610c0b86828701610abc565b9350506020610c1c86828701610b1a565b9250506040610c2d86828701610abc565b9150509250925092565b5f5f60408385031215610c4d57610c4c610a72565b5b5f610c5a85828601610b1a565b9250506020610c6b85828601610b1a565b9150509250929050565b5f5f60408385031215610c8b57610c8a610a72565b5b5f610c9885828601610b1a565b9250506020610ca985828601610abc565b9150509250929050565b5f604082019050610cc65f830185610bbf565b610cd36020830184610bbf565b9392505050565b5f608082019050610ced5f830187610b6c565b610cfa6020830186610bbf565b610d076040830185610bbf565b610d146060830184610b6c565b95945050505050565b5f604082019050610d305f830185610bbf565b610d3d6020830184610b6c565b939250505056fea264697066735822122029712d3c4c77943ef039f4c3661260f75e9491672ec6e1020b33bc2e410d21e764736f6c634300081e0033",
        "nonce": "0x53",
        "chainId": "0x2105"
      },
      "additionalContracts": [],
      "isFixedGasLimit": false
    },
    {
      "hash": "0xed6787054ec786fab8d7cb4411c0100f3ea0050e7adb5d6f9f199757ae7dd768",
      "transactionType": "CALL",
      "contractName": "Router",
      "contractAddress": "0x23c5462bcd096abfdfe9a845a9e1ec06bea3f81b",
      "function": "setTokenDataStream(address)",
      "arguments": [
        "0xB113959014d95C555B8A908D794e73478e5509A8"
      ],
      "transaction": {
        "from": "0xee03621ce83bbf6e3931bccf35b144354f16ccf7",
        "to": "0x23c5462bcd096abfdfe9a845a9e1ec06bea3f81b",
        "gas": "0x100ff",
        "value": "0x0",
        "input": "0x9cc8b2d1000000000000000000000000b113959014d95c555b8a908d794e73478e5509a8",
        "nonce": "0x54",
        "chainId": "0x2105"
      },
      "additionalContracts": [],
      "isFixedGasLimit": false
    },
    {
      "hash": "0x56680466ff9e13d05a96eea5f7a35d1ad093592044432ac935ae4fe8a62cc066",
      "transactionType": "CALL",
      "contractName": "Router",
      "contractAddress": "0x23c5462bcd096abfdfe9a845a9e1ec06bea3f81b",
      "function": "setIsHealthy(address)",
      "arguments": [
        "0x9EDF457dB4C061E22CD87d3E4a886CeA967b629B"
      ],
      "transaction": {
        "from": "0xee03621ce83bbf6e3931bccf35b144354f16ccf7",
        "to": "0x23c5462bcd096abfdfe9a845a9e1ec06bea3f81b",
        "gas": "0x10ffe",
        "value": "0x0",
        "input": "0x59917d7d0000000000000000000000009edf457db4c061e22cd87d3e4a886cea967b629b",
        "nonce": "0x55",
        "chainId": "0x2105"
      },
      "additionalContracts": [],
      "isFixedGasLimit": false
    },
    {
      "hash": "0x71c9322a22e6a646b5dfe075d919e7de0fb7637323d1300afe4308055cec6940",
      "transactionType": "CALL",
      "contractName": "Router",
      "contractAddress": "0x23c5462bcd096abfdfe9a845a9e1ec06bea3f81b",
      "function": "setLendingPool(address)",
      "arguments": [
        "0xC60D72c8Cb53842f15cfFa8A0bb9DbC759E44452"
      ],
      "transaction": {
        "from": "0xee03621ce83bbf6e3931bccf35b144354f16ccf7",
        "to": "0x23c5462bcd096abfdfe9a845a9e1ec06bea3f81b",
        "gas": "0x100a4",
        "value": "0x0",
        "input": "0x113aa8b1000000000000000000000000c60d72c8cb53842f15cffa8a0bb9dbc759e44452",
        "nonce": "0x56",
        "chainId": "0x2105"
      },
      "additionalContracts": [],
      "isFixedGasLimit": false
    },
    {
      "hash": "0xb1d19420d773886207352f2e313fa70172184080511605ef025806321883ba0d",
      "transactionType": "CALL",
      "contractName": "Router",
      "contractAddress": "0x23c5462bcd096abfdfe9a845a9e1ec06bea3f81b",
      "function": "setChainIdToLzEid(uint256,uint256)",
      "arguments": [
        "8453",
        "30184"
      ],
      "transaction": {
        "from": "0xee03621ce83bbf6e3931bccf35b144354f16ccf7",
        "to": "0x23c5462bcd096abfdfe9a845a9e1ec06bea3f81b",
        "gas": "0x102c0",
        "value": "0x0",
        "input": "0xe724bc74000000000000000000000000000000000000000000000000000000000000210500000000000000000000000000000000000000000000000000000000000075e8",
        "nonce": "0x57",
        "chainId": "0x2105"
      },
      "additionalContracts": [],
      "isFixedGasLimit": false
    },
    {
      "hash": "0xb699081cbeebd7852ffbc94d7ff1027b3361888bb77928f32d305869dce9aa6b",
      "transactionType": "CALL",
      "contractName": "Router",
      "contractAddress": "0x23c5462bcd096abfdfe9a845a9e1ec06bea3f81b",
      "function": "setChainIdToLzEid(uint256,uint256)",
      "arguments": [
        "42161",
        "30110"
      ],
      "transaction": {
        "from": "0xee03621ce83bbf6e3931bccf35b144354f16ccf7",
        "to": "0x23c5462bcd096abfdfe9a845a9e1ec06bea3f81b",
        "gas": "0x102c0",
        "value": "0x0",
        "input": "0xe724bc74000000000000000000000000000000000000000000000000000000000000a4b1000000000000000000000000000000000000000000000000000000000000759e",
        "nonce": "0x58",
        "chainId": "0x2105"
      },
      "additionalContracts": [],
      "isFixedGasLimit": false
    },
    {
      "hash": "0x677581e4798966c69f3b40650c180e1eea8fa26c6804dff4bf7b298d641d30e6",
      "transactionType": "CALL",
      "contractName": "Router",
      "contractAddress": "0x23c5462bcd096abfdfe9a845a9e1ec06bea3f81b",
      "function": "setChainIdToOApp(uint256,address)",
      "arguments": [
        "8453",
        "0x9B7168FC8cECeE70B1bEeD9B5EcFcD1f649F2B1C"
      ],
      "transaction": {
        "from": "0xee03621ce83bbf6e3931bccf35b144354f16ccf7",
        "to": "0x23c5462bcd096abfdfe9a845a9e1ec06bea3f81b",
        "gas": "0x1146d",
        "value": "0x0",
        "input": "0xf86ae78800000000000000000000000000000000000000000000000000000000000021050000000000000000000000009b7168fc8cecee70b1beed9b5ecfcd1f649f2b1c",
        "nonce": "0x59",
        "chainId": "0x2105"
      },
      "additionalContracts": [],
      "isFixedGasLimit": false
    },
    {
      "hash": "0x1023d21c49b77f283ece085b7be14ce85d609ccd68f2184ca9d5397e0680007f",
      "transactionType": "CALL",
      "contractName": "Router",
      "contractAddress": "0x23c5462bcd096abfdfe9a845a9e1ec06bea3f81b",
      "function": "setCrosschainToken(address,uint256,address)",
      "arguments": [
        "0xe3BaB20B2711e0577C46d14fd10bfFC0961036C3",
        "42161",
        "0xC23e60Ac84240ffCe72680652515dfb1435C356b"
      ],
      "transaction": {
        "from": "0xee03621ce83bbf6e3931bccf35b144354f16ccf7",
        "to": "0x23c5462bcd096abfdfe9a845a9e1ec06bea3f81b",
        "gas": "0x1911b",
        "value": "0x0",
        "input": "0xb3ce07de000000000000000000000000e3bab20b2711e0577c46d14fd10bffc0961036c3000000000000000000000000000000000000000000000000000000000000a4b1000000000000000000000000c23e60ac84240ffce72680652515dfb1435c356b",
        "nonce": "0x5a",
        "chainId": "0x2105"
      },
      "additionalContracts": [],
      "isFixedGasLimit": false
    },
    {
      "hash": "0x79237ffe0dc57cf9e7fbc82b132df848208435a400db0e2953125af7f98bd22b",
      "transactionType": "CALL",
      "contractName": "Router",
      "contractAddress": "0x23c5462bcd096abfdfe9a845a9e1ec06bea3f81b",
      "function": "setCrosschainToken(address,uint256,address)",
      "arguments": [
        "0xE29A9fBdf3d83c126C6366D7f401473Ab0850e7F",
        "42161",
        "0x338802B73DA88D05e1b3A0203092AD43807049Be"
      ],
      "transaction": {
        "from": "0xee03621ce83bbf6e3931bccf35b144354f16ccf7",
        "to": "0x23c5462bcd096abfdfe9a845a9e1ec06bea3f81b",
        "gas": "0x1911b",
        "value": "0x0",
        "input": "0xb3ce07de000000000000000000000000e29a9fbdf3d83c126c6366d7f401473ab0850e7f000000000000000000000000000000000000000000000000000000000000a4b1000000000000000000000000338802b73da88d05e1b3a0203092ad43807049be",
        "nonce": "0x5b",
        "chainId": "0x2105"
      },
      "additionalContracts": [],
      "isFixedGasLimit": false
    },
    {
      "hash": "0x0bda0e7f5cf875253d0999b18e91f80aacb4c87b239cf21774fa1de990ca7242",
      "transactionType": "CALL",
      "contractName": null,
      "contractAddress": "0xc60d72c8cb53842f15cffa8a0bb9dbc759e44452",
      "function": "setRouter(address)",
      "arguments": [
        "0x23c5462BcD096AbFdFe9A845A9E1Ec06bEa3F81B"
      ],
      "transaction": {
        "from": "0xee03621ce83bbf6e3931bccf35b144354f16ccf7",
        "to": "0xc60d72c8cb53842f15cffa8a0bb9dbc759e44452",
        "gas": "0xc131",
        "value": "0x0",
        "input": "0xc0d7865500000000000000000000000023c5462bcd096abfdfe9a845a9e1ec06bea3f81b",
        "nonce": "0x5c",
        "chainId": "0x2105"
      },
      "additionalContracts": [],
      "isFixedGasLimit": false
    }
  ],
  "receipts": [
    {
      "status": "0x1",
      "cumulativeGasUsed": "0x63a0b0",
      "logs": [
        {
          "address": "0x23c5462bcd096abfdfe9a845a9e1ec06bea3f81b",
          "topics": [
            "0x8be0079c531659141344cd1fd0a4f28419497f9722a3daafe3b4186f6b6457e0",
            "0x0000000000000000000000000000000000000000000000000000000000000000",
            "0x000000000000000000000000ee03621ce83bbf6e3931bccf35b144354f16ccf7"
          ],
          "data": "0x",
          "blockHash": "0x48187f999b10fdeeffc8a5dc1d59c229e10520082210c1df6125a4339da72158",
          "blockNumber": "0x23483cd",
          "blockTimestamp": "0x68f3647d",
          "transactionHash": "0xf9f06a4f5e7fc20113041ad0af0fdc5a59f2e662f1491456aeca195631e4c464",
          "transactionIndex": "0x2d",
          "logIndex": "0x73",
          "removed": false
        }
      ],
      "logsBloom": "0x00000000000000000000000000000000000000000000000000800000000000000000000000000800000000000000000000000000000000000000000000000000000000000000000000000010040000000001000000000000000000000000000000000000020000000000000000000800000000000000000000000000000000400000000000000000000000004000000000000000000000000000000000000000000000000000000000000000000000000000000000000000000000000000000000000000000008000000000010000000000000000000000000000000000020000000000000000000000000000000000000000000000000000000000000000000",
      "type": "0x2",
      "transactionHash": "0xf9f06a4f5e7fc20113041ad0af0fdc5a59f2e662f1491456aeca195631e4c464",
      "transactionIndex": "0x2d",
      "blockHash": "0x48187f999b10fdeeffc8a5dc1d59c229e10520082210c1df6125a4339da72158",
      "blockNumber": "0x23483cd",
      "gasUsed": "0xca3da",
      "effectiveGasPrice": "0x112897",
      "from": "0xee03621ce83bbf6e3931bccf35b144354f16ccf7",
      "to": null,
      "contractAddress": "0x23c5462bcd096abfdfe9a845a9e1ec06bea3f81b",
      "l1BaseFeeScalar": "0x8dd",
      "l1BlobBaseFee": "0x1",
      "l1BlobBaseFeeScalar": "0x101c12",
      "l1Fee": "0x1933fbb60",
      "l1GasPrice": "0x6989c21",
      "l1GasUsed": "0x693f"
    },
    {
      "status": "0x1",
      "cumulativeGasUsed": "0x645ac0",
      "logs": [
        {
          "address": "0x23c5462bcd096abfdfe9a845a9e1ec06bea3f81b",
          "topics": [
            "0x0a79aff962cc9e0a3ce8d1f62271362cbf066d9d0ffc588f0f90940b1fe41955"
          ],
          "data": "0x000000000000000000000000b113959014d95c555b8a908d794e73478e5509a8",
          "blockHash": "0x48187f999b10fdeeffc8a5dc1d59c229e10520082210c1df6125a4339da72158",
          "blockNumber": "0x23483cd",
          "blockTimestamp": "0x68f3647d",
          "transactionHash": "0xed6787054ec786fab8d7cb4411c0100f3ea0050e7adb5d6f9f199757ae7dd768",
          "transactionIndex": "0x2e",
          "logIndex": "0x74",
          "removed": false
        }
      ],
      "logsBloom": "0x00000000000000000000000000000000000000000000000000000000000000000000000000000801000000000000000000000000000000000000000000000000000000000000000000000000000000000000000000000000000000000000000000000000000000000000000000000000000000000000000000000000000000000000000000000000000000004000000000000000000000000000000000000000000000000000000000000000000000000000000000000000000000020000000000000000000008000000008000000000000000000000000000000000000000000000000000000000000000000000000000000000000000000000000000000000",
      "type": "0x2",
      "transactionHash": "0xed6787054ec786fab8d7cb4411c0100f3ea0050e7adb5d6f9f199757ae7dd768",
      "transactionIndex": "0x2e",
      "blockHash": "0x48187f999b10fdeeffc8a5dc1d59c229e10520082210c1df6125a4339da72158",
      "blockNumber": "0x23483cd",
      "gasUsed": "0xba10",
      "effectiveGasPrice": "0x112897",
      "from": "0xee03621ce83bbf6e3931bccf35b144354f16ccf7",
      "to": "0x23c5462bcd096abfdfe9a845a9e1ec06bea3f81b",
      "contractAddress": null,
      "l1BaseFeeScalar": "0x8dd",
      "l1BlobBaseFee": "0x1",
      "l1BlobBaseFeeScalar": "0x101c12",
      "l1Fee": "0x17f254b6",
      "l1GasPrice": "0x6989c21",
      "l1GasUsed": "0x640"
    },
    {
      "status": "0x1",
      "cumulativeGasUsed": "0x6514bb",
      "logs": [
        {
          "address": "0x23c5462bcd096abfdfe9a845a9e1ec06bea3f81b",
          "topics": [
            "0xdfccf581ae27a41845f39125ccb5ef00c0a079c5bf3bf751ecd2045e2d6d442f"
          ],
          "data": "0x0000000000000000000000009edf457db4c061e22cd87d3e4a886cea967b629b",
          "blockHash": "0x48187f999b10fdeeffc8a5dc1d59c229e10520082210c1df6125a4339da72158",
          "blockNumber": "0x23483cd",
          "blockTimestamp": "0x68f3647d",
          "transactionHash": "0x56680466ff9e13d05a96eea5f7a35d1ad093592044432ac935ae4fe8a62cc066",
          "transactionIndex": "0x2f",
          "logIndex": "0x75",
          "removed": false
        }
      ],
      "logsBloom": "0x00000000000000000000000000000000000000000000000000000000000000000000000000000800000000000000000000000000000000000000000000000000000000000000000000000000000000000000000000000000000000000000000000000000000000000000000000000000000000000000000000004000000000000000000000000000000800004000000000000000000000000000000000000000000000000000000000000000000000000000000000000000000000000000000000000000000008000000000100000000000000000000000000000000000000000000000000000000000000000000000000000000000000000000000000000000",
      "type": "0x2",
      "transactionHash": "0x56680466ff9e13d05a96eea5f7a35d1ad093592044432ac935ae4fe8a62cc066",
      "transactionIndex": "0x2f",
      "blockHash": "0x48187f999b10fdeeffc8a5dc1d59c229e10520082210c1df6125a4339da72158",
      "blockNumber": "0x23483cd",
      "gasUsed": "0xb9fb",
      "effectiveGasPrice": "0x112897",
      "from": "0xee03621ce83bbf6e3931bccf35b144354f16ccf7",
      "to": "0x23c5462bcd096abfdfe9a845a9e1ec06bea3f81b",
      "contractAddress": null,
      "l1BaseFeeScalar": "0x8dd",
      "l1BlobBaseFee": "0x1",
      "l1BlobBaseFeeScalar": "0x101c12",
      "l1Fee": "0x17f254b6",
      "l1GasPrice": "0x6989c21",
      "l1GasUsed": "0x640"
    },
    {
      "status": "0x1",
      "cumulativeGasUsed": "0x65ce8a",
      "logs": [
        {
          "address": "0x23c5462bcd096abfdfe9a845a9e1ec06bea3f81b",
          "topics": [
            "0x1222804283c650162c0f858b42dcc4564e940f0cc2b3f001bcd6af8aa00a2f30"
          ],
          "data": "0x000000000000000000000000c60d72c8cb53842f15cffa8a0bb9dbc759e44452",
          "blockHash": "0x48187f999b10fdeeffc8a5dc1d59c229e10520082210c1df6125a4339da72158",
          "blockNumber": "0x23483cd",
          "blockTimestamp": "0x68f3647d",
          "transactionHash": "0x71c9322a22e6a646b5dfe075d919e7de0fb7637323d1300afe4308055cec6940",
          "transactionIndex": "0x30",
          "logIndex": "0x76",
          "removed": false
        }
      ],
      "logsBloom": "0x00000000000040000000000000000000000000000000000000000000000000000000000000000800000000000000000000000000000000000000000000000000000000000000000000000000000000000000000000000000000000000000000000000000000200000000000000000000000000000000000000000000000000000000000000000000000000004000000000000000000000000000000000000000000000000000000000000000000000000000000000000000000000000000000000000000000008000000000000000000000000000000000000000000000000000000000000000000000000000000000000000000000000000000000000000010",
      "type": "0x2",
      "transactionHash": "0x71c9322a22e6a646b5dfe075d919e7de0fb7637323d1300afe4308055cec6940",
      "transactionIndex": "0x30",
      "blockHash": "0x48187f999b10fdeeffc8a5dc1d59c229e10520082210c1df6125a4339da72158",
      "blockNumber": "0x23483cd",
      "gasUsed": "0xb9cf",
      "effectiveGasPrice": "0x112897",
      "from": "0xee03621ce83bbf6e3931bccf35b144354f16ccf7",
      "to": "0x23c5462bcd096abfdfe9a845a9e1ec06bea3f81b",
      "contractAddress": null,
      "l1BaseFeeScalar": "0x8dd",
      "l1BlobBaseFee": "0x1",
      "l1BlobBaseFeeScalar": "0x101c12",
      "l1Fee": "0x17f254b6",
      "l1GasPrice": "0x6989c21",
      "l1GasUsed": "0x640"
    },
    {
      "status": "0x1",
      "cumulativeGasUsed": "0x6689df",
      "logs": [
        {
          "address": "0x23c5462bcd096abfdfe9a845a9e1ec06bea3f81b",
          "topics": [
            "0x84f965c2d43aff223849d7e2295ef7211c3118122c961e195d9dd40a32f46c86"
          ],
          "data": "0x000000000000000000000000000000000000000000000000000000000000210500000000000000000000000000000000000000000000000000000000000075e8",
          "blockHash": "0x48187f999b10fdeeffc8a5dc1d59c229e10520082210c1df6125a4339da72158",
          "blockNumber": "0x23483cd",
          "blockTimestamp": "0x68f3647d",
          "transactionHash": "0xb1d19420d773886207352f2e313fa70172184080511605ef025806321883ba0d",
          "transactionIndex": "0x31",
          "logIndex": "0x77",
          "removed": false
        }
      ],
      "logsBloom": "0x00000000000000000000000000000000020000000000000000000000000000000000000000000800000000000000000000000000000000000000000000000000000000000000000000000000000000000000080000000000000000000000000000000000000000000000000000000000000000000000000000000000000000000000000000000000000000004000000000000000000000000000000000000000000000000000000000000000000000000000000000000000020000000000000000000000000008000000000000000000000000000000000000000000000000000000000000000000000000000000000000000000000000000000000000000000",
      "type": "0x2",
      "transactionHash": "0xb1d19420d773886207352f2e313fa70172184080511605ef025806321883ba0d",
      "transactionIndex": "0x31",
      "blockHash": "0x48187f999b10fdeeffc8a5dc1d59c229e10520082210c1df6125a4339da72158",
      "blockNumber": "0x23483cd",
      "gasUsed": "0xbb55",
      "effectiveGasPrice": "0x112897",
      "from": "0xee03621ce83bbf6e3931bccf35b144354f16ccf7",
      "to": "0x23c5462bcd096abfdfe9a845a9e1ec06bea3f81b",
      "contractAddress": null,
      "l1BaseFeeScalar": "0x8dd",
      "l1BlobBaseFee": "0x1",
      "l1BlobBaseFeeScalar": "0x101c12",
      "l1Fee": "0x17f254b6",
      "l1GasPrice": "0x6989c21",
      "l1GasUsed": "0x640"
    },
    {
      "status": "0x1",
      "cumulativeGasUsed": "0xc32c17",
      "logs": [
        {
          "address": "0x23c5462bcd096abfdfe9a845a9e1ec06bea3f81b",
          "topics": [
            "0x84f965c2d43aff223849d7e2295ef7211c3118122c961e195d9dd40a32f46c86"
          ],
          "data": "0x000000000000000000000000000000000000000000000000000000000000a4b1000000000000000000000000000000000000000000000000000000000000759e",
          "blockHash": "0x48187f999b10fdeeffc8a5dc1d59c229e10520082210c1df6125a4339da72158",
          "blockNumber": "0x23483cd",
          "blockTimestamp": "0x68f3647d",
          "transactionHash": "0xb699081cbeebd7852ffbc94d7ff1027b3361888bb77928f32d305869dce9aa6b",
          "transactionIndex": "0x47",
          "logIndex": "0xcf",
          "removed": false
        }
      ],
      "logsBloom": "0x00000000000000000000000000000000020000000000000000000000000000000000000000000800000000000000000000000000000000000000000000000000000000000000000000000000000000000000080000000000000000000000000000000000000000000000000000000000000000000000000000000000000000000000000000000000000000004000000000000000000000000000000000000000000000000000000000000000000000000000000000000000020000000000000000000000000008000000000000000000000000000000000000000000000000000000000000000000000000000000000000000000000000000000000000000000",
      "type": "0x2",
      "transactionHash": "0xb699081cbeebd7852ffbc94d7ff1027b3361888bb77928f32d305869dce9aa6b",
      "transactionIndex": "0x47",
      "blockHash": "0x48187f999b10fdeeffc8a5dc1d59c229e10520082210c1df6125a4339da72158",
      "blockNumber": "0x23483cd",
      "gasUsed": "0xbb55",
      "effectiveGasPrice": "0x112897",
      "from": "0xee03621ce83bbf6e3931bccf35b144354f16ccf7",
      "to": "0x23c5462bcd096abfdfe9a845a9e1ec06bea3f81b",
      "contractAddress": null,
      "l1BaseFeeScalar": "0x8dd",
      "l1BlobBaseFee": "0x1",
      "l1BlobBaseFeeScalar": "0x101c12",
      "l1Fee": "0x17f254b6",
      "l1GasPrice": "0x6989c21",
      "l1GasUsed": "0x640"
    },
    {
      "status": "0x1",
      "cumulativeGasUsed": "0xc3e91a",
      "logs": [
        {
          "address": "0x23c5462bcd096abfdfe9a845a9e1ec06bea3f81b",
          "topics": [
            "0x08bb8a5c04b030742c31bf3ed154a8ee0a26b42d6edea42acb7a82eefbe8366b"
          ],
          "data": "0x00000000000000000000000000000000000000000000000000000000000021050000000000000000000000009b7168fc8cecee70b1beed9b5ecfcd1f649f2b1c",
          "blockHash": "0x48187f999b10fdeeffc8a5dc1d59c229e10520082210c1df6125a4339da72158",
          "blockNumber": "0x23483cd",
          "blockTimestamp": "0x68f3647d",
          "transactionHash": "0x677581e4798966c69f3b40650c180e1eea8fa26c6804dff4bf7b298d641d30e6",
          "transactionIndex": "0x48",
          "logIndex": "0xd0",
          "removed": false
        }
      ],
      "logsBloom": "0x00000000000000000000000000000000000000000000000000002000000000000000000000000800000000000000000000000000000000000000000000000000000000000000000000000000000000000000000000000000000000000000000000000000000000000000000000000000000000000000000000000000000000000000000000000000000000004000000000000000000000000010000000000000000000000000000000000000000000000000000000000000000000000000000000000000000008000000000000000000000000000000000000000000000000000000000000000000000000000000000000000000000000000000040000000000",
      "type": "0x2",
      "transactionHash": "0x677581e4798966c69f3b40650c180e1eea8fa26c6804dff4bf7b298d641d30e6",
      "transactionIndex": "0x48",
      "blockHash": "0x48187f999b10fdeeffc8a5dc1d59c229e10520082210c1df6125a4339da72158",
      "blockNumber": "0x23483cd",
      "gasUsed": "0xbd03",
      "effectiveGasPrice": "0x112897",
      "from": "0xee03621ce83bbf6e3931bccf35b144354f16ccf7",
      "to": "0x23c5462bcd096abfdfe9a845a9e1ec06bea3f81b",
      "contractAddress": null,
      "l1BaseFeeScalar": "0x8dd",
      "l1BlobBaseFee": "0x1",
      "l1BlobBaseFeeScalar": "0x101c12",
      "l1Fee": "0x17f254b6",
      "l1GasPrice": "0x6989c21",
      "l1GasUsed": "0x640"
    },
    {
      "status": "0x1",
      "cumulativeGasUsed": "0x1016aa3",
      "logs": [
        {
          "address": "0x23c5462bcd096abfdfe9a845a9e1ec06bea3f81b",
          "topics": [
            "0x56c11b172f0dd7dd15debf6b9704a3b4af711bb611b33fcb966b2fa57530b9ff"
          ],
          "data": "0x000000000000000000000000e3bab20b2711e0577c46d14fd10bffc0961036c3000000000000000000000000000000000000000000000000000000000000a4b1000000000000000000000000000000000000000000000000000000000000759e000000000000000000000000c23e60ac84240ffce72680652515dfb1435c356b",
          "blockHash": "0x48187f999b10fdeeffc8a5dc1d59c229e10520082210c1df6125a4339da72158",
          "blockNumber": "0x23483cd",
          "blockTimestamp": "0x68f3647d",
          "transactionHash": "0x1023d21c49b77f283ece085b7be14ce85d609ccd68f2184ca9d5397e0680007f",
          "transactionIndex": "0x5d",
          "logIndex": "0xf1",
          "removed": false
        }
      ],
      "logsBloom": "0x00000000000000000000000000000000000000000000000000000000000000000000000000000800000000000000000000000000000000000000000000000000000000000000000000000000000000000000000000000000000000000000000000000000000000000000000000000000000000000000000000000000000000000000000800000000000000004000000000000000000000000000000000000000000000000000000000000000000000000000000000000000000000000100000000000000000008000000000000000000000000000000000000000000000000000000000100000000000000000000000000000000000000000000000000000000",
      "type": "0x2",
      "transactionHash": "0x1023d21c49b77f283ece085b7be14ce85d609ccd68f2184ca9d5397e0680007f",
      "transactionIndex": "0x5d",
      "blockHash": "0x48187f999b10fdeeffc8a5dc1d59c229e10520082210c1df6125a4339da72158",
      "blockNumber": "0x23483cd",
      "gasUsed": "0x12265",
      "effectiveGasPrice": "0x112897",
      "from": "0xee03621ce83bbf6e3931bccf35b144354f16ccf7",
      "to": "0x23c5462bcd096abfdfe9a845a9e1ec06bea3f81b",
      "contractAddress": null,
      "l1BaseFeeScalar": "0x8dd",
      "l1BlobBaseFee": "0x1",
      "l1BlobBaseFeeScalar": "0x101c12",
      "l1Fee": "0x1941f5dc",
      "l1GasPrice": "0x6989c21",
      "l1GasUsed": "0x697"
    },
    {
      "status": "0x1",
      "cumulativeGasUsed": "0x1028d08",
      "logs": [
        {
          "address": "0x23c5462bcd096abfdfe9a845a9e1ec06bea3f81b",
          "topics": [
            "0x56c11b172f0dd7dd15debf6b9704a3b4af711bb611b33fcb966b2fa57530b9ff"
          ],
          "data": "0x000000000000000000000000e29a9fbdf3d83c126c6366d7f401473ab0850e7f000000000000000000000000000000000000000000000000000000000000a4b1000000000000000000000000000000000000000000000000000000000000759e000000000000000000000000338802b73da88d05e1b3a0203092ad43807049be",
          "blockHash": "0x48187f999b10fdeeffc8a5dc1d59c229e10520082210c1df6125a4339da72158",
          "blockNumber": "0x23483cd",
          "blockTimestamp": "0x68f3647d",
          "transactionHash": "0x79237ffe0dc57cf9e7fbc82b132df848208435a400db0e2953125af7f98bd22b",
          "transactionIndex": "0x5e",
          "logIndex": "0xf2",
          "removed": false
        }
      ],
      "logsBloom": "0x00000000000000000000000000000000000000000000000000000000000000000000000000000800000000000000000000000000000000000000000000000000000000000000000000000000000000000000000000000000000000000000000000000000000000000000000000000000000000000000000000000000000000000000000800000000000000004000000000000000000000000000000000000000000000000000000000000000000000000000000000000000000000000100000000000000000008000000000000000000000000000000000000000000000000000000000100000000000000000000000000000000000000000000000000000000",
      "type": "0x2",
      "transactionHash": "0x79237ffe0dc57cf9e7fbc82b132df848208435a400db0e2953125af7f98bd22b",
      "transactionIndex": "0x5e",
      "blockHash": "0x48187f999b10fdeeffc8a5dc1d59c229e10520082210c1df6125a4339da72158",
      "blockNumber": "0x23483cd",
      "gasUsed": "0x12265",
      "effectiveGasPrice": "0x112897",
      "from": "0xee03621ce83bbf6e3931bccf35b144354f16ccf7",
      "to": "0x23c5462bcd096abfdfe9a845a9e1ec06bea3f81b",
      "contractAddress": null,
      "l1BaseFeeScalar": "0x8dd",
      "l1BlobBaseFee": "0x1",
      "l1BlobBaseFeeScalar": "0x101c12",
      "l1Fee": "0x1941f5dc",
      "l1GasPrice": "0x6989c21",
      "l1GasUsed": "0x697"
    },
    {
      "status": "0x1",
      "cumulativeGasUsed": "0x1116900",
      "logs": [
        {
          "address": "0xc60d72c8cb53842f15cffa8a0bb9dbc759e44452",
          "topics": [
            "0xc6b438e6a8a59579ce6a4406cbd203b740e0d47b458aae6596339bcd40c40d15"
          ],
          "data": "0x00000000000000000000000023c5462bcd096abfdfe9a845a9e1ec06bea3f81b",
          "blockHash": "0x48187f999b10fdeeffc8a5dc1d59c229e10520082210c1df6125a4339da72158",
          "blockNumber": "0x23483cd",
          "blockTimestamp": "0x68f3647d",
          "transactionHash": "0x0bda0e7f5cf875253d0999b18e91f80aacb4c87b239cf21774fa1de990ca7242",
          "transactionIndex": "0x6d",
          "logIndex": "0xf8",
          "removed": false
        }
      ],
      "logsBloom": "0x00000000000000000000000000000000000000000000000000000000000000000000000000000000000000000000000000000000000000000000000000000000000000000000000000000000000000000000000000000000000000000000100000000000000000000000000000000000000000000018000000000000000000000000000000000000000000000000000000000000000000000000000000000000000000400000000000000000000000000000000000000000000000000000000000000000000000000000000000000000000000400000000000000000000000000000000000000010000000000000000000000000000000000000000000000000",
      "type": "0x2",
      "transactionHash": "0x0bda0e7f5cf875253d0999b18e91f80aacb4c87b239cf21774fa1de990ca7242",
      "transactionIndex": "0x6d",
      "blockHash": "0x48187f999b10fdeeffc8a5dc1d59c229e10520082210c1df6125a4339da72158",
      "blockNumber": "0x23483cd",
      "gasUsed": "0x8bdf",
      "effectiveGasPrice": "0x112897",
      "from": "0xee03621ce83bbf6e3931bccf35b144354f16ccf7",
      "to": "0xc60d72c8cb53842f15cffa8a0bb9dbc759e44452",
      "contractAddress": null,
      "l1BaseFeeScalar": "0x8dd",
      "l1BlobBaseFee": "0x1",
      "l1BlobBaseFeeScalar": "0x101c12",
      "l1Fee": "0x17f254b6",
      "l1GasPrice": "0x6989c21",
      "l1GasUsed": "0x640"
    }
  ],
  "libraries": [],
  "pending": [],
  "returns": {},
  "timestamp": 1760781461752,
  "chain": 8453,
  "commit": "aaddbdd"
}