{
  "transactions": [
    {
      "hash": "0x2300b8b9b2ffa6ac5c9745e95315ca9aa4a5a2b9f86a92dd7da5a052da761d63",
      "transactionType": "CALL",
      "contractName": null,
      "contractAddress": "0xc60d72c8cb53842f15cffa8a0bb9dbc759e44452",
      "function": "borrow(address,address,uint256,uint256)",
      "arguments": [
        "0xEe03621Ce83BbF6e3931BcCf35b144354F16ccf7",
        "0xe3BaB20B2711e0577C46d14fd10bfFC0961036C3",
        "500000000",
        "42161"
      ],
      "transaction": {
        "from": "0xee03621ce83bbf6e3931bccf35b144354f16ccf7",
        "to": "0xc60d72c8cb53842f15cffa8a0bb9dbc759e44452",
        "gas": "0x78fc2",
        "value": "0x155340f65a8e",
        "input": "0xfbf37739000000000000000000000000ee03621ce83bbf6e3931bccf35b144354f16ccf7000000000000000000000000e3bab20b2711e0577c46d14fd10bffc0961036c3000000000000000000000000000000000000000000000000000000001dcd6500000000000000000000000000000000000000000000000000000000000000a4b1",
        "nonce": "0x79",
        "chainId": "0x2105"
      },
      "additionalContracts": [],
      "isFixedGasLimit": false
    }
  ],
  "receipts": [
    {
      "status": "0x1",
      "cumulativeGasUsed": "0x21367c5",
      "logs": [
        {
          "address": "0xb5320b0b3a13cc860893e2bd79fcd7e13484dda2",
          "topics": [
            "0x61ed099e74a97a1d7f8bb0952a88ca8b7b8ebd00c126ea04671f92a81213318a"
          ],
          "data": "0x0000000000000000000000002cca08ae69e0c44b18a57ab2a87644234daebae40000000000000000000000000000000000000000000000000000112887e5e98e",
          "blockHash": "0xd53c767aa0ead3fa5b660974d0f8b559cbf71bf2dac051c5c7ba72aabfd04f1d",
          "blockNumber": "0x23558d3",
          "blockTimestamp": "0x68f50e89",
          "transactionHash": "0x2300b8b9b2ffa6ac5c9745e95315ca9aa4a5a2b9f86a92dd7da5a052da761d63",
          "transactionIndex": "0x69",
          "logIndex": "0x246",
          "removed": false
        },
        {
          "address": "0xb5320b0b3a13cc860893e2bd79fcd7e13484dda2",
          "topics": [
            "0x07ea52d82345d6e838192107d8fd7123d9c2ec8e916cd0aad13fd2b60db24644"
          ],
          "data": "0x000000000000000000000000000000000000000000000000000000000000006000000000000000000000000000000000000000000000000000000000000000c000000000000000000000000000000000000000000000000000000000000000e00000000000000000000000000000000000000000000000000000000000000002000000000000000000000000554833698ae0fb22ecc90b01222903fd62ca4b47000000000000000000000000a7b5189bca84cd304d8553977c7c614329750d99000000000000000000000000000000000000000000000000000000000000000000000000000000000000000000000000000000000000000000000000000000020000000000000000000000000000000000000000000000000000021940869600000000000000000000000000000000000000000000000000000002117889db00",
          "blockHash": "0xd53c767aa0ead3fa5b660974d0f8b559cbf71bf2dac051c5c7ba72aabfd04f1d",
          "blockNumber": "0x23558d3",
          "blockTimestamp": "0x68f50e89",
          "transactionHash": "0x2300b8b9b2ffa6ac5c9745e95315ca9aa4a5a2b9f86a92dd7da5a052da761d63",
          "transactionIndex": "0x69",
          "logIndex": "0x247",
          "removed": false
        },
        {
          "address": "0x1a44076050125825900e736c501f859c50fe728c",
          "topics": [
            "0x1ab700d4ced0c005b164c0f789fd09fcbb0156d4c2041b8a3bfbcd961cd1567f"
          ],
          "data": "0x00000000000000000000000000000000000000000000000000000000000000600000000000000000000000000000000000000000000000000000000000000140000000000000000000000000b5320b0b3a13cc860893e2bd79fcd7e13484dda200000000000000000000000000000000000000000000000000000000000000b1010000000000000002000075e80000000000000000000000009b7168fc8cecee70b1beed9b5ecfcd1f649f2b1c0000759e0000000000000000000000008da2f4663d02dbf598d90f5172347aecf119b463cdeb3c7f34098a02b90bb43e218ad8b02b6535fe8f82b2949ccf6bfb4f8b8153000000000000000000000000000000000000000000000000000000001dcd6500000000000000000000000000c23e60ac84240ffce72680652515dfb1435c356b0000000000000000000000000000000000000000000000000000000000000000000000000000000000000000000016000301001101000000000000000000000000000186a000000000000000000000",
          "blockHash": "0xd53c767aa0ead3fa5b660974d0f8b559cbf71bf2dac051c5c7ba72aabfd04f1d",
          "blockNumber": "0x23558d3",
          "blockTimestamp": "0x68f50e89",
          "transactionHash": "0x2300b8b9b2ffa6ac5c9745e95315ca9aa4a5a2b9f86a92dd7da5a052da761d63",
          "transactionIndex": "0x69",
          "logIndex": "0x248",
          "removed": false
        },
        {
          "address": "0xc60d72c8cb53842f15cffa8a0bb9dbc759e44452",
          "topics": [
            "0xc1561b330e73faa7d5d1ac03c968d8f359b0191ccdb9cc002cf7d8eb6ae038cb",
            "0x000000000000000000000000ee03621ce83bbf6e3931bccf35b144354f16ccf7",
            "0x000000000000000000000000e3bab20b2711e0577c46d14fd10bffc0961036c3"
          ],
          "data": "0x000000000000000000000000000000000000000000000000000000001dcd6500000000000000000000000000000000000000000000000000000000000000a4b1",
          "blockHash": "0xd53c767aa0ead3fa5b660974d0f8b559cbf71bf2dac051c5c7ba72aabfd04f1d",
          "blockNumber": "0x23558d3",
          "blockTimestamp": "0x68f50e89",
          "transactionHash": "0x2300b8b9b2ffa6ac5c9745e95315ca9aa4a5a2b9f86a92dd7da5a052da761d63",
          "transactionIndex": "0x69",
          "logIndex": "0x249",
          "removed": false
        }
      ],
      "logsBloom": "0x00000000001000000000000000000800000000000000000000000000001000000000000000004000000000000000000000000000000000000000000000020000000000000000000000000410040000000000000000000000000000000000000100000000000000008000000000000000000000000018080000000000000000000000000000000000000000080000000000000000000000000004000000000000000000408000000000100000000000000000000000400000000440000000000000000000000000000000000010000000000000000000000000000000000000000100040000000000000000000000002000000000010000000000000000000000",
      "type": "0x2",
      "transactionHash": "0x2300b8b9b2ffa6ac5c9745e95315ca9aa4a5a2b9f86a92dd7da5a052da761d63",
      "transactionIndex": "0x69",
      "blockHash": "0xd53c767aa0ead3fa5b660974d0f8b559cbf71bf2dac051c5c7ba72aabfd04f1d",
      "blockNumber": "0x23558d3",
      "gasUsed": "0x52b99",
      "effectiveGasPrice": "0xccde5",
      "from": "0xee03621ce83bbf6e3931bccf35b144354f16ccf7",
      "to": "0xc60d72c8cb53842f15cffa8a0bb9dbc759e44452",
      "contractAddress": null,
      "l1BaseFeeScalar": "0x8dd",
      "l1BlobBaseFee": "0x1",
      "l1BlobBaseFeeScalar": "0x101c12",
      "l1Fee": "0x248d6c00",
      "l1GasPrice": "0x887ec22",
      "l1GasUsed": "0x760"
    }
  ],
  "libraries": [],
  "pending": [],
  "returns": {},
  "timestamp": 1760890505996,
  "chain": 8453,
  "commit": "aaddbdd"
}