{
  "transactions": [
    {
      "hash": "0xaa87b4ffe6420ff4eb324b02c4f09480b18712cf6f564d46c9c6f4d41de1c100",
      "transactionType": "CALL",
      "contractName": null,
      "contractAddress": "0xc60d72c8cb53842f15cffa8a0bb9dbc759e44452",
      "function": "borrow(address,address,uint256,uint256)",
      "arguments": [
        "0xEe03621Ce83BbF6e3931BcCf35b144354F16ccf7",
        "0xe3BaB20B2711e0577C46d14fd10bfFC0961036C3",
        "500000000",
        "42161"
      ],
      "transaction": {
        "from": "0xee03621ce83bbf6e3931bccf35b144354f16ccf7",
        "to": "0xc60d72c8cb53842f15cffa8a0bb9dbc759e44452",
        "gas": "0x71a7a",
        "value": "0x1d82e7597d8e",
        "input": "0xfbf37739000000000000000000000000ee03621ce83bbf6e3931bccf35b144354f16ccf7000000000000000000000000e3bab20b2711e0577c46d14fd10bffc0961036c3000000000000000000000000000000000000000000000000000000001dcd6500000000000000000000000000000000000000000000000000000000000000a4b1",
        "nonce": "0x8b",
        "chainId": "0x2105"
      },
      "additionalContracts": [],
      "isFixedGasLimit": false
    }
  ],
  "receipts": [
    {
      "status": "0x1",
      "cumulativeGasUsed": "0x16dd93b",
      "logs": [
        {
          "address": "0xb5320b0b3a13cc860893e2bd79fcd7e13484dda2",
          "topics": [
            "0x61ed099e74a97a1d7f8bb0952a88ca8b7b8ebd00c126ea04671f92a81213318a"
          ],
          "data": "0x0000000000000000000000002cca08ae69e0c44b18a57ab2a87644234daebae4000000000000000000000000000000000000000000000000000019580ed0688e",
          "blockHash": "0xdf82ac4b898233bd11fea907e2872b4828d3f9c79b41803c7082e4158881a800",
          "blockNumber": "0x2356649",
          "blockTimestamp": "0x68f52975",
          "transactionHash": "0xaa87b4ffe6420ff4eb324b02c4f09480b18712cf6f564d46c9c6f4d41de1c100",
          "transactionIndex": "0x3e",
          "logIndex": "0x25b",
          "removed": false
        },
        {
          "address": "0xb5320b0b3a13cc860893e2bd79fcd7e13484dda2",
          "topics": [
            "0x07ea52d82345d6e838192107d8fd7123d9c2ec8e916cd0aad13fd2b60db24644"
          ],
          "data": "0x000000000000000000000000000000000000000000000000000000000000006000000000000000000000000000000000000000000000000000000000000000c000000000000000000000000000000000000000000000000000000000000000e00000000000000000000000000000000000000000000000000000000000000002000000000000000000000000554833698ae0fb22ecc90b01222903fd62ca4b47000000000000000000000000a7b5189bca84cd304d8553977c7c614329750d9900000000000000000000000000000000000000000000000000000000000000000000000000000000000000000000000000000000000000000000000000000002000000000000000000000000000000000000000000000000000002195042e8000000000000000000000000000000000000000000000000000000021188462d00",
          "blockHash": "0xdf82ac4b898233bd11fea907e2872b4828d3f9c79b41803c7082e4158881a800",
          "blockNumber": "0x2356649",
          "blockTimestamp": "0x68f52975",
          "transactionHash": "0xaa87b4ffe6420ff4eb324b02c4f09480b18712cf6f564d46c9c6f4d41de1c100",
          "transactionIndex": "0x3e",
          "logIndex": "0x25c",
          "removed": false
        },
        {
          "address": "0x1a44076050125825900e736c501f859c50fe728c",
          "topics": [
            "0x1ab700d4ced0c005b164c0f789fd09fcbb0156d4c2041b8a3bfbcd961cd1567f"
          ],
          "data": "0x00000000000000000000000000000000000000000000000000000000000000600000000000000000000000000000000000000000000000000000000000000140000000000000000000000000b5320b0b3a13cc860893e2bd79fcd7e13484dda200000000000000000000000000000000000000000000000000000000000000b1010000000000000003000075e80000000000000000000000002099fde6100bd4b7a5004a1ae4077be9469984a80000759e00000000000000000000000023c5462bcd096abfdfe9a845a9e1ec06bea3f81ba27f0891b1fc0a03277de4114484b8df6d3dd3452dc45210ad503682341d3e43000000000000000000000000000000000000000000000000000000001dcd6500000000000000000000000000c23e60ac84240ffce72680652515dfb1435c356b0000000000000000000000000000000000000000000000000000000000000000000000000000000000000000000016000301001101000000000000000000000000000f424000000000000000000000",
          "blockHash": "0xdf82ac4b898233bd11fea907e2872b4828d3f9c79b41803c7082e4158881a800",
          "blockNumber": "0x2356649",
          "blockTimestamp": "0x68f52975",
          "transactionHash": "0xaa87b4ffe6420ff4eb324b02c4f09480b18712cf6f564d46c9c6f4d41de1c100",
          "transactionIndex": "0x3e",
          "logIndex": "0x25d",
          "removed": false
        },
        {
          "address": "0xc60d72c8cb53842f15cffa8a0bb9dbc759e44452",
          "topics": [
            "0xc1561b330e73faa7d5d1ac03c968d8f359b0191ccdb9cc002cf7d8eb6ae038cb",
            "0x000000000000000000000000ee03621ce83bbf6e3931bccf35b144354f16ccf7",
            "0x000000000000000000000000e3bab20b2711e0577c46d14fd10bffc0961036c3"
          ],
          "data": "0x000000000000000000000000000000000000000000000000000000001dcd6500000000000000000000000000000000000000000000000000000000000000a4b1",
          "blockHash": "0xdf82ac4b898233bd11fea907e2872b4828d3f9c79b41803c7082e4158881a800",
          "blockNumber": "0x2356649",
          "blockTimestamp": "0x68f52975",
          "transactionHash": "0xaa87b4ffe6420ff4eb324b02c4f09480b18712cf6f564d46c9c6f4d41de1c100",
          "transactionIndex": "0x3e",
          "logIndex": "0x25e",
          "removed": false
        }
      ],
      "logsBloom": "0x00000000001000000000000000000800000000000000000000000000001000000000000000004000000000000000000000000000000000000000000000020000000000000000000000000410040000000000000000000000000000000000000100000000000000008000000000000000000000000018080000000000000000000000000000000000000000080000000000000000000000000004000000000000000000408000000000100000000000000000000000400000000440000000000000000000000000000000000010000000000000000000000000000000000000000100040000000000000000000000002000000000010000000000000000000000",
      "type": "0x2",
      "transactionHash": "0xaa87b4ffe6420ff4eb324b02c4f09480b18712cf6f564d46c9c6f4d41de1c100",
      "transactionIndex": "0x3e",
      "blockHash": "0xdf82ac4b898233bd11fea907e2872b4828d3f9c79b41803c7082e4158881a800",
      "blockNumber": "0x2356649",
      "gasUsed": "0x5248c",
      "effectiveGasPrice": "0x1cd05c",
      "from": "0xee03621ce83bbf6e3931bccf35b144354f16ccf7",
      "to": "0xc60d72c8cb53842f15cffa8a0bb9dbc759e44452",
      "contractAddress": null,
      "l1BaseFeeScalar": "0x8dd",
      "l1BlobBaseFee": "0x1",
      "l1BlobBaseFeeScalar": "0x101c12",
      "l1Fee": "0x1ec853b8",
      "l1GasPrice": "0x7223d8c",
      "l1GasUsed": "0x76d"
    }
  ],
  "libraries": [],
  "pending": [],
  "returns": {},
  "timestamp": 1760897397712,
  "chain": 8453,
  "commit": "aaddbdd"
}