{
  "transactions": [
    {
      "hash": "0x191bbbe0841c9ccb6a85306deaf8e15d94c10dcac0c61ff0454a87d3ceb46419",
      "transactionType": "CALL",
      "contractName": null,
      "contractAddress": "0xc60d72c8cb53842f15cffa8a0bb9dbc759e44452",
      "function": "withdrawLiquidity(address,address,uint256)",
      "arguments": [
        "0xEe03621Ce83BbF6e3931BcCf35b144354F16ccf7",
        "0xe3BaB20B2711e0577C46d14fd10bfFC0961036C3",
        "1000000"
      ],
      "transaction": {
        "from": "0xee03621ce83bbf6e3931bccf35b144354f16ccf7",
        "to": "0xc60d72c8cb53842f15cffa8a0bb9dbc759e44452",
        "gas": "0x22cc5",
        "value": "0x0",
        "input": "0xffb409e9000000000000000000000000ee03621ce83bbf6e3931bccf35b144354f16ccf7000000000000000000000000e3bab20b2711e0577c46d14fd10bffc0961036c300000000000000000000000000000000000000000000000000000000000f4240",
        "nonce": "0x3f",
        "chainId": "0x2105"
      },
      "additionalContracts": [],
      "isFixedGasLimit": false
    }
  ],
  "receipts": [
    {
      "status": "0x1",
      "cumulativeGasUsed": "0x6f8217",
      "logs": [
        {
          "address": "0xe3bab20b2711e0577c46d14fd10bffc0961036c3",
          "topics": [
            "0xddf252ad1be2c89b69c2b068fc378daa952ba7f163c4a11628f55a4df523b3ef",
            "0x000000000000000000000000c60d72c8cb53842f15cffa8a0bb9dbc759e44452",
            "0x000000000000000000000000ee03621ce83bbf6e3931bccf35b144354f16ccf7"
          ],
          "data": "0x00000000000000000000000000000000000000000000000000000000000f4240",
          "blockHash": "0x4399e86e02359e17fdb8bbf180d383e693e00325e87018bb2bd3853914b95d77",
          "blockNumber": "0x2346e8c",
          "blockTimestamp": "0x68f339fb",
          "transactionHash": "0x191bbbe0841c9ccb6a85306deaf8e15d94c10dcac0c61ff0454a87d3ceb46419",
          "transactionIndex": "0x3d",
          "logIndex": "0x63",
          "removed": false
        },
        {
          "address": "0xc60d72c8cb53842f15cffa8a0bb9dbc759e44452",
          "topics": [
            "0x9981da2583b514f3a4dfcecf1d7b984a0d27c74837920d6728dbc6a3ea9b1ffe",
            "0x000000000000000000000000ee03621ce83bbf6e3931bccf35b144354f16ccf7",
            "0x000000000000000000000000e3bab20b2711e0577c46d14fd10bffc0961036c3"
          ],
          "data": "0x00000000000000000000000000000000000000000000000000000000000f4240",
          "blockHash": "0x4399e86e02359e17fdb8bbf180d383e693e00325e87018bb2bd3853914b95d77",
          "blockNumber": "0x2346e8c",
          "blockTimestamp": "0x68f339fb",
          "transactionHash": "0x191bbbe0841c9ccb6a85306deaf8e15d94c10dcac0c61ff0454a87d3ceb46419",
          "transactionIndex": "0x3d",
          "logIndex": "0x64",
          "removed": false
        }
      ],
      "logsBloom": "0x00000000000000000000000000000800000000000000000000000000000000000000000000080000000800000000000000000001000000000020000000000000000000000000000000000018040000000000000000000000000000000080000000000010000000004000000000000000000000000018080000000010000000000000000000000000000000000000000000000000000000000000000000000000000000400000000000000000000000000000000000000000000000000000000000000022000000000000000012000000000000000000000000000000000000000100000000000000000000000000000000000000000000000000000000000000",
      "type": "0x2",
      "transactionHash": "0x191bbbe0841c9ccb6a85306deaf8e15d94c10dcac0c61ff0454a87d3ceb46419",
      "transactionIndex": "0x3d",
      "blockHash": "0x4399e86e02359e17fdb8bbf180d383e693e00325e87018bb2bd3853914b95d77",
      "blockNumber": "0x2346e8c",
      "gasUsed": "0x17cb3",
      "effectiveGasPrice": "0x1fca60",
      "from": "0xee03621ce83bbf6e3931bccf35b144354f16ccf7",
      "to": "0xc60d72c8cb53842f15cffa8a0bb9dbc759e44452",
      "contractAddress": null,
      "l1BaseFeeScalar": "0x8dd",
      "l1BlobBaseFee": "0x1",
      "l1BlobBaseFeeScalar": "0x101c12",
      "l1Fee": "0x18453097",
      "l1GasPrice": "0x649d4a4",
      "l1GasUsed": "0x6a4"
    }
  ],
  "libraries": [],
  "pending": [],
  "returns": {},
  "timestamp": 1760770555646,
  "chain": 8453,
  "commit": "ad7e428"
}